{
  "_format": "hh-sol-artifact-1",
  "contractName": "ProjectTemplateRegistry",
  "sourceName": "contracts/ProjectTemplateRegistry.sol",
  "abi": [
    {
      "inputs": [],
      "stateMutability": "nonpayable",
      "type": "constructor"
    },
    {
      "anonymous": false,
      "inputs": [
        {
          "indexed": true,
          "internalType": "uint256",
          "name": "templateId",
          "type": "uint256"
        },
        {
          "indexed": false,
          "internalType": "uint256",
          "name": "timestamp",
          "type": "uint256"
        }
      ],
      "name": "TemplateDeactivated",
      "type": "event"
    },
    {
      "anonymous": false,
      "inputs": [
        {
          "indexed": true,
          "internalType": "uint256",
          "name": "templateId",
          "type": "uint256"
        },
        {
          "indexed": false,
          "internalType": "string",
          "name": "name",
          "type": "string"
        },
        {
          "indexed": false,
          "internalType": "string",
          "name": "projectType",
          "type": "string"
        },
        {
          "indexed": true,
          "internalType": "address",
          "name": "creator",
          "type": "address"
        },
        {
          "indexed": false,
          "internalType": "uint256",
          "name": "timestamp",
          "type": "uint256"
        }
      ],
      "name": "TemplateRegistered",
      "type": "event"
    },
    {
      "anonymous": false,
      "inputs": [
        {
          "indexed": true,
          "internalType": "uint256",
          "name": "templateId",
          "type": "uint256"
        },
        {
          "indexed": false,
          "internalType": "string",
          "name": "name",
          "type": "string"
        },
        {
          "indexed": false,
          "internalType": "uint256",
          "name": "timestamp",
          "type": "uint256"
        }
      ],
      "name": "TemplateUpdated",
      "type": "event"
    },
    {
      "inputs": [
        {
          "internalType": "uint256",
          "name": "_templateId",
          "type": "uint256"
        },
        {
          "internalType": "string",
          "name": "_fieldName",
          "type": "string"
        },
        {
          "internalType": "string",
          "name": "_fieldType",
          "type": "string"
        },
        {
          "internalType": "bool",
          "name": "_isRequired",
          "type": "bool"
        },
        {
          "internalType": "string",
          "name": "_defaultValue",
          "type": "string"
        }
      ],
      "name": "addTemplateField",
      "outputs": [],
      "stateMutability": "nonpayable",
      "type": "function"
    },
    {
      "inputs": [
        {
          "internalType": "string",
          "name": "_name",
          "type": "string"
        },
        {
          "internalType": "string",
          "name": "_description",
          "type": "string"
        },
        {
          "internalType": "string",
          "name": "_projectType",
          "type": "string"
        },
        {
          "internalType": "string[]",
          "name": "_participantRoles",
          "type": "string[]"
        },
        {
          "internalType": "string",
          "name": "_exampleJSON",
          "type": "string"
        }
      ],
      "name": "createTemplate",
      "outputs": [
        {
          "internalType": "uint256",
          "name": "",
          "type": "uint256"
        }
      ],
      "stateMutability": "nonpayable",
      "type": "function"
    },
    {
      "inputs": [
        {
          "internalType": "uint256",
          "name": "_templateId",
          "type": "uint256"
        }
      ],
      "name": "deactivateTemplate",
      "outputs": [],
      "stateMutability": "nonpayable",
      "type": "function"
    },
    {
      "inputs": [],
      "name": "getAllTemplates",
      "outputs": [
        {
          "internalType": "uint256[]",
          "name": "",
          "type": "uint256[]"
        }
      ],
      "stateMutability": "view",
      "type": "function"
    },
    {
      "inputs": [
        {
          "internalType": "uint256",
          "name": "_templateId",
          "type": "uint256"
        }
      ],
      "name": "getTemplate",
      "outputs": [
        {
          "internalType": "string",
          "name": "name",
          "type": "string"
        },
        {
          "internalType": "string",
          "name": "description",
          "type": "string"
        },
        {
          "internalType": "string",
          "name": "projectType",
          "type": "string"
        },
        {
          "internalType": "string[]",
          "name": "participantRoles",
          "type": "string[]"
        },
        {
          "internalType": "string",
          "name": "exampleJSON",
          "type": "string"
        },
        {
          "internalType": "bool",
          "name": "isActive",
          "type": "bool"
        }
      ],
      "stateMutability": "view",
      "type": "function"
    },
    {
      "inputs": [],
      "name": "getTemplateCount",
      "outputs": [
        {
          "internalType": "uint256",
          "name": "",
          "type": "uint256"
        }
      ],
      "stateMutability": "view",
      "type": "function"
    },
    {
      "inputs": [
        {
          "internalType": "uint256",
          "name": "_templateId",
          "type": "uint256"
        }
      ],
      "name": "getTemplateFields",
      "outputs": [
        {
          "internalType": "string[]",
          "name": "fieldNames",
          "type": "string[]"
        },
        {
          "internalType": "string[]",
          "name": "fieldTypes",
          "type": "string[]"
        },
        {
          "internalType": "bool[]",
          "name": "isRequired",
          "type": "bool[]"
        },
        {
          "internalType": "string[]",
          "name": "defaultValues",
          "type": "string[]"
        }
      ],
      "stateMutability": "view",
      "type": "function"
    },
    {
      "inputs": [
        {
          "internalType": "string",
          "name": "_projectType",
          "type": "string"
        }
      ],
      "name": "getTemplatesByType",
      "outputs": [
        {
          "internalType": "uint256[]",
          "name": "",
          "type": "uint256[]"
        }
      ],
      "stateMutability": "view",
      "type": "function"
    },
    {
      "inputs": [
        {
          "internalType": "uint256",
          "name": "",
          "type": "uint256"
        }
      ],
      "name": "templates",
      "outputs": [
        {
          "internalType": "string",
          "name": "name",
          "type": "string"
        },
        {
          "internalType": "string",
          "name": "description",
          "type": "string"
        },
        {
          "internalType": "string",
          "name": "projectType",
          "type": "string"
        },
        {
          "internalType": "string",
          "name": "exampleJSON",
          "type": "string"
        },
        {
          "internalType": "bool",
          "name": "isActive",
          "type": "bool"
        },
        {
          "internalType": "address",
          "name": "creator",
          "type": "address"
        },
        {
          "internalType": "uint256",
          "name": "createdAt",
          "type": "uint256"
        }
      ],
      "stateMutability": "view",
      "type": "function"
    },
    {
      "inputs": [
        {
          "internalType": "address",
          "name": "",
          "type": "address"
        },
        {
          "internalType": "uint256",
          "name": "",
          "type": "uint256"
        }
      ],
      "name": "templatesByCreator",
      "outputs": [
        {
          "internalType": "uint256",
          "name": "",
          "type": "uint256"
        }
      ],
      "stateMutability": "view",
      "type": "function"
    },
    {
      "inputs": [
        {
          "internalType": "string",
          "name": "",
          "type": "string"
        },
        {
          "internalType": "uint256",
          "name": "",
          "type": "uint256"
        }
      ],
      "name": "templatesByType",
      "outputs": [
        {
          "internalType": "uint256",
          "name": "",
          "type": "uint256"
        }
      ],
      "stateMutability": "view",
      "type": "function"
    }
  ],
  "bytecode": "0x608060405234801561001057600080fd5b50610019610026565b610021610a4e565b61168e565b60408051600380825260808201909252600091816020015b606081526020019060019003908161003e5790505090506040518060400160405280600a8152602001693230ba30afb7bbb732b960b11b8152508160008151811061008b5761008b611531565b60200260200101819052506040518060400160405280600a81526020016930b3b3b932b3b0ba37b960b11b815250816001815181106100cc576100cc611531565b60200260200101819052506040518060400160405280600b81526020016a31b7b7b93234b730ba37b960a91b8152508160028151811061010e5761010e611531565b602002602001018190525060006040518061022001604052806101fd815260200161367f6101fd913960008054600181018083558280529293509181908390811061015b5761015b611531565b9060005260206000209060080201905060405180604001604052806012815260200171466564657261746564204c6561726e696e6760701b8152508160000190816101a691906115d0565b506040518060600160405280603d8152602001613642603d913960018201906101cf90826115d0565b5060408051808201909152601281526000805160206134308339815191526020820152600282019061020190826115d0565b5083516102179060038301906020870190611456565b506005810161022684826115d0565b506006818101805460016001600160a81b031990911661010030021781179091554260078401556040805160c081018252600a60808201908152691c1c9bda9958dd17da5960b21b60a083015281528151808301835293845265737472696e6760d01b6020808601919091528082019490945280820183905281518085019092526000808352606082019290925260048086018054948501815583529390912081519193929092029091019081906102de90826115d0565b50602082015160018201906102f390826115d0565b50604082015160028201805460ff19169115159190911790556060820151600382019061032090826115d0565b50506040805160c081018252600460808201818152637479706560e01b60a08401528252825180840184526006815265737472696e6760d01b60208281019190915280840191909152600183850181905284518086019095526012855260008051602061343083398151915285830152606084019490945281860180549485018155600090815220825192945092029091019081906103bf90826115d0565b50602082015160018201906103d490826115d0565b50604082015160028201805460ff19169115159190911790556060820151600382019061040190826115d0565b50506040805160c081018252600960808201908152686f626a65637469766560b81b60a08301528152815180830183526006815265737472696e6760d01b6020828101919091528083019190915260018284018190528351808301909452600080855260608401949094526004808701805492830181558552919093208251929450920290910190819061049590826115d0565b50602082015160018201906104aa90826115d0565b50604082015160028201805460ff1916911515919091179055606082015160038201906104d790826115d0565b50505080600401604051806080016040528060405180604001604052806005815260200164726f6c657360d81b815250815260200160405180604001604052806005815260200164617272617960d81b815250815260200160011515815260200160405180606001604052806029815260200161387c602991399052815460018101835560009283526020909220815191926004020190819061057a90826115d0565b506020820151600182019061058f90826115d0565b50604082015160028201805460ff1916911515919091179055606082015160038201906105bc90826115d0565b50506040805160c081018252600c608082019081526b7061727469636970616e747360a01b60a08301528152815180830183526005815264617272617960d81b602082810191909152808301919091526001828401819052835180850190945260028452615b5d60f01b8483015260608301939093526004808601805494850181556000908152919091208251929450920290910190819061065e90826115d0565b506020820151600182019061067390826115d0565b50604082015160028201805460ff1916911515919091179055606082015160038201906106a090826115d0565b50506040805160c0810182526006608082018181526561737365747360d01b60a0840152825282518084018452908152651bd89a9958dd60d21b6020828101919091528083019190915260018284018190528351808501909452601c84527f7b226461746173657473223a5b5d2c2273637269707473223a5b5d7d000000008483015260608301939093526004808601805494850181556000908152919091208251929450920290910190819061075790826115d0565b506020820151600182019061076c90826115d0565b50604082015160028201805460ff19169115159190911790556060820151600382019061079990826115d0565b50506040805160c08101825260086080820190815267776f726b666c6f7760c01b60a083015281528151808301835260068152651bd89a9958dd60d21b6020828101919091528083019190915260018284018190528351808501909452600c84526b7b227374657073223a5b5d7d60a01b8483015260608301939093526004808601805494850181556000908152919091208251929450920290910190819061084290826115d0565b506020820151600182019061085790826115d0565b50604082015160028201805460ff19169115159190911790556060820151600382019061088490826115d0565b50506040805160c08101825260086080820190815267706f6c696369657360c01b60a083015281528151808301835260068152651bd89a9958dd60d21b6020828101919091528083019190915260018284018190528351808501909452600d84526c7b22616363657373223a7b7d7d60981b8483015260608301939093526004808601805494850181556000908152919091208251929450920290910190819061092e90826115d0565b506020820151600182019061094390826115d0565b50604082015160028201805460ff19169115159190911790556060820151600382019061097090826115d0565b5050604051600080516020613430833981519152815260019150601201908152604080519182900360209081018320805460018181018355600092835283832090910187905530808352600284529382208054918201815582529190200184905590839060008051602061341083398151915290610a409042906060808252601290820181905271466564657261746564204c6561726e696e6760701b608083015260a06020830181905282015260008051602061343083398151915260c0820152604081019190915260e00190565b60405180910390a350505050565b60408051600380825260808201909252600091816020015b6060815260200190600190039081610a665790505090506040518060400160405280600a8152602001693932b9b2b0b931b432b960b11b81525081600081518110610ab357610ab3611531565b6020026020010181905250604051806040016040528060088152602001673932bb34b2bbb2b960c11b81525081600181518110610af257610af2611531565b60200260200101819052506040518060400160405280600b81526020016a31b7b7b93234b730ba37b960a91b81525081600281518110610b3457610b34611531565b60200260200101819052506000604051806101a0016040528061017f815260200161349c61017f9139600080546001810180835582805292935091819083908110610b8157610b81611531565b906000526020600020906008020190506040518060400160405280601681526020017f526573656172636820436f6c6c61626f726174696f6e00000000000000000000815250816000019081610bd791906115d0565b506040518060600160405280602c8152602001613450602c91396001820190610c0090826115d0565b50604080518082019091526016815260008051602061347c83398151915260208201526002820190610c3290826115d0565b508351610c489060038301906020870190611456565b5060058101610c5784826115d0565b506006818101805460016001600160a81b031990911661010030021781179091554260078401556040805160c081018252600a60808201908152691c1c9bda9958dd17da5960b21b60a083015281528151808301835293845265737472696e6760d01b602080860191909152808201949094528082018390528151808501909252600080835260608201929092526004808601805494850181558352939091208151919392909202909101908190610d0f90826115d0565b5060208201516001820190610d2490826115d0565b50604082015160028201805460ff191691151591909117905560608201516003820190610d5190826115d0565b50506040805160c081018252600460808201818152637479706560e01b60a08401528252825180840184526006815265737472696e6760d01b60208281019190915280840191909152600183850181905284518086019095526016855260008051602061347c8339815191528583015260608401949094528186018054948501815560009081522082519294509202909101908190610df090826115d0565b5060208201516001820190610e0590826115d0565b50604082015160028201805460ff191691151591909117905560608201516003820190610e3290826115d0565b50506040805160c081018252600960808201908152686f626a65637469766560b81b60a08301528152815180830183526006815265737472696e6760d01b60208281019190915280830191909152600182840181905283518083019094526000808552606084019490945260048087018054928301815585529190932082519294509202909101908190610ec690826115d0565b5060208201516001820190610edb90826115d0565b50604082015160028201805460ff191691151591909117905560608201516003820190610f0890826115d0565b50505080600401604051806080016040528060405180604001604052806005815260200164726f6c657360d81b815250815260200160405180604001604052806005815260200164617272617960d81b815250815260200160011515815260200160405180606001604052806027815260200161361b6027913990528154600181018355600092835260209092208151919260040201908190610fab90826115d0565b5060208201516001820190610fc090826115d0565b50604082015160028201805460ff191691151591909117905560608201516003820190610fed90826115d0565b50506040805160c081018252600c608082019081526b7061727469636970616e747360a01b60a08301528152815180830183526005815264617272617960d81b602082810191909152808301919091526001828401819052835180850190945260028452615b5d60f01b8483015260608301939093526004808601805494850181556000908152919091208251929450920290910190819061108f90826115d0565b50602082015160018201906110a490826115d0565b50604082015160028201805460ff1916911515919091179055606082015160038201906110d190826115d0565b50506040805160c081018252600e608082019081526d72657365617263685f617265617360901b60a08301528152815180830183526005815264617272617960d81b602082810191909152808301919091526001828401819052835180850190945260028452615b5d60f01b8483015260608301939093526004808601805494850181556000908152919091208251929450920290910190819061117590826115d0565b506020820151600182019061118a90826115d0565b50604082015160028201805460ff1916911515919091179055606082015160038201906111b790826115d0565b50506040805160c081018252600c608082019081526b7075626c69636174696f6e7360a01b60a08301528152815180830183526005815264617272617960d81b602082810191909152808301919091526000828401819052835180850190945260028452615b5d60f01b84830152606083019390935260048086018054600181018255908552919093208251929450920290910190819061125890826115d0565b506020820151600182019061126d90826115d0565b50604082015160028201805460ff19169115159190911790556060820151600382019061129a90826115d0565b50506040805160c081018252600a60808201908152696d696c6573746f6e657360b01b60a08301528152815180830183526005815264617272617960d81b602082810191909152808301919091526000828401819052835180850190945260028452615b5d60f01b84830152606083019390935260048086018054600181018255908552919093208251929450920290910190819061133990826115d0565b506020820151600182019061134e90826115d0565b50604082015160028201805460ff19169115159190911790556060820151600382019061137b90826115d0565b505060405160008051602061347c833981519152815260019150601601908152604080519182900360209081018320805460018181018355600092835283832090910187905530808352600284529382208054918201815582529190200184905590839060008051602061341083398151915290610a40904290606080825260169082018190527f526573656172636820436f6c6c61626f726174696f6e00000000000000000000608083015260a06020830181905282015260008051602061347c83398151915260c0820152604081019190915260e00190565b82805482825590600052602060002090810192821561149c579160200282015b8281111561149c578251829061148c90826115d0565b5091602001919060010190611476565b506114a89291506114ac565b5090565b808211156114a85760006114c082826114c9565b506001016114ac565b5080546114d590611547565b6000825580601f106114e5575050565b601f0160209004906000526020600020908101906115039190611506565b50565b5b808211156114a85760008155600101611507565b634e487b7160e01b600052604160045260246000fd5b634e487b7160e01b600052603260045260246000fd5b600181811c9082168061155b57607f821691505b60208210810361157b57634e487b7160e01b600052602260045260246000fd5b50919050565b601f8211156115cb57806000526020600020601f840160051c810160208510156115a85750805b601f840160051c820191505b818110156115c857600081556001016115b4565b50505b505050565b81516001600160401b038111156115e9576115e961151b565b6115fd816115f78454611547565b84611581565b6020601f82116001811461163157600083156116195750848201515b600019600385901b1c1916600184901b1784556115c8565b600084815260208120601f198516915b828110156116615787850151825560209485019460019092019101611641565b508482101561167f5786840151600019600387901b60f8161c191681555b50505050600190811b01905550565b611d738061169d6000396000f3fe608060405234801561001057600080fd5b50600436106100a95760003560e01c8063a12228e211610071578063a12228e21461012b578063bc5256521461013e578063d3ebf9c514610164578063d830082f14610177578063df7157691461018a578063e74ed18a1461019d57600080fd5b80631d1a689e146100ae57806331543cf4146100c35780635016959a146100f15780638e46a300146101035780639a33dab014610118575b600080fd5b6100c16100bc366004611554565b6101c0565b005b6100d66100d1366004611554565b6102fb565b6040516100e896959493929190611619565b60405180910390f35b6000545b6040519081526020016100e8565b61010b610906565b6040516100e89190611690565b6100f56101263660046116d3565b61098a565b61010b6101393660046117c0565b6109bb565b61015161014c366004611554565b610a2b565b6040516100e897969594939291906117fc565b6100f5610172366004611918565b610cab565b6100f56101853660046119ff565b610e90565b6100c1610198366004611a43565b610ebb565b6101b06101ab366004611554565b611032565b6040516100e89493929190611add565b60005481106101ea5760405162461bcd60e51b81526004016101e190611b5d565b60405180910390fd5b336001600160a01b03166000828154811061020757610207611b94565b600091825260209091206008909102016006015461010090046001600160a01b0316146102825760405162461bcd60e51b8152602060048201526024808201527f4f6e6c792074656d706c6174652063726561746f722063616e206465616374696044820152637661746560e01b60648201526084016101e1565b600080828154811061029657610296611b94565b906000526020600020906008020160060160006101000a81548160ff021916908315150217905550807f7207c44586dc0a66684a1bcea62a6cf5b1e7e6365b0f6de987db6c32bd50cec5426040516102f091815260200190565b60405180910390a250565b60608060608060606000808054905087106103285760405162461bcd60e51b81526004016101e190611b5d565b600080888154811061033c5761033c611b94565b90600052602060002090600802016040518061012001604052908160008201805461036690611baa565b80601f016020809104026020016040519081016040528092919081815260200182805461039290611baa565b80156103df5780601f106103b4576101008083540402835291602001916103df565b820191906000526020600020905b8154815290600101906020018083116103c257829003601f168201915b505050505081526020016001820180546103f890611baa565b80601f016020809104026020016040519081016040528092919081815260200182805461042490611baa565b80156104715780601f1061044657610100808354040283529160200191610471565b820191906000526020600020905b81548152906001019060200180831161045457829003601f168201915b5050505050815260200160028201805461048a90611baa565b80601f01602080910402602001604051908101604052809291908181526020018280546104b690611baa565b80156105035780601f106104d857610100808354040283529160200191610503565b820191906000526020600020905b8154815290600101906020018083116104e657829003601f168201915b5050505050815260200160038201805480602002602001604051908101604052809291908181526020016000905b828210156105dd57838290600052602060002001805461055090611baa565b80601f016020809104026020016040519081016040528092919081815260200182805461057c90611baa565b80156105c95780601f1061059e576101008083540402835291602001916105c9565b820191906000526020600020905b8154815290600101906020018083116105ac57829003601f168201915b505050505081526020019060010190610531565b50505050815260200160048201805480602002602001604051908101604052809291908181526020016000905b82821015610805578382906000526020600020906004020160405180608001604052908160008201805461063d90611baa565b80601f016020809104026020016040519081016040528092919081815260200182805461066990611baa565b80156106b65780601f1061068b576101008083540402835291602001916106b6565b820191906000526020600020905b81548152906001019060200180831161069957829003601f168201915b505050505081526020016001820180546106cf90611baa565b80601f01602080910402602001604051908101604052809291908181526020018280546106fb90611baa565b80156107485780601f1061071d57610100808354040283529160200191610748565b820191906000526020600020905b81548152906001019060200180831161072b57829003601f168201915b5050509183525050600282015460ff161515602082015260038201805460409092019161077490611baa565b80601f01602080910402602001604051908101604052809291908181526020018280546107a090611baa565b80156107ed5780601f106107c2576101008083540402835291602001916107ed565b820191906000526020600020905b8154815290600101906020018083116107d057829003601f168201915b5050505050815250508152602001906001019061060a565b50505050815260200160058201805461081d90611baa565b80601f016020809104026020016040519081016040528092919081815260200182805461084990611baa565b80156108965780601f1061086b57610100808354040283529160200191610896565b820191906000526020600020905b81548152906001019060200180831161087957829003601f168201915b5050509183525050600682015460ff811615156020808401919091526101009091046001600160a01b0316604080840191909152600790930154606092830152835190840151928401519184015160a085015160c090950151919d939c50919a5090985091965090945092505050565b60008054606091906001600160401b038111156109255761092561170b565b60405190808252806020026020018201604052801561094e578160200160208202803683370190505b50905060005b600054811015610984578082828151811061097157610971611b94565b6020908102919091010152600101610954565b50919050565b600260205281600052604060002081815481106109a657600080fd5b90600052602060002001600091509150505481565b60606001826040516109cd9190611bde565b9081526040805191829003602090810183208054808302850183019093528284529190830182828015610a1f57602002820191906000526020600020905b815481526020019060010190808311610a0b575b50505050509050919050565b60008181548110610a3b57600080fd5b9060005260206000209060080201600091509050806000018054610a5e90611baa565b80601f0160208091040260200160405190810160405280929190818152602001828054610a8a90611baa565b8015610ad75780601f10610aac57610100808354040283529160200191610ad7565b820191906000526020600020905b815481529060010190602001808311610aba57829003601f168201915b505050505090806001018054610aec90611baa565b80601f0160208091040260200160405190810160405280929190818152602001828054610b1890611baa565b8015610b655780601f10610b3a57610100808354040283529160200191610b65565b820191906000526020600020905b815481529060010190602001808311610b4857829003601f168201915b505050505090806002018054610b7a90611baa565b80601f0160208091040260200160405190810160405280929190818152602001828054610ba690611baa565b8015610bf35780601f10610bc857610100808354040283529160200191610bf3565b820191906000526020600020905b815481529060010190602001808311610bd657829003601f168201915b505050505090806005018054610c0890611baa565b80601f0160208091040260200160405190810160405280929190818152602001828054610c3490611baa565b8015610c815780601f10610c5657610100808354040283529160200191610c81565b820191906000526020600020905b815481529060010190602001808311610c6457829003601f168201915b505050506006830154600790930154919260ff8116926101009091046001600160a01b0316915087565b600080865111610cfd5760405162461bcd60e51b815260206004820152601d60248201527f54656d706c617465206e616d652063616e6e6f7420626520656d70747900000060448201526064016101e1565b6000845111610d4e5760405162461bcd60e51b815260206004820152601c60248201527f50726f6a65637420747970652063616e6e6f7420626520656d7074790000000060448201526064016101e1565b6000805460018101808355828052909190819083908110610d7157610d71611b94565b60009182526020909120600890910201905080610d8e8982611c49565b5060018101610d9d8882611c49565b5060028101610dac8782611c49565b508451610dc2906003830190602088019061148f565b5060058101610dd18582611c49565b5060068101805460016001600160a81b03199091166101003302178117909155426007830155604051610e05908890611bde565b90815260408051918290036020908101832080546001818101835560009283528383209091018790553380835260028452938220805491820181558252919020018490559083907fd2079278fcb22234a7956bcc5eb65ad7662583e56aa048fa17163cfa522af8d390610e7d908c908b904290611d07565b60405180910390a3509695505050505050565b815160208184018101805160018252928201918501919091209190528054829081106109a657600080fd5b6000548510610edc5760405162461bcd60e51b81526004016101e190611b5d565b336001600160a01b031660008681548110610ef957610ef9611b94565b600091825260209091206008909102016006015461010090046001600160a01b031614610f745760405162461bcd60e51b8152602060048201526024808201527f4f6e6c792074656d706c6174652063726561746f722063616e20616464206669604482015263656c647360e01b60648201526084016101e1565b60008581548110610f8757610f87611b94565b60009182526020808320604080516080810182528981528084018990528715159181019190915260608101869052600460089094029091018301805460018101825590855291909320835191909202909101908190610fe69082611c49565b5060208201516001820190610ffb9082611c49565b50604082015160028201805460ff1916911515919091179055606082015160038201906110289082611c49565b5050505050505050565b606080606080600080549050851061105c5760405162461bcd60e51b81526004016101e190611b5d565b600080868154811061107057611070611b94565b600091825260209091206008909102016004810154909150806001600160401b038111156110a0576110a061170b565b6040519080825280602002602001820160405280156110d357816020015b60608152602001906001900390816110be5790505b509550806001600160401b038111156110ee576110ee61170b565b60405190808252806020026020018201604052801561112157816020015b606081526020019060019003908161110c5790505b509450806001600160401b0381111561113c5761113c61170b565b604051908082528060200260200182016040528015611165578160200160208202803683370190505b509350806001600160401b038111156111805761118061170b565b6040519080825280602002602001820160405280156111b357816020015b606081526020019060019003908161119e5790505b50925060005b81811015611485578260040181815481106111d6576111d6611b94565b906000526020600020906004020160000180546111f290611baa565b80601f016020809104026020016040519081016040528092919081815260200182805461121e90611baa565b801561126b5780601f106112405761010080835404028352916020019161126b565b820191906000526020600020905b81548152906001019060200180831161124e57829003601f168201915b505050505087828151811061128257611282611b94565b60200260200101819052508260040181815481106112a2576112a2611b94565b906000526020600020906004020160010180546112be90611baa565b80601f01602080910402602001604051908101604052809291908181526020018280546112ea90611baa565b80156113375780601f1061130c57610100808354040283529160200191611337565b820191906000526020600020905b81548152906001019060200180831161131a57829003601f168201915b505050505086828151811061134e5761134e611b94565b602002602001018190525082600401818154811061136e5761136e611b94565b906000526020600020906004020160020160009054906101000a900460ff1685828151811061139f5761139f611b94565b6020026020010190151590811515815250508260040181815481106113c6576113c6611b94565b906000526020600020906004020160030180546113e290611baa565b80601f016020809104026020016040519081016040528092919081815260200182805461140e90611baa565b801561145b5780601f106114305761010080835404028352916020019161145b565b820191906000526020600020905b81548152906001019060200180831161143e57829003601f168201915b505050505084828151811061147257611472611b94565b60209081029190910101526001016111b9565b5050509193509193565b8280548282559060005260206000209081019282156114d5579160200282015b828111156114d557825182906114c59082611c49565b50916020019190600101906114af565b506114e19291506114e5565b5090565b808211156114e15760006114f98282611502565b506001016114e5565b50805461150e90611baa565b6000825580601f1061151e575050565b601f01602090049060005260206000209081019061153c919061153f565b50565b5b808211156114e15760008155600101611540565b60006020828403121561156657600080fd5b5035919050565b60005b83811015611588578181015183820152602001611570565b50506000910152565b600081518084526115a981602086016020860161156d565b601f01601f19169290920160200192915050565b600082825180855260208501945060208160051b8301016020850160005b8381101561160d57601f198584030188526115f7838351611591565b60209889019890935091909101906001016115db565b50909695505050505050565b60c08152600061162c60c0830189611591565b828103602084015261163e8189611591565b905082810360408401526116528188611591565b9050828103606084015261166681876115bd565b9050828103608084015261167a8186611591565b91505082151560a0830152979650505050505050565b602080825282518282018190526000918401906040840190835b818110156116c85783518352602093840193909201916001016116aa565b509095945050505050565b600080604083850312156116e657600080fd5b82356001600160a01b03811681146116fd57600080fd5b946020939093013593505050565b634e487b7160e01b600052604160045260246000fd5b604051601f8201601f191681016001600160401b03811182821017156117495761174961170b565b604052919050565b600082601f83011261176257600080fd5b81356001600160401b0381111561177b5761177b61170b565b61178e601f8201601f1916602001611721565b8181528460208386010111156117a357600080fd5b816020850160208301376000918101602001919091529392505050565b6000602082840312156117d257600080fd5b81356001600160401b038111156117e857600080fd5b6117f484828501611751565b949350505050565b60e08152600061180f60e083018a611591565b8281036020840152611821818a611591565b905082810360408401526118358189611591565b905082810360608401526118498188611591565b951515608084015250506001600160a01b039290921660a083015260c090910152949350505050565b600082601f83011261188357600080fd5b81356001600160401b0381111561189c5761189c61170b565b8060051b6118ac60208201611721565b918252602081850181019290810190868411156118c857600080fd5b6020860192505b8383101561190e5782356001600160401b038111156118ed57600080fd5b6118fc886020838a0101611751565b835250602092830192909101906118cf565b9695505050505050565b600080600080600060a0868803121561193057600080fd5b85356001600160401b0381111561194657600080fd5b61195288828901611751565b95505060208601356001600160401b0381111561196e57600080fd5b61197a88828901611751565b94505060408601356001600160401b0381111561199657600080fd5b6119a288828901611751565b93505060608601356001600160401b038111156119be57600080fd5b6119ca88828901611872565b92505060808601356001600160401b038111156119e657600080fd5b6119f288828901611751565b9150509295509295909350565b60008060408385031215611a1257600080fd5b82356001600160401b03811115611a2857600080fd5b611a3485828601611751565b95602094909401359450505050565b600080600080600060a08688031215611a5b57600080fd5b8535945060208601356001600160401b03811115611a7857600080fd5b611a8488828901611751565b94505060408601356001600160401b03811115611aa057600080fd5b611aac88828901611751565b93505060608601358015158114611ac257600080fd5b915060808601356001600160401b038111156119e657600080fd5b608081526000611af060808301876115bd565b8281036020840152611b0281876115bd565b83810360408501528551808252602080880193509091019060005b81811015611b3d5783511515835260209384019390920191600101611b1d565b50508381036060850152611b5181866115bd565b98975050505050505050565b60208082526017908201527f54656d706c61746520646f6573206e6f74206578697374000000000000000000604082015260600190565b634e487b7160e01b600052603260045260246000fd5b600181811c90821680611bbe57607f821691505b60208210810361098457634e487b7160e01b600052602260045260246000fd5b60008251611bf081846020870161156d565b9190910192915050565b601f821115611c4457806000526020600020601f840160051c81016020851015611c215750805b601f840160051c820191505b81811015611c415760008155600101611c2d565b50505b505050565b81516001600160401b03811115611c6257611c6261170b565b611c7681611c708454611baa565b84611bfa565b6020601f821160018114611caa5760008315611c925750848201515b600019600385901b1c1916600184901b178455611c41565b600084815260208120601f198516915b82811015611cda5787850151825560209485019460019092019101611cba565b5084821015611cf85786840151600019600387901b60f8161c191681555b50505050600190811b01905550565b606081526000611d1a6060830186611591565b8281036020840152611d2c8186611591565b91505082604083015294935050505056fea26469706673582212203674417efdc4727fc78df7df3401883ef84e3379eab3f323033e7878ff88bbfc64736f6c634300081c0033d2079278fcb22234a7956bcc5eb65ad7662583e56aa048fa17163cfa522af8d36665646572617465645f6c6561726e696e67000000000000000000000000000041636164656d696320616e6420726573656172636820636f6c6c61626f726174696f6e20706c6174666f726d72657365617263685f636f6c6c61626f726174696f6e000000000000000000007b2270726f6a6563745f6964223a2272657365617263682d636f6c6c61622d3031222c2274797065223a2272657365617263685f636f6c6c61626f726174696f6e222c226f626a656374697665223a22436c696d617465206368616e6765207265736561726368222c22726f6c6573223a5b2272657365617263686572222c227265766965776572222c22636f6f7264696e61746f72225d2c227061727469636970616e7473223a5b7b226964223a223078414243222c22726f6c65223a2272657365617263686572227d2c7b226964223a223078444546222c22726f6c65223a227265766965776572227d5d2c2272657365617263685f6172656173223a5b22636c696d617465222c22656e7669726f6e6d656e74225d2c227075626c69636174696f6e73223a5b5d2c226d696c6573746f6e6573223a5b7b226e616d65223a224461746120636f6c6c656374696f6e222c22646561646c696e65223a22323032352d31322d3331222c22636f6d706c65746564223a66616c73657d5d7d5b2272657365617263686572222c227265766965776572222c22636f6f7264696e61746f72225d436f6c6c61626f726174697665206d616368696e65206c6561726e696e6720776865726520646174612072656d61696e732064697374726962757465647b2270726f6a6563745f6964223a22666c2d63616e6365722d73747564792d3031222c2274797065223a226665646572617465645f6c6561726e696e67222c226f626a656374697665223a2243616e636572207374756479204149222c22726f6c6573223a5b22646174615f6f776e6572222c2261676772656761746f72222c22636f6f7264696e61746f72225d2c227061727469636970616e7473223a5b7b226964223a223078414243222c22726f6c65223a22646174615f6f776e6572227d2c7b226964223a223078444546222c22726f6c65223a2261676772656761746f72227d5d2c22617373657473223a7b226461746173657473223a5b22697066733a2f2f516d4461746131222c22697066733a2f2f516d4461746132225d2c2273637269707473223a5b22697066733a2f2f516d547261696e536372697074225d7d2c22776f726b666c6f77223a7b227374657073223a5b7b2273746570223a226c6f63616c5f747261696e696e67222c226578656375746f72223a223078414243227d2c7b2273746570223a226167677265676174696f6e222c226578656375746f72223a223078444546227d5d7d2c22706f6c6963696573223a7b22616363657373223a7b223078444546223a5b22766965775f726573756c7473225d2c223078414243223a5b22657865637574655f737465705f31225d7d7d7d5b22646174615f6f776e6572222c2261676772656761746f72222c22636f6f7264696e61746f72225d",
  "linkReferences": {},
  "deployedLinkReferences": {}
}