{
    "_format": "hh-sol-artifact-1",
    "contractName": "ProjectFactory",
    "sourceName": "contracts/ProjectFactory.sol",
    "abi": [
        {
            "inputs": [
                {
                    "internalType": "address",
                    "name": "_templateRegistry",
                    "type": "address"
                }
            ],
            "stateMutability": "nonpayable",
            "type": "constructor"
        },
        {
            "anonymous": false,
            "inputs": [
                {
                    "indexed": true,
                    "internalType": "address",
                    "name": "creator",
                    "type": "address"
                },
                {
                    "indexed": true,
                    "internalType": "address",
                    "name": "projectAddress",
                    "type": "address"
                },
                {
                    "indexed": false,
                    "internalType": "string",
                    "name": "projectType",
                    "type": "string"
                },
                {
                    "indexed": false,
                    "internalType": "uint256",
                    "name": "templateId",
                    "type": "uint256"
                },
                {
                    "indexed": false,
                    "internalType": "uint256",
                    "name": "timestamp",
                    "type": "uint256"
                }
            ],
            "name": "ProjectCreated",
            "type": "event"
        },
        {
            "inputs": [
                {
                    "internalType": "uint256",
                    "name": "",
                    "type": "uint256"
                }
            ],
            "name": "allProjects",
            "outputs": [
                {
                    "internalType": "address",
                    "name": "",
                    "type": "address"
                }
            ],
            "stateMutability": "view",
            "type": "function"
        },
        {
            "inputs": [
                {
                    "internalType": "string",
                    "name": "_projectData",
                    "type": "string"
                }
            ],
            "name": "createCustomProject",
            "outputs": [
                {
                    "internalType": "address",
                    "name": "",
                    "type": "address"
                }
            ],
            "stateMutability": "nonpayable",
            "type": "function"
        },
        {
            "inputs": [
                {
                    "internalType": "uint256",
                    "name": "_templateId",
                    "type": "uint256"
                },
                {
                    "internalType": "string",
                    "name": "_projectId",
                    "type": "string"
                },
                {
                    "internalType": "string",
                    "name": "_objective",
                    "type": "string"
                },
                {
                    "internalType": "address[]",
                    "name": "_participantAddresses",
                    "type": "address[]"
                },
                {
                    "internalType": "string[]",
                    "name": "_participantRoles",
                    "type": "string[]"
                }
            ],
            "name": "createProjectFromBasicInfo",
            "outputs": [
                {
                    "internalType": "address",
                    "name": "",
                    "type": "address"
                }
            ],
            "stateMutability": "nonpayable",
            "type": "function"
        },
        {
            "inputs": [
                {
                    "internalType": "uint256",
                    "name": "_templateId",
                    "type": "uint256"
                },
                {
                    "internalType": "string",
                    "name": "_projectData",
                    "type": "string"
                }
            ],
            "name": "createProjectFromTemplate",
            "outputs": [
                {
                    "internalType": "address",
                    "name": "",
                    "type": "address"
                }
            ],
            "stateMutability": "nonpayable",
            "type": "function"
        },
        {
            "inputs": [],
            "name": "getAllProjects",
            "outputs": [
                {
                    "internalType": "address[]",
                    "name": "",
                    "type": "address[]"
                }
            ],
            "stateMutability": "view",
            "type": "function"
        },
        {
            "inputs": [
                {
                    "internalType": "address",
                    "name": "_projectAddress",
                    "type": "address"
                }
            ],
            "name": "getProjectData",
            "outputs": [
                {
                    "internalType": "string",
                    "name": "",
                    "type": "string"
                }
            ],
            "stateMutability": "view",
            "type": "function"
        },
        {
            "inputs": [
                {
                    "internalType": "address",
                    "name": "_projectAddress",
                    "type": "address"
                }
            ],
            "name": "getProjectStatus",
            "outputs": [
                {
                    "internalType": "bool",
                    "name": "active",
                    "type": "bool"
                },
                {
                    "internalType": "uint256",
                    "name": "created",
                    "type": "uint256"
                },
                {
                    "internalType": "uint256",
                    "name": "modified",
                    "type": "uint256"
                },
                {
                    "internalType": "address",
                    "name": "creator",
                    "type": "address"
                }
            ],
            "stateMutability": "view",
            "type": "function"
        },
        {
            "inputs": [],
            "name": "getTemplateRegistry",
            "outputs": [
                {
                    "internalType": "address",
                    "name": "",
                    "type": "address"
                }
            ],
            "stateMutability": "view",
            "type": "function"
        },
        {
            "inputs": [],
            "name": "getTotalProjects",
            "outputs": [
                {
                    "internalType": "uint256",
                    "name": "",
                    "type": "uint256"
                }
            ],
            "stateMutability": "view",
            "type": "function"
        },
        {
            "inputs": [
                {
                    "internalType": "address",
                    "name": "_user",
                    "type": "address"
                }
            ],
            "name": "getUserProjects",
            "outputs": [
                {
                    "internalType": "address[]",
                    "name": "",
                    "type": "address[]"
                }
            ],
            "stateMutability": "view",
            "type": "function"
        },
        {
            "inputs": [
                {
                    "internalType": "address",
                    "name": "",
                    "type": "address"
                }
            ],
            "name": "isProject",
            "outputs": [
                {
                    "internalType": "bool",
                    "name": "",
                    "type": "bool"
                }
            ],
            "stateMutability": "view",
            "type": "function"
        },
        {
            "inputs": [
                {
                    "internalType": "address",
                    "name": "_projectAddress",
                    "type": "address"
                }
            ],
            "name": "isValidProject",
            "outputs": [
                {
                    "internalType": "bool",
                    "name": "",
                    "type": "bool"
                }
            ],
            "stateMutability": "view",
            "type": "function"
        },
        {
            "inputs": [],
            "name": "templateRegistry",
            "outputs": [
                {
                    "internalType": "contract ProjectTemplateRegistry",
                    "name": "",
                    "type": "address"
                }
            ],
            "stateMutability": "view",
            "type": "function"
        },
        {
            "inputs": [
                {
                    "internalType": "address",
                    "name": "_newTemplateRegistry",
                    "type": "address"
                }
            ],
            "name": "updateTemplateRegistry",
            "outputs": [],
            "stateMutability": "nonpayable",
            "type": "function"
        },
        {
            "inputs": [
                {
                    "internalType": "address",
                    "name": "",
                    "type": "address"
                },
                {
                    "internalType": "uint256",
                    "name": "",
                    "type": "uint256"
                }
            ],
            "name": "userProjects",
            "outputs": [
                {
                    "internalType": "address",
                    "name": "",
                    "type": "address"
                }
            ],
            "stateMutability": "view",
            "type": "function"
        }
    ],
    "bytecode": "0x608060405234801561001057600080fd5b50604051612fa5380380612fa583398101604081905261002f916100bf565b6001600160a01b03811661009a5760405162461bcd60e51b815260206004820152602860248201527f54656d706c61746520726567697374727920616464726573732063616e6e6f74604482015267206265207a65726f60c01b606482015260840160405180910390fd5b600080546001600160a01b0319166001600160a01b03929092169190911790556100ef565b6000602082840312156100d157600080fd5b81516001600160a01b03811681146100e857600080fd5b9392505050565b612ea7806100fe6000396000f3fe608060405234801561001057600080fd5b50600436106100f55760003560e01c806361eb383611610097578063a0af81f011610066578063a0af81f014610255578063da49f66114610268578063e32e723c1461027b578063eabec3a31461028e57600080fd5b806361eb3836146101d15780636a88a8e91461020f57806380d038291461022f578063812739a21461024457600080fd5b80632fa9c007116100d35780632fa9c0071461016c5780634780f7861461017f57806353b3194c146101925780635d0c3011146101a557600080fd5b806305c81408146100fa5780630882dfa0146101325780631cf5ec1914610147575b600080fd5b61011d610108366004610e99565b60026020526000908152604090205460ff1681565b60405190151581526020015b60405180910390f35b610145610140366004610e99565b6102a1565b005b6000546001600160a01b03165b6040516001600160a01b039091168152602001610129565b61015461017a366004610ebd565b61032f565b61015461018d366004610fac565b610367565b6101546101a0366004610ff2565b61058d565b61011d6101b3366004610e99565b6001600160a01b031660009081526002602052604090205460ff1690565b6101e46101df366004610e99565b6105b7565b6040805194151585526020850193909352918301526001600160a01b03166060820152608001610129565b61022261021d366004610e99565b610690565b604051610129919061105b565b61023761075b565b604051610129919061106e565b600354604051908152602001610129565b600054610154906001600160a01b031681565b610154610276366004611169565b6107bd565b610237610289366004610e99565b61098c565b61015461029c366004611291565b610a02565b6001600160a01b03811661030d5760405162461bcd60e51b815260206004820152602860248201527f54656d706c61746520726567697374727920616464726573732063616e6e6f74604482015267206265207a65726f60c01b60648201526084015b60405180910390fd5b600080546001600160a01b0319166001600160a01b0392909216919091179055565b6001602052816000526040600020818154811061034b57600080fd5b6000918252602090912001546001600160a01b03169150829050565b60008054604051630c550f3d60e21b815260048101859052829182916001600160a01b03909116906331543cf490602401600060405180830381865afa1580156103b5573d6000803e3d6000fd5b505050506040513d6000823e601f3d908101601f191682016040526103dd91908101906113a9565b95505050935050508061042b5760405162461bcd60e51b815260206004820152601660248201527554656d706c617465206973206e6f742061637469766560501b6044820152606401610304565b600084511161047c5760405162461bcd60e51b815260206004820152601c60248201527f50726f6a65637420646174612063616e6e6f7420626520656d707479000000006044820152606401610304565b6000338560405161048c90610e74565b61049792919061149f565b604051809103906000f0801580156104b3573d6000803e3d6000fd5b50336000818152600160208181526040808420805480850182559085528285200180546001600160a01b0388166001600160a01b031991821681179092558186526002909352818520805460ff1916851790556003805494850181559094527fc2575a0e9e593c00f959f8c92f12db2869c3395a3b0502d05e2516446f71f85b9092018054909116831790555192935083929091907ff474a44bbf67e28a60e1e8977a0d7bdf30896d6b88b7c83710a32ad527611994906105799088908c9042906114c3565b60405180910390a393505050505b92915050565b6003818154811061059d57600080fd5b6000918252602090912001546001600160a01b0316905081565b6001600160a01b03811660009081526002602052604081205481908190819060ff1661061f5760405162461bcd60e51b8152602060048201526017602482015276496e76616c69642070726f6a656374206164647265737360481b6044820152606401610304565b846001600160a01b031663e7aa3afc6040518163ffffffff1660e01b8152600401608060405180830381865afa15801561065d573d6000803e3d6000fd5b505050506040513d601f19601f8201168201806040525081019061068191906114e8565b93509350935093509193509193565b6001600160a01b03811660009081526002602052604090205460609060ff166106f55760405162461bcd60e51b8152602060048201526017602482015276496e76616c69642070726f6a656374206164647265737360481b6044820152606401610304565b816001600160a01b03166355b31b556040518163ffffffff1660e01b8152600401600060405180830381865afa158015610733573d6000803e3d6000fd5b505050506040513d6000823e601f3d908101601f191682016040526105879190810190611532565b606060038054806020026020016040519081016040528092919081815260200182805480156107b357602002820191906000526020600020905b81546001600160a01b03168152600190910190602001808311610795575b5050505050905090565b6000815183511461081f5760405162461bcd60e51b815260206004820152602660248201527f5061727469636970616e747320616e6420726f6c6573206c656e677468206d696044820152650e6dac2e8c6d60d31b6064820152608401610304565b60008054604051630c550f3d60e21b81526004810189905282916001600160a01b0316906331543cf490602401600060405180830381865afa158015610869573d6000803e3d6000fd5b505050506040513d6000823e601f3d908101601f1916820160405261089191908101906113a9565b9550505093505050806108df5760405162461bcd60e51b815260206004820152601660248201527554656d706c617465206973206e6f742061637469766560501b6044820152606401610304565b60006108eb8686610b89565b90506000888489846040516020016109069493929190611582565b60408051601f19818403018152908290526323c07bc360e11b825291503090634780f7869061093b908d908590600401611679565b6020604051808303816000875af115801561095a573d6000803e3d6000fd5b505050506040513d601f19601f8201168201806040525081019061097e9190611692565b9a9950505050505050505050565b6001600160a01b0381166000908152600160209081526040918290208054835181840281018401909452808452606093928301828280156109f657602002820191906000526020600020905b81546001600160a01b031681526001909101906020018083116109d8575b50505050509050919050565b600080825111610a545760405162461bcd60e51b815260206004820152601c60248201527f50726f6a65637420646174612063616e6e6f7420626520656d707479000000006044820152606401610304565b60003383604051610a6490610e74565b610a6f92919061149f565b604051809103906000f080158015610a8b573d6000803e3d6000fd5b50336000818152600160208181526040808420805480850182559085528285200180546001600160a01b0388166001600160a01b031991821681179092558186526002909352818520805460ff1916851790556003805494850181559094527fc2575a0e9e593c00f959f8c92f12db2869c3395a3b0502d05e2516446f71f85b9092018054909116831790555192935083929091907ff474a44bbf67e28a60e1e8977a0d7bdf30896d6b88b7c83710a32ad52761199490610b7a90620f423f904290606080825260069082015265637573746f6d60d01b60808201526020810192909252604082015260a00190565b60405180910390a39392505050565b60608251600003610bb357506040805180820190915260028152615b5d60f01b6020820152610587565b6040805180820190915260018152605b60f81b602082015260005b8451811015610c69578015610c005781604051602001610bee91906116af565b60405160208183030381529060405291505b81610c23868381518110610c1657610c166116d4565b6020026020010151610c93565b858381518110610c3557610c356116d4565b6020026020010151604051602001610c4f939291906116ea565b60408051601f198184030181529190529150600101610bce565b5080604051602001610c7b9190611770565b60405160208183030381529060405291505092915050565b604080518082018252601081526f181899199a1a9b1b9c1cb0b131b232b360811b60208201528151602a80825260608281019094526001600160a01b0385169291600091602082018180368337019050509050600360fc1b81600081518110610cfe57610cfe6116d4565b60200101906001600160f81b031916908160001a905350600f60fb1b81600181518110610d2d57610d2d6116d4565b60200101906001600160f81b031916908160001a90535060005b6014811015610e6b5782600485610d5f84600c6117ab565b60208110610d6f57610d6f6116d4565b1a60f81b6001600160f81b031916901c60f81c60ff1681518110610d9557610d956116d4565b01602001516001600160f81b03191682610db08360026117be565b610dbb9060026117ab565b81518110610dcb57610dcb6116d4565b60200101906001600160f81b031916908160001a9053508284610def83600c6117ab565b60208110610dff57610dff6116d4565b825191901a600f16908110610e1657610e166116d4565b01602001516001600160f81b03191682610e318360026117be565b610e3c9060036117ab565b81518110610e4c57610e4c6116d4565b60200101906001600160f81b031916908160001a905350600101610d47565b50949350505050565b61169c806117d683390190565b6001600160a01b0381168114610e9657600080fd5b50565b600060208284031215610eab57600080fd5b8135610eb681610e81565b9392505050565b60008060408385031215610ed057600080fd5b8235610edb81610e81565b946020939093013593505050565b634e487b7160e01b600052604160045260246000fd5b604051601f8201601f191681016001600160401b0381118282101715610f2757610f27610ee9565b604052919050565b60006001600160401b03821115610f4857610f48610ee9565b50601f01601f191660200190565b600082601f830112610f6757600080fd5b8135610f7a610f7582610f2f565b610eff565b818152846020838601011115610f8f57600080fd5b816020850160208301376000918101602001919091529392505050565b60008060408385031215610fbf57600080fd5b8235915060208301356001600160401b03811115610fdc57600080fd5b610fe885828601610f56565b9150509250929050565b60006020828403121561100457600080fd5b5035919050565b60005b8381101561102657818101518382015260200161100e565b50506000910152565b6000815180845261104781602086016020860161100b565b601f01601f19169290920160200192915050565b602081526000610eb6602083018461102f565b602080825282518282018190526000918401906040840190835b818110156110af5783516001600160a01b0316835260209384019390920191600101611088565b509095945050505050565b60006001600160401b038211156110d3576110d3610ee9565b5060051b60200190565b600082601f8301126110ee57600080fd5b81356110fc610f75826110ba565b8082825260208201915060208360051b86010192508583111561111e57600080fd5b602085015b8381101561115f5780356001600160401b0381111561114157600080fd5b611150886020838a0101610f56565b84525060209283019201611123565b5095945050505050565b600080600080600060a0868803121561118157600080fd5b8535945060208601356001600160401b0381111561119e57600080fd5b6111aa88828901610f56565b94505060408601356001600160401b038111156111c657600080fd5b6111d288828901610f56565b93505060608601356001600160401b038111156111ee57600080fd5b8601601f810188136111ff57600080fd5b803561120d610f75826110ba565b8082825260208201915060208360051b85010192508a83111561122f57600080fd5b6020840193505b8284101561125a57833561124981610e81565b825260209384019390910190611236565b945050505060808601356001600160401b0381111561127857600080fd5b611284888289016110dd565b9150509295509295909350565b6000602082840312156112a357600080fd5b81356001600160401b038111156112b957600080fd5b6112c584828501610f56565b949350505050565b600082601f8301126112de57600080fd5b81516112ec610f7582610f2f565b81815284602083860101111561130157600080fd5b6112c582602083016020870161100b565b600082601f83011261132357600080fd5b8151611331610f75826110ba565b8082825260208201915060208360051b86010192508583111561135357600080fd5b602085015b8381101561115f5780516001600160401b0381111561137657600080fd5b611385886020838a01016112cd565b84525060209283019201611358565b805180151581146113a457600080fd5b919050565b60008060008060008060c087890312156113c257600080fd5b86516001600160401b038111156113d857600080fd5b6113e489828a016112cd565b96505060208701516001600160401b0381111561140057600080fd5b61140c89828a016112cd565b95505060408701516001600160401b0381111561142857600080fd5b61143489828a016112cd565b94505060608701516001600160401b0381111561145057600080fd5b61145c89828a01611312565b93505060808701516001600160401b0381111561147857600080fd5b61148489828a016112cd565b92505061149360a08801611394565b90509295509295509295565b6001600160a01b03831681526040602082018190526000906112c59083018461102f565b6060815260006114d6606083018661102f565b60208301949094525060400152919050565b600080600080608085870312156114fe57600080fd5b61150785611394565b602086015160408701516060880151929650909450925061152781610e81565b939692955090935050565b60006020828403121561154457600080fd5b81516001600160401b0381111561155a57600080fd5b6112c5848285016112cd565b6000815161157881856020860161100b565b9290920192915050565b6e3d91383937b532b1ba2fb4b2111d1160891b815284516000906115ad81600f850160208a0161100b565b61088b60f21b600f9184019182015267113a3cb832911d1160c11b601182015285516115e0816019840160208a0161100b565b61088b60f21b601992909101918201526c1137b13532b1ba34bb32911d1160991b601b8201528451600f82019161161f9082906028016020890161100b565b61166d61166061165a61163f60198686010161088b60f21b815260020190565b6e113830b93a34b1b4b830b73a39911d60891b8152600f0190565b87611566565b607d60f81b815260010190565b98975050505050505050565b8281526040602082015260006112c5604083018461102f565b6000602082840312156116a457600080fd5b8151610eb681610e81565b600082516116c181846020870161100b565b600b60fa1b920191825250600101919050565b634e487b7160e01b600052603260045260246000fd5b600084516116fc81846020890161100b565b663d9134b2111d1160c91b908301908152845161172081600784016020890161100b565b61088b60f21b6007929091019182015267113937b632911d1160c11b6009820152835161175481601184016020880161100b565b61227d60f01b6011929091019182015260130195945050505050565b6000825161178281846020870161100b565b605d60f81b920191825250600101919050565b634e487b7160e01b600052601160045260246000fd5b8082018082111561058757610587611795565b80820281158282048414176105875761058761179556fe608060405234801561001057600080fd5b5060405161169c38038061169c83398101604081905261002f91610125565b60008151116100845760405162461bcd60e51b815260206004820152601c60248201527f50726f6a65637420646174612063616e6e6f7420626520656d70747900000000604482015260640160405180910390fd5b600080546001600160a01b0319166001600160a01b03841617905560016100ab828261029a565b5042600281905560038190556004805460ff191660011790556040516001600160a01b038416917f20bfd29f3d906f96fc35742fac45a554b19cbd4e21f8c4c1d84cb58fdfc32c899161010091815260200190565b60405180910390a25050610358565b634e487b7160e01b600052604160045260246000fd5b6000806040838503121561013857600080fd5b82516001600160a01b038116811461014f57600080fd5b60208401519092506001600160401b0381111561016b57600080fd5b8301601f8101851361017c57600080fd5b80516001600160401b038111156101955761019561010f565b604051601f8201601f19908116603f011681016001600160401b03811182821017156101c3576101c361010f565b6040528181528282016020018710156101db57600080fd5b60005b828110156101fa576020818501810151838301820152016101de565b506000602083830101528093505050509250929050565b600181811c9082168061022557607f821691505b60208210810361024557634e487b7160e01b600052602260045260246000fd5b50919050565b601f82111561029557806000526020600020601f840160051c810160208510156102725750805b601f840160051c820191505b81811015610292576000815560010161027e565b50505b505050565b81516001600160401b038111156102b3576102b361010f565b6102c7816102c18454610211565b8461024b565b6020601f8211600181146102fb57600083156102e35750848201515b600019600385901b1c1916600184901b178455610292565b600084815260208120601f198516915b8281101561032b578785015182556020948501946001909201910161030b565b50848210156103495786840151600019600387901b60f8161c191681555b50505050600190811b01905550565b611335806103676000396000f3fe608060405234801561001057600080fd5b506004361061012c5760003560e01c80639c0768b3116100ad578063dfb748aa11610071578063dfb748aa14610274578063e7aa3afc14610287578063ef213106146102c2578063f7267cfd146102d5578063fba7cc79146102de57600080fd5b80639c0768b314610232578063b56864791461023a578063bbffd04c1461024d578063c3feda1714610255578063cf09e0d01461025d57600080fd5b806355b31b55116100f457806355b31b55146101c757806359abbfe4146101dc5780635e1a6c17146101f75780637847f1de1461020a57806384e077281461021d57600080fd5b806302d05d3f146101315780630ee2cb101461016157806310218f4d1461017257806322f3e2d414610187578063383e1a5e146101a4575b600080fd5b600054610144906001600160a01b031681565b6040516001600160a01b0390911681526020015b60405180910390f35b6000546001600160a01b0316610144565b610185610180366004610f29565b6102e9565b005b6004546101949060ff1681565b6040519015158152602001610158565b6101b76101b2366004610fe2565b610403565b6040516101589493929190611058565b6101cf610510565b6040516101589190611094565b60025460035460408051928352602083019190915201610158565b6101446102053660046110a7565b6105a2565b610185610218366004610f29565b6105cc565b61022561082c565b60405161015891906110c0565b6101cf6109b0565b610185610248366004610fe2565b610a3e565b610185610b5e565b610185610c22565b61026660025481565b604051908152602001610158565b610185610282366004610fe2565b610ce5565b6004546002546003546000546040805160ff909516151585526020850193909352918301526001600160a01b03166060820152608001610158565b6101b76102d0366004610fe2565b610dfe565b61026660035481565b60045460ff16610194565b6000546001600160a01b0316331461031c5760405162461bcd60e51b81526004016103139061110c565b60405180910390fd5b60045460ff166103665760405162461bcd60e51b815260206004820152601560248201527450726f6a656374206973206e6f742061637469766560581b6044820152606401610313565b60008151116103b75760405162461bcd60e51b815260206004820152601c60248201527f50726f6a65637420646174612063616e6e6f7420626520656d707479000000006044820152606401610313565b60016103c382826111e1565b5042600381905560405190815233907fc1756fd99ac9a2b1b22b5e701ddb022b897a002144d045b77ac35ce46610fef6906020015b60405180910390a250565b6001600160a01b0380821660009081526005602090815260408083208151608081019092528054909416815260018401805493946060948694859485949093929184019161045090611158565b80601f016020809104026020016040519081016040528092919081815260200182805461047c90611158565b80156104c95780601f1061049e576101008083540402835291602001916104c9565b820191906000526020600020905b8154815290600101906020018083116104ac57829003601f168201915b5050509183525050600282015460208083019190915260039092015460ff161515604091820152825191830151908301516060909301519199909850919650945092505050565b60606001805461051f90611158565b80601f016020809104026020016040519081016040528092919081815260200182805461054b90611158565b80156105985780601f1061056d57610100808354040283529160200191610598565b820191906000526020600020905b81548152906001019060200180831161057b57829003601f168201915b5050505050905090565b600681815481106105b257600080fd5b6000918252602090912001546001600160a01b0316905081565b60045460ff166106165760405162461bcd60e51b815260206004820152601560248201527450726f6a656374206973206e6f742061637469766560581b6044820152606401610313565b6000546001600160a01b031633036106835760405162461bcd60e51b815260206004820152602a60248201527f50726f6a6563742063726561746f722063616e6e6f74207375626d6974206a6f6044820152691a5b881c995c5d595cdd60b21b6064820152608401610313565b3360009081526005602052604090206003015460ff16156106e65760405162461bcd60e51b815260206004820152601b60248201527f4a6f696e207265717565737420616c72656164792065786973747300000000006044820152606401610313565b600081511161072e5760405162461bcd60e51b8152602060048201526014602482015273526f6c652063616e6e6f7420626520656d70747960601b6044820152606401610313565b6040805160808101825233808252602080830185815242848601526001606085018190526000938452600590925293909120825181546001600160a01b0319166001600160a01b0390911617815592519192919082019061078f90826111e1565b5060408281015160028301556060909201516003909101805460ff1916911515919091179055600680546001810182556000919091527ff652222313e28459528d920b65115c16c04f3efc82aaedc97be59f3f377c0d3f018054336001600160a01b0319909116811790915590517fe4d6c018abd0178d4bce0856089ef1876318617b97a1d700bb98506598ab0afc906103f890849042906112a0565b60606000805b600654811015610899576005600060068381548110610853576108536112c2565b60009182526020808320909101546001600160a01b0316835282019290925260400190206003015460ff1615610891578161088d816112d8565b9250505b600101610832565b5060008167ffffffffffffffff8111156108b5576108b5610f13565b6040519080825280602002602001820160405280156108de578160200160208202803683370190505b5090506000805b6006548110156109a7576005600060068381548110610906576109066112c2565b60009182526020808320909101546001600160a01b0316835282019290925260400190206003015460ff161561099f5760068181548110610949576109496112c2565b9060005260206000200160009054906101000a90046001600160a01b0316838381518110610979576109796112c2565b6001600160a01b03909216602092830291909101909101528161099b816112d8565b9250505b6001016108e5565b50909392505050565b600180546109bd90611158565b80601f01602080910402602001604051908101604052809291908181526020018280546109e990611158565b8015610a365780601f10610a0b57610100808354040283529160200191610a36565b820191906000526020600020905b815481529060010190602001808311610a1957829003601f168201915b505050505081565b6000546001600160a01b03163314610a685760405162461bcd60e51b81526004016103139061110c565b6001600160a01b03811660009081526005602052604090206003015460ff16610ad35760405162461bcd60e51b815260206004820152601b60248201527f4a6f696e207265717565737420646f6573206e6f7420657869737400000000006044820152606401610313565b6001600160a01b038116600090815260056020526040812080546001600160a01b031916815590610b076001830182610ebd565b5060006002820155600301805460ff1916905560405142815233906001600160a01b038316907f1a69e67d1be897d0ca0cf1517b4d17e345b4272a80bc900f9fe8e96f261ca1db906020015b60405180910390a350565b6000546001600160a01b03163314610b885760405162461bcd60e51b81526004016103139061110c565b60045460ff16610bda5760405162461bcd60e51b815260206004820152601b60248201527f50726f6a65637420697320616c726561647920696e61637469766500000000006044820152606401610313565b6004805460ff1916905542600381905560405190815233907f17064d72ee4a5901e55dfa45024ea8f67cdb4895ba6364ab2f8e7223f642ad36906020015b60405180910390a2565b6000546001600160a01b03163314610c4c5760405162461bcd60e51b81526004016103139061110c565b60045460ff1615610c9f5760405162461bcd60e51b815260206004820152601960248201527f50726f6a65637420697320616c726561647920616374697665000000000000006044820152606401610313565b6004805460ff1916600117905542600381905560405133917fb351ba71ddc1d2bf39667cebde99fb92eb26b9f418d5049ba0200888ba81071591610c1891815260200190565b6000546001600160a01b03163314610d0f5760405162461bcd60e51b81526004016103139061110c565b6001600160a01b03811660009081526005602052604090206003015460ff16610d7a5760405162461bcd60e51b815260206004820152601b60248201527f4a6f696e207265717565737420646f6573206e6f7420657869737400000000006044820152606401610313565b6001600160a01b038116600090815260056020526040812080546001600160a01b031916815590610dae6001830182610ebd565b5060006002820155600301805460ff1916905560405142815233906001600160a01b038316907f423eb00b6a18c3ecfc2170a0e40ef0bad995279070614ba2e4be1b94f67eb88890602001610b53565b600560205260009081526040902080546001820180546001600160a01b039092169291610e2a90611158565b80601f0160208091040260200160405190810160405280929190818152602001828054610e5690611158565b8015610ea35780601f10610e7857610100808354040283529160200191610ea3565b820191906000526020600020905b815481529060010190602001808311610e8657829003601f168201915b50505050600283015460039093015491929160ff16905084565b508054610ec990611158565b6000825580601f10610ed9575050565b601f016020900490600052602060002090810190610ef79190610efa565b50565b5b80821115610f0f5760008155600101610efb565b5090565b634e487b7160e01b600052604160045260246000fd5b600060208284031215610f3b57600080fd5b813567ffffffffffffffff811115610f5257600080fd5b8201601f81018413610f6357600080fd5b803567ffffffffffffffff811115610f7d57610f7d610f13565b604051601f8201601f19908116603f0116810167ffffffffffffffff81118282101715610fac57610fac610f13565b604052818152828201602001861015610fc457600080fd5b81602084016020830137600091810160200191909152949350505050565b600060208284031215610ff457600080fd5b81356001600160a01b038116811461100b57600080fd5b9392505050565b6000815180845260005b818110156110385760208185018101518683018201520161101c565b506000602082860101526020601f19601f83011685010191505092915050565b6001600160a01b038516815260806020820181905260009061107c90830186611012565b60408301949094525090151560609091015292915050565b60208152600061100b6020830184611012565b6000602082840312156110b957600080fd5b5035919050565b602080825282518282018190526000918401906040840190835b818110156111015783516001600160a01b03168352602093840193909201916001016110da565b509095945050505050565b6020808252602c908201527f4f6e6c792070726f6a6563742063726561746f722063616e20706572666f726d60408201526b103a3434b99030b1ba34b7b760a11b606082015260800190565b600181811c9082168061116c57607f821691505b60208210810361118c57634e487b7160e01b600052602260045260246000fd5b50919050565b601f8211156111dc57806000526020600020601f840160051c810160208510156111b95750805b601f840160051c820191505b818110156111d957600081556001016111c5565b50505b505050565b815167ffffffffffffffff8111156111fb576111fb610f13565b61120f816112098454611158565b84611192565b6020601f821160018114611243576000831561122b5750848201515b600019600385901b1c1916600184901b1784556111d9565b600084815260208120601f198516915b828110156112735787850151825560209485019460019092019101611253565b50848210156112915786840151600019600387901b60f8161c191681555b50505050600190811b01905550565b6040815260006112b36040830185611012565b90508260208301529392505050565b634e487b7160e01b600052603260045260246000fd5b6000600182016112f857634e487b7160e01b600052601160045260246000fd5b506001019056fea2646970667358221220bec9471bb23b6e25da9c64e7d34995b3e371c8436ddc9fd588e51486983342ff64736f6c634300081c0033a2646970667358221220f3440a32e031d1fe3eb74602635263cc1b237f8ffb977395866a1da4761e6bde64736f6c634300081c0033",
    "linkReferences": {},
    "deployedLinkReferences": {}
}