{
  "_format": "hh-sol-artifact-1",
  "contractName": "ALProjectLinker",
  "sourceName": "contracts/ALProjectLinker.sol",
  "abi": [
    {
      "anonymous": false,
      "inputs": [
        {
          "indexed": true,
          "internalType": "address",
          "name": "baseProject",
          "type": "address"
        },
        {
          "indexed": true,
          "internalType": "address",
          "name": "alProject",
          "type": "address"
        }
      ],
      "name": "ALExtensionLinked",
      "type": "event"
    },
    {
      "anonymous": false,
      "inputs": [
        {
          "indexed": true,
          "internalType": "address",
          "name": "baseProject",
          "type": "address"
        },
        {
          "indexed": true,
          "internalType": "address",
          "name": "alProject",
          "type": "address"
        },
        {
          "indexed": false,
          "internalType": "address",
          "name": "votingContract",
          "type": "address"
        },
        {
          "indexed": false,
          "internalType": "address",
          "name": "storageContract",
          "type": "address"
        }
      ],
      "name": "ALProjectLinked",
      "type": "event"
    },
    {
      "anonymous": false,
      "inputs": [
        {
          "indexed": true,
          "internalType": "address",
          "name": "alProject",
          "type": "address"
        }
      ],
      "name": "ALProjectSetupCompleted",
      "type": "event"
    },
    {
      "anonymous": false,
      "inputs": [
        {
          "indexed": true,
          "internalType": "address",
          "name": "alProject",
          "type": "address"
        }
      ],
      "name": "ALProjectSetupStarted",
      "type": "event"
    },
    {
      "anonymous": false,
      "inputs": [
        {
          "indexed": true,
          "internalType": "address",
          "name": "baseProject",
          "type": "address"
        },
        {
          "indexed": false,
          "internalType": "address",
          "name": "rocrateAsset",
          "type": "address"
        }
      ],
      "name": "ROCrateAssetUpdated",
      "type": "event"
    },
    {
      "inputs": [
        {
          "internalType": "address",
          "name": "baseProject",
          "type": "address"
        },
        {
          "internalType": "address",
          "name": "alProject",
          "type": "address"
        },
        {
          "internalType": "address",
          "name": "votingContract",
          "type": "address"
        },
        {
          "internalType": "address",
          "name": "storageContract",
          "type": "address"
        },
        {
          "internalType": "string",
          "name": "queryStrategy",
          "type": "string"
        },
        {
          "internalType": "string",
          "name": "alScenario",
          "type": "string"
        },
        {
          "internalType": "uint256",
          "name": "maxIteration",
          "type": "uint256"
        },
        {
          "internalType": "uint256",
          "name": "queryBatchSize",
          "type": "uint256"
        },
        {
          "internalType": "string[]",
          "name": "labelSpace",
          "type": "string[]"
        },
        {
          "internalType": "address",
          "name": "rocrateAsset",
          "type": "address"
        }
      ],
      "name": "linkALProject",
      "outputs": [],
      "stateMutability": "nonpayable",
      "type": "function"
    },
    {
      "inputs": [
        {
          "internalType": "address",
          "name": "alProject",
          "type": "address"
        },
        {
          "internalType": "address",
          "name": "votingContract",
          "type": "address"
        },
        {
          "internalType": "address",
          "name": "storageContract",
          "type": "address"
        },
        {
          "internalType": "string",
          "name": "queryStrategy",
          "type": "string"
        },
        {
          "internalType": "string",
          "name": "alScenario",
          "type": "string"
        },
        {
          "internalType": "uint256",
          "name": "maxIteration",
          "type": "uint256"
        },
        {
          "internalType": "uint256",
          "name": "queryBatchSize",
          "type": "uint256"
        },
        {
          "internalType": "string[]",
          "name": "labelSpace",
          "type": "string[]"
        }
      ],
      "name": "setupALProjectOnly",
      "outputs": [],
      "stateMutability": "nonpayable",
      "type": "function"
    }
  ],
  "bytecode": "0x60808060405234601557610663908161001b8239f35b600080fdfe608080604052600436101561001357600080fd5b600090813560e01c90816337c7b18f146102e15750637be618d21461003757600080fd5b346102de576101403660031901126102de57610051610405565b610059610420565b90610062610436565b606435926001600160a01b038416919082850361028657856084356001600160401b0381116102bb5761009990369060040161044c565b969060a4356001600160401b0381116102dc576100ba90369060040161044c565b90610104356001600160401b038111610286576100db903690600401610479565b909a610124356001600160a01b03811698919291908990036102d85760018060a01b03169b604051968d60008051602061060e8339815191528a80a28d3b156102d4578a88968796610144968c9a635cf5348560e11b8a5260e4359560c4359560048c01610503565b0381838b5af180156102b0576102bf575b5060405194866000805160206105ee8339815191528380a26001600160a01b031694853b156102bb5763562d0a1360e01b8152600481018790528181602481838a5af180156102b05761029b575b50506040519085857f70bf1b66310b80fdfdc1137c7437cb575ed9fd7079c1f381418d72f648f948998980a3843b156102975763755cacc960e11b825260048201819052868083602481838a5af192831561028a578693610269575b505092604092917ff9349732be02926a8242dff9037c37e003ac8dd5211df0d3e61ef7e28e039d6d60207f9edf188cac833db7cea7f03b6100ef256d6f0e5d95e6af65fc6f5730f6b93e18968651908152a282516001600160a01b0390921682526020820152a380f35b819294935090610278916104a9565b6102865790839086386101ff565b8580fd5b50604051903d90823e3d90fd5b8680fd5b816102a5916104a9565b6102865785386101a3565b6040513d84823e3d90fd5b5080fd5b816102c9916104a9565b610286578538610155565b8880fd5b8780fd5b835b80fd5b82346102de576101003660031901126102de576102fc610405565b91610305610420565b9261030e610436565b906064356001600160401b0381116104015761032e90369060040161044c565b90959092906084356001600160401b0381116102975761035290369060040161044c565b9060e4356001600160401b0381116102d457610372903690600401610479565b6001600160a01b0390961699959690958a60008051602061060e8339815191528b80a28a3b156103fd57938997938997938897936103c597635cf5348560e11b8a5260c4359560a4359560048c01610503565b038183875af180156102b0576103ed575b50906000805160206105ee8339815191528280a280f35b816103f7916104a9565b826103d6565b8980fd5b8480fd5b600435906001600160a01b038216820361041b57565b600080fd5b602435906001600160a01b038216820361041b57565b604435906001600160a01b038216820361041b57565b9181601f8401121561041b578235916001600160401b03831161041b576020838186019501011161041b57565b9181601f8401121561041b578235916001600160401b03831161041b576020808501948460051b01011161041b57565b601f909101601f19168101906001600160401b038211908210176104cc57604052565b634e487b7160e01b600052604160045260246000fd5b908060209392818452848401376000828201840152601f01601f1916010190565b6001600160a01b03918216815291166020820152610100604082018190529099989597969461054a9493909261053c928c0191906104e2565b9189830360608b01526104e2565b93608087015260a086015284830360c0860152808352602083019060208160051b8501019383600091601e1982360301905b848410610594575050505050505060e0600091930152565b90919293949596601f1982820301875287358381121561041b578401602081019190356001600160401b03811161041b57803603831361041b576105de60209283926001956104e2565b9901970195940192919061057c56fea3013482c0d194acd9164072807c2dfa8c7f2e464809f9abc40e1b08bfa50478403f0915017a90804b68ff7ab6d2c982eefe5a4ea3f39b54934b2d6174301d92a26469706673582212200d46a73be276969f82dfc2818ec800f5e13f2ade2b7d082c441e140c20fe796464736f6c634300081c0033",
  "linkReferences": {},
  "deployedLinkReferences": {}
}