{
  "_format": "hh-sol-artifact-1",
  "contractName": "ALProjectStorage",
  "sourceName": "contracts/ALProjectStorage.sol",
  "abi": [
    {
      "inputs": [
        {
          "internalType": "address",
          "name": "_project",
          "type": "address"
        }
      ],
      "stateMutability": "nonpayable",
      "type": "constructor"
    },
    {
      "anonymous": false,
      "inputs": [
        {
          "indexed": false,
          "internalType": "string",
          "name": "sampleId",
          "type": "string"
        },
        {
          "indexed": false,
          "internalType": "string",
          "name": "label",
          "type": "string"
        },
        {
          "indexed": false,
          "internalType": "uint256",
          "name": "round",
          "type": "uint256"
        },
        {
          "indexed": false,
          "internalType": "uint256",
          "name": "timestamp",
          "type": "uint256"
        }
      ],
      "name": "LabelFinalized",
      "type": "event"
    },
    {
      "inputs": [
        {
          "internalType": "string",
          "name": "",
          "type": "string"
        }
      ],
      "name": "finalLabels",
      "outputs": [
        {
          "internalType": "string",
          "name": "sampleId",
          "type": "string"
        },
        {
          "internalType": "string",
          "name": "label",
          "type": "string"
        },
        {
          "internalType": "uint256",
          "name": "round",
          "type": "uint256"
        },
        {
          "internalType": "uint256",
          "name": "timestamp",
          "type": "uint256"
        }
      ],
      "stateMutability": "view",
      "type": "function"
    },
    {
      "inputs": [
        {
          "internalType": "string",
          "name": "sampleId",
          "type": "string"
        }
      ],
      "name": "getFinalLabel",
      "outputs": [
        {
          "internalType": "string",
          "name": "label",
          "type": "string"
        },
        {
          "internalType": "uint256",
          "name": "round",
          "type": "uint256"
        },
        {
          "internalType": "uint256",
          "name": "timestamp",
          "type": "uint256"
        }
      ],
      "stateMutability": "view",
      "type": "function"
    },
    {
      "inputs": [
        {
          "internalType": "string",
          "name": "sampleId",
          "type": "string"
        }
      ],
      "name": "getLabel",
      "outputs": [
        {
          "internalType": "string",
          "name": "",
          "type": "string"
        }
      ],
      "stateMutability": "view",
      "type": "function"
    },
    {
      "inputs": [
        {
          "internalType": "string",
          "name": "sampleId",
          "type": "string"
        }
      ],
      "name": "hasFinalLabel",
      "outputs": [
        {
          "internalType": "bool",
          "name": "",
          "type": "bool"
        }
      ],
      "stateMutability": "view",
      "type": "function"
    },
    {
      "inputs": [
        {
          "internalType": "string",
          "name": "sampleId",
          "type": "string"
        }
      ],
      "name": "isValidSampleId",
      "outputs": [
        {
          "internalType": "bool",
          "name": "",
          "type": "bool"
        }
      ],
      "stateMutability": "pure",
      "type": "function"
    },
    {
      "inputs": [],
      "name": "project",
      "outputs": [
        {
          "internalType": "address",
          "name": "",
          "type": "address"
        }
      ],
      "stateMutability": "view",
      "type": "function"
    },
    {
      "inputs": [
        {
          "internalType": "string",
          "name": "sampleId",
          "type": "string"
        },
        {
          "internalType": "string",
          "name": "label",
          "type": "string"
        },
        {
          "internalType": "uint256",
          "name": "round",
          "type": "uint256"
        }
      ],
      "name": "storeFinalLabel",
      "outputs": [],
      "stateMutability": "nonpayable",
      "type": "function"
    }
  ],
  "bytecode": "0x60803460ba57601f6109f138819003918201601f19168301916001600160401b0383118484101760bf5780849260209460405283398101031260ba57516001600160a01b0381169081900360ba578015607557600080546001600160a01b03191691909117905560405161091b90816100d68239f35b60405162461bcd60e51b815260206004820152601760248201527f496e76616c69642070726f6a65637420616464726573730000000000000000006044820152606490fd5b600080fd5b634e487b7160e01b600052604160045260246000fdfe6080604052600436101561001257600080fd5b60003560e01c806308837df6146106825780630f7fcf40146106225780633ae94379146105af578063428f8338146105085780638bb7b700146104a2578063a6ea915b146100975763f60ca60d1461006957600080fd5b34610092576000366003190112610092576000546040516001600160a01b039091168152602090f35b600080fd5b34610092576060366003190112610092576004356001600160401b038111610092576100c7903690600401610714565b6024356001600160401b038111610092576100e6903690600401610714565b60005460443591906001600160a01b031633036104605782511561041f578051156103e25760405192610118846106d6565b808452602084019382855260408101848152606082019042825260405160208186516101478183858b0161076a565b60019082019081520301902092518051906001600160401b03821161030957819061017286546107b2565b601f811161038f575b50602090601f831160011461032a5760009261031f575b50508160011b916000199060031b1c19161783555b9551805190969060018401906001600160401b038111610309576101cb82546107b2565b601f81116102c1575b506020601f821160011461024357918160039492610233989796946000805160206108c68339815191529c600092610238575b50508160011b9160001990871b1c19161790555b51600284015551910155604051938493429285610890565b0390a1005b015190508c80610207565b601f1982169983600052816000209a60005b8181106102a95750926000805160206108c68339815191529b6102339998979593600193836003999710610291575b505050811b01905561021b565b015160001983891b60f8161c191690558c8080610284565b838301518d556001909c019b60209384019301610255565b826000526020600020601f830160051c810191602084106102ff575b601f0160051c01905b8181106102f357506101d4565b600081556001016102e6565b90915081906102dd565b634e487b7160e01b600052604160045260246000fd5b015190508980610192565b60008781528281209350601f198516905b818110610377575090846001959493921061035e575b505050811b0183556101a7565b015160001960f88460031b161c19169055898080610351565b9293602060018192878601518155019501930161033b565b909150856000526020600020601f840160051c810191602085106103d8575b90601f859493920160051c01905b8181106103c9575061017b565b600081558493506001016103bc565b90915081906103ae565b60405162461bcd60e51b81526020600482015260156024820152744c6162656c2063616e6e6f7420626520656d70747960581b6044820152606490fd5b60405162461bcd60e51b815260206004820152601960248201527853616d706c652049442063616e6e6f7420626520656d70747960381b6044820152606490fd5b60405162461bcd60e51b815260206004820152601a60248201527913db9b1e481b585a5b881c1c9bda9958dd0818d85b8818d85b1b60321b6044820152606490fd5b34610092576020366003190112610092576004356001600160401b038111610092576104fe6104ee60206104db81943690600401610714565b816040519382858094519384920161076a565b81016001815203019020546107b2565b1515604051908152f35b34610092576020366003190112610092576004356001600160401b0381116100925761054060206104db6105a0933690600401610714565b8101600181520301902060405190610557826106d6565b610560816107ec565b82526060610570600183016107ec565b9283602082015260036002840154938460408401520154918291015260405193849360608552606085019061078d565b91602084015260408301520390f35b34610092576020366003190112610092576004356001600160401b0381116100925760206104db6105e4923690600401610714565b810160018152030190206105f7816107ec565b61061e610606600184016107ec565b92600360028201549101549060405194859485610890565b0390f35b34610092576020366003190112610092576004356001600160401b0381116100925761066e600161065f60206104db61061e953690600401610714565b810184815203019020016107ec565b60405191829160208352602083019061078d565b34610092576020366003190112610092576004356001600160401b038111610092576106b46020913690600401610714565b5180151590816106ca575b506040519015158152f35b604091501115826106bf565b608081019081106001600160401b0382111761030957604052565b601f909101601f19168101906001600160401b0382119082101761030957604052565b81601f82011215610092578035906001600160401b0382116103095760405192610748601f8401601f1916602001856106f1565b8284526020838301011161009257816000926020809301838601378301015290565b60005b83811061077d5750506000910152565b818101518382015260200161076d565b906020916107a68151809281855285808601910161076a565b601f01601f1916010190565b90600182811c921680156107e2575b60208310146107cc57565b634e487b7160e01b600052602260045260246000fd5b91607f16916107c1565b9060405191826000825492610800846107b2565b808452936001811690811561086e5750600114610827575b50610825925003836106f1565b565b90506000929192526020600020906000915b8183106108525750509060206108259282010138610818565b6020919350806001915483858901015201910190918492610839565b90506020925061082594915060ff191682840152151560051b82010138610818565b906060926108ad6108bb929796959760808552608085019061078d565b90838203602085015261078d565b946040820152015256fe05d9bd516b3006f59566e0f16512deba749ab72f8386653d11b06758dd395be0a264697066735822122065d4f7cf83520b13ab682548a61cb6a859265a95339dfe3381f84fae8c2998f164736f6c634300081c0033",
  "linkReferences": {},
  "deployedLinkReferences": {}
}