{
  "_format": "hh-sol-artifact-1",
  "contractName": "ALProjectStorage",
  "sourceName": "contracts/ALProjectStorage.sol",
  "abi": [
    {
      "inputs": [
        {
          "internalType": "address",
          "name": "_project",
          "type": "address"
        }
      ],
      "stateMutability": "nonpayable",
      "type": "constructor"
    },
    {
      "anonymous": false,
      "inputs": [
        {
          "indexed": false,
          "internalType": "string",
          "name": "sampleId",
          "type": "string"
        },
        {
          "indexed": false,
          "internalType": "string",
          "name": "label",
          "type": "string"
        },
        {
          "indexed": false,
          "internalType": "uint256",
          "name": "round",
          "type": "uint256"
        },
        {
          "indexed": false,
          "internalType": "uint256",
          "name": "timestamp",
          "type": "uint256"
        },
        {
          "indexed": false,
          "internalType": "uint256",
          "name": "originalIndex",
          "type": "uint256"
        }
      ],
      "name": "LabelFinalized",
      "type": "event"
    },
    {
      "inputs": [
        {
          "internalType": "string",
          "name": "",
          "type": "string"
        }
      ],
      "name": "finalLabels",
      "outputs": [
        {
          "internalType": "string",
          "name": "sampleId",
          "type": "string"
        },
        {
          "internalType": "string",
          "name": "label",
          "type": "string"
        },
        {
          "internalType": "uint256",
          "name": "round",
          "type": "uint256"
        },
        {
          "internalType": "uint256",
          "name": "timestamp",
          "type": "uint256"
        },
        {
          "internalType": "uint256",
          "name": "originalIndex",
          "type": "uint256"
        }
      ],
      "stateMutability": "view",
      "type": "function"
    },
    {
      "inputs": [
        {
          "internalType": "string",
          "name": "sampleId",
          "type": "string"
        }
      ],
      "name": "getFinalLabel",
      "outputs": [
        {
          "internalType": "string",
          "name": "label",
          "type": "string"
        },
        {
          "internalType": "uint256",
          "name": "round",
          "type": "uint256"
        },
        {
          "internalType": "uint256",
          "name": "timestamp",
          "type": "uint256"
        },
        {
          "internalType": "uint256",
          "name": "originalIndex",
          "type": "uint256"
        }
      ],
      "stateMutability": "view",
      "type": "function"
    },
    {
      "inputs": [
        {
          "internalType": "string",
          "name": "sampleId",
          "type": "string"
        }
      ],
      "name": "getLabel",
      "outputs": [
        {
          "internalType": "string",
          "name": "",
          "type": "string"
        }
      ],
      "stateMutability": "view",
      "type": "function"
    },
    {
      "inputs": [
        {
          "internalType": "string",
          "name": "sampleId",
          "type": "string"
        }
      ],
      "name": "hasFinalLabel",
      "outputs": [
        {
          "internalType": "bool",
          "name": "",
          "type": "bool"
        }
      ],
      "stateMutability": "view",
      "type": "function"
    },
    {
      "inputs": [
        {
          "internalType": "string",
          "name": "sampleId",
          "type": "string"
        }
      ],
      "name": "isValidSampleId",
      "outputs": [
        {
          "internalType": "bool",
          "name": "",
          "type": "bool"
        }
      ],
      "stateMutability": "pure",
      "type": "function"
    },
    {
      "inputs": [],
      "name": "project",
      "outputs": [
        {
          "internalType": "address",
          "name": "",
          "type": "address"
        }
      ],
      "stateMutability": "view",
      "type": "function"
    },
    {
      "inputs": [
        {
          "internalType": "string",
          "name": "sampleId",
          "type": "string"
        },
        {
          "internalType": "string",
          "name": "label",
          "type": "string"
        },
        {
          "internalType": "uint256",
          "name": "round",
          "type": "uint256"
        },
        {
          "internalType": "uint256",
          "name": "originalIndex",
          "type": "uint256"
        }
      ],
      "name": "storeFinalLabel",
      "outputs": [],
      "stateMutability": "nonpayable",
      "type": "function"
    }
  ],
  "bytecode": "0x60803460ba57601f610a2338819003918201601f19168301916001600160401b0383118484101760bf5780849260209460405283398101031260ba57516001600160a01b0381169081900360ba578015607557600080546001600160a01b03191691909117905560405161094d90816100d68239f35b60405162461bcd60e51b815260206004820152601760248201527f496e76616c69642070726f6a65637420616464726573730000000000000000006044820152606490fd5b600080fd5b634e487b7160e01b600052604160045260246000fdfe6080604052600436101561001257600080fd5b60003560e01c8063074529cf146102e157806308837df61461028d5780630f7fcf401461022d5780633ae94379146101b4578063428f8338146100fd5780638bb7b700146100975763f60ca60d1461006957600080fd5b34610092576000366003190112610092576000546040516001600160a01b039091168152602090f35b600080fd5b34610092576020366003190112610092576004356001600160401b038111610092576100f36100e360206100d081943690600401610741565b8160405193828580945193849201610797565b81016001815203019020546107df565b1515604051908152f35b34610092576020366003190112610092576004356001600160401b0381116100925761013560206100d06101a0933690600401610741565b8101600181520301902060405161014b81610703565b61015482610819565b8152608061016460018401610819565b928360208401526002810154928360408201526004600383015492836060840152015492839101526040519485946080865260808601906107ba565b926020850152604084015260608301520390f35b34610092576020366003190112610092576004356001600160401b0381116100925760206100d06101e9923690600401610741565b810160018152030190206101fc81610819565b61022961020b60018401610819565b926002810154906004600382015491015491604051958695866108bd565b0390f35b34610092576020366003190112610092576004356001600160401b03811161009257610279600161026a60206100d0610229953690600401610741565b81018481520301902001610819565b6040519182916020835260208301906107ba565b34610092576020366003190112610092576004356001600160401b038111610092576102bf6020913690600401610741565b5180151590816102d5575b506040519015158152f35b604091501115826102ca565b34610092576080366003190112610092576004356001600160401b03811161009257610311903690600401610741565b6024356001600160401b03811161009257610330903690600401610741565b6000546044359190606435906001600160a01b031633036106c15783511561068057815115610643576040519361036685610703565b808552602085019483865260408101858152606082014281526080830191858352604051602081875161039c8183858c01610797565b60019082019081520301902093518051906001600160401b03821161056a5781906103c787546107df565b601f81116105f0575b50602090601f831160011461058b57600092610580575b50508160011b916000199060031b1c19161784555b9751805190989060018501906001600160401b03811161056a5761042082546107df565b601f8111610522575b506020601f82116001146104a1579181610491999897969492600496946000805160206108f88339815191529e600092610496575b50508160011b916000199060031b1c19161790555b516002850155516003840155519101556040519485944292866108bd565b0390a1005b015190508e8061045e565b601f1982169b83600052816000209c60005b81811061050a5750926000805160206108f88339815191529d6004979593600193836104919e9d9c9b9997106104f1575b505050811b019055610473565b015160001960f88460031b161c191690558e80806104e4565b838301518f556001909e019d602093840193016104b3565b826000526020600020601f830160051c81019160208410610560575b601f0160051c01905b8181106105545750610429565b60008155600101610547565b909150819061053e565b634e487b7160e01b600052604160045260246000fd5b015190508b806103e7565b60008881528281209350601f198516905b8181106105d857509084600195949392106105bf575b505050811b0184556103fc565b015160001960f88460031b161c191690558b80806105b2565b9293602060018192878601518155019501930161059c565b909150866000526020600020601f840160051c81019160208510610639575b90601f859493920160051c01905b81811061062a57506103d0565b6000815584935060010161061d565b909150819061060f565b60405162461bcd60e51b81526020600482015260156024820152744c6162656c2063616e6e6f7420626520656d70747960581b6044820152606490fd5b60405162461bcd60e51b815260206004820152601960248201527853616d706c652049442063616e6e6f7420626520656d70747960381b6044820152606490fd5b60405162461bcd60e51b815260206004820152601a60248201527913db9b1e481b585a5b881c1c9bda9958dd0818d85b8818d85b1b60321b6044820152606490fd5b60a081019081106001600160401b0382111761056a57604052565b601f909101601f19168101906001600160401b0382119082101761056a57604052565b81601f82011215610092578035906001600160401b03821161056a5760405192610775601f8401601f19166020018561071e565b8284526020838301011161009257816000926020809301838601378301015290565b60005b8381106107aa5750506000910152565b818101518382015260200161079a565b906020916107d381518092818552858086019101610797565b601f01601f1916010190565b90600182811c9216801561080f575b60208310146107f957565b634e487b7160e01b600052602260045260246000fd5b91607f16916107ee565b906040519182600082549261082d846107df565b808452936001811690811561089b5750600114610854575b506108529250038361071e565b565b90506000929192526020600020906000915b81831061087f5750509060206108529282010138610845565b6020919350806001915483858901015201910190918492610866565b90506020925061085294915060ff191682840152151560051b82010138610845565b916108e8906108da6080959897969360a0865260a08601906107ba565b9084820360208601526107ba565b9560408301526060820152015256feb0e756f0c1c632595c3f40dff440428f92276069c1ba300b5514be22d9b3e7e2a2646970667358221220217b933e47b37e085da6fedfc4815f9d76d18f90bea58ea3dbf1f4b056efd00b64736f6c634300081c0033",
  "linkReferences": {},
  "deployedLinkReferences": {}
}