{
  "_format": "hh-sol-artifact-1",
  "contractName": "ALProjectVoting",
  "sourceName": "contracts/ALProjectVoting.sol",
  "abi": [
    {
      "inputs": [
        {
          "internalType": "address",
          "name": "_project",
          "type": "address"
        },
        {
          "internalType": "string",
          "name": "_votingConsensus",
          "type": "string"
        },
        {
          "internalType": "uint256",
          "name": "_votingTimeoutSeconds",
          "type": "uint256"
        }
      ],
      "stateMutability": "nonpayable",
      "type": "constructor"
    },
    {
      "anonymous": false,
      "inputs": [
        {
          "indexed": false,
          "internalType": "uint256",
          "name": "round",
          "type": "uint256"
        },
        {
          "indexed": false,
          "internalType": "uint256",
          "name": "completedSamples",
          "type": "uint256"
        },
        {
          "indexed": false,
          "internalType": "uint256",
          "name": "timestamp",
          "type": "uint256"
        }
      ],
      "name": "BatchCompleted",
      "type": "event"
    },
    {
      "anonymous": false,
      "inputs": [
        {
          "indexed": false,
          "internalType": "uint256",
          "name": "round",
          "type": "uint256"
        },
        {
          "indexed": false,
          "internalType": "string",
          "name": "sampleId",
          "type": "string"
        },
        {
          "indexed": false,
          "internalType": "string",
          "name": "finalLabel",
          "type": "string"
        },
        {
          "indexed": false,
          "internalType": "uint256",
          "name": "remainingSamples",
          "type": "uint256"
        }
      ],
      "name": "BatchSampleCompleted",
      "type": "event"
    },
    {
      "anonymous": false,
      "inputs": [
        {
          "indexed": false,
          "internalType": "uint256",
          "name": "round",
          "type": "uint256"
        },
        {
          "indexed": false,
          "internalType": "string[]",
          "name": "sampleIds",
          "type": "string[]"
        },
        {
          "indexed": false,
          "internalType": "uint256",
          "name": "startTime",
          "type": "uint256"
        }
      ],
      "name": "BatchStarted",
      "type": "event"
    },
    {
      "anonymous": false,
      "inputs": [
        {
          "indexed": false,
          "internalType": "string",
          "name": "sampleId",
          "type": "string"
        },
        {
          "indexed": false,
          "internalType": "string",
          "name": "label",
          "type": "string"
        }
      ],
      "name": "ConsensusReached",
      "type": "event"
    },
    {
      "anonymous": false,
      "inputs": [
        {
          "indexed": false,
          "internalType": "string",
          "name": "sampleId",
          "type": "string"
        },
        {
          "indexed": false,
          "internalType": "string",
          "name": "finalLabel",
          "type": "string"
        },
        {
          "indexed": false,
          "internalType": "uint256",
          "name": "timestamp",
          "type": "uint256"
        }
      ],
      "name": "LabelStoredInProject",
      "type": "event"
    },
    {
      "anonymous": false,
      "inputs": [
        {
          "indexed": false,
          "internalType": "string",
          "name": "sampleId",
          "type": "string"
        },
        {
          "indexed": false,
          "internalType": "uint256",
          "name": "endTime",
          "type": "uint256"
        }
      ],
      "name": "TimeoutReached",
      "type": "event"
    },
    {
      "anonymous": false,
      "inputs": [
        {
          "indexed": false,
          "internalType": "string",
          "name": "sampleId",
          "type": "string"
        },
        {
          "indexed": true,
          "internalType": "address",
          "name": "voter",
          "type": "address"
        },
        {
          "indexed": false,
          "internalType": "string",
          "name": "label",
          "type": "string"
        },
        {
          "indexed": false,
          "internalType": "bool",
          "name": "support",
          "type": "bool"
        },
        {
          "indexed": false,
          "internalType": "uint256",
          "name": "timestamp",
          "type": "uint256"
        }
      ],
      "name": "VoteSubmitted",
      "type": "event"
    },
    {
      "anonymous": false,
      "inputs": [
        {
          "indexed": false,
          "internalType": "string",
          "name": "sampleId",
          "type": "string"
        },
        {
          "indexed": false,
          "internalType": "uint256",
          "name": "endTime",
          "type": "uint256"
        }
      ],
      "name": "VotingSessionEnded",
      "type": "event"
    },
    {
      "anonymous": false,
      "inputs": [
        {
          "indexed": false,
          "internalType": "string",
          "name": "sampleId",
          "type": "string"
        },
        {
          "indexed": false,
          "internalType": "string",
          "name": "finalLabel",
          "type": "string"
        },
        {
          "indexed": false,
          "internalType": "uint256",
          "name": "endTime",
          "type": "uint256"
        },
        {
          "indexed": false,
          "internalType": "string",
          "name": "reason",
          "type": "string"
        }
      ],
      "name": "VotingSessionFinalized",
      "type": "event"
    },
    {
      "anonymous": false,
      "inputs": [
        {
          "indexed": false,
          "internalType": "string",
          "name": "sampleId",
          "type": "string"
        },
        {
          "indexed": false,
          "internalType": "uint256",
          "name": "startTime",
          "type": "uint256"
        }
      ],
      "name": "VotingSessionStarted",
      "type": "event"
    },
    {
      "inputs": [
        {
          "internalType": "uint256",
          "name": "",
          "type": "uint256"
        }
      ],
      "name": "batches",
      "outputs": [
        {
          "internalType": "uint256",
          "name": "round",
          "type": "uint256"
        },
        {
          "internalType": "uint256",
          "name": "completedCount",
          "type": "uint256"
        },
        {
          "internalType": "bool",
          "name": "isActive",
          "type": "bool"
        },
        {
          "internalType": "uint256",
          "name": "startTime",
          "type": "uint256"
        }
      ],
      "stateMutability": "view",
      "type": "function"
    },
    {
      "inputs": [
        {
          "internalType": "string",
          "name": "sampleId",
          "type": "string"
        }
      ],
      "name": "checkAndFinalizeTimeout",
      "outputs": [],
      "stateMutability": "nonpayable",
      "type": "function"
    },
    {
      "inputs": [
        {
          "internalType": "string[]",
          "name": "allSampleIds",
          "type": "string[]"
        },
        {
          "internalType": "bool[]",
          "name": "sampleActiveStates",
          "type": "bool[]"
        },
        {
          "internalType": "string[]",
          "name": "labelSpace",
          "type": "string[]"
        },
        {
          "internalType": "uint256",
          "name": "votingTimeout",
          "type": "uint256"
        },
        {
          "internalType": "uint256",
          "name": "_currentRound",
          "type": "uint256"
        }
      ],
      "name": "computeActiveBatch",
      "outputs": [
        {
          "internalType": "string[]",
          "name": "activeSampleIds",
          "type": "string[]"
        },
        {
          "internalType": "string[]",
          "name": "sampleData",
          "type": "string[]"
        },
        {
          "internalType": "string[]",
          "name": "labelOptions",
          "type": "string[]"
        },
        {
          "internalType": "uint256",
          "name": "timeRemaining",
          "type": "uint256"
        },
        {
          "internalType": "uint256",
          "name": "round",
          "type": "uint256"
        }
      ],
      "stateMutability": "view",
      "type": "function"
    },
    {
      "inputs": [
        {
          "internalType": "uint256",
          "name": "round",
          "type": "uint256"
        },
        {
          "internalType": "string[]",
          "name": "sampleIds",
          "type": "string[]"
        },
        {
          "internalType": "bool[]",
          "name": "sampleActiveStates",
          "type": "bool[]"
        }
      ],
      "name": "computeBatchProgress",
      "outputs": [
        {
          "internalType": "uint256",
          "name": "_round",
          "type": "uint256"
        },
        {
          "internalType": "uint256",
          "name": "totalSamples",
          "type": "uint256"
        },
        {
          "internalType": "uint256",
          "name": "activeSamplesCount",
          "type": "uint256"
        },
        {
          "internalType": "uint256",
          "name": "completedSamples",
          "type": "uint256"
        },
        {
          "internalType": "string[]",
          "name": "_sampleIds",
          "type": "string[]"
        },
        {
          "internalType": "bool",
          "name": "batchActive",
          "type": "bool"
        }
      ],
      "stateMutability": "pure",
      "type": "function"
    },
    {
      "inputs": [
        {
          "internalType": "address[]",
          "name": "participants",
          "type": "address[]"
        },
        {
          "internalType": "string[]",
          "name": "roles",
          "type": "string[]"
        },
        {
          "internalType": "uint256[]",
          "name": "weights",
          "type": "uint256[]"
        }
      ],
      "name": "computeEligibleVoters",
      "outputs": [
        {
          "internalType": "address[]",
          "name": "voters",
          "type": "address[]"
        },
        {
          "internalType": "uint256[]",
          "name": "eligibleWeights",
          "type": "uint256[]"
        }
      ],
      "stateMutability": "pure",
      "type": "function"
    },
    {
      "inputs": [],
      "name": "consensusThreshold",
      "outputs": [
        {
          "internalType": "uint256",
          "name": "",
          "type": "uint256"
        }
      ],
      "stateMutability": "view",
      "type": "function"
    },
    {
      "inputs": [],
      "name": "currentRound",
      "outputs": [
        {
          "internalType": "uint256",
          "name": "",
          "type": "uint256"
        }
      ],
      "stateMutability": "view",
      "type": "function"
    },
    {
      "inputs": [
        {
          "internalType": "uint256",
          "name": "round",
          "type": "uint256"
        }
      ],
      "name": "endBatchVoting",
      "outputs": [],
      "stateMutability": "nonpayable",
      "type": "function"
    },
    {
      "inputs": [
        {
          "internalType": "uint256",
          "name": "round",
          "type": "uint256"
        }
      ],
      "name": "getBatchSamples",
      "outputs": [
        {
          "internalType": "string[]",
          "name": "",
          "type": "string[]"
        }
      ],
      "stateMutability": "view",
      "type": "function"
    },
    {
      "inputs": [
        {
          "internalType": "uint256",
          "name": "round",
          "type": "uint256"
        }
      ],
      "name": "getBatchStatus",
      "outputs": [
        {
          "internalType": "bool",
          "name": "isActive",
          "type": "bool"
        },
        {
          "internalType": "uint256",
          "name": "totalSamples",
          "type": "uint256"
        },
        {
          "internalType": "uint256",
          "name": "completedSamples",
          "type": "uint256"
        },
        {
          "internalType": "uint256",
          "name": "remainingSamples",
          "type": "uint256"
        },
        {
          "internalType": "uint256",
          "name": "startTime",
          "type": "uint256"
        },
        {
          "internalType": "string[]",
          "name": "sampleIds",
          "type": "string[]"
        },
        {
          "internalType": "string[]",
          "name": "sampleDataHashes",
          "type": "string[]"
        },
        {
          "internalType": "uint256[]",
          "name": "sampleOriginalIndices",
          "type": "uint256[]"
        }
      ],
      "stateMutability": "view",
      "type": "function"
    },
    {
      "inputs": [],
      "name": "getCurrentBatchProgress",
      "outputs": [
        {
          "internalType": "uint256",
          "name": "round",
          "type": "uint256"
        },
        {
          "internalType": "bool",
          "name": "isActive",
          "type": "bool"
        },
        {
          "internalType": "uint256",
          "name": "totalSamples",
          "type": "uint256"
        },
        {
          "internalType": "uint256",
          "name": "completedSamples",
          "type": "uint256"
        },
        {
          "internalType": "string[]",
          "name": "sampleIds",
          "type": "string[]"
        }
      ],
      "stateMutability": "view",
      "type": "function"
    },
    {
      "inputs": [
        {
          "internalType": "string",
          "name": "sampleId",
          "type": "string"
        }
      ],
      "name": "getFinalLabel",
      "outputs": [
        {
          "internalType": "string",
          "name": "",
          "type": "string"
        }
      ],
      "stateMutability": "view",
      "type": "function"
    },
    {
      "inputs": [
        {
          "internalType": "string",
          "name": "sampleId",
          "type": "string"
        }
      ],
      "name": "getSampleOriginalIndex",
      "outputs": [
        {
          "internalType": "uint256",
          "name": "",
          "type": "uint256"
        }
      ],
      "stateMutability": "view",
      "type": "function"
    },
    {
      "inputs": [],
      "name": "getVoterList",
      "outputs": [
        {
          "components": [
            {
              "internalType": "address",
              "name": "addr",
              "type": "address"
            },
            {
              "internalType": "uint256",
              "name": "weight",
              "type": "uint256"
            }
          ],
          "internalType": "struct ALProjectVoting.Voter[]",
          "name": "",
          "type": "tuple[]"
        }
      ],
      "stateMutability": "view",
      "type": "function"
    },
    {
      "inputs": [
        {
          "internalType": "string",
          "name": "sampleId",
          "type": "string"
        }
      ],
      "name": "getVotes",
      "outputs": [
        {
          "components": [
            {
              "internalType": "address",
              "name": "voter",
              "type": "address"
            },
            {
              "internalType": "string",
              "name": "label",
              "type": "string"
            },
            {
              "internalType": "bool",
              "name": "support",
              "type": "bool"
            },
            {
              "internalType": "uint256",
              "name": "timestamp",
              "type": "uint256"
            }
          ],
          "internalType": "struct ALProjectVoting.Vote[]",
          "name": "",
          "type": "tuple[]"
        }
      ],
      "stateMutability": "view",
      "type": "function"
    },
    {
      "inputs": [
        {
          "internalType": "string",
          "name": "sampleId",
          "type": "string"
        }
      ],
      "name": "getVotingDistribution",
      "outputs": [
        {
          "internalType": "string[]",
          "name": "labels",
          "type": "string[]"
        },
        {
          "internalType": "uint256[]",
          "name": "voteCounts",
          "type": "uint256[]"
        },
        {
          "internalType": "uint256[]",
          "name": "voteWeights",
          "type": "uint256[]"
        }
      ],
      "stateMutability": "view",
      "type": "function"
    },
    {
      "inputs": [
        {
          "internalType": "string",
          "name": "sampleId",
          "type": "string"
        }
      ],
      "name": "getVotingResult",
      "outputs": [
        {
          "internalType": "bool",
          "name": "isFinalized",
          "type": "bool"
        },
        {
          "internalType": "string",
          "name": "finalLabel",
          "type": "string"
        },
        {
          "internalType": "uint256",
          "name": "totalVotes",
          "type": "uint256"
        },
        {
          "internalType": "uint256",
          "name": "votedCount",
          "type": "uint256"
        }
      ],
      "stateMutability": "view",
      "type": "function"
    },
    {
      "inputs": [
        {
          "internalType": "string",
          "name": "sampleId",
          "type": "string"
        }
      ],
      "name": "getVotingSession",
      "outputs": [
        {
          "internalType": "uint256",
          "name": "startTime",
          "type": "uint256"
        },
        {
          "internalType": "bool",
          "name": "isActive",
          "type": "bool"
        },
        {
          "internalType": "bool",
          "name": "isFinalized",
          "type": "bool"
        },
        {
          "internalType": "string",
          "name": "finalLabel",
          "type": "string"
        }
      ],
      "stateMutability": "view",
      "type": "function"
    },
    {
      "inputs": [
        {
          "internalType": "string",
          "name": "sampleId",
          "type": "string"
        }
      ],
      "name": "getVotingSessionStatus",
      "outputs": [
        {
          "internalType": "bool",
          "name": "isActive",
          "type": "bool"
        },
        {
          "internalType": "bool",
          "name": "isFinalized",
          "type": "bool"
        },
        {
          "internalType": "string",
          "name": "finalLabel",
          "type": "string"
        },
        {
          "internalType": "uint256",
          "name": "startTime",
          "type": "uint256"
        },
        {
          "internalType": "uint256",
          "name": "timeRemaining",
          "type": "uint256"
        },
        {
          "internalType": "uint256",
          "name": "votedCount",
          "type": "uint256"
        },
        {
          "internalType": "uint256",
          "name": "totalVoters",
          "type": "uint256"
        }
      ],
      "stateMutability": "view",
      "type": "function"
    },
    {
      "inputs": [
        {
          "internalType": "string",
          "name": "sampleId",
          "type": "string"
        },
        {
          "internalType": "address",
          "name": "user",
          "type": "address"
        }
      ],
      "name": "hasUserVoted",
      "outputs": [
        {
          "internalType": "bool",
          "name": "",
          "type": "bool"
        }
      ],
      "stateMutability": "view",
      "type": "function"
    },
    {
      "inputs": [
        {
          "internalType": "string",
          "name": "sampleId",
          "type": "string"
        }
      ],
      "name": "isTimeoutReached",
      "outputs": [
        {
          "internalType": "bool",
          "name": "",
          "type": "bool"
        }
      ],
      "stateMutability": "view",
      "type": "function"
    },
    {
      "inputs": [
        {
          "internalType": "string",
          "name": "sampleId",
          "type": "string"
        }
      ],
      "name": "isVotingActive",
      "outputs": [
        {
          "internalType": "bool",
          "name": "",
          "type": "bool"
        }
      ],
      "stateMutability": "view",
      "type": "function"
    },
    {
      "inputs": [
        {
          "internalType": "string",
          "name": "sampleId",
          "type": "string"
        },
        {
          "internalType": "string",
          "name": "finalLabel",
          "type": "string"
        }
      ],
      "name": "notifyMainContractExternal",
      "outputs": [],
      "stateMutability": "nonpayable",
      "type": "function"
    },
    {
      "inputs": [],
      "name": "project",
      "outputs": [
        {
          "internalType": "address",
          "name": "",
          "type": "address"
        }
      ],
      "stateMutability": "view",
      "type": "function"
    },
    {
      "inputs": [
        {
          "internalType": "address[]",
          "name": "_voters",
          "type": "address[]"
        },
        {
          "internalType": "uint256[]",
          "name": "_weights",
          "type": "uint256[]"
        }
      ],
      "name": "setVoters",
      "outputs": [],
      "stateMutability": "nonpayable",
      "type": "function"
    },
    {
      "inputs": [
        {
          "internalType": "string[]",
          "name": "sampleIds",
          "type": "string[]"
        },
        {
          "internalType": "uint256",
          "name": "round",
          "type": "uint256"
        },
        {
          "internalType": "string[]",
          "name": "sampleDataHashes",
          "type": "string[]"
        },
        {
          "internalType": "uint256[]",
          "name": "originalIndices",
          "type": "uint256[]"
        }
      ],
      "name": "startBatchVoting",
      "outputs": [],
      "stateMutability": "nonpayable",
      "type": "function"
    },
    {
      "inputs": [
        {
          "internalType": "string[]",
          "name": "sampleIds",
          "type": "string[]"
        },
        {
          "internalType": "string[]",
          "name": "labels",
          "type": "string[]"
        },
        {
          "internalType": "bool[]",
          "name": "support",
          "type": "bool[]"
        }
      ],
      "name": "submitBatchVote",
      "outputs": [],
      "stateMutability": "nonpayable",
      "type": "function"
    },
    {
      "inputs": [
        {
          "internalType": "string[]",
          "name": "sampleIds",
          "type": "string[]"
        },
        {
          "internalType": "string[]",
          "name": "labels",
          "type": "string[]"
        },
        {
          "internalType": "address",
          "name": "voter",
          "type": "address"
        }
      ],
      "name": "submitBatchVoteOnBehalf",
      "outputs": [],
      "stateMutability": "nonpayable",
      "type": "function"
    },
    {
      "inputs": [
        {
          "internalType": "uint256",
          "name": "",
          "type": "uint256"
        }
      ],
      "name": "voterList",
      "outputs": [
        {
          "internalType": "address",
          "name": "",
          "type": "address"
        }
      ],
      "stateMutability": "view",
      "type": "function"
    },
    {
      "inputs": [
        {
          "internalType": "address",
          "name": "",
          "type": "address"
        }
      ],
      "name": "voterWeights",
      "outputs": [
        {
          "internalType": "uint256",
          "name": "",
          "type": "uint256"
        }
      ],
      "stateMutability": "view",
      "type": "function"
    },
    {
      "inputs": [
        {
          "internalType": "string",
          "name": "",
          "type": "string"
        },
        {
          "internalType": "uint256",
          "name": "",
          "type": "uint256"
        }
      ],
      "name": "votes",
      "outputs": [
        {
          "internalType": "address",
          "name": "voter",
          "type": "address"
        },
        {
          "internalType": "string",
          "name": "label",
          "type": "string"
        },
        {
          "internalType": "bool",
          "name": "support",
          "type": "bool"
        },
        {
          "internalType": "uint256",
          "name": "timestamp",
          "type": "uint256"
        }
      ],
      "stateMutability": "view",
      "type": "function"
    },
    {
      "inputs": [],
      "name": "votingConsensus",
      "outputs": [
        {
          "internalType": "string",
          "name": "",
          "type": "string"
        }
      ],
      "stateMutability": "view",
      "type": "function"
    },
    {
      "inputs": [
        {
          "internalType": "string",
          "name": "",
          "type": "string"
        }
      ],
      "name": "votingSessions",
      "outputs": [
        {
          "internalType": "uint256",
          "name": "startTime",
          "type": "uint256"
        },
        {
          "internalType": "bool",
          "name": "isActive",
          "type": "bool"
        },
        {
          "internalType": "bool",
          "name": "isFinalized",
          "type": "bool"
        },
        {
          "internalType": "string",
          "name": "finalLabel",
          "type": "string"
        },
        {
          "internalType": "uint256",
          "name": "totalVoters",
          "type": "uint256"
        },
        {
          "internalType": "uint256",
          "name": "round",
          "type": "uint256"
        }
      ],
      "stateMutability": "view",
      "type": "function"
    },
    {
      "inputs": [],
      "name": "votingTimeoutSeconds",
      "outputs": [
        {
          "internalType": "uint256",
          "name": "",
          "type": "uint256"
        }
      ],
      "stateMutability": "view",
      "type": "function"
    },
    {
      "inputs": [
        {
          "internalType": "string",
          "name": "sampleId",
          "type": "string"
        }
      ],
      "name": "wasConsensusAchieved",
      "outputs": [
        {
          "internalType": "bool",
          "name": "",
          "type": "bool"
        }
      ],
      "stateMutability": "view",
      "type": "function"
    }
  ],
  "bytecode": "0x60806040523461029757614903803803806100198161029c565b9283398101906060818303126102975780516001600160a01b03811691908290036102975760208101516001600160401b03811161029757810183601f82011215610297578051906001600160401b03821161023557610082601f8301601f191660200161029c565b94828652602083830101116102975760005b82811061028257505060009084016020015260400151603360015590801561024b57600080546001600160a01b03191691909117905581516001600160401b03811161023557600354600181811c9116801561022b575b602082101461021557601f81116101b0575b50602092601f821160011461014b5792819293600092610140575b50508160011b916000199060031b1c1916176003555b60025560405161464190816102c28239f35b015190503880610118565b601f198216936003600052806000209160005b868110610198575083600195961061017f575b505050811b0160035561012e565b015160001960f88460031b161c19169055388080610171565b9192602060018192868501518155019401920161015e565b60036000527fc2575a0e9e593c00f959f8c92f12db2869c3395a3b0502d05e2516446f71f85b601f830160051c8101916020841061020b575b601f0160051c01905b8181106101ff57506100fd565b600081556001016101f2565b90915081906101e9565b634e487b7160e01b600052602260045260246000fd5b90607f16906100eb565b634e487b7160e01b600052604160045260246000fd5b60405162461bcd60e51b815260206004820152600f60248201526e496e76616c6964206164647265737360881b6044820152606490fd5b80602080928401015182828901015201610094565b600080fd5b6040519190601f01601f191682016001600160401b038111838210176102355760405256fe6080604052600436101561001257600080fd5b60003560e01c806304574fe814612af157806326a0613a14612ab75780632d1bbc8e1461296f57806333f9625d1461216b578063367cb924146120095780634149738514611f7b578063414f8e7614611f3d578063428f833814611ef057806350e2e8af14611eae57806355d389a414611dcd5780635c97951e14611c9f5780636042ad6114611be35780636787225b14611ba157806368acb1ab14611b5e57806372678fcc146119f857806375c255fc146117d157806379c4ab151461174c578063805265e5146115ec5780638520eb781461157e5780638a19c8bc146115605780639a6e81ab1461113b578063a58df19a1461111d578063a76fd84e14611017578063ab40d3ba14610f48578063b28d92ae14610e08578063b32c4d8d14610db5578063b49c447e14610d41578063b8c3903414610be7578063cdbf3d0114610899578063db7cde8b14610778578063e7016ca714610734578063f02a0f751461029c578063f18a5cec146101e9578063f60ca60d146101c05763f9b0b5b91461019d57600080fd5b346101bb5760003660031901126101bb576020600154604051908152f35b600080fd5b346101bb5760003660031901126101bb576000546040516001600160a01b039091168152602090f35b346101bb5760203660031901126101bb576004356001600160401b0381116101bb57602061021e610231923690600401612c07565b8160405193828580945193849201612c4e565b81016007815203019020805460018201549161024f60028201612e80565b61028d600460038401549301549160ff60405196879687528181161515602088015260081c161515604086015260c0606086015260c0850190612c71565b91608084015260a08301520390f35b346101bb5760603660031901126101bb576004356001600160401b0381116101bb576102cc903690600401612d3a565b6024356001600160401b0381116101bb576102eb903690600401612d3a565b6044356001600160401b0381116101bb5761030a903690600401612ffa565b336000526004602052604060002054156106f65782518251036106b157825181510361066d5790339060005b845181101561057c578061034c6001928761311e565b51610357828561311e565b5190610363838861311e565b5115159160405161039760ff878551936020818189019661038581838a612c4e565b81016007815203019020015416613396565b6103c660ff8760405160208188516103b081838a612c4e565b81016007815203019020015460081c16156133de565b6103fe60ff60406005815160208189516103e181838b612c4e565b81016007815203019020016000908c825260205220541615613429565b61040783613d8b565b610562576000805160206145ec83398151915292916104c6916104676040516020818751610436818388612c4e565b810160068152030190206040519061044d82612b93565b3382528460208301528860408301524260608301526134a1565b85604060058151602081895161047e81838a612c4e565b81016007815203019020016000908d8252602052208960ff198254161790556104df575b506104b860405193608085526080850190612c71565b908382036020850152612c71565b9260408201524260608201528033930390a25b01610336565b610508600660405160208188516104f7818389612c4e565b810160078152030190200183612f4a565b61051281546132e5565b905533600052600460205261055a6105526007610542602060406000205495604051809381928c51928391612c4e565b8101848152030190200184612f4a565b918254613389565b90558b6104a2565b50506105779150610571613474565b90613dc5565b6104d9565b848051610586575b005b61059a610594600492613111565b51612f24565b01548015158061065e575b6105ab57005b60005260086020526105c36001604060002001613155565b60005b815181101561058457806105dc6001928461311e565b5160405160ff84835192602081818701956105f8818389612c4e565b81016007815203019020015416908161062b575b50610619575b50016105c6565b61062590610571613619565b83610612565b60ff915061064760208692604051809381928851928391612c4e565b81016007815203019020015460081c16158561060c565b5061066881614220565b6105a5565b606460405162461bcd60e51b815260206004820152602060248201527f4d69736d6174636865642073616d706c6549647320616e6420737570706f72746044820152fd5b60405162461bcd60e51b815260206004820152601f60248201527f4d69736d6174636865642073616d706c6549647320616e64206c6162656c73006044820152606490fd5b60405162461bcd60e51b81526020600482015260166024820152752737ba1030903932b3b4b9ba32b932b2103b37ba32b960511b6044820152606490fd5b346101bb5760203660031901126101bb576004356001600160401b0381116101bb5761076e6107696020923690600401612c07565b613cdc565b6040519015158152f35b346101bb5760203660031901126101bb576004356001600160401b0381116101bb576107a8903690600401612c07565b60405190805191602081818401946107c1818388612c4e565b8101600781520301902060009260006005549060058401905b82811061084c57505050600261080c602061081e9360ff600187015460081c1696604051938492839251928391612c4e565b81016006815203019020549201612e80565b9261083d60405194859415158552608060208601526080850190612c71565b91604084015260608301520390f35b60ff604061085983612e15565b905460039190911b1c6001600160a01b031660009081526020859052205416610885575b6001016107da565b956108916001916132e5565b96905061087d565b346101bb5760603660031901126101bb576004356001600160401b0381116101bb576108c9903690600401612f8c565b6024356001600160401b0381116101bb576108e8903690600401612d3a565b906044356001600160401b0381116101bb57610908903690600401612db8565b908051835103610b97578051825103610b4657600090815b81518110156109ca57610933818661311e565b5160208151910120610943613c15565b602081519101201480156109a2575b801561097a575b610966575b600101610920565b916109726001916132e5565b92905061095e565b50610985818661311e565b5160208151910120610995613c63565b6020815191012014610959565b506109ad818661311e565b51602081519101206109bd613c3a565b6020815191012014610952565b5090916109d683612d23565b6109e36040519182612bc9565b838152610a046109f285612d23565b602083019590601f19013687376130df565b9260009560005b8251811015610aeb57610a1e818361311e565b5160208151910120610a2e613c15565b60208151910120148015610ac3575b8015610a9b575b610a51575b600101610a0b565b96600190610a93906001600160a01b03610a6b8b8761311e565b5116610a77828861311e565b52610a828a8861311e565b51610a8d828a61311e565b526132e5565b979050610a49565b50610aa6818361311e565b5160208151910120610ab6613c63565b6020815191012014610a44565b50610ace818361311e565b5160208151910120610ade613c3a565b6020815191012014610a3d565b868487604051916040830190604084525180915260608301939060005b818110610b27578480610b2388878382036020850152612cef565b0390f35b82516001600160a01b0316865260209586019590920191600101610b08565b60405162461bcd60e51b8152602060048201526024808201527f5061727469636970616e74732f77656967687473206c656e677468206d69736d6044820152630c2e8c6d60e31b6064820152608490fd5b60405162461bcd60e51b815260206004820152602260248201527f5061727469636970616e74732f726f6c6573206c656e677468206d69736d61746044820152610c6d60f31b6064820152608490fd5b346101bb5760203660031901126101bb57600435610c1060018060a01b036000541633146131ad565b80600052600860205260ff6003604060002001541615610d09576000526008602052610c426001604060002001613155565b60005b81518110156105845780610c5b6001928461311e565b5160405160ff8483519260208181870195610c77818389612c4e565b810160078152030190200154169081610cd6575b50610c98575b5001610c45565b610cd090604090610cab82519283612bc9565b60138252724d616e75616c20626174636820656e64696e6760681b6020830152613dc5565b83610c91565b60ff9150610cf260208692604051809381928851928391612c4e565b81016007815203019020015460081c161585610c8b565b60405162461bcd60e51b815260206004820152601060248201526f4261746368206e6f742061637469766560801b6044820152606490fd5b346101bb5760203660031901126101bb576004356001600160401b0381116101bb57610da7610b23610d82610d7d610d99943690600401612c07565b6139c1565b919390604051958695606087526060870190612c96565b908582036020870152612cef565b908382036040850152612cef565b346101bb5760203660031901126101bb57600435600052600860205260806040600020805490600281015490600460ff600383015416910154916040519384526020840152151560408301526060820152f35b346101bb5760003660031901126101bb57600554610e2581612d23565b90610e336040519283612bc9565b808252601f19610e4282612d23565b0160005b818110610f2357505060005b818110610eb4578260405180916020820160208352815180915260206040840192019060005b818110610e86575050500390f35b825180516001600160a01b031685526020908101518186015286955060409094019390920191600101610e78565b80610ec0600192612e15565b838060a01b0391549060031b1c16610ed782612e15565b848060a01b0391549060031b1c16600052600460205260406000205460405191610f0083612bae565b82526020820152610f11828661311e565b52610f1c818561311e565b5001610e52565b602090604051610f3281612bae565b6000815260008382015282828701015201610e46565b346101bb5760a03660031901126101bb576004356001600160401b0381116101bb57610f78903690600401612d3a565b6024356001600160401b0381116101bb57610f97903690600401612ffa565b604435916001600160401b0383116101bb57610fd261100892610ffa92610fc5610fec963690600401612d3a565b608435926064359261369c565b93959260409591955197889760a0895260a0890190612c96565b908782036020890152612c96565b908582036040870152612c96565b91606084015260808301520390f35b346101bb5760603660031901126101bb576024356001600160401b0381116101bb57611047903690600401612d3a565b6044356001600160401b0381116101bb57611066903690600401612ffa565b906110748151835114613651565b600080805b83518210156110ca5761108c828661311e565b51156110a65761109d6001916132e5565b915b0190611079565b9083516110b6575b60019061109f565b916110c26001916132e5565b9290506110ae565b8351838115158681611113575b6111079192604051958695600435875260208701526040860152606085015260c0608085015260c0840190612c96565b90151560a08301520390f35b84151591506110d7565b346101bb5760003660031901126101bb576020600254604051908152f35b346101bb5760603660031901126101bb576004356001600160401b0381116101bb5761116b903690600401612d3a565b6024356001600160401b0381116101bb5761118a903690600401612d3a565b6044356001600160a01b038116908190036101bb576111b460018060a01b036000541633146131ad565b8251825103611527578251156114f457806000526004602052604060002054156114b85760009160005b84518110156113e6576111f1818661311e565b516111fc828461311e565b5160405161121c60ff60018551936020818189019661038581838a612c4e565b61123660ff600160405160208188516103b081838a612c4e565b61126e60ff604060058151602081895161125181838b612c4e565b81016007815203019020016000908a825260205220541615613429565b83156113af575b9185916001949361128583613d8b565b61139b57916113856104b8926000805160206145ec833981519152946112e860405160208187516112b7818388612c4e565b81016006815203019020604051906112ce82612b93565b8982528460208301528b60408301524260608301526134a1565b60406005815160208188516112fe818389612c4e565b8101600781520301902001600090898252602052208960ff19825416179055611335600660405160208188516104f7818389612c4e565b61133f81546132e5565b905586600052600460205261136f6105526007610542602060406000205495604051809381928c51928391612c4e565b9055604051938493608085526080850190612c71565b8660408301524260608301520390a25b016111de565b50506113aa9150610571613474565b611395565b95506001929185916004604051602081806113ce8d8851928391612c4e565b81016007815203019020015497919394509150611275565b83801515806114a9575b6113f657005b600052600860205261140e6001604060002001613155565b60005b815181101561058457806114276001928461311e565b5160405160ff8483519260208181870195611443818389612c4e565b810160078152030190200154169081611476575b50611464575b5001611411565b61147090610571613619565b8361145d565b60ff915061149260208692604051809381928851928391612c4e565b81016007815203019020015460081c161585611457565b506114b381614220565b6113f0565b60405162461bcd60e51b8152602060048201526014602482015273159bdd195c881b9bdd081c9959da5cdd195c995960621b6044820152606490fd5b60405162461bcd60e51b815260206004820152600b60248201526a08adae0e8f240c4c2e8c6d60ab1b6044820152606490fd5b60405162461bcd60e51b81526020600482015260116024820152704d69736d6174636865642061727261797360781b6044820152606490fd5b346101bb5760003660031901126101bb576020600954604051908152f35b346101bb5760003660031901126101bb57600954806000526008602052604060002090610b2360ff60038401541692600181016115c16002825493015491613155565b916040519586958652151560208601526040850152606084015260a0608084015260a0830190612c96565b346101bb5760203660031901126101bb576004356001600160401b0381116101bb57602061021e611621923690600401612c07565b8101600681520301902080549061163782612d23565b916116456040519384612bc9565b80835260208301809260005260206000206000915b8383106116f857848660405191829160208301906020845251809152604083019060408160051b85010192916000905b82821061169957505050500390f35b919360019193955060208091603f19898203018552875190848060a01b0382511681526060806116d6858501516080878601526080850190612c71565b936040810151151560408501520151910152960192019201859493919261168a565b6004602060019260405161170b81612b93565b848060a01b038654168152611721858701612e80565b8382015260ff600287015416151560408201526003860154606082015281520192019201919061165a565b346101bb5760203660031901126101bb576004356001600160401b0381116101bb57602061021e611781923690600401612c07565b810160078152030190208054610b236117a1600260018501549401612e80565b60ff60405194859485528181161515602086015260081c1615156040840152608060608401526080830190612c71565b346101bb5760403660031901126101bb576004356001600160401b0381116101bb57611801903690600401612f8c565b6024356001600160401b0381116101bb57611820903690600401612db8565b9061183660018060a01b036000541633146131ad565b80518251036119be5760005b60055481101561187b5780611858600192612e15565b838060a01b0391549060031b1c1660005260046020526000604081205501611842565b50600554600060055580611985575b5060005b8151811015610584576118a1818461311e565b5115611940576118b1818461311e565b516001600160a01b036118c4838561311e565b51166000908152600460205260409020556001600160a01b036118e7828461311e565b51600554929116600160401b83101561192a5761190b836001809501600555612e15565b819291549060031b91821b91858060a01b03901b19161790550161188e565b634e487b7160e01b600052604160045260246000fd5b60405162461bcd60e51b815260206004820152601d60248201527f576569676874206d7573742062652067726561746572207468616e20300000006044820152606490fd5b60056000526119b8907f036b6384b5eca791c62761152d0c79bb0604c104a5fb6f4eb0703f3154bb3db0908101906131f6565b8261188a565b60405162461bcd60e51b81526020600482015260126024820152714d69736d617463686564206c656e6774687360701b6044820152606490fd5b346101bb5760203660031901126101bb576004356001600160401b0381116101bb57602061021e611a2d923690600401612c07565b81016007815203019020600060025480151580611b50575b80611b3e575b611b19575b5060009060009260055460058201945b818110611acc57505060ff9350600181015492815492611ab3611a8a600260038601549501612e80565b6040519787818a99161515895260081c161515602088015260e0604088015260e0870190612c71565b936060860152608085015260a084015260c08301520390f35b60ff6040611ad983612e15565b905460039190911b1c6001600160a01b031660009081526020899052205416611b05575b600101611a60565b93611b116001916132e5565b949050611afd565b611b24908354613389565b80421015611a5057611b3891504290613132565b82611a50565b5060ff600184015460081c1615611a4b565b5060ff600184015416611a45565b346101bb5760203660031901126101bb576004356000526008602052610b23611b8d6001604060002001613155565b604051918291602083526020830190612c96565b346101bb5760203660031901126101bb576004356001600160401b0381116101bb57611bdb611bd66020923690600401612c07565b6132f4565b604051908152f35b346101bb5760403660031901126101bb576004356001600160401b0381116101bb57611c13903690600401612c07565b611c2f6020602435928160405193828580945193849201612c4e565b810160068152030190209081548110156101bb57611c4c91612f70565b5080546001600160a01b0316611c6460018301612e80565b91600360ff600283015416910154611c8e6040519485948552608060208601526080850190612c71565b911515604084015260608301520390f35b346101bb5760403660031901126101bb576004356001600160401b0381116101bb57611ccf903690600401612c07565b6024356001600160401b0381116101bb57611cee903690600401612c07565b90303303611d93576000546001600160a01b0316803b156101bb576000604051809263160c220d60e31b8252818381611d2b8989600484016132bd565b03925af1611d82575b506000546001600160a01b031691823b156101bb57611d6d92600092836040518096819582946314faf32d60e11b8452600484016132bd565b03925af1611d7757005b600061058491612bc9565b6000611d8d91612bc9565b82611d34565b60405162461bcd60e51b8152602060048201526012602482015271496e7465726e616c2063616c6c206f6e6c7960701b6044820152606490fd5b346101bb5760003660031901126101bb576040516000600354611def81612e46565b8084529060018116908115611e8a5750600114611e2b575b610b2383611e1781850382612bc9565b604051918291602083526020830190612c71565b600360009081527fc2575a0e9e593c00f959f8c92f12db2869c3395a3b0502d05e2516446f71f85b939250905b808210611e7057509091508101602001611e17611e07565b919260018160209254838588010152019101909291611e58565b60ff191660208086019190915291151560051b84019091019150611e179050611e07565b346101bb5760203660031901126101bb576004356005548110156101bb57611ed7602091612e15565b905460405160039290921b1c6001600160a01b03168152f35b346101bb5760203660031901126101bb576004356001600160401b0381116101bb57611e176002611f2d602061021e610b23953690600401612c07565b8101600781520301902001612e80565b346101bb5760203660031901126101bb576004356001600160a01b038116908190036101bb5760005260046020526020604060002054604051908152f35b346101bb5760403660031901126101bb576004356001600160401b0381116101bb57611fab903690600401612c07565b602435906001600160a01b03821682036101bb57611fda60206005928160405193828580945193849201612c4e565b81016007815203019020019060018060a01b0316600052602052602060ff604060002054166040519015158152f35b346101bb5760203660031901126101bb576004356001600160401b0381116101bb57612039903690600401612c07565b61209a60ff6001612084602060405161207385858951938581818d019661206181838a612c4e565b8101600781520301902001541661323c565b604051809381928951928391612c4e565b81016007815203019020015460081c161561327d565b6120a381613d8b565b1561212c576121277ffe2a617c3a0856bbd203e77cee3d518a00f599c8a955224e80b1d0a1afd95703916121196040516120de606082612bc9565b602281527f54696d656f75742072656163686564202d2065787465726e616c20747269676760208201526132b960f11b604082015282613dc5565b604051918291429083613220565b0390a1005b60405162461bcd60e51b8152602060048201526017602482015276151a5b595bdd5d081b9bdd081c995858da1959081e595d604a1b6044820152606490fd5b346101bb5760803660031901126101bb576004356001600160401b0381116101bb5761219b903690600401612d3a565b6024356044356001600160401b0381116101bb576121bd903690600401612d3a565b906064356001600160401b0381116101bb576121dd903690600401612db8565b926121f360018060a01b036000541633146131ad565b8051156129355780518351036128e25780518451036128855781600052600860205260ff600360406000200154166128345760008281526008602052604090208281558151600190910190600160401b811161192a5781548183558082106127b6575b5060208301916000526020600020916000905b8282106126ac5750505060008381526008602052604081206002810182905560038101805460ff191660011790554260049091015590505b815181101561240d576122b4818561311e565b518360005260086020526122d960056040600020016122d3848661311e565b51612f4a565b815190916001600160401b03821161192a576122f58354612e46565b601f81116123d0575b50602090601f831160011461236557918061232792600196959460009261235a575b505061320d565b90555b612334818761311e565b5184600052600860205261235360066040600020016122d3848761311e565b55016122a1565b015190508a80612320565b90601f1983169184600052816000209260005b8181106123b857509160019695949291838895931061239f575b505050811b01905561232a565b015160001960f88460031b161c19169055898080612392565b92936020600181928786015181550195019301612378565b6123fd90846000526020600020601f850160051c81019160208610612403575b601f0160051c01906131f6565b886122fe565b90915081906123f0565b508160095560005b815181101561266257612428818361311e565b519060405160ff600184519260208181880195612446818389612c4e565b810160078152030190200154166126135760ff6001604051602081875161246e818389612c4e565b81016007815203019020015460081c166125d357600461253160208793604051875161249b818385612c4e565b81019060078252838142930301902055600160405183818a516124bf818388612c4e565b8101600781520301902001600160ff19825416179055600160405183818a516124e9818388612c4e565b810160078152030190200161ff00198154169055600554600360405184818b51612514818389612c4e565b810160078152030190200155604051809381928951928391612c4e565b8101600781520301902001557f1a6063ea5a85373503082e9047ebbde10c2ef86a0029b81921668e4a2ea190e36040518061256d428683613220565b0390a16000546001600160a01b031691823b156101bb5760006125b2600194829360405194858094819363b2be4d6560e01b8352602060048401526024830190612c71565b03925af16125c2575b5001612415565b60006125cd91612bc9565b846125bb565b60405162461bcd60e51b815260206004820152601860248201527714d85b5c1b1948185b1c9958591e48199a5b985b1a5e995960421b6044820152606490fd5b60405162461bcd60e51b815260206004820152602160248201527f53616d706c6520616c726561647920686173206163746976652073657373696f6044820152603760f91b6064820152608490fd5b507f915b7f3f33ca682a46c0a82bcae59307624896b80801e6ea2c6e702a10499ece916126a16040519283928352606060208401526060830190612c96565b4260408301520390a1005b80518051906001600160401b03821161192a576126c98654612e46565b601f8111612784575b50602090601f831160011461271757926126fd8360019594602094879660009261270c57505061320d565b87555b01940191019092612269565b015190508e80612320565b90601f1983169187600052816000209260005b81811061276c5750936020936001969387969383889510612753575b505050811b018755612700565b015160001960f88460031b161c191690558d8080612746565b9293602060018192878601518155019501930161272a565b6127b090876000526020600020601f850160051c8101916020861061240357601f0160051c01906131f6565b8a6126d2565b8260005281602060002091820191015b8181106127d35750612256565b806127e060019254612e46565b806127ed575b50016127c6565b601f811183146128035750600081555b896127e6565b612821908260005283601f6020600020920160051c820191016131f6565b80600052600060208120818355556127fd565b60405162461bcd60e51b815260206004820152602360248201527f426174636820616c72656164792061637469766520666f72207468697320726f6044820152621d5b9960ea1b6064820152608490fd5b60405162461bcd60e51b815260206004820152602f60248201527f53616d706c652049447320616e64206f726967696e616c20696e64696365732060448201526e0d8cadccee8d040dad2e6dac2e8c6d608b1b6064820152608490fd5b60405162461bcd60e51b815260206004820152602560248201527f53616d706c652049447320616e6420686173686573206c656e677468206d69736044820152640dac2e8c6d60db1b6064820152608490fd5b60405162461bcd60e51b815260206004820152601260248201527108adae0e8f240e6c2dae0d8ca40c4c2e8c6d60731b6044820152606490fd5b346101bb5760203660031901126101bb5760043560005260086020526040600020600181018054916129a083613095565b6129a9846130df565b91600060058201600683018654925b888110612a42578888610b2389612a348a612a268b60ff600382015416966002820154916129f460046129eb858d613132565b92015492613155565b926040519a8b9a15158b5260208b015260408a01526060890152608088015261010060a0880152610100870190612c96565b9085820360c0870152612c96565b9083820360e0850152612cef565b600084821015612aa35790612a9183612a64836020868e600198522001612e80565b612a76612a718883612f4a565b612e80565b612a80858c61311e565b52612a8b848b61311e565b50612f4a565b54612a9c828a61311e565b52016129b8565b634e487b7160e01b81526032600452602490fd5b346101bb5760203660031901126101bb576004356001600160401b0381116101bb5761076e612aec6020923690600401612c07565b613d8b565b346101bb5760203660031901126101bb576004356001600160401b0381116101bb57612b236020913690600401612c07565b60405160ff6001835192858181870195612b3e818389612c4e565b810160078152030190200154169182612b5e575b50506040519015158152f35b60ff925083600192612b7b92604051938492839251928391612c4e565b81016007815203019020015460081c16158280612b52565b608081019081106001600160401b0382111761192a57604052565b604081019081106001600160401b0382111761192a57604052565b601f909101601f19168101906001600160401b0382119082101761192a57604052565b6001600160401b03811161192a57601f01601f191660200190565b81601f820112156101bb57803590612c1e82612bec565b92612c2c6040519485612bc9565b828452602083830101116101bb57816000926020809301838601378301015290565b60005b838110612c615750506000910152565b8181015183820152602001612c51565b90602091612c8a81518092818552858086019101612c4e565b601f01601f1916010190565b9080602083519182815201916020808360051b8301019401926000915b838310612cc257505050505090565b9091929394602080612ce0600193601f198682030187528951612c71565b97019301930191939290612cb3565b906020808351928381520192019060005b818110612d0d5750505090565b8251845260209384019390920191600101612d00565b6001600160401b03811161192a5760051b60200190565b9080601f830112156101bb578135612d5181612d23565b92612d5f6040519485612bc9565b81845260208085019260051b820101918383116101bb5760208201905b838210612d8b57505050505090565b81356001600160401b0381116101bb57602091612dad87848094880101612c07565b815201910190612d7c565b9080601f830112156101bb578135612dcf81612d23565b92612ddd6040519485612bc9565b81845260208085019260051b8201019283116101bb57602001905b828210612e055750505090565b8135815260209182019101612df8565b600554811015612e3057600560005260206000200190600090565b634e487b7160e01b600052603260045260246000fd5b90600182811c92168015612e76575b6020831014612e6057565b634e487b7160e01b600052602260045260246000fd5b91607f1691612e55565b9060405191826000825492612e9484612e46565b8084529360018116908115612f025750600114612ebb575b50612eb992500383612bc9565b565b90506000929192526020600020906000915b818310612ee6575050906020612eb99282010138612eac565b6020919350806001915483858901015201910190918492612ecd565b905060209250612eb994915060ff191682840152151560051b82010138612eac565b6020612f3d918160405193828580945193849201612c4e565b8101600781520301902090565b602090612f64928260405194838680955193849201612c4e565b82019081520301902090565b8054821015612e305760005260206000209060021b0190600090565b9080601f830112156101bb57813590612fa482612d23565b92612fb26040519485612bc9565b82845260208085019360051b8201019182116101bb57602001915b818310612fda5750505090565b82356001600160a01b03811681036101bb57815260209283019201612fcd565b9080601f830112156101bb5781359061301282612d23565b926130206040519485612bc9565b82845260208085019360051b8201019182116101bb57602001915b8183106130485750505090565b823580151581036101bb5781526020928301920161303b565b60405190613070602083612bc9565b600080835282815b82811061308457505050565b806060602080938501015201613078565b9061309f82612d23565b6130ac6040519182612bc9565b82815280926130bd601f1991612d23565b019060005b8281106130ce57505050565b8060606020809385010152016130c2565b906130e982612d23565b6130f66040519182612bc9565b8281528092613107601f1991612d23565b0190602036910137565b805115612e305760200190565b8051821015612e305760209160051b010190565b9190820391821161313f57565b634e487b7160e01b600052601160045260246000fd5b90815461316181612d23565b9261316f6040519485612bc9565b818452602084019060005260206000206000915b8383106131905750505050565b60016020819261319f85612e80565b815201920192019190613183565b156131b457565b60405162461bcd60e51b815260206004820152601a60248201527913db9b1e481b585a5b881c1c9bda9958dd0818d85b8818d85b1b60321b6044820152606490fd5b818110613201575050565b600081556001016131f6565b8160011b916000199060031b1c19161790565b929190613237602091604086526040860190612c71565b930152565b1561324357565b60405162461bcd60e51b815260206004820152601260248201527153657373696f6e206e6f742061637469766560701b6044820152606490fd5b1561328457565b60405162461bcd60e51b8152602060048201526011602482015270105b1c9958591e48199a5b985b1a5e9959607a1b6044820152606490fd5b90916132d46132e293604084526040840190612c71565b916020818403910152612c71565b90565b600019811461313f5760010190565b6009549060015b8281111561330b57505050600090565b8060005260086020526133246001604060002001613155565b9260005b84518110156133785761333b818661311e565b5160208151910120845160208601201461335757600101613328565b505061337492506000526008602052600660406000200190612f4a565b5490565b509250613384906132e5565b6132fb565b9190820180921161313f57565b1561339d57565b60405162461bcd60e51b8152602060048201526019602482015278566f74696e672073657373696f6e206e6f742061637469766560381b6044820152606490fd5b156133e557565b606460405162461bcd60e51b815260206004820152602060248201527f566f74696e672073657373696f6e20616c72656164792066696e616c697a65646044820152fd5b1561343057565b60405162461bcd60e51b815260206004820152601c60248201527b416c726561647920766f746564206f6e20746869732073616d706c6560201b6044820152606490fd5b60405190613483604083612bc9565b600f82526e151a5b595bdd5d081c995858da1959608a1b6020830152565b8054600160401b81101561192a576134be91600182018155612f70565b91909161360357805182546001600160a01b0319166001600160a01b03919091161782556020810151805160018401916001600160401b03821161192a576135068354612e46565b601f81116135d1575b50602090601f8311600114613565578260039593606095936135399360009261355a57505061320d565b90555b600284016040820151151560ff801983541691161790550151910155565b015190503880612320565b90601f1983169184600052816000209260005b8181106135b957509260019285926003989660609896106135a1575b505050811b01905561353c565b015160001983891b60f8161c19169055388080613594565b92936020600181928786015181550195019301613578565b6135fd90846000526020600020601f850160051c8101916020861061240357601f0160051c01906131f6565b3861350f565b634e487b7160e01b600052600060045260246000fd5b60405190613628604083612bc9565b601a825279082d8d840ecdee8cae4e640c6dedae0d8cae8cac840c4c2e8c6d60331b6020830152565b1561365857565b60405162461bcd60e51b815260206004820152600f60248201526e098cadccee8d040dad2e6dac2e8c6d608b1b6044820152606490fd5b519081151582036101bb57565b929390946136ad8451875114613651565b60009360005b81518110156136e8576136c6818961311e565b516136d4575b6001016136b3565b946136e06001916132e5565b9590506136cc565b509193949092948015613996576136fe90613095565b9360009360005b845181101561375b57613718818a61311e565b51613726575b600101613705565b94613753600191613737888861311e565b51613742828b61311e565b5261374d818a61311e565b506132e5565b95905061371e565b50959250939250945061376e8251613095565b94836000526008602052604060002093600560009501945b8451811015613836578061379c6001928761311e565b516137aa612a718983612f4a565b8051909190156137d257506137bf828b61311e565b526137ca818a61311e565b505b01613786565b905061381b603060405180936f029b0b6b83632903230ba30903337b9160851b602083015261380a8151809260208686019101612c4e565b81010301601f198101835282612bc9565b613825828b61311e565b52613830818a61311e565b506137cc565b50929093509390936000938151613850575b509493929190565b6138808561385d84613111565b51604051809381926379c4ab1560e01b8352602060048401526024830190612c71565b0381305afa90811561398b578691879188916138e2575b50816138d9575b506138aa575b50613848565b6138b79095929542613132565b908082106138ca5750505b9238806138a4565b6138d49250613132565b6138c2565b9050153861389e565b925050503d8087833e6138f58183612bc9565b8101906080818303126139875780516139106020830161368f565b9261391d6040840161368f565b606084015190936001600160401b03821161397f570181601f820112156139835780519161394a83612bec565b906139586040519283612bc9565b8382526020848401011161397f57906020806139779493019101612c4e565b919038613897565b8a80fd5b8980fd5b8680fd5b6040513d88823e3d90fd5b505050915091506139a5613061565b906139ae613061565b926139b7613061565b9293929160009190565b604051815190602081818501936139d9818387612c4e565b810160068152030190209182546139ef81612d23565b936139fd6040519586612bc9565b818552602085019060005260206000206000915b838310613bc15750505050613a3491602091604051938492839251928391612c4e565b8101600781520301902090805115613b8057613a508151613095565b90600093845b8251811015613ae2576020613a6b828561311e565b510151600060208201815b898110613ab3575b505015613a8f575b50600101613a56565b86613aac91613aa1600194998861311e565b5261374d818761311e565b9590613a86565b613abd818961311e565b51602081519101208451832014613ad657600101613a76565b50505060013880613a7e565b509192939050613af181613095565b90613afb816130df565b94613b05826130df565b94600782019160060160005b848110613b22575050505050929190565b80613b2f6001928561311e565b51613b3a828961311e565b52613b45818861311e565b50613b54836122d3838761311e565b54613b5f828c61311e565b52613b6e856122d3838761311e565b54613b79828b61311e565b5201613b11565b5050613b8a613061565b60405191602091613b9b8385612bc9565b60008452600036813760405192613bb28185612bc9565b60008452506000368137929190565b60046020600192604051613bd481612b93565b848060a01b038654168152613bea858701612e80565b8382015260ff6002870154161515604082015260038601546060820152815201920192019190613a11565b60405190613c24604083612bc9565b600782526631b932b0ba37b960c91b6020830152565b60405190613c49604083612bc9565b600b82526a31b7b73a3934b13aba37b960a91b6020830152565b60405190613c72604083612bc9565b600b82526a31b7b7b93234b730ba37b960a91b6020830152565b60405190613c9b604083612bc9565b600c82526b4e4f5f434f4e53454e53555360a01b6020830152565b60405190613cc5604083612bc9565b60088252674e4f5f564f54455360c01b6020830152565b60405160ff600183519260208181870195613cf8818389612c4e565b81016007815203019020015460081c1615613d4a576002611f2d6020613d2993604051809381928851928391612c4e565b80518015908115613d6e575b508015613d51575b613d4a576132e2916142c7565b5050600090565b5080516020820120613d61613cb6565b6020815191012014613d3d565b90506020820120613d7d613c8c565b602081519101201438613d35565b6002548015613d4a57613db06020613dc0938160405193828580945193849201612c4e565b8101600781520301902054613389565b421190565b906000604051613de760ff6001865193602081818a019661206181838a612c4e565b613e0160ff6001604051602081895161208481838a612c4e565b60016040516020818751613e16818388612c4e565b810160078152030190200160ff19815416905560016040516020818751613e3e818388612c4e565b810160078152030190200161010061ff0019825416179055613e5f8461444f565b9260026040516020818851613e75818389612c4e565b8101600781520301902001845160018060401b03811161420c57613e998254612e46565b601f81116141dc575b506020601f821160011461416057613f52613f6694602094613edf85600499966000805160206145cc833981519152968c91614155575b5061320d565b90555b7f8a0cc662156da5580404150064cc81955de64ef5a8090364795edcbac842999160405180613f138d429083613220565b0390a160405191829160808352613f3e613f318d6080860190612c71565b848103898601528c612c71565b904260408501528382036060850152612c71565b0390a1604051809381928951928391612c4e565b8101600781520301902001548015158061413c575b614019575b50303b1561401657604051632e4bca8f60e11b815290808280613fa78688600484016132bd565b038183305af19182614006575b5050613fbe575050565b7fdabbbde127ef4ac1b0a84891a674bfc7b3ceff8d1e7350abd0f7c48021420d3291613ffb6104b892604051938493606085526060850190612c71565b4260408301520390a1565b8161401091612bc9565b38613fb4565b80fd5b80825260086020526002604083200161403281546132e5565b905580825260086020527f145f86831bf675d553efc81172882ecdb1776f5bdfa7f1b8367ad08b5788874061407e60016040852001548385526008602052600260408620015490613132565b6040518091848252608060208301526140ab61409d608084018a612c71565b838103604085015288612c71565b9060608301520390a1808252600860205260026040832001548183526008602052600160408420015411613f80576060817fcdf3a25ac86d8c6a422a8356f0fb7d6cc09b23caca39fd699cbc6038e558736492845260086020526003604085200160ff198154169055808452600860205260026040852001546040519182526020820152426040820152a138613f80565b50808252600860205260ff600360408420015416613f7b565b90508c015138613ed9565b82865280862090601f198316875b8181106141c45750946020946001856000805160206145cc83398151915295613f529560049b98613f669b106141ab575b5050811b019055613ee2565b8d015160001960f88460031b161c19169055388061419f565b9192602060018192868d01518155019401920161416e565b6142069083875260208720601f840160051c8101916020851061240357601f0160051c01906131f6565b38613ea2565b634e487b7160e01b85526041600452602485fd5b60005260086020526142386001604060002001613155565b8051156142c1576005546000915b81831061425557505050600190565b61425e83612e15565b905460039190911b1c6001600160a01b03169160005b82518110156142b45760ff60406005614290610594858861311e565b01600090878252602052205416156142aa57600101614274565b5050505050600090565b5091509160010191614246565b50600090565b60206142e3919392938160405193828580945193849201612c4e565b8101600681520301902080546142f881612d23565b916143066040519384612bc9565b818352602083019060005260206000206000915b8383106143fb57505050508051156143f45760009081825b8251811015614399576020614347828561311e565b510151602081519101208651602088012014614366575b600101614332565b90614370906132e5565b90604061437d828561311e565b5101511561435e57926143916001916132e5565b93905061435e565b50909192935080156143ec5782146143b2575050600090565b5160648202918083046064149015171561313f5780156143d6576001549104101590565b634e487b7160e01b600052601260045260246000fd5b505050600090565b5060009150565b6004602060019260405161440e81612b93565b848060a01b038654168152614424858701612e80565b8382015260ff600287015416151560408201526003860154606082015281520192019201919061431a565b6060906040518151906020818185019361446a818387612c4e565b8101600681520301902080549061448082612d23565b9461448e6040519687612bc9565b82865260208601916000526020600020906000925b84841061457857505050505082511561456d5760206144d091600793604051938492839251928391612c4e565b810184815203019020016020926040516144eb602082612bc9565b600081529260009160005b825181101561455057604061450b828561311e565b51015161451b575b6001016144f6565b86614526828561311e565b5101516145338682612f4a565b54858111614543575b5050614513565b909650935060013861453c565b509450505050805115156000146145645790565b506132e2613c8c565b5050506132e2613cb6565b6004602060019260405161458b81612b93565b848060a01b0387541681526145a1858801612e80565b8382015260ff600288015416151560408201526003870154868201528152019301930192916144a356fea8e1279888c174a6fbf4fd42a8be4469b313be30a5edac87aff45c5f8a450deb2579d0860b48f37c239a6db657bad6560c277bbce0a8a989d70227407fc62e06a2646970667358221220422432f06c24f30b0e7aa4b3d134352015744e561b16b9235ca828c078e85bc064736f6c634300081c0033",
  "linkReferences": {},
  "deployedLinkReferences": {}
}