{
  "_format": "hh-sol-artifact-1",
  "contractName": "ALProjectVoting",
  "sourceName": "contracts/ALProjectVoting.sol",
  "abi": [
    {
      "inputs": [
        {
          "internalType": "address",
          "name": "_project",
          "type": "address"
        },
        {
          "internalType": "string",
          "name": "_votingConsensus",
          "type": "string"
        },
        {
          "internalType": "uint256",
          "name": "_votingTimeoutSeconds",
          "type": "uint256"
        }
      ],
      "stateMutability": "nonpayable",
      "type": "constructor"
    },
    {
      "anonymous": false,
      "inputs": [
        {
          "indexed": false,
          "internalType": "uint256",
          "name": "round",
          "type": "uint256"
        },
        {
          "indexed": false,
          "internalType": "uint256",
          "name": "completedSamples",
          "type": "uint256"
        },
        {
          "indexed": false,
          "internalType": "uint256",
          "name": "timestamp",
          "type": "uint256"
        }
      ],
      "name": "BatchCompleted",
      "type": "event"
    },
    {
      "anonymous": false,
      "inputs": [
        {
          "indexed": false,
          "internalType": "uint256",
          "name": "round",
          "type": "uint256"
        },
        {
          "indexed": false,
          "internalType": "string",
          "name": "sampleId",
          "type": "string"
        },
        {
          "indexed": false,
          "internalType": "string",
          "name": "finalLabel",
          "type": "string"
        },
        {
          "indexed": false,
          "internalType": "uint256",
          "name": "remainingSamples",
          "type": "uint256"
        }
      ],
      "name": "BatchSampleCompleted",
      "type": "event"
    },
    {
      "anonymous": false,
      "inputs": [
        {
          "indexed": false,
          "internalType": "uint256",
          "name": "round",
          "type": "uint256"
        },
        {
          "indexed": false,
          "internalType": "string[]",
          "name": "sampleIds",
          "type": "string[]"
        },
        {
          "indexed": false,
          "internalType": "uint256",
          "name": "startTime",
          "type": "uint256"
        }
      ],
      "name": "BatchStarted",
      "type": "event"
    },
    {
      "anonymous": false,
      "inputs": [
        {
          "indexed": false,
          "internalType": "string",
          "name": "sampleId",
          "type": "string"
        },
        {
          "indexed": false,
          "internalType": "string",
          "name": "label",
          "type": "string"
        }
      ],
      "name": "ConsensusReached",
      "type": "event"
    },
    {
      "anonymous": false,
      "inputs": [
        {
          "indexed": false,
          "internalType": "string",
          "name": "sampleId",
          "type": "string"
        },
        {
          "indexed": false,
          "internalType": "string",
          "name": "finalLabel",
          "type": "string"
        },
        {
          "indexed": false,
          "internalType": "uint256",
          "name": "timestamp",
          "type": "uint256"
        }
      ],
      "name": "LabelStoredInProject",
      "type": "event"
    },
    {
      "anonymous": false,
      "inputs": [
        {
          "indexed": false,
          "internalType": "string",
          "name": "sampleId",
          "type": "string"
        },
        {
          "indexed": false,
          "internalType": "uint256",
          "name": "endTime",
          "type": "uint256"
        }
      ],
      "name": "TimeoutReached",
      "type": "event"
    },
    {
      "anonymous": false,
      "inputs": [
        {
          "indexed": false,
          "internalType": "string",
          "name": "sampleId",
          "type": "string"
        },
        {
          "indexed": true,
          "internalType": "address",
          "name": "voter",
          "type": "address"
        },
        {
          "indexed": false,
          "internalType": "string",
          "name": "label",
          "type": "string"
        },
        {
          "indexed": false,
          "internalType": "bool",
          "name": "support",
          "type": "bool"
        },
        {
          "indexed": false,
          "internalType": "uint256",
          "name": "timestamp",
          "type": "uint256"
        }
      ],
      "name": "VoteSubmitted",
      "type": "event"
    },
    {
      "anonymous": false,
      "inputs": [
        {
          "indexed": false,
          "internalType": "string",
          "name": "sampleId",
          "type": "string"
        },
        {
          "indexed": false,
          "internalType": "uint256",
          "name": "endTime",
          "type": "uint256"
        }
      ],
      "name": "VotingSessionEnded",
      "type": "event"
    },
    {
      "anonymous": false,
      "inputs": [
        {
          "indexed": false,
          "internalType": "string",
          "name": "sampleId",
          "type": "string"
        },
        {
          "indexed": false,
          "internalType": "string",
          "name": "finalLabel",
          "type": "string"
        },
        {
          "indexed": false,
          "internalType": "uint256",
          "name": "endTime",
          "type": "uint256"
        },
        {
          "indexed": false,
          "internalType": "string",
          "name": "reason",
          "type": "string"
        }
      ],
      "name": "VotingSessionFinalized",
      "type": "event"
    },
    {
      "anonymous": false,
      "inputs": [
        {
          "indexed": false,
          "internalType": "string",
          "name": "sampleId",
          "type": "string"
        },
        {
          "indexed": false,
          "internalType": "uint256",
          "name": "startTime",
          "type": "uint256"
        }
      ],
      "name": "VotingSessionStarted",
      "type": "event"
    },
    {
      "inputs": [
        {
          "internalType": "uint256",
          "name": "",
          "type": "uint256"
        }
      ],
      "name": "batches",
      "outputs": [
        {
          "internalType": "uint256",
          "name": "round",
          "type": "uint256"
        },
        {
          "internalType": "uint256",
          "name": "completedCount",
          "type": "uint256"
        },
        {
          "internalType": "bool",
          "name": "isActive",
          "type": "bool"
        },
        {
          "internalType": "uint256",
          "name": "startTime",
          "type": "uint256"
        }
      ],
      "stateMutability": "view",
      "type": "function"
    },
    {
      "inputs": [
        {
          "internalType": "string",
          "name": "sampleId",
          "type": "string"
        }
      ],
      "name": "checkAndFinalizeTimeout",
      "outputs": [],
      "stateMutability": "nonpayable",
      "type": "function"
    },
    {
      "inputs": [
        {
          "internalType": "string[]",
          "name": "allSampleIds",
          "type": "string[]"
        },
        {
          "internalType": "bool[]",
          "name": "sampleActiveStates",
          "type": "bool[]"
        },
        {
          "internalType": "string[]",
          "name": "labelSpace",
          "type": "string[]"
        },
        {
          "internalType": "uint256",
          "name": "votingTimeout",
          "type": "uint256"
        },
        {
          "internalType": "uint256",
          "name": "_currentRound",
          "type": "uint256"
        }
      ],
      "name": "computeActiveBatch",
      "outputs": [
        {
          "internalType": "string[]",
          "name": "activeSampleIds",
          "type": "string[]"
        },
        {
          "internalType": "string[]",
          "name": "sampleData",
          "type": "string[]"
        },
        {
          "internalType": "string[]",
          "name": "labelOptions",
          "type": "string[]"
        },
        {
          "internalType": "uint256",
          "name": "timeRemaining",
          "type": "uint256"
        },
        {
          "internalType": "uint256",
          "name": "round",
          "type": "uint256"
        }
      ],
      "stateMutability": "view",
      "type": "function"
    },
    {
      "inputs": [
        {
          "internalType": "uint256",
          "name": "round",
          "type": "uint256"
        },
        {
          "internalType": "string[]",
          "name": "sampleIds",
          "type": "string[]"
        },
        {
          "internalType": "bool[]",
          "name": "sampleActiveStates",
          "type": "bool[]"
        }
      ],
      "name": "computeBatchProgress",
      "outputs": [
        {
          "internalType": "uint256",
          "name": "_round",
          "type": "uint256"
        },
        {
          "internalType": "uint256",
          "name": "totalSamples",
          "type": "uint256"
        },
        {
          "internalType": "uint256",
          "name": "activeSamplesCount",
          "type": "uint256"
        },
        {
          "internalType": "uint256",
          "name": "completedSamples",
          "type": "uint256"
        },
        {
          "internalType": "string[]",
          "name": "_sampleIds",
          "type": "string[]"
        },
        {
          "internalType": "bool",
          "name": "batchActive",
          "type": "bool"
        }
      ],
      "stateMutability": "pure",
      "type": "function"
    },
    {
      "inputs": [
        {
          "internalType": "address[]",
          "name": "participants",
          "type": "address[]"
        },
        {
          "internalType": "string[]",
          "name": "roles",
          "type": "string[]"
        },
        {
          "internalType": "uint256[]",
          "name": "weights",
          "type": "uint256[]"
        }
      ],
      "name": "computeEligibleVoters",
      "outputs": [
        {
          "internalType": "address[]",
          "name": "voters",
          "type": "address[]"
        },
        {
          "internalType": "uint256[]",
          "name": "eligibleWeights",
          "type": "uint256[]"
        }
      ],
      "stateMutability": "pure",
      "type": "function"
    },
    {
      "inputs": [],
      "name": "consensusThreshold",
      "outputs": [
        {
          "internalType": "uint256",
          "name": "",
          "type": "uint256"
        }
      ],
      "stateMutability": "view",
      "type": "function"
    },
    {
      "inputs": [],
      "name": "currentRound",
      "outputs": [
        {
          "internalType": "uint256",
          "name": "",
          "type": "uint256"
        }
      ],
      "stateMutability": "view",
      "type": "function"
    },
    {
      "inputs": [
        {
          "internalType": "uint256",
          "name": "round",
          "type": "uint256"
        }
      ],
      "name": "endBatchVoting",
      "outputs": [],
      "stateMutability": "nonpayable",
      "type": "function"
    },
    {
      "inputs": [
        {
          "internalType": "uint256",
          "name": "round",
          "type": "uint256"
        }
      ],
      "name": "getBatchSamples",
      "outputs": [
        {
          "internalType": "string[]",
          "name": "",
          "type": "string[]"
        }
      ],
      "stateMutability": "view",
      "type": "function"
    },
    {
      "inputs": [
        {
          "internalType": "uint256",
          "name": "round",
          "type": "uint256"
        }
      ],
      "name": "getBatchStatus",
      "outputs": [
        {
          "internalType": "bool",
          "name": "isActive",
          "type": "bool"
        },
        {
          "internalType": "uint256",
          "name": "totalSamples",
          "type": "uint256"
        },
        {
          "internalType": "uint256",
          "name": "completedSamples",
          "type": "uint256"
        },
        {
          "internalType": "uint256",
          "name": "remainingSamples",
          "type": "uint256"
        },
        {
          "internalType": "uint256",
          "name": "startTime",
          "type": "uint256"
        }
      ],
      "stateMutability": "view",
      "type": "function"
    },
    {
      "inputs": [],
      "name": "getCurrentBatchProgress",
      "outputs": [
        {
          "internalType": "uint256",
          "name": "round",
          "type": "uint256"
        },
        {
          "internalType": "bool",
          "name": "isActive",
          "type": "bool"
        },
        {
          "internalType": "uint256",
          "name": "totalSamples",
          "type": "uint256"
        },
        {
          "internalType": "uint256",
          "name": "completedSamples",
          "type": "uint256"
        },
        {
          "internalType": "string[]",
          "name": "sampleIds",
          "type": "string[]"
        }
      ],
      "stateMutability": "view",
      "type": "function"
    },
    {
      "inputs": [
        {
          "internalType": "string",
          "name": "sampleId",
          "type": "string"
        }
      ],
      "name": "getFinalLabel",
      "outputs": [
        {
          "internalType": "string",
          "name": "",
          "type": "string"
        }
      ],
      "stateMutability": "view",
      "type": "function"
    },
    {
      "inputs": [],
      "name": "getVoterList",
      "outputs": [
        {
          "components": [
            {
              "internalType": "address",
              "name": "addr",
              "type": "address"
            },
            {
              "internalType": "uint256",
              "name": "weight",
              "type": "uint256"
            }
          ],
          "internalType": "struct ALProjectVoting.Voter[]",
          "name": "",
          "type": "tuple[]"
        }
      ],
      "stateMutability": "view",
      "type": "function"
    },
    {
      "inputs": [
        {
          "internalType": "string",
          "name": "sampleId",
          "type": "string"
        }
      ],
      "name": "getVotes",
      "outputs": [
        {
          "components": [
            {
              "internalType": "address",
              "name": "voter",
              "type": "address"
            },
            {
              "internalType": "string",
              "name": "label",
              "type": "string"
            },
            {
              "internalType": "bool",
              "name": "support",
              "type": "bool"
            },
            {
              "internalType": "uint256",
              "name": "timestamp",
              "type": "uint256"
            }
          ],
          "internalType": "struct ALProjectVoting.Vote[]",
          "name": "",
          "type": "tuple[]"
        }
      ],
      "stateMutability": "view",
      "type": "function"
    },
    {
      "inputs": [
        {
          "internalType": "string",
          "name": "sampleId",
          "type": "string"
        }
      ],
      "name": "getVotingDistribution",
      "outputs": [
        {
          "internalType": "string[]",
          "name": "labels",
          "type": "string[]"
        },
        {
          "internalType": "uint256[]",
          "name": "voteCounts",
          "type": "uint256[]"
        },
        {
          "internalType": "uint256[]",
          "name": "voteWeights",
          "type": "uint256[]"
        }
      ],
      "stateMutability": "view",
      "type": "function"
    },
    {
      "inputs": [
        {
          "internalType": "string",
          "name": "sampleId",
          "type": "string"
        }
      ],
      "name": "getVotingResult",
      "outputs": [
        {
          "internalType": "bool",
          "name": "isFinalized",
          "type": "bool"
        },
        {
          "internalType": "string",
          "name": "finalLabel",
          "type": "string"
        },
        {
          "internalType": "uint256",
          "name": "totalVotes",
          "type": "uint256"
        },
        {
          "internalType": "uint256",
          "name": "votedCount",
          "type": "uint256"
        }
      ],
      "stateMutability": "view",
      "type": "function"
    },
    {
      "inputs": [
        {
          "internalType": "string",
          "name": "sampleId",
          "type": "string"
        }
      ],
      "name": "getVotingSession",
      "outputs": [
        {
          "internalType": "uint256",
          "name": "startTime",
          "type": "uint256"
        },
        {
          "internalType": "bool",
          "name": "isActive",
          "type": "bool"
        },
        {
          "internalType": "bool",
          "name": "isFinalized",
          "type": "bool"
        },
        {
          "internalType": "string",
          "name": "finalLabel",
          "type": "string"
        }
      ],
      "stateMutability": "view",
      "type": "function"
    },
    {
      "inputs": [
        {
          "internalType": "string",
          "name": "sampleId",
          "type": "string"
        }
      ],
      "name": "getVotingSessionStatus",
      "outputs": [
        {
          "internalType": "bool",
          "name": "isActive",
          "type": "bool"
        },
        {
          "internalType": "bool",
          "name": "isFinalized",
          "type": "bool"
        },
        {
          "internalType": "string",
          "name": "finalLabel",
          "type": "string"
        },
        {
          "internalType": "uint256",
          "name": "startTime",
          "type": "uint256"
        },
        {
          "internalType": "uint256",
          "name": "timeRemaining",
          "type": "uint256"
        },
        {
          "internalType": "uint256",
          "name": "votedCount",
          "type": "uint256"
        },
        {
          "internalType": "uint256",
          "name": "totalVoters",
          "type": "uint256"
        }
      ],
      "stateMutability": "view",
      "type": "function"
    },
    {
      "inputs": [
        {
          "internalType": "string",
          "name": "sampleId",
          "type": "string"
        },
        {
          "internalType": "address",
          "name": "user",
          "type": "address"
        }
      ],
      "name": "hasUserVoted",
      "outputs": [
        {
          "internalType": "bool",
          "name": "",
          "type": "bool"
        }
      ],
      "stateMutability": "view",
      "type": "function"
    },
    {
      "inputs": [
        {
          "internalType": "string",
          "name": "sampleId",
          "type": "string"
        }
      ],
      "name": "isTimeoutReached",
      "outputs": [
        {
          "internalType": "bool",
          "name": "",
          "type": "bool"
        }
      ],
      "stateMutability": "view",
      "type": "function"
    },
    {
      "inputs": [
        {
          "internalType": "string",
          "name": "sampleId",
          "type": "string"
        }
      ],
      "name": "isVotingActive",
      "outputs": [
        {
          "internalType": "bool",
          "name": "",
          "type": "bool"
        }
      ],
      "stateMutability": "view",
      "type": "function"
    },
    {
      "inputs": [
        {
          "internalType": "string",
          "name": "sampleId",
          "type": "string"
        },
        {
          "internalType": "string",
          "name": "finalLabel",
          "type": "string"
        }
      ],
      "name": "notifyMainContractExternal",
      "outputs": [],
      "stateMutability": "nonpayable",
      "type": "function"
    },
    {
      "inputs": [],
      "name": "project",
      "outputs": [
        {
          "internalType": "address",
          "name": "",
          "type": "address"
        }
      ],
      "stateMutability": "view",
      "type": "function"
    },
    {
      "inputs": [
        {
          "internalType": "address[]",
          "name": "_voters",
          "type": "address[]"
        },
        {
          "internalType": "uint256[]",
          "name": "_weights",
          "type": "uint256[]"
        }
      ],
      "name": "setVoters",
      "outputs": [],
      "stateMutability": "nonpayable",
      "type": "function"
    },
    {
      "inputs": [
        {
          "internalType": "string[]",
          "name": "sampleIds",
          "type": "string[]"
        },
        {
          "internalType": "uint256",
          "name": "round",
          "type": "uint256"
        }
      ],
      "name": "startBatchVoting",
      "outputs": [],
      "stateMutability": "nonpayable",
      "type": "function"
    },
    {
      "inputs": [
        {
          "internalType": "string[]",
          "name": "sampleIds",
          "type": "string[]"
        },
        {
          "internalType": "string[]",
          "name": "labels",
          "type": "string[]"
        },
        {
          "internalType": "bool[]",
          "name": "support",
          "type": "bool[]"
        }
      ],
      "name": "submitBatchVote",
      "outputs": [],
      "stateMutability": "nonpayable",
      "type": "function"
    },
    {
      "inputs": [
        {
          "internalType": "string[]",
          "name": "sampleIds",
          "type": "string[]"
        },
        {
          "internalType": "string[]",
          "name": "labels",
          "type": "string[]"
        },
        {
          "internalType": "address",
          "name": "voter",
          "type": "address"
        }
      ],
      "name": "submitBatchVoteOnBehalf",
      "outputs": [],
      "stateMutability": "nonpayable",
      "type": "function"
    },
    {
      "inputs": [
        {
          "internalType": "uint256",
          "name": "",
          "type": "uint256"
        }
      ],
      "name": "voterList",
      "outputs": [
        {
          "internalType": "address",
          "name": "",
          "type": "address"
        }
      ],
      "stateMutability": "view",
      "type": "function"
    },
    {
      "inputs": [
        {
          "internalType": "address",
          "name": "",
          "type": "address"
        }
      ],
      "name": "voterWeights",
      "outputs": [
        {
          "internalType": "uint256",
          "name": "",
          "type": "uint256"
        }
      ],
      "stateMutability": "view",
      "type": "function"
    },
    {
      "inputs": [
        {
          "internalType": "string",
          "name": "",
          "type": "string"
        },
        {
          "internalType": "uint256",
          "name": "",
          "type": "uint256"
        }
      ],
      "name": "votes",
      "outputs": [
        {
          "internalType": "address",
          "name": "voter",
          "type": "address"
        },
        {
          "internalType": "string",
          "name": "label",
          "type": "string"
        },
        {
          "internalType": "bool",
          "name": "support",
          "type": "bool"
        },
        {
          "internalType": "uint256",
          "name": "timestamp",
          "type": "uint256"
        }
      ],
      "stateMutability": "view",
      "type": "function"
    },
    {
      "inputs": [],
      "name": "votingConsensus",
      "outputs": [
        {
          "internalType": "string",
          "name": "",
          "type": "string"
        }
      ],
      "stateMutability": "view",
      "type": "function"
    },
    {
      "inputs": [
        {
          "internalType": "string",
          "name": "",
          "type": "string"
        }
      ],
      "name": "votingSessions",
      "outputs": [
        {
          "internalType": "uint256",
          "name": "startTime",
          "type": "uint256"
        },
        {
          "internalType": "bool",
          "name": "isActive",
          "type": "bool"
        },
        {
          "internalType": "bool",
          "name": "isFinalized",
          "type": "bool"
        },
        {
          "internalType": "string",
          "name": "finalLabel",
          "type": "string"
        },
        {
          "internalType": "uint256",
          "name": "totalVoters",
          "type": "uint256"
        },
        {
          "internalType": "uint256",
          "name": "round",
          "type": "uint256"
        }
      ],
      "stateMutability": "view",
      "type": "function"
    },
    {
      "inputs": [],
      "name": "votingTimeoutSeconds",
      "outputs": [
        {
          "internalType": "uint256",
          "name": "",
          "type": "uint256"
        }
      ],
      "stateMutability": "view",
      "type": "function"
    }
  ],
  "bytecode": "0x608060405234610297576143e6803803806100198161029c565b9283398101906060818303126102975780516001600160a01b03811691908290036102975760208101516001600160401b03811161029757810183601f82011215610297578051906001600160401b03821161023557610082601f8301601f191660200161029c565b94828652602083830101116102975760005b82811061028257505060009084016020015260400151603360015590801561024b57600080546001600160a01b03191691909117905581516001600160401b03811161023557600354600181811c9116801561022b575b602082101461021557601f81116101b0575b50602092601f821160011461014b5792819293600092610140575b50508160011b916000199060031b1c1916176003555b60025560405161412490816102c28239f35b015190503880610118565b601f198216936003600052806000209160005b868110610198575083600195961061017f575b505050811b0160035561012e565b015160001960f88460031b161c19169055388080610171565b9192602060018192868501518155019401920161015e565b60036000527fc2575a0e9e593c00f959f8c92f12db2869c3395a3b0502d05e2516446f71f85b601f830160051c8101916020841061020b575b601f0160051c01905b8181106101ff57506100fd565b600081556001016101f2565b90915081906101e9565b634e487b7160e01b600052602260045260246000fd5b90607f16906100eb565b634e487b7160e01b600052604160045260246000fd5b60405162461bcd60e51b815260206004820152600f60248201526e496e76616c6964206164647265737360881b6044820152606490fd5b80602080928401015182828901015201610094565b600080fd5b6040519190601f01601f191682016001600160401b038111838210176102355760405256fe6080604052600436101561001257600080fd5b6000803560e01c806304574fe8146125c357806326a0613a1461257e5780632d1bbc8e1461251a578063367cb924146123b65780634149738514612327578063414f8e76146122ea578063428f83381461229c57806350e2e8af1461225857806355d389a4146121755780635c97951e146120355780636042ad6114611f7857806368acb1ab14611f3657806372678fcc14611dd357806375c255fc14611bb357806379c4ab1514611b2d578063805265e5146119d25780638520eb78146119665780638a19c8bc146119485780639a6e81ab146115c7578063a58df19a146115a9578063a76fd84e146114a4578063ab40d3ba146113d4578063b28d92ae1461129a578063b32c4d8d14611248578063b49c447e146111d3578063b8c390341461107a578063cdbf3d0114610d8d578063db7cde8b14610c6f578063e7dc0d101461069b578063f02a0f7514610283578063f18a5cec146101cf578063f60ca60d146101a85763f9b0b5b91461018857600080fd5b346101a557806003193601126101a5576020600154604051908152f35b80fd5b50346101a557806003193601126101a557546040516001600160a01b039091168152602090f35b50346101a55760203660031901126101a557600435906001600160401b0382116101a557610218602061020536600486016126f0565b816040519382858094519384920161273c565b810160078152030190208054600182015491610236600282016127ef565b610274600460038401549301549160ff60405196879687528181161515602088015260081c161515604086015260c0606086015260c085019061275f565b91608084015260a08301520390f35b50346101a55760603660031901126101a5576004356001600160401b038111610697576102b4903690600401612a10565b906024356001600160401b038111610697576102d4903690600401612a10565b6044356001600160401b038111610693576102f3903690600401612a8e565b33835260046020526040832054156106555783518251036106105783518151036105cc57913390805b85518110156105c8578061033260019288612ce5565b5161033d8287612ce5565b516103488389612ce5565b5115159060405161037c60ff87865193602081818a019661036a81838a61273c565b81016007815203019020015416612cf9565b6103ab60ff87604051602081895161039581838a61273c565b81016007815203019020015460081c1615612d41565b6103e360ff6040600581516020818a516103c681838b61273c565b81016007815203019020016000908c825260205220541615612d8c565b6103ec84613679565b6105b457906000805160206140cf83398151915291610448604051602081885161041781838861273c565b810160068152030190206040519061042e82612666565b338252846020830152866040830152426060830152612e17565b836040600581516020818a5161045f81838a61273c565b81016007815203019020016000908c8252602052208860ff19825416179055610533575b506104aa604051916080835261049c608084018761275f565b90838203602085015261275f565b9260408201524260608201528033930390a26104c581613afe565b805115610506576000805160206140af833981519152916104ed6104e7612fb9565b826136ba565b6104fc60405192839283612be9565b0390a15b0161031c565b5061051081613caf565b61051b575b50610500565b61052d90610527612f84565b906136ba565b38610515565b61055c6006604051602081895161054b81838961273c565b810160078152030190200183612893565b6105668154612c76565b905533885260046020526105ac6105a46007610594602060408d205495604051809381928d5192839161273c565b8101848152030190200184612893565b918254612c69565b905538610483565b5050506105c390610527612dd7565b610500565b5080f35b606460405162461bcd60e51b815260206004820152602060248201527f4d69736d6174636865642073616d706c6549647320616e6420737570706f72746044820152fd5b60405162461bcd60e51b815260206004820152601f60248201527f4d69736d6174636865642073616d706c6549647320616e64206c6162656c73006044820152606490fd5b60405162461bcd60e51b81526020600482015260166024820152752737ba1030903932b3b4b9ba32b932b2103b37ba32b960511b6044820152606490fd5b8280fd5b5080fd5b50346101a55760403660031901126101a5576004356001600160401b038111610697576106cc903690600401612a10565b6024356106e360018060a01b038454163314612c85565b815115610c3557808352600860205260ff600360408520015416610be4578083526008602052806040842055808352600860205260016040842001825190600160401b8211610bd0578054828255808310610b5a575b5084526020808520859185015b838310610a3557505050508083526008602052826002604082200155808352600860205260036040842001600160ff19825416179055808352600860205242600460408520015580600955825b82518110156109e9576107a68184612ce5565b516040519060ff6001825193602081818601966107c481838a61273c565b8101600781520301902001541661099a5760ff600160405160208185516107ec81838a61273c565b81016007815203019020015460081c1661095a578360046108b060208995604051865161081a81838561273c565b8101906007825283814293030190205560016040518381895161083e81838861273c565b8101600781520301902001600160ff1982541617905560016040518381895161086881838861273c565b810160078152030190200161ff00198154169055600554600360405184818a5161089381838961273c565b81016007815203019020015560405180938192885192839161273c565b8101600781520301902001557f1a6063ea5a85373503082e9047ebbde10c2ef86a0029b81921668e4a2ea190e3604051806108ec428583612bcd565b0390a181546001600160a01b0316803b156106935760405163b2be4d6560e01b815260206004820152918391839182908490829061092e90602483019061275f565b03925af1610941575b5050600101610793565b8161094b916126b2565b610956578338610937565b8380fd5b60405162461bcd60e51b815260206004820152601860248201527714d85b5c1b1948185b1c9958591e48199a5b985b1a5e995960421b6044820152606490fd5b60405162461bcd60e51b815260206004820152602160248201527f53616d706c6520616c726561647920686173206163746976652073657373696f6044820152603760f91b6064820152608490fd5b50907f915b7f3f33ca682a46c0a82bcae59307624896b80801e6ea2c6e702a10499ece91610a2960405192839283526060602084015260608301906128d5565b4260408301520390a180f35b80518051906001600160401b038211610b4657610a5284546127b5565b601f8111610b0b575b5060209089601f8411600114610aa1578360019592946020948796610a879492610a96575b5050612e04565b85555b01920192019190610746565b015190503880610a80565b50848a52818a209190601f1984168b5b818110610af35750936020936001969387969383889510610ada575b505050811b018555610a8a565b015160001960f88460031b161c19169055388080610acd565b92936020600181928786015181550195019301610ab1565b610b3690858b5260208b20601f850160051c81019160208610610b3c575b601f0160051c0190612cce565b38610a5b565b9091508190610b29565b634e487b7160e01b89526041600452602489fd5b818652826020872091820191015b818110610b755750610739565b80610b82600192546127b5565b80610b8f575b5001610b68565b601f81118314610ba457508781555b38610b88565b81895260208920610bbf91601f0160051c8101908401612cce565b808852876020812081835555610b9e565b634e487b7160e01b85526041600452602485fd5b60405162461bcd60e51b815260206004820152602360248201527f426174636820616c72656164792061637469766520666f72207468697320726f6044820152621d5b9960ea1b6064820152608490fd5b60405162461bcd60e51b815260206004820152601260248201527108adae0e8f240e6c2dae0d8ca40c4c2e8c6d60731b6044820152606490fd5b50346101a55760203660031901126101a5576004356001600160401b03811161069757610ca09036906004016126f0565b60405181519060208181850193610cb881838761273c565b8101600781520301902090836005549060058401905b828110610d40575050506002610d006020610d129360ff600187015460081c169660405193849283925192839161273c565b810160068152030190205492016127ef565b92610d316040519485941515855260806020860152608085019061275f565b91604084015260608301520390f35b60ff6040610d4d83612784565b905460039190911b1c6001600160a01b031660009081526020859052205416610d79575b600101610cce565b95610d85600191612c76565b969050610d71565b50346101a55760603660031901126101a5576004356001600160401b03811161069757610dbe903690600401612945565b6024356001600160401b03811161069357610ddd903690600401612a10565b6044356001600160401b03811161095657610dfc9036906004016129b3565b92825182510361102a578251845103610fd9578093815b8451811015610e8e57610e268185612ce5565b5160208151910120610e3661362b565b60208151910120148015610e66575b610e52575b600101610e13565b94610e5e600191612c76565b959050610e4a565b50610e718185612ce5565b5160208151910120610e81613650565b6020815191012014610e45565b509092610e9a8561292e565b90610ea860405192836126b2565b858252610ec9610eb78761292e565b602084019790601f190136893761339f565b938596865b8351811015610f7f57610ee18184612ce5565b5160208151910120610ef161362b565b60208151910120148015610f57575b610f0d575b600101610ece565b97600190610f4f906001600160a01b03610f278c88612ce5565b5116610f338289612ce5565b52610f3e8b89612ce5565b51610f49828b612ce5565b52612c76565b989050610f05565b50610f628184612ce5565b5160208151910120610f72613650565b6020815191012014610f00565b5083868860405192604084019060408552518091526060840194915b818110610fba578480610fb688878382036020850152612af5565b0390f35b82516001600160a01b0316865260209586019590920191600101610f9b565b60405162461bcd60e51b8152602060048201526024808201527f5061727469636970616e74732f77656967687473206c656e677468206d69736d6044820152630c2e8c6d60e31b6064820152608490fd5b60405162461bcd60e51b815260206004820152602260248201527f5061727469636970616e74732f726f6c6573206c656e677468206d69736d61746044820152610c6d60f31b6064820152608490fd5b50346101a55760203660031901126101a5576004356110a360018060a01b038354163314612c85565b808252600860205260ff6003604084200154161561119b57815260086020526110d160016040832001612c11565b815b815181101561119757806110e960019284612ce5565b5160405160ff848351926020818187019561110581838961273c565b810160078152030190200154169081611164575b50611126575b50016110d3565b61115e90604090611139825192836126b2565b60138252724d616e75616c20626174636820656e64696e6760681b60208301526136ba565b3861111f565b60ff91506111806020869260405180938192885192839161273c565b81016007815203019020015460081c161538611119565b8280f35b60405162461bcd60e51b815260206004820152601060248201526f4261746368206e6f742061637469766560801b6044820152606490fd5b50346101a55760203660031901126101a557600435906001600160401b0382116101a55761122c61123a610fb661121561121036600488016126f0565b6133d1565b9193906040519586956060875260608701906128d5565b908582036020870152612af5565b908382036040850152612af5565b50346101a55760203660031901126101a55760406080916004358152600860205220805490600281015490600460ff600383015416910154916040519384526020840152151560408301526060820152f35b50346101a557806003193601126101a5576005546112b78161292e565b906112c560405192836126b2565b808252601f196112d48261292e565b01835b8181106113b1575050825b818110611344578284604051918291602083016020845282518091526020604085019301915b818110611316575050500390f35b825180516001600160a01b031685526020908101518186015286955060409094019390920191600101611308565b80611350600192612784565b838060a01b0391549060031b1c1661136782612784565b848060a01b0391549060031b1c168652600460205260408620546040519161138e83612697565b8252602082015261139f8286612ce5565b526113aa8185612ce5565b50016112e2565b6020906040516113c081612697565b8681528683820152828287010152016112d7565b50346101a55760a03660031901126101a5576004356001600160401b03811161069757611405903690600401612a10565b6024356001600160401b03811161069357611424903690600401612a8e565b91604435906001600160401b0382116101a55761147961149561148761145f87876114523660048a01612a10565b60843592606435926130b1565b93959260409591955197889760a0895260a08901906128d5565b9087820360208901526128d5565b9085820360408701526128d5565b91606084015260808301520390f35b50346101a55760603660031901126101a5576024356001600160401b038111610697576114d5903690600401612a10565b6044356001600160401b038111610693576114f4903690600401612a8e565b916115028251845114612fe8565b80805b8351821015611556576115188286612ce5565b511561153257611529600191612c76565b915b0190611505565b908351611542575b60019061152b565b9161154e600191612c76565b92905061153a565b835183811515868161159f575b6115939192604051958695600435875260208701526040860152606085015260c0608085015260c08401906128d5565b90151560a08301520390f35b8415159150611563565b50346101a557806003193601126101a5576020600254604051908152f35b50346101a55760603660031901126101a5576004356001600160401b038111610697576115f8903690600401612a10565b6024356001600160401b03811161069357611617903690600401612a10565b6044356001600160a01b038116908190036109565761164060018060a01b038554163314612c85565b825182510361190f578251156118dc5780845260046020526040842054156118a057835b835181101561189c578061167a60019286612ce5565b51836116868387612ce5565b516040516116a560ff87865193602081818a019661036a81838a61273c565b6116be60ff87604051602081895161039581838a61273c565b6116f660ff6040600581516020818a516116d981838b61273c565b810160078152030190200160009087825260205220541615612d8c565b8961170085613679565b6118875791816117f46105a46007610594602060406000805160206140cf833981519152996117cc60066117bc8f8f9d879161180d9f8f9061177b8a9283518781875161174e81838c61273c565b81018c81520301902084519161176383612666565b84835288830152600185830152426060830152612e17565b600582518681865161178e81838b61273c565b81016007815203019020016000918252855220600160ff19825416179055875193849283925192839161273c565b81018a815203019020018a612893565b6117d68154612c76565b90558b8152600483522054958b60405193849283925192839161273c565b90556040519182916080835261049c608084018861275f565b8760408301524260608301520390a261182581613afe565b805115611860576000805160206140af833981519152916118476104e7612fb9565b61185660405192839283612be9565b0390a15b01611664565b5061186a81613caf565b611875575b5061185a565b61188190610527612f84565b3861186f565b5050505061189790610527612dd7565b61185a565b8480f35b60405162461bcd60e51b8152602060048201526014602482015273159bdd195c881b9bdd081c9959da5cdd195c995960621b6044820152606490fd5b60405162461bcd60e51b815260206004820152600b60248201526a08adae0e8f240c4c2e8c6d60ab1b6044820152606490fd5b60405162461bcd60e51b81526020600482015260116024820152704d69736d6174636865642061727261797360781b6044820152606490fd5b50346101a557806003193601126101a5576020600954604051908152f35b50346101a557806003193601126101a55760406009549182815260086020522090610fb660ff60038401541692600181016119a76002825493015491612c11565b916040519586958652151560208601526040850152606084015260a0608084015260a08301906128d5565b50346101a55760203660031901126101a5576004356001600160401b038111610697576020610205611a089236906004016126f0565b810160068152030190208054611a1d8161292e565b90611a2b60405192836126b2565b80825260208201809385526020852085915b838310611ad957868587604051928392602084019060208552518091526040840160408260051b8601019392905b828210611a7a57505050500390f35b919360019193955060208091603f19898203018552875190848060a01b038251168152606080611ab785850151608087860152608085019061275f565b9360408101511515604085015201519101529601920192018594939192611a6b565b60046020600192604051611aec81612666565b848060a01b038654168152611b028587016127ef565b8382015260ff6002870154161515604082015260038601546060820152815201920192019190611a3d565b50346101a55760203660031901126101a557600435906001600160401b0382116101a557611b63602061020536600486016126f0565b810160078152030190208054610fb6611b836002600185015494016127ef565b60ff60405194859485528181161515602086015260081c161515604084015260806060840152608083019061275f565b50346101a55760403660031901126101a5576004356001600160401b03811161069757611be4903690600401612945565b6024356001600160401b03811161069357611c039036906004016129b3565b611c1760018060a01b038454163314612c85565b8151815103611d9957825b600554811015611c595780611c38600192612784565b838060a01b0391549060031b1c168552600460205284604081205501611c22565b50906005548360055580611d61575b50825b8151811015611d5d57611c7e8184612ce5565b5115611d1857611c8e8184612ce5565b516001600160a01b03611ca18385612ce5565b51168552600460205260408520556001600160a01b03611cc18284612ce5565b5116600554600160401b811015611d045790611ce582600180959401600555612784565b819291549060031b91821b91858060a01b03901b191617905501611c6b565b634e487b7160e01b86526041600452602486fd5b60405162461bcd60e51b815260206004820152601d60248201527f576569676874206d7573742062652067726561746572207468616e20300000006044820152606490fd5b8380f35b60058452611d93907f036b6384b5eca791c62761152d0c79bb0604c104a5fb6f4eb0703f3154bb3db090810190612cce565b38611c68565b60405162461bcd60e51b81526020600482015260126024820152714d69736d617463686564206c656e6774687360701b6044820152606490fd5b50346101a55760203660031901126101a5576004356001600160401b038111610697576020610205611e099236906004016126f0565b81016007815203019020908060025480151580611f28575b80611f16575b611ef1575b50819260055460058201945b818110611ea457505060ff9350600181015492815492611e8b611e626002600386015495016127ef565b6040519787818a99161515895260081c161515602088015260e0604088015260e087019061275f565b936060860152608085015260a084015260c08301520390f35b60ff6040611eb183612784565b905460039190911b1c6001600160a01b031660009081526020899052205416611edd575b600101611e38565b93611ee9600191612c76565b949050611ed5565b611efc908454612c69565b80421015611e2c57611f1091504290612b29565b38611e2c565b5060ff600185015460081c1615611e27565b5060ff600185015416611e21565b50346101a55760203660031901126101a557611f6460016040610fb693600435815260086020522001612c11565b6040519182916020835260208301906128d5565b50346101a55760403660031901126101a5576004356001600160401b03811161069757611fa99036906004016126f0565b611fc5602060243592816040519382858094519384920161273c565b81016006815203019020805482101561069357611fe292506128b9565b5080546001600160a01b0316611ffa600183016127ef565b91600360ff600283015416910154612024604051948594855260806020860152608085019061275f565b911515604084015260608301520390f35b50346101a55760403660031901126101a5576004356001600160401b038111610697576120669036906004016126f0565b906024356001600160401b038111610697576120869036906004016126f0565b30330361213b5781546001600160a01b031692833b156106935782604051809563160c220d60e31b82528183816120c1888860048401612be9565b03925af1612126575b825492935083926001600160a01b031691823b1561212157612105928492836040518096819582946314faf32d60e11b845260048401612be9565b03925af16121105750f35b8161211a916126b2565b6101a55780f35b505050fd5b91909281612133916126b2565b9082906120ca565b60405162461bcd60e51b8152602060048201526012602482015271496e7465726e616c2063616c6c206f6e6c7960701b6044820152606490fd5b50346101a557806003193601126101a557604051908060035490612198826127b5565b808552916001811690811561223157506001146121d4575b610fb6846121c0818603826126b2565b60405191829160208352602083019061275f565b600381527fc2575a0e9e593c00f959f8c92f12db2869c3395a3b0502d05e2516446f71f85b939250905b808210612217575090915081016020016121c0826121b0565b9192600181602092548385880101520191019092916121fe565b60ff191660208087019190915292151560051b850190920192506121c091508390506121b0565b50346101a55760203660031901126101a557600435906005548210156101a557602061228383612784565b905460405160039290921b1c6001600160a01b03168152f35b50346101a55760203660031901126101a557600435906001600160401b0382116101a557610fb66121c060026122da602061020536600489016126f0565b81016007815203019020016127ef565b50346101a55760203660031901126101a5576004356001600160a01b03811690819003610697578160409160209352600483522054604051908152f35b50346101a55760403660031901126101a5576004356001600160401b038111610697576123589036906004016126f0565b602435906001600160a01b03821682036106935760209260ff92600561238d866040958187519382858094519384920161273c565b6007908201908152030190206001600160a01b0390921683520184522054604051911615158152f35b50346101a55760203660031901126101a5576004356001600160401b038111610697576123e79036906004016126f0565b61244860ff6001612432602060405161242185858951938581818d019661240f81838a61273c565b81016007815203019020015416612b4c565b60405180938192895192839161273c565b81016007815203019020015460081c1615612b8d565b61245181613679565b156124db576124d57ffe2a617c3a0856bbd203e77cee3d518a00f599c8a955224e80b1d0a1afd95703916124c760405161248c6060826126b2565b602281527f54696d656f75742072656163686564202d2065787465726e616c20747269676760208201526132b960f11b6040820152826136ba565b604051918291429083612bcd565b0390a180f35b60405162461bcd60e51b8152602060048201526017602482015276151a5b595bdd5d081b9bdd081c995858da1959081e595d604a1b6044820152606490fd5b50346101a55760203660031901126101a557604060a091600435815260086020522060ff600382015416906001810154906002810154600461255c8285612b29565b9201549260405194151585526020850152604084015260608301526080820152f35b50346101a55760203660031901126101a557600435906001600160401b0382116101a55760206125b96125b436600486016126f0565b613679565b6040519015158152f35b50346101a55760203660031901126101a557600435906001600160401b0382116101a55760206125f636600485016126f0565b60405160ff600183519285818187019561261181838961273c565b810160078152030190200154169182612631575b50506040519015158152f35b60ff92508360019261264e9260405193849283925192839161273c565b81016007815203019020015460081c16158280612625565b608081019081106001600160401b0382111761268157604052565b634e487b7160e01b600052604160045260246000fd5b604081019081106001600160401b0382111761268157604052565b601f909101601f19168101906001600160401b0382119082101761268157604052565b6001600160401b03811161268157601f01601f191660200190565b81601f8201121561273757803590612707826126d5565b9261271560405194856126b2565b8284526020838301011161273757816000926020809301838601378301015290565b600080fd5b60005b83811061274f5750506000910152565b818101518382015260200161273f565b906020916127788151809281855285808601910161273c565b601f01601f1916010190565b60055481101561279f57600560005260206000200190600090565b634e487b7160e01b600052603260045260246000fd5b90600182811c921680156127e5575b60208310146127cf57565b634e487b7160e01b600052602260045260246000fd5b91607f16916127c4565b9060405191826000825492612803846127b5565b8084529360018116908115612871575060011461282a575b50612828925003836126b2565b565b90506000929192526020600020906000915b818310612855575050906020612828928201013861281b565b602091935080600191548385890101520191019091849261283c565b90506020925061282894915060ff191682840152151560051b8201013861281b565b6020906128ad92826040519483868095519384920161273c565b82019081520301902090565b805482101561279f5760005260206000209060021b0190600090565b9080602083519182815201916020808360051b8301019401926000915b83831061290157505050505090565b909192939460208061291f600193601f19868203018752895161275f565b970193019301919392906128f2565b6001600160401b0381116126815760051b60200190565b9080601f830112156127375781359061295d8261292e565b9261296b60405194856126b2565b82845260208085019360051b82010191821161273757602001915b8183106129935750505090565b82356001600160a01b038116810361273757815260209283019201612986565b9080601f830112156127375781356129ca8161292e565b926129d860405194856126b2565b81845260208085019260051b82010192831161273757602001905b828210612a005750505090565b81358152602091820191016129f3565b9080601f83011215612737578135612a278161292e565b92612a3560405194856126b2565b81845260208085019260051b820101918383116127375760208201905b838210612a6157505050505090565b81356001600160401b03811161273757602091612a83878480948801016126f0565b815201910190612a52565b9080601f8301121561273757813590612aa68261292e565b92612ab460405194856126b2565b82845260208085019360051b82010191821161273757602001915b818310612adc5750505090565b8235801515810361273757815260209283019201612acf565b906020808351928381520192019060005b818110612b135750505090565b8251845260209384019390920191600101612b06565b91908203918211612b3657565b634e487b7160e01b600052601160045260246000fd5b15612b5357565b60405162461bcd60e51b815260206004820152601260248201527153657373696f6e206e6f742061637469766560701b6044820152606490fd5b15612b9457565b60405162461bcd60e51b8152602060048201526011602482015270105b1c9958591e48199a5b985b1a5e9959607a1b6044820152606490fd5b929190612be460209160408652604086019061275f565b930152565b9091612c00612c0e9360408452604084019061275f565b91602081840391015261275f565b90565b908154612c1d8161292e565b92612c2b60405194856126b2565b818452602084019060005260206000206000915b838310612c4c5750505050565b600160208192612c5b856127ef565b815201920192019190612c3f565b91908201809211612b3657565b6000198114612b365760010190565b15612c8c57565b60405162461bcd60e51b815260206004820152601a60248201527913db9b1e481b585a5b881c1c9bda9958dd0818d85b8818d85b1b60321b6044820152606490fd5b818110612cd9575050565b60008155600101612cce565b805182101561279f5760209160051b010190565b15612d0057565b60405162461bcd60e51b8152602060048201526019602482015278566f74696e672073657373696f6e206e6f742061637469766560381b6044820152606490fd5b15612d4857565b606460405162461bcd60e51b815260206004820152602060248201527f566f74696e672073657373696f6e20616c72656164792066696e616c697a65646044820152fd5b15612d9357565b60405162461bcd60e51b815260206004820152601c60248201527b416c726561647920766f746564206f6e20746869732073616d706c6560201b6044820152606490fd5b60405190612de66040836126b2565b600f82526e151a5b595bdd5d081c995858da1959608a1b6020830152565b8160011b916000199060031b1c19161790565b8054600160401b81101561268157612e34916001820181556128b9565b919091612f6e57805182546001600160a01b0319166001600160a01b03919091161782556020810151805160018401916001600160401b03821161268157612e7c83546127b5565b601f8111612f3c575b50602090601f8311600114612ed057826003959360609593612eaf93600092610a96575050612e04565b90555b600284016040820151151560ff801983541691161790550151910155565b90601f1983169184600052816000209260005b818110612f245750926001928592600398966060989610612f0c575b505050811b019055612eb2565b015160001983891b60f8161c19169055388080612eff565b92936020600181928786015181550195019301612ee3565b612f6890846000526020600020601f850160051c81019160208610610b3c57601f0160051c0190612cce565b38612e85565b634e487b7160e01b600052600060045260246000fd5b60405190612f936040836126b2565b6017825276105b1b081d9bdd195c9cc81c185c9d1a58da5c185d1959604a1b6020830152565b60405190612fc86040836126b2565b601182527010dbdb9cd95b9cdd5cc81c995858da1959607a1b6020830152565b15612fef57565b60405162461bcd60e51b815260206004820152600f60248201526e098cadccee8d040dad2e6dac2e8c6d608b1b6044820152606490fd5b604051906130356020836126b2565b600080835282815b82811061304957505050565b80606060208093850101520161303d565b906130648261292e565b61307160405191826126b2565b8281528092613082601f199161292e565b019060005b82811061309357505050565b806060602080938501015201613087565b5190811515820361273757565b92919490946130c38451875114612fe8565b60009360005b81518110156130fe576130dc8189612ce5565b516130ea575b6001016130c9565b946130f6600191612c76565b9590506130e2565b509193949092948015613374576131149061305a565b9360009360005b84518110156131715761312e818a612ce5565b5161313c575b60010161311b565b9461316960019161314d8888612ce5565b51613158828b612ce5565b52613163818a612ce5565b50612c76565b959050613134565b5093509491509450613183835161305a565b9460005b8451811015613201578061319d60019287612ce5565b516131e5603060405180936f029b0b6b83632903230ba30903337b9160851b60208301526131d4815180926020868601910161273c565b81010301601f1981018352826126b2565b6131ef828a612ce5565b526131fa8189612ce5565b5001613187565b50919390926000938151613218575b509493929190565b8151156133605761324a856020840151604051809381926379c4ab1560e01b835260206004840152602483019061275f565b0381305afa908115613355578691879188916132ac575b50816132a3575b50613274575b50613210565b6132819095929542612b29565b908082106132945750505b92388061326e565b61329e9250612b29565b61328c565b90501538613268565b925050503d8087833e6132bf81836126b2565b8101906080818303126133515780516132da602083016130a4565b926132e7604084016130a4565b606084015190936001600160401b038211613349570181601f8201121561334d57805191613314836126d5565b9061332260405192836126b2565b838252602084840101116133495790602080613341949301910161273c565b919038613261565b8a80fd5b8980fd5b8680fd5b6040513d88823e3d90fd5b634e487b7160e01b85526032600452602485fd5b50945050509050613383613026565b9061338c613026565b92613395613026565b9293929160009190565b906133a98261292e565b6133b660405191826126b2565b82815280926133c7601f199161292e565b0190602036910137565b604051815190602081818501936133e981838761273c565b810160068152030190209182546133ff8161292e565b9361340d60405195866126b2565b818552602085019060005260206000206000915b8383106135d757505050506134449160209160405193849283925192839161273c565b810160078152030190209080511561359657613460815161305a565b90600093845b82518110156134f257602061347b8285612ce5565b510151600060208201815b8981106134c3575b50501561349f575b50600101613466565b866134bc916134b16001949988612ce5565b526131638187612ce5565b9590613496565b6134cd8189612ce5565b516020815191012084518320146134e657600101613486565b5050506001388061348e565b5091929390506135018161305a565b9061350b8161339f565b946135158261339f565b94600782019160060160005b848110613532575050505050929190565b8061353f60019285612ce5565b5161354a8289612ce5565b526135558188612ce5565b5061356a836135648387612ce5565b51612893565b54613575828c612ce5565b52613584856135648387612ce5565b5461358f828b612ce5565b5201613521565b50506135a0613026565b604051916020916135b183856126b2565b600084526000368137604051926135c881856126b2565b60008452506000368137929190565b600460206001926040516135ea81612666565b848060a01b0386541681526136008587016127ef565b8382015260ff6002870154161515604082015260038601546060820152815201920192019190613421565b6040519061363a6040836126b2565b600782526631b932b0ba37b960c91b6020830152565b6040519061365f6040836126b2565b600b82526a31b7b73a3934b13aba37b960a91b6020830152565b60025480156136b35761369e60206136ae93816040519382858094519384920161273c565b8101600781520301902054612c69565b421190565b5050600090565b9060006040516136dc60ff6001865193602081818a019661240f81838a61273c565b6136f660ff6001604051602081895161243281838a61273c565b6001604051602081875161370b81838861273c565b810160078152030190200160ff1981541690556001604051602081875161373381838861273c565b810160078152030190200161010061ff001982541617905561375484613d5c565b926002604051602081885161376a81838961273c565b8101600781520301902001845160018060401b038111610bd05761378e82546127b5565b601f8111613ace575b506020601f8211600114613a525761384761385b946020946137d4856004999660008051602061408f833981519152968c91613a47575b50612e04565b90555b7f8a0cc662156da5580404150064cc81955de64ef5a8090364795edcbac8429991604051806138088d429083612bcd565b0390a1604051918291608083526138336138268d608086019061275f565b848103898601528c61275f565b90426040850152838203606085015261275f565b0390a160405180938192895192839161273c565b81016007815203019020015480151580613a2e575b61390b575b50303b156101a557604051632e4bca8f60e11b81529080828061389c868860048401612be9565b038183305af191826138fb575b50506138b3575050565b7fdabbbde127ef4ac1b0a84891a674bfc7b3ceff8d1e7350abd0f7c48021420d32916138f061049c9260405193849360608552606085019061275f565b4260408301520390a1565b81613905916126b2565b386138a9565b8082526008602052600260408320016139248154612c76565b905580825260086020527f145f86831bf675d553efc81172882ecdb1776f5bdfa7f1b8367ad08b5788874061397060016040852001548385526008602052600260408620015490612b29565b60405180918482526080602083015261399d61398f608084018a61275f565b83810360408501528861275f565b9060608301520390a1808252600860205260026040832001548183526008602052600160408420015411613875576060817fcdf3a25ac86d8c6a422a8356f0fb7d6cc09b23caca39fd699cbc6038e558736492845260086020526003604085200160ff198154169055808452600860205260026040852001546040519182526020820152426040820152a138613875565b50808252600860205260ff600360408420015416613870565b90508c0151386137ce565b82865280862090601f198316875b818110613ab657509460209460018560008051602061408f833981519152956138479560049b9861385b9b10613a9d575b5050811b0190556137d7565b8d015160001960f88460031b161c191690553880613a91565b9192602060018192868d015181550194019201613a60565b613af89083875260208720601f840160051c81019160208510610b3c57601f0160051c0190612cce565b38613797565b6060916040516020818451613b16818385890161273c565b81016006815203019020805490613b2c8261292e565b94613b3a60405196876126b2565b82865260208601916000526020600020906000925b848410613c5c575050505050825115613c4b57613b6c835161305a565b90600090815b8551811015613bf3576020613b878288612ce5565b510151600060208201815b868110613bc4575b505015613bab575b50600101613b72565b83613bbd916134b16001949688612ce5565b9290613ba2565b613bce8189612ce5565b51602081519101208451832014613be757600101613b92565b50505060013880613b9a565b5093509160005b838110613c1a5750505050604051613c136020826126b2565b6000815290565b613c2e613c278285612ce5565b5183613f1c565b613c3a57600101613bfa565b919050613c479250612ce5565b5190565b915050604051613c136020826126b2565b60046020600192604051613c6f81612666565b848060a01b038754168152613c858588016127ef565b8382015260ff60028801541615156040820152600387015486820152815201930193019291613b4f565b6000906000600554905b818110613ced575050613cdd6020600392816040519382858094519384920161273c565b8101600781520301902001541490565b60ff6040600581516020818851613d078183858d0161273c565b8101600781520301902001613d1b84612784565b905460039190911b1c6001600160a01b03166000908152602091909152205416613d48575b600101613cb9565b92613d54600191612c76565b939050613d40565b60609060405181519060208181850193613d7781838761273c565b81016006815203019020805490613d8d8261292e565b94613d9b60405196876126b2565b82865260208601916000526020600020906000925b848410613ec9575050505050825115613ea0576020613ddd9160079360405193849283925192839161273c565b81018481520301902001602092604051613df785826126b2565b600081529260009160005b8251811015613e5c576040613e178285612ce5565b510151613e27575b600101613e02565b86613e328285612ce5565b510151613e3f8682612893565b54858111613e4f575b5050613e1f565b9096509350600138613e48565b5084519095935060009250159050613e7357505090565b506040805192506b4e4f5f434f4e53454e53555360a01b9190613e9690846126b2565b600c835282015290565b505050604051613eb16040826126b2565b60088152674e4f5f564f54455360c01b602082015290565b60046020600192604051613edc81612666565b848060a01b038754168152613ef28588016127ef565b8382015260ff60028801541615156040820152600387015486820152815201930193019291613db0565b6020613f3891939293816040519382858094519384920161273c565b81016006815203019020918254613f4e8161292e565b93613f5c60405195866126b2565b818552602085019060005260206000206000915b83831061403a575050505060008091815b8551811015614011576020613f968288612ce5565b510151602081519101208251602084012014613fb5575b600101613f81565b6001600160a01b03613fc78288612ce5565b5151166000526004602052613fe26040600020548094612c69565b926040613fef8389612ce5565b510151613ffd575b50613fad565b61400a9060019295612c69565b9390613ff7565b50509091925080156136b357606482029180830460641490151715612b36576001549104101590565b6004602060019260405161404d81612666565b848060a01b0386541681526140638587016127ef565b8382015260ff6002870154161515604082015260038601546060820152815201920192019190613f7056fea8e1279888c174a6fbf4fd42a8be4469b313be30a5edac87aff45c5f8a450deb0cc62c8b09788a11d11e96187c34c67fad5e9651cadc6ace24e1518490bed9812579d0860b48f37c239a6db657bad6560c277bbce0a8a989d70227407fc62e06a26469706673582212201ccadf94525610df0e0e91173efe66d3fffd9f13a8fdb6840735b9edee91ca5e64736f6c634300081c0033",
  "linkReferences": {},
  "deployedLinkReferences": {}
}