{
  "_format": "hh-sol-artifact-1",
  "contractName": "ALProjectDeployer",
  "sourceName": "contracts/ALProjectDeployer.sol",
  "abi": [
    {
      "inputs": [
        {
          "internalType": "bytes",
          "name": "_alProjectBytecode",
          "type": "bytes"
        },
        {
          "internalType": "bytes",
          "name": "_alVotingBytecode",
          "type": "bytes"
        },
        {
          "internalType": "bytes",
          "name": "_alStorageBytecode",
          "type": "bytes"
        },
        {
          "internalType": "address",
          "name": "_linkerContract",
          "type": "address"
        },
        {
          "internalType": "address",
          "name": "_assetFactory",
          "type": "address"
        }
      ],
      "stateMutability": "nonpayable",
      "type": "constructor"
    },
    {
      "anonymous": false,
      "inputs": [
        {
          "indexed": true,
          "internalType": "address",
          "name": "baseProject",
          "type": "address"
        },
        {
          "indexed": true,
          "internalType": "address",
          "name": "alProject",
          "type": "address"
        },
        {
          "indexed": false,
          "internalType": "address",
          "name": "votingContract",
          "type": "address"
        },
        {
          "indexed": false,
          "internalType": "address",
          "name": "storageContract",
          "type": "address"
        },
        {
          "indexed": false,
          "internalType": "address",
          "name": "roCrateAsset",
          "type": "address"
        }
      ],
      "name": "ALProjectDeployed",
      "type": "event"
    },
    {
      "inputs": [
        {
          "internalType": "address",
          "name": "baseProject",
          "type": "address"
        },
        {
          "components": [
            {
              "internalType": "string",
              "name": "queryStrategy",
              "type": "string"
            },
            {
              "internalType": "string",
              "name": "alScenario",
              "type": "string"
            },
            {
              "internalType": "uint256",
              "name": "maxIteration",
              "type": "uint256"
            },
            {
              "internalType": "uint256",
              "name": "queryBatchSize",
              "type": "uint256"
            },
            {
              "internalType": "string[]",
              "name": "labelSpace",
              "type": "string[]"
            }
          ],
          "internalType": "struct ALProjectDeployer.ALProjectConfig",
          "name": "alConfig",
          "type": "tuple"
        },
        {
          "components": [
            {
              "internalType": "string",
              "name": "votingConsensus",
              "type": "string"
            },
            {
              "internalType": "uint256",
              "name": "votingTimeout",
              "type": "uint256"
            }
          ],
          "internalType": "struct ALProjectDeployer.VotingConfig",
          "name": "votingConfig",
          "type": "tuple"
        },
        {
          "internalType": "string",
          "name": "rocrateHash",
          "type": "string"
        },
        {
          "internalType": "address[]",
          "name": "contributors",
          "type": "address[]"
        },
        {
          "internalType": "uint256",
          "name": "nonce",
          "type": "uint256"
        }
      ],
      "name": "deployAL",
      "outputs": [
        {
          "internalType": "address",
          "name": "alProject",
          "type": "address"
        },
        {
          "internalType": "address",
          "name": "votingContract",
          "type": "address"
        },
        {
          "internalType": "address",
          "name": "storageContract",
          "type": "address"
        },
        {
          "internalType": "address",
          "name": "roCrateAsset",
          "type": "address"
        }
      ],
      "stateMutability": "nonpayable",
      "type": "function"
    }
  ],
  "bytecode": "0x60c0604052346104ca5761137a80380380610019816104cf565b92833981019060a0818303126104ca5780516001600160401b0381116104ca57826100459183016104f4565b60208201516001600160401b0381116104ca57836100649184016104f4565b604083015190936001600160401b0382116104ca576100849184016104f4565b9161009d60806100966060840161055f565b920161055f565b825190926001600160401b0382116102e95760005490600182811c921680156104c0575b60208310146102c95781601f849311610451575b50602090601f83116001146103eb576000926103e0575b50508160011b916000199060031b1c1916176000555b83516001600160401b0381116102e957600154600181811c911680156103d6575b60208210146102c957601f8111610371575b50602094601f821160011461030a579481929394956000926102ff575b50508160011b916000199060031b1c1916176001555b82516001600160401b0381116102e957600254600181811c911680156102df575b60208210146102c957601f8111610264575b506020601f82116001146101fd57819293946000926101f2575b50508160011b916000199060031b1c1916176002555b60805260a052604051610e069081610574823960805181610b28015260a05181610a530152f35b0151905038806101b5565b601f198216906002600052806000209160005b81811061024c57509583600195969710610233575b505050811b016002556101cb565b015160001960f88460031b161c19169055388080610225565b9192602060018192868b015181550194019201610210565b60026000527f405787fa12a823e0f2b7631cc41b3ba8828b3321ca811111fa75cd3aa3bb5ace601f830160051c810191602084106102bf575b601f0160051c01905b8181106102b3575061019b565b600081556001016102a6565b909150819061029d565b634e487b7160e01b600052602260045260246000fd5b90607f1690610189565b634e487b7160e01b600052604160045260246000fd5b015190503880610152565b601f198216956001600052806000209160005b88811061035957508360019596979810610340575b505050811b01600155610168565b015160001960f88460031b161c19169055388080610332565b9192602060018192868501518155019401920161031d565b60016000527fb10e2d527612073b26eecdfd717e6a320cf44b4afac2b0732d9fcbe2b7fa0cf6601f830160051c810191602084106103cc575b601f0160051c01905b8181106103c05750610135565b600081556001016103b3565b90915081906103aa565b90607f1690610123565b0151905038806100ec565b60008080528281209350601f198516905b8181106104395750908460019594939210610420575b505050811b01600055610102565b015160001960f88460031b161c19169055388080610412565b929360206001819287860151815501950193016103fc565b600080529091507f290decd9548b62a8d60345a988386fc84ba6bc95484008f6362f93160ef3e563601f840160051c810191602085106104b6575b90601f859493920160051c01905b8181106104a757506100d5565b6000815584935060010161049a565b909150819061048c565b91607f16916100c1565b600080fd5b6040519190601f01601f191682016001600160401b038111838210176102e957604052565b81601f820112156104ca578051906001600160401b0382116102e957610523601f8301601f19166020016104cf565b92828452602083830101116104ca5760005b82811061054a57505060206000918301015290565b80602080928401015182828701015201610535565b51906001600160a01b03821682036104ca5756fe6080604052600436101561001257600080fd5b60003560e01c631331c5c01461002757600080fd5b3461010e5760c036600319011261010e57610040610124565b6024356001600160401b03811161010e5761005f903690600401610133565b906044356001600160401b03811161010e5761007f903690600401610141565b906064356001600160401b03811161010e5761009f90369060040161014f565b909360843593916001600160401b03851161010e5761010a956100c96100d596369060040161017c565b94909360a43596610856565b604080516001600160a01b03958616815293851660208501529184169183019190915290911660608201529081906080820190565b0390f35b600080fd5b6001600160a01b0381160361010e57565b6004359061013182610113565b565b908160a091031261010e5790565b9081604091031261010e5790565b9181601f8401121561010e578235916001600160401b03831161010e576020838186019501011161010e57565b9181601f8401121561010e578235916001600160401b03831161010e576020808501948460051b01011161010e57565b634e487b7160e01b600052604160045260246000fd5b601f909101601f19168101906001600160401b038211908210176101e557604052565b6101ac565b90600091600054908160011c91600181168015610295575b60208410811461027f5790811561026d575060011461021f575050565b60008052919250907f290decd9548b62a8d60345a988386fc84ba6bc95484008f6362f93160ef3e5636000905b8382106102595750500190565b60018160209254848601520191019061024c565b60ff1916825250811515909102019150565b634e487b7160e01b600052602260045260246000fd5b92607f1692610202565b90600091600154908160011c91600181168015610323575b60208410811461027f5790811561026d57506001146102d4575050565b6001600052919250907fb10e2d527612073b26eecdfd717e6a320cf44b4afac2b0732d9fcbe2b7fa0cf66000905b83821061030f5750500190565b600181602092548486015201910190610302565b92607f16926102b7565b90600091600254908160011c916001811680156103b1575b60208410811461027f5790811561026d5750600114610362575050565b6002600052919250907f405787fa12a823e0f2b7631cc41b3ba8828b3321ca811111fa75cd3aa3bb5ace6000905b83821061039d5750500190565b600181602092548486015201910190610390565b92607f1692610345565b60005b8381106103ce5750506000910152565b81810151838201526020016103be565b906103f1602092828151948592016103bb565b0190565b156103fc57565b60405162461bcd60e51b815260206004820152601b60248201527a1053141c9bda9958dd0819195c1b1bde5b595b9d0819985a5b1959602a1b6044820152606490fd5b903590601e198136030182121561010e57018035906001600160401b03821161010e5760200191813603831361010e57565b908060209392818452848401376000828201840152601f01601f1916010190565b949392916040926104b89260018060a01b03168752606060208801526060870191610471565b930152565b156104c457565b60405162461bcd60e51b815260206004820152602160248201527f414c50726f6a656374566f74696e67206465706c6f796d656e74206661696c656044820152601960fa1b6064820152608490fd5b1561051a57565b60405162461bcd60e51b815260206004820152602260248201527f414c50726f6a65637453746f72616765206465706c6f796d656e74206661696c604482015261195960f21b6064820152608490fd5b9081602091031261010e575161057f81610113565b90565b9160209360e06105e793979697608086526105ac815180928160808a01528960a08a0191016103bb565b601f01601f1916850185810360a08181018989015260089083015267726f2d637261746560c01b60c083015260e00160408701520191610471565b90606081830391015282815201919060005b8181106106065750505090565b909192602080600192863561061a81610113565b848060a01b0316815201940191019190916105f9565b6040513d6000823e3d90fd5b1561064357565b60405162461bcd60e51b815260206004820152601e60248201527f524f2d4372617465206173736574206372656174696f6e206661696c656400006044820152606490fd5b903590601e198136030182121561010e57018035906001600160401b03821161010e57602001918160051b3603831361010e57565b90602083828152019060208160051b85010193836000915b8383106106e55750505050505090565b909192939495601f198282030186528635601e198436030181121561010e578301602081019190356001600160401b03811161010e57803603831361010e576107346020928392600195610471565b9801960194930191906106d5565b6001600160a01b03918216815291811660208301529182166040820152911660608201526101406080820181905261057f9b919a919991986107bf989296909592946107a694919261079892908e019190610471565b918b830360a08d0152610471565b9360c089015260e08801528683036101008801526106bd565b92610120818503910152610471565b6001600160401b0381116101e557601f01601f191660200190565b3d15610814573d906107fa826107ce565b9161080860405193846101c2565b82523d6000602084013e565b606090565b1561082057565b60405162461bcd60e51b815260206004820152600e60248201526d131a5b9ada5b99c819985a5b195960921b6044820152606490fd5b91929397949697959095886040518085602082019061088e9160609160018060a01b0316815260406020820152600060408201520190565b03601f19810182526108a090826101c2565b6040518060208101926108b2846101ea565b6108bb916103de565b03601f19810182526108cd90826101c2565b51906000f5946001600160a01b0386169486906108eb8715156103f5565b6108f5818061043f565b92909160200135604051938493602085019361091094610492565b03601f198101825261092290826101c2565b604051908160208101916109358361029f565b61093e916103de565b03601f198101835261095090836101c2565b60018c019151906000f59961096f6001600160a01b038c1615156104bd565b604080516001600160a01b03891660208083019190915281529061099390826101c2565b604051918260208101926109a68461032d565b6109af916103de565b03601f19810184526109c190846101c2565b6002019151906000f5986109df6001600160a01b038b161515610513565b6109e885610ce8565b60405168726f2d63726174652d60b81b602082015290819060298201610a0d916103de565b670b5a5b9a5d1a585b60c21b815260080103601f1981018252610a3090826101c2565b604051636609c12960e01b8152948592610a51928690869060048701610582565b7f00000000000000000000000000000000000000000000000000000000000000006001600160a01b031691859103815a602094600091f1978815610bef578a93600099610bb6575b50869285929091610ab46001600160a01b038c16151561063c565b8b610abf828061043f565b602084929401610acf908361043f565b9060408401359260608501359460808101610ae991610688565b9790966040519d8e9d8e631a90930160e31b60208201526024019d610b0d9e610742565b03601f1981018252610b1f90826101c2565b805190602001907f0000000000000000000000000000000000000000000000000000000000000000905a9260008094938194f1610b5a6107e9565b50610b6490610819565b604080516001600160a01b0389811682528881166020830152878116928201929092529116907fba71c3331c78b3552695e5bda0f98de04012e2c1641a94feb9a6e8dfe1385f5790606090a393929190565b879391995091610bde869360203d602011610be8575b610bd681836101c2565b81019061056a565b9991935091610a99565b503d610bcc565b610630565b60405190610c036040836101c2565b601082526f181899199a1a9b1b9c1cb0b131b232b360811b6020830152565b60405160609190610c3383826101c2565b602a815291601f1901366020840137565b634e487b7160e01b600052603260045260246000fd5b805115610c675760200190565b610c44565b805160011015610c675760210190565b908151811015610c67570160200190565b634e487b7160e01b600052601160045260246000fd5b90600c8201809211610cb157565b610c8d565b6002019081600211610cb157565b6003019081600311610cb157565b908160011b9180830460021490151715610cb157565b6001600160a01b0316610cf9610bf4565b90610d02610c22565b916030610d0e84610c5a565b536078610d1a84610c6c565b5360005b60148110610d2c5750505090565b610d3581610ca3565b6020811015610c6757610d6390610d559085901a60041c600f1684610c7c565b516001600160f81b03191690565b610d82610d77610d7284610cd2565b610cb6565b9160001a9186610c7c565b53610d8c81610ca3565b906020821015610c6757610daa610d55600f866001951a1685610c7c565b610dc9610dbe610db984610cd2565b610cc4565b9160001a9187610c7c565b5301610d1e56fea26469706673582212208c6509c346af1b82c0f52a932276e610d01c559c4eecd3ddc4d8c3f4f561d93364736f6c634300081c0033",
  "linkReferences": {},
  "deployedLinkReferences": {}
}