{
  "_format": "hh-sol-artifact-1",
  "contractName": "ALProjectVoting",
  "sourceName": "contracts/ALProjectVoting.sol",
  "abi": [
    {
      "inputs": [
        {
          "internalType": "address",
          "name": "_project",
          "type": "address"
        },
        {
          "internalType": "string",
          "name": "_votingConsensus",
          "type": "string"
        },
        {
          "internalType": "uint256",
          "name": "_votingTimeoutSeconds",
          "type": "uint256"
        }
      ],
      "stateMutability": "nonpayable",
      "type": "constructor"
    },
    {
      "anonymous": false,
      "inputs": [
        {
          "indexed": false,
          "internalType": "uint256",
          "name": "round",
          "type": "uint256"
        },
        {
          "indexed": false,
          "internalType": "uint256",
          "name": "completedSamples",
          "type": "uint256"
        },
        {
          "indexed": false,
          "internalType": "uint256",
          "name": "timestamp",
          "type": "uint256"
        }
      ],
      "name": "BatchCompleted",
      "type": "event"
    },
    {
      "anonymous": false,
      "inputs": [
        {
          "indexed": false,
          "internalType": "uint256",
          "name": "round",
          "type": "uint256"
        },
        {
          "indexed": false,
          "internalType": "string",
          "name": "sampleId",
          "type": "string"
        },
        {
          "indexed": false,
          "internalType": "string",
          "name": "finalLabel",
          "type": "string"
        },
        {
          "indexed": false,
          "internalType": "uint256",
          "name": "remainingSamples",
          "type": "uint256"
        }
      ],
      "name": "BatchSampleCompleted",
      "type": "event"
    },
    {
      "anonymous": false,
      "inputs": [
        {
          "indexed": false,
          "internalType": "uint256",
          "name": "round",
          "type": "uint256"
        },
        {
          "indexed": false,
          "internalType": "string[]",
          "name": "sampleIds",
          "type": "string[]"
        },
        {
          "indexed": false,
          "internalType": "uint256",
          "name": "startTime",
          "type": "uint256"
        }
      ],
      "name": "BatchStarted",
      "type": "event"
    },
    {
      "anonymous": false,
      "inputs": [
        {
          "indexed": false,
          "internalType": "string",
          "name": "sampleId",
          "type": "string"
        },
        {
          "indexed": false,
          "internalType": "string",
          "name": "label",
          "type": "string"
        }
      ],
      "name": "ConsensusReached",
      "type": "event"
    },
    {
      "anonymous": false,
      "inputs": [
        {
          "indexed": false,
          "internalType": "string",
          "name": "sampleId",
          "type": "string"
        },
        {
          "indexed": false,
          "internalType": "string",
          "name": "finalLabel",
          "type": "string"
        },
        {
          "indexed": false,
          "internalType": "uint256",
          "name": "timestamp",
          "type": "uint256"
        }
      ],
      "name": "LabelStoredInProject",
      "type": "event"
    },
    {
      "anonymous": false,
      "inputs": [
        {
          "indexed": false,
          "internalType": "string",
          "name": "sampleId",
          "type": "string"
        },
        {
          "indexed": false,
          "internalType": "uint256",
          "name": "endTime",
          "type": "uint256"
        }
      ],
      "name": "TimeoutReached",
      "type": "event"
    },
    {
      "anonymous": false,
      "inputs": [
        {
          "indexed": false,
          "internalType": "string",
          "name": "sampleId",
          "type": "string"
        },
        {
          "indexed": true,
          "internalType": "address",
          "name": "voter",
          "type": "address"
        },
        {
          "indexed": false,
          "internalType": "string",
          "name": "label",
          "type": "string"
        },
        {
          "indexed": false,
          "internalType": "bool",
          "name": "support",
          "type": "bool"
        },
        {
          "indexed": false,
          "internalType": "uint256",
          "name": "timestamp",
          "type": "uint256"
        }
      ],
      "name": "VoteSubmitted",
      "type": "event"
    },
    {
      "anonymous": false,
      "inputs": [
        {
          "indexed": false,
          "internalType": "string",
          "name": "sampleId",
          "type": "string"
        },
        {
          "indexed": false,
          "internalType": "uint256",
          "name": "endTime",
          "type": "uint256"
        }
      ],
      "name": "VotingSessionEnded",
      "type": "event"
    },
    {
      "anonymous": false,
      "inputs": [
        {
          "indexed": false,
          "internalType": "string",
          "name": "sampleId",
          "type": "string"
        },
        {
          "indexed": false,
          "internalType": "string",
          "name": "finalLabel",
          "type": "string"
        },
        {
          "indexed": false,
          "internalType": "uint256",
          "name": "endTime",
          "type": "uint256"
        },
        {
          "indexed": false,
          "internalType": "string",
          "name": "reason",
          "type": "string"
        }
      ],
      "name": "VotingSessionFinalized",
      "type": "event"
    },
    {
      "anonymous": false,
      "inputs": [
        {
          "indexed": false,
          "internalType": "string",
          "name": "sampleId",
          "type": "string"
        },
        {
          "indexed": false,
          "internalType": "uint256",
          "name": "startTime",
          "type": "uint256"
        }
      ],
      "name": "VotingSessionStarted",
      "type": "event"
    },
    {
      "inputs": [
        {
          "internalType": "uint256",
          "name": "",
          "type": "uint256"
        }
      ],
      "name": "batches",
      "outputs": [
        {
          "internalType": "uint256",
          "name": "round",
          "type": "uint256"
        },
        {
          "internalType": "uint256",
          "name": "completedCount",
          "type": "uint256"
        },
        {
          "internalType": "bool",
          "name": "isActive",
          "type": "bool"
        },
        {
          "internalType": "uint256",
          "name": "startTime",
          "type": "uint256"
        }
      ],
      "stateMutability": "view",
      "type": "function"
    },
    {
      "inputs": [
        {
          "internalType": "string",
          "name": "sampleId",
          "type": "string"
        }
      ],
      "name": "checkAndFinalizeTimeout",
      "outputs": [],
      "stateMutability": "nonpayable",
      "type": "function"
    },
    {
      "inputs": [
        {
          "internalType": "string[]",
          "name": "allSampleIds",
          "type": "string[]"
        },
        {
          "internalType": "bool[]",
          "name": "sampleActiveStates",
          "type": "bool[]"
        },
        {
          "internalType": "string[]",
          "name": "labelSpace",
          "type": "string[]"
        },
        {
          "internalType": "uint256",
          "name": "votingTimeout",
          "type": "uint256"
        },
        {
          "internalType": "uint256",
          "name": "_currentRound",
          "type": "uint256"
        }
      ],
      "name": "computeActiveBatch",
      "outputs": [
        {
          "internalType": "string[]",
          "name": "activeSampleIds",
          "type": "string[]"
        },
        {
          "internalType": "string[]",
          "name": "sampleData",
          "type": "string[]"
        },
        {
          "internalType": "string[]",
          "name": "labelOptions",
          "type": "string[]"
        },
        {
          "internalType": "uint256",
          "name": "timeRemaining",
          "type": "uint256"
        },
        {
          "internalType": "uint256",
          "name": "round",
          "type": "uint256"
        }
      ],
      "stateMutability": "view",
      "type": "function"
    },
    {
      "inputs": [
        {
          "internalType": "uint256",
          "name": "round",
          "type": "uint256"
        },
        {
          "internalType": "string[]",
          "name": "sampleIds",
          "type": "string[]"
        },
        {
          "internalType": "bool[]",
          "name": "sampleActiveStates",
          "type": "bool[]"
        }
      ],
      "name": "computeBatchProgress",
      "outputs": [
        {
          "internalType": "uint256",
          "name": "_round",
          "type": "uint256"
        },
        {
          "internalType": "uint256",
          "name": "totalSamples",
          "type": "uint256"
        },
        {
          "internalType": "uint256",
          "name": "activeSamplesCount",
          "type": "uint256"
        },
        {
          "internalType": "uint256",
          "name": "completedSamples",
          "type": "uint256"
        },
        {
          "internalType": "string[]",
          "name": "_sampleIds",
          "type": "string[]"
        },
        {
          "internalType": "bool",
          "name": "batchActive",
          "type": "bool"
        }
      ],
      "stateMutability": "pure",
      "type": "function"
    },
    {
      "inputs": [
        {
          "internalType": "address[]",
          "name": "participants",
          "type": "address[]"
        },
        {
          "internalType": "string[]",
          "name": "roles",
          "type": "string[]"
        },
        {
          "internalType": "uint256[]",
          "name": "weights",
          "type": "uint256[]"
        }
      ],
      "name": "computeEligibleVoters",
      "outputs": [
        {
          "internalType": "address[]",
          "name": "voters",
          "type": "address[]"
        },
        {
          "internalType": "uint256[]",
          "name": "eligibleWeights",
          "type": "uint256[]"
        }
      ],
      "stateMutability": "pure",
      "type": "function"
    },
    {
      "inputs": [],
      "name": "consensusThreshold",
      "outputs": [
        {
          "internalType": "uint256",
          "name": "",
          "type": "uint256"
        }
      ],
      "stateMutability": "view",
      "type": "function"
    },
    {
      "inputs": [],
      "name": "currentRound",
      "outputs": [
        {
          "internalType": "uint256",
          "name": "",
          "type": "uint256"
        }
      ],
      "stateMutability": "view",
      "type": "function"
    },
    {
      "inputs": [
        {
          "internalType": "uint256",
          "name": "round",
          "type": "uint256"
        }
      ],
      "name": "endBatchVoting",
      "outputs": [],
      "stateMutability": "nonpayable",
      "type": "function"
    },
    {
      "inputs": [
        {
          "internalType": "uint256",
          "name": "round",
          "type": "uint256"
        }
      ],
      "name": "getBatchSamples",
      "outputs": [
        {
          "internalType": "string[]",
          "name": "",
          "type": "string[]"
        }
      ],
      "stateMutability": "view",
      "type": "function"
    },
    {
      "inputs": [
        {
          "internalType": "uint256",
          "name": "round",
          "type": "uint256"
        }
      ],
      "name": "getBatchStatus",
      "outputs": [
        {
          "internalType": "bool",
          "name": "isActive",
          "type": "bool"
        },
        {
          "internalType": "uint256",
          "name": "totalSamples",
          "type": "uint256"
        },
        {
          "internalType": "uint256",
          "name": "completedSamples",
          "type": "uint256"
        },
        {
          "internalType": "uint256",
          "name": "remainingSamples",
          "type": "uint256"
        },
        {
          "internalType": "uint256",
          "name": "startTime",
          "type": "uint256"
        }
      ],
      "stateMutability": "view",
      "type": "function"
    },
    {
      "inputs": [],
      "name": "getCurrentBatchProgress",
      "outputs": [
        {
          "internalType": "uint256",
          "name": "round",
          "type": "uint256"
        },
        {
          "internalType": "bool",
          "name": "isActive",
          "type": "bool"
        },
        {
          "internalType": "uint256",
          "name": "totalSamples",
          "type": "uint256"
        },
        {
          "internalType": "uint256",
          "name": "completedSamples",
          "type": "uint256"
        },
        {
          "internalType": "string[]",
          "name": "sampleIds",
          "type": "string[]"
        }
      ],
      "stateMutability": "view",
      "type": "function"
    },
    {
      "inputs": [
        {
          "internalType": "string",
          "name": "sampleId",
          "type": "string"
        }
      ],
      "name": "getFinalLabel",
      "outputs": [
        {
          "internalType": "string",
          "name": "",
          "type": "string"
        }
      ],
      "stateMutability": "view",
      "type": "function"
    },
    {
      "inputs": [],
      "name": "getVoterList",
      "outputs": [
        {
          "components": [
            {
              "internalType": "address",
              "name": "addr",
              "type": "address"
            },
            {
              "internalType": "uint256",
              "name": "weight",
              "type": "uint256"
            }
          ],
          "internalType": "struct ALProjectVoting.Voter[]",
          "name": "",
          "type": "tuple[]"
        }
      ],
      "stateMutability": "view",
      "type": "function"
    },
    {
      "inputs": [
        {
          "internalType": "string",
          "name": "sampleId",
          "type": "string"
        }
      ],
      "name": "getVotes",
      "outputs": [
        {
          "components": [
            {
              "internalType": "address",
              "name": "voter",
              "type": "address"
            },
            {
              "internalType": "string",
              "name": "label",
              "type": "string"
            },
            {
              "internalType": "bool",
              "name": "support",
              "type": "bool"
            },
            {
              "internalType": "uint256",
              "name": "timestamp",
              "type": "uint256"
            }
          ],
          "internalType": "struct ALProjectVoting.Vote[]",
          "name": "",
          "type": "tuple[]"
        }
      ],
      "stateMutability": "view",
      "type": "function"
    },
    {
      "inputs": [
        {
          "internalType": "string",
          "name": "sampleId",
          "type": "string"
        }
      ],
      "name": "getVotingDistribution",
      "outputs": [
        {
          "internalType": "string[]",
          "name": "labels",
          "type": "string[]"
        },
        {
          "internalType": "uint256[]",
          "name": "voteCounts",
          "type": "uint256[]"
        },
        {
          "internalType": "uint256[]",
          "name": "voteWeights",
          "type": "uint256[]"
        }
      ],
      "stateMutability": "view",
      "type": "function"
    },
    {
      "inputs": [
        {
          "internalType": "string",
          "name": "sampleId",
          "type": "string"
        }
      ],
      "name": "getVotingResult",
      "outputs": [
        {
          "internalType": "bool",
          "name": "isFinalized",
          "type": "bool"
        },
        {
          "internalType": "string",
          "name": "finalLabel",
          "type": "string"
        },
        {
          "internalType": "uint256",
          "name": "totalVotes",
          "type": "uint256"
        },
        {
          "internalType": "uint256",
          "name": "votedCount",
          "type": "uint256"
        }
      ],
      "stateMutability": "view",
      "type": "function"
    },
    {
      "inputs": [
        {
          "internalType": "string",
          "name": "sampleId",
          "type": "string"
        }
      ],
      "name": "getVotingSession",
      "outputs": [
        {
          "internalType": "uint256",
          "name": "startTime",
          "type": "uint256"
        },
        {
          "internalType": "bool",
          "name": "isActive",
          "type": "bool"
        },
        {
          "internalType": "bool",
          "name": "isFinalized",
          "type": "bool"
        },
        {
          "internalType": "string",
          "name": "finalLabel",
          "type": "string"
        }
      ],
      "stateMutability": "view",
      "type": "function"
    },
    {
      "inputs": [
        {
          "internalType": "string",
          "name": "sampleId",
          "type": "string"
        }
      ],
      "name": "getVotingSessionStatus",
      "outputs": [
        {
          "internalType": "bool",
          "name": "isActive",
          "type": "bool"
        },
        {
          "internalType": "bool",
          "name": "isFinalized",
          "type": "bool"
        },
        {
          "internalType": "string",
          "name": "finalLabel",
          "type": "string"
        },
        {
          "internalType": "uint256",
          "name": "startTime",
          "type": "uint256"
        },
        {
          "internalType": "uint256",
          "name": "timeRemaining",
          "type": "uint256"
        },
        {
          "internalType": "uint256",
          "name": "votedCount",
          "type": "uint256"
        },
        {
          "internalType": "uint256",
          "name": "totalVoters",
          "type": "uint256"
        }
      ],
      "stateMutability": "view",
      "type": "function"
    },
    {
      "inputs": [
        {
          "internalType": "string",
          "name": "sampleId",
          "type": "string"
        },
        {
          "internalType": "address",
          "name": "user",
          "type": "address"
        }
      ],
      "name": "hasUserVoted",
      "outputs": [
        {
          "internalType": "bool",
          "name": "",
          "type": "bool"
        }
      ],
      "stateMutability": "view",
      "type": "function"
    },
    {
      "inputs": [
        {
          "internalType": "string",
          "name": "sampleId",
          "type": "string"
        }
      ],
      "name": "isTimeoutReached",
      "outputs": [
        {
          "internalType": "bool",
          "name": "",
          "type": "bool"
        }
      ],
      "stateMutability": "view",
      "type": "function"
    },
    {
      "inputs": [
        {
          "internalType": "string",
          "name": "sampleId",
          "type": "string"
        }
      ],
      "name": "isVotingActive",
      "outputs": [
        {
          "internalType": "bool",
          "name": "",
          "type": "bool"
        }
      ],
      "stateMutability": "view",
      "type": "function"
    },
    {
      "inputs": [
        {
          "internalType": "string",
          "name": "sampleId",
          "type": "string"
        },
        {
          "internalType": "string",
          "name": "finalLabel",
          "type": "string"
        }
      ],
      "name": "notifyMainContractExternal",
      "outputs": [],
      "stateMutability": "nonpayable",
      "type": "function"
    },
    {
      "inputs": [],
      "name": "project",
      "outputs": [
        {
          "internalType": "address",
          "name": "",
          "type": "address"
        }
      ],
      "stateMutability": "view",
      "type": "function"
    },
    {
      "inputs": [
        {
          "internalType": "address[]",
          "name": "_voters",
          "type": "address[]"
        },
        {
          "internalType": "uint256[]",
          "name": "_weights",
          "type": "uint256[]"
        }
      ],
      "name": "setVoters",
      "outputs": [],
      "stateMutability": "nonpayable",
      "type": "function"
    },
    {
      "inputs": [
        {
          "internalType": "string[]",
          "name": "sampleIds",
          "type": "string[]"
        },
        {
          "internalType": "uint256",
          "name": "round",
          "type": "uint256"
        }
      ],
      "name": "startBatchVoting",
      "outputs": [],
      "stateMutability": "nonpayable",
      "type": "function"
    },
    {
      "inputs": [
        {
          "internalType": "string[]",
          "name": "sampleIds",
          "type": "string[]"
        },
        {
          "internalType": "string[]",
          "name": "labels",
          "type": "string[]"
        },
        {
          "internalType": "bool[]",
          "name": "support",
          "type": "bool[]"
        }
      ],
      "name": "submitBatchVote",
      "outputs": [],
      "stateMutability": "nonpayable",
      "type": "function"
    },
    {
      "inputs": [
        {
          "internalType": "string[]",
          "name": "sampleIds",
          "type": "string[]"
        },
        {
          "internalType": "string[]",
          "name": "labels",
          "type": "string[]"
        },
        {
          "internalType": "address",
          "name": "voter",
          "type": "address"
        }
      ],
      "name": "submitBatchVoteOnBehalf",
      "outputs": [],
      "stateMutability": "nonpayable",
      "type": "function"
    },
    {
      "inputs": [
        {
          "internalType": "uint256",
          "name": "",
          "type": "uint256"
        }
      ],
      "name": "voterList",
      "outputs": [
        {
          "internalType": "address",
          "name": "",
          "type": "address"
        }
      ],
      "stateMutability": "view",
      "type": "function"
    },
    {
      "inputs": [
        {
          "internalType": "address",
          "name": "",
          "type": "address"
        }
      ],
      "name": "voterWeights",
      "outputs": [
        {
          "internalType": "uint256",
          "name": "",
          "type": "uint256"
        }
      ],
      "stateMutability": "view",
      "type": "function"
    },
    {
      "inputs": [
        {
          "internalType": "string",
          "name": "",
          "type": "string"
        },
        {
          "internalType": "uint256",
          "name": "",
          "type": "uint256"
        }
      ],
      "name": "votes",
      "outputs": [
        {
          "internalType": "address",
          "name": "voter",
          "type": "address"
        },
        {
          "internalType": "string",
          "name": "label",
          "type": "string"
        },
        {
          "internalType": "bool",
          "name": "support",
          "type": "bool"
        },
        {
          "internalType": "uint256",
          "name": "timestamp",
          "type": "uint256"
        }
      ],
      "stateMutability": "view",
      "type": "function"
    },
    {
      "inputs": [],
      "name": "votingConsensus",
      "outputs": [
        {
          "internalType": "string",
          "name": "",
          "type": "string"
        }
      ],
      "stateMutability": "view",
      "type": "function"
    },
    {
      "inputs": [
        {
          "internalType": "string",
          "name": "",
          "type": "string"
        }
      ],
      "name": "votingSessions",
      "outputs": [
        {
          "internalType": "uint256",
          "name": "startTime",
          "type": "uint256"
        },
        {
          "internalType": "bool",
          "name": "isActive",
          "type": "bool"
        },
        {
          "internalType": "bool",
          "name": "isFinalized",
          "type": "bool"
        },
        {
          "internalType": "string",
          "name": "finalLabel",
          "type": "string"
        },
        {
          "internalType": "uint256",
          "name": "totalVoters",
          "type": "uint256"
        },
        {
          "internalType": "uint256",
          "name": "round",
          "type": "uint256"
        }
      ],
      "stateMutability": "view",
      "type": "function"
    },
    {
      "inputs": [],
      "name": "votingTimeoutSeconds",
      "outputs": [
        {
          "internalType": "uint256",
          "name": "",
          "type": "uint256"
        }
      ],
      "stateMutability": "view",
      "type": "function"
    },
    {
      "inputs": [
        {
          "internalType": "string",
          "name": "sampleId",
          "type": "string"
        }
      ],
      "name": "wasConsensusAchieved",
      "outputs": [
        {
          "internalType": "bool",
          "name": "",
          "type": "bool"
        }
      ],
      "stateMutability": "view",
      "type": "function"
    }
  ],
  "bytecode": "0x60806040523461029757614756803803806100198161029c565b9283398101906060818303126102975780516001600160a01b03811691908290036102975760208101516001600160401b03811161029757810183601f82011215610297578051906001600160401b03821161023557610082601f8301601f191660200161029c565b94828652602083830101116102975760005b82811061028257505060009084016020015260400151603360015590801561024b57600080546001600160a01b03191691909117905581516001600160401b03811161023557600354600181811c9116801561022b575b602082101461021557601f81116101b0575b50602092601f821160011461014b5792819293600092610140575b50508160011b916000199060031b1c1916176003555b60025560405161449490816102c28239f35b015190503880610118565b601f198216936003600052806000209160005b868110610198575083600195961061017f575b505050811b0160035561012e565b015160001960f88460031b161c19169055388080610171565b9192602060018192868501518155019401920161015e565b60036000527fc2575a0e9e593c00f959f8c92f12db2869c3395a3b0502d05e2516446f71f85b601f830160051c8101916020841061020b575b601f0160051c01905b8181106101ff57506100fd565b600081556001016101f2565b90915081906101e9565b634e487b7160e01b600052602260045260246000fd5b90607f16906100eb565b634e487b7160e01b600052604160045260246000fd5b60405162461bcd60e51b815260206004820152600f60248201526e496e76616c6964206164647265737360881b6044820152606490fd5b80602080928401015182828901015201610094565b600080fd5b6040519190601f01601f191682016001600160401b038111838210176102355760405256fe6080604052600436101561001257600080fd5b6000803560e01c806304574fe81461282657806326a0613a146127eb5780632d1bbc8e14612787578063367cb924146126235780634149738514612594578063414f8e7614612557578063428f83381461250957806350e2e8af146124c557806355d389a4146123e25780635c97951e146122a25780636042ad61146121e557806368acb1ab146121a357806372678fcc1461204057806375c255fc14611e2057806379c4ab1514611d9a578063805265e514611c3f5780638520eb7814611bd35780638a19c8bc14611bb55780639a6e81ab14611753578063a58df19a14611735578063a76fd84e14611630578063ab40d3ba14611560578063b28d92ae14611426578063b32c4d8d146113d4578063b49c447e1461135f578063b8c3903414611206578063cdbf3d0114610ebb578063db7cde8b14610d9d578063e7016ca714610d58578063e7dc0d1014610784578063f02a0f751461028e578063f18a5cec146101da578063f60ca60d146101b35763f9b0b5b91461019357600080fd5b346101b057806003193601126101b0576020600154604051908152f35b80fd5b50346101b057806003193601126101b057546040516001600160a01b039091168152602090f35b50346101b05760203660031901126101b057600435906001600160401b0382116101b05761022360206102103660048601612953565b816040519382858094519384920161299f565b81016007815203019020805460018201549161024160028201612a52565b61027f600460038401549301549160ff60405196879687528181161515602088015260081c161515604086015260c0606086015260c08501906129c2565b91608084015260a08301520390f35b50346101b05760603660031901126101b0576004356001600160401b038111610780576102bf903690600401612c99565b906024356001600160401b038111610780576102df903690600401612c99565b6044356001600160401b03811161077c576102fe903690600401612d17565b338352600460205260408320541561073e5783518251036106f95783518151036106b557913390805b8551811015610572578061033d60019288612f7b565b516103488287612f7b565b51906103548389612f7b565b5115159160405161038860ff878551936020818189019661037681838a61299f565b81016007815203019020015416612f8f565b6103b760ff8760405160208188516103a181838a61299f565b81016007815203019020015460081c1615612fd7565b6103ef60ff60406005815160208189516103d281838b61299f565b81016007815203019020016000908c825260205220541615613022565b6103f883613a24565b6105585760008051602061443f83398151915292916104bb91610458604051602081875161042781838861299f565b810160068152030190206040519061043e826128c9565b3382528460208301528860408301524260608301526130ad565b88848760408d60058251602081875161047281838d61299f565b81016007815203019020016000918252602052208b60ff198254161790556104d4575b5050506104ad604051936080855260808501906129c2565b9083820360208501526129c2565b9260408201524260608201528033930390a25b01610327565b60076105366020604061054e9561050f60066104ff858b6105469a875193849283925192839161299f565b81018a815203019020018a612b1c565b6105198154612eff565b905533815260048352205495604051809381928c5192839161299f565b8101848152030190200184612b1c565b918254612ef2565b9055388884610495565b505061056d915061056761306d565b90613a5e565b6104ce565b5084805161057e575080f35b61059261058c600492612f6e565b51612af6565b0154801515806106a6575b6105a5575080f35b815260086020526105bb60016040832001612e9a565b90805b82518110156106a057806105d460019285612f7b565b5160405160ff84835192602081818701956105f081838961299f565b81016007815203019020015416908161066d575b50610611575b50016105be565b61061a81613f49565b80511561065b5760008051602061441f8339815191529161064261063c613252565b82613a5e565b61065160405192839283612e72565b0390a15b8461060a565b506106689061056761321a565b610655565b60ff91506106896020869260405180938192885192839161299f565b81016007815203019020015460081c161586610604565b50905080f35b506106b081613ea2565b61059d565b606460405162461bcd60e51b815260206004820152602060248201527f4d69736d6174636865642073616d706c6549647320616e6420737570706f72746044820152fd5b60405162461bcd60e51b815260206004820152601f60248201527f4d69736d6174636865642073616d706c6549647320616e64206c6162656c73006044820152606490fd5b60405162461bcd60e51b81526020600482015260166024820152752737ba1030903932b3b4b9ba32b932b2103b37ba32b960511b6044820152606490fd5b8280fd5b5080fd5b50346101b05760403660031901126101b0576004356001600160401b038111610780576107b5903690600401612c99565b6024356107cc60018060a01b038454163314612f0e565b815115610d1e57808352600860205260ff600360408520015416610ccd578083526008602052806040842055808352600860205260016040842001825190600160401b8211610cb9578054828255808310610c43575b5084526020808520859185015b838310610b1e57505050508083526008602052826002604082200155808352600860205260036040842001600160ff19825416179055808352600860205242600460408520015580600955825b8251811015610ad25761088f8184612f7b565b516040519060ff6001825193602081818601966108ad81838a61299f565b81016007815203019020015416610a835760ff600160405160208185516108d581838a61299f565b81016007815203019020015460081c16610a435783600461099960208995604051865161090381838561299f565b8101906007825283814293030190205560016040518381895161092781838861299f565b8101600781520301902001600160ff1982541617905560016040518381895161095181838861299f565b810160078152030190200161ff00198154169055600554600360405184818a5161097c81838961299f565b81016007815203019020015560405180938192885192839161299f565b8101600781520301902001557f1a6063ea5a85373503082e9047ebbde10c2ef86a0029b81921668e4a2ea190e3604051806109d5428583612e56565b0390a181546001600160a01b0316803b1561077c5760405163b2be4d6560e01b8152602060048201529183918391829084908290610a179060248301906129c2565b03925af1610a2a575b505060010161087c565b81610a3491612915565b610a3f578338610a20565b8380fd5b60405162461bcd60e51b815260206004820152601860248201527714d85b5c1b1948185b1c9958591e48199a5b985b1a5e995960421b6044820152606490fd5b60405162461bcd60e51b815260206004820152602160248201527f53616d706c6520616c726561647920686173206163746976652073657373696f6044820152603760f91b6064820152608490fd5b50907f915b7f3f33ca682a46c0a82bcae59307624896b80801e6ea2c6e702a10499ece91610b126040519283928352606060208401526060830190612b5e565b4260408301520390a180f35b80518051906001600160401b038211610c2f57610b3b8454612a18565b601f8111610bf4575b5060209089601f8411600114610b8a578360019592946020948796610b709492610b7f575b505061309a565b85555b0192019201919061082f565b015190503880610b69565b50848a52818a209190601f1984168b5b818110610bdc5750936020936001969387969383889510610bc3575b505050811b018555610b73565b015160001960f88460031b161c19169055388080610bb6565b92936020600181928786015181550195019301610b9a565b610c1f90858b5260208b20601f850160051c81019160208610610c25575b601f0160051c0190612f57565b38610b44565b9091508190610c12565b634e487b7160e01b89526041600452602489fd5b818652826020872091820191015b818110610c5e5750610822565b80610c6b60019254612a18565b80610c78575b5001610c51565b601f81118314610c8d57508781555b38610c71565b81895260208920610ca891601f0160051c8101908401612f57565b808852876020812081835555610c87565b634e487b7160e01b85526041600452602485fd5b60405162461bcd60e51b815260206004820152602360248201527f426174636820616c72656164792061637469766520666f72207468697320726f6044820152621d5b9960ea1b6064820152608490fd5b60405162461bcd60e51b815260206004820152601260248201527108adae0e8f240e6c2dae0d8ca40c4c2e8c6d60731b6044820152606490fd5b50346101b05760203660031901126101b057600435906001600160401b0382116101b0576020610d93610d8e3660048601612953565b613975565b6040519015158152f35b50346101b05760203660031901126101b0576004356001600160401b03811161078057610dce903690600401612953565b60405181519060208181850193610de681838761299f565b8101600781520301902090836005549060058401905b828110610e6e575050506002610e2e6020610e409360ff600187015460081c169660405193849283925192839161299f565b81016006815203019020549201612a52565b92610e5f604051948594151585526080602086015260808501906129c2565b91604084015260608301520390f35b60ff6040610e7b836129e7565b905460039190911b1c6001600160a01b031660009081526020859052205416610ea7575b600101610dfc565b95610eb3600191612eff565b969050610e9f565b50346101b05760603660031901126101b0576004356001600160401b03811161078057610eec903690600401612bce565b6024356001600160401b03811161077c57610f0b903690600401612c99565b6044356001600160401b038111610a3f57610f2a903690600401612c3c565b9282518251036111b6578251845103611165578093815b8451811015610feb57610f548185612f7b565b5160208151910120610f646138ae565b60208151910120148015610fc3575b8015610f9b575b610f87575b600101610f41565b94610f93600191612eff565b959050610f7f565b50610fa68185612f7b565b5160208151910120610fb66138fc565b6020815191012014610f7a565b50610fce8185612f7b565b5160208151910120610fde6138d3565b6020815191012014610f73565b509092610ff785612bb7565b906110056040519283612915565b85825261102661101487612bb7565b602084019790601f1901368937613622565b938596865b835181101561110b5761103e8184612f7b565b516020815191012061104e6138ae565b602081519101201480156110e3575b80156110bb575b611071575b60010161102b565b976001906110b3906001600160a01b0361108b8c88612f7b565b51166110978289612f7b565b526110a28b89612f7b565b516110ad828b612f7b565b52612eff565b989050611069565b506110c68184612f7b565b51602081519101206110d66138fc565b6020815191012014611064565b506110ee8184612f7b565b51602081519101206110fe6138d3565b602081519101201461105d565b5083868860405192604084019060408552518091526060840194915b81811061114657848061114288878382036020850152612d7e565b0390f35b82516001600160a01b0316865260209586019590920191600101611127565b60405162461bcd60e51b8152602060048201526024808201527f5061727469636970616e74732f77656967687473206c656e677468206d69736d6044820152630c2e8c6d60e31b6064820152608490fd5b60405162461bcd60e51b815260206004820152602260248201527f5061727469636970616e74732f726f6c6573206c656e677468206d69736d61746044820152610c6d60f31b6064820152608490fd5b50346101b05760203660031901126101b05760043561122f60018060a01b038354163314612f0e565b808252600860205260ff60036040842001541615611327578152600860205261125d60016040832001612e9a565b815b8151811015611323578061127560019284612f7b565b5160405160ff848351926020818187019561129181838961299f565b8101600781520301902001541690816112f0575b506112b2575b500161125f565b6112ea906040906112c582519283612915565b60138252724d616e75616c20626174636820656e64696e6760681b6020830152613a5e565b386112ab565b60ff915061130c6020869260405180938192885192839161299f565b81016007815203019020015460081c1615386112a5565b8280f35b60405162461bcd60e51b815260206004820152601060248201526f4261746368206e6f742061637469766560801b6044820152606490fd5b50346101b05760203660031901126101b057600435906001600160401b0382116101b0576113b86113c66111426113a161139c3660048801612953565b613654565b919390604051958695606087526060870190612b5e565b908582036020870152612d7e565b908382036040850152612d7e565b50346101b05760203660031901126101b05760406080916004358152600860205220805490600281015490600460ff600383015416910154916040519384526020840152151560408301526060820152f35b50346101b057806003193601126101b05760055461144381612bb7565b906114516040519283612915565b808252601f1961146082612bb7565b01835b81811061153d575050825b8181106114d0578284604051918291602083016020845282518091526020604085019301915b8181106114a2575050500390f35b825180516001600160a01b031685526020908101518186015286955060409094019390920191600101611494565b806114dc6001926129e7565b838060a01b0391549060031b1c166114f3826129e7565b848060a01b0391549060031b1c168652600460205260408620546040519161151a836128fa565b8252602082015261152b8286612f7b565b526115368185612f7b565b500161146e565b60209060405161154c816128fa565b868152868382015282828701015201611463565b50346101b05760a03660031901126101b0576004356001600160401b03811161078057611591903690600401612c99565b6024356001600160401b03811161077c576115b0903690600401612d17565b91604435906001600160401b0382116101b0576116056116216116136115eb87876115de3660048a01612c99565b608435926064359261334a565b93959260409591955197889760a0895260a0890190612b5e565b908782036020890152612b5e565b908582036040870152612b5e565b91606084015260808301520390f35b50346101b05760603660031901126101b0576024356001600160401b03811161078057611661903690600401612c99565b6044356001600160401b03811161077c57611680903690600401612d17565b9161168e8251845114613281565b80805b83518210156116e2576116a48286612f7b565b51156116be576116b5600191612eff565b915b0190611691565b9083516116ce575b6001906116b7565b916116da600191612eff565b9290506116c6565b835183811515868161172b575b61171f9192604051958695600435875260208701526040860152606085015260c0608085015260c0840190612b5e565b90151560a08301520390f35b84151591506116ef565b50346101b057806003193601126101b0576020600254604051908152f35b50346101b05760603660031901126101b0576004356001600160401b03811161078057611784903690600401612c99565b6024356001600160401b03811161077c576117a3903690600401612c99565b6044356001600160a01b0381169190829003610a3f576117cd60018060a01b038554163314612f0e565b8251815103611b7c57825115611b49578184526004602052604084205415611b0d578392845b81518110156119f6576118068183612f7b565b51866118128386612f7b565b5160405161183260ff6001865193602081818a019661037681838a61299f565b61184c60ff600160405160208189516103a181838a61299f565b61186760ff6040600581516020818a516103d281838b61299f565b84156119bb575b918391889361187f60019796613a24565b6119a65760008051602061443f833981519152939291611990916118e060405160208188516118af81838861299f565b81016006815203019020604051906118c6826128c9565b8982528460208301528b60408301524260608301526130ad565b60406005815160208189516118f681838961299f565b8101600781520301902001600090898252602052208960ff1982541617905561193e6006604051602081895161192d81838961299f565b810160078152030190200183612b1c565b6119488154612eff565b9055868452600460205261197661054660076105366020604089205495604051809381928d5192839161299f565b90556104ad604051948594506080855260808501906129c2565b8660408301524260608301520390a25b016117f3565b5050506119b6915061056761306d565b6119a0565b97509186916001949360046119dd60208c60405180938192895192839161299f565b810160078152030190200154999193509193945061186e565b858580151580611afe575b611a09575080f35b81526008602052611a1f60016040832001612e9a565b90805b82518110156106a05780611a3860019285612f7b565b5160405160ff8483519260208181870195611a5481838961299f565b810160078152030190200154169081611acb575b50611a75575b5001611a22565b611a7e81613f49565b805115611ab95760008051602061441f83398151915291611aa061063c613252565b611aaf60405192839283612e72565b0390a15b84611a6e565b50611ac69061056761321a565b611ab3565b60ff9150611ae76020869260405180938192885192839161299f565b81016007815203019020015460081c161586611a68565b50611b0881613ea2565b611a01565b60405162461bcd60e51b8152602060048201526014602482015273159bdd195c881b9bdd081c9959da5cdd195c995960621b6044820152606490fd5b60405162461bcd60e51b815260206004820152600b60248201526a08adae0e8f240c4c2e8c6d60ab1b6044820152606490fd5b60405162461bcd60e51b81526020600482015260116024820152704d69736d6174636865642061727261797360781b6044820152606490fd5b50346101b057806003193601126101b0576020600954604051908152f35b50346101b057806003193601126101b0576040600954918281526008602052209061114260ff6003840154169260018101611c146002825493015491612e9a565b916040519586958652151560208601526040850152606084015260a0608084015260a0830190612b5e565b50346101b05760203660031901126101b0576004356001600160401b038111610780576020610210611c75923690600401612953565b810160068152030190208054611c8a81612bb7565b90611c986040519283612915565b80825260208201809385526020852085915b838310611d4657868587604051928392602084019060208552518091526040840160408260051b8601019392905b828210611ce757505050500390f35b919360019193955060208091603f19898203018552875190848060a01b038251168152606080611d248585015160808786015260808501906129c2565b9360408101511515604085015201519101529601920192018594939192611cd8565b60046020600192604051611d59816128c9565b848060a01b038654168152611d6f858701612a52565b8382015260ff6002870154161515604082015260038601546060820152815201920192019190611caa565b50346101b05760203660031901126101b057600435906001600160401b0382116101b057611dd060206102103660048601612953565b810160078152030190208054611142611df0600260018501549401612a52565b60ff60405194859485528181161515602086015260081c16151560408401526080606084015260808301906129c2565b50346101b05760403660031901126101b0576004356001600160401b03811161078057611e51903690600401612bce565b6024356001600160401b03811161077c57611e70903690600401612c3c565b611e8460018060a01b038454163314612f0e565b815181510361200657825b600554811015611ec65780611ea56001926129e7565b838060a01b0391549060031b1c168552600460205284604081205501611e8f565b50906005548360055580611fce575b50825b8151811015611fca57611eeb8184612f7b565b5115611f8557611efb8184612f7b565b516001600160a01b03611f0e8385612f7b565b51168552600460205260408520556001600160a01b03611f2e8284612f7b565b5116600554600160401b811015611f715790611f52826001809594016005556129e7565b819291549060031b91821b91858060a01b03901b191617905501611ed8565b634e487b7160e01b86526041600452602486fd5b60405162461bcd60e51b815260206004820152601d60248201527f576569676874206d7573742062652067726561746572207468616e20300000006044820152606490fd5b8380f35b60058452612000907f036b6384b5eca791c62761152d0c79bb0604c104a5fb6f4eb0703f3154bb3db090810190612f57565b38611ed5565b60405162461bcd60e51b81526020600482015260126024820152714d69736d617463686564206c656e6774687360701b6044820152606490fd5b50346101b05760203660031901126101b0576004356001600160401b038111610780576020610210612076923690600401612953565b81016007815203019020908060025480151580612195575b80612183575b61215e575b50819260055460058201945b81811061211157505060ff93506001810154928154926120f86120cf600260038601549501612a52565b6040519787818a99161515895260081c161515602088015260e0604088015260e08701906129c2565b936060860152608085015260a084015260c08301520390f35b60ff604061211e836129e7565b905460039190911b1c6001600160a01b03166000908152602089905220541661214a575b6001016120a5565b93612156600191612eff565b949050612142565b612169908454612ef2565b804210156120995761217d91504290612db2565b38612099565b5060ff600185015460081c1615612094565b5060ff60018501541661208e565b50346101b05760203660031901126101b0576121d16001604061114293600435815260086020522001612e9a565b604051918291602083526020830190612b5e565b50346101b05760403660031901126101b0576004356001600160401b03811161078057612216903690600401612953565b612232602060243592816040519382858094519384920161299f565b81016006815203019020805482101561077c5761224f9250612b42565b5080546001600160a01b031661226760018301612a52565b91600360ff60028301541691015461229160405194859485526080602086015260808501906129c2565b911515604084015260608301520390f35b50346101b05760403660031901126101b0576004356001600160401b038111610780576122d3903690600401612953565b906024356001600160401b038111610780576122f3903690600401612953565b3033036123a85781546001600160a01b031692833b1561077c5782604051809563160c220d60e31b825281838161232e888860048401612e72565b03925af1612393575b825492935083926001600160a01b031691823b1561238e57612372928492836040518096819582946314faf32d60e11b845260048401612e72565b03925af161237d5750f35b8161238791612915565b6101b05780f35b505050fd5b919092816123a091612915565b908290612337565b60405162461bcd60e51b8152602060048201526012602482015271496e7465726e616c2063616c6c206f6e6c7960701b6044820152606490fd5b50346101b057806003193601126101b05760405190806003549061240582612a18565b808552916001811690811561249e5750600114612441575b6111428461242d81860382612915565b6040519182916020835260208301906129c2565b600381527fc2575a0e9e593c00f959f8c92f12db2869c3395a3b0502d05e2516446f71f85b939250905b8082106124845750909150810160200161242d8261241d565b91926001816020925483858801015201910190929161246b565b60ff191660208087019190915292151560051b8501909201925061242d915083905061241d565b50346101b05760203660031901126101b057600435906005548210156101b05760206124f0836129e7565b905460405160039290921b1c6001600160a01b03168152f35b50346101b05760203660031901126101b057600435906001600160401b0382116101b05761114261242d600261254760206102103660048901612953565b8101600781520301902001612a52565b50346101b05760203660031901126101b0576004356001600160a01b03811690819003610780578160409160209352600483522054604051908152f35b50346101b05760403660031901126101b0576004356001600160401b038111610780576125c5903690600401612953565b602435906001600160a01b038216820361077c5760209260ff9260056125fa866040958187519382858094519384920161299f565b6007908201908152030190206001600160a01b0390921683520184522054604051911615158152f35b50346101b05760203660031901126101b0576004356001600160401b03811161078057612654903690600401612953565b6126b560ff600161269f602060405161268e85858951938581818d019661267c81838a61299f565b81016007815203019020015416612dd5565b60405180938192895192839161299f565b81016007815203019020015460081c1615612e16565b6126be81613a24565b15612748576127427ffe2a617c3a0856bbd203e77cee3d518a00f599c8a955224e80b1d0a1afd95703916127346040516126f9606082612915565b602281527f54696d656f75742072656163686564202d2065787465726e616c20747269676760208201526132b960f11b604082015282613a5e565b604051918291429083612e56565b0390a180f35b60405162461bcd60e51b8152602060048201526017602482015276151a5b595bdd5d081b9bdd081c995858da1959081e595d604a1b6044820152606490fd5b50346101b05760203660031901126101b057604060a091600435815260086020522060ff60038201541690600181015490600281015460046127c98285612db2565b9201549260405194151585526020850152604084015260608301526080820152f35b50346101b05760203660031901126101b057600435906001600160401b0382116101b0576020610d936128213660048601612953565b613a24565b50346101b05760203660031901126101b057600435906001600160401b0382116101b05760206128593660048501612953565b60405160ff600183519285818187019561287481838961299f565b810160078152030190200154169182612894575b50506040519015158152f35b60ff9250836001926128b19260405193849283925192839161299f565b81016007815203019020015460081c16158280612888565b608081019081106001600160401b038211176128e457604052565b634e487b7160e01b600052604160045260246000fd5b604081019081106001600160401b038211176128e457604052565b601f909101601f19168101906001600160401b038211908210176128e457604052565b6001600160401b0381116128e457601f01601f191660200190565b81601f8201121561299a5780359061296a82612938565b926129786040519485612915565b8284526020838301011161299a57816000926020809301838601378301015290565b600080fd5b60005b8381106129b25750506000910152565b81810151838201526020016129a2565b906020916129db8151809281855285808601910161299f565b601f01601f1916010190565b600554811015612a0257600560005260206000200190600090565b634e487b7160e01b600052603260045260246000fd5b90600182811c92168015612a48575b6020831014612a3257565b634e487b7160e01b600052602260045260246000fd5b91607f1691612a27565b9060405191826000825492612a6684612a18565b8084529360018116908115612ad45750600114612a8d575b50612a8b92500383612915565b565b90506000929192526020600020906000915b818310612ab8575050906020612a8b9282010138612a7e565b6020919350806001915483858901015201910190918492612a9f565b905060209250612a8b94915060ff191682840152151560051b82010138612a7e565b6020612b0f91816040519382858094519384920161299f565b8101600781520301902090565b602090612b3692826040519483868095519384920161299f565b82019081520301902090565b8054821015612a025760005260206000209060021b0190600090565b9080602083519182815201916020808360051b8301019401926000915b838310612b8a57505050505090565b9091929394602080612ba8600193601f1986820301875289516129c2565b97019301930191939290612b7b565b6001600160401b0381116128e45760051b60200190565b9080601f8301121561299a57813590612be682612bb7565b92612bf46040519485612915565b82845260208085019360051b82010191821161299a57602001915b818310612c1c5750505090565b82356001600160a01b038116810361299a57815260209283019201612c0f565b9080601f8301121561299a578135612c5381612bb7565b92612c616040519485612915565b81845260208085019260051b82010192831161299a57602001905b828210612c895750505090565b8135815260209182019101612c7c565b9080601f8301121561299a578135612cb081612bb7565b92612cbe6040519485612915565b81845260208085019260051b8201019183831161299a5760208201905b838210612cea57505050505090565b81356001600160401b03811161299a57602091612d0c87848094880101612953565b815201910190612cdb565b9080601f8301121561299a57813590612d2f82612bb7565b92612d3d6040519485612915565b82845260208085019360051b82010191821161299a57602001915b818310612d655750505090565b8235801515810361299a57815260209283019201612d58565b906020808351928381520192019060005b818110612d9c5750505090565b8251845260209384019390920191600101612d8f565b91908203918211612dbf57565b634e487b7160e01b600052601160045260246000fd5b15612ddc57565b60405162461bcd60e51b815260206004820152601260248201527153657373696f6e206e6f742061637469766560701b6044820152606490fd5b15612e1d57565b60405162461bcd60e51b8152602060048201526011602482015270105b1c9958591e48199a5b985b1a5e9959607a1b6044820152606490fd5b929190612e6d6020916040865260408601906129c2565b930152565b9091612e89612e97936040845260408401906129c2565b9160208184039101526129c2565b90565b908154612ea681612bb7565b92612eb46040519485612915565b818452602084019060005260206000206000915b838310612ed55750505050565b600160208192612ee485612a52565b815201920192019190612ec8565b91908201809211612dbf57565b6000198114612dbf5760010190565b15612f1557565b60405162461bcd60e51b815260206004820152601a60248201527913db9b1e481b585a5b881c1c9bda9958dd0818d85b8818d85b1b60321b6044820152606490fd5b818110612f62575050565b60008155600101612f57565b805115612a025760200190565b8051821015612a025760209160051b010190565b15612f9657565b60405162461bcd60e51b8152602060048201526019602482015278566f74696e672073657373696f6e206e6f742061637469766560381b6044820152606490fd5b15612fde57565b606460405162461bcd60e51b815260206004820152602060248201527f566f74696e672073657373696f6e20616c72656164792066696e616c697a65646044820152fd5b1561302957565b60405162461bcd60e51b815260206004820152601c60248201527b416c726561647920766f746564206f6e20746869732073616d706c6560201b6044820152606490fd5b6040519061307c604083612915565b600f82526e151a5b595bdd5d081c995858da1959608a1b6020830152565b8160011b916000199060031b1c19161790565b8054600160401b8110156128e4576130ca91600182018155612b42565b91909161320457805182546001600160a01b0319166001600160a01b03919091161782556020810151805160018401916001600160401b0382116128e4576131128354612a18565b601f81116131d2575b50602090601f83116001146131665782600395936060959361314593600092610b7f57505061309a565b90555b600284016040820151151560ff801983541691161790550151910155565b90601f1983169184600052816000209260005b8181106131ba57509260019285926003989660609896106131a2575b505050811b019055613148565b015160001983891b60f8161c19169055388080613195565b92936020600181928786015181550195019301613179565b6131fe90846000526020600020601f850160051c81019160208610610c2557601f0160051c0190612f57565b3861311b565b634e487b7160e01b600052600060045260246000fd5b60405190613229604083612915565b601a825279082d8d840ecdee8cae4e640c6dedae0d8cae8cac840c4c2e8c6d60331b6020830152565b60405190613261604083612915565b601182527010dbdb9cd95b9cdd5cc81c995858da1959607a1b6020830152565b1561328857565b60405162461bcd60e51b815260206004820152600f60248201526e098cadccee8d040dad2e6dac2e8c6d608b1b6044820152606490fd5b604051906132ce602083612915565b600080835282815b8281106132e257505050565b8060606020809385010152016132d6565b906132fd82612bb7565b61330a6040519182612915565b828152809261331b601f1991612bb7565b019060005b82811061332c57505050565b806060602080938501015201613320565b5190811515820361299a57565b929194909461335c8451875114613281565b60009360005b8151811015613397576133758189612f7b565b51613383575b600101613362565b9461338f600191612eff565b95905061337b565b5091939490929480156135f7576133ad906132f3565b9360009360005b845181101561340a576133c7818a612f7b565b516133d5575b6001016133b4565b946134026001916133e68888612f7b565b516133f1828b612f7b565b526133fc818a612f7b565b50612eff565b9590506133cd565b509350949150945061341c83516132f3565b9460005b845181101561349a578061343660019287612f7b565b5161347e603060405180936f029b0b6b83632903230ba30903337b9160851b602083015261346d815180926020868601910161299f565b81010301601f198101835282612915565b613488828a612f7b565b526134938189612f7b565b5001613420565b509193909260009381516134b1575b509493929190565b6134e1856134be84612f6e565b51604051809381926379c4ab1560e01b83526020600484015260248301906129c2565b0381305afa9081156135ec57869187918891613543575b508161353a575b5061350b575b506134a9565b6135189095929542612db2565b9080821061352b5750505b923880613505565b6135359250612db2565b613523565b905015386134ff565b925050503d8087833e6135568183612915565b8101906080818303126135e85780516135716020830161333d565b9261357e6040840161333d565b606084015190936001600160401b0382116135e0570181601f820112156135e4578051916135ab83612938565b906135b96040519283612915565b838252602084840101116135e057906020806135d8949301910161299f565b9190386134f8565b8a80fd5b8980fd5b8680fd5b6040513d88823e3d90fd5b509450505090506136066132bf565b9061360f6132bf565b926136186132bf565b9293929160009190565b9061362c82612bb7565b6136396040519182612915565b828152809261364a601f1991612bb7565b0190602036910137565b6040518151906020818185019361366c81838761299f565b8101600681520301902091825461368281612bb7565b936136906040519586612915565b818552602085019060005260206000206000915b83831061385a57505050506136c79160209160405193849283925192839161299f565b8101600781520301902090805115613819576136e381516132f3565b90600093845b82518110156137755760206136fe8285612f7b565b510151600060208201815b898110613746575b505015613722575b506001016136e9565b8661373f916137346001949988612f7b565b526133fc8187612f7b565b9590613719565b6137508189612f7b565b5160208151910120845183201461376957600101613709565b50505060013880613711565b509192939050613784816132f3565b9061378e81613622565b9461379882613622565b94600782019160060160005b8481106137b5575050505050929190565b806137c260019285612f7b565b516137cd8289612f7b565b526137d88188612f7b565b506137ed836137e78387612f7b565b51612b1c565b546137f8828c612f7b565b52613807856137e78387612f7b565b54613812828b612f7b565b52016137a4565b50506138236132bf565b604051916020916138348385612915565b6000845260003681376040519261384b8185612915565b60008452506000368137929190565b6004602060019260405161386d816128c9565b848060a01b038654168152613883858701612a52565b8382015260ff60028701541615156040820152600386015460608201528152019201920191906136a4565b604051906138bd604083612915565b600782526631b932b0ba37b960c91b6020830152565b604051906138e2604083612915565b600b82526a31b7b73a3934b13aba37b960a91b6020830152565b6040519061390b604083612915565b600b82526a31b7b7b93234b730ba37b960a91b6020830152565b60405190613934604083612915565b600c82526b4e4f5f434f4e53454e53555360a01b6020830152565b6040519061395e604083612915565b60088252674e4f5f564f54455360c01b6020830152565b60405160ff60018351926020818187019561399181838961299f565b81016007815203019020015460081c16156139e357600261254760206139c29360405180938192885192839161299f565b80518015908115613a07575b5080156139ea575b6139e357612e97916140fa565b5050600090565b50805160208201206139fa61394f565b60208151910120146139d6565b90506020820120613a16613925565b6020815191012014386139ce565b60025480156139e357613a496020613a5993816040519382858094519384920161299f565b8101600781520301902054612ef2565b421190565b906000604051613a8060ff6001865193602081818a019661267c81838a61299f565b613a9a60ff6001604051602081895161269f81838a61299f565b60016040516020818751613aaf81838861299f565b810160078152030190200160ff19815416905560016040516020818751613ad781838861299f565b810160078152030190200161010061ff0019825416179055613af884614282565b9260026040516020818851613b0e81838961299f565b8101600781520301902001845160018060401b038111610cb957613b328254612a18565b601f8111613e72575b506020601f8211600114613df657613beb613bff94602094613b7885600499966000805160206143ff833981519152968c91613deb575b5061309a565b90555b7f8a0cc662156da5580404150064cc81955de64ef5a8090364795edcbac842999160405180613bac8d429083612e56565b0390a160405191829160808352613bd7613bca8d60808601906129c2565b848103898601528c6129c2565b9042604085015283820360608501526129c2565b0390a160405180938192895192839161299f565b81016007815203019020015480151580613dd2575b613caf575b50303b156101b057604051632e4bca8f60e11b815290808280613c40868860048401612e72565b038183305af19182613c9f575b5050613c57575050565b7fdabbbde127ef4ac1b0a84891a674bfc7b3ceff8d1e7350abd0f7c48021420d3291613c946104ad926040519384936060855260608501906129c2565b4260408301520390a1565b81613ca991612915565b38613c4d565b808252600860205260026040832001613cc88154612eff565b905580825260086020527f145f86831bf675d553efc81172882ecdb1776f5bdfa7f1b8367ad08b57888740613d1460016040852001548385526008602052600260408620015490612db2565b604051809184825260806020830152613d41613d33608084018a6129c2565b8381036040850152886129c2565b9060608301520390a1808252600860205260026040832001548183526008602052600160408420015411613c19576060817fcdf3a25ac86d8c6a422a8356f0fb7d6cc09b23caca39fd699cbc6038e558736492845260086020526003604085200160ff198154169055808452600860205260026040852001546040519182526020820152426040820152a138613c19565b50808252600860205260ff600360408420015416613c14565b90508c015138613b72565b82865280862090601f198316875b818110613e5a5750946020946001856000805160206143ff83398151915295613beb9560049b98613bff9b10613e41575b5050811b019055613b7b565b8d015160001960f88460031b161c191690553880613e35565b9192602060018192868d015181550194019201613e04565b613e9c9083875260208720601f840160051c81019160208510610c2557601f0160051c0190612f57565b38613b3b565b6000526008602052613eba6001604060002001612e9a565b805115613f43576005546000915b818310613ed757505050600190565b613ee0836129e7565b905460039190911b1c6001600160a01b03169160005b8251811015613f365760ff60406005613f1261058c8588612f7b565b0160009087825260205220541615613f2c57600101613ef6565b5050505050600090565b5091509160010191613ec8565b50600090565b6060916040516020818451613f61818385890161299f565b81016006815203019020805490613f7782612bb7565b94613f856040519687612915565b82865260208601916000526020600020906000925b8484106140a757505050505082511561409657613fb783516132f3565b90600090815b855181101561403e576020613fd28288612f7b565b510151600060208201815b86811061400f575b505015613ff6575b50600101613fbd565b83614008916137346001949688612f7b565b9290613fed565b6140198189612f7b565b5160208151910120845183201461403257600101613fdd565b50505060013880613fe5565b5093509160005b838110614065575050505060405161405e602082612915565b6000815290565b6140796140728285612f7b565b51836140fa565b61408557600101614045565b9190506140929250612f7b565b5190565b91505060405161405e602082612915565b600460206001926040516140ba816128c9565b848060a01b0387541681526140d0858801612a52565b8382015260ff60028801541615156040820152600387015486820152815201930193019291613f9a565b602061411691939293816040519382858094519384920161299f565b81016006815203019020805461412b81612bb7565b916141396040519384612915565b818352602083019060005260206000206000915b83831061422e57505050508051156142275760009081825b82518110156141cc57602061417a8285612f7b565b510151602081519101208651602088012014614199575b600101614165565b906141a390612eff565b9060406141b08285612f7b565b5101511561419157926141c4600191612eff565b939050614191565b509091929350801561421f5782146141e5575050600090565b51606482029180830460641490151715612dbf578015614209576001549104101590565b634e487b7160e01b600052601260045260246000fd5b505050600090565b5060009150565b60046020600192604051614241816128c9565b848060a01b038654168152614257858701612a52565b8382015260ff600287015416151560408201526003860154606082015281520192019201919061414d565b6060906040518151906020818185019361429d81838761299f565b810160068152030190208054906142b382612bb7565b946142c16040519687612915565b82865260208601916000526020600020906000925b8484106143ab5750505050508251156143a05760206143039160079360405193849283925192839161299f565b8101848152030190200160209260405161431e602082612915565b600081529260009160005b825181101561438357604061433e8285612f7b565b51015161434e575b600101614329565b866143598285612f7b565b5101516143668682612b1c565b54858111614376575b5050614346565b909650935060013861436f565b509450505050805115156000146143975790565b50612e97613925565b505050612e9761394f565b600460206001926040516143be816128c9565b848060a01b0387541681526143d4858801612a52565b8382015260ff600288015416151560408201526003870154868201528152019301930192916142d656fea8e1279888c174a6fbf4fd42a8be4469b313be30a5edac87aff45c5f8a450deb0cc62c8b09788a11d11e96187c34c67fad5e9651cadc6ace24e1518490bed9812579d0860b48f37c239a6db657bad6560c277bbce0a8a989d70227407fc62e06a2646970667358221220e6bd72bfb3045fecda8b32fd7c21a6e258b4d613470f8212a595de3e9534340964736f6c634300081c0033",
  "linkReferences": {},
  "deployedLinkReferences": {}
}