{
  "_format": "hh-sol-artifact-1",
  "contractName": "ALProjectStorage",
  "sourceName": "contracts/ALProjectStorage.sol",
  "abi": [
    {
      "inputs": [
        {
          "internalType": "address",
          "name": "_project",
          "type": "address"
        }
      ],
      "stateMutability": "nonpayable",
      "type": "constructor"
    },
    {
      "anonymous": false,
      "inputs": [
        {
          "indexed": false,
          "internalType": "string",
          "name": "sampleId",
          "type": "string"
        },
        {
          "indexed": false,
          "internalType": "uint256",
          "name": "round",
          "type": "uint256"
        },
        {
          "indexed": false,
          "internalType": "string",
          "name": "finalLabel",
          "type": "string"
        }
      ],
      "name": "AutoHistoryRecorded",
      "type": "event"
    },
    {
      "anonymous": false,
      "inputs": [
        {
          "indexed": false,
          "internalType": "string",
          "name": "sampleId",
          "type": "string"
        },
        {
          "indexed": false,
          "internalType": "string",
          "name": "label",
          "type": "string"
        },
        {
          "indexed": false,
          "internalType": "string",
          "name": "ipfsHash",
          "type": "string"
        },
        {
          "indexed": false,
          "internalType": "uint256",
          "name": "round",
          "type": "uint256"
        },
        {
          "indexed": false,
          "internalType": "uint256",
          "name": "timestamp",
          "type": "uint256"
        }
      ],
      "name": "LabelFinalized",
      "type": "event"
    },
    {
      "anonymous": false,
      "inputs": [
        {
          "indexed": false,
          "internalType": "string",
          "name": "sampleId",
          "type": "string"
        },
        {
          "indexed": false,
          "internalType": "uint256",
          "name": "round",
          "type": "uint256"
        },
        {
          "indexed": false,
          "internalType": "string",
          "name": "finalLabel",
          "type": "string"
        },
        {
          "indexed": false,
          "internalType": "uint256",
          "name": "voteCount",
          "type": "uint256"
        }
      ],
      "name": "VotingHistoryRecorded",
      "type": "event"
    },
    {
      "inputs": [
        {
          "internalType": "string",
          "name": "sampleId",
          "type": "string"
        },
        {
          "internalType": "string",
          "name": "label",
          "type": "string"
        },
        {
          "internalType": "uint256",
          "name": "round",
          "type": "uint256"
        },
        {
          "internalType": "string",
          "name": "justification",
          "type": "string"
        },
        {
          "internalType": "string",
          "name": "ipfsHash",
          "type": "string"
        }
      ],
      "name": "autoRecordFinalizedLabel",
      "outputs": [],
      "stateMutability": "nonpayable",
      "type": "function"
    },
    {
      "inputs": [
        {
          "internalType": "string",
          "name": "",
          "type": "string"
        }
      ],
      "name": "finalLabels",
      "outputs": [
        {
          "internalType": "string",
          "name": "sampleId",
          "type": "string"
        },
        {
          "internalType": "string",
          "name": "label",
          "type": "string"
        },
        {
          "internalType": "uint256",
          "name": "round",
          "type": "uint256"
        },
        {
          "internalType": "string",
          "name": "justification",
          "type": "string"
        },
        {
          "internalType": "string",
          "name": "ipfsHash",
          "type": "string"
        },
        {
          "internalType": "uint256",
          "name": "timestamp",
          "type": "uint256"
        }
      ],
      "stateMutability": "view",
      "type": "function"
    },
    {
      "inputs": [],
      "name": "getAllFinalizedSamples",
      "outputs": [
        {
          "internalType": "string[]",
          "name": "",
          "type": "string[]"
        }
      ],
      "stateMutability": "view",
      "type": "function"
    },
    {
      "inputs": [
        {
          "internalType": "string",
          "name": "sampleId",
          "type": "string"
        }
      ],
      "name": "getFinalLabel",
      "outputs": [
        {
          "internalType": "string",
          "name": "label",
          "type": "string"
        },
        {
          "internalType": "uint256",
          "name": "round",
          "type": "uint256"
        },
        {
          "internalType": "string",
          "name": "justification",
          "type": "string"
        },
        {
          "internalType": "string",
          "name": "ipfsHash",
          "type": "string"
        },
        {
          "internalType": "uint256",
          "name": "timestamp",
          "type": "uint256"
        }
      ],
      "stateMutability": "view",
      "type": "function"
    },
    {
      "inputs": [
        {
          "internalType": "string",
          "name": "sampleId",
          "type": "string"
        }
      ],
      "name": "getLabelHistory",
      "outputs": [
        {
          "internalType": "string[]",
          "name": "",
          "type": "string[]"
        }
      ],
      "stateMutability": "view",
      "type": "function"
    },
    {
      "inputs": [],
      "name": "getTotalFinalizedCount",
      "outputs": [
        {
          "internalType": "uint256",
          "name": "",
          "type": "uint256"
        }
      ],
      "stateMutability": "view",
      "type": "function"
    },
    {
      "inputs": [
        {
          "internalType": "string",
          "name": "sampleId",
          "type": "string"
        },
        {
          "internalType": "uint256",
          "name": "historyIndex",
          "type": "uint256"
        },
        {
          "internalType": "uint256",
          "name": "voteIndex",
          "type": "uint256"
        }
      ],
      "name": "getVoteFromHistory",
      "outputs": [
        {
          "internalType": "address",
          "name": "voter",
          "type": "address"
        },
        {
          "internalType": "string",
          "name": "label",
          "type": "string"
        }
      ],
      "stateMutability": "view",
      "type": "function"
    },
    {
      "inputs": [
        {
          "internalType": "string",
          "name": "sampleId",
          "type": "string"
        },
        {
          "internalType": "uint256",
          "name": "index",
          "type": "uint256"
        }
      ],
      "name": "getVotingHistoryByIndex",
      "outputs": [
        {
          "internalType": "uint256",
          "name": "round",
          "type": "uint256"
        },
        {
          "internalType": "string",
          "name": "finalLabel",
          "type": "string"
        },
        {
          "internalType": "uint256",
          "name": "timestamp",
          "type": "uint256"
        },
        {
          "internalType": "uint256",
          "name": "voteCount",
          "type": "uint256"
        }
      ],
      "stateMutability": "view",
      "type": "function"
    },
    {
      "inputs": [
        {
          "internalType": "string",
          "name": "sampleId",
          "type": "string"
        }
      ],
      "name": "getVotingHistoryCount",
      "outputs": [
        {
          "internalType": "uint256",
          "name": "",
          "type": "uint256"
        }
      ],
      "stateMutability": "view",
      "type": "function"
    },
    {
      "inputs": [
        {
          "internalType": "string",
          "name": "sampleId",
          "type": "string"
        }
      ],
      "name": "hasFinalLabel",
      "outputs": [
        {
          "internalType": "bool",
          "name": "",
          "type": "bool"
        }
      ],
      "stateMutability": "view",
      "type": "function"
    },
    {
      "inputs": [
        {
          "internalType": "string",
          "name": "",
          "type": "string"
        },
        {
          "internalType": "uint256",
          "name": "",
          "type": "uint256"
        }
      ],
      "name": "historyBySample",
      "outputs": [
        {
          "internalType": "string",
          "name": "sampleId",
          "type": "string"
        },
        {
          "internalType": "uint256",
          "name": "round",
          "type": "uint256"
        },
        {
          "internalType": "string",
          "name": "finalLabel",
          "type": "string"
        },
        {
          "internalType": "uint256",
          "name": "timestamp",
          "type": "uint256"
        }
      ],
      "stateMutability": "view",
      "type": "function"
    },
    {
      "inputs": [
        {
          "internalType": "string",
          "name": "sampleId",
          "type": "string"
        }
      ],
      "name": "isValidSampleId",
      "outputs": [
        {
          "internalType": "bool",
          "name": "",
          "type": "bool"
        }
      ],
      "stateMutability": "pure",
      "type": "function"
    },
    {
      "inputs": [],
      "name": "project",
      "outputs": [
        {
          "internalType": "address",
          "name": "",
          "type": "address"
        }
      ],
      "stateMutability": "view",
      "type": "function"
    },
    {
      "inputs": [
        {
          "internalType": "string",
          "name": "sampleId",
          "type": "string"
        },
        {
          "internalType": "uint256",
          "name": "round",
          "type": "uint256"
        },
        {
          "internalType": "string",
          "name": "finalLabel",
          "type": "string"
        },
        {
          "internalType": "address[]",
          "name": "voters",
          "type": "address[]"
        },
        {
          "internalType": "string[]",
          "name": "labels",
          "type": "string[]"
        }
      ],
      "name": "recordVotingHistory",
      "outputs": [],
      "stateMutability": "nonpayable",
      "type": "function"
    },
    {
      "inputs": [
        {
          "internalType": "string",
          "name": "",
          "type": "string"
        },
        {
          "internalType": "uint256",
          "name": "",
          "type": "uint256"
        }
      ],
      "name": "sampleHistory",
      "outputs": [
        {
          "internalType": "string",
          "name": "",
          "type": "string"
        }
      ],
      "stateMutability": "view",
      "type": "function"
    },
    {
      "inputs": [
        {
          "internalType": "string",
          "name": "sampleId",
          "type": "string"
        },
        {
          "internalType": "string",
          "name": "label",
          "type": "string"
        },
        {
          "internalType": "uint256",
          "name": "round",
          "type": "uint256"
        },
        {
          "internalType": "string",
          "name": "justification",
          "type": "string"
        },
        {
          "internalType": "string",
          "name": "ipfsHash",
          "type": "string"
        }
      ],
      "name": "storeFinalLabel",
      "outputs": [],
      "stateMutability": "nonpayable",
      "type": "function"
    }
  ],
  "bytecode": "0x60803460ba57601f6114af38819003918201601f19168301916001600160401b0383118484101760bf5780849260209460405283398101031260ba57516001600160a01b0381169081900360ba578015607557600080546001600160a01b0319169190911790556040516113d990816100d68239f35b60405162461bcd60e51b815260206004820152601760248201527f496e76616c69642070726f6a65637420616464726573730000000000000000006044820152606490fd5b600080fd5b634e487b7160e01b600052604160045260246000fdfe6080604052600436101561001257600080fd5b60003560e01c806308837df614610c435780633078674414610c115780633ae9437914610b3f5780633fa9696714610b0e578063428f833814610a175780634fe89337146109b65780637a2e9f0f1461083557806387b17355146107ec5780638b31dad0146104b75780638bb7b70014610464578063a05d557314610448578063bd3e5ce614610313578063c2e750e61461022e578063df21abfa146101af578063f60ca60d146101865763f6e67786146100cc57600080fd5b34610181576020366003190112610181576004356001600160401b038111610181576020610101610114923690600401610cf0565b8160405193828580945193849201610d46565b81016002815203019020805461012981610fde565b916101376040519384610ccd565b818352602083019060005260206000206000915b83831061016457604051806101608782610d8e565b0390f35b60016020819261017385610e28565b81520192019201919061014b565b600080fd5b34610181576000366003190112610181576000546040516001600160a01b039091168152602090f35b346101815760206101d76101c236610f5a565b92908160405193828580945193849201610d46565b81016002815203019020908154811015610181576101f491610ff5565b6102185761020461016091610e28565b604051918291602083526020830190610d69565b634e487b7160e01b600052600060045260246000fd5b346101815761023c36610f5a565b60405182519060208181860193610254818387610d46565b81016003815203019020548210156102d85760206102819161029094604051938492839251928391610d46565b81016003815203019020610f8b565b50600181015460038201546102ac600260048501549401610e28565b926102c96040519485948552608060208601526080850190610d69565b91604084015260608301520390f35b60405162461bcd60e51b8152602060048201526013602482015272496e646578206f7574206f6620626f756e647360681b6044820152606490fd5b346101815761034761032436610ecc565b9061033f60018060a098959796981b0360005416331461100d565b8486856111fa565b604051916103728251936020818186019661036381838a610d46565b810160038152030190206110ba565b50506040516020818451610387818389610d46565b8101600381520301902054906000198201918211610432577fc8c12b038269c90c5f983a6750ed8fedcc3514c580f89d0684260b38d2c045a9946103e261042d93610281602061041a98604051809381928b51928391610d46565b506103ed85826110db565b82600182015561040082600283016110db565b600342910155604051948594606086526060860190610d69565b9160208501528382036040850152610d69565b0390a1005b634e487b7160e01b600052601160045260246000fd5b3461018157600036600319011261018157602060405160008152f35b34610181576020366003190112610181576004356001600160401b038111610181576104ad61049d602061010181943690600401610cf0565b8101600181520301902054610dee565b1515604051908152f35b346101815760a0366003190112610181576004356001600160401b038111610181576104e7903690600401610cf0565b602435906044356001600160401b0381116101815761050a903690600401610cf0565b6064356001600160401b038111610181573660238201121561018157806004013561053481610fde565b916105426040519384610ccd565b8183526024602084019260051b8201019036821161018157602401915b8183106107cc5750506084359490506001600160401b038511610181573660238601121561018157846004013561059581610fde565b956105a36040519788610ccd565b8187526024602088019260051b820101903682116101815760248101925b82841061079d57505050506105e160018060a01b0360005416331461100d565b8151855103610766576105f684511515611072565b60405161061185519160208181890194610363818388610d46565b50506040516020818751610626818387610d46565b8101600381520301902054600019810190811161043257610281602061065a93604098979851809381928a51928391610d46565b509261066681856110db565b81600185015561067985600286016110db565b426003850155600460009401935b8351811015610731576001600160a01b036106a282866111e6565b5116906106af81896111e6565b51604051926106bd84610cb2565b8352602083019081528654600160401b81101561071b578060016106e49201895588611056565b61021857925183546001600160a01b0319166001600160a01b039190911617835551600192610715919084016110db565b01610687565b634e487b7160e01b600052604160045260246000fd5b5061042d857fb74589472dd4252ab2cbc69b30cc7fb08c8bf28c11827e66c6e6a7cbe59ec27194519060405194859485610fbd565b60405162461bcd60e51b815260206004820152600f60248201526e098cadccee8d040dad2e6dac2e8c6d608b1b6044820152606490fd5b83356001600160401b038111610181576020916107c1839260243691870101610cf0565b8152019301926105c1565b82356001600160a01b03811681036101815781526020928301920161055f565b34610181576020366003190112610181576004356001600160401b03811161018157610822602061010181933690600401610cf0565b8101600381520301902054604051908152f35b34610181576060366003190112610181576004356001600160401b03811161018157610865903690600401610cf0565b604051815160243592604435926020808301938290610885818388610d46565b81016003815203019020548410156109735760046108b085604051602081865161028181838b610d46565b500154831015610933576108e29361028160206004946108db94604051938492839251928391610d46565b5001611056565b506109066001604051926108f584610cb2565b818060a01b03815416845201610e28565b9081602082015260018060a01b039051166101606040519283928352604060208401526040830190610d69565b60405162461bcd60e51b8152602060048201526018602482015277566f746520696e646578206f7574206f6620626f756e647360401b6044820152606490fd5b60405162461bcd60e51b815260206004820152601b60248201527a486973746f727920696e646578206f7574206f6620626f756e647360281b6044820152606490fd5b346101815760206109c96101c236610f5a565b81016003815203019020908154811015610181576109e691610f8b565b506109f081610e28565b6101606001830154926003610a0760028301610e28565b9101549060405194859485610fbd565b34610181576020366003190112610181576004356001600160401b03811161018157610a4f6020610101610ae3933690600401610cf0565b8101600181520301902060a0610b0460405192610a6b84610c97565b610a7481610e28565b8452610af6610a8560018301610e28565b946020810195865260028301549560408201968752610aa660038501610e28565b91606081019283526005610abc60048701610e28565b9586608084015201549687910152519551905160405197889760a0895260a0890190610d69565b9160208801528682036040880152610d69565b908482036060860152610d69565b9060808301520390f35b3461018157610b3d610b1f36610ecc565b93610b3860018060a09694961b0360005416331461100d565b6111fa565b005b34610181576020366003190112610181576004356001600160401b03811161018157610b776020610101610bd8933690600401610cf0565b81016001815203019020610b8a81610e28565b90610c07610b9a60018301610e28565b91610bf96002820154610baf60038401610e28565b610be66005610bc060048701610e28565b95015496604051998a9960c08b5260c08b0190610d69565b9089820360208b0152610d69565b9160408801528682036060880152610d69565b908482036080860152610d69565b9060a08301520390f35b3461018157600036600319011261018157610160604051610c33602082610ccd565b6000815260405191829182610d8e565b34610181576020366003190112610181576004356001600160401b03811161018157610c756020913690600401610cf0565b518015159081610c8b575b506040519015158152f35b60409150111582610c80565b60c081019081106001600160401b0382111761071b57604052565b604081019081106001600160401b0382111761071b57604052565b601f909101601f19168101906001600160401b0382119082101761071b57604052565b81601f82011215610181578035906001600160401b03821161071b5760405192610d24601f8401601f191660200185610ccd565b8284526020838301011161018157816000926020809301838601378301015290565b60005b838110610d595750506000910152565b8181015183820152602001610d49565b90602091610d8281518092818552858086019101610d46565b601f01601f1916010190565b602081016020825282518091526040820191602060408360051b8301019401926000915b838310610dc157505050505090565b9091929394602080610ddf600193603f198682030187528951610d69565b97019301930191939290610db2565b90600182811c92168015610e1e575b6020831014610e0857565b634e487b7160e01b600052602260045260246000fd5b91607f1691610dfd565b9060405191826000825492610e3c84610dee565b8084529360018116908115610eaa5750600114610e63575b50610e6192500383610ccd565b565b90506000929192526020600020906000915b818310610e8e575050906020610e619282010138610e54565b6020919350806001915483858901015201910190918492610e75565b905060209250610e6194915060ff191682840152151560051b82010138610e54565b60a0600319820112610181576004356001600160401b0381116101815781610ef691600401610cf0565b916024356001600160401b0381116101815782610f1591600401610cf0565b91604435916064356001600160401b0381116101815782610f3891600401610cf0565b91608435906001600160401b03821161018157610f5791600401610cf0565b90565b604060031982011261018157600435906001600160401b03821161018157610f8491600401610cf0565b9060243590565b8054821015610fa7576000526005602060002091020190600090565b634e487b7160e01b600052603260045260246000fd5b94939291606092610ae3610fd993608089526080890190610d69565b930152565b6001600160401b03811161071b5760051b60200190565b8054821015610fa75760005260206000200190600090565b1561101457565b60405162461bcd60e51b815260206004820152601a60248201527913db9b1e481b585a5b881c1c9bda9958dd0818d85b8818d85b1b60321b6044820152606490fd5b8054821015610fa75760005260206000209060011b0190600090565b1561107957565b60405162461bcd60e51b815260206004820152601960248201527853616d706c652049442063616e6e6f7420626520656d70747960381b6044820152606490fd5b8054600160401b81101561071b576110d791600182018155610f8b565b9091565b81519192916001600160401b03811161071b576110f88254610dee565b601f811161119e575b506020601f821160011461113c5781929394600092611131575b50508160011b916000199060031b1c1916179055565b01519050388061111b565b601f1982169083600052806000209160005b8181106111865750958360019596971061116d575b505050811b019055565b015160001960f88460031b161c19169055388080611163565b9192602060018192868b01518155019401920161114e565b826000526020600020601f830160051c810191602084106111dc575b601f0160051c01905b8181106111d05750611101565b600081556001016111c3565b90915081906111ba565b8051821015610fa75760209160051b010190565b91909261120983511515611072565b8351156113665760405161121c81610c97565b8381526020810191858352604082019084825260608301908152608083019088825260a0840192428452604051958851968060208b019861125e81838c610d46565b810160018152036020019020955161127690876110db565b5161128490600187016110db565b5160028501555161129890600385016110db565b516112a690600484016110db565b519060050155604051808092855180926112bf92610d46565b8101600281520360200190208054600160401b81101561071b576112e891600182018155610ff5565b9390936102185784611347611355926113257ff84a42c8735c4bc780cc1f05f254f9e45ac5bae1e9bf577171cbe3e4963c128f98611339986110db565b60405196879660a0885260a0880190610d69565b908682036020880152610d69565b908482036040860152610d69565b9060608301524260808301520390a1565b60405162461bcd60e51b81526020600482015260156024820152744c6162656c2063616e6e6f7420626520656d70747960581b6044820152606490fdfea2646970667358221220ccff8bbffc5afd0793ec409039eeddebe377357683a8e164dd9659fb863d8abb64736f6c634300081c0033",
  "linkReferences": {},
  "deployedLinkReferences": {}
}