{
  "_format": "hh-sol-artifact-1",
  "contractName": "ALProjectVoting",
  "sourceName": "contracts/ALProjectVoting.sol",
  "abi": [
    {
      "inputs": [
        {
          "internalType": "address",
          "name": "_jsonProject",
          "type": "address"
        },
        {
          "internalType": "string",
          "name": "_votingConsensus",
          "type": "string"
        },
        {
          "internalType": "uint256",
          "name": "_votingTimeoutSeconds",
          "type": "uint256"
        }
      ],
      "stateMutability": "nonpayable",
      "type": "constructor"
    },
    {
      "anonymous": false,
      "inputs": [
        {
          "indexed": false,
          "internalType": "string",
          "name": "sampleId",
          "type": "string"
        },
        {
          "indexed": false,
          "internalType": "string",
          "name": "label",
          "type": "string"
        }
      ],
      "name": "ConsensusReached",
      "type": "event"
    },
    {
      "anonymous": false,
      "inputs": [
        {
          "indexed": false,
          "internalType": "string",
          "name": "sampleId",
          "type": "string"
        },
        {
          "indexed": true,
          "internalType": "address",
          "name": "voter",
          "type": "address"
        },
        {
          "indexed": false,
          "internalType": "string",
          "name": "label",
          "type": "string"
        },
        {
          "indexed": false,
          "internalType": "bool",
          "name": "support",
          "type": "bool"
        },
        {
          "indexed": false,
          "internalType": "uint256",
          "name": "timestamp",
          "type": "uint256"
        }
      ],
      "name": "VoteSubmitted",
      "type": "event"
    },
    {
      "anonymous": false,
      "inputs": [
        {
          "indexed": false,
          "internalType": "string",
          "name": "sampleId",
          "type": "string"
        },
        {
          "indexed": false,
          "internalType": "uint256",
          "name": "endTime",
          "type": "uint256"
        }
      ],
      "name": "VotingSessionEnded",
      "type": "event"
    },
    {
      "anonymous": false,
      "inputs": [
        {
          "indexed": false,
          "internalType": "string",
          "name": "sampleId",
          "type": "string"
        },
        {
          "indexed": false,
          "internalType": "uint256",
          "name": "startTime",
          "type": "uint256"
        }
      ],
      "name": "VotingSessionStarted",
      "type": "event"
    },
    {
      "inputs": [],
      "name": "consensusThreshold",
      "outputs": [
        {
          "internalType": "uint256",
          "name": "",
          "type": "uint256"
        }
      ],
      "stateMutability": "view",
      "type": "function"
    },
    {
      "inputs": [
        {
          "internalType": "string",
          "name": "sampleId",
          "type": "string"
        }
      ],
      "name": "endVotingSession",
      "outputs": [],
      "stateMutability": "nonpayable",
      "type": "function"
    },
    {
      "inputs": [],
      "name": "getVoterList",
      "outputs": [
        {
          "components": [
            {
              "internalType": "address",
              "name": "addr",
              "type": "address"
            },
            {
              "internalType": "uint256",
              "name": "weight",
              "type": "uint256"
            }
          ],
          "internalType": "struct ALProjectVoting.Voter[]",
          "name": "",
          "type": "tuple[]"
        }
      ],
      "stateMutability": "view",
      "type": "function"
    },
    {
      "inputs": [
        {
          "internalType": "string",
          "name": "sampleId",
          "type": "string"
        }
      ],
      "name": "getVotes",
      "outputs": [
        {
          "components": [
            {
              "internalType": "address",
              "name": "voter",
              "type": "address"
            },
            {
              "internalType": "string",
              "name": "label",
              "type": "string"
            },
            {
              "internalType": "bool",
              "name": "support",
              "type": "bool"
            },
            {
              "internalType": "uint256",
              "name": "timestamp",
              "type": "uint256"
            }
          ],
          "internalType": "struct ALProjectVoting.Vote[]",
          "name": "",
          "type": "tuple[]"
        }
      ],
      "stateMutability": "view",
      "type": "function"
    },
    {
      "inputs": [
        {
          "internalType": "string",
          "name": "sampleId",
          "type": "string"
        },
        {
          "internalType": "address",
          "name": "user",
          "type": "address"
        }
      ],
      "name": "hasUserVoted",
      "outputs": [
        {
          "internalType": "bool",
          "name": "",
          "type": "bool"
        }
      ],
      "stateMutability": "view",
      "type": "function"
    },
    {
      "inputs": [
        {
          "internalType": "string",
          "name": "sampleId",
          "type": "string"
        }
      ],
      "name": "isVotingActive",
      "outputs": [
        {
          "internalType": "bool",
          "name": "",
          "type": "bool"
        }
      ],
      "stateMutability": "view",
      "type": "function"
    },
    {
      "inputs": [],
      "name": "jsonProject",
      "outputs": [
        {
          "internalType": "address",
          "name": "",
          "type": "address"
        }
      ],
      "stateMutability": "view",
      "type": "function"
    },
    {
      "inputs": [
        {
          "internalType": "address[]",
          "name": "_voters",
          "type": "address[]"
        },
        {
          "internalType": "uint256[]",
          "name": "_weights",
          "type": "uint256[]"
        }
      ],
      "name": "setVoters",
      "outputs": [],
      "stateMutability": "nonpayable",
      "type": "function"
    },
    {
      "inputs": [
        {
          "internalType": "string",
          "name": "sampleId",
          "type": "string"
        }
      ],
      "name": "startVotingSession",
      "outputs": [],
      "stateMutability": "nonpayable",
      "type": "function"
    },
    {
      "inputs": [
        {
          "internalType": "string",
          "name": "sampleId",
          "type": "string"
        },
        {
          "internalType": "string",
          "name": "label",
          "type": "string"
        },
        {
          "internalType": "bool",
          "name": "support",
          "type": "bool"
        }
      ],
      "name": "submitVote",
      "outputs": [],
      "stateMutability": "nonpayable",
      "type": "function"
    },
    {
      "inputs": [
        {
          "internalType": "uint256",
          "name": "",
          "type": "uint256"
        }
      ],
      "name": "voterList",
      "outputs": [
        {
          "internalType": "address",
          "name": "",
          "type": "address"
        }
      ],
      "stateMutability": "view",
      "type": "function"
    },
    {
      "inputs": [
        {
          "internalType": "address",
          "name": "",
          "type": "address"
        }
      ],
      "name": "voterWeights",
      "outputs": [
        {
          "internalType": "uint256",
          "name": "",
          "type": "uint256"
        }
      ],
      "stateMutability": "view",
      "type": "function"
    },
    {
      "inputs": [
        {
          "internalType": "string",
          "name": "",
          "type": "string"
        },
        {
          "internalType": "uint256",
          "name": "",
          "type": "uint256"
        }
      ],
      "name": "votes",
      "outputs": [
        {
          "internalType": "address",
          "name": "voter",
          "type": "address"
        },
        {
          "internalType": "string",
          "name": "label",
          "type": "string"
        },
        {
          "internalType": "bool",
          "name": "support",
          "type": "bool"
        },
        {
          "internalType": "uint256",
          "name": "timestamp",
          "type": "uint256"
        }
      ],
      "stateMutability": "view",
      "type": "function"
    },
    {
      "inputs": [],
      "name": "votingConsensus",
      "outputs": [
        {
          "internalType": "string",
          "name": "",
          "type": "string"
        }
      ],
      "stateMutability": "view",
      "type": "function"
    },
    {
      "inputs": [
        {
          "internalType": "string",
          "name": "",
          "type": "string"
        }
      ],
      "name": "votingSessions",
      "outputs": [
        {
          "internalType": "uint256",
          "name": "startTime",
          "type": "uint256"
        },
        {
          "internalType": "bool",
          "name": "isActive",
          "type": "bool"
        }
      ],
      "stateMutability": "view",
      "type": "function"
    },
    {
      "inputs": [],
      "name": "votingTimeoutSeconds",
      "outputs": [
        {
          "internalType": "uint256",
          "name": "",
          "type": "uint256"
        }
      ],
      "stateMutability": "view",
      "type": "function"
    }
  ],
  "bytecode": "0x60806040523461029757611854803803806100198161029c565b9283398101906060818303126102975780516001600160a01b03811691908290036102975760208101516001600160401b03811161029757810183601f82011215610297578051906001600160401b03821161023557610082601f8301601f191660200161029c565b94828652602083830101116102975760005b82811061028257505060009084016020015260400151603360015590801561024b57600080546001600160a01b03191691909117905581516001600160401b03811161023557600354600181811c9116801561022b575b602082101461021557601f81116101b0575b50602092601f821160011461014b5792819293600092610140575b50508160011b916000199060031b1c1916176003555b60025560405161159290816102c28239f35b015190503880610118565b601f198216936003600052806000209160005b868110610198575083600195961061017f575b505050811b0160035561012e565b015160001960f88460031b161c19169055388080610171565b9192602060018192868501518155019401920161015e565b60036000527fc2575a0e9e593c00f959f8c92f12db2869c3395a3b0502d05e2516446f71f85b601f830160051c8101916020841061020b575b601f0160051c01905b8181106101ff57506100fd565b600081556001016101f2565b90915081906101e9565b634e487b7160e01b600052602260045260246000fd5b90607f16906100eb565b634e487b7160e01b600052604160045260246000fd5b60405162461bcd60e51b815260206004820152600f60248201526e496e76616c6964206164647265737360881b6044820152606490fd5b80602080928401015182828901015201610094565b600080fd5b6040519190601f01601f191682016001600160401b038111838210176102355760405256fe6080604052600436101561001257600080fd5b60003560e01c806304574fe81461105e5780634149738514610fd0578063414f8e7614610f9257806350e2e8af14610f5057806355d389a414610e6b5780635c95617e146109f65780636042ad611461093a578063697cfa401461091157806375c255fc1461063a578063764926db14610501578063805265e51461038e578063a58df19a14610370578063a672601d1461029a578063b28d92ae1461015a578063f18a5cec146100ef5763f9b0b5b9146100cc57600080fd5b346100ea5760003660031901126100ea576020600154604051908152f35b600080fd5b346100ea5760203660031901126100ea576004356001600160401b0381116100ea5761013860206101266040933690600401611108565b8184519382858094519384920161126d565b8101600781520301902060ff6001825492015416825191825215156020820152f35b346100ea5760003660031901126100ea57600554610177816112d1565b9061018560405192836110e5565b808252601f19610194826112d1565b0160005b81811061027557505060005b818110610206578260405180916020820160208352815180915260206040840192019060005b8181106101d8575050500390f35b825180516001600160a01b0316855260209081015181860152869550604090940193909201916001016101ca565b8061021260019261115e565b838060a01b0391549060031b1c166102298261115e565b848060a01b0391549060031b1c16600052600460205260406000205460405191610252836110ca565b8252602082015261026382866113b3565b5261026e81856113b3565b50016101a4565b602090604051610284816110ca565b6000815260008382015282828701015201610198565b346100ea5760203660031901126100ea576004356001600160401b0381116100ea5761036b6102ee7f8a0cc662156da5580404150064cc81955de64ef5a8090364795edcbac8429991923690600401611108565b61030360018060a01b0360005416331461136a565b600161034a602060405161033960ff858751938581818b019661032781838a61126d565b810160078152030190200154166112e8565b60405180938192875192839161126d565b810160078152030190200160ff1981541690556040519182914290836113c7565b0390a1005b346100ea5760003660031901126100ea576020600254604051908152f35b346100ea5760203660031901126100ea576004356001600160401b0381116100ea5760206103c36103d6923690600401611108565b816040519382858094519384920161126d565b810160068152030190208054906103ec826112d1565b916103fa60405193846110e5565b80835260208301809260005260206000206000915b8383106104ad57848660405191829160208301906020845251809152604083019060408160051b85010192916000905b82821061044e57505050500390f35b919360019193955060208091603f19898203018552875190848060a01b03825116815260608061048b858501516080878601526080850190611290565b936040810151151560408501520151910152960192019201859493919261043f565b600460206001926040516104c0816110af565b848060a01b0386541681526104d68587016111c9565b8382015260ff600287015416151560408201526003860154606082015281520192019201919061040f565b346100ea5760203660031901126100ea576004356001600160401b0381116100ea57610531903690600401611108565b61054660018060a01b0360005416331461136a565b60405160ff60018351926020818187019561056281838961126d565b810160078152030190200154166105f5577f1a6063ea5a85373503082e9047ebbde10c2ef86a0029b81921668e4a2ea190e39160016105d1602061036b9460405185516105b081838561126d565b8101906007825283814293030190205560405180938192875192839161126d565b8101600781520301902001600160ff198254161790556040519182914290836113c7565b60405162461bcd60e51b815260206004820152601d60248201527f566f74696e672073657373696f6e20616c7265616479206163746976650000006044820152606490fd5b346100ea5760403660031901126100ea576004356001600160401b0381116100ea57366023820112156100ea578060040135610675816112d1565b9161068360405193846110e5565b8183526024602084019260051b820101903682116100ea57602401915b8183106108f157602435846001600160401b0382116100ea57366023830112156100ea578160040135916106d3836112d1565b926106e160405194856110e5565b8084526024602085019160051b830101913683116100ea57602401905b8282106108e15750505061071d60018060a01b0360005416331461136a565b80518251036108a75760005b600554811015610762578061073f60019261115e565b838060a01b0391549060031b1c1660005260046020526000604081205501610729565b5060055460006005558061086e575b5060005b815181101561086c5761078881846113b3565b51156108275761079881846113b3565b516001600160a01b036107ab83856113b3565b51166000908152600460205260409020556001600160a01b036107ce82846113b3565b51600554929116600160401b831015610811576107f283600180950160055561115e565b819291549060031b91821b91858060a01b03901b191617905501610775565b634e487b7160e01b600052604160045260246000fd5b60405162461bcd60e51b815260206004820152601d60248201527f576569676874206d7573742062652067726561746572207468616e20300000006044820152606490fd5b005b60056000526108a1907f036b6384b5eca791c62761152d0c79bb0604c104a5fb6f4eb0703f3154bb3db090810190611353565b82610771565b60405162461bcd60e51b81526020600482015260126024820152714d69736d617463686564206c656e6774687360701b6044820152606490fd5b81358152602091820191016106fe565b82356001600160a01b03811681036100ea578152602092830192016106a0565b346100ea5760003660031901126100ea576000546040516001600160a01b039091168152602090f35b346100ea5760403660031901126100ea576004356001600160401b0381116100ea5761096a903690600401611108565b610986602060243592816040519382858094519384920161126d565b810160068152030190209081548110156100ea576109a3916112b5565b5080546001600160a01b03166109bb600183016111c9565b91600360ff6002830154169101546109e56040519485948552608060208601526080850190611290565b911515604084015260608301520390f35b346100ea5760603660031901126100ea576004356001600160401b0381116100ea57610a26903690600401611108565b6024356001600160401b0381116100ea57610a45903690600401611108565b6044358015158091036100ea5733600052600460205260406000205415610e2d57604051610a8560ff6001865193602081818a019661032781838a61126d565b60026040516020818751610a9a81838861126d565b6007908201908152030190203360009081529101602052604090205460ff16610df85760025480610d88575b506040516020818651610ada81838761126d565b8101600681520301902060405190610af1826110af565b33825260208201858152604083019085825260608401924284528054600160401b81101561081157610b28916001820181556112b5565b949094610d72575184546001600160a01b0319166001600160a01b039190911617845551805160018501916001600160401b03821161081157610b6b835461118f565b601f8111610d35575b50602090601f8311600114610cc15793610bd99693836003946020989460029b98600092610cb6575b50508160011b9160001990871b1c19161790555b8784019051151560ff801983541691161790555191015560405180938192895192839161126d565b810160078152030190200160018060a01b0333166000526020526040600020600160ff198254161790557f2579d0860b48f37c239a6db657bad6560c277bbce0a8a989d70227407fc62e0660405160808152610c49610c3b6080830187611290565b828103602084015285611290565b9260408201524260608201528033930390a2610c6581836113e3565b610c6b57005b7f0cc62c8b09788a11d11e96187c34c67fad5e9651cadc6ace24e1518490bed9819161036b610ca892604051938493604085526040850190611290565b908382036020850152611290565b015190508e80610b9d565b90601f1983169184600052816000209260005b818110610d1d5750846020989460029b9894610bd99b989460039860019510610d05575b505050811b019055610bb1565b015160001983891b60f8161c191690558e8080610cf8565b92936020600181928786015181550195019301610cd4565b610d6290846000526020600020601f850160051c81019160208610610d68575b601f0160051c0190611353565b8a610b74565b9091508190610d55565b634e487b7160e01b600052600060045260246000fd5b610daf906040516020818851610d9f81838961126d565b8101600781520301902054611330565b4211610dbb5784610ac6565b60405162461bcd60e51b8152602060048201526015602482015274159bdd1a5b99c81c195c9a5bd908195e1c1a5c9959605a1b6044820152606490fd5b60405162461bcd60e51b815260206004820152600d60248201526c105b1c9958591e481d9bdd1959609a1b6044820152606490fd5b60405162461bcd60e51b81526020600482015260166024820152752737ba1030903932b3b4b9ba32b932b2103b37ba32b960511b6044820152606490fd5b346100ea5760003660031901126100ea576040516000600354610e8d8161118f565b8084529060018116908115610f2c5750600114610ecd575b610ec983610eb5818503826110e5565b604051918291602083526020830190611290565b0390f35b600360009081527fc2575a0e9e593c00f959f8c92f12db2869c3395a3b0502d05e2516446f71f85b939250905b808210610f1257509091508101602001610eb5610ea5565b919260018160209254838588010152019101909291610efa565b60ff191660208086019190915291151560051b84019091019150610eb59050610ea5565b346100ea5760203660031901126100ea576004356005548110156100ea57610f7960209161115e565b905460405160039290921b1c6001600160a01b03168152f35b346100ea5760203660031901126100ea576004356001600160a01b038116908190036100ea5760005260046020526020604060002054604051908152f35b346100ea5760403660031901126100ea576004356001600160401b0381116100ea57611000903690600401611108565b602435906001600160a01b03821682036100ea5761102f6020600292816040519382858094519384920161126d565b81016007815203019020019060018060a01b0316600052602052602060ff604060002054166040519015158152f35b346100ea5760203660031901126100ea576004356001600160401b0381116100ea5760ff600161109860206103c381953690600401611108565b810160078152030190200154166040519015158152f35b608081019081106001600160401b0382111761081157604052565b604081019081106001600160401b0382111761081157604052565b601f909101601f19168101906001600160401b0382119082101761081157604052565b81601f820112156100ea578035906001600160401b038211610811576040519261113c601f8401601f1916602001856110e5565b828452602083830101116100ea57816000926020809301838601378301015290565b60055481101561117957600560005260206000200190600090565b634e487b7160e01b600052603260045260246000fd5b90600182811c921680156111bf575b60208310146111a957565b634e487b7160e01b600052602260045260246000fd5b91607f169161119e565b90604051918260008254926111dd8461118f565b808452936001811690811561124b5750600114611204575b50611202925003836110e5565b565b90506000929192526020600020906000915b81831061122f57505090602061120292820101386111f5565b6020919350806001915483858901015201910190918492611216565b90506020925061120294915060ff191682840152151560051b820101386111f5565b60005b8381106112805750506000910152565b8181015183820152602001611270565b906020916112a98151809281855285808601910161126d565b601f01601f1916010190565b80548210156111795760005260206000209060021b0190600090565b6001600160401b0381116108115760051b60200190565b156112ef57565b60405162461bcd60e51b8152602060048201526019602482015278566f74696e672073657373696f6e206e6f742061637469766560381b6044820152606490fd5b9190820180921161133d57565b634e487b7160e01b600052601160045260246000fd5b81811061135e575050565b60008155600101611353565b1561137157565b60405162461bcd60e51b815260206004820152601a60248201527913db9b1e481b585a5b881c1c9bda9958dd0818d85b8818d85b1b60321b6044820152606490fd5b80518210156111795760209160051b010190565b9291906113de602091604086526040860190611290565b930152565b60206113ff91939293816040519382858094519384920161126d565b81016006815203019020918254611415816112d1565b9361142360405195866110e5565b818552602085019060005260206000206000915b838310611508575050505060008091815b85518110156114d857602061145d82886113b3565b51015160208151910120825160208401201461147c575b600101611448565b6001600160a01b0361148e82886113b3565b51511660005260046020526114a96040600020548094611330565b9260406114b683896113b3565b5101516114c4575b50611474565b6114d19060019295611330565b93906114be565b50509091925080156115015760648202918083046064149015171561133d576001549104101590565b5050600090565b6004602060019260405161151b816110af565b848060a01b0386541681526115318587016111c9565b8382015260ff600287015416151560408201526003860154606082015281520192019201919061143756fea26469706673582212203af503c897ff1194837f857024cb018b33562b5247218970c6c84b3419ffc19d64736f6c634300081c0033",
  "linkReferences": {},
  "deployedLinkReferences": {}
}