{
  "_format": "hh-sol-artifact-1",
  "contractName": "ALProjectLinker",
  "sourceName": "contracts/ALProjectLinker.sol",
  "abi": [
    {
      "anonymous": false,
      "inputs": [
        {
          "indexed": true,
          "internalType": "address",
          "name": "baseProject",
          "type": "address"
        },
        {
          "indexed": true,
          "internalType": "address",
          "name": "alProject",
          "type": "address"
        },
        {
          "indexed": false,
          "internalType": "address",
          "name": "votingContract",
          "type": "address"
        },
        {
          "indexed": false,
          "internalType": "address",
          "name": "storageContract",
          "type": "address"
        }
      ],
      "name": "ALProjectLinked",
      "type": "event"
    },
    {
      "inputs": [
        {
          "internalType": "address",
          "name": "baseProject",
          "type": "address"
        },
        {
          "internalType": "address",
          "name": "alProject",
          "type": "address"
        },
        {
          "internalType": "address",
          "name": "votingContract",
          "type": "address"
        },
        {
          "internalType": "address",
          "name": "storageContract",
          "type": "address"
        },
        {
          "internalType": "string",
          "name": "queryStrategy",
          "type": "string"
        },
        {
          "internalType": "string",
          "name": "alScenario",
          "type": "string"
        },
        {
          "internalType": "uint256",
          "name": "maxIteration",
          "type": "uint256"
        },
        {
          "internalType": "uint256",
          "name": "queryBatchSize",
          "type": "uint256"
        },
        {
          "internalType": "string[]",
          "name": "labelSpace",
          "type": "string[]"
        },
        {
          "internalType": "string",
          "name": "rocrateHash",
          "type": "string"
        }
      ],
      "name": "linkALProject",
      "outputs": [],
      "stateMutability": "nonpayable",
      "type": "function"
    }
  ],
  "bytecode": "0x60808060405234601557610536908161001b8239f35b600080fdfe608080604052600436101561001357600080fd5b600090813560e01c63d48498081461002a57600080fd5b3461047057610140366003190112610470576004356001600160a01b0381169081900361030a576024356001600160a01b038116929083900361046c576044356001600160a01b03811691908290036102fb576064356001600160a01b0381169190829003610468576084356001600160401b038111610464576100b2903690600401610474565b90919060a4356001600160401b038111610460576100d4903690600401610474565b9361010435916001600160401b03831161045c573660238401121561045c576004830135916001600160401b038311610458578260051b9136602484870101116104545761012435978d6001600160401b038a1161045157886020818f9c61014160049136908301610474565b9d909e6302d05d3f60e01b82525afa91821561044557916103ff575b50336001600160a01b03909116036103c3578c3b156103bf578a9493916101c6918f97946101b4908d9a6040519b8c9a635bb06c0b60e01b8c5260048c015260248b015261010060448b01526101048a01916104df565b878103600319016064890152916104df565b9260c435608486015260e43560a48601526003198585030160c4860152808452602080850192850101936024840193879160421982360301905b84841061034f575050505050505061022682916003198382030160e484015286886104df565b0381838b5af180156103445761032e575b50908691853b1561030a5760405163562d0a1360e01b8152600481018890528381602481838b5af190811561032357849161030e575b5050853b1561030a5760405163c4b192f760e01b815260206004820152918391839182916102a0916024840191906104df565b038183895af180156102ff576102e6575b50507f9edf188cac833db7cea7f03b6100ef256d6f0e5d95e6af65fc6f5730f6b93e189160409182519182526020820152a380f35b816102f0916104a6565b6102fb5784386102b1565b8480fd5b6040513d84823e3d90fd5b8280fd5b81610318916104a6565b61030a57823861026d565b6040513d86823e3d90fd5b8761033c91989293986104a6565b959038610237565b6040513d8a823e3d90fd5b92959850929590939650601f198282030187528735838112156103ba578401604481019190602401356001600160401b0381116103b45780360383136103b45761039f60209283926001956104df565b99019701940190928f97959289979594610200565b50508f80fd5b508f80fd5b8d80fd5b60405162461bcd60e51b815260206004820152601460248201527327b7363c90383937b532b1ba1031b932b0ba37b960611b6044820152606490fd5b90506020813d60201161043d575b8161041a602093836104a6565b8101031261043957516001600160a01b0381168103610439573861015d565b8e80fd5b3d915061040d565b604051903d90823e3d90fd5b80fd5b8c80fd5b8b80fd5b8a80fd5b8880fd5b8680fd5b8580fd5b8380fd5b5080fd5b9181601f840112156104a1578235916001600160401b0383116104a157602083818601950101116104a157565b600080fd5b601f909101601f19168101906001600160401b038211908210176104c957604052565b634e487b7160e01b600052604160045260246000fd5b908060209392818452848401376000828201840152601f01601f191601019056fea264697066735822122027660223216e2fa81530187cee91cf5d5d43c5cbccd93762ef55e070ee9e67bf64736f6c634300081c0033",
  "linkReferences": {},
  "deployedLinkReferences": {}
}