{
  "_format": "hh-sol-artifact-1",
  "contractName": "ALProjectVoting",
  "sourceName": "contracts/ALProjectVoting.sol",
  "abi": [
    {
      "inputs": [
        {
          "internalType": "address",
          "name": "_project",
          "type": "address"
        },
        {
          "internalType": "string",
          "name": "_votingConsensus",
          "type": "string"
        },
        {
          "internalType": "uint256",
          "name": "_votingTimeoutSeconds",
          "type": "uint256"
        }
      ],
      "stateMutability": "nonpayable",
      "type": "constructor"
    },
    {
      "anonymous": false,
      "inputs": [
        {
          "indexed": false,
          "internalType": "uint256",
          "name": "round",
          "type": "uint256"
        },
        {
          "indexed": false,
          "internalType": "uint256",
          "name": "completedSamples",
          "type": "uint256"
        },
        {
          "indexed": false,
          "internalType": "uint256",
          "name": "timestamp",
          "type": "uint256"
        }
      ],
      "name": "BatchCompleted",
      "type": "event"
    },
    {
      "anonymous": false,
      "inputs": [
        {
          "indexed": false,
          "internalType": "uint256",
          "name": "round",
          "type": "uint256"
        },
        {
          "indexed": false,
          "internalType": "string",
          "name": "sampleId",
          "type": "string"
        },
        {
          "indexed": false,
          "internalType": "string",
          "name": "finalLabel",
          "type": "string"
        },
        {
          "indexed": false,
          "internalType": "uint256",
          "name": "remainingSamples",
          "type": "uint256"
        }
      ],
      "name": "BatchSampleCompleted",
      "type": "event"
    },
    {
      "anonymous": false,
      "inputs": [
        {
          "indexed": false,
          "internalType": "uint256",
          "name": "round",
          "type": "uint256"
        },
        {
          "indexed": false,
          "internalType": "string[]",
          "name": "sampleIds",
          "type": "string[]"
        },
        {
          "indexed": false,
          "internalType": "uint256",
          "name": "startTime",
          "type": "uint256"
        }
      ],
      "name": "BatchStarted",
      "type": "event"
    },
    {
      "anonymous": false,
      "inputs": [
        {
          "indexed": false,
          "internalType": "string",
          "name": "sampleId",
          "type": "string"
        },
        {
          "indexed": false,
          "internalType": "string",
          "name": "label",
          "type": "string"
        }
      ],
      "name": "ConsensusReached",
      "type": "event"
    },
    {
      "anonymous": false,
      "inputs": [
        {
          "indexed": false,
          "internalType": "string",
          "name": "sampleId",
          "type": "string"
        },
        {
          "indexed": false,
          "internalType": "string",
          "name": "finalLabel",
          "type": "string"
        },
        {
          "indexed": false,
          "internalType": "uint256",
          "name": "timestamp",
          "type": "uint256"
        }
      ],
      "name": "LabelStoredInProject",
      "type": "event"
    },
    {
      "anonymous": false,
      "inputs": [
        {
          "indexed": false,
          "internalType": "string",
          "name": "sampleId",
          "type": "string"
        },
        {
          "indexed": false,
          "internalType": "uint256",
          "name": "endTime",
          "type": "uint256"
        }
      ],
      "name": "TimeoutReached",
      "type": "event"
    },
    {
      "anonymous": false,
      "inputs": [
        {
          "indexed": false,
          "internalType": "string",
          "name": "sampleId",
          "type": "string"
        },
        {
          "indexed": true,
          "internalType": "address",
          "name": "voter",
          "type": "address"
        },
        {
          "indexed": false,
          "internalType": "string",
          "name": "label",
          "type": "string"
        },
        {
          "indexed": false,
          "internalType": "bool",
          "name": "support",
          "type": "bool"
        },
        {
          "indexed": false,
          "internalType": "uint256",
          "name": "timestamp",
          "type": "uint256"
        }
      ],
      "name": "VoteSubmitted",
      "type": "event"
    },
    {
      "anonymous": false,
      "inputs": [
        {
          "indexed": false,
          "internalType": "string",
          "name": "sampleId",
          "type": "string"
        },
        {
          "indexed": false,
          "internalType": "uint256",
          "name": "endTime",
          "type": "uint256"
        }
      ],
      "name": "VotingSessionEnded",
      "type": "event"
    },
    {
      "anonymous": false,
      "inputs": [
        {
          "indexed": false,
          "internalType": "string",
          "name": "sampleId",
          "type": "string"
        },
        {
          "indexed": false,
          "internalType": "string",
          "name": "finalLabel",
          "type": "string"
        },
        {
          "indexed": false,
          "internalType": "uint256",
          "name": "endTime",
          "type": "uint256"
        },
        {
          "indexed": false,
          "internalType": "string",
          "name": "reason",
          "type": "string"
        }
      ],
      "name": "VotingSessionFinalized",
      "type": "event"
    },
    {
      "anonymous": false,
      "inputs": [
        {
          "indexed": false,
          "internalType": "string",
          "name": "sampleId",
          "type": "string"
        },
        {
          "indexed": false,
          "internalType": "uint256",
          "name": "startTime",
          "type": "uint256"
        }
      ],
      "name": "VotingSessionStarted",
      "type": "event"
    },
    {
      "inputs": [
        {
          "internalType": "uint256",
          "name": "",
          "type": "uint256"
        }
      ],
      "name": "batches",
      "outputs": [
        {
          "internalType": "uint256",
          "name": "round",
          "type": "uint256"
        },
        {
          "internalType": "uint256",
          "name": "completedCount",
          "type": "uint256"
        },
        {
          "internalType": "bool",
          "name": "isActive",
          "type": "bool"
        },
        {
          "internalType": "uint256",
          "name": "startTime",
          "type": "uint256"
        }
      ],
      "stateMutability": "view",
      "type": "function"
    },
    {
      "inputs": [
        {
          "internalType": "string",
          "name": "sampleId",
          "type": "string"
        }
      ],
      "name": "checkAndFinalizeTimeout",
      "outputs": [],
      "stateMutability": "nonpayable",
      "type": "function"
    },
    {
      "inputs": [],
      "name": "consensusThreshold",
      "outputs": [
        {
          "internalType": "uint256",
          "name": "",
          "type": "uint256"
        }
      ],
      "stateMutability": "view",
      "type": "function"
    },
    {
      "inputs": [],
      "name": "currentRound",
      "outputs": [
        {
          "internalType": "uint256",
          "name": "",
          "type": "uint256"
        }
      ],
      "stateMutability": "view",
      "type": "function"
    },
    {
      "inputs": [
        {
          "internalType": "string",
          "name": "sampleId",
          "type": "string"
        }
      ],
      "name": "endVotingSession",
      "outputs": [],
      "stateMutability": "nonpayable",
      "type": "function"
    },
    {
      "inputs": [
        {
          "internalType": "uint256",
          "name": "round",
          "type": "uint256"
        }
      ],
      "name": "getBatchSamples",
      "outputs": [
        {
          "internalType": "string[]",
          "name": "",
          "type": "string[]"
        }
      ],
      "stateMutability": "view",
      "type": "function"
    },
    {
      "inputs": [
        {
          "internalType": "uint256",
          "name": "round",
          "type": "uint256"
        }
      ],
      "name": "getBatchStatus",
      "outputs": [
        {
          "internalType": "bool",
          "name": "isActive",
          "type": "bool"
        },
        {
          "internalType": "uint256",
          "name": "totalSamples",
          "type": "uint256"
        },
        {
          "internalType": "uint256",
          "name": "completedSamples",
          "type": "uint256"
        },
        {
          "internalType": "uint256",
          "name": "remainingSamples",
          "type": "uint256"
        },
        {
          "internalType": "uint256",
          "name": "startTime",
          "type": "uint256"
        }
      ],
      "stateMutability": "view",
      "type": "function"
    },
    {
      "inputs": [],
      "name": "getCurrentBatchProgress",
      "outputs": [
        {
          "internalType": "uint256",
          "name": "round",
          "type": "uint256"
        },
        {
          "internalType": "bool",
          "name": "isActive",
          "type": "bool"
        },
        {
          "internalType": "uint256",
          "name": "totalSamples",
          "type": "uint256"
        },
        {
          "internalType": "uint256",
          "name": "completedSamples",
          "type": "uint256"
        },
        {
          "internalType": "string[]",
          "name": "sampleIds",
          "type": "string[]"
        }
      ],
      "stateMutability": "view",
      "type": "function"
    },
    {
      "inputs": [
        {
          "internalType": "string",
          "name": "sampleId",
          "type": "string"
        }
      ],
      "name": "getFinalLabel",
      "outputs": [
        {
          "internalType": "string",
          "name": "",
          "type": "string"
        }
      ],
      "stateMutability": "view",
      "type": "function"
    },
    {
      "inputs": [],
      "name": "getVoterList",
      "outputs": [
        {
          "components": [
            {
              "internalType": "address",
              "name": "addr",
              "type": "address"
            },
            {
              "internalType": "uint256",
              "name": "weight",
              "type": "uint256"
            }
          ],
          "internalType": "struct ALProjectVoting.Voter[]",
          "name": "",
          "type": "tuple[]"
        }
      ],
      "stateMutability": "view",
      "type": "function"
    },
    {
      "inputs": [
        {
          "internalType": "string",
          "name": "sampleId",
          "type": "string"
        }
      ],
      "name": "getVotes",
      "outputs": [
        {
          "components": [
            {
              "internalType": "address",
              "name": "voter",
              "type": "address"
            },
            {
              "internalType": "string",
              "name": "label",
              "type": "string"
            },
            {
              "internalType": "bool",
              "name": "support",
              "type": "bool"
            },
            {
              "internalType": "uint256",
              "name": "timestamp",
              "type": "uint256"
            }
          ],
          "internalType": "struct ALProjectVoting.Vote[]",
          "name": "",
          "type": "tuple[]"
        }
      ],
      "stateMutability": "view",
      "type": "function"
    },
    {
      "inputs": [
        {
          "internalType": "string",
          "name": "sampleId",
          "type": "string"
        }
      ],
      "name": "getVotingDistribution",
      "outputs": [
        {
          "internalType": "string[]",
          "name": "labels",
          "type": "string[]"
        },
        {
          "internalType": "uint256[]",
          "name": "voteCounts",
          "type": "uint256[]"
        },
        {
          "internalType": "uint256[]",
          "name": "voteWeights",
          "type": "uint256[]"
        }
      ],
      "stateMutability": "view",
      "type": "function"
    },
    {
      "inputs": [
        {
          "internalType": "string",
          "name": "sampleId",
          "type": "string"
        }
      ],
      "name": "getVotingResult",
      "outputs": [
        {
          "internalType": "bool",
          "name": "isFinalized",
          "type": "bool"
        },
        {
          "internalType": "string",
          "name": "finalLabel",
          "type": "string"
        },
        {
          "internalType": "uint256",
          "name": "totalVotes",
          "type": "uint256"
        },
        {
          "internalType": "uint256",
          "name": "votedCount",
          "type": "uint256"
        }
      ],
      "stateMutability": "view",
      "type": "function"
    },
    {
      "inputs": [
        {
          "internalType": "string",
          "name": "sampleId",
          "type": "string"
        }
      ],
      "name": "getVotingSession",
      "outputs": [
        {
          "internalType": "uint256",
          "name": "startTime",
          "type": "uint256"
        },
        {
          "internalType": "bool",
          "name": "isActive",
          "type": "bool"
        },
        {
          "internalType": "bool",
          "name": "isFinalized",
          "type": "bool"
        },
        {
          "internalType": "string",
          "name": "finalLabel",
          "type": "string"
        }
      ],
      "stateMutability": "view",
      "type": "function"
    },
    {
      "inputs": [
        {
          "internalType": "string",
          "name": "sampleId",
          "type": "string"
        }
      ],
      "name": "getVotingSessionStatus",
      "outputs": [
        {
          "internalType": "bool",
          "name": "isActive",
          "type": "bool"
        },
        {
          "internalType": "bool",
          "name": "isFinalized",
          "type": "bool"
        },
        {
          "internalType": "string",
          "name": "finalLabel",
          "type": "string"
        },
        {
          "internalType": "uint256",
          "name": "startTime",
          "type": "uint256"
        },
        {
          "internalType": "uint256",
          "name": "timeRemaining",
          "type": "uint256"
        },
        {
          "internalType": "uint256",
          "name": "votedCount",
          "type": "uint256"
        },
        {
          "internalType": "uint256",
          "name": "totalVoters",
          "type": "uint256"
        }
      ],
      "stateMutability": "view",
      "type": "function"
    },
    {
      "inputs": [
        {
          "internalType": "string",
          "name": "sampleId",
          "type": "string"
        },
        {
          "internalType": "address",
          "name": "user",
          "type": "address"
        }
      ],
      "name": "hasUserVoted",
      "outputs": [
        {
          "internalType": "bool",
          "name": "",
          "type": "bool"
        }
      ],
      "stateMutability": "view",
      "type": "function"
    },
    {
      "inputs": [
        {
          "internalType": "string",
          "name": "sampleId",
          "type": "string"
        }
      ],
      "name": "isTimeoutReached",
      "outputs": [
        {
          "internalType": "bool",
          "name": "",
          "type": "bool"
        }
      ],
      "stateMutability": "view",
      "type": "function"
    },
    {
      "inputs": [
        {
          "internalType": "string",
          "name": "sampleId",
          "type": "string"
        }
      ],
      "name": "isVotingActive",
      "outputs": [
        {
          "internalType": "bool",
          "name": "",
          "type": "bool"
        }
      ],
      "stateMutability": "view",
      "type": "function"
    },
    {
      "inputs": [
        {
          "internalType": "string",
          "name": "sampleId",
          "type": "string"
        },
        {
          "internalType": "string",
          "name": "finalLabel",
          "type": "string"
        }
      ],
      "name": "notifyMainContractExternal",
      "outputs": [],
      "stateMutability": "nonpayable",
      "type": "function"
    },
    {
      "inputs": [],
      "name": "project",
      "outputs": [
        {
          "internalType": "address",
          "name": "",
          "type": "address"
        }
      ],
      "stateMutability": "view",
      "type": "function"
    },
    {
      "inputs": [
        {
          "internalType": "address[]",
          "name": "_voters",
          "type": "address[]"
        },
        {
          "internalType": "uint256[]",
          "name": "_weights",
          "type": "uint256[]"
        }
      ],
      "name": "setVoters",
      "outputs": [],
      "stateMutability": "nonpayable",
      "type": "function"
    },
    {
      "inputs": [
        {
          "internalType": "string[]",
          "name": "sampleIds",
          "type": "string[]"
        },
        {
          "internalType": "uint256",
          "name": "round",
          "type": "uint256"
        }
      ],
      "name": "startBatchVoting",
      "outputs": [],
      "stateMutability": "nonpayable",
      "type": "function"
    },
    {
      "inputs": [
        {
          "internalType": "string",
          "name": "sampleId",
          "type": "string"
        }
      ],
      "name": "startVotingSession",
      "outputs": [],
      "stateMutability": "nonpayable",
      "type": "function"
    },
    {
      "inputs": [
        {
          "internalType": "string",
          "name": "sampleId",
          "type": "string"
        },
        {
          "internalType": "string",
          "name": "label",
          "type": "string"
        },
        {
          "internalType": "bool",
          "name": "support",
          "type": "bool"
        }
      ],
      "name": "submitVote",
      "outputs": [],
      "stateMutability": "nonpayable",
      "type": "function"
    },
    {
      "inputs": [
        {
          "internalType": "string",
          "name": "sampleId",
          "type": "string"
        },
        {
          "internalType": "string",
          "name": "label",
          "type": "string"
        },
        {
          "internalType": "address",
          "name": "voter",
          "type": "address"
        }
      ],
      "name": "submitVoteOnBehalf",
      "outputs": [],
      "stateMutability": "nonpayable",
      "type": "function"
    },
    {
      "inputs": [
        {
          "internalType": "uint256",
          "name": "",
          "type": "uint256"
        }
      ],
      "name": "voterList",
      "outputs": [
        {
          "internalType": "address",
          "name": "",
          "type": "address"
        }
      ],
      "stateMutability": "view",
      "type": "function"
    },
    {
      "inputs": [
        {
          "internalType": "address",
          "name": "",
          "type": "address"
        }
      ],
      "name": "voterWeights",
      "outputs": [
        {
          "internalType": "uint256",
          "name": "",
          "type": "uint256"
        }
      ],
      "stateMutability": "view",
      "type": "function"
    },
    {
      "inputs": [
        {
          "internalType": "string",
          "name": "",
          "type": "string"
        },
        {
          "internalType": "uint256",
          "name": "",
          "type": "uint256"
        }
      ],
      "name": "votes",
      "outputs": [
        {
          "internalType": "address",
          "name": "voter",
          "type": "address"
        },
        {
          "internalType": "string",
          "name": "label",
          "type": "string"
        },
        {
          "internalType": "bool",
          "name": "support",
          "type": "bool"
        },
        {
          "internalType": "uint256",
          "name": "timestamp",
          "type": "uint256"
        }
      ],
      "stateMutability": "view",
      "type": "function"
    },
    {
      "inputs": [],
      "name": "votingConsensus",
      "outputs": [
        {
          "internalType": "string",
          "name": "",
          "type": "string"
        }
      ],
      "stateMutability": "view",
      "type": "function"
    },
    {
      "inputs": [
        {
          "internalType": "string",
          "name": "",
          "type": "string"
        }
      ],
      "name": "votingSessions",
      "outputs": [
        {
          "internalType": "uint256",
          "name": "startTime",
          "type": "uint256"
        },
        {
          "internalType": "bool",
          "name": "isActive",
          "type": "bool"
        },
        {
          "internalType": "bool",
          "name": "isFinalized",
          "type": "bool"
        },
        {
          "internalType": "string",
          "name": "finalLabel",
          "type": "string"
        },
        {
          "internalType": "uint256",
          "name": "totalVoters",
          "type": "uint256"
        },
        {
          "internalType": "uint256",
          "name": "round",
          "type": "uint256"
        }
      ],
      "stateMutability": "view",
      "type": "function"
    },
    {
      "inputs": [],
      "name": "votingTimeoutSeconds",
      "outputs": [
        {
          "internalType": "uint256",
          "name": "",
          "type": "uint256"
        }
      ],
      "stateMutability": "view",
      "type": "function"
    }
  ],
  "bytecode": "0x608060405234610297576139fc803803806100198161029c565b9283398101906060818303126102975780516001600160a01b03811691908290036102975760208101516001600160401b03811161029757810183601f82011215610297578051906001600160401b03821161023557610082601f8301601f191660200161029c565b94828652602083830101116102975760005b82811061028257505060009084016020015260400151603360015590801561024b57600080546001600160a01b03191691909117905581516001600160401b03811161023557600354600181811c9116801561022b575b602082101461021557601f81116101b0575b50602092601f821160011461014b5792819293600092610140575b50508160011b916000199060031b1c1916176003555b60025560405161373a90816102c28239f35b015190503880610118565b601f198216936003600052806000209160005b868110610198575083600195961061017f575b505050811b0160035561012e565b015160001960f88460031b161c19169055388080610171565b9192602060018192868501518155019401920161015e565b60036000527fc2575a0e9e593c00f959f8c92f12db2869c3395a3b0502d05e2516446f71f85b601f830160051c8101916020841061020b575b601f0160051c01905b8181106101ff57506100fd565b600081556001016101f2565b90915081906101e9565b634e487b7160e01b600052602260045260246000fd5b90607f16906100eb565b634e487b7160e01b600052604160045260246000fd5b60405162461bcd60e51b815260206004820152600f60248201526e496e76616c6964206164647265737360881b6044820152606490fd5b80602080928401015182828901015201610094565b600080fd5b6040519190601f01601f191682016001600160401b038111838210176102355760405256fe6080604052600436101561001257600080fd5b6000803560e01c806304574fe814611cc157806326a0613a14611c7c5780632d1bbc8e14611c18578063367cb92414611ab45780634149738514611a25578063414f8e76146119e8578063428f83381461199a57806350e2e8af1461195657806355d389a4146118735780635c95617e146117bd5780635c97951e1461163a5780636042ad611461157d57806368acb1ab1461153b5780636ec479b5146114ba57806372678fcc1461135757806375c255fc14611095578063764926db14610f0857806379c4ab1514610e82578063805265e514610d275780638520eb7814610cbb5780638a19c8bc14610c9d578063a58df19a14610c7f578063a672601d14610bd2578063b28d92ae14610a98578063b32c4d8d14610a46578063b49c447e146109cd578063db7cde8b146108af578063e7dc0d101461026d578063f18a5cec146101b9578063f60ca60d146101925763f9b0b5b91461017257600080fd5b3461018f578060031936011261018f576020600154604051908152f35b80fd5b503461018f578060031936011261018f57546040516001600160a01b039091168152602090f35b503461018f57602036600319011261018f57600435906001600160401b03821161018f5761020260206101ef3660048601611dd3565b8160405193828580945193849201611e2e565b81016007815203019020805460018201549161022060028201611ee1565b61025e600460038401549301549160ff60405196879687528181161515602088015260081c161515604086015260c0606086015260c0850190611e51565b91608084015260a08301520390f35b503461018f57604036600319011261018f576004356001600160401b0381116108ab57366023820112156108ab5780600401356102a981612020565b916102b76040519384611db0565b818352602083019160051b8101602401823682116108a75760248301905b8282106108745750505050602435906102f860018060a01b038554163314612728565b82511561083a57818452600860205260ff6003604086200154166107e9578184526008602052816040852055818452600860205260016040852001835191600160401b83116107d557815483835580841061075f575b509085526020852085915b83831061063a57505050508083526008602052826002604082200155808352600860205260036040842001600160ff19825416179055808352600860205242600460408520015580600955825b82518110156105ee576103b98184612962565b516040519060ff6001825193602081818601966103d781838a611e2e565b8101600781520301902001541661059f5760ff600160405160208185516103ff81838a611e2e565b81016007815203019020015460081c1661055f578360046104c360208995604051865161042d818385611e2e565b81019060078252838142930301902055600160405183818951610451818388611e2e565b8101600781520301902001600160ff1982541617905560016040518381895161047b818388611e2e565b810160078152030190200161ff00198154169055600554600360405184818a516104a6818389611e2e565b810160078152030190200155604051809381928851928391611e2e565b8101600781520301902001556000805160206136a5833981519152604051806104ed42858361210f565b0390a181546001600160a01b0316803b1561055b5760405163b2be4d6560e01b815260206004820152918391839182908490829061052f906024830190611e51565b03925af1610542575b50506001016103a6565b8161054c91611db0565b610557578338610538565b8380fd5b8280fd5b60405162461bcd60e51b815260206004820152601860248201527714d85b5c1b1948185b1c9958591e48199a5b985b1a5e995960421b6044820152606490fd5b60405162461bcd60e51b815260206004820152602160248201527f53616d706c6520616c726561647920686173206163746976652073657373696f6044820152603760f91b6064820152608490fd5b50907f915b7f3f33ca682a46c0a82bcae59307624896b80801e6ea2c6e702a10499ece9161062e6040519283928352606060208401526060830190611fc7565b4260408301520390a180f35b80518051906001600160401b03821161074b576106578454611ea7565b601f8111610710575b5060209089601f84116001146106a657836001959294602094879661068c949261069b575b505061223e565b85555b01920192019190610359565b015190503880610685565b50848a52818a209190601f1984168b5b8181106106f857509360209360019693879693838895106106df575b505050811b01855561068f565b015160001960f88460031b161c191690553880806106d2565b929360206001819287860151815501950193016106b6565b61073b90858b5260208b20601f850160051c81019160208610610741575b601f0160051c0190612227565b38610660565b909150819061072e565b634e487b7160e01b89526041600452602489fd5b828752836020882091820191015b81811061077a575061034e565b8061078760019254611ea7565b80610794575b500161076d565b601f811183146107a957508881555b3861078d565b818a5260208a206107c491601f0160051c8101908401612227565b8089528860208120818355556107a3565b634e487b7160e01b86526041600452602486fd5b60405162461bcd60e51b815260206004820152602360248201527f426174636820616c72656164792061637469766520666f72207468697320726f6044820152621d5b9960ea1b6064820152608490fd5b60405162461bcd60e51b815260206004820152601260248201527108adae0e8f240e6c2dae0d8ca40c4c2e8c6d60731b6044820152606490fd5b81356001600160401b0381116108a357602091610898839260243691890101611dd3565b8152019101906102d5565b8780fd5b8580fd5b5080fd5b503461018f57602036600319011261018f576004356001600160401b0381116108ab576108e0903690600401611dd3565b604051815190602081818501936108f8818387611e2e565b8101600781520301902090836005549060058401905b82811061098057505050600261094060206109529360ff600187015460081c1696604051938492839251928391611e2e565b81016006815203019020549201611ee1565b9261097160405194859415158552608060208601526080850190611e51565b91604084015260608301520390f35b60ff604061098d83611e76565b905460039190911b1c6001600160a01b0316600090815260208590522054166109b9575b60010161090e565b956109c56001916123be565b9690506109b1565b503461018f57602036600319011261018f57600435906001600160401b03821161018f57610a26610a34610a42610a0f610a0a3660048801611dd3565b6129f2565b919390604051958695606087526060870190611fc7565b908582036020870152612037565b908382036040850152612037565b0390f35b503461018f57602036600319011261018f5760406080916004358152600860205220805490600281015490600460ff600383015416910154916040519384526020840152151560408301526060820152f35b503461018f578060031936011261018f57600554610ab581612020565b90610ac36040519283611db0565b808252601f19610ad282612020565b01835b818110610baf575050825b818110610b42578284604051918291602083016020845282518091526020604085019301915b818110610b14575050500390f35b825180516001600160a01b031685526020908101518186015286955060409094019390920191600101610b06565b80610b4e600192611e76565b838060a01b0391549060031b1c16610b6582611e76565b848060a01b0391549060031b1c1686526004602052604086205460405191610b8c83611d95565b82526020820152610b9d8286612962565b52610ba88185612962565b5001610ae0565b602090604051610bbe81611d95565b868152868382015282828701015201610ad5565b503461018f57602036600319011261018f576004356001600160401b0381116108ab57610c06610c7c913690600401611dd3565b610c1a60018060a01b038454163314612728565b610c4860ff60016040516020818651610c368183858b01611e2e565b8101600781520301902001541661212b565b60405190610c57604083611db0565b601382527226b0b73ab0b6103334b730b634bd30ba34b7b760691b6020830152612cbc565b80f35b503461018f578060031936011261018f576020600254604051908152f35b503461018f578060031936011261018f576020600954604051908152f35b503461018f578060031936011261018f5760406009549182815260086020522090610a4260ff6003840154169260018101610cfc60028254930154916126d0565b916040519586958652151560208601526040850152606084015260a0608084015260a0830190611fc7565b503461018f57602036600319011261018f576004356001600160401b0381116108ab5760206101ef610d5d923690600401611dd3565b810160068152030190208054610d7281612020565b90610d806040519283611db0565b80825260208201809385526020852085915b838310610e2e57868587604051928392602084019060208552518091526040840160408260051b8601019392905b828210610dcf57505050500390f35b919360019193955060208091603f19898203018552875190848060a01b038251168152606080610e0c858501516080878601526080850190611e51565b9360408101511515604085015201519101529601920192018594939192610dc0565b60046020600192604051610e4181611d64565b848060a01b038654168152610e57858701611ee1565b8382015260ff6002870154161515604082015260038601546060820152815201920192019190610d92565b503461018f57602036600319011261018f57600435906001600160401b03821161018f57610eb860206101ef3660048601611dd3565b810160078152030190208054610a42610ed8600260018501549401611ee1565b60ff60405194859485528181161515602086015260081c1615156040840152608060608401526080830190611e51565b503461018f57602036600319011261018f576004356001600160401b0381116108ab57610f39903690600401611dd3565b610f4d60018060a01b038354163314612728565b6040519060ff600182519360208181860196610f6a81838a611e2e565b8101600781520301902001541661105057826004610fc460208395610fb460ff600160405185818b51610f9e81838a611e2e565b81016007815203019020015460081c1615612173565b604051865161042d818385611e2e565b8101600781520301902001556000805160206136a583398151915260405180610fee42858361210f565b0390a181546001600160a01b0316803b1561104c5760405163b2be4d6560e01b8152602060048201529183918391829084908290611030906024830190611e51565b03925af161103b5750f35b8161104591611db0565b61018f5780f35b5050fd5b60405162461bcd60e51b815260206004820152601d60248201527f566f74696e672073657373696f6e20616c7265616479206163746976650000006044820152606490fd5b503461018f57604036600319011261018f576004356001600160401b0381116108ab57366023820112156108ab5780600401356110d181612020565b916110df6040519384611db0565b8183526024602084019260051b8201019036821161135357602401915b81831061133357505060243590506001600160401b03811161055b573660238201121561055b5780600401359061113282612020565b916111406040519384611db0565b8083526024602084019160051b830101913683116108a757602401905b8282106113235750505061117b60018060a01b038454163314612728565b81518151036112e957825b6005548110156111bd578061119c600192611e76565b838060a01b0391549060031b1c168552600460205284604081205501611186565b509060055483600555806112b1575b50825b81518110156112ad576111e28184612962565b5115611268576111f28184612962565b516001600160a01b036112058385612962565b51168552600460205260408520556001600160a01b036112258284612962565b5116600554600160401b8110156107d5579061124982600180959401600555611e76565b819291549060031b91821b91858060a01b03901b1916179055016111cf565b60405162461bcd60e51b815260206004820152601d60248201527f576569676874206d7573742062652067726561746572207468616e20300000006044820152606490fd5b8380f35b600584526112e3907f036b6384b5eca791c62761152d0c79bb0604c104a5fb6f4eb0703f3154bb3db090810190612227565b386111cc565b60405162461bcd60e51b81526020600482015260126024820152714d69736d617463686564206c656e6774687360701b6044820152606490fd5b813581526020918201910161115d565b82356001600160a01b03811681036108a7578152602092830192016110fc565b8480fd5b503461018f57602036600319011261018f576004356001600160401b0381116108ab5760206101ef61138d923690600401611dd3565b810160078152030190209080600254801515806114ac575b8061149a575b611475575b50819260055460058201945b81811061142857505060ff935060018101549281549261140f6113e6600260038601549501611ee1565b6040519787818a99161515895260081c161515602088015260e0604088015260e0870190611e51565b936060860152608085015260a084015260c08301520390f35b60ff604061143583611e76565b905460039190911b1c6001600160a01b031660009081526020899052205416611461575b6001016113bc565b9361146d6001916123be565b949050611459565b6114809084546123cd565b804210156113b0576114949150429061206b565b386113b0565b5060ff600185015460081c16156113ab565b5060ff6001850154166113a5565b503461018f57606036600319011261018f576004356001600160401b0381116108ab576114eb903690600401611dd3565b6024356001600160401b03811161055b5761150a903690600401611dd3565b604435906001600160a01b038216820361055757610c7c9261153660018060a01b038654163314612728565b612771565b503461018f57602036600319011261018f5761156960016040610a42936004358152600860205220016126d0565b604051918291602083526020830190611fc7565b503461018f57604036600319011261018f576004356001600160401b0381116108ab576115ae903690600401611dd3565b6115ca6020602435928160405193828580945193849201611e2e565b81016006815203019020805482101561055b576115e79250611fab565b5080546001600160a01b03166115ff60018301611ee1565b91600360ff6002830154169101546116296040519485948552608060208601526080850190611e51565b911515604084015260608301520390f35b503461018f57604036600319011261018f576004356001600160401b0381116108ab5761166b903690600401611dd3565b906024356001600160401b0381116108ab5761168b903690600401611dd3565b3033036117835781546001600160a01b031692833b1561055b5782604051809563f0786f2760e01b825260806004830152818360606116e26116d06084850189611e51565b84810360031901602486015289611e51565b8260408583039260031984016044880152601a81527920baba37b6b0ba32b2103b37ba329030b3b3b932b3b0ba34b7b760311b6020820152603c84016064880152015201925af161176e575b825492935083926001600160a01b031691823b1561176957611030928492836040518096819582946314faf32d60e11b84526004840161243e565b505050fd5b9190928161177b91611db0565b90829061172e565b60405162461bcd60e51b8152602060048201526012602482015271496e7465726e616c2063616c6c206f6e6c7960701b6044820152606490fd5b503461018f57606036600319011261018f576004356001600160401b0381116108ab576117ee903690600401611dd3565b6024356001600160401b03811161055b5761180d903690600401611dd3565b60443590811515820361055757338452600460205260408420541561183557610c7c92612466565b60405162461bcd60e51b81526020600482015260166024820152752737ba1030903932b3b4b9ba32b932b2103b37ba32b960511b6044820152606490fd5b503461018f578060031936011261018f5760405190806003549061189682611ea7565b808552916001811690811561192f57506001146118d2575b610a42846118be81860382611db0565b604051918291602083526020830190611e51565b600381527fc2575a0e9e593c00f959f8c92f12db2869c3395a3b0502d05e2516446f71f85b939250905b808210611915575090915081016020016118be826118ae565b9192600181602092548385880101520191019092916118fc565b60ff191660208087019190915292151560051b850190920192506118be91508390506118ae565b503461018f57602036600319011261018f576004359060055482101561018f57602061198183611e76565b905460405160039290921b1c6001600160a01b03168152f35b503461018f57602036600319011261018f57600435906001600160401b03821161018f57610a426118be60026119d860206101ef3660048901611dd3565b8101600781520301902001611ee1565b503461018f57602036600319011261018f576004356001600160a01b038116908190036108ab578160409160209352600483522054604051908152f35b503461018f57604036600319011261018f576004356001600160401b0381116108ab57611a56903690600401611dd3565b602435906001600160a01b038216820361055b5760209260ff926005611a8b8660409581875193828580945193849201611e2e565b6007908201908152030190206001600160a01b0390921683520184522054604051911615158152f35b503461018f57602036600319011261018f576004356001600160401b0381116108ab57611ae5903690600401611dd3565b611b4660ff6001611b306020604051611b1f85858951938581818d0196611b0d81838a611e2e565b8101600781520301902001541661208e565b604051809381928951928391611e2e565b81016007815203019020015460081c16156120cf565b611b4f81612c7b565b15611bd957611bd37ffe2a617c3a0856bbd203e77cee3d518a00f599c8a955224e80b1d0a1afd9570391611bc5604051611b8a606082611db0565b602281527f54696d656f75742072656163686564202d2065787465726e616c20747269676760208201526132b960f11b604082015282612cbc565b60405191829142908361210f565b0390a180f35b60405162461bcd60e51b8152602060048201526017602482015276151a5b595bdd5d081b9bdd081c995858da1959081e595d604a1b6044820152606490fd5b503461018f57602036600319011261018f57604060a091600435815260086020522060ff6003820154169060018101549060028101546004611c5a828561206b565b9201549260405194151585526020850152604084015260608301526080820152f35b503461018f57602036600319011261018f57600435906001600160401b03821161018f576020611cb7611cb23660048601611dd3565b612c7b565b6040519015158152f35b503461018f57602036600319011261018f57600435906001600160401b03821161018f576020611cf43660048501611dd3565b60405160ff6001835192858181870195611d0f818389611e2e565b810160078152030190200154169182611d2f575b50506040519015158152f35b60ff925083600192611d4c92604051938492839251928391611e2e565b81016007815203019020015460081c16158280611d23565b608081019081106001600160401b03821117611d7f57604052565b634e487b7160e01b600052604160045260246000fd5b604081019081106001600160401b03821117611d7f57604052565b601f909101601f19168101906001600160401b03821190821017611d7f57604052565b81601f82011215611e29578035906001600160401b038211611d7f5760405192611e07601f8401601f191660200185611db0565b82845260208383010111611e2957816000926020809301838601378301015290565b600080fd5b60005b838110611e415750506000910152565b8181015183820152602001611e31565b90602091611e6a81518092818552858086019101611e2e565b601f01601f1916010190565b600554811015611e9157600560005260206000200190600090565b634e487b7160e01b600052603260045260246000fd5b90600182811c92168015611ed7575b6020831014611ec157565b634e487b7160e01b600052602260045260246000fd5b91607f1691611eb6565b9060405191826000825492611ef584611ea7565b8084529360018116908115611f635750600114611f1c575b50611f1a92500383611db0565b565b90506000929192526020600020906000915b818310611f47575050906020611f1a9282010138611f0d565b6020919350806001915483858901015201910190918492611f2e565b905060209250611f1a94915060ff191682840152151560051b82010138611f0d565b602090611f9f928260405194838680955193849201611e2e565b82019081520301902090565b8054821015611e915760005260206000209060021b0190600090565b9080602083519182815201916020808360051b8301019401926000915b838310611ff357505050505090565b9091929394602080612011600193601f198682030187528951611e51565b97019301930191939290611fe4565b6001600160401b038111611d7f5760051b60200190565b906020808351928381520192019060005b8181106120555750505090565b8251845260209384019390920191600101612048565b9190820391821161207857565b634e487b7160e01b600052601160045260246000fd5b1561209557565b60405162461bcd60e51b815260206004820152601260248201527153657373696f6e206e6f742061637469766560701b6044820152606490fd5b156120d657565b60405162461bcd60e51b8152602060048201526011602482015270105b1c9958591e48199a5b985b1a5e9959607a1b6044820152606490fd5b929190612126602091604086526040860190611e51565b930152565b1561213257565b60405162461bcd60e51b8152602060048201526019602482015278566f74696e672073657373696f6e206e6f742061637469766560381b6044820152606490fd5b1561217a57565b606460405162461bcd60e51b815260206004820152602060248201527f566f74696e672073657373696f6e20616c72656164792066696e616c697a65646044820152fd5b156121c557565b60405162461bcd60e51b815260206004820152600d60248201526c105b1c9958591e481d9bdd1959609a1b6044820152606490fd5b60405190612209604083611db0565b600f82526e151a5b595bdd5d081c995858da1959608a1b6020830152565b818110612232575050565b60008155600101612227565b8160011b916000199060031b1c19161790565b8054600160401b811015611d7f5761226e91600182018155611fab565b9190916123a857805182546001600160a01b0319166001600160a01b03919091161782556020810151805160018401916001600160401b038211611d7f576122b68354611ea7565b601f8111612376575b50602090601f831160011461230a578260039593606095936122e99360009261069b57505061223e565b90555b600284016040820151151560ff801983541691161790550151910155565b90601f1983169184600052816000209260005b81811061235e5750926001928592600398966060989610612346575b505050811b0190556122ec565b015160001983891b60f8161c19169055388080612339565b9293602060018192878601518155019501930161231d565b6123a290846000526020600020601f850160051c8101916020861061074157601f0160051c0190612227565b386122bf565b634e487b7160e01b600052600060045260246000fd5b60001981146120785760010190565b9190820180921161207857565b604051906123e9604083611db0565b6017825276105b1b081d9bdd195c9cc81c185c9d1a58da5c185d1959604a1b6020830152565b6040519061241e604083611db0565b601182527010dbdb9cd95b9cdd5cc81c995858da1959607a1b6020830152565b909161245561246393604084526040840190611e51565b916020818403910152611e51565b90565b919060405161248760ff6001865193602081818a0196610c3681838a611e2e565b6124a160ff60016040516020818951610f9e81838a611e2e565b600560405160208187516124b6818388611e2e565b810160078152030190200160018060a01b0333166000526020526124e260ff60406000205416156121be565b6124eb84612c7b565b6126c157906000805160206136e5833981519152916040516020818751612513818387611e2e565b810160068152030190209361254b60405161252d81611d64565b33815284602082015282151596876040830152426060830152612251565b60056040516020818951612560818389611e2e565b600790820190815203019020336000908152910160205260409020805460ff1916600117905561263e575b506125b260405191608083526125a46080840187611e51565b908382036020850152611e51565b9260408201524260608201528033930390a26125cd81613114565b80511561261b577f0cc62c8b09788a11d11e96187c34c67fad5e9651cadc6ace24e1518490bed9819161260761260161240f565b82612cbc565b6126166040519283928361243e565b0390a1565b50612625816132c5565b61262c5750565b611f1a906126386123da565b90612cbc565b61266760066040516020818951612656818389611e2e565b810160078152030190200183611f85565b61267181546123be565b90553360005260046020526126b96126b160076126a1602060406000205495604051809381928d51928391611e2e565b8101848152030190200184611f85565b9182546123cd565b90553861258b565b505050611f1a906126386121fa565b9081546126dc81612020565b926126ea6040519485611db0565b818452602084019060005260206000206000915b83831061270b5750505050565b60016020819261271a85611ee1565b8152019201920191906126fe565b1561272f57565b60405162461bcd60e51b815260206004820152601a60248201527913db9b1e481b585a5b881c1c9bda9958dd0818d85b8818d85b1b60321b6044820152606490fd5b9160018060a01b03169081600052600460205260406000205415612926576040516127ae60ff6001865193602081818a0196610c3681838a611e2e565b6127c860ff60016040516020818951610f9e81838a611e2e565b600560405160208187516127dd818388611e2e565b81016007815203019020018360005260205261280160ff60406000205416156121be565b61280a84612c7b565b6126c1576000805160206136e58339815191529161290d9161286a6040516020818951612838818388611e2e565b810160068152030190206040519061284f82611d64565b87825284602083015260016040830152426060830152612251565b6005604051602081895161287f818388611e2e565b8101600781520301902001856000526020526040600020600160ff198254161790556128b960066040516020818a51612656818389611e2e565b6128c381546123be565b90558460005260046020526128f46126b160076126a16020604060002054958b604051938492839251928391611e2e565b9055604051918291608083526125a46080840188611e51565b600160408301524260608301520390a26125cd81613114565b60405162461bcd60e51b8152602060048201526014602482015273159bdd195c881b9bdd081c9959da5cdd195c995960621b6044820152606490fd5b8051821015611e915760209160051b010190565b9061298082612020565b61298d6040519182611db0565b828152809261299e601f1991612020565b019060005b8281106129af57505050565b8060606020809385010152016129a3565b906129ca82612020565b6129d76040519182611db0565b82815280926129e8601f1991612020565b0190602036910137565b60405181519060208181850193612a0a818387611e2e565b81016006815203019020918254612a2081612020565b93612a2e6040519586611db0565b818552602085019060005260206000206000915b838310612c275750505050612a6591602091604051938492839251928391611e2e565b8101600781520301902090805115612bbd57612a818151612976565b90600093845b8251811015612b19576020612a9c8285612962565b510151600060208201815b898110612aea575b505015612ac0575b50600101612a87565b86612ae391612ad26001949988612962565b52612add8187612962565b506123be565b9590612ab7565b612af48189612962565b51602081519101208451832014612b0d57600101612aa7565b50505060013880612aaf565b509192939050612b2881612976565b90612b32816129c0565b94612b3c826129c0565b94600782019160060160005b848110612b59575050505050929190565b80612b6660019285612962565b51612b718289612962565b52612b7c8188612962565b50612b9183612b8b8387612962565b51611f85565b54612b9c828c612962565b52612bab85612b8b8387612962565b54612bb6828b612962565b5201612b48565b5050604051906000612bd0602084611db0565b82526000805b818110612c1657505060209060405192612bf08385611db0565b60008452600036813760405192612c078185611db0565b60008452506000368137929190565b806060602080938701015201612bd6565b60046020600192604051612c3a81611d64565b848060a01b038654168152612c50858701611ee1565b8382015260ff6002870154161515604082015260038601546060820152815201920192019190612a42565b6002548015612cb557612ca06020612cb0938160405193828580945193849201611e2e565b81016007815203019020546123cd565b421190565b5050600090565b906000604051612cde60ff6001865193602081818a0196611b0d81838a611e2e565b612cf860ff60016040516020818951611b3081838a611e2e565b60016040516020818751612d0d818388611e2e565b810160078152030190200160ff19815416905560016040516020818751612d35818388611e2e565b810160078152030190200161010061ff0019825416179055612d5684613372565b9260026040516020818851612d6c818389611e2e565b8101600781520301902001845160018060401b03811161310057612d908254611ea7565b601f81116130d0575b506020601f821160011461305457612e49612e5d94602094612dd685600499966000805160206136c5833981519152968c91613049575b5061223e565b90555b7f8a0cc662156da5580404150064cc81955de64ef5a8090364795edcbac842999160405180612e0a8d42908361210f565b0390a160405191829160808352612e35612e288d6080860190611e51565b848103898601528c611e51565b904260408501528382036060850152611e51565b0390a1604051809381928951928391611e2e565b81016007815203019020015480151580613030575b612f0d575b50303b1561018f57604051632e4bca8f60e11b815290808280612e9e86886004840161243e565b038183305af19182612efd575b5050612eb5575050565b7fdabbbde127ef4ac1b0a84891a674bfc7b3ceff8d1e7350abd0f7c48021420d3291612ef26125a492604051938493606085526060850190611e51565b4260408301520390a1565b81612f0791611db0565b38612eab565b808252600860205260026040832001612f2681546123be565b905580825260086020527f145f86831bf675d553efc81172882ecdb1776f5bdfa7f1b8367ad08b57888740612f726001604085200154838552600860205260026040862001549061206b565b604051809184825260806020830152612f9f612f91608084018a611e51565b838103604085015288611e51565b9060608301520390a1808252600860205260026040832001548183526008602052600160408420015411612e77576060817fcdf3a25ac86d8c6a422a8356f0fb7d6cc09b23caca39fd699cbc6038e558736492845260086020526003604085200160ff198154169055808452600860205260026040852001546040519182526020820152426040820152a138612e77565b50808252600860205260ff600360408420015416612e72565b90508c015138612dd0565b82865280862090601f198316875b8181106130b85750946020946001856000805160206136c583398151915295612e499560049b98612e5d9b1061309f575b5050811b019055612dd9565b8d015160001960f88460031b161c191690553880613093565b9192602060018192868d015181550194019201613062565b6130fa9083875260208720601f840160051c8101916020851061074157601f0160051c0190612227565b38612d99565b634e487b7160e01b85526041600452602485fd5b606091604051602081845161312c8183858901611e2e565b8101600681520301902080549061314282612020565b946131506040519687611db0565b82865260208601916000526020600020906000925b848410613272575050505050825115613261576131828351612976565b90600090815b855181101561320957602061319d8288612962565b510151600060208201815b8681106131da575b5050156131c1575b50600101613188565b836131d391612ad26001949688612962565b92906131b8565b6131e48189612962565b516020815191012084518320146131fd576001016131a8565b505050600138806131b0565b5093509160005b8381106132305750505050604051613229602082611db0565b6000815290565b61324461323d8285612962565b5183613532565b61325057600101613210565b91905061325d9250612962565b5190565b915050604051613229602082611db0565b6004602060019260405161328581611d64565b848060a01b03875416815261329b858801611ee1565b8382015260ff60028801541615156040820152600387015486820152815201930193019291613165565b6000906000600554905b8181106133035750506132f360206003928160405193828580945193849201611e2e565b8101600781520301902001541490565b60ff604060058151602081885161331d8183858d01611e2e565b810160078152030190200161333184611e76565b905460039190911b1c6001600160a01b0316600090815260209190915220541661335e575b6001016132cf565b9261336a6001916123be565b939050613356565b6060906040518151906020818185019361338d818387611e2e565b810160068152030190208054906133a382612020565b946133b16040519687611db0565b82865260208601916000526020600020906000925b8484106134df5750505050508251156134b65760206133f391600793604051938492839251928391611e2e565b8101848152030190200160209260405161340d8582611db0565b600081529260009160005b825181101561347257604061342d8285612962565b51015161343d575b600101613418565b866134488285612962565b5101516134558682611f85565b54858111613465575b5050613435565b909650935060013861345e565b508451909593506000925015905061348957505090565b506040805192506b4e4f5f434f4e53454e53555360a01b91906134ac9084611db0565b600c835282015290565b5050506040516134c7604082611db0565b60088152674e4f5f564f54455360c01b602082015290565b600460206001926040516134f281611d64565b848060a01b038754168152613508858801611ee1565b8382015260ff600288015416151560408201526003870154868201528152019301930192916133c6565b602061354e919392938160405193828580945193849201611e2e565b8101600681520301902091825461356481612020565b936135726040519586611db0565b818552602085019060005260206000206000915b838310613650575050505060008091815b85518110156136275760206135ac8288612962565b5101516020815191012082516020840120146135cb575b600101613597565b6001600160a01b036135dd8288612962565b51511660005260046020526135f860406000205480946123cd565b9260406136058389612962565b510151613613575b506135c3565b61362090600192956123cd565b939061360d565b5050909192508015612cb557606482029180830460641490151715612078576001549104101590565b6004602060019260405161366381611d64565b848060a01b038654168152613679858701611ee1565b8382015260ff600287015416151560408201526003860154606082015281520192019201919061358656fe1a6063ea5a85373503082e9047ebbde10c2ef86a0029b81921668e4a2ea190e3a8e1279888c174a6fbf4fd42a8be4469b313be30a5edac87aff45c5f8a450deb2579d0860b48f37c239a6db657bad6560c277bbce0a8a989d70227407fc62e06a2646970667358221220c09227560f03c4b9657ebb9f791c72df0f510c65d82b7749df0a4d3f11eb632c64736f6c634300081c0033",
  "linkReferences": {},
  "deployedLinkReferences": {}
}