{
  "_format": "hh-sol-artifact-1",
  "contractName": "ALProjectStorage",
  "sourceName": "contracts/ALProjectStorage.sol",
  "abi": [
    {
      "inputs": [
        {
          "internalType": "address",
          "name": "_jsonProject",
          "type": "address"
        }
      ],
      "stateMutability": "nonpayable",
      "type": "constructor"
    },
    {
      "anonymous": false,
      "inputs": [
        {
          "indexed": false,
          "internalType": "string",
          "name": "sampleId",
          "type": "string"
        },
        {
          "indexed": false,
          "internalType": "string",
          "name": "label",
          "type": "string"
        },
        {
          "indexed": false,
          "internalType": "string",
          "name": "ipfsHash",
          "type": "string"
        },
        {
          "indexed": false,
          "internalType": "uint256",
          "name": "round",
          "type": "uint256"
        },
        {
          "indexed": false,
          "internalType": "uint256",
          "name": "timestamp",
          "type": "uint256"
        }
      ],
      "name": "LabelFinalized",
      "type": "event"
    },
    {
      "anonymous": false,
      "inputs": [
        {
          "indexed": false,
          "internalType": "string",
          "name": "sampleId",
          "type": "string"
        },
        {
          "indexed": false,
          "internalType": "uint256",
          "name": "round",
          "type": "uint256"
        },
        {
          "indexed": false,
          "internalType": "string",
          "name": "finalLabel",
          "type": "string"
        },
        {
          "indexed": false,
          "internalType": "uint256",
          "name": "voteCount",
          "type": "uint256"
        }
      ],
      "name": "VotingHistoryRecorded",
      "type": "event"
    },
    {
      "inputs": [
        {
          "internalType": "string",
          "name": "",
          "type": "string"
        }
      ],
      "name": "finalLabels",
      "outputs": [
        {
          "internalType": "string",
          "name": "sampleId",
          "type": "string"
        },
        {
          "internalType": "string",
          "name": "label",
          "type": "string"
        },
        {
          "internalType": "uint256",
          "name": "round",
          "type": "uint256"
        },
        {
          "internalType": "string",
          "name": "justification",
          "type": "string"
        },
        {
          "internalType": "string",
          "name": "ipfsHash",
          "type": "string"
        },
        {
          "internalType": "uint256",
          "name": "timestamp",
          "type": "uint256"
        }
      ],
      "stateMutability": "view",
      "type": "function"
    },
    {
      "inputs": [
        {
          "internalType": "string",
          "name": "sampleId",
          "type": "string"
        }
      ],
      "name": "getFinalLabel",
      "outputs": [
        {
          "internalType": "string",
          "name": "label",
          "type": "string"
        },
        {
          "internalType": "uint256",
          "name": "round",
          "type": "uint256"
        },
        {
          "internalType": "string",
          "name": "justification",
          "type": "string"
        },
        {
          "internalType": "string",
          "name": "ipfsHash",
          "type": "string"
        },
        {
          "internalType": "uint256",
          "name": "timestamp",
          "type": "uint256"
        }
      ],
      "stateMutability": "view",
      "type": "function"
    },
    {
      "inputs": [
        {
          "internalType": "string",
          "name": "sampleId",
          "type": "string"
        }
      ],
      "name": "getLabelHistory",
      "outputs": [
        {
          "internalType": "string[]",
          "name": "",
          "type": "string[]"
        }
      ],
      "stateMutability": "view",
      "type": "function"
    },
    {
      "inputs": [
        {
          "internalType": "string",
          "name": "sampleId",
          "type": "string"
        },
        {
          "internalType": "uint256",
          "name": "historyIndex",
          "type": "uint256"
        },
        {
          "internalType": "uint256",
          "name": "voteIndex",
          "type": "uint256"
        }
      ],
      "name": "getVoteFromHistory",
      "outputs": [
        {
          "internalType": "address",
          "name": "voter",
          "type": "address"
        },
        {
          "internalType": "string",
          "name": "label",
          "type": "string"
        }
      ],
      "stateMutability": "view",
      "type": "function"
    },
    {
      "inputs": [
        {
          "internalType": "string",
          "name": "sampleId",
          "type": "string"
        },
        {
          "internalType": "uint256",
          "name": "index",
          "type": "uint256"
        }
      ],
      "name": "getVotingHistoryByIndex",
      "outputs": [
        {
          "internalType": "uint256",
          "name": "round",
          "type": "uint256"
        },
        {
          "internalType": "string",
          "name": "finalLabel",
          "type": "string"
        },
        {
          "internalType": "uint256",
          "name": "timestamp",
          "type": "uint256"
        },
        {
          "internalType": "uint256",
          "name": "voteCount",
          "type": "uint256"
        }
      ],
      "stateMutability": "view",
      "type": "function"
    },
    {
      "inputs": [
        {
          "internalType": "string",
          "name": "sampleId",
          "type": "string"
        }
      ],
      "name": "getVotingHistoryCount",
      "outputs": [
        {
          "internalType": "uint256",
          "name": "",
          "type": "uint256"
        }
      ],
      "stateMutability": "view",
      "type": "function"
    },
    {
      "inputs": [
        {
          "internalType": "string",
          "name": "",
          "type": "string"
        },
        {
          "internalType": "uint256",
          "name": "",
          "type": "uint256"
        }
      ],
      "name": "historyBySample",
      "outputs": [
        {
          "internalType": "string",
          "name": "sampleId",
          "type": "string"
        },
        {
          "internalType": "uint256",
          "name": "round",
          "type": "uint256"
        },
        {
          "internalType": "string",
          "name": "finalLabel",
          "type": "string"
        },
        {
          "internalType": "uint256",
          "name": "timestamp",
          "type": "uint256"
        }
      ],
      "stateMutability": "view",
      "type": "function"
    },
    {
      "inputs": [],
      "name": "jsonProject",
      "outputs": [
        {
          "internalType": "address",
          "name": "",
          "type": "address"
        }
      ],
      "stateMutability": "view",
      "type": "function"
    },
    {
      "inputs": [
        {
          "internalType": "string",
          "name": "sampleId",
          "type": "string"
        },
        {
          "internalType": "uint256",
          "name": "round",
          "type": "uint256"
        },
        {
          "internalType": "string",
          "name": "finalLabel",
          "type": "string"
        },
        {
          "internalType": "address[]",
          "name": "voters",
          "type": "address[]"
        },
        {
          "internalType": "string[]",
          "name": "labels",
          "type": "string[]"
        }
      ],
      "name": "recordVotingHistory",
      "outputs": [],
      "stateMutability": "nonpayable",
      "type": "function"
    },
    {
      "inputs": [
        {
          "internalType": "string",
          "name": "",
          "type": "string"
        },
        {
          "internalType": "uint256",
          "name": "",
          "type": "uint256"
        }
      ],
      "name": "sampleHistory",
      "outputs": [
        {
          "internalType": "string",
          "name": "",
          "type": "string"
        }
      ],
      "stateMutability": "view",
      "type": "function"
    },
    {
      "inputs": [
        {
          "internalType": "string",
          "name": "sampleId",
          "type": "string"
        },
        {
          "internalType": "string",
          "name": "label",
          "type": "string"
        },
        {
          "internalType": "uint256",
          "name": "round",
          "type": "uint256"
        },
        {
          "internalType": "string",
          "name": "justification",
          "type": "string"
        },
        {
          "internalType": "string",
          "name": "ipfsHash",
          "type": "string"
        }
      ],
      "name": "storeFinalLabel",
      "outputs": [],
      "stateMutability": "nonpayable",
      "type": "function"
    }
  ],
  "bytecode": "0x60803460ba57601f61124d38819003918201601f19168301916001600160401b0383118484101760bf5780849260209460405283398101031260ba57516001600160a01b0381169081900360ba578015607557600080546001600160a01b03191691909117905560405161117790816100d68239f35b60405162461bcd60e51b815260206004820152601760248201527f496e76616c69642070726f6a65637420616464726573730000000000000000006044820152606490fd5b600080fd5b634e487b7160e01b600052604160045260246000fdfe6080604052600436101561001257600080fd5b60003560e01c80633ae9437914610c1b5780633fa96967146109cd578063428f8338146108d65780634fe8933714610875578063697cfa401461084c5780637a2e9f0f146106cb57806387b17355146106825780638b31dad01461030e578063c2e750e614610229578063df21abfa146101a65763f6e677861461009557600080fd5b346101a15760203660031901126101a1576004356001600160401b0381116101a15760206100ca6100dd923690600401610d46565b8160405193828580945193849201610d9c565b810160028152030190208054906100f382610f46565b916101016040519384610d23565b80835260208301809260005260206000206000915b83831061018457848660405191829160208301906020845251809152604083019060408160051b85010192916000905b82821061015557505050500390f35b919360019193955060206101748192603f198a82030186528851610e9d565b9601920192018594939192610146565b60016020819261019385610df9565b815201920192019190610116565b600080fd5b346101a15760206101ce6101b936610ec2565b92908160405193828580945193849201610d9c565b810160028152030190209081548110156101a1576101eb91610f5d565b610213576101fb61020f91610df9565b604051918291602083526020830190610e9d565b0390f35b634e487b7160e01b600052600060045260246000fd5b346101a15761023736610ec2565b6040518251906020818186019361024f818387610d9c565b81016003815203019020548210156102d357602061027c9161028b94604051938492839251928391610d9c565b81016003815203019020610ef3565b50600181015460038201546102a7600260048501549401610df9565b926102c46040519485948552608060208601526080850190610e9d565b91604084015260608301520390f35b60405162461bcd60e51b8152602060048201526013602482015272496e646578206f7574206f6620626f756e647360681b6044820152606490fd5b346101a15760a03660031901126101a1576004356001600160401b0381116101a15761033e903690600401610d46565b602435906044356001600160401b0381116101a157610361903690600401610d46565b6064356001600160401b0381116101a157366023820112156101a157806004013561038b81610f46565b916103996040519384610d23565b8183526024602084019260051b820101903682116101a157602401915b8183106106625750506084359490506001600160401b0385116101a157366023860112156101a15784600401356103ec81610f46565b956103fa6040519788610d23565b8187526024602088019260051b820101903682116101a15760248101925b828410610633575050505061043860018060a01b03600054163314610f75565b81518551036105fc5761044d84511515610fbe565b60405184519060208181880193610465818387610d9c565b810160038152030190208054600160401b8110156105965761048c91600182018155610ef3565b505060405160208187516104a1818387610d9c565b810160038152030190205460001981019081116105e65761027c60206104d593604098979851809381928a51928391610d9c565b50926104e18185611006565b8160018501556104f48560028601611006565b426003850155600460009401935b83518110156105ac576001600160a01b0361051d828661112d565b51169061052a818961112d565b516040519261053884610d08565b8352602083019081528654600160401b8110156105965780600161055f9201895588611111565b61021357925183546001600160a01b0319166001600160a01b03919091161783555160019261059091908401611006565b01610502565b634e487b7160e01b600052604160045260246000fd5b506105e1857fb74589472dd4252ab2cbc69b30cc7fb08c8bf28c11827e66c6e6a7cbe59ec27194519060405194859485610f25565b0390a1005b634e487b7160e01b600052601160045260246000fd5b60405162461bcd60e51b815260206004820152600f60248201526e098cadccee8d040dad2e6dac2e8c6d608b1b6044820152606490fd5b83356001600160401b0381116101a157602091610657839260243691870101610d46565b815201930192610418565b82356001600160a01b03811681036101a1578152602092830192016103b6565b346101a15760203660031901126101a1576004356001600160401b0381116101a1576106b860206100ca81933690600401610d46565b8101600381520301902054604051908152f35b346101a15760603660031901126101a1576004356001600160401b0381116101a1576106fb903690600401610d46565b60405181516024359260443592602080830193829061071b818388610d9c565b810160038152030190205484101561080957600461074685604051602081865161027c81838b610d9c565b5001548310156107c9576107789361027c602060049461077194604051938492839251928391610d9c565b5001611111565b5061079c60016040519261078b84610d08565b818060a01b03815416845201610df9565b9081602082015260018060a01b0390511661020f6040519283928352604060208401526040830190610e9d565b60405162461bcd60e51b8152602060048201526018602482015277566f746520696e646578206f7574206f6620626f756e647360401b6044820152606490fd5b60405162461bcd60e51b815260206004820152601b60248201527a486973746f727920696e646578206f7574206f6620626f756e647360281b6044820152606490fd5b346101a15760003660031901126101a1576000546040516001600160a01b039091168152602090f35b346101a15760206108886101b936610ec2565b810160038152030190209081548110156101a1576108a591610ef3565b506108af81610df9565b61020f60018301549260036108c660028301610df9565b9101549060405194859485610f25565b346101a15760203660031901126101a1576004356001600160401b0381116101a15761090e60206100ca6109a2933690600401610d46565b8101600181520301902060a06109c36040519261092a84610ced565b61093381610df9565b84526109b561094460018301610df9565b94602081019586526002830154956040820196875261096560038501610df9565b9160608101928352600561097b60048701610df9565b9586608084015201549687910152519551905160405197889760a0895260a0890190610e9d565b9160208801528682036040880152610e9d565b908482036060860152610e9d565b9060808301520390f35b346101a15760a03660031901126101a1576004356001600160401b0381116101a1576109fd903690600401610d46565b6024356001600160401b0381116101a157610a1c903690600401610d46565b604435916064356001600160401b0381116101a157610a3f903690600401610d46565b926084356001600160401b0381116101a157610a5f903690600401610d46565b93610a7560018060a01b03600054163314610f75565b610a8183511515610fbe565b835115610bde57604051610a9481610ced565b8381526020810191858352604082019084825260608301908152608083019088825260a0840192428452604051958851968060208b0198610ad681838c610d9c565b8101600181520360200190209551610aee9087611006565b51610afc9060018701611006565b51600285015551610b109060038501611006565b51610b1e9060048401611006565b51906005015560405180809285518092610b3792610d9c565b8101600281520360200190208054600160401b81101561059657610b6091600182018155610f5d565b9390936102135784610bbf610bcd92610b9d7ff84a42c8735c4bc780cc1f05f254f9e45ac5bae1e9bf577171cbe3e4963c128f98610bb198611006565b60405196879660a0885260a0880190610e9d565b908682036020880152610e9d565b908482036040860152610e9d565b9060608301524260808301520390a1005b60405162461bcd60e51b81526020600482015260156024820152744c6162656c2063616e6e6f7420626520656d70747960581b6044820152606490fd5b346101a15760203660031901126101a1576004356001600160401b0381116101a157610c5360206100ca610cb4933690600401610d46565b81016001815203019020610c6681610df9565b90610ce3610c7660018301610df9565b91610cd56002820154610c8b60038401610df9565b610cc26005610c9c60048701610df9565b95015496604051998a9960c08b5260c08b0190610e9d565b9089820360208b0152610e9d565b9160408801528682036060880152610e9d565b908482036080860152610e9d565b9060a08301520390f35b60c081019081106001600160401b0382111761059657604052565b604081019081106001600160401b0382111761059657604052565b601f909101601f19168101906001600160401b0382119082101761059657604052565b81601f820112156101a1578035906001600160401b0382116105965760405192610d7a601f8401601f191660200185610d23565b828452602083830101116101a157816000926020809301838601378301015290565b60005b838110610daf5750506000910152565b8181015183820152602001610d9f565b90600182811c92168015610def575b6020831014610dd957565b634e487b7160e01b600052602260045260246000fd5b91607f1691610dce565b9060405191826000825492610e0d84610dbf565b8084529360018116908115610e7b5750600114610e34575b50610e3292500383610d23565b565b90506000929192526020600020906000915b818310610e5f575050906020610e329282010138610e25565b6020919350806001915483858901015201910190918492610e46565b905060209250610e3294915060ff191682840152151560051b82010138610e25565b90602091610eb681518092818552858086019101610d9c565b601f01601f1916010190565b60406003198201126101a157600435906001600160401b0382116101a157610eec91600401610d46565b9060243590565b8054821015610f0f576000526005602060002091020190600090565b634e487b7160e01b600052603260045260246000fd5b949392916060926109a2610f4193608089526080890190610e9d565b930152565b6001600160401b0381116105965760051b60200190565b8054821015610f0f5760005260206000200190600090565b15610f7c57565b60405162461bcd60e51b815260206004820152601a60248201527913db9b1e481b585a5b881c1c9bda9958dd0818d85b8818d85b1b60321b6044820152606490fd5b15610fc557565b60405162461bcd60e51b815260206004820152601960248201527853616d706c652049442063616e6e6f7420626520656d70747960381b6044820152606490fd5b81519192916001600160401b038111610596576110238254610dbf565b601f81116110c9575b506020601f8211600114611067578192939460009261105c575b50508160011b916000199060031b1c1916179055565b015190503880611046565b601f1982169083600052806000209160005b8181106110b157509583600195969710611098575b505050811b019055565b015160001960f88460031b161c1916905538808061108e565b9192602060018192868b015181550194019201611079565b826000526020600020601f830160051c81019160208410611107575b601f0160051c01905b8181106110fb575061102c565b600081556001016110ee565b90915081906110e5565b8054821015610f0f5760005260206000209060011b0190600090565b8051821015610f0f5760209160051b01019056fea26469706673582212201e484c627663fb849f15bc7d6b63d3f76a2b6f2ef4aeb72f27fe761d3926a88764736f6c634300081c0033",
  "linkReferences": {},
  "deployedLinkReferences": {}
}