{
  "_format": "hh-sol-artifact-1",
  "contractName": "ALProjectDeployer",
  "sourceName": "contracts/ALProjectDeployer.sol",
  "abi": [
    {
      "inputs": [
        {
          "internalType": "bytes",
          "name": "_alProjectBytecode",
          "type": "bytes"
        },
        {
          "internalType": "bytes",
          "name": "_alVotingBytecode",
          "type": "bytes"
        },
        {
          "internalType": "bytes",
          "name": "_alStorageBytecode",
          "type": "bytes"
        },
        {
          "internalType": "address",
          "name": "_linkerContract",
          "type": "address"
        },
        {
          "internalType": "address",
          "name": "_assetFactory",
          "type": "address"
        }
      ],
      "stateMutability": "nonpayable",
      "type": "constructor"
    },
    {
      "anonymous": false,
      "inputs": [
        {
          "indexed": true,
          "internalType": "address",
          "name": "alProject",
          "type": "address"
        },
        {
          "indexed": true,
          "internalType": "address",
          "name": "baseProject",
          "type": "address"
        }
      ],
      "name": "ALProjectCreated",
      "type": "event"
    },
    {
      "anonymous": false,
      "inputs": [
        {
          "indexed": true,
          "internalType": "address",
          "name": "baseProject",
          "type": "address"
        },
        {
          "indexed": true,
          "internalType": "address",
          "name": "alProject",
          "type": "address"
        },
        {
          "indexed": false,
          "internalType": "address",
          "name": "votingContract",
          "type": "address"
        },
        {
          "indexed": false,
          "internalType": "address",
          "name": "storageContract",
          "type": "address"
        },
        {
          "indexed": false,
          "internalType": "address",
          "name": "roCrateAsset",
          "type": "address"
        }
      ],
      "name": "ALProjectDeployed",
      "type": "event"
    },
    {
      "anonymous": false,
      "inputs": [
        {
          "indexed": true,
          "internalType": "address",
          "name": "storageContract",
          "type": "address"
        },
        {
          "indexed": true,
          "internalType": "address",
          "name": "alProject",
          "type": "address"
        }
      ],
      "name": "ALStorageCreated",
      "type": "event"
    },
    {
      "anonymous": false,
      "inputs": [
        {
          "indexed": true,
          "internalType": "address",
          "name": "votingContract",
          "type": "address"
        },
        {
          "indexed": true,
          "internalType": "address",
          "name": "alProject",
          "type": "address"
        }
      ],
      "name": "ALVotingCreated",
      "type": "event"
    },
    {
      "anonymous": false,
      "inputs": [
        {
          "indexed": true,
          "internalType": "address",
          "name": "baseProject",
          "type": "address"
        },
        {
          "indexed": true,
          "internalType": "address",
          "name": "alProject",
          "type": "address"
        }
      ],
      "name": "LinkingCompleted",
      "type": "event"
    },
    {
      "anonymous": false,
      "inputs": [
        {
          "indexed": true,
          "internalType": "address",
          "name": "baseProject",
          "type": "address"
        },
        {
          "indexed": true,
          "internalType": "address",
          "name": "alProject",
          "type": "address"
        }
      ],
      "name": "LinkingStarted",
      "type": "event"
    },
    {
      "anonymous": false,
      "inputs": [
        {
          "indexed": true,
          "internalType": "address",
          "name": "roCrateAsset",
          "type": "address"
        },
        {
          "indexed": false,
          "internalType": "string",
          "name": "ipfsHash",
          "type": "string"
        },
        {
          "indexed": false,
          "internalType": "uint256",
          "name": "viewerCount",
          "type": "uint256"
        }
      ],
      "name": "RoCrateAssetCreated",
      "type": "event"
    },
    {
      "inputs": [
        {
          "internalType": "address",
          "name": "originalCaller",
          "type": "address"
        },
        {
          "internalType": "address",
          "name": "baseProject",
          "type": "address"
        },
        {
          "components": [
            {
              "internalType": "string",
              "name": "queryStrategy",
              "type": "string"
            },
            {
              "internalType": "string",
              "name": "alScenario",
              "type": "string"
            },
            {
              "internalType": "uint256",
              "name": "maxIteration",
              "type": "uint256"
            },
            {
              "internalType": "uint256",
              "name": "queryBatchSize",
              "type": "uint256"
            },
            {
              "internalType": "string[]",
              "name": "labelSpace",
              "type": "string[]"
            }
          ],
          "internalType": "struct ALProjectDeployer.ALProjectConfig",
          "name": "alConfig",
          "type": "tuple"
        },
        {
          "components": [
            {
              "internalType": "string",
              "name": "votingConsensus",
              "type": "string"
            },
            {
              "internalType": "uint256",
              "name": "votingTimeout",
              "type": "uint256"
            }
          ],
          "internalType": "struct ALProjectDeployer.VotingConfig",
          "name": "votingConfig",
          "type": "tuple"
        },
        {
          "internalType": "string",
          "name": "rocrateHash",
          "type": "string"
        },
        {
          "internalType": "address[]",
          "name": "contributors",
          "type": "address[]"
        },
        {
          "internalType": "uint256",
          "name": "nonce",
          "type": "uint256"
        }
      ],
      "name": "deployAL",
      "outputs": [
        {
          "internalType": "address",
          "name": "alProject",
          "type": "address"
        },
        {
          "internalType": "address",
          "name": "votingContract",
          "type": "address"
        },
        {
          "internalType": "address",
          "name": "storageContract",
          "type": "address"
        },
        {
          "internalType": "address",
          "name": "roCrateAsset",
          "type": "address"
        }
      ],
      "stateMutability": "nonpayable",
      "type": "function"
    }
  ],
  "bytecode": "0x60c0604052346104ca5761157980380380610019816104cf565b92833981019060a0818303126104ca5780516001600160401b0381116104ca57826100459183016104f4565b60208201516001600160401b0381116104ca57836100649184016104f4565b604083015190936001600160401b0382116104ca576100849184016104f4565b9161009d60806100966060840161055f565b920161055f565b825190926001600160401b0382116102e95760005490600182811c921680156104c0575b60208310146102c95781601f849311610451575b50602090601f83116001146103eb576000926103e0575b50508160011b916000199060031b1c1916176000555b83516001600160401b0381116102e957600154600181811c911680156103d6575b60208210146102c957601f8111610371575b50602094601f821160011461030a579481929394956000926102ff575b50508160011b916000199060031b1c1916176001555b82516001600160401b0381116102e957600254600181811c911680156102df575b60208210146102c957601f8111610264575b506020601f82116001146101fd57819293946000926101f2575b50508160011b916000199060031b1c1916176002555b60805260a0526040516110059081610574823960805181610c6b015260a05181610aff0152f35b0151905038806101b5565b601f198216906002600052806000209160005b81811061024c57509583600195969710610233575b505050811b016002556101cb565b015160001960f88460031b161c19169055388080610225565b9192602060018192868b015181550194019201610210565b60026000527f405787fa12a823e0f2b7631cc41b3ba8828b3321ca811111fa75cd3aa3bb5ace601f830160051c810191602084106102bf575b601f0160051c01905b8181106102b3575061019b565b600081556001016102a6565b909150819061029d565b634e487b7160e01b600052602260045260246000fd5b90607f1690610189565b634e487b7160e01b600052604160045260246000fd5b015190503880610152565b601f198216956001600052806000209160005b88811061035957508360019596979810610340575b505050811b01600155610168565b015160001960f88460031b161c19169055388080610332565b9192602060018192868501518155019401920161031d565b60016000527fb10e2d527612073b26eecdfd717e6a320cf44b4afac2b0732d9fcbe2b7fa0cf6601f830160051c810191602084106103cc575b601f0160051c01905b8181106103c05750610135565b600081556001016103b3565b90915081906103aa565b90607f1690610123565b0151905038806100ec565b60008080528281209350601f198516905b8181106104395750908460019594939210610420575b505050811b01600055610102565b015160001960f88460031b161c19169055388080610412565b929360206001819287860151815501950193016103fc565b600080529091507f290decd9548b62a8d60345a988386fc84ba6bc95484008f6362f93160ef3e563601f840160051c810191602085106104b6575b90601f859493920160051c01905b8181106104a757506100d5565b6000815584935060010161049a565b909150819061048c565b91607f16916100c1565b600080fd5b6040519190601f01601f191682016001600160401b038111838210176102e957604052565b81601f820112156104ca578051906001600160401b0382116102e957610523601f8301601f19166020016104cf565b92828452602083830101116104ca5760005b82811061054a57505060206000918301015290565b80602080928401015182828701015201610535565b51906001600160a01b03821682036104ca5756fe6080604052600436101561001257600080fd5b60003560e01c631452ec371461002757600080fd5b346101145760e03660031901126101145761004061012a565b610048610139565b6044356001600160401b03811161011457610067903690600401610146565b916064356001600160401b03811161011457610087903690600401610154565b926084356001600160401b038111610114576100a7903690600401610162565b60a43594916001600160401b03861161011457610110966100cf6100db97369060040161018f565b95909460c43597610883565b604080516001600160a01b03958616815293851660208501529184169183019190915290911660608201529081906080820190565b0390f35b600080fd5b6001600160a01b0381160361011457565b6004359061013782610119565b565b6024359061013782610119565b908160a09103126101145790565b908160409103126101145790565b9181601f84011215610114578235916001600160401b038311610114576020838186019501011161011457565b9181601f84011215610114578235916001600160401b038311610114576020808501948460051b01011161011457565b634e487b7160e01b600052604160045260246000fd5b601f909101601f19168101906001600160401b038211908210176101f857604052565b6101bf565b90600091600054908160011c916001811680156102a8575b602084108114610292579081156102805750600114610232575050565b60008052919250907f290decd9548b62a8d60345a988386fc84ba6bc95484008f6362f93160ef3e5636000905b83821061026c5750500190565b60018160209254848601520191019061025f565b60ff1916825250811515909102019150565b634e487b7160e01b600052602260045260246000fd5b92607f1692610215565b90600091600154908160011c91600181168015610336575b6020841081146102925790811561028057506001146102e7575050565b6001600052919250907fb10e2d527612073b26eecdfd717e6a320cf44b4afac2b0732d9fcbe2b7fa0cf66000905b8382106103225750500190565b600181602092548486015201910190610315565b92607f16926102ca565b90600091600254908160011c916001811680156103c4575b602084108114610292579081156102805750600114610375575050565b6002600052919250907f405787fa12a823e0f2b7631cc41b3ba8828b3321ca811111fa75cd3aa3bb5ace6000905b8382106103b05750500190565b6001816020925484860152019101906103a3565b92607f1692610358565b60005b8381106103e15750506000910152565b81810151838201526020016103d1565b90610404602092828151948592016103ce565b0190565b1561040f57565b60405162461bcd60e51b815260206004820152601b60248201527a1053141c9bda9958dd0819195c1b1bde5b595b9d0819985a5b1959602a1b6044820152606490fd5b903590601e198136030182121561011457018035906001600160401b0382116101145760200191813603831361011457565b908060209392818452848401376000828201840152601f01601f1916010190565b949392916040926104cb9260018060a01b03168752606060208801526060870191610484565b930152565b156104d757565b60405162461bcd60e51b815260206004820152602160248201527f414c50726f6a656374566f74696e67206465706c6f796d656e74206661696c656044820152601960fa1b6064820152608490fd5b6001600160a01b03909116815260200190565b1561054057565b60405162461bcd60e51b815260206004820152602260248201527f414c50726f6a65637453746f72616765206465706c6f796d656e74206661696c604482015261195960f21b6064820152608490fd5b9081602091031261011457516105a581610119565b90565b9160209360e061060d93979697608086526105d2815180928160808a01528960a08a0191016103ce565b601f01601f1916850185810360a08181018989015260089083015267726f2d637261746560c01b60c083015260e00160408701520191610484565b90606081830391015282815201919060005b81811061062c5750505090565b909192602080600192863561064081610119565b848060a01b03168152019401910191909161061f565b6040513d6000823e3d90fd5b1561066957565b60405162461bcd60e51b815260206004820152601e60248201527f524f2d4372617465206173736574206372656174696f6e206661696c656400006044820152606490fd5b600091031261011457565b9392916020916104cb91604087526040870191610484565b903590601e198136030182121561011457018035906001600160401b03821161011457602001918160051b3603831361011457565b6001600160a01b039182168152918116602083015290911660408201526101006060820181905295989690959094610756949390926107489288019190610484565b918583036080870152610484565b9460a083015260c082015260e0818503910152808352602083019060208160051b8501019383600091601e1982360301905b848410610799575050505050505090565b90919293949596601f19828203018752873583811215610114578401602081019190356001600160401b038111610114578036038313610114576107e36020928392600195610484565b99019701959401929190610788565b6001600160401b0381116101f857601f01601f191660200190565b3d15610838573d9061081e826107f2565b9161082c60405193846101d5565b82523d6000602084013e565b606090565b1561084457565b60405162461bcd60e51b81526020600482015260176024820152761053081c1c9bda9958dd081cd95d1d5c0819985a5b1959604a1b6044820152606490fd5b90979895939487928a604051808c60208201906108b99160609160018060a01b0316815260406020820152600060408201520190565b03601f19810182526108cb90826101d5565b6040518060208101926108dd846101fd565b6108e6916103f1565b03601f19810182526108f890826101d5565b51906000f5966001600160a01b03881696610914881515610408565b6040516001600160a01b038d16978e919081908c908b8d7fe071dba44289d5675312e44197a300aea64fee36fda073c3b1e39a2c5c3912b0600080a361095a8180610452565b90916020013591602085019361096f946104a5565b03601f198101825261098190826101d5565b60405191826020810192610994846102b2565b61099d916103f1565b03601f19810184526109af90846101d5565b6001019151906000f59c6001600160a01b038e166109ce8115156104d0565b89604051917fdbac153c1128dda7ac3250a70cae3cfed3034f5ef400308e4f9a606dc1542ba1600080a380610a068c60208301610526565b03601f1981018252610a1890826101d5565b60405191826020810192610a2b84610340565b610a34916103f1565b03601f1981018452610a4690846101d5565b6002019151906000f59b886001600160a01b038e16610a66811515610539565b7f1d2fe8b5ce0b9037a171941652bb8174e14467b7f86e752f5a1f3b121b49849f600080a3610a9490610ee7565b60405168726f2d63726174652d60b81b602082015290819060298201610ab9916103f1565b670b5a5b9a5d1a585b60c21b815260080103601f1981018252610adc90826101d5565b604051636609c12960e01b81529b8c92610afd9287908690600487016105a8565b7f00000000000000000000000000000000000000000000000000000000000000006001600160a01b0316918c9103815a602094600091f1998a15610d945760009a610dc2575b506001600160a01b038a1694610b5a861515610662565b853b15610114576000610b81956040518097819263f2fde38b60e01b835260048301610526565b0381838a5af1928315610d9457610c9a967f801d6aab9291e9802c418e55874563fc1fafbb2d43431be1a599fa5559ef18f78f949660009897610bd8610c66968f999a8c9b610dae575b50604051938493846106b9565b0390a2610c588d6040519485938c8c7fac5edb0d13f3cb6ae9df8870cbb8174d772bee2817960a2c9feb9ee548f526f28b80a3610c158180610452565b610c226020840184610452565b91604085013593610c3c60608701359660808101906106d1565b98909760208c019e8f6337c7b18f60e01b905260248d01610706565b03601f1981018352826101d5565b5190827f00000000000000000000000000000000000000000000000000000000000000005af1610c9461080d565b5061083d565b803b156101145760405163562d0a1360e01b815260008180610cbf8760048301610526565b038183865af18015610d9457610d99575b50803b156101145760405163755cacc960e11b815260008180610cf68960048301610526565b038183865af18015610d9457610d79575b507fba71c3331c78b3552695e5bda0f98de04012e2c1641a94feb9a6e8dfe1385f5760405183837fca39dd33c07e8cee276302f3ce5f6d3b208cc910d150d79b933ff0e5b7df2d34600080a36001600160a01b038981168252888116602083015287166040820152606090a393929190565b80610d886000610d8e936101d5565b806106ae565b38610d07565b610656565b80610d886000610da8936101d5565b38610cd0565b80610d888d610dbc936101d5565b38610bcb565b610de5919a5060203d602011610dec575b610ddd81836101d5565b810190610590565b9838610b43565b503d610dd3565b60405190610e026040836101d5565b601082526f181899199a1a9b1b9c1cb0b131b232b360811b6020830152565b60405160609190610e3283826101d5565b602a815291601f1901366020840137565b634e487b7160e01b600052603260045260246000fd5b805115610e665760200190565b610e43565b805160011015610e665760210190565b908151811015610e66570160200190565b634e487b7160e01b600052601160045260246000fd5b90600c8201809211610eb057565b610e8c565b6002019081600211610eb057565b6003019081600311610eb057565b908160011b9180830460021490151715610eb057565b6001600160a01b0316610ef8610df3565b90610f01610e21565b916030610f0d84610e59565b536078610f1984610e6b565b5360005b60148110610f2b5750505090565b610f3481610ea2565b6020811015610e6657610f6290610f549085901a60041c600f1684610e7b565b516001600160f81b03191690565b610f81610f76610f7184610ed1565b610eb5565b9160001a9186610e7b565b53610f8b81610ea2565b906020821015610e6657610fa9610f54600f866001951a1685610e7b565b610fc8610fbd610fb884610ed1565b610ec3565b9160001a9187610e7b565b5301610f1d56fea2646970667358221220ed87958adc487242f288c336c5b2c32788502529f52cb0476c6d4ea8aa9697f764736f6c634300081c0033",
  "linkReferences": {},
  "deployedLinkReferences": {}
}