{
  "_format": "hh-sol-artifact-1",
  "contractName": "ALProjectVoting",
  "sourceName": "contracts/ALProjectVoting.sol",
  "abi": [
    {
      "inputs": [
        {
          "internalType": "address",
          "name": "_project",
          "type": "address"
        },
        {
          "internalType": "string",
          "name": "_votingConsensus",
          "type": "string"
        },
        {
          "internalType": "uint256",
          "name": "_votingTimeoutSeconds",
          "type": "uint256"
        }
      ],
      "stateMutability": "nonpayable",
      "type": "constructor"
    },
    {
      "anonymous": false,
      "inputs": [
        {
          "indexed": false,
          "internalType": "uint256",
          "name": "round",
          "type": "uint256"
        },
        {
          "indexed": false,
          "internalType": "uint256",
          "name": "completedSamples",
          "type": "uint256"
        },
        {
          "indexed": false,
          "internalType": "uint256",
          "name": "timestamp",
          "type": "uint256"
        }
      ],
      "name": "BatchCompleted",
      "type": "event"
    },
    {
      "anonymous": false,
      "inputs": [
        {
          "indexed": false,
          "internalType": "uint256",
          "name": "round",
          "type": "uint256"
        },
        {
          "indexed": false,
          "internalType": "string",
          "name": "sampleId",
          "type": "string"
        },
        {
          "indexed": false,
          "internalType": "string",
          "name": "finalLabel",
          "type": "string"
        },
        {
          "indexed": false,
          "internalType": "uint256",
          "name": "remainingSamples",
          "type": "uint256"
        }
      ],
      "name": "BatchSampleCompleted",
      "type": "event"
    },
    {
      "anonymous": false,
      "inputs": [
        {
          "indexed": false,
          "internalType": "uint256",
          "name": "round",
          "type": "uint256"
        },
        {
          "indexed": false,
          "internalType": "string[]",
          "name": "sampleIds",
          "type": "string[]"
        },
        {
          "indexed": false,
          "internalType": "uint256",
          "name": "startTime",
          "type": "uint256"
        }
      ],
      "name": "BatchStarted",
      "type": "event"
    },
    {
      "anonymous": false,
      "inputs": [
        {
          "indexed": false,
          "internalType": "string",
          "name": "sampleId",
          "type": "string"
        },
        {
          "indexed": false,
          "internalType": "string",
          "name": "label",
          "type": "string"
        }
      ],
      "name": "ConsensusReached",
      "type": "event"
    },
    {
      "anonymous": false,
      "inputs": [
        {
          "indexed": false,
          "internalType": "string",
          "name": "sampleId",
          "type": "string"
        },
        {
          "indexed": false,
          "internalType": "string",
          "name": "finalLabel",
          "type": "string"
        },
        {
          "indexed": false,
          "internalType": "uint256",
          "name": "timestamp",
          "type": "uint256"
        }
      ],
      "name": "LabelStoredInProject",
      "type": "event"
    },
    {
      "anonymous": false,
      "inputs": [
        {
          "indexed": false,
          "internalType": "string",
          "name": "sampleId",
          "type": "string"
        },
        {
          "indexed": false,
          "internalType": "uint256",
          "name": "endTime",
          "type": "uint256"
        }
      ],
      "name": "TimeoutReached",
      "type": "event"
    },
    {
      "anonymous": false,
      "inputs": [
        {
          "indexed": false,
          "internalType": "string",
          "name": "sampleId",
          "type": "string"
        },
        {
          "indexed": true,
          "internalType": "address",
          "name": "voter",
          "type": "address"
        },
        {
          "indexed": false,
          "internalType": "string",
          "name": "label",
          "type": "string"
        },
        {
          "indexed": false,
          "internalType": "bool",
          "name": "support",
          "type": "bool"
        },
        {
          "indexed": false,
          "internalType": "uint256",
          "name": "timestamp",
          "type": "uint256"
        }
      ],
      "name": "VoteSubmitted",
      "type": "event"
    },
    {
      "anonymous": false,
      "inputs": [
        {
          "indexed": false,
          "internalType": "string",
          "name": "sampleId",
          "type": "string"
        },
        {
          "indexed": false,
          "internalType": "uint256",
          "name": "endTime",
          "type": "uint256"
        }
      ],
      "name": "VotingSessionEnded",
      "type": "event"
    },
    {
      "anonymous": false,
      "inputs": [
        {
          "indexed": false,
          "internalType": "string",
          "name": "sampleId",
          "type": "string"
        },
        {
          "indexed": false,
          "internalType": "string",
          "name": "finalLabel",
          "type": "string"
        },
        {
          "indexed": false,
          "internalType": "uint256",
          "name": "endTime",
          "type": "uint256"
        },
        {
          "indexed": false,
          "internalType": "string",
          "name": "reason",
          "type": "string"
        }
      ],
      "name": "VotingSessionFinalized",
      "type": "event"
    },
    {
      "anonymous": false,
      "inputs": [
        {
          "indexed": false,
          "internalType": "string",
          "name": "sampleId",
          "type": "string"
        },
        {
          "indexed": false,
          "internalType": "uint256",
          "name": "startTime",
          "type": "uint256"
        }
      ],
      "name": "VotingSessionStarted",
      "type": "event"
    },
    {
      "inputs": [
        {
          "internalType": "uint256",
          "name": "",
          "type": "uint256"
        }
      ],
      "name": "batches",
      "outputs": [
        {
          "internalType": "uint256",
          "name": "round",
          "type": "uint256"
        },
        {
          "internalType": "uint256",
          "name": "completedCount",
          "type": "uint256"
        },
        {
          "internalType": "bool",
          "name": "isActive",
          "type": "bool"
        },
        {
          "internalType": "uint256",
          "name": "startTime",
          "type": "uint256"
        }
      ],
      "stateMutability": "view",
      "type": "function"
    },
    {
      "inputs": [
        {
          "internalType": "string",
          "name": "sampleId",
          "type": "string"
        }
      ],
      "name": "checkAndFinalizeTimeout",
      "outputs": [],
      "stateMutability": "nonpayable",
      "type": "function"
    },
    {
      "inputs": [
        {
          "internalType": "string[]",
          "name": "allSampleIds",
          "type": "string[]"
        },
        {
          "internalType": "bool[]",
          "name": "sampleActiveStates",
          "type": "bool[]"
        },
        {
          "internalType": "string[]",
          "name": "labelSpace",
          "type": "string[]"
        },
        {
          "internalType": "uint256",
          "name": "votingTimeout",
          "type": "uint256"
        },
        {
          "internalType": "uint256",
          "name": "_currentRound",
          "type": "uint256"
        }
      ],
      "name": "computeActiveBatch",
      "outputs": [
        {
          "internalType": "string[]",
          "name": "activeSampleIds",
          "type": "string[]"
        },
        {
          "internalType": "string[]",
          "name": "sampleData",
          "type": "string[]"
        },
        {
          "internalType": "string[]",
          "name": "labelOptions",
          "type": "string[]"
        },
        {
          "internalType": "uint256",
          "name": "timeRemaining",
          "type": "uint256"
        },
        {
          "internalType": "uint256",
          "name": "round",
          "type": "uint256"
        }
      ],
      "stateMutability": "view",
      "type": "function"
    },
    {
      "inputs": [
        {
          "internalType": "uint256",
          "name": "round",
          "type": "uint256"
        },
        {
          "internalType": "string[]",
          "name": "sampleIds",
          "type": "string[]"
        },
        {
          "internalType": "bool[]",
          "name": "sampleActiveStates",
          "type": "bool[]"
        }
      ],
      "name": "computeBatchProgress",
      "outputs": [
        {
          "internalType": "uint256",
          "name": "_round",
          "type": "uint256"
        },
        {
          "internalType": "uint256",
          "name": "totalSamples",
          "type": "uint256"
        },
        {
          "internalType": "uint256",
          "name": "activeSamplesCount",
          "type": "uint256"
        },
        {
          "internalType": "uint256",
          "name": "completedSamples",
          "type": "uint256"
        },
        {
          "internalType": "string[]",
          "name": "_sampleIds",
          "type": "string[]"
        },
        {
          "internalType": "bool",
          "name": "batchActive",
          "type": "bool"
        }
      ],
      "stateMutability": "pure",
      "type": "function"
    },
    {
      "inputs": [
        {
          "internalType": "address[]",
          "name": "participants",
          "type": "address[]"
        },
        {
          "internalType": "string[]",
          "name": "roles",
          "type": "string[]"
        },
        {
          "internalType": "uint256[]",
          "name": "weights",
          "type": "uint256[]"
        }
      ],
      "name": "computeEligibleVoters",
      "outputs": [
        {
          "internalType": "address[]",
          "name": "voters",
          "type": "address[]"
        },
        {
          "internalType": "uint256[]",
          "name": "eligibleWeights",
          "type": "uint256[]"
        }
      ],
      "stateMutability": "pure",
      "type": "function"
    },
    {
      "inputs": [],
      "name": "consensusThreshold",
      "outputs": [
        {
          "internalType": "uint256",
          "name": "",
          "type": "uint256"
        }
      ],
      "stateMutability": "view",
      "type": "function"
    },
    {
      "inputs": [],
      "name": "currentRound",
      "outputs": [
        {
          "internalType": "uint256",
          "name": "",
          "type": "uint256"
        }
      ],
      "stateMutability": "view",
      "type": "function"
    },
    {
      "inputs": [
        {
          "internalType": "uint256",
          "name": "round",
          "type": "uint256"
        }
      ],
      "name": "endBatchVoting",
      "outputs": [],
      "stateMutability": "nonpayable",
      "type": "function"
    },
    {
      "inputs": [
        {
          "internalType": "uint256",
          "name": "round",
          "type": "uint256"
        }
      ],
      "name": "getBatchSamples",
      "outputs": [
        {
          "internalType": "string[]",
          "name": "",
          "type": "string[]"
        }
      ],
      "stateMutability": "view",
      "type": "function"
    },
    {
      "inputs": [
        {
          "internalType": "uint256",
          "name": "round",
          "type": "uint256"
        }
      ],
      "name": "getBatchStatus",
      "outputs": [
        {
          "internalType": "bool",
          "name": "isActive",
          "type": "bool"
        },
        {
          "internalType": "uint256",
          "name": "totalSamples",
          "type": "uint256"
        },
        {
          "internalType": "uint256",
          "name": "completedSamples",
          "type": "uint256"
        },
        {
          "internalType": "uint256",
          "name": "remainingSamples",
          "type": "uint256"
        },
        {
          "internalType": "uint256",
          "name": "startTime",
          "type": "uint256"
        }
      ],
      "stateMutability": "view",
      "type": "function"
    },
    {
      "inputs": [],
      "name": "getCurrentBatchProgress",
      "outputs": [
        {
          "internalType": "uint256",
          "name": "round",
          "type": "uint256"
        },
        {
          "internalType": "bool",
          "name": "isActive",
          "type": "bool"
        },
        {
          "internalType": "uint256",
          "name": "totalSamples",
          "type": "uint256"
        },
        {
          "internalType": "uint256",
          "name": "completedSamples",
          "type": "uint256"
        },
        {
          "internalType": "string[]",
          "name": "sampleIds",
          "type": "string[]"
        }
      ],
      "stateMutability": "view",
      "type": "function"
    },
    {
      "inputs": [
        {
          "internalType": "string",
          "name": "sampleId",
          "type": "string"
        }
      ],
      "name": "getFinalLabel",
      "outputs": [
        {
          "internalType": "string",
          "name": "",
          "type": "string"
        }
      ],
      "stateMutability": "view",
      "type": "function"
    },
    {
      "inputs": [],
      "name": "getVoterList",
      "outputs": [
        {
          "components": [
            {
              "internalType": "address",
              "name": "addr",
              "type": "address"
            },
            {
              "internalType": "uint256",
              "name": "weight",
              "type": "uint256"
            }
          ],
          "internalType": "struct ALProjectVoting.Voter[]",
          "name": "",
          "type": "tuple[]"
        }
      ],
      "stateMutability": "view",
      "type": "function"
    },
    {
      "inputs": [
        {
          "internalType": "string",
          "name": "sampleId",
          "type": "string"
        }
      ],
      "name": "getVotes",
      "outputs": [
        {
          "components": [
            {
              "internalType": "address",
              "name": "voter",
              "type": "address"
            },
            {
              "internalType": "string",
              "name": "label",
              "type": "string"
            },
            {
              "internalType": "bool",
              "name": "support",
              "type": "bool"
            },
            {
              "internalType": "uint256",
              "name": "timestamp",
              "type": "uint256"
            }
          ],
          "internalType": "struct ALProjectVoting.Vote[]",
          "name": "",
          "type": "tuple[]"
        }
      ],
      "stateMutability": "view",
      "type": "function"
    },
    {
      "inputs": [
        {
          "internalType": "string",
          "name": "sampleId",
          "type": "string"
        }
      ],
      "name": "getVotingDistribution",
      "outputs": [
        {
          "internalType": "string[]",
          "name": "labels",
          "type": "string[]"
        },
        {
          "internalType": "uint256[]",
          "name": "voteCounts",
          "type": "uint256[]"
        },
        {
          "internalType": "uint256[]",
          "name": "voteWeights",
          "type": "uint256[]"
        }
      ],
      "stateMutability": "view",
      "type": "function"
    },
    {
      "inputs": [
        {
          "internalType": "string",
          "name": "sampleId",
          "type": "string"
        }
      ],
      "name": "getVotingResult",
      "outputs": [
        {
          "internalType": "bool",
          "name": "isFinalized",
          "type": "bool"
        },
        {
          "internalType": "string",
          "name": "finalLabel",
          "type": "string"
        },
        {
          "internalType": "uint256",
          "name": "totalVotes",
          "type": "uint256"
        },
        {
          "internalType": "uint256",
          "name": "votedCount",
          "type": "uint256"
        }
      ],
      "stateMutability": "view",
      "type": "function"
    },
    {
      "inputs": [
        {
          "internalType": "string",
          "name": "sampleId",
          "type": "string"
        }
      ],
      "name": "getVotingSession",
      "outputs": [
        {
          "internalType": "uint256",
          "name": "startTime",
          "type": "uint256"
        },
        {
          "internalType": "bool",
          "name": "isActive",
          "type": "bool"
        },
        {
          "internalType": "bool",
          "name": "isFinalized",
          "type": "bool"
        },
        {
          "internalType": "string",
          "name": "finalLabel",
          "type": "string"
        }
      ],
      "stateMutability": "view",
      "type": "function"
    },
    {
      "inputs": [
        {
          "internalType": "string",
          "name": "sampleId",
          "type": "string"
        }
      ],
      "name": "getVotingSessionStatus",
      "outputs": [
        {
          "internalType": "bool",
          "name": "isActive",
          "type": "bool"
        },
        {
          "internalType": "bool",
          "name": "isFinalized",
          "type": "bool"
        },
        {
          "internalType": "string",
          "name": "finalLabel",
          "type": "string"
        },
        {
          "internalType": "uint256",
          "name": "startTime",
          "type": "uint256"
        },
        {
          "internalType": "uint256",
          "name": "timeRemaining",
          "type": "uint256"
        },
        {
          "internalType": "uint256",
          "name": "votedCount",
          "type": "uint256"
        },
        {
          "internalType": "uint256",
          "name": "totalVoters",
          "type": "uint256"
        }
      ],
      "stateMutability": "view",
      "type": "function"
    },
    {
      "inputs": [
        {
          "internalType": "string",
          "name": "sampleId",
          "type": "string"
        },
        {
          "internalType": "address",
          "name": "user",
          "type": "address"
        }
      ],
      "name": "hasUserVoted",
      "outputs": [
        {
          "internalType": "bool",
          "name": "",
          "type": "bool"
        }
      ],
      "stateMutability": "view",
      "type": "function"
    },
    {
      "inputs": [
        {
          "internalType": "string",
          "name": "sampleId",
          "type": "string"
        }
      ],
      "name": "isTimeoutReached",
      "outputs": [
        {
          "internalType": "bool",
          "name": "",
          "type": "bool"
        }
      ],
      "stateMutability": "view",
      "type": "function"
    },
    {
      "inputs": [
        {
          "internalType": "string",
          "name": "sampleId",
          "type": "string"
        }
      ],
      "name": "isVotingActive",
      "outputs": [
        {
          "internalType": "bool",
          "name": "",
          "type": "bool"
        }
      ],
      "stateMutability": "view",
      "type": "function"
    },
    {
      "inputs": [
        {
          "internalType": "string",
          "name": "sampleId",
          "type": "string"
        },
        {
          "internalType": "string",
          "name": "finalLabel",
          "type": "string"
        }
      ],
      "name": "notifyMainContractExternal",
      "outputs": [],
      "stateMutability": "nonpayable",
      "type": "function"
    },
    {
      "inputs": [],
      "name": "project",
      "outputs": [
        {
          "internalType": "address",
          "name": "",
          "type": "address"
        }
      ],
      "stateMutability": "view",
      "type": "function"
    },
    {
      "inputs": [
        {
          "internalType": "address[]",
          "name": "_voters",
          "type": "address[]"
        },
        {
          "internalType": "uint256[]",
          "name": "_weights",
          "type": "uint256[]"
        }
      ],
      "name": "setVoters",
      "outputs": [],
      "stateMutability": "nonpayable",
      "type": "function"
    },
    {
      "inputs": [
        {
          "internalType": "string[]",
          "name": "sampleIds",
          "type": "string[]"
        },
        {
          "internalType": "uint256",
          "name": "round",
          "type": "uint256"
        }
      ],
      "name": "startBatchVoting",
      "outputs": [],
      "stateMutability": "nonpayable",
      "type": "function"
    },
    {
      "inputs": [
        {
          "internalType": "string[]",
          "name": "sampleIds",
          "type": "string[]"
        },
        {
          "internalType": "string[]",
          "name": "labels",
          "type": "string[]"
        },
        {
          "internalType": "bool[]",
          "name": "support",
          "type": "bool[]"
        }
      ],
      "name": "submitBatchVote",
      "outputs": [],
      "stateMutability": "nonpayable",
      "type": "function"
    },
    {
      "inputs": [
        {
          "internalType": "string[]",
          "name": "sampleIds",
          "type": "string[]"
        },
        {
          "internalType": "string[]",
          "name": "labels",
          "type": "string[]"
        },
        {
          "internalType": "address",
          "name": "voter",
          "type": "address"
        }
      ],
      "name": "submitBatchVoteOnBehalf",
      "outputs": [],
      "stateMutability": "nonpayable",
      "type": "function"
    },
    {
      "inputs": [
        {
          "internalType": "uint256",
          "name": "",
          "type": "uint256"
        }
      ],
      "name": "voterList",
      "outputs": [
        {
          "internalType": "address",
          "name": "",
          "type": "address"
        }
      ],
      "stateMutability": "view",
      "type": "function"
    },
    {
      "inputs": [
        {
          "internalType": "address",
          "name": "",
          "type": "address"
        }
      ],
      "name": "voterWeights",
      "outputs": [
        {
          "internalType": "uint256",
          "name": "",
          "type": "uint256"
        }
      ],
      "stateMutability": "view",
      "type": "function"
    },
    {
      "inputs": [
        {
          "internalType": "string",
          "name": "",
          "type": "string"
        },
        {
          "internalType": "uint256",
          "name": "",
          "type": "uint256"
        }
      ],
      "name": "votes",
      "outputs": [
        {
          "internalType": "address",
          "name": "voter",
          "type": "address"
        },
        {
          "internalType": "string",
          "name": "label",
          "type": "string"
        },
        {
          "internalType": "bool",
          "name": "support",
          "type": "bool"
        },
        {
          "internalType": "uint256",
          "name": "timestamp",
          "type": "uint256"
        }
      ],
      "stateMutability": "view",
      "type": "function"
    },
    {
      "inputs": [],
      "name": "votingConsensus",
      "outputs": [
        {
          "internalType": "string",
          "name": "",
          "type": "string"
        }
      ],
      "stateMutability": "view",
      "type": "function"
    },
    {
      "inputs": [
        {
          "internalType": "string",
          "name": "",
          "type": "string"
        }
      ],
      "name": "votingSessions",
      "outputs": [
        {
          "internalType": "uint256",
          "name": "startTime",
          "type": "uint256"
        },
        {
          "internalType": "bool",
          "name": "isActive",
          "type": "bool"
        },
        {
          "internalType": "bool",
          "name": "isFinalized",
          "type": "bool"
        },
        {
          "internalType": "string",
          "name": "finalLabel",
          "type": "string"
        },
        {
          "internalType": "uint256",
          "name": "totalVoters",
          "type": "uint256"
        },
        {
          "internalType": "uint256",
          "name": "round",
          "type": "uint256"
        }
      ],
      "stateMutability": "view",
      "type": "function"
    },
    {
      "inputs": [],
      "name": "votingTimeoutSeconds",
      "outputs": [
        {
          "internalType": "uint256",
          "name": "",
          "type": "uint256"
        }
      ],
      "stateMutability": "view",
      "type": "function"
    }
  ],
  "bytecode": "0x608060405234610297576144a6803803806100198161029c565b9283398101906060818303126102975780516001600160a01b03811691908290036102975760208101516001600160401b03811161029757810183601f82011215610297578051906001600160401b03821161023557610082601f8301601f191660200161029c565b94828652602083830101116102975760005b82811061028257505060009084016020015260400151603360015590801561024b57600080546001600160a01b03191691909117905581516001600160401b03811161023557600354600181811c9116801561022b575b602082101461021557601f81116101b0575b50602092601f821160011461014b5792819293600092610140575b50508160011b916000199060031b1c1916176003555b6002556040516141e490816102c28239f35b015190503880610118565b601f198216936003600052806000209160005b868110610198575083600195961061017f575b505050811b0160035561012e565b015160001960f88460031b161c19169055388080610171565b9192602060018192868501518155019401920161015e565b60036000527fc2575a0e9e593c00f959f8c92f12db2869c3395a3b0502d05e2516446f71f85b601f830160051c8101916020841061020b575b601f0160051c01905b8181106101ff57506100fd565b600081556001016101f2565b90915081906101e9565b634e487b7160e01b600052602260045260246000fd5b90607f16906100eb565b634e487b7160e01b600052604160045260246000fd5b60405162461bcd60e51b815260206004820152600f60248201526e496e76616c6964206164647265737360881b6044820152606490fd5b80602080928401015182828901015201610094565b600080fd5b6040519190601f01601f191682016001600160401b038111838210176102355760405256fe6080604052600436101561001257600080fd5b6000803560e01c806304574fe81461262157806326a0613a146125dc5780632d1bbc8e14612578578063367cb924146124145780634149738514612385578063414f8e7614612348578063428f8338146122fa57806350e2e8af146122b657806355d389a4146121d35780635c97951e146120935780636042ad6114611fd657806368acb1ab14611f9457806372678fcc14611e3157806375c255fc14611c1157806379c4ab1514611b8b578063805265e514611a305780638520eb78146119c45780638a19c8bc146119a65780639a6e81ab14611625578063a58df19a14611607578063a76fd84e14611502578063ab40d3ba14611432578063b28d92ae146112f8578063b32c4d8d146112a6578063b49c447e14611231578063b8c39034146110d8578063cdbf3d0114610d8d578063db7cde8b14610c6f578063e7dc0d101461069b578063f02a0f7514610283578063f18a5cec146101cf578063f60ca60d146101a85763f9b0b5b91461018857600080fd5b346101a557806003193601126101a5576020600154604051908152f35b80fd5b50346101a557806003193601126101a557546040516001600160a01b039091168152602090f35b50346101a55760203660031901126101a557600435906001600160401b0382116101a5576102186020610205366004860161274e565b816040519382858094519384920161279a565b8101600781520301902080546001820154916102366002820161284d565b610274600460038401549301549160ff60405196879687528181161515602088015260081c161515604086015260c0606086015260c08501906127bd565b91608084015260a08301520390f35b50346101a55760603660031901126101a5576004356001600160401b038111610697576102b4903690600401612a6e565b906024356001600160401b038111610697576102d4903690600401612a6e565b6044356001600160401b038111610693576102f3903690600401612aec565b33835260046020526040832054156106555783518251036106105783518151036105cc57913390805b85518110156105c8578061033260019288612d43565b5161033d8287612d43565b516103488389612d43565b5115159060405161037c60ff87865193602081818a019661036a81838a61279a565b81016007815203019020015416612d57565b6103ab60ff87604051602081895161039581838a61279a565b81016007815203019020015460081c1615612d9f565b6103e360ff6040600581516020818a516103c681838b61279a565b81016007815203019020016000908c825260205220541615612dea565b6103ec84613700565b6105b4579060008051602061418f83398151915291610448604051602081885161041781838861279a565b810160068152030190206040519061042e826126c4565b338252846020830152866040830152426060830152612e75565b836040600581516020818a5161045f81838a61279a565b81016007815203019020016000908c8252602052208860ff19825416179055610533575b506104aa604051916080835261049c60808401876127bd565b9083820360208501526127bd565b9260408201524260608201528033930390a26104c581613b85565b8051156105065760008051602061416f833981519152916104ed6104e7613017565b82613741565b6104fc60405192839283612c47565b0390a15b0161031c565b5061051081613d36565b61051b575b50610500565b61052d90610527612fe2565b90613741565b38610515565b61055c6006604051602081895161054b81838961279a565b8101600781520301902001836128f1565b6105668154612cd4565b905533885260046020526105ac6105a46007610594602060408d205495604051809381928d5192839161279a565b81018481520301902001846128f1565b918254612cc7565b905538610483565b5050506105c390610527612e35565b610500565b5080f35b606460405162461bcd60e51b815260206004820152602060248201527f4d69736d6174636865642073616d706c6549647320616e6420737570706f72746044820152fd5b60405162461bcd60e51b815260206004820152601f60248201527f4d69736d6174636865642073616d706c6549647320616e64206c6162656c73006044820152606490fd5b60405162461bcd60e51b81526020600482015260166024820152752737ba1030903932b3b4b9ba32b932b2103b37ba32b960511b6044820152606490fd5b8280fd5b5080fd5b50346101a55760403660031901126101a5576004356001600160401b038111610697576106cc903690600401612a6e565b6024356106e360018060a01b038454163314612ce3565b815115610c3557808352600860205260ff600360408520015416610be4578083526008602052806040842055808352600860205260016040842001825190600160401b8211610bd0578054828255808310610b5a575b5084526020808520859185015b838310610a3557505050508083526008602052826002604082200155808352600860205260036040842001600160ff19825416179055808352600860205242600460408520015580600955825b82518110156109e9576107a68184612d43565b516040519060ff6001825193602081818601966107c481838a61279a565b8101600781520301902001541661099a5760ff600160405160208185516107ec81838a61279a565b81016007815203019020015460081c1661095a578360046108b060208995604051865161081a81838561279a565b8101906007825283814293030190205560016040518381895161083e81838861279a565b8101600781520301902001600160ff1982541617905560016040518381895161086881838861279a565b810160078152030190200161ff00198154169055600554600360405184818a5161089381838961279a565b81016007815203019020015560405180938192885192839161279a565b8101600781520301902001557f1a6063ea5a85373503082e9047ebbde10c2ef86a0029b81921668e4a2ea190e3604051806108ec428583612c2b565b0390a181546001600160a01b0316803b156106935760405163b2be4d6560e01b815260206004820152918391839182908490829061092e9060248301906127bd565b03925af1610941575b5050600101610793565b8161094b91612710565b610956578338610937565b8380fd5b60405162461bcd60e51b815260206004820152601860248201527714d85b5c1b1948185b1c9958591e48199a5b985b1a5e995960421b6044820152606490fd5b60405162461bcd60e51b815260206004820152602160248201527f53616d706c6520616c726561647920686173206163746976652073657373696f6044820152603760f91b6064820152608490fd5b50907f915b7f3f33ca682a46c0a82bcae59307624896b80801e6ea2c6e702a10499ece91610a296040519283928352606060208401526060830190612933565b4260408301520390a180f35b80518051906001600160401b038211610b4657610a528454612813565b601f8111610b0b575b5060209089601f8411600114610aa1578360019592946020948796610a879492610a96575b5050612e62565b85555b01920192019190610746565b015190503880610a80565b50848a52818a209190601f1984168b5b818110610af35750936020936001969387969383889510610ada575b505050811b018555610a8a565b015160001960f88460031b161c19169055388080610acd565b92936020600181928786015181550195019301610ab1565b610b3690858b5260208b20601f850160051c81019160208610610b3c575b601f0160051c0190612d2c565b38610a5b565b9091508190610b29565b634e487b7160e01b89526041600452602489fd5b818652826020872091820191015b818110610b755750610739565b80610b8260019254612813565b80610b8f575b5001610b68565b601f81118314610ba457508781555b38610b88565b81895260208920610bbf91601f0160051c8101908401612d2c565b808852876020812081835555610b9e565b634e487b7160e01b85526041600452602485fd5b60405162461bcd60e51b815260206004820152602360248201527f426174636820616c72656164792061637469766520666f72207468697320726f6044820152621d5b9960ea1b6064820152608490fd5b60405162461bcd60e51b815260206004820152601260248201527108adae0e8f240e6c2dae0d8ca40c4c2e8c6d60731b6044820152606490fd5b50346101a55760203660031901126101a5576004356001600160401b03811161069757610ca090369060040161274e565b60405181519060208181850193610cb881838761279a565b8101600781520301902090836005549060058401905b828110610d40575050506002610d006020610d129360ff600187015460081c169660405193849283925192839161279a565b8101600681520301902054920161284d565b92610d31604051948594151585526080602086015260808501906127bd565b91604084015260608301520390f35b60ff6040610d4d836127e2565b905460039190911b1c6001600160a01b031660009081526020859052205416610d79575b600101610cce565b95610d85600191612cd4565b969050610d71565b50346101a55760603660031901126101a5576004356001600160401b03811161069757610dbe9036906004016129a3565b6024356001600160401b03811161069357610ddd903690600401612a6e565b6044356001600160401b03811161095657610dfc903690600401612a11565b928251825103611088578251845103611037578093815b8451811015610ebd57610e268185612d43565b5160208151910120610e36613689565b60208151910120148015610e95575b8015610e6d575b610e59575b600101610e13565b94610e65600191612cd4565b959050610e51565b50610e788185612d43565b5160208151910120610e886136d7565b6020815191012014610e4c565b50610ea08185612d43565b5160208151910120610eb06136ae565b6020815191012014610e45565b509092610ec98561298c565b90610ed76040519283612710565b858252610ef8610ee68761298c565b602084019790601f19013689376133fd565b938596865b8351811015610fdd57610f108184612d43565b5160208151910120610f20613689565b60208151910120148015610fb5575b8015610f8d575b610f43575b600101610efd565b97600190610f85906001600160a01b03610f5d8c88612d43565b5116610f698289612d43565b52610f748b89612d43565b51610f7f828b612d43565b52612cd4565b989050610f3b565b50610f988184612d43565b5160208151910120610fa86136d7565b6020815191012014610f36565b50610fc08184612d43565b5160208151910120610fd06136ae565b6020815191012014610f2f565b5083868860405192604084019060408552518091526060840194915b81811061101857848061101488878382036020850152612b53565b0390f35b82516001600160a01b0316865260209586019590920191600101610ff9565b60405162461bcd60e51b8152602060048201526024808201527f5061727469636970616e74732f77656967687473206c656e677468206d69736d6044820152630c2e8c6d60e31b6064820152608490fd5b60405162461bcd60e51b815260206004820152602260248201527f5061727469636970616e74732f726f6c6573206c656e677468206d69736d61746044820152610c6d60f31b6064820152608490fd5b50346101a55760203660031901126101a55760043561110160018060a01b038354163314612ce3565b808252600860205260ff600360408420015416156111f9578152600860205261112f60016040832001612c6f565b815b81518110156111f5578061114760019284612d43565b5160405160ff848351926020818187019561116381838961279a565b8101600781520301902001541690816111c2575b50611184575b5001611131565b6111bc9060409061119782519283612710565b60138252724d616e75616c20626174636820656e64696e6760681b6020830152613741565b3861117d565b60ff91506111de6020869260405180938192885192839161279a565b81016007815203019020015460081c161538611177565b8280f35b60405162461bcd60e51b815260206004820152601060248201526f4261746368206e6f742061637469766560801b6044820152606490fd5b50346101a55760203660031901126101a557600435906001600160401b0382116101a55761128a61129861101461127361126e366004880161274e565b61342f565b919390604051958695606087526060870190612933565b908582036020870152612b53565b908382036040850152612b53565b50346101a55760203660031901126101a55760406080916004358152600860205220805490600281015490600460ff600383015416910154916040519384526020840152151560408301526060820152f35b50346101a557806003193601126101a5576005546113158161298c565b906113236040519283612710565b808252601f196113328261298c565b01835b81811061140f575050825b8181106113a2578284604051918291602083016020845282518091526020604085019301915b818110611374575050500390f35b825180516001600160a01b031685526020908101518186015286955060409094019390920191600101611366565b806113ae6001926127e2565b838060a01b0391549060031b1c166113c5826127e2565b848060a01b0391549060031b1c16865260046020526040862054604051916113ec836126f5565b825260208201526113fd8286612d43565b526114088185612d43565b5001611340565b60209060405161141e816126f5565b868152868382015282828701015201611335565b50346101a55760a03660031901126101a5576004356001600160401b03811161069757611463903690600401612a6e565b6024356001600160401b03811161069357611482903690600401612aec565b91604435906001600160401b0382116101a5576114d76114f36114e56114bd87876114b03660048a01612a6e565b608435926064359261310f565b93959260409591955197889760a0895260a0890190612933565b908782036020890152612933565b908582036040870152612933565b91606084015260808301520390f35b50346101a55760603660031901126101a5576024356001600160401b03811161069757611533903690600401612a6e565b6044356001600160401b03811161069357611552903690600401612aec565b916115608251845114613046565b80805b83518210156115b4576115768286612d43565b511561159057611587600191612cd4565b915b0190611563565b9083516115a0575b600190611589565b916115ac600191612cd4565b929050611598565b83518381151586816115fd575b6115f19192604051958695600435875260208701526040860152606085015260c0608085015260c0840190612933565b90151560a08301520390f35b84151591506115c1565b50346101a557806003193601126101a5576020600254604051908152f35b50346101a55760603660031901126101a5576004356001600160401b03811161069757611656903690600401612a6e565b6024356001600160401b03811161069357611675903690600401612a6e565b6044356001600160a01b038116908190036109565761169e60018060a01b038554163314612ce3565b825182510361196d5782511561193a5780845260046020526040842054156118fe57835b83518110156118fa57806116d860019286612d43565b51836116e48387612d43565b5160405161170360ff87865193602081818a019661036a81838a61279a565b61171c60ff87604051602081895161039581838a61279a565b61175460ff6040600581516020818a5161173781838b61279a565b810160078152030190200160009087825260205220541615612dea565b8961175e85613700565b6118e55791816118526105a460076105946020604060008051602061418f8339815191529961182a600661181a8f8f9d879161186b9f8f906117d98a928351878187516117ac81838c61279a565b81018c8152030190208451916117c1836126c4565b84835288830152600185830152426060830152612e75565b60058251868186516117ec81838b61279a565b81016007815203019020016000918252855220600160ff19825416179055875193849283925192839161279a565b81018a815203019020018a6128f1565b6118348154612cd4565b90558b8152600483522054958b60405193849283925192839161279a565b90556040519182916080835261049c60808401886127bd565b8760408301524260608301520390a261188381613b85565b8051156118be5760008051602061416f833981519152916118a56104e7613017565b6118b460405192839283612c47565b0390a15b016116c2565b506118c881613d36565b6118d3575b506118b8565b6118df90610527612fe2565b386118cd565b505050506118f590610527612e35565b6118b8565b8480f35b60405162461bcd60e51b8152602060048201526014602482015273159bdd195c881b9bdd081c9959da5cdd195c995960621b6044820152606490fd5b60405162461bcd60e51b815260206004820152600b60248201526a08adae0e8f240c4c2e8c6d60ab1b6044820152606490fd5b60405162461bcd60e51b81526020600482015260116024820152704d69736d6174636865642061727261797360781b6044820152606490fd5b50346101a557806003193601126101a5576020600954604051908152f35b50346101a557806003193601126101a5576040600954918281526008602052209061101460ff6003840154169260018101611a056002825493015491612c6f565b916040519586958652151560208601526040850152606084015260a0608084015260a0830190612933565b50346101a55760203660031901126101a5576004356001600160401b038111610697576020610205611a6692369060040161274e565b810160068152030190208054611a7b8161298c565b90611a896040519283612710565b80825260208201809385526020852085915b838310611b3757868587604051928392602084019060208552518091526040840160408260051b8601019392905b828210611ad857505050500390f35b919360019193955060208091603f19898203018552875190848060a01b038251168152606080611b158585015160808786015260808501906127bd565b9360408101511515604085015201519101529601920192018594939192611ac9565b60046020600192604051611b4a816126c4565b848060a01b038654168152611b6085870161284d565b8382015260ff6002870154161515604082015260038601546060820152815201920192019190611a9b565b50346101a55760203660031901126101a557600435906001600160401b0382116101a557611bc16020610205366004860161274e565b810160078152030190208054611014611be160026001850154940161284d565b60ff60405194859485528181161515602086015260081c16151560408401526080606084015260808301906127bd565b50346101a55760403660031901126101a5576004356001600160401b03811161069757611c429036906004016129a3565b6024356001600160401b03811161069357611c61903690600401612a11565b611c7560018060a01b038454163314612ce3565b8151815103611df757825b600554811015611cb75780611c966001926127e2565b838060a01b0391549060031b1c168552600460205284604081205501611c80565b50906005548360055580611dbf575b50825b8151811015611dbb57611cdc8184612d43565b5115611d7657611cec8184612d43565b516001600160a01b03611cff8385612d43565b51168552600460205260408520556001600160a01b03611d1f8284612d43565b5116600554600160401b811015611d625790611d43826001809594016005556127e2565b819291549060031b91821b91858060a01b03901b191617905501611cc9565b634e487b7160e01b86526041600452602486fd5b60405162461bcd60e51b815260206004820152601d60248201527f576569676874206d7573742062652067726561746572207468616e20300000006044820152606490fd5b8380f35b60058452611df1907f036b6384b5eca791c62761152d0c79bb0604c104a5fb6f4eb0703f3154bb3db090810190612d2c565b38611cc6565b60405162461bcd60e51b81526020600482015260126024820152714d69736d617463686564206c656e6774687360701b6044820152606490fd5b50346101a55760203660031901126101a5576004356001600160401b038111610697576020610205611e6792369060040161274e565b81016007815203019020908060025480151580611f86575b80611f74575b611f4f575b50819260055460058201945b818110611f0257505060ff9350600181015492815492611ee9611ec060026003860154950161284d565b6040519787818a99161515895260081c161515602088015260e0604088015260e08701906127bd565b936060860152608085015260a084015260c08301520390f35b60ff6040611f0f836127e2565b905460039190911b1c6001600160a01b031660009081526020899052205416611f3b575b600101611e96565b93611f47600191612cd4565b949050611f33565b611f5a908454612cc7565b80421015611e8a57611f6e91504290612b87565b38611e8a565b5060ff600185015460081c1615611e85565b5060ff600185015416611e7f565b50346101a55760203660031901126101a557611fc26001604061101493600435815260086020522001612c6f565b604051918291602083526020830190612933565b50346101a55760403660031901126101a5576004356001600160401b0381116106975761200790369060040161274e565b612023602060243592816040519382858094519384920161279a565b810160068152030190208054821015610693576120409250612917565b5080546001600160a01b03166120586001830161284d565b91600360ff60028301541691015461208260405194859485526080602086015260808501906127bd565b911515604084015260608301520390f35b50346101a55760403660031901126101a5576004356001600160401b038111610697576120c490369060040161274e565b906024356001600160401b038111610697576120e490369060040161274e565b3033036121995781546001600160a01b031692833b156106935782604051809563160c220d60e31b825281838161211f888860048401612c47565b03925af1612184575b825492935083926001600160a01b031691823b1561217f57612163928492836040518096819582946314faf32d60e11b845260048401612c47565b03925af161216e5750f35b8161217891612710565b6101a55780f35b505050fd5b9190928161219191612710565b908290612128565b60405162461bcd60e51b8152602060048201526012602482015271496e7465726e616c2063616c6c206f6e6c7960701b6044820152606490fd5b50346101a557806003193601126101a5576040519080600354906121f682612813565b808552916001811690811561228f5750600114612232575b6110148461221e81860382612710565b6040519182916020835260208301906127bd565b600381527fc2575a0e9e593c00f959f8c92f12db2869c3395a3b0502d05e2516446f71f85b939250905b8082106122755750909150810160200161221e8261220e565b91926001816020925483858801015201910190929161225c565b60ff191660208087019190915292151560051b8501909201925061221e915083905061220e565b50346101a55760203660031901126101a557600435906005548210156101a55760206122e1836127e2565b905460405160039290921b1c6001600160a01b03168152f35b50346101a55760203660031901126101a557600435906001600160401b0382116101a55761101461221e60026123386020610205366004890161274e565b810160078152030190200161284d565b50346101a55760203660031901126101a5576004356001600160a01b03811690819003610697578160409160209352600483522054604051908152f35b50346101a55760403660031901126101a5576004356001600160401b038111610697576123b690369060040161274e565b602435906001600160a01b03821682036106935760209260ff9260056123eb866040958187519382858094519384920161279a565b6007908201908152030190206001600160a01b0390921683520184522054604051911615158152f35b50346101a55760203660031901126101a5576004356001600160401b0381116106975761244590369060040161274e565b6124a660ff6001612490602060405161247f85858951938581818d019661246d81838a61279a565b81016007815203019020015416612baa565b60405180938192895192839161279a565b81016007815203019020015460081c1615612beb565b6124af81613700565b15612539576125337ffe2a617c3a0856bbd203e77cee3d518a00f599c8a955224e80b1d0a1afd95703916125256040516124ea606082612710565b602281527f54696d656f75742072656163686564202d2065787465726e616c20747269676760208201526132b960f11b604082015282613741565b604051918291429083612c2b565b0390a180f35b60405162461bcd60e51b8152602060048201526017602482015276151a5b595bdd5d081b9bdd081c995858da1959081e595d604a1b6044820152606490fd5b50346101a55760203660031901126101a557604060a091600435815260086020522060ff60038201541690600181015490600281015460046125ba8285612b87565b9201549260405194151585526020850152604084015260608301526080820152f35b50346101a55760203660031901126101a557600435906001600160401b0382116101a5576020612617612612366004860161274e565b613700565b6040519015158152f35b50346101a55760203660031901126101a557600435906001600160401b0382116101a5576020612654366004850161274e565b60405160ff600183519285818187019561266f81838961279a565b81016007815203019020015416918261268f575b50506040519015158152f35b60ff9250836001926126ac9260405193849283925192839161279a565b81016007815203019020015460081c16158280612683565b608081019081106001600160401b038211176126df57604052565b634e487b7160e01b600052604160045260246000fd5b604081019081106001600160401b038211176126df57604052565b601f909101601f19168101906001600160401b038211908210176126df57604052565b6001600160401b0381116126df57601f01601f191660200190565b81601f820112156127955780359061276582612733565b926127736040519485612710565b8284526020838301011161279557816000926020809301838601378301015290565b600080fd5b60005b8381106127ad5750506000910152565b818101518382015260200161279d565b906020916127d68151809281855285808601910161279a565b601f01601f1916010190565b6005548110156127fd57600560005260206000200190600090565b634e487b7160e01b600052603260045260246000fd5b90600182811c92168015612843575b602083101461282d57565b634e487b7160e01b600052602260045260246000fd5b91607f1691612822565b906040519182600082549261286184612813565b80845293600181169081156128cf5750600114612888575b5061288692500383612710565b565b90506000929192526020600020906000915b8183106128b35750509060206128869282010138612879565b602091935080600191548385890101520191019091849261289a565b90506020925061288694915060ff191682840152151560051b82010138612879565b60209061290b92826040519483868095519384920161279a565b82019081520301902090565b80548210156127fd5760005260206000209060021b0190600090565b9080602083519182815201916020808360051b8301019401926000915b83831061295f57505050505090565b909192939460208061297d600193601f1986820301875289516127bd565b97019301930191939290612950565b6001600160401b0381116126df5760051b60200190565b9080601f83011215612795578135906129bb8261298c565b926129c96040519485612710565b82845260208085019360051b82010191821161279557602001915b8183106129f15750505090565b82356001600160a01b0381168103612795578152602092830192016129e4565b9080601f83011215612795578135612a288161298c565b92612a366040519485612710565b81845260208085019260051b82010192831161279557602001905b828210612a5e5750505090565b8135815260209182019101612a51565b9080601f83011215612795578135612a858161298c565b92612a936040519485612710565b81845260208085019260051b820101918383116127955760208201905b838210612abf57505050505090565b81356001600160401b03811161279557602091612ae18784809488010161274e565b815201910190612ab0565b9080601f8301121561279557813590612b048261298c565b92612b126040519485612710565b82845260208085019360051b82010191821161279557602001915b818310612b3a5750505090565b8235801515810361279557815260209283019201612b2d565b906020808351928381520192019060005b818110612b715750505090565b8251845260209384019390920191600101612b64565b91908203918211612b9457565b634e487b7160e01b600052601160045260246000fd5b15612bb157565b60405162461bcd60e51b815260206004820152601260248201527153657373696f6e206e6f742061637469766560701b6044820152606490fd5b15612bf257565b60405162461bcd60e51b8152602060048201526011602482015270105b1c9958591e48199a5b985b1a5e9959607a1b6044820152606490fd5b929190612c426020916040865260408601906127bd565b930152565b9091612c5e612c6c936040845260408401906127bd565b9160208184039101526127bd565b90565b908154612c7b8161298c565b92612c896040519485612710565b818452602084019060005260206000206000915b838310612caa5750505050565b600160208192612cb98561284d565b815201920192019190612c9d565b91908201809211612b9457565b6000198114612b945760010190565b15612cea57565b60405162461bcd60e51b815260206004820152601a60248201527913db9b1e481b585a5b881c1c9bda9958dd0818d85b8818d85b1b60321b6044820152606490fd5b818110612d37575050565b60008155600101612d2c565b80518210156127fd5760209160051b010190565b15612d5e57565b60405162461bcd60e51b8152602060048201526019602482015278566f74696e672073657373696f6e206e6f742061637469766560381b6044820152606490fd5b15612da657565b606460405162461bcd60e51b815260206004820152602060248201527f566f74696e672073657373696f6e20616c72656164792066696e616c697a65646044820152fd5b15612df157565b60405162461bcd60e51b815260206004820152601c60248201527b416c726561647920766f746564206f6e20746869732073616d706c6560201b6044820152606490fd5b60405190612e44604083612710565b600f82526e151a5b595bdd5d081c995858da1959608a1b6020830152565b8160011b916000199060031b1c19161790565b8054600160401b8110156126df57612e9291600182018155612917565b919091612fcc57805182546001600160a01b0319166001600160a01b03919091161782556020810151805160018401916001600160401b0382116126df57612eda8354612813565b601f8111612f9a575b50602090601f8311600114612f2e57826003959360609593612f0d93600092610a96575050612e62565b90555b600284016040820151151560ff801983541691161790550151910155565b90601f1983169184600052816000209260005b818110612f825750926001928592600398966060989610612f6a575b505050811b019055612f10565b015160001983891b60f8161c19169055388080612f5d565b92936020600181928786015181550195019301612f41565b612fc690846000526020600020601f850160051c81019160208610610b3c57601f0160051c0190612d2c565b38612ee3565b634e487b7160e01b600052600060045260246000fd5b60405190612ff1604083612710565b6017825276105b1b081d9bdd195c9cc81c185c9d1a58da5c185d1959604a1b6020830152565b60405190613026604083612710565b601182527010dbdb9cd95b9cdd5cc81c995858da1959607a1b6020830152565b1561304d57565b60405162461bcd60e51b815260206004820152600f60248201526e098cadccee8d040dad2e6dac2e8c6d608b1b6044820152606490fd5b60405190613093602083612710565b600080835282815b8281106130a757505050565b80606060208093850101520161309b565b906130c28261298c565b6130cf6040519182612710565b82815280926130e0601f199161298c565b019060005b8281106130f157505050565b8060606020809385010152016130e5565b5190811515820361279557565b92919490946131218451875114613046565b60009360005b815181101561315c5761313a8189612d43565b51613148575b600101613127565b94613154600191612cd4565b959050613140565b5091939490929480156133d257613172906130b8565b9360009360005b84518110156131cf5761318c818a612d43565b5161319a575b600101613179565b946131c76001916131ab8888612d43565b516131b6828b612d43565b526131c1818a612d43565b50612cd4565b959050613192565b50935094915094506131e183516130b8565b9460005b845181101561325f57806131fb60019287612d43565b51613243603060405180936f029b0b6b83632903230ba30903337b9160851b6020830152613232815180926020868601910161279a565b81010301601f198101835282612710565b61324d828a612d43565b526132588189612d43565b50016131e5565b50919390926000938151613276575b509493929190565b8151156133be576132a8856020840151604051809381926379c4ab1560e01b83526020600484015260248301906127bd565b0381305afa9081156133b35786918791889161330a575b5081613301575b506132d2575b5061326e565b6132df9095929542612b87565b908082106132f25750505b9238806132cc565b6132fc9250612b87565b6132ea565b905015386132c6565b925050503d8087833e61331d8183612710565b8101906080818303126133af57805161333860208301613102565b9261334560408401613102565b606084015190936001600160401b0382116133a7570181601f820112156133ab5780519161337283612733565b906133806040519283612710565b838252602084840101116133a7579060208061339f949301910161279a565b9190386132bf565b8a80fd5b8980fd5b8680fd5b6040513d88823e3d90fd5b634e487b7160e01b85526032600452602485fd5b509450505090506133e1613084565b906133ea613084565b926133f3613084565b9293929160009190565b906134078261298c565b6134146040519182612710565b8281528092613425601f199161298c565b0190602036910137565b6040518151906020818185019361344781838761279a565b8101600681520301902091825461345d8161298c565b9361346b6040519586612710565b818552602085019060005260206000206000915b83831061363557505050506134a29160209160405193849283925192839161279a565b81016007815203019020908051156135f4576134be81516130b8565b90600093845b82518110156135505760206134d98285612d43565b510151600060208201815b898110613521575b5050156134fd575b506001016134c4565b8661351a9161350f6001949988612d43565b526131c18187612d43565b95906134f4565b61352b8189612d43565b51602081519101208451832014613544576001016134e4565b505050600138806134ec565b50919293905061355f816130b8565b90613569816133fd565b94613573826133fd565b94600782019160060160005b848110613590575050505050929190565b8061359d60019285612d43565b516135a88289612d43565b526135b38188612d43565b506135c8836135c28387612d43565b516128f1565b546135d3828c612d43565b526135e2856135c28387612d43565b546135ed828b612d43565b520161357f565b50506135fe613084565b6040519160209161360f8385612710565b600084526000368137604051926136268185612710565b60008452506000368137929190565b60046020600192604051613648816126c4565b848060a01b03865416815261365e85870161284d565b8382015260ff600287015416151560408201526003860154606082015281520192019201919061347f565b60405190613698604083612710565b600782526631b932b0ba37b960c91b6020830152565b604051906136bd604083612710565b600b82526a31b7b73a3934b13aba37b960a91b6020830152565b604051906136e6604083612710565b600b82526a31b7b7b93234b730ba37b960a91b6020830152565b600254801561373a57613725602061373593816040519382858094519384920161279a565b8101600781520301902054612cc7565b421190565b5050600090565b90600060405161376360ff6001865193602081818a019661246d81838a61279a565b61377d60ff6001604051602081895161249081838a61279a565b6001604051602081875161379281838861279a565b810160078152030190200160ff198154169055600160405160208187516137ba81838861279a565b810160078152030190200161010061ff00198254161790556137db84613de3565b92600260405160208188516137f181838961279a565b8101600781520301902001845160018060401b038111610bd0576138158254612813565b601f8111613b55575b506020601f8211600114613ad9576138ce6138e29460209461385b856004999660008051602061414f833981519152968c91613ace575b50612e62565b90555b7f8a0cc662156da5580404150064cc81955de64ef5a8090364795edcbac84299916040518061388f8d429083612c2b565b0390a1604051918291608083526138ba6138ad8d60808601906127bd565b848103898601528c6127bd565b9042604085015283820360608501526127bd565b0390a160405180938192895192839161279a565b81016007815203019020015480151580613ab5575b613992575b50303b156101a557604051632e4bca8f60e11b815290808280613923868860048401612c47565b038183305af19182613982575b505061393a575050565b7fdabbbde127ef4ac1b0a84891a674bfc7b3ceff8d1e7350abd0f7c48021420d329161397761049c926040519384936060855260608501906127bd565b4260408301520390a1565b8161398c91612710565b38613930565b8082526008602052600260408320016139ab8154612cd4565b905580825260086020527f145f86831bf675d553efc81172882ecdb1776f5bdfa7f1b8367ad08b578887406139f760016040852001548385526008602052600260408620015490612b87565b604051809184825260806020830152613a24613a16608084018a6127bd565b8381036040850152886127bd565b9060608301520390a18082526008602052600260408320015481835260086020526001604084200154116138fc576060817fcdf3a25ac86d8c6a422a8356f0fb7d6cc09b23caca39fd699cbc6038e558736492845260086020526003604085200160ff198154169055808452600860205260026040852001546040519182526020820152426040820152a1386138fc565b50808252600860205260ff6003604084200154166138f7565b90508c015138613855565b82865280862090601f198316875b818110613b3d57509460209460018560008051602061414f833981519152956138ce9560049b986138e29b10613b24575b5050811b01905561385e565b8d015160001960f88460031b161c191690553880613b18565b9192602060018192868d015181550194019201613ae7565b613b7f9083875260208720601f840160051c81019160208510610b3c57601f0160051c0190612d2c565b3861381e565b6060916040516020818451613b9d818385890161279a565b81016006815203019020805490613bb38261298c565b94613bc16040519687612710565b82865260208601916000526020600020906000925b848410613ce3575050505050825115613cd257613bf383516130b8565b90600090815b8551811015613c7a576020613c0e8288612d43565b510151600060208201815b868110613c4b575b505015613c32575b50600101613bf9565b83613c449161350f6001949688612d43565b9290613c29565b613c558189612d43565b51602081519101208451832014613c6e57600101613c19565b50505060013880613c21565b5093509160005b838110613ca15750505050604051613c9a602082612710565b6000815290565b613cb5613cae8285612d43565b5183613fa3565b613cc157600101613c81565b919050613cce9250612d43565b5190565b915050604051613c9a602082612710565b60046020600192604051613cf6816126c4565b848060a01b038754168152613d0c85880161284d565b8382015260ff60028801541615156040820152600387015486820152815201930193019291613bd6565b6000906000600554905b818110613d74575050613d646020600392816040519382858094519384920161279a565b8101600781520301902001541490565b60ff6040600581516020818851613d8e8183858d0161279a565b8101600781520301902001613da2846127e2565b905460039190911b1c6001600160a01b03166000908152602091909152205416613dcf575b600101613d40565b92613ddb600191612cd4565b939050613dc7565b60609060405181519060208181850193613dfe81838761279a565b81016006815203019020805490613e148261298c565b94613e226040519687612710565b82865260208601916000526020600020906000925b848410613f50575050505050825115613f27576020613e649160079360405193849283925192839161279a565b81018481520301902001602092604051613e7e8582612710565b600081529260009160005b8251811015613ee3576040613e9e8285612d43565b510151613eae575b600101613e89565b86613eb98285612d43565b510151613ec686826128f1565b54858111613ed6575b5050613ea6565b9096509350600138613ecf565b5084519095935060009250159050613efa57505090565b506040805192506b4e4f5f434f4e53454e53555360a01b9190613f1d9084612710565b600c835282015290565b505050604051613f38604082612710565b60088152674e4f5f564f54455360c01b602082015290565b60046020600192604051613f63816126c4565b848060a01b038754168152613f7985880161284d565b8382015260ff60028801541615156040820152600387015486820152815201930193019291613e37565b6020613fbc91816040519382858094519384920161279a565b810160068152030190208054613fd18161298c565b91613fdf6040519384612710565b818352602083019060005260206000206000915b8383106140fa5750505050600090815b81518110156140885760206140188284612d43565b510151602081519101208451602086012014614037575b600101614003565b6001600160a01b036140498284612d43565b515116600052600460205260406000205460406140668385612d43565b510151614074575b5061402f565b6140819060019294612cc7565b929061406e565b505090506000806005545b8082106140bf575050801561373a57606482029180830460641490151715612b94576001549104101590565b90916140f26001916140d0856127e2565b848060a01b0391549060031b1c16600052600460205260406000205490612cc7565b920190614093565b6004602060019260405161410d816126c4565b848060a01b03865416815261412385870161284d565b8382015260ff6002870154161515604082015260038601546060820152815201920192019190613ff356fea8e1279888c174a6fbf4fd42a8be4469b313be30a5edac87aff45c5f8a450deb0cc62c8b09788a11d11e96187c34c67fad5e9651cadc6ace24e1518490bed9812579d0860b48f37c239a6db657bad6560c277bbce0a8a989d70227407fc62e06a264697066735822122020655fdecafcc2aa206c98b04ddf397a8ec58cd2f3be4df7146c2fd24a01fdeb64736f6c634300081c0033",
  "linkReferences": {},
  "deployedLinkReferences": {}
}