{
  "_format": "hh-sol-artifact-1",
  "contractName": "ALProjectVoting",
  "sourceName": "contracts/ALProjectVoting.sol",
  "abi": [
    {
      "inputs": [
        {
          "internalType": "address",
          "name": "_project",
          "type": "address"
        },
        {
          "internalType": "string",
          "name": "_votingConsensus",
          "type": "string"
        },
        {
          "internalType": "uint256",
          "name": "_votingTimeoutSeconds",
          "type": "uint256"
        }
      ],
      "stateMutability": "nonpayable",
      "type": "constructor"
    },
    {
      "anonymous": false,
      "inputs": [
        {
          "indexed": false,
          "internalType": "uint256",
          "name": "round",
          "type": "uint256"
        },
        {
          "indexed": false,
          "internalType": "uint256",
          "name": "completedSamples",
          "type": "uint256"
        },
        {
          "indexed": false,
          "internalType": "uint256",
          "name": "timestamp",
          "type": "uint256"
        }
      ],
      "name": "BatchCompleted",
      "type": "event"
    },
    {
      "anonymous": false,
      "inputs": [
        {
          "indexed": false,
          "internalType": "uint256",
          "name": "round",
          "type": "uint256"
        },
        {
          "indexed": false,
          "internalType": "string",
          "name": "sampleId",
          "type": "string"
        },
        {
          "indexed": false,
          "internalType": "string",
          "name": "finalLabel",
          "type": "string"
        },
        {
          "indexed": false,
          "internalType": "uint256",
          "name": "remainingSamples",
          "type": "uint256"
        }
      ],
      "name": "BatchSampleCompleted",
      "type": "event"
    },
    {
      "anonymous": false,
      "inputs": [
        {
          "indexed": false,
          "internalType": "uint256",
          "name": "round",
          "type": "uint256"
        },
        {
          "indexed": false,
          "internalType": "string[]",
          "name": "sampleIds",
          "type": "string[]"
        },
        {
          "indexed": false,
          "internalType": "uint256",
          "name": "startTime",
          "type": "uint256"
        }
      ],
      "name": "BatchStarted",
      "type": "event"
    },
    {
      "anonymous": false,
      "inputs": [
        {
          "indexed": false,
          "internalType": "string",
          "name": "sampleId",
          "type": "string"
        },
        {
          "indexed": false,
          "internalType": "string",
          "name": "label",
          "type": "string"
        }
      ],
      "name": "ConsensusReached",
      "type": "event"
    },
    {
      "anonymous": false,
      "inputs": [
        {
          "indexed": false,
          "internalType": "string",
          "name": "sampleId",
          "type": "string"
        },
        {
          "indexed": false,
          "internalType": "string",
          "name": "finalLabel",
          "type": "string"
        },
        {
          "indexed": false,
          "internalType": "uint256",
          "name": "timestamp",
          "type": "uint256"
        }
      ],
      "name": "LabelStoredInProject",
      "type": "event"
    },
    {
      "anonymous": false,
      "inputs": [
        {
          "indexed": false,
          "internalType": "string",
          "name": "sampleId",
          "type": "string"
        },
        {
          "indexed": false,
          "internalType": "uint256",
          "name": "endTime",
          "type": "uint256"
        }
      ],
      "name": "TimeoutReached",
      "type": "event"
    },
    {
      "anonymous": false,
      "inputs": [
        {
          "indexed": false,
          "internalType": "string",
          "name": "sampleId",
          "type": "string"
        },
        {
          "indexed": true,
          "internalType": "address",
          "name": "voter",
          "type": "address"
        },
        {
          "indexed": false,
          "internalType": "string",
          "name": "label",
          "type": "string"
        },
        {
          "indexed": false,
          "internalType": "bool",
          "name": "support",
          "type": "bool"
        },
        {
          "indexed": false,
          "internalType": "uint256",
          "name": "timestamp",
          "type": "uint256"
        }
      ],
      "name": "VoteSubmitted",
      "type": "event"
    },
    {
      "anonymous": false,
      "inputs": [
        {
          "indexed": false,
          "internalType": "string",
          "name": "sampleId",
          "type": "string"
        },
        {
          "indexed": false,
          "internalType": "uint256",
          "name": "endTime",
          "type": "uint256"
        }
      ],
      "name": "VotingSessionEnded",
      "type": "event"
    },
    {
      "anonymous": false,
      "inputs": [
        {
          "indexed": false,
          "internalType": "string",
          "name": "sampleId",
          "type": "string"
        },
        {
          "indexed": false,
          "internalType": "string",
          "name": "finalLabel",
          "type": "string"
        },
        {
          "indexed": false,
          "internalType": "uint256",
          "name": "endTime",
          "type": "uint256"
        },
        {
          "indexed": false,
          "internalType": "string",
          "name": "reason",
          "type": "string"
        }
      ],
      "name": "VotingSessionFinalized",
      "type": "event"
    },
    {
      "anonymous": false,
      "inputs": [
        {
          "indexed": false,
          "internalType": "string",
          "name": "sampleId",
          "type": "string"
        },
        {
          "indexed": false,
          "internalType": "uint256",
          "name": "startTime",
          "type": "uint256"
        }
      ],
      "name": "VotingSessionStarted",
      "type": "event"
    },
    {
      "inputs": [
        {
          "internalType": "uint256",
          "name": "",
          "type": "uint256"
        }
      ],
      "name": "batches",
      "outputs": [
        {
          "internalType": "uint256",
          "name": "round",
          "type": "uint256"
        },
        {
          "internalType": "uint256",
          "name": "completedCount",
          "type": "uint256"
        },
        {
          "internalType": "bool",
          "name": "isActive",
          "type": "bool"
        },
        {
          "internalType": "uint256",
          "name": "startTime",
          "type": "uint256"
        }
      ],
      "stateMutability": "view",
      "type": "function"
    },
    {
      "inputs": [
        {
          "internalType": "string",
          "name": "sampleId",
          "type": "string"
        }
      ],
      "name": "checkAndFinalizeTimeout",
      "outputs": [],
      "stateMutability": "nonpayable",
      "type": "function"
    },
    {
      "inputs": [
        {
          "internalType": "string[]",
          "name": "allSampleIds",
          "type": "string[]"
        },
        {
          "internalType": "bool[]",
          "name": "sampleActiveStates",
          "type": "bool[]"
        },
        {
          "internalType": "string[]",
          "name": "labelSpace",
          "type": "string[]"
        },
        {
          "internalType": "uint256",
          "name": "votingTimeout",
          "type": "uint256"
        },
        {
          "internalType": "uint256",
          "name": "_currentRound",
          "type": "uint256"
        }
      ],
      "name": "computeActiveBatch",
      "outputs": [
        {
          "internalType": "string[]",
          "name": "activeSampleIds",
          "type": "string[]"
        },
        {
          "internalType": "string[]",
          "name": "sampleData",
          "type": "string[]"
        },
        {
          "internalType": "string[]",
          "name": "labelOptions",
          "type": "string[]"
        },
        {
          "internalType": "uint256",
          "name": "timeRemaining",
          "type": "uint256"
        },
        {
          "internalType": "uint256",
          "name": "round",
          "type": "uint256"
        }
      ],
      "stateMutability": "view",
      "type": "function"
    },
    {
      "inputs": [
        {
          "internalType": "uint256",
          "name": "round",
          "type": "uint256"
        },
        {
          "internalType": "string[]",
          "name": "sampleIds",
          "type": "string[]"
        },
        {
          "internalType": "bool[]",
          "name": "sampleActiveStates",
          "type": "bool[]"
        }
      ],
      "name": "computeBatchProgress",
      "outputs": [
        {
          "internalType": "uint256",
          "name": "_round",
          "type": "uint256"
        },
        {
          "internalType": "uint256",
          "name": "totalSamples",
          "type": "uint256"
        },
        {
          "internalType": "uint256",
          "name": "activeSamplesCount",
          "type": "uint256"
        },
        {
          "internalType": "uint256",
          "name": "completedSamples",
          "type": "uint256"
        },
        {
          "internalType": "string[]",
          "name": "_sampleIds",
          "type": "string[]"
        },
        {
          "internalType": "bool",
          "name": "batchActive",
          "type": "bool"
        }
      ],
      "stateMutability": "pure",
      "type": "function"
    },
    {
      "inputs": [
        {
          "internalType": "address[]",
          "name": "participants",
          "type": "address[]"
        },
        {
          "internalType": "string[]",
          "name": "roles",
          "type": "string[]"
        },
        {
          "internalType": "uint256[]",
          "name": "weights",
          "type": "uint256[]"
        }
      ],
      "name": "computeEligibleVoters",
      "outputs": [
        {
          "internalType": "address[]",
          "name": "voters",
          "type": "address[]"
        },
        {
          "internalType": "uint256[]",
          "name": "eligibleWeights",
          "type": "uint256[]"
        }
      ],
      "stateMutability": "pure",
      "type": "function"
    },
    {
      "inputs": [],
      "name": "consensusThreshold",
      "outputs": [
        {
          "internalType": "uint256",
          "name": "",
          "type": "uint256"
        }
      ],
      "stateMutability": "view",
      "type": "function"
    },
    {
      "inputs": [],
      "name": "currentRound",
      "outputs": [
        {
          "internalType": "uint256",
          "name": "",
          "type": "uint256"
        }
      ],
      "stateMutability": "view",
      "type": "function"
    },
    {
      "inputs": [
        {
          "internalType": "uint256",
          "name": "round",
          "type": "uint256"
        }
      ],
      "name": "endBatchVoting",
      "outputs": [],
      "stateMutability": "nonpayable",
      "type": "function"
    },
    {
      "inputs": [
        {
          "internalType": "uint256",
          "name": "round",
          "type": "uint256"
        }
      ],
      "name": "getBatchSamples",
      "outputs": [
        {
          "internalType": "string[]",
          "name": "",
          "type": "string[]"
        }
      ],
      "stateMutability": "view",
      "type": "function"
    },
    {
      "inputs": [
        {
          "internalType": "uint256",
          "name": "round",
          "type": "uint256"
        }
      ],
      "name": "getBatchStatus",
      "outputs": [
        {
          "internalType": "bool",
          "name": "isActive",
          "type": "bool"
        },
        {
          "internalType": "uint256",
          "name": "totalSamples",
          "type": "uint256"
        },
        {
          "internalType": "uint256",
          "name": "completedSamples",
          "type": "uint256"
        },
        {
          "internalType": "uint256",
          "name": "remainingSamples",
          "type": "uint256"
        },
        {
          "internalType": "uint256",
          "name": "startTime",
          "type": "uint256"
        }
      ],
      "stateMutability": "view",
      "type": "function"
    },
    {
      "inputs": [],
      "name": "getCurrentBatchProgress",
      "outputs": [
        {
          "internalType": "uint256",
          "name": "round",
          "type": "uint256"
        },
        {
          "internalType": "bool",
          "name": "isActive",
          "type": "bool"
        },
        {
          "internalType": "uint256",
          "name": "totalSamples",
          "type": "uint256"
        },
        {
          "internalType": "uint256",
          "name": "completedSamples",
          "type": "uint256"
        },
        {
          "internalType": "string[]",
          "name": "sampleIds",
          "type": "string[]"
        }
      ],
      "stateMutability": "view",
      "type": "function"
    },
    {
      "inputs": [
        {
          "internalType": "string",
          "name": "sampleId",
          "type": "string"
        }
      ],
      "name": "getFinalLabel",
      "outputs": [
        {
          "internalType": "string",
          "name": "",
          "type": "string"
        }
      ],
      "stateMutability": "view",
      "type": "function"
    },
    {
      "inputs": [],
      "name": "getVoterList",
      "outputs": [
        {
          "components": [
            {
              "internalType": "address",
              "name": "addr",
              "type": "address"
            },
            {
              "internalType": "uint256",
              "name": "weight",
              "type": "uint256"
            }
          ],
          "internalType": "struct ALProjectVoting.Voter[]",
          "name": "",
          "type": "tuple[]"
        }
      ],
      "stateMutability": "view",
      "type": "function"
    },
    {
      "inputs": [
        {
          "internalType": "string",
          "name": "sampleId",
          "type": "string"
        }
      ],
      "name": "getVotes",
      "outputs": [
        {
          "components": [
            {
              "internalType": "address",
              "name": "voter",
              "type": "address"
            },
            {
              "internalType": "string",
              "name": "label",
              "type": "string"
            },
            {
              "internalType": "bool",
              "name": "support",
              "type": "bool"
            },
            {
              "internalType": "uint256",
              "name": "timestamp",
              "type": "uint256"
            }
          ],
          "internalType": "struct ALProjectVoting.Vote[]",
          "name": "",
          "type": "tuple[]"
        }
      ],
      "stateMutability": "view",
      "type": "function"
    },
    {
      "inputs": [
        {
          "internalType": "string",
          "name": "sampleId",
          "type": "string"
        }
      ],
      "name": "getVotingDistribution",
      "outputs": [
        {
          "internalType": "string[]",
          "name": "labels",
          "type": "string[]"
        },
        {
          "internalType": "uint256[]",
          "name": "voteCounts",
          "type": "uint256[]"
        },
        {
          "internalType": "uint256[]",
          "name": "voteWeights",
          "type": "uint256[]"
        }
      ],
      "stateMutability": "view",
      "type": "function"
    },
    {
      "inputs": [
        {
          "internalType": "string",
          "name": "sampleId",
          "type": "string"
        }
      ],
      "name": "getVotingResult",
      "outputs": [
        {
          "internalType": "bool",
          "name": "isFinalized",
          "type": "bool"
        },
        {
          "internalType": "string",
          "name": "finalLabel",
          "type": "string"
        },
        {
          "internalType": "uint256",
          "name": "totalVotes",
          "type": "uint256"
        },
        {
          "internalType": "uint256",
          "name": "votedCount",
          "type": "uint256"
        }
      ],
      "stateMutability": "view",
      "type": "function"
    },
    {
      "inputs": [
        {
          "internalType": "string",
          "name": "sampleId",
          "type": "string"
        }
      ],
      "name": "getVotingSession",
      "outputs": [
        {
          "internalType": "uint256",
          "name": "startTime",
          "type": "uint256"
        },
        {
          "internalType": "bool",
          "name": "isActive",
          "type": "bool"
        },
        {
          "internalType": "bool",
          "name": "isFinalized",
          "type": "bool"
        },
        {
          "internalType": "string",
          "name": "finalLabel",
          "type": "string"
        }
      ],
      "stateMutability": "view",
      "type": "function"
    },
    {
      "inputs": [
        {
          "internalType": "string",
          "name": "sampleId",
          "type": "string"
        }
      ],
      "name": "getVotingSessionStatus",
      "outputs": [
        {
          "internalType": "bool",
          "name": "isActive",
          "type": "bool"
        },
        {
          "internalType": "bool",
          "name": "isFinalized",
          "type": "bool"
        },
        {
          "internalType": "string",
          "name": "finalLabel",
          "type": "string"
        },
        {
          "internalType": "uint256",
          "name": "startTime",
          "type": "uint256"
        },
        {
          "internalType": "uint256",
          "name": "timeRemaining",
          "type": "uint256"
        },
        {
          "internalType": "uint256",
          "name": "votedCount",
          "type": "uint256"
        },
        {
          "internalType": "uint256",
          "name": "totalVoters",
          "type": "uint256"
        }
      ],
      "stateMutability": "view",
      "type": "function"
    },
    {
      "inputs": [
        {
          "internalType": "string",
          "name": "sampleId",
          "type": "string"
        },
        {
          "internalType": "address",
          "name": "user",
          "type": "address"
        }
      ],
      "name": "hasUserVoted",
      "outputs": [
        {
          "internalType": "bool",
          "name": "",
          "type": "bool"
        }
      ],
      "stateMutability": "view",
      "type": "function"
    },
    {
      "inputs": [
        {
          "internalType": "string",
          "name": "sampleId",
          "type": "string"
        }
      ],
      "name": "isTimeoutReached",
      "outputs": [
        {
          "internalType": "bool",
          "name": "",
          "type": "bool"
        }
      ],
      "stateMutability": "view",
      "type": "function"
    },
    {
      "inputs": [
        {
          "internalType": "string",
          "name": "sampleId",
          "type": "string"
        }
      ],
      "name": "isVotingActive",
      "outputs": [
        {
          "internalType": "bool",
          "name": "",
          "type": "bool"
        }
      ],
      "stateMutability": "view",
      "type": "function"
    },
    {
      "inputs": [
        {
          "internalType": "string",
          "name": "sampleId",
          "type": "string"
        },
        {
          "internalType": "string",
          "name": "finalLabel",
          "type": "string"
        }
      ],
      "name": "notifyMainContractExternal",
      "outputs": [],
      "stateMutability": "nonpayable",
      "type": "function"
    },
    {
      "inputs": [],
      "name": "project",
      "outputs": [
        {
          "internalType": "address",
          "name": "",
          "type": "address"
        }
      ],
      "stateMutability": "view",
      "type": "function"
    },
    {
      "inputs": [
        {
          "internalType": "address[]",
          "name": "_voters",
          "type": "address[]"
        },
        {
          "internalType": "uint256[]",
          "name": "_weights",
          "type": "uint256[]"
        }
      ],
      "name": "setVoters",
      "outputs": [],
      "stateMutability": "nonpayable",
      "type": "function"
    },
    {
      "inputs": [
        {
          "internalType": "string[]",
          "name": "sampleIds",
          "type": "string[]"
        },
        {
          "internalType": "uint256",
          "name": "round",
          "type": "uint256"
        },
        {
          "internalType": "string[]",
          "name": "sampleDataHashes",
          "type": "string[]"
        }
      ],
      "name": "startBatchVoting",
      "outputs": [],
      "stateMutability": "nonpayable",
      "type": "function"
    },
    {
      "inputs": [
        {
          "internalType": "string[]",
          "name": "sampleIds",
          "type": "string[]"
        },
        {
          "internalType": "string[]",
          "name": "labels",
          "type": "string[]"
        },
        {
          "internalType": "bool[]",
          "name": "support",
          "type": "bool[]"
        }
      ],
      "name": "submitBatchVote",
      "outputs": [],
      "stateMutability": "nonpayable",
      "type": "function"
    },
    {
      "inputs": [
        {
          "internalType": "string[]",
          "name": "sampleIds",
          "type": "string[]"
        },
        {
          "internalType": "string[]",
          "name": "labels",
          "type": "string[]"
        },
        {
          "internalType": "address",
          "name": "voter",
          "type": "address"
        }
      ],
      "name": "submitBatchVoteOnBehalf",
      "outputs": [],
      "stateMutability": "nonpayable",
      "type": "function"
    },
    {
      "inputs": [
        {
          "internalType": "uint256",
          "name": "",
          "type": "uint256"
        }
      ],
      "name": "voterList",
      "outputs": [
        {
          "internalType": "address",
          "name": "",
          "type": "address"
        }
      ],
      "stateMutability": "view",
      "type": "function"
    },
    {
      "inputs": [
        {
          "internalType": "address",
          "name": "",
          "type": "address"
        }
      ],
      "name": "voterWeights",
      "outputs": [
        {
          "internalType": "uint256",
          "name": "",
          "type": "uint256"
        }
      ],
      "stateMutability": "view",
      "type": "function"
    },
    {
      "inputs": [
        {
          "internalType": "string",
          "name": "",
          "type": "string"
        },
        {
          "internalType": "uint256",
          "name": "",
          "type": "uint256"
        }
      ],
      "name": "votes",
      "outputs": [
        {
          "internalType": "address",
          "name": "voter",
          "type": "address"
        },
        {
          "internalType": "string",
          "name": "label",
          "type": "string"
        },
        {
          "internalType": "bool",
          "name": "support",
          "type": "bool"
        },
        {
          "internalType": "uint256",
          "name": "timestamp",
          "type": "uint256"
        }
      ],
      "stateMutability": "view",
      "type": "function"
    },
    {
      "inputs": [],
      "name": "votingConsensus",
      "outputs": [
        {
          "internalType": "string",
          "name": "",
          "type": "string"
        }
      ],
      "stateMutability": "view",
      "type": "function"
    },
    {
      "inputs": [
        {
          "internalType": "string",
          "name": "",
          "type": "string"
        }
      ],
      "name": "votingSessions",
      "outputs": [
        {
          "internalType": "uint256",
          "name": "startTime",
          "type": "uint256"
        },
        {
          "internalType": "bool",
          "name": "isActive",
          "type": "bool"
        },
        {
          "internalType": "bool",
          "name": "isFinalized",
          "type": "bool"
        },
        {
          "internalType": "string",
          "name": "finalLabel",
          "type": "string"
        },
        {
          "internalType": "uint256",
          "name": "totalVoters",
          "type": "uint256"
        },
        {
          "internalType": "uint256",
          "name": "round",
          "type": "uint256"
        }
      ],
      "stateMutability": "view",
      "type": "function"
    },
    {
      "inputs": [],
      "name": "votingTimeoutSeconds",
      "outputs": [
        {
          "internalType": "uint256",
          "name": "",
          "type": "uint256"
        }
      ],
      "stateMutability": "view",
      "type": "function"
    },
    {
      "inputs": [
        {
          "internalType": "string",
          "name": "sampleId",
          "type": "string"
        }
      ],
      "name": "wasConsensusAchieved",
      "outputs": [
        {
          "internalType": "bool",
          "name": "",
          "type": "bool"
        }
      ],
      "stateMutability": "view",
      "type": "function"
    }
  ],
  "bytecode": "0x60806040523461029757614957803803806100198161029c565b9283398101906060818303126102975780516001600160a01b03811691908290036102975760208101516001600160401b03811161029757810183601f82011215610297578051906001600160401b03821161023557610082601f8301601f191660200161029c565b94828652602083830101116102975760005b82811061028257505060009084016020015260400151603360015590801561024b57600080546001600160a01b03191691909117905581516001600160401b03811161023557600354600181811c9116801561022b575b602082101461021557601f81116101b0575b50602092601f821160011461014b5792819293600092610140575b50508160011b916000199060031b1c1916176003555b60025560405161469590816102c28239f35b015190503880610118565b601f198216936003600052806000209160005b868110610198575083600195961061017f575b505050811b0160035561012e565b015160001960f88460031b161c19169055388080610171565b9192602060018192868501518155019401920161015e565b60036000527fc2575a0e9e593c00f959f8c92f12db2869c3395a3b0502d05e2516446f71f85b601f830160051c8101916020841061020b575b601f0160051c01905b8181106101ff57506100fd565b600081556001016101f2565b90915081906101e9565b634e487b7160e01b600052602260045260246000fd5b90607f16906100eb565b634e487b7160e01b600052604160045260246000fd5b60405162461bcd60e51b815260206004820152600f60248201526e496e76616c6964206164647265737360881b6044820152606490fd5b80602080928401015182828901015201610094565b600080fd5b6040519190601f01601f191682016001600160401b038111838210176102355760405256fe6080604052600436101561001257600080fd5b6000803560e01c806304574fe8146129c757806326a0613a1461298c5780632d1bbc8e14612928578063367cb924146127c45780634149738514612735578063414f8e76146126f8578063428f8338146126aa57806350e2e8af1461266657806355d389a4146125835780635c97951e146124435780636042ad611461238657806368acb1ab1461234457806372678fcc146121e157806375c255fc14611fd557806379c4ab1514611f4f578063805265e514611df45780638520eb7814611d885780638a19c8bc14611d6a5780639a6e81ab14611908578063a58df19a146118ea578063a76fd84e146117e5578063ab40d3ba14611715578063af37b5c614610f90578063b28d92ae14610e56578063b32c4d8d14610e04578063b49c447e14610d8f578063b8c3903414610c36578063cdbf3d01146108e7578063db7cde8b146107c9578063e7016ca714610784578063f02a0f751461028e578063f18a5cec146101da578063f60ca60d146101b35763f9b0b5b91461019357600080fd5b346101b057806003193601126101b0576020600154604051908152f35b80fd5b50346101b057806003193601126101b057546040516001600160a01b039091168152602090f35b50346101b05760203660031901126101b057600435906001600160401b0382116101b05761022360206102103660048601612af4565b8160405193828580945193849201612b40565b81016007815203019020805460018201549161024160028201612bf3565b61027f600460038401549301549160ff60405196879687528181161515602088015260081c161515604086015260c0606086015260c0850190612b63565b91608084015260a08301520390f35b50346101b05760603660031901126101b0576004356001600160401b038111610780576102bf903690600401612e3a565b906024356001600160401b038111610780576102df903690600401612e3a565b6044356001600160401b03811161077c576102fe903690600401612eb8565b338352600460205260408320541561073e5783518251036106f95783518151036106b557913390805b8551811015610572578061033d6001928861311c565b51610348828761311c565b5190610354838961311c565b5115159160405161038860ff878551936020818189019661037681838a612b40565b81016007815203019020015416613130565b6103b760ff8760405160208188516103a181838a612b40565b81016007815203019020015460081c1615613178565b6103ef60ff60406005815160208189516103d281838b612b40565b81016007815203019020016000908c8252602052205416156131c3565b6103f883613c11565b6105585760008051602061464083398151915292916104bb916104586040516020818751610427818388612b40565b810160068152030190206040519061043e82612a6a565b33825284602083015288604083015242606083015261324e565b88848760408d60058251602081875161047281838d612b40565b81016007815203019020016000918252602052208b60ff198254161790556104d4575b5050506104ad60405193608085526080850190612b63565b908382036020850152612b63565b9260408201524260608201528033930390a25b01610327565b60076105366020604061054e9561050f60066104ff858b6105469a8751938492839251928391612b40565b81018a815203019020018a612cbd565b61051981546130a0565b905533815260048352205495604051809381928c51928391612b40565b8101848152030190200184612cbd565b918254613093565b9055388884610495565b505061056d915061056761320e565b90613c4b565b6104ce565b5084805161057e575080f35b61059261058c60049261310f565b51612c97565b0154801515806106a6575b6105a5575080f35b815260086020526105bb6001604083200161303b565b90805b82518110156106a057806105d46001928561311c565b5160405160ff84835192602081818701956105f0818389612b40565b81016007815203019020015416908161066d575b50610611575b50016105be565b61061a8161414a565b80511561065b576000805160206146208339815191529161064261063c6133f3565b82613c4b565b61065160405192839283613013565b0390a15b8461060a565b50610668906105676133bb565b610655565b60ff915061068960208692604051809381928851928391612b40565b81016007815203019020015460081c161586610604565b50905080f35b506106b0816140a3565b61059d565b606460405162461bcd60e51b815260206004820152602060248201527f4d69736d6174636865642073616d706c6549647320616e6420737570706f72746044820152fd5b60405162461bcd60e51b815260206004820152601f60248201527f4d69736d6174636865642073616d706c6549647320616e64206c6162656c73006044820152606490fd5b60405162461bcd60e51b81526020600482015260166024820152752737ba1030903932b3b4b9ba32b932b2103b37ba32b960511b6044820152606490fd5b8280fd5b5080fd5b50346101b05760203660031901126101b057600435906001600160401b0382116101b05760206107bf6107ba3660048601612af4565b613b62565b6040519015158152f35b50346101b05760203660031901126101b0576004356001600160401b038111610780576107fa903690600401612af4565b60405181519060208181850193610812818387612b40565b8101600781520301902090836005549060058401905b82811061089a57505050600261085a602061086c9360ff600187015460081c1696604051938492839251928391612b40565b81016006815203019020549201612bf3565b9261088b60405194859415158552608060208601526080850190612b63565b91604084015260608301520390f35b60ff60406108a783612b88565b905460039190911b1c6001600160a01b0316600090815260208590522054166108d3575b600101610828565b956108df6001916130a0565b9690506108cb565b50346101b05760603660031901126101b0576004356001600160401b03811161078057610918903690600401612d6f565b6024356001600160401b03811161077c57610937903690600401612e3a565b6044356001600160401b038111610c3257610956903690600401612ddd565b928251825103610be2578251845103610b91578093815b8451811015610a1757610980818561311c565b5160208151910120610990613a9b565b602081519101201480156109ef575b80156109c7575b6109b3575b60010161096d565b946109bf6001916130a0565b9590506109ab565b506109d2818561311c565b51602081519101206109e2613ae9565b60208151910120146109a6565b506109fa818561311c565b5160208151910120610a0a613ac0565b602081519101201461099f565b509092610a2385612d58565b90610a316040519283612ab6565b858252610a52610a4087612d58565b602084019790601f1901368937613815565b938596865b8351811015610b3757610a6a818461311c565b5160208151910120610a7a613a9b565b60208151910120148015610b0f575b8015610ae7575b610a9d575b600101610a57565b97600190610adf906001600160a01b03610ab78c8861311c565b5116610ac3828961311c565b52610ace8b8961311c565b51610ad9828b61311c565b526130a0565b989050610a95565b50610af2818461311c565b5160208151910120610b02613ae9565b6020815191012014610a90565b50610b1a818461311c565b5160208151910120610b2a613ac0565b6020815191012014610a89565b5083868860405192604084019060408552518091526060840194915b818110610b72578480610b6e88878382036020850152612f1f565b0390f35b82516001600160a01b0316865260209586019590920191600101610b53565b60405162461bcd60e51b8152602060048201526024808201527f5061727469636970616e74732f77656967687473206c656e677468206d69736d6044820152630c2e8c6d60e31b6064820152608490fd5b60405162461bcd60e51b815260206004820152602260248201527f5061727469636970616e74732f726f6c6573206c656e677468206d69736d61746044820152610c6d60f31b6064820152608490fd5b8380fd5b50346101b05760203660031901126101b057600435610c5f60018060a01b0383541633146130af565b808252600860205260ff60036040842001541615610d575781526008602052610c8d6001604083200161303b565b815b8151811015610d535780610ca56001928461311c565b5160405160ff8483519260208181870195610cc1818389612b40565b810160078152030190200154169081610d20575b50610ce2575b5001610c8f565b610d1a90604090610cf582519283612ab6565b60138252724d616e75616c20626174636820656e64696e6760681b6020830152613c4b565b38610cdb565b60ff9150610d3c60208692604051809381928851928391612b40565b81016007815203019020015460081c161538610cd5565b8280f35b60405162461bcd60e51b815260206004820152601060248201526f4261746368206e6f742061637469766560801b6044820152606490fd5b50346101b05760203660031901126101b057600435906001600160401b0382116101b057610de8610df6610b6e610dd1610dcc3660048801612af4565b613847565b919390604051958695606087526060870190612cff565b908582036020870152612f1f565b908382036040850152612f1f565b50346101b05760203660031901126101b05760406080916004358152600860205220805490600281015490600460ff600383015416910154916040519384526020840152151560408301526060820152f35b50346101b057806003193601126101b057600554610e7381612d58565b90610e816040519283612ab6565b808252601f19610e9082612d58565b01835b818110610f6d575050825b818110610f00578284604051918291602083016020845282518091526020604085019301915b818110610ed2575050500390f35b825180516001600160a01b031685526020908101518186015286955060409094019390920191600101610ec4565b80610f0c600192612b88565b838060a01b0391549060031b1c16610f2382612b88565b848060a01b0391549060031b1c1686526004602052604086205460405191610f4a83612a9b565b82526020820152610f5b828661311c565b52610f66818561311c565b5001610e9e565b602090604051610f7c81612a9b565b868152868382015282828701015201610e93565b50346101b05760603660031901126101b0576004356001600160401b03811161078057610fc1903690600401612e3a565b602435916044356001600160401b03811161078057610fe4903690600401612e3a565b91610ff960018060a01b0383541633146130af565b8051156116db57805183510361168857838252600860205260ff600360408420015416611637578382526008602052836040832055838252600860205260016040832001815190600160401b82116116235780548282558083106115ad575b5083526020808420849184015b8383106114a157505050508382526008602052816002604082200155838252600860205260036040832001600160ff198254161790558382526008602052426004604084200155815b81518110156111fb576110c1818561311c565b5185845260086020526110e4600560408620016110de848661311c565b51612cbd565b815190916001600160401b0382116111e7576111008354612bb9565b601f81116111ac575b50602090601f8311600114611145579180611131926001969594899261113a575b505061323b565b90555b016110ae565b01519050388061112a565b8387528187209190601f198416885b81811061119457509160019695949291838895931061117b575b505050811b019055611134565b015160001960f88460031b161c1916905538808061116e565b92936020600181928786015181550195019301611154565b6111d79084885260208820601f850160051c810191602086106111dd575b601f0160051c01906130f8565b38611109565b90915081906111ca565b634e487b7160e01b86526041600452602486fd5b508380600955825b825181101561145557611216818461311c565b516040519060ff60018251936020818186019661123481838a612b40565b810160078152030190200154166114065760ff6001604051602081855161125c81838a612b40565b81016007815203019020015460081c166113c65783600461132060208995604051865161128a818385612b40565b810190600782528381429303019020556001604051838189516112ae818388612b40565b8101600781520301902001600160ff198254161790556001604051838189516112d8818388612b40565b810160078152030190200161ff00198154169055600554600360405184818a51611303818389612b40565b810160078152030190200155604051809381928851928391612b40565b8101600781520301902001557f1a6063ea5a85373503082e9047ebbde10c2ef86a0029b81921668e4a2ea190e36040518061135c428583612ff7565b0390a181546001600160a01b0316803b1561077c5760405163b2be4d6560e01b815260206004820152918391839182908490829061139e906024830190612b63565b03925af16113b1575b5050600101611203565b816113bb91612ab6565b610c325783856113a7565b60405162461bcd60e51b815260206004820152601860248201527714d85b5c1b1948185b1c9958591e48199a5b985b1a5e995960421b6044820152606490fd5b60405162461bcd60e51b815260206004820152602160248201527f53616d706c6520616c726561647920686173206163746976652073657373696f6044820152603760f91b6064820152608490fd5b50907f915b7f3f33ca682a46c0a82bcae59307624896b80801e6ea2c6e702a10499ece916114956040519283928352606060208401526060830190612cff565b4260408301520390a180f35b80518051906001600160401b038211611599576114be8454612bb9565b601f8111611569575b50602090601f831160011461150057926114f1836001959460209487968d9261113a57505061323b565b85555b01920192019190611065565b8489528189209190601f1984168a5b8181106115515750936020936001969387969383889510611538575b505050811b0185556114f4565b015160001960f88460031b161c1916905538808061152b565b9293602060018192878601518155019501930161150f565b61159390858a5260208a20601f850160051c810191602086106111dd57601f0160051c01906130f8565b386114c7565b634e487b7160e01b88526041600452602488fd5b818552826020862091820191015b8181106115c85750611058565b806115d560019254612bb9565b806115e2575b50016115bb565b601f811183146115f757508681555b386115db565b8188526020882061161291601f0160051c81019084016130f8565b8087528660208120818355556115f1565b634e487b7160e01b84526041600452602484fd5b60405162461bcd60e51b815260206004820152602360248201527f426174636820616c72656164792061637469766520666f72207468697320726f6044820152621d5b9960ea1b6064820152608490fd5b60405162461bcd60e51b815260206004820152602560248201527f53616d706c652049447320616e6420686173686573206c656e677468206d69736044820152640dac2e8c6d60db1b6064820152608490fd5b60405162461bcd60e51b815260206004820152601260248201527108adae0e8f240e6c2dae0d8ca40c4c2e8c6d60731b6044820152606490fd5b50346101b05760a03660031901126101b0576004356001600160401b03811161078057611746903690600401612e3a565b6024356001600160401b03811161077c57611765903690600401612eb8565b91604435906001600160401b0382116101b0576117ba6117d66117c86117a087876117933660048a01612e3a565b60843592606435926134eb565b93959260409591955197889760a0895260a0890190612cff565b908782036020890152612cff565b908582036040870152612cff565b91606084015260808301520390f35b50346101b05760603660031901126101b0576024356001600160401b03811161078057611816903690600401612e3a565b6044356001600160401b03811161077c57611835903690600401612eb8565b916118438251845114613422565b80805b835182101561189757611859828661311c565b51156118735761186a6001916130a0565b915b0190611846565b908351611883575b60019061186c565b9161188f6001916130a0565b92905061187b565b83518381151586816118e0575b6118d49192604051958695600435875260208701526040860152606085015260c0608085015260c0840190612cff565b90151560a08301520390f35b84151591506118a4565b50346101b057806003193601126101b0576020600254604051908152f35b50346101b05760603660031901126101b0576004356001600160401b03811161078057611939903690600401612e3a565b6024356001600160401b03811161077c57611958903690600401612e3a565b6044356001600160a01b0381169190829003610c325761198260018060a01b0385541633146130af565b8251815103611d3157825115611cfe578184526004602052604084205415611cc2578392845b8151811015611bab576119bb818361311c565b51866119c7838661311c565b516040516119e760ff6001865193602081818a019661037681838a612b40565b611a0160ff600160405160208189516103a181838a612b40565b611a1c60ff6040600581516020818a516103d281838b612b40565b8415611b70575b9183918893611a3460019796613c11565b611b5b57600080516020614640833981519152939291611b4591611a956040516020818851611a64818388612b40565b8101600681520301902060405190611a7b82612a6a565b8982528460208301528b604083015242606083015261324e565b6040600581516020818951611aab818389612b40565b8101600781520301902001600090898252602052208960ff19825416179055611af360066040516020818951611ae2818389612b40565b810160078152030190200183612cbd565b611afd81546130a0565b90558684526004602052611b2b61054660076105366020604089205495604051809381928d51928391612b40565b90556104ad60405194859450608085526080850190612b63565b8660408301524260608301520390a25b016119a8565b505050611b6b915061056761320e565b611b55565b9750918691600194936004611b9260208c604051809381928951928391612b40565b8101600781520301902001549991935091939450611a23565b858580151580611cb3575b611bbe575080f35b81526008602052611bd46001604083200161303b565b90805b82518110156106a05780611bed6001928561311c565b5160405160ff8483519260208181870195611c09818389612b40565b810160078152030190200154169081611c80575b50611c2a575b5001611bd7565b611c338161414a565b805115611c6e5760008051602061462083398151915291611c5561063c6133f3565b611c6460405192839283613013565b0390a15b84611c23565b50611c7b906105676133bb565b611c68565b60ff9150611c9c60208692604051809381928851928391612b40565b81016007815203019020015460081c161586611c1d565b50611cbd816140a3565b611bb6565b60405162461bcd60e51b8152602060048201526014602482015273159bdd195c881b9bdd081c9959da5cdd195c995960621b6044820152606490fd5b60405162461bcd60e51b815260206004820152600b60248201526a08adae0e8f240c4c2e8c6d60ab1b6044820152606490fd5b60405162461bcd60e51b81526020600482015260116024820152704d69736d6174636865642061727261797360781b6044820152606490fd5b50346101b057806003193601126101b0576020600954604051908152f35b50346101b057806003193601126101b05760406009549182815260086020522090610b6e60ff6003840154169260018101611dc9600282549301549161303b565b916040519586958652151560208601526040850152606084015260a0608084015260a0830190612cff565b50346101b05760203660031901126101b0576004356001600160401b038111610780576020610210611e2a923690600401612af4565b810160068152030190208054611e3f81612d58565b90611e4d6040519283612ab6565b80825260208201809385526020852085915b838310611efb57868587604051928392602084019060208552518091526040840160408260051b8601019392905b828210611e9c57505050500390f35b919360019193955060208091603f19898203018552875190848060a01b038251168152606080611ed9858501516080878601526080850190612b63565b9360408101511515604085015201519101529601920192018594939192611e8d565b60046020600192604051611f0e81612a6a565b848060a01b038654168152611f24858701612bf3565b8382015260ff6002870154161515604082015260038601546060820152815201920192019190611e5f565b50346101b05760203660031901126101b057600435906001600160401b0382116101b057611f8560206102103660048601612af4565b810160078152030190208054610b6e611fa5600260018501549401612bf3565b60ff60405194859485528181161515602086015260081c1615156040840152608060608401526080830190612b63565b50346101b05760403660031901126101b0576004356001600160401b03811161078057612006903690600401612d6f565b6024356001600160401b03811161077c57612025903690600401612ddd565b61203960018060a01b0384541633146130af565b81518151036121a757825b60055481101561207b578061205a600192612b88565b838060a01b0391549060031b1c168552600460205284604081205501612044565b5090600554836005558061216f575b50825b815181101561216b576120a0818461311c565b5115612126576120b0818461311c565b516001600160a01b036120c3838561311c565b51168552600460205260408520556001600160a01b036120e3828461311c565b5116600554600160401b8110156111e7579061210782600180959401600555612b88565b819291549060031b91821b91858060a01b03901b19161790550161208d565b60405162461bcd60e51b815260206004820152601d60248201527f576569676874206d7573742062652067726561746572207468616e20300000006044820152606490fd5b8380f35b600584526121a1907f036b6384b5eca791c62761152d0c79bb0604c104a5fb6f4eb0703f3154bb3db0908101906130f8565b3861208a565b60405162461bcd60e51b81526020600482015260126024820152714d69736d617463686564206c656e6774687360701b6044820152606490fd5b50346101b05760203660031901126101b0576004356001600160401b038111610780576020610210612217923690600401612af4565b81016007815203019020908060025480151580612336575b80612324575b6122ff575b50819260055460058201945b8181106122b257505060ff9350600181015492815492612299612270600260038601549501612bf3565b6040519787818a99161515895260081c161515602088015260e0604088015260e0870190612b63565b936060860152608085015260a084015260c08301520390f35b60ff60406122bf83612b88565b905460039190911b1c6001600160a01b0316600090815260208990522054166122eb575b600101612246565b936122f76001916130a0565b9490506122e3565b61230a908454613093565b8042101561223a5761231e91504290612f53565b3861223a565b5060ff600185015460081c1615612235565b5060ff60018501541661222f565b50346101b05760203660031901126101b05761237260016040610b6e9360043581526008602052200161303b565b604051918291602083526020830190612cff565b50346101b05760403660031901126101b0576004356001600160401b038111610780576123b7903690600401612af4565b6123d36020602435928160405193828580945193849201612b40565b81016006815203019020805482101561077c576123f09250612ce3565b5080546001600160a01b031661240860018301612bf3565b91600360ff6002830154169101546124326040519485948552608060208601526080850190612b63565b911515604084015260608301520390f35b50346101b05760403660031901126101b0576004356001600160401b03811161078057612474903690600401612af4565b906024356001600160401b03811161078057612494903690600401612af4565b3033036125495781546001600160a01b031692833b1561077c5782604051809563160c220d60e31b82528183816124cf888860048401613013565b03925af1612534575b825492935083926001600160a01b031691823b1561252f57612513928492836040518096819582946314faf32d60e11b845260048401613013565b03925af161251e5750f35b8161252891612ab6565b6101b05780f35b505050fd5b9190928161254191612ab6565b9082906124d8565b60405162461bcd60e51b8152602060048201526012602482015271496e7465726e616c2063616c6c206f6e6c7960701b6044820152606490fd5b50346101b057806003193601126101b0576040519080600354906125a682612bb9565b808552916001811690811561263f57506001146125e2575b610b6e846125ce81860382612ab6565b604051918291602083526020830190612b63565b600381527fc2575a0e9e593c00f959f8c92f12db2869c3395a3b0502d05e2516446f71f85b939250905b808210612625575090915081016020016125ce826125be565b91926001816020925483858801015201910190929161260c565b60ff191660208087019190915292151560051b850190920192506125ce91508390506125be565b50346101b05760203660031901126101b057600435906005548210156101b057602061269183612b88565b905460405160039290921b1c6001600160a01b03168152f35b50346101b05760203660031901126101b057600435906001600160401b0382116101b057610b6e6125ce60026126e860206102103660048901612af4565b8101600781520301902001612bf3565b50346101b05760203660031901126101b0576004356001600160a01b03811690819003610780578160409160209352600483522054604051908152f35b50346101b05760403660031901126101b0576004356001600160401b03811161078057612766903690600401612af4565b602435906001600160a01b038216820361077c5760209260ff92600561279b8660409581875193828580945193849201612b40565b6007908201908152030190206001600160a01b0390921683520184522054604051911615158152f35b50346101b05760203660031901126101b0576004356001600160401b038111610780576127f5903690600401612af4565b61285660ff6001612840602060405161282f85858951938581818d019661281d81838a612b40565b81016007815203019020015416612f76565b604051809381928951928391612b40565b81016007815203019020015460081c1615612fb7565b61285f81613c11565b156128e9576128e37ffe2a617c3a0856bbd203e77cee3d518a00f599c8a955224e80b1d0a1afd95703916128d560405161289a606082612ab6565b602281527f54696d656f75742072656163686564202d2065787465726e616c20747269676760208201526132b960f11b604082015282613c4b565b604051918291429083612ff7565b0390a180f35b60405162461bcd60e51b8152602060048201526017602482015276151a5b595bdd5d081b9bdd081c995858da1959081e595d604a1b6044820152606490fd5b50346101b05760203660031901126101b057604060a091600435815260086020522060ff600382015416906001810154906002810154600461296a8285612f53565b9201549260405194151585526020850152604084015260608301526080820152f35b50346101b05760203660031901126101b057600435906001600160401b0382116101b05760206107bf6129c23660048601612af4565b613c11565b50346101b05760203660031901126101b057600435906001600160401b0382116101b05760206129fa3660048501612af4565b60405160ff6001835192858181870195612a15818389612b40565b810160078152030190200154169182612a35575b50506040519015158152f35b60ff925083600192612a5292604051938492839251928391612b40565b81016007815203019020015460081c16158280612a29565b608081019081106001600160401b03821117612a8557604052565b634e487b7160e01b600052604160045260246000fd5b604081019081106001600160401b03821117612a8557604052565b601f909101601f19168101906001600160401b03821190821017612a8557604052565b6001600160401b038111612a8557601f01601f191660200190565b81601f82011215612b3b57803590612b0b82612ad9565b92612b196040519485612ab6565b82845260208383010111612b3b57816000926020809301838601378301015290565b600080fd5b60005b838110612b535750506000910152565b8181015183820152602001612b43565b90602091612b7c81518092818552858086019101612b40565b601f01601f1916010190565b600554811015612ba357600560005260206000200190600090565b634e487b7160e01b600052603260045260246000fd5b90600182811c92168015612be9575b6020831014612bd357565b634e487b7160e01b600052602260045260246000fd5b91607f1691612bc8565b9060405191826000825492612c0784612bb9565b8084529360018116908115612c755750600114612c2e575b50612c2c92500383612ab6565b565b90506000929192526020600020906000915b818310612c59575050906020612c2c9282010138612c1f565b6020919350806001915483858901015201910190918492612c40565b905060209250612c2c94915060ff191682840152151560051b82010138612c1f565b6020612cb0918160405193828580945193849201612b40565b8101600781520301902090565b602090612cd7928260405194838680955193849201612b40565b82019081520301902090565b8054821015612ba35760005260206000209060021b0190600090565b9080602083519182815201916020808360051b8301019401926000915b838310612d2b57505050505090565b9091929394602080612d49600193601f198682030187528951612b63565b97019301930191939290612d1c565b6001600160401b038111612a855760051b60200190565b9080601f83011215612b3b57813590612d8782612d58565b92612d956040519485612ab6565b82845260208085019360051b820101918211612b3b57602001915b818310612dbd5750505090565b82356001600160a01b0381168103612b3b57815260209283019201612db0565b9080601f83011215612b3b578135612df481612d58565b92612e026040519485612ab6565b81845260208085019260051b820101928311612b3b57602001905b828210612e2a5750505090565b8135815260209182019101612e1d565b9080601f83011215612b3b578135612e5181612d58565b92612e5f6040519485612ab6565b81845260208085019260051b82010191838311612b3b5760208201905b838210612e8b57505050505090565b81356001600160401b038111612b3b57602091612ead87848094880101612af4565b815201910190612e7c565b9080601f83011215612b3b57813590612ed082612d58565b92612ede6040519485612ab6565b82845260208085019360051b820101918211612b3b57602001915b818310612f065750505090565b82358015158103612b3b57815260209283019201612ef9565b906020808351928381520192019060005b818110612f3d5750505090565b8251845260209384019390920191600101612f30565b91908203918211612f6057565b634e487b7160e01b600052601160045260246000fd5b15612f7d57565b60405162461bcd60e51b815260206004820152601260248201527153657373696f6e206e6f742061637469766560701b6044820152606490fd5b15612fbe57565b60405162461bcd60e51b8152602060048201526011602482015270105b1c9958591e48199a5b985b1a5e9959607a1b6044820152606490fd5b92919061300e602091604086526040860190612b63565b930152565b909161302a61303893604084526040840190612b63565b916020818403910152612b63565b90565b90815461304781612d58565b926130556040519485612ab6565b818452602084019060005260206000206000915b8383106130765750505050565b60016020819261308585612bf3565b815201920192019190613069565b91908201809211612f6057565b6000198114612f605760010190565b156130b657565b60405162461bcd60e51b815260206004820152601a60248201527913db9b1e481b585a5b881c1c9bda9958dd0818d85b8818d85b1b60321b6044820152606490fd5b818110613103575050565b600081556001016130f8565b805115612ba35760200190565b8051821015612ba35760209160051b010190565b1561313757565b60405162461bcd60e51b8152602060048201526019602482015278566f74696e672073657373696f6e206e6f742061637469766560381b6044820152606490fd5b1561317f57565b606460405162461bcd60e51b815260206004820152602060248201527f566f74696e672073657373696f6e20616c72656164792066696e616c697a65646044820152fd5b156131ca57565b60405162461bcd60e51b815260206004820152601c60248201527b416c726561647920766f746564206f6e20746869732073616d706c6560201b6044820152606490fd5b6040519061321d604083612ab6565b600f82526e151a5b595bdd5d081c995858da1959608a1b6020830152565b8160011b916000199060031b1c19161790565b8054600160401b811015612a855761326b91600182018155612ce3565b9190916133a557805182546001600160a01b0319166001600160a01b03919091161782556020810151805160018401916001600160401b038211612a85576132b38354612bb9565b601f8111613373575b50602090601f8311600114613307578260039593606095936132e69360009261113a57505061323b565b90555b600284016040820151151560ff801983541691161790550151910155565b90601f1983169184600052816000209260005b81811061335b5750926001928592600398966060989610613343575b505050811b0190556132e9565b015160001983891b60f8161c19169055388080613336565b9293602060018192878601518155019501930161331a565b61339f90846000526020600020601f850160051c810191602086106111dd57601f0160051c01906130f8565b386132bc565b634e487b7160e01b600052600060045260246000fd5b604051906133ca604083612ab6565b601a825279082d8d840ecdee8cae4e640c6dedae0d8cae8cac840c4c2e8c6d60331b6020830152565b60405190613402604083612ab6565b601182527010dbdb9cd95b9cdd5cc81c995858da1959607a1b6020830152565b1561342957565b60405162461bcd60e51b815260206004820152600f60248201526e098cadccee8d040dad2e6dac2e8c6d608b1b6044820152606490fd5b6040519061346f602083612ab6565b600080835282815b82811061348357505050565b806060602080938501015201613477565b9061349e82612d58565b6134ab6040519182612ab6565b82815280926134bc601f1991612d58565b019060005b8281106134cd57505050565b8060606020809385010152016134c1565b51908115158203612b3b57565b929390946134fc8451875114613422565b60009360005b815181101561353757613515818961311c565b51613523575b600101613502565b9461352f6001916130a0565b95905061351b565b5091939490929480156137ea5761354d90613494565b9360009360005b84518110156135aa57613567818a61311c565b51613575575b600101613554565b946135a2600191613586888861311c565b51613591828b61311c565b5261359c818a61311c565b506130a0565b95905061356d565b5095925093925094506135bd8251613494565b94836000526008602052604060002093600560009501945b845181101561368a57806135eb6001928761311c565b516135fe6135f98983612cbd565b612bf3565b8051909190156136265750613613828b61311c565b5261361e818a61311c565b505b016135d5565b905061366f603060405180936f029b0b6b83632903230ba30903337b9160851b602083015261365e8151809260208686019101612b40565b81010301601f198101835282612ab6565b613679828b61311c565b52613684818a61311c565b50613620565b509290935093909360009381516136a4575b509493929190565b6136d4856136b18461310f565b51604051809381926379c4ab1560e01b8352602060048401526024830190612b63565b0381305afa9081156137df57869187918891613736575b508161372d575b506136fe575b5061369c565b61370b9095929542612f53565b9080821061371e5750505b9238806136f8565b6137289250612f53565b613716565b905015386136f2565b925050503d8087833e6137498183612ab6565b8101906080818303126137db578051613764602083016134de565b92613771604084016134de565b606084015190936001600160401b0382116137d3570181601f820112156137d75780519161379e83612ad9565b906137ac6040519283612ab6565b838252602084840101116137d357906020806137cb9493019101612b40565b9190386136eb565b8a80fd5b8980fd5b8680fd5b6040513d88823e3d90fd5b505050915091506137f9613460565b90613802613460565b9261380b613460565b9293929160009190565b9061381f82612d58565b61382c6040519182612ab6565b828152809261383d601f1991612d58565b0190602036910137565b6040518151906020818185019361385f818387612b40565b8101600681520301902091825461387581612d58565b936138836040519586612ab6565b818552602085019060005260206000206000915b838310613a4757505050506138ba91602091604051938492839251928391612b40565b8101600781520301902090805115613a06576138d68151613494565b90600093845b82518110156139685760206138f1828561311c565b510151600060208201815b898110613939575b505015613915575b506001016138dc565b8661393291613927600194998861311c565b5261359c818761311c565b959061390c565b613943818961311c565b5160208151910120845183201461395c576001016138fc565b50505060013880613904565b50919293905061397781613494565b9061398181613815565b9461398b82613815565b94600782019160060160005b8481106139a8575050505050929190565b806139b56001928561311c565b516139c0828961311c565b526139cb818861311c565b506139da836110de838761311c565b546139e5828c61311c565b526139f4856110de838761311c565b546139ff828b61311c565b5201613997565b5050613a10613460565b60405191602091613a218385612ab6565b60008452600036813760405192613a388185612ab6565b60008452506000368137929190565b60046020600192604051613a5a81612a6a565b848060a01b038654168152613a70858701612bf3565b8382015260ff6002870154161515604082015260038601546060820152815201920192019190613897565b60405190613aaa604083612ab6565b600782526631b932b0ba37b960c91b6020830152565b60405190613acf604083612ab6565b600b82526a31b7b73a3934b13aba37b960a91b6020830152565b60405190613af8604083612ab6565b600b82526a31b7b7b93234b730ba37b960a91b6020830152565b60405190613b21604083612ab6565b600c82526b4e4f5f434f4e53454e53555360a01b6020830152565b60405190613b4b604083612ab6565b60088252674e4f5f564f54455360c01b6020830152565b60405160ff600183519260208181870195613b7e818389612b40565b81016007815203019020015460081c1615613bd05760026126e86020613baf93604051809381928851928391612b40565b80518015908115613bf4575b508015613bd7575b613bd057613038916142fb565b5050600090565b5080516020820120613be7613b3c565b6020815191012014613bc3565b90506020820120613c03613b12565b602081519101201438613bbb565b6002548015613bd057613c366020613c46938160405193828580945193849201612b40565b8101600781520301902054613093565b421190565b906000604051613c6d60ff6001865193602081818a019661281d81838a612b40565b613c8760ff6001604051602081895161284081838a612b40565b60016040516020818751613c9c818388612b40565b810160078152030190200160ff19815416905560016040516020818751613cc4818388612b40565b810160078152030190200161010061ff0019825416179055613ce584614483565b9260026040516020818851613cfb818389612b40565b8101600781520301902001845160018060401b03811161408f57613d1f8254612bb9565b601f811161405f575b506020601f8211600114613fe357613dd8613dec94602094613d658560049996600080516020614600833981519152968c91613fd8575b5061323b565b90555b7f8a0cc662156da5580404150064cc81955de64ef5a8090364795edcbac842999160405180613d998d429083612ff7565b0390a160405191829160808352613dc4613db78d6080860190612b63565b848103898601528c612b63565b904260408501528382036060850152612b63565b0390a1604051809381928951928391612b40565b81016007815203019020015480151580613fbf575b613e9c575b50303b156101b057604051632e4bca8f60e11b815290808280613e2d868860048401613013565b038183305af19182613e8c575b5050613e44575050565b7fdabbbde127ef4ac1b0a84891a674bfc7b3ceff8d1e7350abd0f7c48021420d3291613e816104ad92604051938493606085526060850190612b63565b4260408301520390a1565b81613e9691612ab6565b38613e3a565b808252600860205260026040832001613eb581546130a0565b905580825260086020527f145f86831bf675d553efc81172882ecdb1776f5bdfa7f1b8367ad08b57888740613f0160016040852001548385526008602052600260408620015490612f53565b604051809184825260806020830152613f2e613f20608084018a612b63565b838103604085015288612b63565b9060608301520390a1808252600860205260026040832001548183526008602052600160408420015411613e06576060817fcdf3a25ac86d8c6a422a8356f0fb7d6cc09b23caca39fd699cbc6038e558736492845260086020526003604085200160ff198154169055808452600860205260026040852001546040519182526020820152426040820152a138613e06565b50808252600860205260ff600360408420015416613e01565b90508c015138613d5f565b82865280862090601f198316875b81811061404757509460209460018560008051602061460083398151915295613dd89560049b98613dec9b1061402e575b5050811b019055613d68565b8d015160001960f88460031b161c191690553880614022565b9192602060018192868d015181550194019201613ff1565b6140899083875260208720601f840160051c810191602085106111dd57601f0160051c01906130f8565b38613d28565b634e487b7160e01b85526041600452602485fd5b60005260086020526140bb600160406000200161303b565b805115614144576005546000915b8183106140d857505050600190565b6140e183612b88565b905460039190911b1c6001600160a01b03169160005b82518110156141375760ff6040600561411361058c858861311c565b016000908782526020522054161561412d576001016140f7565b5050505050600090565b50915091600101916140c9565b50600090565b60609160405160208184516141628183858901612b40565b8101600681520301902080549061417882612d58565b946141866040519687612ab6565b82865260208601916000526020600020906000925b8484106142a8575050505050825115614297576141b88351613494565b90600090815b855181101561423f5760206141d3828861311c565b510151600060208201815b868110614210575b5050156141f7575b506001016141be565b8361420991613927600194968861311c565b92906141ee565b61421a818961311c565b51602081519101208451832014614233576001016141de565b505050600138806141e6565b5093509160005b838110614266575050505060405161425f602082612ab6565b6000815290565b61427a614273828561311c565b51836142fb565b61428657600101614246565b919050614293925061311c565b5190565b91505060405161425f602082612ab6565b600460206001926040516142bb81612a6a565b848060a01b0387541681526142d1858801612bf3565b8382015260ff6002880154161515604082015260038701548682015281520193019301929161419b565b6020614317919392938160405193828580945193849201612b40565b81016006815203019020805461432c81612d58565b9161433a6040519384612ab6565b818352602083019060005260206000206000915b83831061442f57505050508051156144285760009081825b82518110156143cd57602061437b828561311c565b51015160208151910120865160208801201461439a575b600101614366565b906143a4906130a0565b9060406143b1828561311c565b5101511561439257926143c56001916130a0565b939050614392565b50909192935080156144205782146143e6575050600090565b51606482029180830460641490151715612f6057801561440a576001549104101590565b634e487b7160e01b600052601260045260246000fd5b505050600090565b5060009150565b6004602060019260405161444281612a6a565b848060a01b038654168152614458858701612bf3565b8382015260ff600287015416151560408201526003860154606082015281520192019201919061434e565b6060906040518151906020818185019361449e818387612b40565b810160068152030190208054906144b482612d58565b946144c26040519687612ab6565b82865260208601916000526020600020906000925b8484106145ac5750505050508251156145a157602061450491600793604051938492839251928391612b40565b8101848152030190200160209260405161451f602082612ab6565b600081529260009160005b825181101561458457604061453f828561311c565b51015161454f575b60010161452a565b8661455a828561311c565b5101516145678682612cbd565b54858111614577575b5050614547565b9096509350600138614570565b509450505050805115156000146145985790565b50613038613b12565b505050613038613b3c565b600460206001926040516145bf81612a6a565b848060a01b0387541681526145d5858801612bf3565b8382015260ff600288015416151560408201526003870154868201528152019301930192916144d756fea8e1279888c174a6fbf4fd42a8be4469b313be30a5edac87aff45c5f8a450deb0cc62c8b09788a11d11e96187c34c67fad5e9651cadc6ace24e1518490bed9812579d0860b48f37c239a6db657bad6560c277bbce0a8a989d70227407fc62e06a26469706673582212203c58c01e4f0227d73e5d43717e061b360f065c89f829e0ce8f690afc753d2c2664736f6c634300081c0033",
  "linkReferences": {},
  "deployedLinkReferences": {}
}