{
  "_format": "hh-sol-artifact-1",
  "contractName": "ALProjectLinker",
  "sourceName": "contracts/ALProjectLinker.sol",
  "abi": [
    {
      "anonymous": false,
      "inputs": [
        {
          "indexed": true,
          "internalType": "address",
          "name": "baseProject",
          "type": "address"
        },
        {
          "indexed": true,
          "internalType": "address",
          "name": "alProject",
          "type": "address"
        }
      ],
      "name": "ALExtensionLinked",
      "type": "event"
    },
    {
      "anonymous": false,
      "inputs": [
        {
          "indexed": true,
          "internalType": "address",
          "name": "baseProject",
          "type": "address"
        },
        {
          "indexed": true,
          "internalType": "address",
          "name": "alProject",
          "type": "address"
        },
        {
          "indexed": false,
          "internalType": "address",
          "name": "votingContract",
          "type": "address"
        },
        {
          "indexed": false,
          "internalType": "address",
          "name": "storageContract",
          "type": "address"
        }
      ],
      "name": "ALProjectLinked",
      "type": "event"
    },
    {
      "anonymous": false,
      "inputs": [
        {
          "indexed": true,
          "internalType": "address",
          "name": "alProject",
          "type": "address"
        }
      ],
      "name": "ALProjectSetupCompleted",
      "type": "event"
    },
    {
      "anonymous": false,
      "inputs": [
        {
          "indexed": true,
          "internalType": "address",
          "name": "alProject",
          "type": "address"
        }
      ],
      "name": "ALProjectSetupStarted",
      "type": "event"
    },
    {
      "anonymous": false,
      "inputs": [
        {
          "indexed": true,
          "internalType": "address",
          "name": "baseProject",
          "type": "address"
        },
        {
          "indexed": false,
          "internalType": "string",
          "name": "rocrateHash",
          "type": "string"
        }
      ],
      "name": "ROCrateHashUpdated",
      "type": "event"
    },
    {
      "inputs": [
        {
          "internalType": "address",
          "name": "baseProject",
          "type": "address"
        },
        {
          "internalType": "address",
          "name": "alProject",
          "type": "address"
        },
        {
          "internalType": "address",
          "name": "votingContract",
          "type": "address"
        },
        {
          "internalType": "address",
          "name": "storageContract",
          "type": "address"
        },
        {
          "internalType": "string",
          "name": "queryStrategy",
          "type": "string"
        },
        {
          "internalType": "string",
          "name": "alScenario",
          "type": "string"
        },
        {
          "internalType": "uint256",
          "name": "maxIteration",
          "type": "uint256"
        },
        {
          "internalType": "uint256",
          "name": "queryBatchSize",
          "type": "uint256"
        },
        {
          "internalType": "string[]",
          "name": "labelSpace",
          "type": "string[]"
        },
        {
          "internalType": "string",
          "name": "rocrateHash",
          "type": "string"
        }
      ],
      "name": "linkALProject",
      "outputs": [],
      "stateMutability": "nonpayable",
      "type": "function"
    },
    {
      "inputs": [
        {
          "internalType": "address",
          "name": "alProject",
          "type": "address"
        },
        {
          "internalType": "address",
          "name": "votingContract",
          "type": "address"
        },
        {
          "internalType": "address",
          "name": "storageContract",
          "type": "address"
        },
        {
          "internalType": "string",
          "name": "queryStrategy",
          "type": "string"
        },
        {
          "internalType": "string",
          "name": "alScenario",
          "type": "string"
        },
        {
          "internalType": "uint256",
          "name": "maxIteration",
          "type": "uint256"
        },
        {
          "internalType": "uint256",
          "name": "queryBatchSize",
          "type": "uint256"
        },
        {
          "internalType": "string[]",
          "name": "labelSpace",
          "type": "string[]"
        }
      ],
      "name": "setupALProjectOnly",
      "outputs": [],
      "stateMutability": "nonpayable",
      "type": "function"
    }
  ],
  "bytecode": "0x608080604052346015576106f7908161001b8239f35b600080fdfe608080604052600436101561001357600080fd5b600090813560e01c90816337c7b18f14610374575063d48498081461003757600080fd5b3461037157610140366003190112610371576100516104fe565b610059610519565b9061006261052f565b916064356001600160a01b0381169081900361036f576084356001600160401b03811161036757610097903690600401610545565b90949091908660a4356001600160401b03811161034e576100bc903690600401610545565b610104356001600160401b03811161036b576100dc903690600401610572565b999094610124356001600160401b038111610367576100ff903690600401610545565b96909960018060a01b03169b604051958d6000805160206106a28339815191528980a28d3b1561032a57635bb06c0b60e01b87526001600160a01b0390931660048701819052602487018a90526101006044880152998795879586959261016c91610104880191906105db565b90600319868303016064870152610182926105db565b9060c435608485015260e43560a48501526003198483030160c48501526101a8926105fc565b8181036003190160e48301526101bf90878b6105db565b0381838c5af1801561034357610352575b5060405195876000805160206106828339815191528380a26001600160a01b031695863b1561034e5763562d0a1360e01b8152600481018890528181602481838b5af180156103435761032e575b50506040519086867f70bf1b66310b80fdfdc1137c7437cb575ed9fd7079c1f381418d72f648f948998a80a3853b1561032a5763c4b192f760e01b8252602060048301528780838061027460248201868b6105db565b0381838b5af192831561031d5787936102fa575b5050907f17f18f177e4733548a8c48d0a1520f6799004ee9512a91b676880897ed818d557f9edf188cac833db7cea7f03b6100ef256d6f0e5d95e6af65fc6f5730f6b93e189560409594936102e987519283926020845260208401916105db565b0390a282519182526020820152a380f35b8192959493509061030a916105a2565b61031957909184908738610288565b8680fd5b50604051903d90823e3d90fd5b8780fd5b81610338916105a2565b61031957863861021e565b6040513d84823e3d90fd5b5080fd5b8161035c916105a2565b6103195786386101d0565b8580fd5b8380fd5b845b80fd5b8234610371576101003660031901126103715761038f6104fe565b91610398610519565b926103a161052f565b6064356001600160401b03811161036f576103c0903690600401610545565b906084356001600160401b038111610319576103e0903690600401610545565b909290919060e4356001600160401b0381116104fa57610404903690600401610572565b6001600160a01b0390971699909695908a6000805160206106a28339815191528b80a28a3b156104f657635bb06c0b60e01b89526001600160a01b0390811660048a01521660248801526101006044880152879587956020956104ae959294919361048c93919261047a916101048b01916105db565b8881036003190160648a0152916105db565b9160a435608487015260c43560a48701526003198684030160c48701526105fc565b8383820391600319830160e486015252018183875af18015610343576104e6575b50906000805160206106828339815191528280a280f35b816104f0916105a2565b826104cf565b8980fd5b8880fd5b600435906001600160a01b038216820361051457565b600080fd5b602435906001600160a01b038216820361051457565b604435906001600160a01b038216820361051457565b9181601f84011215610514578235916001600160401b038311610514576020838186019501011161051457565b9181601f84011215610514578235916001600160401b038311610514576020808501948460051b01011161051457565b601f909101601f19168101906001600160401b038211908210176105c557604052565b634e487b7160e01b600052604160045260246000fd5b908060209392818452848401376000828201840152601f01601f1916010190565b90602083828152019060208160051b85010193836000915b8383106106245750505050505090565b909192939495601f198282030186528635601e1984360301811215610514578301602081019190356001600160401b0381116105145780360383136105145761067360209283926001956105db565b98019601949301919061061456fea3013482c0d194acd9164072807c2dfa8c7f2e464809f9abc40e1b08bfa50478403f0915017a90804b68ff7ab6d2c982eefe5a4ea3f39b54934b2d6174301d92a264697066735822122022fcad9e9045a6b0ef78ed7825512029c66ff3c415bb4de517d90a1d168dfdb764736f6c634300081c0033",
  "linkReferences": {},
  "deployedLinkReferences": {}
}