{
  "_format": "hh-sol-artifact-1",
  "contractName": "ALProject",
  "sourceName": "contracts/ALProject.sol",
  "abi": [
    {
      "inputs": [
        {
          "internalType": "address",
          "name": "_baseProject",
          "type": "address"
        },
        {
          "internalType": "string",
          "name": "_projectData",
          "type": "string"
        }
      ],
      "stateMutability": "nonpayable",
      "type": "constructor"
    },
    {
      "anonymous": false,
      "inputs": [
        {
          "indexed": false,
          "internalType": "uint256",
          "name": "round",
          "type": "uint256"
        },
        {
          "indexed": false,
          "internalType": "uint256",
          "name": "completedSamples",
          "type": "uint256"
        },
        {
          "indexed": false,
          "internalType": "uint256",
          "name": "timestamp",
          "type": "uint256"
        }
      ],
      "name": "ALBatchCompleted",
      "type": "event"
    },
    {
      "anonymous": false,
      "inputs": [
        {
          "indexed": false,
          "internalType": "uint256",
          "name": "round",
          "type": "uint256"
        },
        {
          "indexed": false,
          "internalType": "uint256",
          "name": "sampleCount",
          "type": "uint256"
        },
        {
          "indexed": false,
          "internalType": "uint256",
          "name": "timestamp",
          "type": "uint256"
        }
      ],
      "name": "ALBatchStarted",
      "type": "event"
    },
    {
      "anonymous": false,
      "inputs": [
        {
          "indexed": false,
          "internalType": "address",
          "name": "votingContract",
          "type": "address"
        },
        {
          "indexed": false,
          "internalType": "address",
          "name": "storageContract",
          "type": "address"
        }
      ],
      "name": "ALContractsDeployed",
      "type": "event"
    },
    {
      "anonymous": false,
      "inputs": [
        {
          "indexed": false,
          "internalType": "uint256",
          "name": "round",
          "type": "uint256"
        },
        {
          "indexed": false,
          "internalType": "string",
          "name": "reason",
          "type": "string"
        },
        {
          "indexed": false,
          "internalType": "uint256",
          "name": "timestamp",
          "type": "uint256"
        }
      ],
      "name": "ALRoundTriggered",
      "type": "event"
    },
    {
      "anonymous": false,
      "inputs": [
        {
          "indexed": false,
          "internalType": "string",
          "name": "sampleId",
          "type": "string"
        },
        {
          "indexed": false,
          "internalType": "string",
          "name": "label",
          "type": "string"
        },
        {
          "indexed": false,
          "internalType": "uint256",
          "name": "round",
          "type": "uint256"
        },
        {
          "indexed": false,
          "internalType": "uint256",
          "name": "timestamp",
          "type": "uint256"
        }
      ],
      "name": "AutoLabelStored",
      "type": "event"
    },
    {
      "anonymous": false,
      "inputs": [
        {
          "indexed": true,
          "internalType": "address",
          "name": "trigger",
          "type": "address"
        },
        {
          "indexed": false,
          "internalType": "string",
          "name": "reason",
          "type": "string"
        },
        {
          "indexed": false,
          "internalType": "uint256",
          "name": "currentRound",
          "type": "uint256"
        },
        {
          "indexed": false,
          "internalType": "uint256",
          "name": "timestamp",
          "type": "uint256"
        }
      ],
      "name": "ProjectEndTriggered",
      "type": "event"
    },
    {
      "anonymous": false,
      "inputs": [
        {
          "indexed": false,
          "internalType": "uint256",
          "name": "newRound",
          "type": "uint256"
        }
      ],
      "name": "RoundIncremented",
      "type": "event"
    },
    {
      "anonymous": false,
      "inputs": [
        {
          "indexed": false,
          "internalType": "string",
          "name": "sampleId",
          "type": "string"
        },
        {
          "indexed": false,
          "internalType": "address",
          "name": "voter",
          "type": "address"
        },
        {
          "indexed": false,
          "internalType": "string",
          "name": "label",
          "type": "string"
        },
        {
          "indexed": false,
          "internalType": "uint256",
          "name": "timestamp",
          "type": "uint256"
        }
      ],
      "name": "VoteSubmitted",
      "type": "event"
    },
    {
      "anonymous": false,
      "inputs": [
        {
          "indexed": false,
          "internalType": "uint256",
          "name": "round",
          "type": "uint256"
        },
        {
          "indexed": false,
          "internalType": "uint256",
          "name": "voterCount",
          "type": "uint256"
        },
        {
          "indexed": false,
          "internalType": "uint256",
          "name": "timestamp",
          "type": "uint256"
        }
      ],
      "name": "VotersUpdated",
      "type": "event"
    },
    {
      "anonymous": false,
      "inputs": [
        {
          "indexed": false,
          "internalType": "string",
          "name": "sampleId",
          "type": "string"
        },
        {
          "indexed": false,
          "internalType": "string",
          "name": "finalLabel",
          "type": "string"
        },
        {
          "indexed": false,
          "internalType": "uint256",
          "name": "round",
          "type": "uint256"
        },
        {
          "indexed": false,
          "internalType": "uint256",
          "name": "timestamp",
          "type": "uint256"
        }
      ],
      "name": "VotingSessionEnded",
      "type": "event"
    },
    {
      "anonymous": false,
      "inputs": [
        {
          "indexed": false,
          "internalType": "string",
          "name": "sampleId",
          "type": "string"
        },
        {
          "indexed": false,
          "internalType": "uint256",
          "name": "round",
          "type": "uint256"
        },
        {
          "indexed": false,
          "internalType": "uint256",
          "name": "timeout",
          "type": "uint256"
        },
        {
          "indexed": false,
          "internalType": "uint256",
          "name": "timestamp",
          "type": "uint256"
        }
      ],
      "name": "VotingSessionStarted",
      "type": "event"
    },
    {
      "inputs": [],
      "name": "alScenario",
      "outputs": [
        {
          "internalType": "string",
          "name": "",
          "type": "string"
        }
      ],
      "stateMutability": "view",
      "type": "function"
    },
    {
      "inputs": [],
      "name": "baseProject",
      "outputs": [
        {
          "internalType": "address",
          "name": "",
          "type": "address"
        }
      ],
      "stateMutability": "view",
      "type": "function"
    },
    {
      "inputs": [],
      "name": "currentRound",
      "outputs": [
        {
          "internalType": "uint256",
          "name": "",
          "type": "uint256"
        }
      ],
      "stateMutability": "view",
      "type": "function"
    },
    {
      "inputs": [
        {
          "internalType": "uint256",
          "name": "round",
          "type": "uint256"
        }
      ],
      "name": "endBatchVoting",
      "outputs": [],
      "stateMutability": "nonpayable",
      "type": "function"
    },
    {
      "inputs": [],
      "name": "getALConfiguration",
      "outputs": [
        {
          "internalType": "string",
          "name": "_queryStrategy",
          "type": "string"
        },
        {
          "internalType": "string",
          "name": "_alScenario",
          "type": "string"
        },
        {
          "internalType": "uint256",
          "name": "_maxIteration",
          "type": "uint256"
        },
        {
          "internalType": "uint256",
          "name": "_currentRound",
          "type": "uint256"
        },
        {
          "internalType": "uint256",
          "name": "_queryBatchSize",
          "type": "uint256"
        },
        {
          "internalType": "uint256",
          "name": "_votingTimeout",
          "type": "uint256"
        },
        {
          "internalType": "string[]",
          "name": "_labelSpace",
          "type": "string[]"
        }
      ],
      "stateMutability": "view",
      "type": "function"
    },
    {
      "inputs": [],
      "name": "getALProjectMetadata",
      "outputs": [
        {
          "internalType": "string",
          "name": "_title",
          "type": "string"
        },
        {
          "internalType": "string",
          "name": "_description",
          "type": "string"
        },
        {
          "internalType": "address",
          "name": "_owner",
          "type": "address"
        },
        {
          "internalType": "string",
          "name": "_projectType",
          "type": "string"
        },
        {
          "internalType": "string",
          "name": "_rocrateHash",
          "type": "string"
        },
        {
          "internalType": "uint256",
          "name": "_start",
          "type": "uint256"
        },
        {
          "internalType": "uint256",
          "name": "_end",
          "type": "uint256"
        },
        {
          "internalType": "string",
          "name": "_queryStrategy",
          "type": "string"
        },
        {
          "internalType": "string",
          "name": "_alScenario",
          "type": "string"
        },
        {
          "internalType": "uint256",
          "name": "_maxIteration",
          "type": "uint256"
        },
        {
          "internalType": "uint256",
          "name": "_queryBatchSize",
          "type": "uint256"
        },
        {
          "internalType": "string[]",
          "name": "_labelSpace",
          "type": "string[]"
        }
      ],
      "stateMutability": "view",
      "type": "function"
    },
    {
      "inputs": [],
      "name": "getCurrentBatchSampleIds",
      "outputs": [
        {
          "internalType": "string[]",
          "name": "",
          "type": "string[]"
        }
      ],
      "stateMutability": "view",
      "type": "function"
    },
    {
      "inputs": [],
      "name": "hasALContracts",
      "outputs": [
        {
          "internalType": "bool",
          "name": "",
          "type": "bool"
        }
      ],
      "stateMutability": "view",
      "type": "function"
    },
    {
      "inputs": [],
      "name": "incrementRound",
      "outputs": [],
      "stateMutability": "nonpayable",
      "type": "function"
    },
    {
      "inputs": [
        {
          "internalType": "string",
          "name": "sampleId",
          "type": "string"
        }
      ],
      "name": "isSampleActive",
      "outputs": [
        {
          "internalType": "bool",
          "name": "",
          "type": "bool"
        }
      ],
      "stateMutability": "view",
      "type": "function"
    },
    {
      "inputs": [
        {
          "internalType": "uint256",
          "name": "",
          "type": "uint256"
        }
      ],
      "name": "labelSpace",
      "outputs": [
        {
          "internalType": "string",
          "name": "",
          "type": "string"
        }
      ],
      "stateMutability": "view",
      "type": "function"
    },
    {
      "inputs": [],
      "name": "maxIteration",
      "outputs": [
        {
          "internalType": "uint256",
          "name": "",
          "type": "uint256"
        }
      ],
      "stateMutability": "view",
      "type": "function"
    },
    {
      "inputs": [],
      "name": "needsALDeployment",
      "outputs": [
        {
          "internalType": "bool",
          "name": "",
          "type": "bool"
        }
      ],
      "stateMutability": "view",
      "type": "function"
    },
    {
      "inputs": [],
      "name": "notifyUnlabeledSamplesExhausted",
      "outputs": [],
      "stateMutability": "nonpayable",
      "type": "function"
    },
    {
      "inputs": [
        {
          "internalType": "string",
          "name": "sampleId",
          "type": "string"
        },
        {
          "internalType": "string",
          "name": "finalLabel",
          "type": "string"
        }
      ],
      "name": "notifyVotingSessionEnded",
      "outputs": [],
      "stateMutability": "nonpayable",
      "type": "function"
    },
    {
      "inputs": [
        {
          "internalType": "string",
          "name": "sampleId",
          "type": "string"
        }
      ],
      "name": "notifyVotingSessionStarted",
      "outputs": [],
      "stateMutability": "nonpayable",
      "type": "function"
    },
    {
      "inputs": [],
      "name": "queryBatchSize",
      "outputs": [
        {
          "internalType": "uint256",
          "name": "",
          "type": "uint256"
        }
      ],
      "stateMutability": "view",
      "type": "function"
    },
    {
      "inputs": [],
      "name": "queryStrategy",
      "outputs": [
        {
          "internalType": "string",
          "name": "",
          "type": "string"
        }
      ],
      "stateMutability": "view",
      "type": "function"
    },
    {
      "inputs": [
        {
          "internalType": "string",
          "name": "sampleId",
          "type": "string"
        },
        {
          "internalType": "string",
          "name": "label",
          "type": "string"
        }
      ],
      "name": "receiveFinalLabelFromVoting",
      "outputs": [],
      "stateMutability": "nonpayable",
      "type": "function"
    },
    {
      "inputs": [
        {
          "internalType": "address",
          "name": "_votingContract",
          "type": "address"
        },
        {
          "internalType": "address",
          "name": "_storageContract",
          "type": "address"
        },
        {
          "internalType": "string",
          "name": "_queryStrategy",
          "type": "string"
        },
        {
          "internalType": "string",
          "name": "_alScenario",
          "type": "string"
        },
        {
          "internalType": "uint256",
          "name": "_maxIteration",
          "type": "uint256"
        },
        {
          "internalType": "uint256",
          "name": "_queryBatchSize",
          "type": "uint256"
        },
        {
          "internalType": "string[]",
          "name": "_labelSpace",
          "type": "string[]"
        },
        {
          "internalType": "string",
          "name": "_rocrateHash",
          "type": "string"
        }
      ],
      "name": "setupALProject",
      "outputs": [],
      "stateMutability": "nonpayable",
      "type": "function"
    },
    {
      "inputs": [],
      "name": "shouldProjectEnd",
      "outputs": [
        {
          "internalType": "bool",
          "name": "shouldEnd",
          "type": "bool"
        },
        {
          "internalType": "string",
          "name": "reason",
          "type": "string"
        }
      ],
      "stateMutability": "view",
      "type": "function"
    },
    {
      "inputs": [
        {
          "internalType": "string[]",
          "name": "sampleIds",
          "type": "string[]"
        },
        {
          "internalType": "string[]",
          "name": "sampleDataHashes",
          "type": "string[]"
        }
      ],
      "name": "startBatchVoting",
      "outputs": [],
      "stateMutability": "nonpayable",
      "type": "function"
    },
    {
      "inputs": [],
      "name": "storageContract",
      "outputs": [
        {
          "internalType": "address",
          "name": "",
          "type": "address"
        }
      ],
      "stateMutability": "view",
      "type": "function"
    },
    {
      "inputs": [
        {
          "internalType": "string",
          "name": "sampleId",
          "type": "string"
        },
        {
          "internalType": "string",
          "name": "label",
          "type": "string"
        },
        {
          "internalType": "uint256",
          "name": "round",
          "type": "uint256"
        }
      ],
      "name": "storeFinalLabel",
      "outputs": [],
      "stateMutability": "nonpayable",
      "type": "function"
    },
    {
      "inputs": [
        {
          "internalType": "string[]",
          "name": "sampleIds",
          "type": "string[]"
        },
        {
          "internalType": "string[]",
          "name": "labels",
          "type": "string[]"
        }
      ],
      "name": "submitBatchVote",
      "outputs": [],
      "stateMutability": "nonpayable",
      "type": "function"
    },
    {
      "inputs": [
        {
          "internalType": "string",
          "name": "reason",
          "type": "string"
        }
      ],
      "name": "triggerNextRound",
      "outputs": [],
      "stateMutability": "nonpayable",
      "type": "function"
    },
    {
      "inputs": [],
      "name": "unlabeledSamplesExhausted",
      "outputs": [
        {
          "internalType": "bool",
          "name": "",
          "type": "bool"
        }
      ],
      "stateMutability": "view",
      "type": "function"
    },
    {
      "inputs": [],
      "name": "votingContract",
      "outputs": [
        {
          "internalType": "address",
          "name": "",
          "type": "address"
        }
      ],
      "stateMutability": "view",
      "type": "function"
    },
    {
      "inputs": [],
      "name": "votingTimeout",
      "outputs": [
        {
          "internalType": "uint256",
          "name": "",
          "type": "uint256"
        }
      ],
      "stateMutability": "view",
      "type": "function"
    }
  ],
  "bytecode": "0x6080604052346100ea576130a58038038061001981610105565b92833981016040828203126100ea5781516001600160a01b03811692908390036100ea576020810151906001600160401b0382116100ea57019080601f830112156100ea578151916001600160401b0383116100ef57610082601f8401601f1916602001610105565b91838352602084830101116100ea5760005b8381106100d5576000838501602001819052610e10600655600c805460ff1916905580546001600160a01b03191686179055604051612f7a908161012b8239f35b80602080928401015182828601015201610094565b600080fd5b634e487b7160e01b600052604160045260246000fd5b6040519190601f01601f191682016001600160401b038111838210176100ef5760405256fe608080604052600436101561001357600080fd5b600090813560e01c90816311ce026714611e9e575080631633e062146119b557806319b21227146118c257806329f5e65a1461167f578063461e198b146114a65780635bb06c0b14610e905780636ac4e50e14610e195780636c86d12414610df657806372a1c45d14610c6457806377c39c2114610c465780637a83a44b14610c215780637c13f6cf14610be95780637f52cadc14610bcd57806380a8c84914610b465780638a19c8bc14610b28578063a074018414610af8578063a6ea915b146109c6578063b0611068146108f9578063b0942ce5146108db578063b2be4d65146106d8578063b8c3903414610595578063c1fc006a1461056c578063c3a4b41a14610526578063cf3fc0b8146104ff578063d2291e111461047b578063e030832314610419578063e1d5a2c814610369578063eed016be146101805763f1bc33b41461016057600080fd5b3461017d578060031936011261017d576020600654604051908152f35b80fd5b503461017d5761018f36611ff8565b82546040516302d05d3f60e01b815290602090829060049082906001600160a01b03165afa801561035e578490610323575b6101d691506001600160a01b0316331461243e565b6009546001600160a01b0316906101ee821515612369565b8251156102e957600b54600181018091116102d5579081859392600b55610213612920565b823b156102d15761025f9284928360405180968195829463579bdae360e11b845260606004850152610248606485018d612310565b916024850152600319848303016044850152612310565b03925af180156102c6576102ad575b507f24c323b0138f1f608c855cccb8550ac649c15bf3cea39b8fdbde80d33258a74f82600b5490516102a76040519283924291846124fa565b0390a180f35b816102b791611ec3565b6102c257813861026e565b5080fd5b6040513d84823e3d90fd5b8380fd5b634e487b7160e01b85526011600452602485fd5b60405162461bcd60e51b815260206004820152601260248201527108adae0e8f240e6c2dae0d8ca40c4c2e8c6d60731b6044820152606490fd5b506020813d602011610356575b8161033d60209383611ec3565b810103126102d1576103516101d69161242a565b6101c1565b3d9150610330565b6040513d86823e3d90fd5b503461017d578060031936011261017d576009546001600160a01b031633036103e6578060405161039b602082611ec3565b52600b54600181018091116103d257602081600080516020612f0583398151915292600b55604051908152a16103cf612920565b80f35b634e487b7160e01b82526011600452602482fd5b60405162461bcd60e51b815260206004820152600b60248201526a4f6e6c7920766f74696e6760a81b6044820152606490fd5b503461017d57602036600319011261017d57600435906001600160401b03821161017d57602060ff610465826104523660048801611f2e565b81604051938285809451938492016122c8565b8101600881520301902054166040519015158152f35b503461017d578060031936011261017d5760075461049881611efc565b916104a66040519384611ec3565b81835260078152600080516020612ea5833981519152602084015b8383106104e257604051602080825281906104de90820188612310565b0390f35b6001602081926104f185612226565b8152019201920191906104c1565b503461017d578060031936011261017d57546040516001600160a01b039091168152602090f35b503461017d578060031936011261017d576009546001600160a01b0316151580610558575b6020906040519015158152f35b50600a546001600160a01b0316151561054b565b503461017d578060031936011261017d576009546040516001600160a01b039091168152602090f35b503461017d57602036600319011261017d5780546040516302d05d3f60e01b81526004803592602091839182906001600160a01b03165afa80156106cd57839061068e575b6105ef91506001600160a01b0316331461243e565b6009546001600160a01b0316610606811515612369565b600b548203610659578291813b15610655578291602483926040519485938492632e30e40d60e21b845260048401525af180156102c6576106445750f35b8161064e91611ec3565b61017d5780f35b5050fd5b60405162461bcd60e51b815260206004820152600d60248201526c125b9d985b1a59081c9bdd5b99609a1b6044820152606490fd5b506020813d6020116106c5575b816106a860209383611ec3565b810103126106c1576106bc6105ef9161242a565b6105da565b8280fd5b3d915061069b565b6040513d85823e3d90fd5b503461017d57602036600319011261017d576004356001600160401b0381116102c257610709903690600401611f2e565b61071e60018060a01b03600954163314612479565b604051815190602081818501936107368183876122c8565b81016008815203019020600160ff19825416179055828391600754925b838110610814575b5050156107a8575b50610791600080516020612e8583398151915291600b546006546040519384936080855260808501906122eb565b91602084015260408301524260608301520390a180f35b600160401b811015610800578060016107c4920160075561208f565b6107ec57816107e5600080516020612e85833981519152936107919361259c565b9150610763565b634e487b7160e01b83526004839052602483fd5b634e487b7160e01b83526041600452602483fd5b61081d8161208f565b50604051815491818961082f856120c0565b9283835260208301956001811690816000146108bc575060011461087b575b5061085b92500382611ec3565b519020855183201461086f57600101610753565b5050506001388061075b565b8b52505060208920899183915b8184106108a0575050602061085b928201013861084e565b6020919250806001915483868801015201920191908391610888565b60ff191687525061085b93151560051b8301602001915038905061084e565b503461017d578060031936011261017d576020600354604051908152f35b503461017d5761090836612045565b9061091e60018060a01b03600954163314612479565b600a5483906001600160a01b03166109378115156128ab565b600b5490803b156106c15760405163a6ea915b60e01b81529183918391829084908290610969908b8b600485016128f2565b03925af180156102c6576109b1575b50507f503607074d0e95d8c0c6b1660c3441384010e05305da22aef0594eb3fcae6236916102a7600b54926040519384934292856124c5565b816109bb91611ec3565b6106c1578238610978565b503461017d57606036600319011261017d57806004356001600160401b038111610af5576109f8903690600401611f2e565b6024356001600160401b03811161065557610a17903690600401611f2e565b82546040516302d05d3f60e01b815290602090829060049082906001600160a01b03165afa801561035e578490610aba575b610a5e91506001600160a01b0316331461243e565b600a546001600160a01b031691610a768315156128ab565b823b15610ab557610aa49284928360405180968195829463a6ea915b60e01b845260443591600485016128f2565b03925af180156102c6576106445750f35b505050fd5b506020813d602011610aed575b81610ad460209383611ec3565b81010312610ab557610ae8610a5e9161242a565b610a49565b3d9150610ac7565b50fd5b503461017d578060031936011261017d576104de610b146120fa565b6040519182916020835260208301906122eb565b503461017d578060031936011261017d576020600b54604051908152f35b503461017d578060031936011261017d57610b9d6003546104de600b549160045492600654610b736120fa565b94610b7c6121a1565b92610bab610b8861267e565b94604051998a9960e08b5260e08b01906122eb565b9089820360208b01526122eb565b9460408801526060870152608086015260a085015283820360c0850152612310565b503461017d578060031936011261017d576104de610b146121a1565b503461017d578060031936011261017d57610c02612740565b906104de604051928392151583526040602084015260408301906122eb565b503461017d578060031936011261017d576020610c3c6126e1565b6040519015158152f35b503461017d578060031936011261017d576020600454604051908152f35b503461017d578060031936011261017d5780546040516302d05d3f60e01b815290602090829060049082906001600160a01b03165afa9081156102c6578291610dbc575b50600354916004549260209360405193610cc28686611ec3565b83855260405193610cd38786611ec3565b80855260405190610ce48883611ec3565b808252604051610cf48982611ec3565b818152610cff6120fa565b92610d086121a1565b94610d1161267e565b986040519b8c9b6101808d526101808d01610d2b916122eb565b908c8203908d0152610d3c916122eb565b6001600160a01b0390911660408b015289810360608b0152610d5d916122eb565b88810360808a0152610d6e916122eb565b908060a089015260c088015286810360e0880152610d8b916122eb565b858103610100870152610d9d916122eb565b916101208501526101408401528281036101608401526104de91612310565b90506020813d602011610dee575b81610dd760209383611ec3565b810103126102c257610de89061242a565b38610ca8565b3d9150610dca565b503461017d578060031936011261017d57602060ff600c54166040519015158152f35b503461017d57602036600319011261017d576004356005548110156102c257600554811015610e7c5760058252600080516020612e45833981519152019080610e68576104de610b1483612226565b634e487b7160e01b81526004819052602490fd5b634e487b7160e01b82526032600452602482fd5b503461017d5761010036600319011261017d576004356001600160a01b038116908190036102c2576024356001600160a01b038116908190036106c1576044356001600160401b0381116102d157610eec903690600401611f2e565b6064356001600160401b0381116114a257610f0b903690600401611f2e565b60a435906084359060c4356001600160401b03811161149e57610f32903690600401611f7a565b9360e4356001600160401b03811161149a57610f52903690600401611f2e565b88546040516302d05d3f60e01b815290602090829060049082906001600160a01b03165afa801561148f578a90611450575b610f9991506001600160a01b0316331461243e565b87151580611447575b156114055760095490610fbe6001600160a01b03831615612552565b600a5490610fd56001600160a01b03831615612552565b85156113c857861561138e575115611349576001600160a01b03199182168917600955168617600a55611006612b81565b8051906001600160401b038211611335576110226001546120c0565b601f81116112f9575b50602090601f83116001146112945761104e92918a91836111c9575b5050612527565b6001555b8051906001600160401b0382116112805761106e6002546120c0565b601f8111611239575b50602090601f83116001146111d45761109992918991836111c9575050612527565b6002555b600355600455805190600160401b82116111b55760055482600555808310611133575b50600585528490600080516020612e45833981519152906020015b83831061111657867fb009e24dd5f140ab58abb9e6f2187d998561150b7da958ebad23a90e26d7366b6040888882519182526020820152a180f35b60016020826111278394518661259c565b019201920191906110db565b60058652600080516020612e458339815191529081019083015b81811061115a57506110c0565b80611167600192546120c0565b80611174575b500161114d565b601f8111831461118957508781555b3861116d565b818952602089206111a491601f0160051c8101908401612510565b808852876020812081835555611183565b634e487b7160e01b85526041600452602485fd5b015190503880611047565b600289528189209190601f1984168a5b8181106112215750908460019594939210611208575b505050811b0160025561109d565b015160001960f88460031b161c191690553880806111fa565b929360206001819287860151815501950193016111e4565b6002895261127090600080516020612e65833981519152601f850160051c81019160208610611276575b601f0160051c0190612510565b38611077565b9091508190611263565b634e487b7160e01b88526041600452602488fd5b60018a52818a209190601f1984168b5b8181106112e157509084600195949392106112c8575b505050811b01600155611052565b015160001960f88460031b161c191690553880806112ba565b929360206001819287860151815501950193016112a4565b60018a5261132f90600080516020612f25833981519152601f850160051c8101916020861061127657601f0160051c0190612510565b3861102b565b634e487b7160e01b89526041600452602489fd5b60405162461bcd60e51b815260206004820152601d60248201527f524f2d437261746520686173682063616e6e6f7420626520656d7074790000006044820152606490fd5b60405162461bcd60e51b8152602060048201526012602482015271496e76616c69642062617463682073697a6560701b6044820152606490fd5b60405162461bcd60e51b815260206004820152601560248201527424b73b30b634b21036b0bc1034ba32b930ba34b7b760591b6044820152606490fd5b60405162461bcd60e51b815260206004820152601a602482015279496e76616c696420636f6e74726163742061646472657373657360301b6044820152606490fd5b50861515610fa2565b506020813d602011611487575b8161146a60209383611ec3565b810103126114835761147e610f999161242a565b610f84565b8980fd5b3d915061145d565b6040513d8c823e3d90fd5b8880fd5b8780fd5b8480fd5b503461017d57602036600319011261017d576004356001600160401b0381116102c2576114d7903690600401611f2e565b81546040516302d05d3f60e01b81526001600160a01b0390911690602081600481855afa90811561035e57849161163a575b50600491602091611524906001600160a01b0316331461243e565b6040516308bcf8b560e21b815292839182905afa9081156106cd57839161160b575b50156115db57600b5490600182018092116115c757817fbb4ba47257d82c025e976bcdc375cc2e26de94efd111bca20cbc9a330d2974556115af602093600080516020612f0583398151915295600b5560405191829185835260608784015260608301906122eb565b4260408301520390a1604051908152a16103cf612920565b634e487b7160e01b83526011600452602483fd5b60405162461bcd60e51b8152602060048201526008602482015267496e61637469766560c01b6044820152606490fd5b61162d915060203d602011611633575b6116258183611ec3565b81019061253a565b38611546565b503d61161b565b90506020813d602011611677575b8161165560209383611ec3565b810103126102d15760049161152461166e60209361242a565b92505091611509565b3d9150611648565b503461017d576117027f0a1e2f362ccc64de291011914f5087c611557a7331c80f2cdd2aacf89b9dc5646116b236612045565b6116c760018060a01b03600954163314612479565b60405160208184516116dc81838589016122c8565b8101600881520301902060ff198154169055600b549384926040519384934292856124c5565b0390a1600190829183600754905b8181106117f85750816117ee575b50611727578280f35b7f72db402a1d505e0ee50fba411e34bd1f9a6e90ab67b824c438255e747a886b289161175a6040519283924291846124fa565b0390a1600754816007558061176e57808280f35b60078252600080516020612ea5833981519152908101905b8181106117935750808280f35b806117a0600192546120c0565b806117ad575b5001611786565b601f811183146117c257508381555b386117a6565b818552602085206117dd91601f0160051c8101908401612510565b8084528360208120818355556117bc565b905015153861171e565b916118028361208f565b50604051908790805490611815826120c0565b91600181169081156118aa5750600114611877575b50506008815281900360200190205460ff161561184d5750600185925b01611710565b9193600019811461186357600180910194611847565b634e487b7160e01b86526011600452602486fd5b90915088526020882088905b828210611896575050810160208261182a565b600181602092548487015201910190611883565b60ff191685525050801515028201905060208261182a565b503461017d578060031936011261017d5780546040516302d05d3f60e01b815290602090829060049082906001600160a01b03165afa80156102c657829061197a575b61191a91506001600160a01b0316331461243e565b600c5460ff81166119375760ff1916600117600c556103cf612920565b60405162461bcd60e51b815260206004820152601b60248201527a105b1c9958591e481b585c9ad95908185cc8195e1a185d5cdd1959602a1b6044820152606490fd5b506020813d6020116119ad575b8161199460209383611ec3565b810103126102c2576119a861191a9161242a565b611905565b3d9150611987565b503461017d576119c436611ff8565b6009549091906119de906001600160a01b03161515612369565b8051825103611e6557805115611e3257825b8151811015611b075760ff611a1e6020611a0a84866123af565b5181604051938285809451938492016122c8565b81016008815203019020541615611ac357611a3981836123af565b515115611a8c57611a4a81846123af565b515115611a59576001016119f0565b60405162461bcd60e51b815260206004820152600b60248201526a115b5c1d1e481b1858995b60aa1b6044820152606490fd5b60405162461bcd60e51b815260206004820152600f60248201526e115b5c1d1e481cd85b5c1b19481251608a1b6044820152606490fd5b60405162461bcd60e51b815260206004820152601c60248201527b53616d706c65206e6f742061637469766520666f7220766f74696e6760201b6044820152606490fd5b508254604051630b9eb40b60e31b815233600482015291929184916001600160a01b0316908281602481855afa9081156106cd578391611e18575b505115611da5575b508054604051630b9eb40b60e31b81523360048201529190829060249082906001600160a01b03165afa90811561035e578491611d83575b505115611d42576009546040516320a7c73b60e11b81523360048201526001600160a01b039091169290602081602481875afa908115611d37578591611d05575b5015611cb057835b848251821015611c4d5750807f55b5b37db3e79e0cf5fa16c3b213f5856ebaf6a6e58c56813245533b65587bbd611c2a611c07600194866123af565b51611c3e611c1585896123af565b516040519384936080855260808501906122eb565b9033602085015283820360408501526122eb565b4260608301520390a101611bcb565b93929050823b15610ab557611c9992611c8785809460405196879586948593639a6e81ab60e01b8552606060048601526064850190612310565b83810360031901602485015290612310565b33604483015203925af180156102c6576106445750f35b60405162461bcd60e51b815260206004820152602760248201527f566f746572206e6f74207265676973746572656420696e20766f74696e6720636044820152661bdb9d1c9858dd60ca1b6064820152608490fd5b90506020813d602011611d2f575b81611d2060209383611ec3565b810103126114a2575138611bc3565b3d9150611d13565b6040513d87823e3d90fd5b60405162461bcd60e51b8152602060048201526019602482015278139bdd0818481c1c9bda9958dd081c185c9d1a58da5c185b9d603a1b6044820152606490fd5b611d9f91503d8086833e611d978183611ec3565b810190612405565b38611b82565b803b156102c257819060a46040518094819363020011eb60e11b835233600484015260606024840152600b60648401526a31b7b73a3934b13aba37b960a91b6084840152600160448401525af1801561035e57611e04575b8390611b4a565b83611e1191949294611ec3565b9138611dfd565b611e2c91503d8085833e611d978183611ec3565b38611b42565b60405162461bcd60e51b815260206004820152600b60248201526a08adae0e8f240c4c2e8c6d60ab1b6044820152606490fd5b60405162461bcd60e51b81526020600482015260116024820152704d69736d6174636865642061727261797360781b6044820152606490fd5b9050346102c257816003193601126102c257600a546001600160a01b03168152602090f35b601f909101601f19168101906001600160401b03821190821017611ee657604052565b634e487b7160e01b600052604160045260246000fd5b6001600160401b038111611ee65760051b60200190565b6001600160401b038111611ee657601f01601f191660200190565b81601f82011215611f7557803590611f4582611f13565b92611f536040519485611ec3565b82845260208383010111611f7557816000926020809301838601378301015290565b600080fd5b9080601f83011215611f75578135611f9181611efc565b92611f9f6040519485611ec3565b81845260208085019260051b82010191838311611f755760208201905b838210611fcb57505050505090565b81356001600160401b038111611f7557602091611fed87848094880101611f2e565b815201910190611fbc565b906040600319830112611f75576004356001600160401b038111611f75578261202391600401611f7a565b91602435906001600160401b038211611f755761204291600401611f7a565b90565b906040600319830112611f75576004356001600160401b038111611f75578261207091600401611f2e565b91602435906001600160401b038211611f755761204291600401611f2e565b6007548110156120aa57600760005260206000200190600090565b634e487b7160e01b600052603260045260246000fd5b90600182811c921680156120f0575b60208310146120da57565b634e487b7160e01b600052602260045260246000fd5b91607f16916120cf565b604051906000826001549161210e836120c0565b80835292600181169081156121825750600114612134575b61213292500383611ec3565b565b50600160009081529091600080516020612f258339815191525b81831061216657505090602061213292820101612126565b602091935080600191548385890101520191019091849261214e565b6020925061213294915060ff191682840152151560051b820101612126565b60405190600082600254916121b5836120c0565b808352926001811690811561218257506001146121d85761213292500383611ec3565b50600260009081529091600080516020612e658339815191525b81831061220a57505090602061213292820101612126565b60209193508060019154838589010152019101909184926121f2565b906040519182600082549261223a846120c0565b80845293600181169081156122a6575060011461225f575b5061213292500383611ec3565b90506000929192526020600020906000915b81831061228a5750509060206121329282010138612252565b6020919350806001915483858901015201910190918492612271565b90506020925061213294915060ff191682840152151560051b82010138612252565b60005b8381106122db5750506000910152565b81810151838201526020016122cb565b90602091612304815180928185528580860191016122c8565b601f01601f1916010190565b9080602083519182815201916020808360051b8301019401926000915b83831061233c57505050505090565b909192939460208061235a600193601f1986820301875289516122eb565b9701930193019193929061232d565b1561237057565b60405162461bcd60e51b8152602060048201526017602482015276159bdd1a5b99c818dbdb9d1c9858dd081b9bdd081cd95d604a1b6044820152606490fd5b80518210156120aa5760209160051b010190565b81601f82011215611f755780516123d981611f13565b926123e76040519485611ec3565b81845260208284010111611f755761204291602080850191016122c8565b90602082820312611f755781516001600160401b038111611f755761204292016123c3565b51906001600160a01b0382168203611f7557565b1561244557565b60405162461bcd60e51b815260206004820152600c60248201526b27b7363c9031b932b0ba37b960a11b6044820152606490fd5b1561248057565b60405162461bcd60e51b815260206004820152601d60248201527f4f6e6c7920766f74696e6720636f6e74726163742063616e2063616c6c0000006044820152606490fd5b906060926124e26124f092979695976080855260808501906122eb565b9083820360208501526122eb565b9460408201520152565b6040919493926060820195825260208201520152565b81811061251b575050565b60008155600101612510565b8160011b916000199060031b1c19161790565b90816020910312611f7557518015158103611f755790565b1561255957565b60405162461bcd60e51b815260206004820152601b60248201527a10530818dbdb9d1c9858dd1cc8185b1c9958591e481b1a5b9ad959602a1b6044820152606490fd5b81519192916001600160401b038111611ee6576125b982546120c0565b601f811161264c575b506020601f82116001146125ea5781906125e69394956000926111c9575050612527565b9055565b601f1982169083600052806000209160005b8181106126345750958360019596971061261b575b505050811b019055565b015160001960f88460031b161c19169055388080612611565b9192602060018192868b0151815501940192016125fc565b61267890836000526020600020601f840160051c8101916020851061127657601f0160051c0190612510565b386125c2565b6005549061268b82611efc565b916126996040519384611ec3565b80835260056000908152600080516020612e45833981519152602085015b8383106126c45750505050565b6001602081926126d385612226565b8152019201920191906126b7565b6040516361d25a0d60e11b8152602081600481305afa90811561273457600091612715575b5061271057600190565b600090565b61272e915060203d602011611633576116258183611ec3565b38612706565b6040513d6000823e3d90fd5b6000546040516308bcf8b560e21b815290602090829060049082906001600160a01b03165afa9081156127345760009161288c575b501561284f576003548015159081612842575b506128075760ff600c54166127cf576000906040516127a8604082611ec3565b601781527650726f6a656374206973207374696c6c2061637469766560481b602082015290565b6001906040516127e0606082611ec3565b60238152600080516020612ee5833981519152602082015262626c6560e81b604082015290565b600190604051612818604082611ec3565b601a81527913585e1a5b5d5b481a5d195c985d1a5bdb9cc81c995858da195960321b602082015290565b9050600b54101538612788565b600190604051612860604082611ec3565b601c81527b141c9bda9958dd081b585b9d585b1b1e4819195858dd1a5d985d195960221b602082015290565b6128a5915060203d602011611633576116258183611ec3565b38612775565b156128b257565b60405162461bcd60e51b815260206004820152601860248201527714dd1bdc9859d94818dbdb9d1c9858dd081b9bdd081cd95d60421b6044820152606490fd5b93929161291b9061290d6040936060885260608801906122eb565b9086820360208801526122eb565b930152565b6000546040516308bcf8b560e21b815290602090829060049082906001600160a01b03165afa90811561273457600091612a2f575b5015612132576003548015159081612a22575b506129cc5760ff600c541661297957565b600b54604051906060825260236060830152600080516020612ee5833981519152608083015262626c6560e81b60a08301526020820152426040820152600080516020612ec583398151915260c03392a2565b600b546040519060608252601a60608301527913585e1a5b5d5b481a5d195c985d1a5bdb9cc81c995858da195960321b60808301526020820152426040820152600080516020612ec583398151915260a03392a2565b9050600b54101538612968565b612a48915060203d602011611633576116258183611ec3565b38612955565b9080601f83011215611f75578151612a6581611efc565b92612a736040519485611ec3565b81845260208085019260051b820101928311611f7557602001905b828210612a9b5750505090565b60208091612aa88461242a565b815201910190612a8e565b9080601f83011215611f75578151612aca81611efc565b92612ad86040519485611ec3565b81845260208085019260051b820101928311611f7557602001905b828210612b005750505090565b8151815260209182019101612af3565b906020808351928381520192019060005b818110612b2e5750505090565b82516001600160a01b0316845260209384019390920191600101612b21565b906020808351928381520192019060005b818110612b6b5750505090565b8251845260209384019390920191600101612b5e565b6009546000906001600160a01b03168015612e40578154604051630caf64f760e11b815291908390839060049082906001600160a01b03165afa80156106cd57839084938591612d25575b50815115612d1e578491612c27612c0392612c15604051978895869563cdbf3d0160e01b8752606060048801526064870190612b10565b85810360031901602487015290612310565b83810360031901604485015290612b4d565b0381845afa9182156106cd5783908493612cb9575b508051612c4a575b50505050565b813b156102d157918391612c8183612c939560405196879586948593631d70957f60e21b8552604060048601526044850190612b10565b83810360031901602485015290612b4d565b03925af180156102c657612ca9575b8080612c44565b81612cb391611ec3565b38612ca2565b9250503d8084843e612ccb8184611ec3565b82016040838203126102d15782516001600160401b0381116114a25781612cf3918501612a4e565b602084015190936001600160401b038211612d1a57612d13929101612ab3565b9138612c3c565b8580fd5b5050505050565b935050503d8084843e612d388184611ec3565b82016080838203126102d15782516001600160401b0381116114a25781612d60918501612a4e565b60208401516001600160401b038111612d1a5784019180601f84011215612d1a57825192612d8d84611efc565b93612d9b6040519586611ec3565b80855260208086019160051b8301019183831161149a5760208101915b838310612e0f575050505060408501516001600160401b038111612e0b5781612de2918701612ab3565b606086015190956001600160401b03821161149e57612e02929101612ab3565b50909238612bcc565b8680fd5b82516001600160401b038111612e3c57602091612e31878480948701016123c3565b815201920191612db8565b8a80fd5b505056fe036b6384b5eca791c62761152d0c79bb0604c104a5fb6f4eb0703f3154bb3db0405787fa12a823e0f2b7631cc41b3ba8828b3321ca811111fa75cd3aa3bb5ace9b196abb2588eccefb36f3e6c9b15d9e260c633d5b2e0b8f497e6e71c6c1c1eaa66cc928b5edb82af9bd49922954155ab7b0942694bea4ce44661d9a8736c688aee3ab89a33c4a6f38aa24238aed506e7f6db5e298e1f32a0ede72dbe23112c44e6f206d6f726520756e6c6162656c65642073616d706c657320617661696c619aa934e5a98d12b60dabec0f34647f2b63b8fd257ba6480e7ded4cc1ef24c573b10e2d527612073b26eecdfd717e6a320cf44b4afac2b0732d9fcbe2b7fa0cf6a2646970667358221220ad0311dda1ff7cfa53a8b3d1b4afa7f3e6d8af0c6a20ee53b249b97a907ff51d64736f6c634300081c0033",
  "linkReferences": {},
  "deployedLinkReferences": {}
}