{
  "_format": "hh-sol-artifact-1",
  "contractName": "ALProject",
  "sourceName": "contracts/ALProject.sol",
  "abi": [
    {
      "inputs": [
        {
          "internalType": "address",
          "name": "_baseProject",
          "type": "address"
        },
        {
          "internalType": "string",
          "name": "_projectData",
          "type": "string"
        }
      ],
      "stateMutability": "nonpayable",
      "type": "constructor"
    },
    {
      "anonymous": false,
      "inputs": [
        {
          "indexed": false,
          "internalType": "uint256",
          "name": "round",
          "type": "uint256"
        },
        {
          "indexed": false,
          "internalType": "uint256",
          "name": "completedSamples",
          "type": "uint256"
        },
        {
          "indexed": false,
          "internalType": "uint256",
          "name": "timestamp",
          "type": "uint256"
        }
      ],
      "name": "ALBatchCompleted",
      "type": "event"
    },
    {
      "anonymous": false,
      "inputs": [
        {
          "indexed": false,
          "internalType": "uint256",
          "name": "round",
          "type": "uint256"
        },
        {
          "indexed": false,
          "internalType": "uint256",
          "name": "sampleCount",
          "type": "uint256"
        },
        {
          "indexed": false,
          "internalType": "uint256",
          "name": "timestamp",
          "type": "uint256"
        }
      ],
      "name": "ALBatchStarted",
      "type": "event"
    },
    {
      "anonymous": false,
      "inputs": [
        {
          "indexed": false,
          "internalType": "address",
          "name": "votingContract",
          "type": "address"
        },
        {
          "indexed": false,
          "internalType": "address",
          "name": "storageContract",
          "type": "address"
        }
      ],
      "name": "ALContractsDeployed",
      "type": "event"
    },
    {
      "anonymous": false,
      "inputs": [
        {
          "indexed": false,
          "internalType": "uint256",
          "name": "round",
          "type": "uint256"
        },
        {
          "indexed": false,
          "internalType": "string",
          "name": "reason",
          "type": "string"
        },
        {
          "indexed": false,
          "internalType": "uint256",
          "name": "timestamp",
          "type": "uint256"
        }
      ],
      "name": "ALRoundTriggered",
      "type": "event"
    },
    {
      "anonymous": false,
      "inputs": [
        {
          "indexed": false,
          "internalType": "string",
          "name": "sampleId",
          "type": "string"
        },
        {
          "indexed": false,
          "internalType": "string",
          "name": "label",
          "type": "string"
        },
        {
          "indexed": false,
          "internalType": "uint256",
          "name": "round",
          "type": "uint256"
        },
        {
          "indexed": false,
          "internalType": "uint256",
          "name": "timestamp",
          "type": "uint256"
        }
      ],
      "name": "AutoLabelStored",
      "type": "event"
    },
    {
      "anonymous": false,
      "inputs": [
        {
          "indexed": true,
          "internalType": "address",
          "name": "trigger",
          "type": "address"
        },
        {
          "indexed": false,
          "internalType": "string",
          "name": "reason",
          "type": "string"
        },
        {
          "indexed": false,
          "internalType": "uint256",
          "name": "currentRound",
          "type": "uint256"
        },
        {
          "indexed": false,
          "internalType": "uint256",
          "name": "timestamp",
          "type": "uint256"
        }
      ],
      "name": "ProjectEndTriggered",
      "type": "event"
    },
    {
      "anonymous": false,
      "inputs": [
        {
          "indexed": false,
          "internalType": "uint256",
          "name": "newRound",
          "type": "uint256"
        }
      ],
      "name": "RoundIncremented",
      "type": "event"
    },
    {
      "anonymous": false,
      "inputs": [
        {
          "indexed": false,
          "internalType": "string",
          "name": "sampleId",
          "type": "string"
        },
        {
          "indexed": false,
          "internalType": "address",
          "name": "voter",
          "type": "address"
        },
        {
          "indexed": false,
          "internalType": "string",
          "name": "label",
          "type": "string"
        },
        {
          "indexed": false,
          "internalType": "uint256",
          "name": "timestamp",
          "type": "uint256"
        }
      ],
      "name": "VoteSubmitted",
      "type": "event"
    },
    {
      "anonymous": false,
      "inputs": [
        {
          "indexed": false,
          "internalType": "uint256",
          "name": "round",
          "type": "uint256"
        },
        {
          "indexed": false,
          "internalType": "uint256",
          "name": "voterCount",
          "type": "uint256"
        },
        {
          "indexed": false,
          "internalType": "uint256",
          "name": "timestamp",
          "type": "uint256"
        }
      ],
      "name": "VotersUpdated",
      "type": "event"
    },
    {
      "anonymous": false,
      "inputs": [
        {
          "indexed": false,
          "internalType": "string",
          "name": "sampleId",
          "type": "string"
        },
        {
          "indexed": false,
          "internalType": "string",
          "name": "finalLabel",
          "type": "string"
        },
        {
          "indexed": false,
          "internalType": "uint256",
          "name": "round",
          "type": "uint256"
        },
        {
          "indexed": false,
          "internalType": "uint256",
          "name": "timestamp",
          "type": "uint256"
        }
      ],
      "name": "VotingSessionEnded",
      "type": "event"
    },
    {
      "anonymous": false,
      "inputs": [
        {
          "indexed": false,
          "internalType": "string",
          "name": "sampleId",
          "type": "string"
        },
        {
          "indexed": false,
          "internalType": "uint256",
          "name": "round",
          "type": "uint256"
        },
        {
          "indexed": false,
          "internalType": "uint256",
          "name": "timeout",
          "type": "uint256"
        },
        {
          "indexed": false,
          "internalType": "uint256",
          "name": "timestamp",
          "type": "uint256"
        }
      ],
      "name": "VotingSessionStarted",
      "type": "event"
    },
    {
      "inputs": [],
      "name": "alScenario",
      "outputs": [
        {
          "internalType": "string",
          "name": "",
          "type": "string"
        }
      ],
      "stateMutability": "view",
      "type": "function"
    },
    {
      "inputs": [],
      "name": "baseProject",
      "outputs": [
        {
          "internalType": "address",
          "name": "",
          "type": "address"
        }
      ],
      "stateMutability": "view",
      "type": "function"
    },
    {
      "inputs": [],
      "name": "currentRound",
      "outputs": [
        {
          "internalType": "uint256",
          "name": "",
          "type": "uint256"
        }
      ],
      "stateMutability": "view",
      "type": "function"
    },
    {
      "inputs": [
        {
          "internalType": "uint256",
          "name": "round",
          "type": "uint256"
        }
      ],
      "name": "endBatchVoting",
      "outputs": [],
      "stateMutability": "nonpayable",
      "type": "function"
    },
    {
      "inputs": [],
      "name": "finalTraining",
      "outputs": [
        {
          "internalType": "bool",
          "name": "",
          "type": "bool"
        }
      ],
      "stateMutability": "view",
      "type": "function"
    },
    {
      "inputs": [],
      "name": "getALConfiguration",
      "outputs": [
        {
          "internalType": "string",
          "name": "_queryStrategy",
          "type": "string"
        },
        {
          "internalType": "string",
          "name": "_alScenario",
          "type": "string"
        },
        {
          "internalType": "uint256",
          "name": "_maxIteration",
          "type": "uint256"
        },
        {
          "internalType": "uint256",
          "name": "_currentRound",
          "type": "uint256"
        },
        {
          "internalType": "uint256",
          "name": "_queryBatchSize",
          "type": "uint256"
        },
        {
          "internalType": "uint256",
          "name": "_votingTimeout",
          "type": "uint256"
        },
        {
          "internalType": "string[]",
          "name": "_labelSpace",
          "type": "string[]"
        }
      ],
      "stateMutability": "view",
      "type": "function"
    },
    {
      "inputs": [],
      "name": "getALProjectMetadata",
      "outputs": [
        {
          "internalType": "string",
          "name": "_title",
          "type": "string"
        },
        {
          "internalType": "string",
          "name": "_description",
          "type": "string"
        },
        {
          "internalType": "address",
          "name": "_owner",
          "type": "address"
        },
        {
          "internalType": "string",
          "name": "_projectType",
          "type": "string"
        },
        {
          "internalType": "string",
          "name": "_rocrateHash",
          "type": "string"
        },
        {
          "internalType": "uint256",
          "name": "_start",
          "type": "uint256"
        },
        {
          "internalType": "uint256",
          "name": "_end",
          "type": "uint256"
        },
        {
          "internalType": "string",
          "name": "_queryStrategy",
          "type": "string"
        },
        {
          "internalType": "string",
          "name": "_alScenario",
          "type": "string"
        },
        {
          "internalType": "uint256",
          "name": "_maxIteration",
          "type": "uint256"
        },
        {
          "internalType": "uint256",
          "name": "_queryBatchSize",
          "type": "uint256"
        },
        {
          "internalType": "string[]",
          "name": "_labelSpace",
          "type": "string[]"
        }
      ],
      "stateMutability": "view",
      "type": "function"
    },
    {
      "inputs": [],
      "name": "getCurrentBatchSampleIds",
      "outputs": [
        {
          "internalType": "string[]",
          "name": "",
          "type": "string[]"
        }
      ],
      "stateMutability": "view",
      "type": "function"
    },
    {
      "inputs": [],
      "name": "hasALContracts",
      "outputs": [
        {
          "internalType": "bool",
          "name": "",
          "type": "bool"
        }
      ],
      "stateMutability": "view",
      "type": "function"
    },
    {
      "inputs": [],
      "name": "incrementRound",
      "outputs": [],
      "stateMutability": "nonpayable",
      "type": "function"
    },
    {
      "inputs": [
        {
          "internalType": "string",
          "name": "sampleId",
          "type": "string"
        }
      ],
      "name": "isSampleActive",
      "outputs": [
        {
          "internalType": "bool",
          "name": "",
          "type": "bool"
        }
      ],
      "stateMutability": "view",
      "type": "function"
    },
    {
      "inputs": [
        {
          "internalType": "uint256",
          "name": "",
          "type": "uint256"
        }
      ],
      "name": "labelSpace",
      "outputs": [
        {
          "internalType": "string",
          "name": "",
          "type": "string"
        }
      ],
      "stateMutability": "view",
      "type": "function"
    },
    {
      "inputs": [],
      "name": "markFinalTrainingCompleted",
      "outputs": [],
      "stateMutability": "nonpayable",
      "type": "function"
    },
    {
      "inputs": [],
      "name": "maxIteration",
      "outputs": [
        {
          "internalType": "uint256",
          "name": "",
          "type": "uint256"
        }
      ],
      "stateMutability": "view",
      "type": "function"
    },
    {
      "inputs": [],
      "name": "needsALDeployment",
      "outputs": [
        {
          "internalType": "bool",
          "name": "",
          "type": "bool"
        }
      ],
      "stateMutability": "view",
      "type": "function"
    },
    {
      "inputs": [],
      "name": "notifyUnlabeledSamplesExhausted",
      "outputs": [],
      "stateMutability": "nonpayable",
      "type": "function"
    },
    {
      "inputs": [
        {
          "internalType": "string",
          "name": "sampleId",
          "type": "string"
        },
        {
          "internalType": "string",
          "name": "finalLabel",
          "type": "string"
        }
      ],
      "name": "notifyVotingSessionEnded",
      "outputs": [],
      "stateMutability": "nonpayable",
      "type": "function"
    },
    {
      "inputs": [
        {
          "internalType": "string",
          "name": "sampleId",
          "type": "string"
        }
      ],
      "name": "notifyVotingSessionStarted",
      "outputs": [],
      "stateMutability": "nonpayable",
      "type": "function"
    },
    {
      "inputs": [],
      "name": "queryBatchSize",
      "outputs": [
        {
          "internalType": "uint256",
          "name": "",
          "type": "uint256"
        }
      ],
      "stateMutability": "view",
      "type": "function"
    },
    {
      "inputs": [],
      "name": "queryStrategy",
      "outputs": [
        {
          "internalType": "string",
          "name": "",
          "type": "string"
        }
      ],
      "stateMutability": "view",
      "type": "function"
    },
    {
      "inputs": [
        {
          "internalType": "string",
          "name": "sampleId",
          "type": "string"
        },
        {
          "internalType": "string",
          "name": "label",
          "type": "string"
        }
      ],
      "name": "receiveFinalLabelFromVoting",
      "outputs": [],
      "stateMutability": "nonpayable",
      "type": "function"
    },
    {
      "inputs": [
        {
          "internalType": "address",
          "name": "_votingContract",
          "type": "address"
        },
        {
          "internalType": "address",
          "name": "_storageContract",
          "type": "address"
        },
        {
          "internalType": "string",
          "name": "_queryStrategy",
          "type": "string"
        },
        {
          "internalType": "string",
          "name": "_alScenario",
          "type": "string"
        },
        {
          "internalType": "uint256",
          "name": "_maxIteration",
          "type": "uint256"
        },
        {
          "internalType": "uint256",
          "name": "_queryBatchSize",
          "type": "uint256"
        },
        {
          "internalType": "string[]",
          "name": "_labelSpace",
          "type": "string[]"
        },
        {
          "internalType": "address",
          "name": "_rocrateAsset",
          "type": "address"
        }
      ],
      "name": "setupALProject",
      "outputs": [],
      "stateMutability": "nonpayable",
      "type": "function"
    },
    {
      "inputs": [],
      "name": "shouldProjectEnd",
      "outputs": [
        {
          "internalType": "bool",
          "name": "shouldEnd",
          "type": "bool"
        },
        {
          "internalType": "string",
          "name": "reason",
          "type": "string"
        }
      ],
      "stateMutability": "view",
      "type": "function"
    },
    {
      "inputs": [
        {
          "internalType": "string[]",
          "name": "sampleIds",
          "type": "string[]"
        },
        {
          "internalType": "string[]",
          "name": "sampleDataHashes",
          "type": "string[]"
        },
        {
          "internalType": "uint256[]",
          "name": "originalIndices",
          "type": "uint256[]"
        }
      ],
      "name": "startBatchVoting",
      "outputs": [],
      "stateMutability": "nonpayable",
      "type": "function"
    },
    {
      "inputs": [],
      "name": "storageContract",
      "outputs": [
        {
          "internalType": "address",
          "name": "",
          "type": "address"
        }
      ],
      "stateMutability": "view",
      "type": "function"
    },
    {
      "inputs": [
        {
          "internalType": "string",
          "name": "sampleId",
          "type": "string"
        },
        {
          "internalType": "string",
          "name": "label",
          "type": "string"
        },
        {
          "internalType": "uint256",
          "name": "round",
          "type": "uint256"
        }
      ],
      "name": "storeFinalLabel",
      "outputs": [],
      "stateMutability": "nonpayable",
      "type": "function"
    },
    {
      "inputs": [
        {
          "internalType": "string[]",
          "name": "sampleIds",
          "type": "string[]"
        },
        {
          "internalType": "string[]",
          "name": "labels",
          "type": "string[]"
        }
      ],
      "name": "submitBatchVote",
      "outputs": [],
      "stateMutability": "nonpayable",
      "type": "function"
    },
    {
      "inputs": [
        {
          "internalType": "string",
          "name": "reason",
          "type": "string"
        }
      ],
      "name": "triggerNextRound",
      "outputs": [],
      "stateMutability": "nonpayable",
      "type": "function"
    },
    {
      "inputs": [],
      "name": "unlabeledSamplesExhausted",
      "outputs": [
        {
          "internalType": "bool",
          "name": "",
          "type": "bool"
        }
      ],
      "stateMutability": "view",
      "type": "function"
    },
    {
      "inputs": [],
      "name": "votingContract",
      "outputs": [
        {
          "internalType": "address",
          "name": "",
          "type": "address"
        }
      ],
      "stateMutability": "view",
      "type": "function"
    },
    {
      "inputs": [],
      "name": "votingTimeout",
      "outputs": [
        {
          "internalType": "uint256",
          "name": "",
          "type": "uint256"
        }
      ],
      "stateMutability": "view",
      "type": "function"
    }
  ],
  "bytecode": "0x6080604052346100eb576133c58038038061001981610106565b92833981016040828203126100eb5781516001600160a01b03811692908390036100eb576020810151906001600160401b0382116100eb57019080601f830112156100eb578151916001600160401b0383116100f057610082601f8401601f1916602001610106565b91838352602084830101116100eb5760005b8381106100d6576000838501602001819052610e10600655600c805461ffff1916905580546001600160a01b03191686179055604051613299908161012c8239f35b80602080928401015182828601015201610094565b600080fd5b634e487b7160e01b600052604160045260246000fd5b6040519190601f01601f191682016001600160401b038111838210176100f05760405256fe608080604052600436101561001357600080fd5b600090813560e01c90816311ce026714612208575080631633e06214611ce957806319b2122714611bf657806324e41ccb1461190757806329f5e65a146116c4578063461e198b146114fd5780636ac4e50e146114865780636c86d1241461146357806372a1c45d146112d157806377c39c21146112b35780637a83a44b1461128e5780637c13f6cf146112565780637f52cadc1461123a57806380a8c849146111b35780638a19c8bc14611195578063a074018414611165578063a6ea915b14610ffd578063b061106814610eb4578063b0942ce514610e96578063b2be4d6514610c93578063b8c3903414610b54578063b9ea690a1461053c578063c1fc006a14610513578063c3a4b41a146104cd578063cf3fc0b8146104a6578063d2291e1114610422578063d5a977bd146103fc578063e03083231461039a578063e1d5a2c8146102ea578063f1bc33b4146102cc5763f8c8fa021461017657600080fd5b346102c957806003193601126102c95780546040516302d05d3f60e01b815290602090829060049082906001600160a01b03165afa80156102be57829061027f575b6101cd91506001600160a01b0316331461276f565b600c5460ff8160081c1661023b576101009061ff00191617600c556000805160206131a483398151915260a0600b54604051908152606060208201526018606082015277119a5b985b081d1c985a5b9a5b99c818dbdb5c1b195d195960421b6080820152426040820152a180f35b606460405162461bcd60e51b815260206004820152602060248201527f46696e616c20747261696e696e6720616c726561647920636f6d706c657465646044820152fd5b506020813d6020116102b6575b816102996020938361222d565b810103126102b2576102ad6101cd9161275b565b6101b8565b5080fd5b3d915061028c565b6040513d84823e3d90fd5b80fd5b50346102c957806003193601126102c9576020600654604051908152f35b50346102c957806003193601126102c9576009546001600160a01b03163303610367578060405161031c60208261222d565b52600b54600181018091116103535760208160008051602061322483398151915292600b55604051908152a1610350612c57565b80f35b634e487b7160e01b82526011600452602482fd5b60405162461bcd60e51b815260206004820152600b60248201526a4f6e6c7920766f74696e6760a81b6044820152606490fd5b50346102c95760203660031901126102c957600435906001600160401b0382116102c957602060ff6103e6826103d33660048801612298565b81604051938285809451938492016125e3565b8101600881520301902054166040519015158152f35b50346102c957806003193601126102c957602060ff600c5460081c166040519015158152f35b50346102c957806003193601126102c95760075461043f81612266565b9161044d604051938461222d565b818352600781526000805160206131c4833981519152602084015b83831061048957604051602080825281906104859082018861262b565b0390f35b60016020819261049885612541565b815201920192019190610468565b50346102c957806003193601126102c957546040516001600160a01b039091168152602090f35b50346102c957806003193601126102c9576009546001600160a01b03161515806104ff575b6020906040519015158152f35b50600a546001600160a01b031615156104f2565b50346102c957806003193601126102c9576009546040516001600160a01b039091168152602090f35b50346102c9576101003660031901126102c9576004356001600160a01b038116908190036102b2576024356001600160a01b03811690819003610b50576044356001600160401b038111610b4c57610598903690600401612298565b6064356001600160401b038111610b48576105b7903690600401612298565b60a435906084359060c4356001600160401b038111610b44576105de9036906004016122df565b936105e7612684565b506009546001600160a01b03811615801581610b30575b610a60575b88151580610a57575b15610a155761061a90612c0d565b600a546106306001600160a01b03821615612c0d565b84156109d857851561099e576001600160a01b03199182168917600955168617600a5561065b612e84565b8051906001600160401b03821161098a576106776001546123db565b601f811161094e575b50602090601f83116001146108e9576106a392918a918361081e575b505061288c565b6001555b8051906001600160401b0382116108d5576106c36002546123db565b601f811161088e575b50602090601f8311600114610829576106ee929189918361081e57505061288c565b6002555b600355600455805190600160401b821161080a5760055482600555808310610788575b50600585528490600080516020613144833981519152906020015b83831061076b57867fb009e24dd5f140ab58abb9e6f2187d998561150b7da958ebad23a90e26d7366b6040888882519182526020820152a180f35b600160208261077c83945186612b2b565b01920192019190610730565b600586526000805160206131448339815191529081019083015b8181106107af5750610715565b806107bc600192546123db565b806107c9575b50016107a2565b601f811183146107de57508781555b386107c2565b818952602089206107f991601f0160051c8101908401612875565b8088528760208120818355556107d8565b634e487b7160e01b85526041600452602485fd5b01519050388061069c565b600289528189209190601f1984168a5b818110610876575090846001959493921061085d575b505050811b016002556106f2565b015160001960f88460031b161c1916905538808061084f565b92936020600181928786015181550195019301610839565b600289526108c590600080516020613164833981519152601f850160051c810191602086106108cb575b601f0160051c0190612875565b386106cc565b90915081906108b8565b634e487b7160e01b88526041600452602488fd5b60018a52818a209190601f1984168b5b818110610936575090846001959493921061091d575b505050811b016001556106a7565b015160001960f88460031b161c1916905538808061090f565b929360206001819287860151815501950193016108f9565b60018a5261098490600080516020613244833981519152601f850160051c810191602086106108cb57601f0160051c0190612875565b38610680565b634e487b7160e01b89526041600452602489fd5b60405162461bcd60e51b8152602060048201526012602482015271496e76616c69642062617463682073697a6560701b6044820152606490fd5b60405162461bcd60e51b815260206004820152601560248201527424b73b30b634b21036b0bc1034ba32b930ba34b7b760591b6044820152606490fd5b60405162461bcd60e51b815260206004820152601a602482015279496e76616c696420636f6e74726163742061646472657373657360301b6044820152606490fd5b5087151561060c565b89546040516302d05d3f60e01b815290602090829060049082906001600160a01b03165afa908115610b25578b91610ae7575b506001600160a01b0316331461060357606460405162461bcd60e51b815260206004820152602060248201527f4f6e6c792063726561746f7220616674657220696e697469616c2073657475706044820152fd5b90506020813d602011610b1d575b81610b026020938361222d565b81010312610b1957610b139061275b565b38610a93565b8a80fd5b3d9150610af5565b6040513d8d823e3d90fd5b50600a546001600160a01b031615156105fe565b8780fd5b8480fd5b8380fd5b8280fd5b50346102c95760203660031901126102c95780546040516302d05d3f60e01b81526004803592602091839182906001600160a01b03165afa8015610c88578390610c4d575b610bae91506001600160a01b0316331461276f565b6009546001600160a01b0316610bc581151561269a565b600b548203610c18578291813b15610c14578291602483926040519485938492632e30e40d60e21b845260048401525af180156102be57610c035750f35b81610c0d9161222d565b6102c95780f35b5050fd5b60405162461bcd60e51b815260206004820152600d60248201526c125b9d985b1a59081c9bdd5b99609a1b6044820152606490fd5b506020813d602011610c80575b81610c676020938361222d565b81010312610b5057610c7b610bae9161275b565b610b99565b3d9150610c5a565b6040513d85823e3d90fd5b50346102c95760203660031901126102c9576004356001600160401b0381116102b257610cc4903690600401612298565b610cd960018060a01b036009541633146127f4565b60405181519060208181850193610cf18183876125e3565b81016008815203019020600160ff19825416179055828391600754925b838110610dcf575b505015610d63575b50610d4c60008051602061318483398151915291600b54600654604051938493608085526080850190612606565b91602084015260408301524260608301520390a180f35b600160401b811015610dbb57806001610d7f92016007556123aa565b610da75781610da060008051602061318483398151915293610d4c93612b2b565b9150610d1e565b634e487b7160e01b83526004839052602483fd5b634e487b7160e01b83526041600452602483fd5b610dd8816123aa565b506040518154918189610dea856123db565b928383526020830195600181169081600014610e775750600114610e36575b50610e169250038261222d565b5190208551832014610e2a57600101610d0e565b50505060013880610d16565b8b52505060208920899183915b818410610e5b5750506020610e169282010138610e09565b6020919250806001915483868801015201920191908391610e43565b60ff1916875250610e1693151560051b83016020019150389050610e09565b50346102c957806003193601126102c9576020600354604051908152f35b50346102c957610ec33661235d565b60095490919083906001600160a01b0316610edf3382146127f4565b600a546001600160a01b031690610ef7821515612ae4565b60206040518092636787225b60e01b82528260048301528180610f1d602482018a612606565b03915afa908115610c88578391610fc3575b50600b5490823b15610b4c57610f609284928360405180968195829463074529cf60e01b84528c8c60048601612840565b03925af180156102be57610fae575b50507f503607074d0e95d8c0c6b1660c3441384010e05305da22aef0594eb3fcae623691610fa8600b5492604051938493429285612840565b0390a180f35b81610fb89161222d565b610b50578238610f6f565b9250506020823d602011610ff5575b81610fdf6020938361222d565b81010312610ff05784915138610f2f565b600080fd5b3d9150610fd2565b50346102c95760603660031901126102c957806004356001600160401b0381116111625761102f903690600401612298565b6024356001600160401b038111610c145761104e903690600401612298565b82546040516302d05d3f60e01b815291929190602090829060049082906001600160a01b03165afa801561115757849061111c575b61109891506001600160a01b0316331461276f565b600a546001600160a01b0316916110b0831515612ae4565b823b15611117576110f8926110e68580946040519687958694859363074529cf60e01b8552608060048601526084850190612606565b83810360031901602485015290612606565b604435604483015282606483015203925af180156102be57610c035750f35b505050fd5b506020813d60201161114f575b816111366020938361222d565b810103126111175761114a6110989161275b565b611083565b3d9150611129565b6040513d86823e3d90fd5b50fd5b50346102c957806003193601126102c957610485611181612415565b604051918291602083526020830190612606565b50346102c957806003193601126102c9576020600b54604051908152f35b50346102c957806003193601126102c95761120a600354610485600b5491600454926006546111e0612415565b946111e96124bc565b926112186111f56128b7565b94604051998a9960e08b5260e08b0190612606565b9089820360208b0152612606565b9460408801526060870152608086015260a085015283820360c085015261262b565b50346102c957806003193601126102c9576104856111816124bc565b50346102c957806003193601126102c95761126f612979565b9061048560405192839215158352604060208401526040830190612606565b50346102c957806003193601126102c95760206112a961291a565b6040519015158152f35b50346102c957806003193601126102c9576020600454604051908152f35b50346102c957806003193601126102c95780546040516302d05d3f60e01b815290602090829060049082906001600160a01b03165afa9081156102be578291611429575b5060035491600454926020936040519361132f868661222d565b83855260405193611340878661222d565b80855260405190611351888361222d565b808252604051611361898261222d565b81815261136c612415565b926113756124bc565b9461137e6128b7565b986040519b8c9b6101808d526101808d0161139891612606565b908c8203908d01526113a991612606565b6001600160a01b0390911660408b015289810360608b01526113ca91612606565b88810360808a01526113db91612606565b908060a089015260c088015286810360e08801526113f891612606565b85810361010087015261140a91612606565b916101208501526101408401528281036101608401526104859161262b565b90506020813d60201161145b575b816114446020938361222d565b810103126102b2576114559061275b565b38611315565b3d9150611437565b50346102c957806003193601126102c957602060ff600c54166040519015158152f35b50346102c95760203660031901126102c9576004356005548110156102b2576005548110156114e957600582526000805160206131448339815191520190806114d55761048561118183612541565b634e487b7160e01b81526004819052602490fd5b634e487b7160e01b82526032600452602482fd5b50346102c95760203660031901126102c9576004356001600160401b0381116102b25761152e903690600401612298565b81546040516302d05d3f60e01b81526001600160a01b0390911690602081600481855afa90811561115757849161167f575b5060049160209161157b906001600160a01b0316331461276f565b6040516308bcf8b560e21b815292839182905afa908115610c88578391611650575b501561162057600b54906001820180921161160c57816000805160206131a48339815191526115f460209360008051602061322483398151915295600b556040519182918583526060878401526060830190612606565b4260408301520390a1604051908152a1610350612c57565b634e487b7160e01b83526011600452602483fd5b60405162461bcd60e51b8152602060048201526008602482015267496e61637469766560c01b6044820152606490fd5b611672915060203d602011611678575b61166a818361222d565b81019061289f565b3861159d565b503d611660565b90506020813d6020116116bc575b8161169a6020938361222d565b81010312610b4c5760049161157b6116b360209361275b565b92505091611560565b3d915061168d565b50346102c9576117477f0a1e2f362ccc64de291011914f5087c611557a7331c80f2cdd2aacf89b9dc5646116f73661235d565b61170c60018060a01b036009541633146127f4565b604051602081845161172181838589016125e3565b8101600881520301902060ff198154169055600b54938492604051938493429285612840565b0390a1600190829183600754905b81811061183d575081611833575b5061176c578280f35b7f72db402a1d505e0ee50fba411e34bd1f9a6e90ab67b824c438255e747a886b289161179f6040519283924291846127de565b0390a160075481600755806117b357808280f35b600782526000805160206131c4833981519152908101905b8181106117d85750808280f35b806117e5600192546123db565b806117f2575b50016117cb565b601f8111831461180757508381555b386117eb565b8185526020852061182291601f0160051c8101908401612875565b808452836020812081835555611801565b9050151538611763565b91611847836123aa565b5060405190879080549061185a826123db565b91600181169081156118ef57506001146118bc575b50506008815281900360200190205460ff16156118925750600185925b01611755565b919360001981146118a85760018091019461188c565b634e487b7160e01b86526011600452602486fd5b90915088526020882088905b8282106118db575050810160208261186f565b6001816020925484870152019101906118c8565b60ff191685525050801515028201905060208261186f565b50346102c95760603660031901126102c9576004356001600160401b0381116102b2576119389036906004016122df565b6024356001600160401b038111610b50576119579036906004016122df565b6044356001600160401b038111610b4c5736602382011215610b4c5780600401359061198282612266565b91611990604051938461222d565b8083526024602084019160051b83010191368311611bf257602401905b828210611be257505084546040516302d05d3f60e01b81529150602090829060049082906001600160a01b03165afa8015611bd7578590611b9c575b6119fe91506001600160a01b0316331461276f565b6009546001600160a01b031691611a1683151561269a565b835115611b62578351825103611b0557600b5492600184018094116118a857908392918694600b55611a46612c57565b803b15610b4857611a7f8587611aa88296611a96604051998a98899788966333f9625d60e01b885260806004890152608488019061262b565b91602487015260031986830301604487015261262b565b838103600319016064850152906127aa565b03925af180156102be57611af0575b507f24c323b0138f1f608c855cccb8550ac649c15bf3cea39b8fdbde80d33258a74f82600b549051610fa86040519283924291846127de565b81611afa9161222d565b6102b2578138611ab7565b60405162461bcd60e51b815260206004820152602f60248201527f53616d706c652049447320616e64206f726967696e616c20696e64696365732060448201526e0d8cadccee8d040dad2e6dac2e8c6d608b1b6064820152608490fd5b60405162461bcd60e51b815260206004820152601260248201527108adae0e8f240e6c2dae0d8ca40c4c2e8c6d60731b6044820152606490fd5b506020813d602011611bcf575b81611bb66020938361222d565b81010312610b4857611bca6119fe9161275b565b6119e9565b3d9150611ba9565b6040513d87823e3d90fd5b81358152602091820191016119ad565b8680fd5b50346102c957806003193601126102c95780546040516302d05d3f60e01b815290602090829060049082906001600160a01b03165afa80156102be578290611cae575b611c4e91506001600160a01b0316331461276f565b600c5460ff8116611c6b5760ff1916600117600c55610350612c57565b60405162461bcd60e51b815260206004820152601b60248201527a105b1c9958591e481b585c9ad95908185cc8195e1a185d5cdd1959602a1b6044820152606490fd5b506020813d602011611ce1575b81611cc86020938361222d565b810103126102b257611cdc611c4e9161275b565b611c39565b3d9150611cbb565b50346102c95760403660031901126102c9576004356001600160401b0381116102b257611d1a9036906004016122df565b6024356001600160401b038111610b5057611d399036906004016122df565b600954909190611d53906001600160a01b0316151561269a565b80518251036121cf5780511561219c57825b8151811015611e7c5760ff611d936020611d7f84866126e0565b5181604051938285809451938492016125e3565b81016008815203019020541615611e3857611dae81836126e0565b515115611e0157611dbf81846126e0565b515115611dce57600101611d65565b60405162461bcd60e51b815260206004820152600b60248201526a115b5c1d1e481b1858995b60aa1b6044820152606490fd5b60405162461bcd60e51b815260206004820152600f60248201526e115b5c1d1e481cd85b5c1b19481251608a1b6044820152606490fd5b60405162461bcd60e51b815260206004820152601c60248201527b53616d706c65206e6f742061637469766520666f7220766f74696e6760201b6044820152606490fd5b508254604051630b9eb40b60e31b815233600482015291929184916001600160a01b0316908281602481855afa908115610c88578391612182575b50511561210f575b508054604051630b9eb40b60e31b81523360048201529190829060249082906001600160a01b03165afa9081156111575784916120ed575b5051156120ac576009546040516320a7c73b60e11b81523360048201526001600160a01b039091169290602081602481875afa908115611bd757859161207a575b501561202557835b848251821015611fc25750807f55b5b37db3e79e0cf5fa16c3b213f5856ebaf6a6e58c56813245533b65587bbd611f9f611f7c600194866126e0565b51611fb3611f8a85896126e0565b51604051938493608085526080850190612606565b903360208501528382036040850152612606565b4260608301520390a101611f40565b93929050823b156111175761200e92611ffc85809460405196879586948593639a6e81ab60e01b855260606004860152606485019061262b565b8381036003190160248501529061262b565b33604483015203925af180156102be57610c035750f35b60405162461bcd60e51b815260206004820152602760248201527f566f746572206e6f74207265676973746572656420696e20766f74696e6720636044820152661bdb9d1c9858dd60ca1b6064820152608490fd5b90506020813d6020116120a4575b816120956020938361222d565b81010312610ff0575138611f38565b3d9150612088565b60405162461bcd60e51b8152602060048201526019602482015278139bdd0818481c1c9bda9958dd081c185c9d1a58da5c185b9d603a1b6044820152606490fd5b61210991503d8086833e612101818361222d565b810190612736565b38611ef7565b803b156102b257819060a46040518094819363020011eb60e11b835233600484015260606024840152600b60648401526a31b7b73a3934b13aba37b960a91b6084840152600160448401525af180156111575761216e575b8390611ebf565b8361217b9194929461222d565b9138612167565b61219691503d8085833e612101818361222d565b38611eb7565b60405162461bcd60e51b815260206004820152600b60248201526a08adae0e8f240c4c2e8c6d60ab1b6044820152606490fd5b60405162461bcd60e51b81526020600482015260116024820152704d69736d6174636865642061727261797360781b6044820152606490fd5b9050346102b257816003193601126102b257600a546001600160a01b03168152602090f35b601f909101601f19168101906001600160401b0382119082101761225057604052565b634e487b7160e01b600052604160045260246000fd5b6001600160401b0381116122505760051b60200190565b6001600160401b03811161225057601f01601f191660200190565b81601f82011215610ff0578035906122af8261227d565b926122bd604051948561222d565b82845260208383010111610ff057816000926020809301838601378301015290565b9080601f83011215610ff05781356122f681612266565b92612304604051948561222d565b81845260208085019260051b82010191838311610ff05760208201905b83821061233057505050505090565b81356001600160401b038111610ff05760209161235287848094880101612298565b815201910190612321565b906040600319830112610ff0576004356001600160401b038111610ff0578261238891600401612298565b91602435906001600160401b038211610ff0576123a791600401612298565b90565b6007548110156123c557600760005260206000200190600090565b634e487b7160e01b600052603260045260246000fd5b90600182811c9216801561240b575b60208310146123f557565b634e487b7160e01b600052602260045260246000fd5b91607f16916123ea565b6040519060008260015491612429836123db565b808352926001811690811561249d575060011461244f575b61244d9250038361222d565b565b506001600090815290916000805160206132448339815191525b81831061248157505090602061244d92820101612441565b6020919350806001915483858901015201910190918492612469565b6020925061244d94915060ff191682840152151560051b820101612441565b60405190600082600254916124d0836123db565b808352926001811690811561249d57506001146124f35761244d9250038361222d565b506002600090815290916000805160206131648339815191525b81831061252557505090602061244d92820101612441565b602091935080600191548385890101520191019091849261250d565b9060405191826000825492612555846123db565b80845293600181169081156125c1575060011461257a575b5061244d9250038361222d565b90506000929192526020600020906000915b8183106125a557505090602061244d928201013861256d565b602091935080600191548385890101520191019091849261258c565b90506020925061244d94915060ff191682840152151560051b8201013861256d565b60005b8381106125f65750506000910152565b81810151838201526020016125e6565b9060209161261f815180928185528580860191016125e3565b601f01601f1916010190565b9080602083519182815201916020808360051b8301019401926000915b83831061265757505050505090565b9091929394602080612675600193601f198682030187528951612606565b97019301930191939290612648565b60e435906001600160a01b0382168203610ff057565b156126a157565b60405162461bcd60e51b8152602060048201526017602482015276159bdd1a5b99c818dbdb9d1c9858dd081b9bdd081cd95d604a1b6044820152606490fd5b80518210156123c55760209160051b010190565b81601f82011215610ff057805161270a8161227d565b92612718604051948561222d565b81845260208284010111610ff0576123a791602080850191016125e3565b90602082820312610ff05781516001600160401b038111610ff0576123a792016126f4565b51906001600160a01b0382168203610ff057565b1561277657565b60405162461bcd60e51b815260206004820152600c60248201526b27b7363c9031b932b0ba37b960a11b6044820152606490fd5b906020808351928381520192019060005b8181106127c85750505090565b82518452602093840193909201916001016127bb565b6040919493926060820195825260208201520152565b156127fb57565b60405162461bcd60e51b815260206004820152601d60248201527f4f6e6c7920766f74696e6720636f6e74726163742063616e2063616c6c0000006044820152606490fd5b9060609261285d61286b9297969597608085526080850190612606565b908382036020850152612606565b9460408201520152565b818110612880575050565b60008155600101612875565b8160011b916000199060031b1c19161790565b90816020910312610ff057518015158103610ff05790565b600554906128c482612266565b916128d2604051938461222d565b80835260056000908152600080516020613144833981519152602085015b8383106128fd5750505050565b60016020819261290c85612541565b8152019201920191906128f0565b6040516361d25a0d60e11b8152602081600481305afa90811561296d5760009161294e575b5061294957600190565b600090565b612967915060203d6020116116785761166a818361222d565b3861293f565b6040513d6000823e3d90fd5b6000546040516308bcf8b560e21b815290602090829060049082906001600160a01b03165afa90811561296d57600091612ac5575b5015612a88576003548015159081612a7b575b50612a405760ff600c5416612a08576000906040516129e160408261222d565b601781527650726f6a656374206973207374696c6c2061637469766560481b602082015290565b600190604051612a1960608261222d565b60238152600080516020613204833981519152602082015262626c6560e81b604082015290565b600190604051612a5160408261222d565b601a81527913585e1a5b5d5b481a5d195c985d1a5bdb9cc81c995858da195960321b602082015290565b9050600b541015386129c1565b600190604051612a9960408261222d565b601c81527b141c9bda9958dd081b585b9d585b1b1e4819195858dd1a5d985d195960221b602082015290565b612ade915060203d6020116116785761166a818361222d565b386129ae565b15612aeb57565b60405162461bcd60e51b815260206004820152601860248201527714dd1bdc9859d94818dbdb9d1c9858dd081b9bdd081cd95d60421b6044820152606490fd5b81519192916001600160401b03811161225057612b4882546123db565b601f8111612bdb575b506020601f8211600114612b79578190612b7593949560009261081e57505061288c565b9055565b601f1982169083600052806000209160005b818110612bc357509583600195969710612baa575b505050811b019055565b015160001960f88460031b161c19169055388080612ba0565b9192602060018192868b015181550194019201612b8b565b612c0790836000526020600020601f840160051c810191602085106108cb57601f0160051c0190612875565b38612b51565b15612c1457565b60405162461bcd60e51b815260206004820152601b60248201527a10530818dbdb9d1c9858dd1cc8185b1c9958591e481b1a5b9ad959602a1b6044820152606490fd5b6000546040516308bcf8b560e21b815290602090829060049082906001600160a01b03165afa90811561296d57600091612d66575b501561244d576003548015159081612d59575b50612d035760ff600c5416612cb057565b600b54604051906060825260236060830152600080516020613204833981519152608083015262626c6560e81b60a083015260208201524260408201526000805160206131e483398151915260c03392a2565b600b546040519060608252601a60608301527913585e1a5b5d5b481a5d195c985d1a5bdb9cc81c995858da195960321b608083015260208201524260408201526000805160206131e483398151915260a03392a2565b9050600b54101538612c9f565b612d7f915060203d6020116116785761166a818361222d565b38612c8c565b9080601f83011215610ff0578151612d9c81612266565b92612daa604051948561222d565b81845260208085019260051b820101928311610ff057602001905b828210612dd25750505090565b60208091612ddf8461275b565b815201910190612dc5565b9080601f83011215610ff0578151612e0181612266565b92612e0f604051948561222d565b81845260208085019260051b820101928311610ff057602001905b828210612e375750505090565b8151815260209182019101612e2a565b906020808351928381520192019060005b818110612e655750505090565b82516001600160a01b0316845260209384019390920191600101612e58565b6009546000906001600160a01b0316801561313f578154604051630caf64f760e11b815291908390839060049082906001600160a01b03165afa8015610c8857839084938591613028575b50815115613021578491612f2a612f0692612f18604051978895869563cdbf3d0160e01b8752606060048801526064870190612e47565b8581036003190160248701529061262b565b838103600319016044850152906127aa565b0381845afa918215610c885783908493612fbc575b508051612f4d575b50505050565b813b15610b4c57918391612f8483612f969560405196879586948593631d70957f60e21b8552604060048601526044850190612e47565b838103600319016024850152906127aa565b03925af180156102be57612fac575b8080612f47565b81612fb69161222d565b38612fa5565b9250503d8084843e612fce818461222d565b8201604083820312610b4c5782516001600160401b038111610b485781612ff6918501612d85565b602084015190936001600160401b03821161301d57613016929101612dea565b9138612f3f565b8580fd5b5050505050565b935050503d8084843e61303b818461222d565b8201608083820312610b4c5782516001600160401b038111610b485781613063918501612d85565b60208401516001600160401b03811161301d5784019180601f8401121561301d5782519261309084612266565b9361309e604051958661222d565b80855260208086019160051b8301019183831161313b5760208101915b83831061310e575050505060408501516001600160401b038111611bf257816130e5918701612dea565b606086015190956001600160401b038211610b4457613105929101612dea565b50909238612ecf565b82516001600160401b038111610b1957602091613130878480948701016126f4565b8152019201916130bb565b8880fd5b505056fe036b6384b5eca791c62761152d0c79bb0604c104a5fb6f4eb0703f3154bb3db0405787fa12a823e0f2b7631cc41b3ba8828b3321ca811111fa75cd3aa3bb5ace9b196abb2588eccefb36f3e6c9b15d9e260c633d5b2e0b8f497e6e71c6c1c1eabb4ba47257d82c025e976bcdc375cc2e26de94efd111bca20cbc9a330d297455a66cc928b5edb82af9bd49922954155ab7b0942694bea4ce44661d9a8736c688aee3ab89a33c4a6f38aa24238aed506e7f6db5e298e1f32a0ede72dbe23112c44e6f206d6f726520756e6c6162656c65642073616d706c657320617661696c619aa934e5a98d12b60dabec0f34647f2b63b8fd257ba6480e7ded4cc1ef24c573b10e2d527612073b26eecdfd717e6a320cf44b4afac2b0732d9fcbe2b7fa0cf6a2646970667358221220b5fff58c8730a9ec0e7d58bc442cfe111cae29ad095ad32bdbc2225e3c23b03664736f6c634300081c0033",
  "linkReferences": {},
  "deployedLinkReferences": {}
}