{
  "_format": "hh-sol-artifact-1",
  "contractName": "ALProjectVoting",
  "sourceName": "contracts/ALProjectVoting.sol",
  "abi": [
    {
      "inputs": [
        {
          "internalType": "address",
          "name": "_project",
          "type": "address"
        },
        {
          "internalType": "string",
          "name": "_votingConsensus",
          "type": "string"
        },
        {
          "internalType": "uint256",
          "name": "_votingTimeoutSeconds",
          "type": "uint256"
        }
      ],
      "stateMutability": "nonpayable",
      "type": "constructor"
    },
    {
      "anonymous": false,
      "inputs": [
        {
          "indexed": false,
          "internalType": "uint256",
          "name": "round",
          "type": "uint256"
        },
        {
          "indexed": false,
          "internalType": "uint256",
          "name": "completedSamples",
          "type": "uint256"
        },
        {
          "indexed": false,
          "internalType": "uint256",
          "name": "timestamp",
          "type": "uint256"
        }
      ],
      "name": "BatchCompleted",
      "type": "event"
    },
    {
      "anonymous": false,
      "inputs": [
        {
          "indexed": false,
          "internalType": "uint256",
          "name": "round",
          "type": "uint256"
        },
        {
          "indexed": false,
          "internalType": "string",
          "name": "sampleId",
          "type": "string"
        },
        {
          "indexed": false,
          "internalType": "string",
          "name": "finalLabel",
          "type": "string"
        },
        {
          "indexed": false,
          "internalType": "uint256",
          "name": "remainingSamples",
          "type": "uint256"
        }
      ],
      "name": "BatchSampleCompleted",
      "type": "event"
    },
    {
      "anonymous": false,
      "inputs": [
        {
          "indexed": false,
          "internalType": "uint256",
          "name": "round",
          "type": "uint256"
        },
        {
          "indexed": false,
          "internalType": "string[]",
          "name": "sampleIds",
          "type": "string[]"
        },
        {
          "indexed": false,
          "internalType": "uint256",
          "name": "startTime",
          "type": "uint256"
        }
      ],
      "name": "BatchStarted",
      "type": "event"
    },
    {
      "anonymous": false,
      "inputs": [
        {
          "indexed": false,
          "internalType": "string",
          "name": "sampleId",
          "type": "string"
        },
        {
          "indexed": false,
          "internalType": "string",
          "name": "label",
          "type": "string"
        }
      ],
      "name": "ConsensusReached",
      "type": "event"
    },
    {
      "anonymous": false,
      "inputs": [
        {
          "indexed": false,
          "internalType": "string",
          "name": "sampleId",
          "type": "string"
        },
        {
          "indexed": false,
          "internalType": "string",
          "name": "finalLabel",
          "type": "string"
        },
        {
          "indexed": false,
          "internalType": "uint256",
          "name": "timestamp",
          "type": "uint256"
        }
      ],
      "name": "LabelStoredInProject",
      "type": "event"
    },
    {
      "anonymous": false,
      "inputs": [
        {
          "indexed": false,
          "internalType": "string",
          "name": "sampleId",
          "type": "string"
        },
        {
          "indexed": false,
          "internalType": "uint256",
          "name": "endTime",
          "type": "uint256"
        }
      ],
      "name": "TimeoutReached",
      "type": "event"
    },
    {
      "anonymous": false,
      "inputs": [
        {
          "indexed": false,
          "internalType": "string",
          "name": "sampleId",
          "type": "string"
        },
        {
          "indexed": true,
          "internalType": "address",
          "name": "voter",
          "type": "address"
        },
        {
          "indexed": false,
          "internalType": "string",
          "name": "label",
          "type": "string"
        },
        {
          "indexed": false,
          "internalType": "bool",
          "name": "support",
          "type": "bool"
        },
        {
          "indexed": false,
          "internalType": "uint256",
          "name": "timestamp",
          "type": "uint256"
        }
      ],
      "name": "VoteSubmitted",
      "type": "event"
    },
    {
      "anonymous": false,
      "inputs": [
        {
          "indexed": false,
          "internalType": "string",
          "name": "sampleId",
          "type": "string"
        },
        {
          "indexed": false,
          "internalType": "uint256",
          "name": "endTime",
          "type": "uint256"
        }
      ],
      "name": "VotingSessionEnded",
      "type": "event"
    },
    {
      "anonymous": false,
      "inputs": [
        {
          "indexed": false,
          "internalType": "string",
          "name": "sampleId",
          "type": "string"
        },
        {
          "indexed": false,
          "internalType": "string",
          "name": "finalLabel",
          "type": "string"
        },
        {
          "indexed": false,
          "internalType": "uint256",
          "name": "endTime",
          "type": "uint256"
        },
        {
          "indexed": false,
          "internalType": "string",
          "name": "reason",
          "type": "string"
        }
      ],
      "name": "VotingSessionFinalized",
      "type": "event"
    },
    {
      "anonymous": false,
      "inputs": [
        {
          "indexed": false,
          "internalType": "string",
          "name": "sampleId",
          "type": "string"
        },
        {
          "indexed": false,
          "internalType": "uint256",
          "name": "startTime",
          "type": "uint256"
        }
      ],
      "name": "VotingSessionStarted",
      "type": "event"
    },
    {
      "inputs": [
        {
          "internalType": "uint256",
          "name": "",
          "type": "uint256"
        }
      ],
      "name": "batches",
      "outputs": [
        {
          "internalType": "uint256",
          "name": "round",
          "type": "uint256"
        },
        {
          "internalType": "uint256",
          "name": "completedCount",
          "type": "uint256"
        },
        {
          "internalType": "bool",
          "name": "isActive",
          "type": "bool"
        },
        {
          "internalType": "uint256",
          "name": "startTime",
          "type": "uint256"
        }
      ],
      "stateMutability": "view",
      "type": "function"
    },
    {
      "inputs": [
        {
          "internalType": "string",
          "name": "sampleId",
          "type": "string"
        }
      ],
      "name": "checkAndFinalizeTimeout",
      "outputs": [],
      "stateMutability": "nonpayable",
      "type": "function"
    },
    {
      "inputs": [
        {
          "internalType": "string[]",
          "name": "allSampleIds",
          "type": "string[]"
        },
        {
          "internalType": "bool[]",
          "name": "sampleActiveStates",
          "type": "bool[]"
        },
        {
          "internalType": "string[]",
          "name": "labelSpace",
          "type": "string[]"
        },
        {
          "internalType": "uint256",
          "name": "votingTimeout",
          "type": "uint256"
        },
        {
          "internalType": "uint256",
          "name": "_currentRound",
          "type": "uint256"
        }
      ],
      "name": "computeActiveBatch",
      "outputs": [
        {
          "internalType": "string[]",
          "name": "activeSampleIds",
          "type": "string[]"
        },
        {
          "internalType": "string[]",
          "name": "sampleData",
          "type": "string[]"
        },
        {
          "internalType": "string[]",
          "name": "labelOptions",
          "type": "string[]"
        },
        {
          "internalType": "uint256",
          "name": "timeRemaining",
          "type": "uint256"
        },
        {
          "internalType": "uint256",
          "name": "round",
          "type": "uint256"
        }
      ],
      "stateMutability": "view",
      "type": "function"
    },
    {
      "inputs": [
        {
          "internalType": "uint256",
          "name": "round",
          "type": "uint256"
        },
        {
          "internalType": "string[]",
          "name": "sampleIds",
          "type": "string[]"
        },
        {
          "internalType": "bool[]",
          "name": "sampleActiveStates",
          "type": "bool[]"
        }
      ],
      "name": "computeBatchProgress",
      "outputs": [
        {
          "internalType": "uint256",
          "name": "_round",
          "type": "uint256"
        },
        {
          "internalType": "uint256",
          "name": "totalSamples",
          "type": "uint256"
        },
        {
          "internalType": "uint256",
          "name": "activeSamplesCount",
          "type": "uint256"
        },
        {
          "internalType": "uint256",
          "name": "completedSamples",
          "type": "uint256"
        },
        {
          "internalType": "string[]",
          "name": "_sampleIds",
          "type": "string[]"
        },
        {
          "internalType": "bool",
          "name": "batchActive",
          "type": "bool"
        }
      ],
      "stateMutability": "pure",
      "type": "function"
    },
    {
      "inputs": [
        {
          "internalType": "address[]",
          "name": "participants",
          "type": "address[]"
        },
        {
          "internalType": "string[]",
          "name": "roles",
          "type": "string[]"
        },
        {
          "internalType": "uint256[]",
          "name": "weights",
          "type": "uint256[]"
        }
      ],
      "name": "computeEligibleVoters",
      "outputs": [
        {
          "internalType": "address[]",
          "name": "voters",
          "type": "address[]"
        },
        {
          "internalType": "uint256[]",
          "name": "eligibleWeights",
          "type": "uint256[]"
        }
      ],
      "stateMutability": "pure",
      "type": "function"
    },
    {
      "inputs": [],
      "name": "consensusThreshold",
      "outputs": [
        {
          "internalType": "uint256",
          "name": "",
          "type": "uint256"
        }
      ],
      "stateMutability": "view",
      "type": "function"
    },
    {
      "inputs": [],
      "name": "currentRound",
      "outputs": [
        {
          "internalType": "uint256",
          "name": "",
          "type": "uint256"
        }
      ],
      "stateMutability": "view",
      "type": "function"
    },
    {
      "inputs": [
        {
          "internalType": "uint256",
          "name": "round",
          "type": "uint256"
        }
      ],
      "name": "endBatchVoting",
      "outputs": [],
      "stateMutability": "nonpayable",
      "type": "function"
    },
    {
      "inputs": [
        {
          "internalType": "uint256",
          "name": "round",
          "type": "uint256"
        }
      ],
      "name": "getBatchSamples",
      "outputs": [
        {
          "internalType": "string[]",
          "name": "",
          "type": "string[]"
        }
      ],
      "stateMutability": "view",
      "type": "function"
    },
    {
      "inputs": [
        {
          "internalType": "uint256",
          "name": "round",
          "type": "uint256"
        }
      ],
      "name": "getBatchStatus",
      "outputs": [
        {
          "internalType": "bool",
          "name": "isActive",
          "type": "bool"
        },
        {
          "internalType": "uint256",
          "name": "totalSamples",
          "type": "uint256"
        },
        {
          "internalType": "uint256",
          "name": "completedSamples",
          "type": "uint256"
        },
        {
          "internalType": "uint256",
          "name": "remainingSamples",
          "type": "uint256"
        },
        {
          "internalType": "uint256",
          "name": "startTime",
          "type": "uint256"
        },
        {
          "internalType": "string[]",
          "name": "sampleIds",
          "type": "string[]"
        },
        {
          "internalType": "string[]",
          "name": "sampleDataHashes",
          "type": "string[]"
        },
        {
          "internalType": "uint256[]",
          "name": "sampleOriginalIndices",
          "type": "uint256[]"
        }
      ],
      "stateMutability": "view",
      "type": "function"
    },
    {
      "inputs": [],
      "name": "getCurrentBatchProgress",
      "outputs": [
        {
          "internalType": "uint256",
          "name": "round",
          "type": "uint256"
        },
        {
          "internalType": "bool",
          "name": "isActive",
          "type": "bool"
        },
        {
          "internalType": "uint256",
          "name": "totalSamples",
          "type": "uint256"
        },
        {
          "internalType": "uint256",
          "name": "completedSamples",
          "type": "uint256"
        },
        {
          "internalType": "string[]",
          "name": "sampleIds",
          "type": "string[]"
        }
      ],
      "stateMutability": "view",
      "type": "function"
    },
    {
      "inputs": [
        {
          "internalType": "string",
          "name": "sampleId",
          "type": "string"
        }
      ],
      "name": "getFinalLabel",
      "outputs": [
        {
          "internalType": "string",
          "name": "",
          "type": "string"
        }
      ],
      "stateMutability": "view",
      "type": "function"
    },
    {
      "inputs": [
        {
          "internalType": "string",
          "name": "sampleId",
          "type": "string"
        }
      ],
      "name": "getSampleOriginalIndex",
      "outputs": [
        {
          "internalType": "uint256",
          "name": "",
          "type": "uint256"
        }
      ],
      "stateMutability": "view",
      "type": "function"
    },
    {
      "inputs": [],
      "name": "getVoterList",
      "outputs": [
        {
          "components": [
            {
              "internalType": "address",
              "name": "addr",
              "type": "address"
            },
            {
              "internalType": "uint256",
              "name": "weight",
              "type": "uint256"
            }
          ],
          "internalType": "struct ALProjectVoting.Voter[]",
          "name": "",
          "type": "tuple[]"
        }
      ],
      "stateMutability": "view",
      "type": "function"
    },
    {
      "inputs": [
        {
          "internalType": "string",
          "name": "sampleId",
          "type": "string"
        }
      ],
      "name": "getVotes",
      "outputs": [
        {
          "components": [
            {
              "internalType": "address",
              "name": "voter",
              "type": "address"
            },
            {
              "internalType": "string",
              "name": "label",
              "type": "string"
            },
            {
              "internalType": "bool",
              "name": "support",
              "type": "bool"
            },
            {
              "internalType": "uint256",
              "name": "timestamp",
              "type": "uint256"
            }
          ],
          "internalType": "struct ALProjectVoting.Vote[]",
          "name": "",
          "type": "tuple[]"
        }
      ],
      "stateMutability": "view",
      "type": "function"
    },
    {
      "inputs": [
        {
          "internalType": "string",
          "name": "sampleId",
          "type": "string"
        }
      ],
      "name": "getVotingDistribution",
      "outputs": [
        {
          "internalType": "string[]",
          "name": "labels",
          "type": "string[]"
        },
        {
          "internalType": "uint256[]",
          "name": "voteCounts",
          "type": "uint256[]"
        },
        {
          "internalType": "uint256[]",
          "name": "voteWeights",
          "type": "uint256[]"
        }
      ],
      "stateMutability": "view",
      "type": "function"
    },
    {
      "inputs": [
        {
          "internalType": "string",
          "name": "sampleId",
          "type": "string"
        }
      ],
      "name": "getVotingResult",
      "outputs": [
        {
          "internalType": "bool",
          "name": "isFinalized",
          "type": "bool"
        },
        {
          "internalType": "string",
          "name": "finalLabel",
          "type": "string"
        },
        {
          "internalType": "uint256",
          "name": "totalVotes",
          "type": "uint256"
        },
        {
          "internalType": "uint256",
          "name": "votedCount",
          "type": "uint256"
        }
      ],
      "stateMutability": "view",
      "type": "function"
    },
    {
      "inputs": [
        {
          "internalType": "string",
          "name": "sampleId",
          "type": "string"
        }
      ],
      "name": "getVotingSession",
      "outputs": [
        {
          "internalType": "uint256",
          "name": "startTime",
          "type": "uint256"
        },
        {
          "internalType": "bool",
          "name": "isActive",
          "type": "bool"
        },
        {
          "internalType": "bool",
          "name": "isFinalized",
          "type": "bool"
        },
        {
          "internalType": "string",
          "name": "finalLabel",
          "type": "string"
        }
      ],
      "stateMutability": "view",
      "type": "function"
    },
    {
      "inputs": [
        {
          "internalType": "string",
          "name": "sampleId",
          "type": "string"
        }
      ],
      "name": "getVotingSessionStatus",
      "outputs": [
        {
          "internalType": "bool",
          "name": "isActive",
          "type": "bool"
        },
        {
          "internalType": "bool",
          "name": "isFinalized",
          "type": "bool"
        },
        {
          "internalType": "string",
          "name": "finalLabel",
          "type": "string"
        },
        {
          "internalType": "uint256",
          "name": "startTime",
          "type": "uint256"
        },
        {
          "internalType": "uint256",
          "name": "timeRemaining",
          "type": "uint256"
        },
        {
          "internalType": "uint256",
          "name": "votedCount",
          "type": "uint256"
        },
        {
          "internalType": "uint256",
          "name": "totalVoters",
          "type": "uint256"
        }
      ],
      "stateMutability": "view",
      "type": "function"
    },
    {
      "inputs": [
        {
          "internalType": "string",
          "name": "sampleId",
          "type": "string"
        },
        {
          "internalType": "address",
          "name": "user",
          "type": "address"
        }
      ],
      "name": "hasUserVoted",
      "outputs": [
        {
          "internalType": "bool",
          "name": "",
          "type": "bool"
        }
      ],
      "stateMutability": "view",
      "type": "function"
    },
    {
      "inputs": [
        {
          "internalType": "string",
          "name": "sampleId",
          "type": "string"
        }
      ],
      "name": "isTimeoutReached",
      "outputs": [
        {
          "internalType": "bool",
          "name": "",
          "type": "bool"
        }
      ],
      "stateMutability": "view",
      "type": "function"
    },
    {
      "inputs": [
        {
          "internalType": "string",
          "name": "sampleId",
          "type": "string"
        }
      ],
      "name": "isVotingActive",
      "outputs": [
        {
          "internalType": "bool",
          "name": "",
          "type": "bool"
        }
      ],
      "stateMutability": "view",
      "type": "function"
    },
    {
      "inputs": [
        {
          "internalType": "string",
          "name": "sampleId",
          "type": "string"
        },
        {
          "internalType": "string",
          "name": "finalLabel",
          "type": "string"
        }
      ],
      "name": "notifyMainContractExternal",
      "outputs": [],
      "stateMutability": "nonpayable",
      "type": "function"
    },
    {
      "inputs": [],
      "name": "project",
      "outputs": [
        {
          "internalType": "address",
          "name": "",
          "type": "address"
        }
      ],
      "stateMutability": "view",
      "type": "function"
    },
    {
      "inputs": [
        {
          "internalType": "address[]",
          "name": "_voters",
          "type": "address[]"
        },
        {
          "internalType": "uint256[]",
          "name": "_weights",
          "type": "uint256[]"
        }
      ],
      "name": "setVoters",
      "outputs": [],
      "stateMutability": "nonpayable",
      "type": "function"
    },
    {
      "inputs": [
        {
          "internalType": "string[]",
          "name": "sampleIds",
          "type": "string[]"
        },
        {
          "internalType": "uint256",
          "name": "round",
          "type": "uint256"
        },
        {
          "internalType": "string[]",
          "name": "sampleDataHashes",
          "type": "string[]"
        },
        {
          "internalType": "uint256[]",
          "name": "originalIndices",
          "type": "uint256[]"
        }
      ],
      "name": "startBatchVoting",
      "outputs": [],
      "stateMutability": "nonpayable",
      "type": "function"
    },
    {
      "inputs": [
        {
          "internalType": "string[]",
          "name": "sampleIds",
          "type": "string[]"
        },
        {
          "internalType": "string[]",
          "name": "labels",
          "type": "string[]"
        },
        {
          "internalType": "bool[]",
          "name": "support",
          "type": "bool[]"
        }
      ],
      "name": "submitBatchVote",
      "outputs": [],
      "stateMutability": "nonpayable",
      "type": "function"
    },
    {
      "inputs": [
        {
          "internalType": "string[]",
          "name": "sampleIds",
          "type": "string[]"
        },
        {
          "internalType": "string[]",
          "name": "labels",
          "type": "string[]"
        },
        {
          "internalType": "address",
          "name": "voter",
          "type": "address"
        }
      ],
      "name": "submitBatchVoteOnBehalf",
      "outputs": [],
      "stateMutability": "nonpayable",
      "type": "function"
    },
    {
      "inputs": [
        {
          "internalType": "uint256",
          "name": "",
          "type": "uint256"
        }
      ],
      "name": "voterList",
      "outputs": [
        {
          "internalType": "address",
          "name": "",
          "type": "address"
        }
      ],
      "stateMutability": "view",
      "type": "function"
    },
    {
      "inputs": [
        {
          "internalType": "address",
          "name": "",
          "type": "address"
        }
      ],
      "name": "voterWeights",
      "outputs": [
        {
          "internalType": "uint256",
          "name": "",
          "type": "uint256"
        }
      ],
      "stateMutability": "view",
      "type": "function"
    },
    {
      "inputs": [
        {
          "internalType": "string",
          "name": "",
          "type": "string"
        },
        {
          "internalType": "uint256",
          "name": "",
          "type": "uint256"
        }
      ],
      "name": "votes",
      "outputs": [
        {
          "internalType": "address",
          "name": "voter",
          "type": "address"
        },
        {
          "internalType": "string",
          "name": "label",
          "type": "string"
        },
        {
          "internalType": "bool",
          "name": "support",
          "type": "bool"
        },
        {
          "internalType": "uint256",
          "name": "timestamp",
          "type": "uint256"
        }
      ],
      "stateMutability": "view",
      "type": "function"
    },
    {
      "inputs": [],
      "name": "votingConsensus",
      "outputs": [
        {
          "internalType": "string",
          "name": "",
          "type": "string"
        }
      ],
      "stateMutability": "view",
      "type": "function"
    },
    {
      "inputs": [
        {
          "internalType": "string",
          "name": "",
          "type": "string"
        }
      ],
      "name": "votingSessions",
      "outputs": [
        {
          "internalType": "uint256",
          "name": "startTime",
          "type": "uint256"
        },
        {
          "internalType": "bool",
          "name": "isActive",
          "type": "bool"
        },
        {
          "internalType": "bool",
          "name": "isFinalized",
          "type": "bool"
        },
        {
          "internalType": "string",
          "name": "finalLabel",
          "type": "string"
        },
        {
          "internalType": "uint256",
          "name": "totalVoters",
          "type": "uint256"
        },
        {
          "internalType": "uint256",
          "name": "round",
          "type": "uint256"
        }
      ],
      "stateMutability": "view",
      "type": "function"
    },
    {
      "inputs": [],
      "name": "votingTimeoutSeconds",
      "outputs": [
        {
          "internalType": "uint256",
          "name": "",
          "type": "uint256"
        }
      ],
      "stateMutability": "view",
      "type": "function"
    },
    {
      "inputs": [
        {
          "internalType": "string",
          "name": "sampleId",
          "type": "string"
        }
      ],
      "name": "wasConsensusAchieved",
      "outputs": [
        {
          "internalType": "bool",
          "name": "",
          "type": "bool"
        }
      ],
      "stateMutability": "view",
      "type": "function"
    }
  ],
  "bytecode": "0x60806040523461029757614b91803803806100198161029c565b9283398101906060818303126102975780516001600160a01b03811691908290036102975760208101516001600160401b03811161029757810183601f82011215610297578051906001600160401b03821161023557610082601f8301601f191660200161029c565b94828652602083830101116102975760005b82811061028257505060009084016020015260400151603360015590801561024b57600080546001600160a01b03191691909117905581516001600160401b03811161023557600354600181811c9116801561022b575b602082101461021557601f81116101b0575b50602092601f821160011461014b5792819293600092610140575b50508160011b916000199060031b1c1916176003555b6002556040516148cf90816102c28239f35b015190503880610118565b601f198216936003600052806000209160005b868110610198575083600195961061017f575b505050811b0160035561012e565b015160001960f88460031b161c19169055388080610171565b9192602060018192868501518155019401920161015e565b60036000527fc2575a0e9e593c00f959f8c92f12db2869c3395a3b0502d05e2516446f71f85b601f830160051c8101916020841061020b575b601f0160051c01905b8181106101ff57506100fd565b600081556001016101f2565b90915081906101e9565b634e487b7160e01b600052602260045260246000fd5b90607f16906100eb565b634e487b7160e01b600052604160045260246000fd5b60405162461bcd60e51b815260206004820152600f60248201526e496e76616c6964206164647265737360881b6044820152606490fd5b80602080928401015182828901015201610094565b600080fd5b6040519190601f01601f191682016001600160401b038111838210176102355760405256fe6080604052600436101561001257600080fd5b60003560e01c806304574fe814612b7f57806326a0613a14612b455780632d1bbc8e146129fd57806333f9625d146121f9578063367cb924146120975780634149738514612009578063414f8e7614611fcb578063428f833814611f7e57806350e2e8af14611f3c57806355d389a414611e5b5780635c97951e14611d2d5780636042ad6114611c715780636787225b14611c2f57806368acb1ab14611bec57806372678fcc14611a8657806375c255fc1461185f57806379c4ab15146117da578063805265e51461167a5780638520eb781461160c5780638a19c8bc146115ee5780639a6e81ab14611185578063a58df19a14611167578063a76fd84e14611061578063ab40d3ba14610f92578063b28d92ae14610e52578063b32c4d8d14610dff578063b49c447e14610d8b578063b8c3903414610c31578063cdbf3d01146108e3578063db7cde8b146107c2578063e7016ca71461077e578063f02a0f751461029c578063f18a5cec146101e9578063f60ca60d146101c05763f9b0b5b91461019d57600080fd5b346101bb5760003660031901126101bb576020600154604051908152f35b600080fd5b346101bb5760003660031901126101bb576000546040516001600160a01b039091168152602090f35b346101bb5760203660031901126101bb576004356001600160401b0381116101bb57602061021e610231923690600401612c95565b8160405193828580945193849201612cdc565b81016007815203019020805460018201549161024f60028201612f0e565b61028d600460038401549301549160ff60405196879687528181161515602088015260081c161515604086015260c0606086015260c0850190612cff565b91608084015260a08301520390f35b346101bb5760603660031901126101bb576004356001600160401b0381116101bb576102cc903690600401612dc8565b6024356001600160401b0381116101bb576102eb903690600401612dc8565b6044356001600160401b0381116101bb5761030a903690600401613088565b336000526004602052604060002054156107405782518251036106fb5782518151036106b75790339060005b845181101561057c578061034c600192876131ac565b5161035782856131ac565b519061036383886131ac565b5115159160405161039760ff878551936020818189019661038581838a612cdc565b81016007815203019020015416613424565b6103c660ff8760405160208188516103b081838a612cdc565b81016007815203019020015460081c161561346c565b6103fe60ff60406005815160208189516103e181838b612cdc565b81016007815203019020016000908c8252602052205416156134b7565b61040783613e48565b6105625760008051602061487a83398151915292916104c6916104676040516020818751610436818388612cdc565b810160068152030190206040519061044d82612c21565b33825284602083015288604083015242606083015261352f565b85604060058151602081895161047e81838a612cdc565b81016007815203019020016000908d8252602052208960ff198254161790556104df575b506104b860405193608085526080850190612cff565b908382036020850152612cff565b9260408201524260608201528033930390a25b01610336565b610508600660405160208188516104f7818389612cdc565b810160078152030190200183612fd8565b6105128154613373565b905533600052600460205261055a6105526007610542602060406000205495604051809381928c51928391612cdc565b8101848152030190200184612fd8565b918254613417565b90558b6104a2565b50506105779150610571613502565b90613e82565b6104d9565b848051610586575b005b61059a61059460049261319f565b51612fb2565b0154801515806106a8575b6105ab57005b60005260086020526105c360016040600020016131e3565b60005b815181101561058457806105dc600192846131ac565b5160405160ff84835192602081818701956105f8818389612cdc565b810160078152030190200154169081610675575b50610619575b50016105c6565b61062281614384565b8051156106635760008051602061485a8339815191529161064a6106446136df565b82613e82565b6106596040519283928361334b565b0390a15b83610612565b50610670906105716136a7565b61065d565b60ff915061069160208692604051809381928851928391612cdc565b81016007815203019020015460081c16158561060c565b506106b2816142dd565b6105a5565b606460405162461bcd60e51b815260206004820152602060248201527f4d69736d6174636865642073616d706c6549647320616e6420737570706f72746044820152fd5b60405162461bcd60e51b815260206004820152601f60248201527f4d69736d6174636865642073616d706c6549647320616e64206c6162656c73006044820152606490fd5b60405162461bcd60e51b81526020600482015260166024820152752737ba1030903932b3b4b9ba32b932b2103b37ba32b960511b6044820152606490fd5b346101bb5760203660031901126101bb576004356001600160401b0381116101bb576107b86107b36020923690600401612c95565b613d99565b6040519015158152f35b346101bb5760203660031901126101bb576004356001600160401b0381116101bb576107f2903690600401612c95565b604051908051916020818184019461080b818388612cdc565b8101600781520301902060009260006005549060058401905b82811061089657505050600261085660206108689360ff600187015460081c1696604051938492839251928391612cdc565b81016006815203019020549201612f0e565b9261088760405194859415158552608060208601526080850190612cff565b91604084015260608301520390f35b60ff60406108a383612ea3565b905460039190911b1c6001600160a01b0316600090815260208590522054166108cf575b600101610824565b956108db600191613373565b9690506108c7565b346101bb5760603660031901126101bb576004356001600160401b0381116101bb5761091390369060040161301a565b6024356001600160401b0381116101bb57610932903690600401612dc8565b906044356001600160401b0381116101bb57610952903690600401612e46565b908051835103610be1578051825103610b9057600090815b8151811015610a145761097d81866131ac565b516020815191012061098d613cd2565b602081519101201480156109ec575b80156109c4575b6109b0575b60010161096a565b916109bc600191613373565b9290506109a8565b506109cf81866131ac565b51602081519101206109df613d20565b60208151910120146109a3565b506109f781866131ac565b5160208151910120610a07613cf7565b602081519101201461099c565b509091610a2083612db1565b610a2d6040519182612c57565b838152610a4e610a3c85612db1565b602083019590601f190136873761316d565b9260009560005b8251811015610b3557610a6881836131ac565b5160208151910120610a78613cd2565b60208151910120148015610b0d575b8015610ae5575b610a9b575b600101610a55565b96600190610add906001600160a01b03610ab58b876131ac565b5116610ac182886131ac565b52610acc8a886131ac565b51610ad7828a6131ac565b52613373565b979050610a93565b50610af081836131ac565b5160208151910120610b00613d20565b6020815191012014610a8e565b50610b1881836131ac565b5160208151910120610b28613cf7565b6020815191012014610a87565b868487604051916040830190604084525180915260608301939060005b818110610b71578480610b6d88878382036020850152612d7d565b0390f35b82516001600160a01b0316865260209586019590920191600101610b52565b60405162461bcd60e51b8152602060048201526024808201527f5061727469636970616e74732f77656967687473206c656e677468206d69736d6044820152630c2e8c6d60e31b6064820152608490fd5b60405162461bcd60e51b815260206004820152602260248201527f5061727469636970616e74732f726f6c6573206c656e677468206d69736d61746044820152610c6d60f31b6064820152608490fd5b346101bb5760203660031901126101bb57600435610c5a60018060a01b0360005416331461323b565b80600052600860205260ff6003604060002001541615610d53576000526008602052610c8c60016040600020016131e3565b60005b81518110156105845780610ca5600192846131ac565b5160405160ff8483519260208181870195610cc1818389612cdc565b810160078152030190200154169081610d20575b50610ce2575b5001610c8f565b610d1a90604090610cf582519283612c57565b60138252724d616e75616c20626174636820656e64696e6760681b6020830152613e82565b83610cdb565b60ff9150610d3c60208692604051809381928851928391612cdc565b81016007815203019020015460081c161585610cd5565b60405162461bcd60e51b815260206004820152601060248201526f4261746368206e6f742061637469766560801b6044820152606490fd5b346101bb5760203660031901126101bb576004356001600160401b0381116101bb57610df1610b6d610dcc610dc7610de3943690600401612c95565b613a7e565b919390604051958695606087526060870190612d24565b908582036020870152612d7d565b908382036040850152612d7d565b346101bb5760203660031901126101bb57600435600052600860205260806040600020805490600281015490600460ff600383015416910154916040519384526020840152151560408301526060820152f35b346101bb5760003660031901126101bb57600554610e6f81612db1565b90610e7d6040519283612c57565b808252601f19610e8c82612db1565b0160005b818110610f6d57505060005b818110610efe578260405180916020820160208352815180915260206040840192019060005b818110610ed0575050500390f35b825180516001600160a01b031685526020908101518186015286955060409094019390920191600101610ec2565b80610f0a600192612ea3565b838060a01b0391549060031b1c16610f2182612ea3565b848060a01b0391549060031b1c16600052600460205260406000205460405191610f4a83612c3c565b82526020820152610f5b82866131ac565b52610f6681856131ac565b5001610e9c565b602090604051610f7c81612c3c565b6000815260008382015282828701015201610e90565b346101bb5760a03660031901126101bb576004356001600160401b0381116101bb57610fc2903690600401612dc8565b6024356001600160401b0381116101bb57610fe1903690600401613088565b604435916001600160401b0383116101bb5761101c611052926110449261100f611036963690600401612dc8565b6084359260643592613759565b93959260409591955197889760a0895260a0890190612d24565b908782036020890152612d24565b908582036040870152612d24565b91606084015260808301520390f35b346101bb5760603660031901126101bb576024356001600160401b0381116101bb57611091903690600401612dc8565b6044356001600160401b0381116101bb576110b0903690600401613088565b906110be815183511461370e565b600080805b8351821015611114576110d682866131ac565b51156110f0576110e7600191613373565b915b01906110c3565b908351611100575b6001906110e9565b9161110c600191613373565b9290506110f8565b835183811515868161115d575b6111519192604051958695600435875260208701526040860152606085015260c0608085015260c0840190612d24565b90151560a08301520390f35b8415159150611121565b346101bb5760003660031901126101bb576020600254604051908152f35b346101bb5760603660031901126101bb576004356001600160401b0381116101bb576111b5903690600401612dc8565b6024356001600160401b0381116101bb576111d4903690600401612dc8565b6044356001600160a01b038116908190036101bb576111fe60018060a01b0360005416331461323b565b82518251036115b55782511561158257806000526004602052604060002054156115465760009160005b84518110156114305761123b81866131ac565b5161124682846131ac565b5160405161126660ff60018551936020818189019661038581838a612cdc565b61128060ff600160405160208188516103b081838a612cdc565b6112b860ff604060058151602081895161129b81838b612cdc565b81016007815203019020016000908a8252602052205416156134b7565b83156113f9575b918591600194936112cf83613e48565b6113e557916113cf6104b89260008051602061487a833981519152946113326040516020818751611301818388612cdc565b810160068152030190206040519061131882612c21565b8982528460208301528b604083015242606083015261352f565b6040600581516020818851611348818389612cdc565b8101600781520301902001600090898252602052208960ff1982541617905561137f600660405160208188516104f7818389612cdc565b6113898154613373565b90558660005260046020526113b96105526007610542602060406000205495604051809381928c51928391612cdc565b9055604051938493608085526080850190612cff565b8660408301524260608301520390a25b01611228565b50506113f49150610571613502565b6113df565b95506001929185916004604051602081806114188d8851928391612cdc565b810160078152030190200154979193945091506112bf565b8380151580611537575b61144057005b600052600860205261145860016040600020016131e3565b60005b81518110156105845780611471600192846131ac565b5160405160ff848351926020818187019561148d818389612cdc565b810160078152030190200154169081611504575b506114ae575b500161145b565b6114b781614384565b8051156114f25760008051602061485a833981519152916114d96106446136df565b6114e86040519283928361334b565b0390a15b836114a7565b506114ff906105716136a7565b6114ec565b60ff915061152060208692604051809381928851928391612cdc565b81016007815203019020015460081c1615856114a1565b50611541816142dd565b61143a565b60405162461bcd60e51b8152602060048201526014602482015273159bdd195c881b9bdd081c9959da5cdd195c995960621b6044820152606490fd5b60405162461bcd60e51b815260206004820152600b60248201526a08adae0e8f240c4c2e8c6d60ab1b6044820152606490fd5b60405162461bcd60e51b81526020600482015260116024820152704d69736d6174636865642061727261797360781b6044820152606490fd5b346101bb5760003660031901126101bb576020600954604051908152f35b346101bb5760003660031901126101bb57600954806000526008602052604060002090610b6d60ff600384015416926001810161164f60028254930154916131e3565b916040519586958652151560208601526040850152606084015260a0608084015260a0830190612d24565b346101bb5760203660031901126101bb576004356001600160401b0381116101bb57602061021e6116af923690600401612c95565b810160068152030190208054906116c582612db1565b916116d36040519384612c57565b80835260208301809260005260206000206000915b83831061178657848660405191829160208301906020845251809152604083019060408160051b85010192916000905b82821061172757505050500390f35b919360019193955060208091603f19898203018552875190848060a01b038251168152606080611764858501516080878601526080850190612cff565b9360408101511515604085015201519101529601920192018594939192611718565b6004602060019260405161179981612c21565b848060a01b0386541681526117af858701612f0e565b8382015260ff60028701541615156040820152600386015460608201528152019201920191906116e8565b346101bb5760203660031901126101bb576004356001600160401b0381116101bb57602061021e61180f923690600401612c95565b810160078152030190208054610b6d61182f600260018501549401612f0e565b60ff60405194859485528181161515602086015260081c1615156040840152608060608401526080830190612cff565b346101bb5760403660031901126101bb576004356001600160401b0381116101bb5761188f90369060040161301a565b6024356001600160401b0381116101bb576118ae903690600401612e46565b906118c460018060a01b0360005416331461323b565b8051825103611a4c5760005b60055481101561190957806118e6600192612ea3565b838060a01b0391549060031b1c16600052600460205260006040812055016118d0565b50600554600060055580611a13575b5060005b81518110156105845761192f81846131ac565b51156119ce5761193f81846131ac565b516001600160a01b0361195283856131ac565b51166000908152600460205260409020556001600160a01b0361197582846131ac565b51600554929116600160401b8310156119b857611999836001809501600555612ea3565b819291549060031b91821b91858060a01b03901b19161790550161191c565b634e487b7160e01b600052604160045260246000fd5b60405162461bcd60e51b815260206004820152601d60248201527f576569676874206d7573742062652067726561746572207468616e20300000006044820152606490fd5b6005600052611a46907f036b6384b5eca791c62761152d0c79bb0604c104a5fb6f4eb0703f3154bb3db090810190613284565b82611918565b60405162461bcd60e51b81526020600482015260126024820152714d69736d617463686564206c656e6774687360701b6044820152606490fd5b346101bb5760203660031901126101bb576004356001600160401b0381116101bb57602061021e611abb923690600401612c95565b81016007815203019020600060025480151580611bde575b80611bcc575b611ba7575b5060009060009260055460058201945b818110611b5a57505060ff9350600181015492815492611b41611b18600260038601549501612f0e565b6040519787818a99161515895260081c161515602088015260e0604088015260e0870190612cff565b936060860152608085015260a084015260c08301520390f35b60ff6040611b6783612ea3565b905460039190911b1c6001600160a01b031660009081526020899052205416611b93575b600101611aee565b93611b9f600191613373565b949050611b8b565b611bb2908354613417565b80421015611ade57611bc6915042906131c0565b82611ade565b5060ff600184015460081c1615611ad9565b5060ff600184015416611ad3565b346101bb5760203660031901126101bb576004356000526008602052610b6d611c1b60016040600020016131e3565b604051918291602083526020830190612d24565b346101bb5760203660031901126101bb576004356001600160401b0381116101bb57611c69611c646020923690600401612c95565b613382565b604051908152f35b346101bb5760403660031901126101bb576004356001600160401b0381116101bb57611ca1903690600401612c95565b611cbd6020602435928160405193828580945193849201612cdc565b810160068152030190209081548110156101bb57611cda91612ffe565b5080546001600160a01b0316611cf260018301612f0e565b91600360ff600283015416910154611d1c6040519485948552608060208601526080850190612cff565b911515604084015260608301520390f35b346101bb5760403660031901126101bb576004356001600160401b0381116101bb57611d5d903690600401612c95565b6024356001600160401b0381116101bb57611d7c903690600401612c95565b90303303611e21576000546001600160a01b0316803b156101bb576000604051809263160c220d60e31b8252818381611db989896004840161334b565b03925af1611e10575b506000546001600160a01b031691823b156101bb57611dfb92600092836040518096819582946314faf32d60e11b84526004840161334b565b03925af1611e0557005b600061058491612c57565b6000611e1b91612c57565b82611dc2565b60405162461bcd60e51b8152602060048201526012602482015271496e7465726e616c2063616c6c206f6e6c7960701b6044820152606490fd5b346101bb5760003660031901126101bb576040516000600354611e7d81612ed4565b8084529060018116908115611f185750600114611eb9575b610b6d83611ea581850382612c57565b604051918291602083526020830190612cff565b600360009081527fc2575a0e9e593c00f959f8c92f12db2869c3395a3b0502d05e2516446f71f85b939250905b808210611efe57509091508101602001611ea5611e95565b919260018160209254838588010152019101909291611ee6565b60ff191660208086019190915291151560051b84019091019150611ea59050611e95565b346101bb5760203660031901126101bb576004356005548110156101bb57611f65602091612ea3565b905460405160039290921b1c6001600160a01b03168152f35b346101bb5760203660031901126101bb576004356001600160401b0381116101bb57611ea56002611fbb602061021e610b6d953690600401612c95565b8101600781520301902001612f0e565b346101bb5760203660031901126101bb576004356001600160a01b038116908190036101bb5760005260046020526020604060002054604051908152f35b346101bb5760403660031901126101bb576004356001600160401b0381116101bb57612039903690600401612c95565b602435906001600160a01b03821682036101bb5761206860206005928160405193828580945193849201612cdc565b81016007815203019020019060018060a01b0316600052602052602060ff604060002054166040519015158152f35b346101bb5760203660031901126101bb576004356001600160401b0381116101bb576120c7903690600401612c95565b61212860ff6001612112602060405161210185858951938581818d01966120ef81838a612cdc565b810160078152030190200154166132ca565b604051809381928951928391612cdc565b81016007815203019020015460081c161561330b565b61213181613e48565b156121ba576121b57ffe2a617c3a0856bbd203e77cee3d518a00f599c8a955224e80b1d0a1afd95703916121a760405161216c606082612c57565b602281527f54696d656f75742072656163686564202d2065787465726e616c20747269676760208201526132b960f11b604082015282613e82565b6040519182914290836132ae565b0390a1005b60405162461bcd60e51b8152602060048201526017602482015276151a5b595bdd5d081b9bdd081c995858da1959081e595d604a1b6044820152606490fd5b346101bb5760803660031901126101bb576004356001600160401b0381116101bb57612229903690600401612dc8565b6024356044356001600160401b0381116101bb5761224b903690600401612dc8565b906064356001600160401b0381116101bb5761226b903690600401612e46565b9261228160018060a01b0360005416331461323b565b8051156129c35780518351036129705780518451036129135781600052600860205260ff600360406000200154166128c25760008281526008602052604090208281558151600190910190600160401b81116119b8578154818355808210612844575b5060208301916000526020600020916000905b82821061273a5750505060008381526008602052604081206002810182905560038101805460ff191660011790554260049091015590505b815181101561249b5761234281856131ac565b51836000526008602052612367600560406000200161236184866131ac565b51612fd8565b815190916001600160401b0382116119b8576123838354612ed4565b601f811161245e575b50602090601f83116001146123f35791806123b59260019695946000926123e8575b505061329b565b90555b6123c281876131ac565b518460005260086020526123e1600660406000200161236184876131ac565b550161232f565b015190508a806123ae565b90601f1983169184600052816000209260005b81811061244657509160019695949291838895931061242d575b505050811b0190556123b8565b015160001960f88460031b161c19169055898080612420565b92936020600181928786015181550195019301612406565b61248b90846000526020600020601f850160051c81019160208610612491575b601f0160051c0190613284565b8861238c565b909150819061247e565b508160095560005b81518110156126f0576124b681836131ac565b519060405160ff6001845192602081818801956124d4818389612cdc565b810160078152030190200154166126a15760ff600160405160208187516124fc818389612cdc565b81016007815203019020015460081c166126615760046125bf602087936040518751612529818385612cdc565b81019060078252838142930301902055600160405183818a5161254d818388612cdc565b8101600781520301902001600160ff19825416179055600160405183818a51612577818388612cdc565b810160078152030190200161ff00198154169055600554600360405184818b516125a2818389612cdc565b810160078152030190200155604051809381928951928391612cdc565b8101600781520301902001557f1a6063ea5a85373503082e9047ebbde10c2ef86a0029b81921668e4a2ea190e3604051806125fb4286836132ae565b0390a16000546001600160a01b031691823b156101bb576000612640600194829360405194858094819363b2be4d6560e01b8352602060048401526024830190612cff565b03925af1612650575b50016124a3565b600061265b91612c57565b84612649565b60405162461bcd60e51b815260206004820152601860248201527714d85b5c1b1948185b1c9958591e48199a5b985b1a5e995960421b6044820152606490fd5b60405162461bcd60e51b815260206004820152602160248201527f53616d706c6520616c726561647920686173206163746976652073657373696f6044820152603760f91b6064820152608490fd5b507f915b7f3f33ca682a46c0a82bcae59307624896b80801e6ea2c6e702a10499ece9161272f6040519283928352606060208401526060830190612d24565b4260408301520390a1005b80518051906001600160401b0382116119b8576127578654612ed4565b601f8111612812575b50602090601f83116001146127a5579261278b8360019594602094879660009261279a57505061329b565b87555b019401910190926122f7565b015190508e806123ae565b90601f1983169187600052816000209260005b8181106127fa57509360209360019693879693838895106127e1575b505050811b01875561278e565b015160001960f88460031b161c191690558d80806127d4565b929360206001819287860151815501950193016127b8565b61283e90876000526020600020601f850160051c8101916020861061249157601f0160051c0190613284565b8a612760565b8260005281602060002091820191015b81811061286157506122e4565b8061286e60019254612ed4565b8061287b575b5001612854565b601f811183146128915750600081555b89612874565b6128af908260005283601f6020600020920160051c82019101613284565b806000526000602081208183555561288b565b60405162461bcd60e51b815260206004820152602360248201527f426174636820616c72656164792061637469766520666f72207468697320726f6044820152621d5b9960ea1b6064820152608490fd5b60405162461bcd60e51b815260206004820152602f60248201527f53616d706c652049447320616e64206f726967696e616c20696e64696365732060448201526e0d8cadccee8d040dad2e6dac2e8c6d608b1b6064820152608490fd5b60405162461bcd60e51b815260206004820152602560248201527f53616d706c652049447320616e6420686173686573206c656e677468206d69736044820152640dac2e8c6d60db1b6064820152608490fd5b60405162461bcd60e51b815260206004820152601260248201527108adae0e8f240e6c2dae0d8ca40c4c2e8c6d60731b6044820152606490fd5b346101bb5760203660031901126101bb576004356000526008602052604060002060018101805491612a2e83613123565b612a378461316d565b91600060058201600683018654925b888110612ad0578888610b6d89612ac28a612ab48b60ff60038201541696600282015491612a826004612a79858d6131c0565b920154926131e3565b926040519a8b9a15158b5260208b015260408a01526060890152608088015261010060a0880152610100870190612d24565b9085820360c0870152612d24565b9083820360e0850152612d7d565b600084821015612b315790612b1f83612af2836020868e600198522001612f0e565b612b04612aff8883612fd8565b612f0e565b612b0e858c6131ac565b52612b19848b6131ac565b50612fd8565b54612b2a828a6131ac565b5201612a46565b634e487b7160e01b81526032600452602490fd5b346101bb5760203660031901126101bb576004356001600160401b0381116101bb576107b8612b7a6020923690600401612c95565b613e48565b346101bb5760203660031901126101bb576004356001600160401b0381116101bb57612bb16020913690600401612c95565b60405160ff6001835192858181870195612bcc818389612cdc565b810160078152030190200154169182612bec575b50506040519015158152f35b60ff925083600192612c0992604051938492839251928391612cdc565b81016007815203019020015460081c16158280612be0565b608081019081106001600160401b038211176119b857604052565b604081019081106001600160401b038211176119b857604052565b601f909101601f19168101906001600160401b038211908210176119b857604052565b6001600160401b0381116119b857601f01601f191660200190565b81601f820112156101bb57803590612cac82612c7a565b92612cba6040519485612c57565b828452602083830101116101bb57816000926020809301838601378301015290565b60005b838110612cef5750506000910152565b8181015183820152602001612cdf565b90602091612d1881518092818552858086019101612cdc565b601f01601f1916010190565b9080602083519182815201916020808360051b8301019401926000915b838310612d5057505050505090565b9091929394602080612d6e600193601f198682030187528951612cff565b97019301930191939290612d41565b906020808351928381520192019060005b818110612d9b5750505090565b8251845260209384019390920191600101612d8e565b6001600160401b0381116119b85760051b60200190565b9080601f830112156101bb578135612ddf81612db1565b92612ded6040519485612c57565b81845260208085019260051b820101918383116101bb5760208201905b838210612e1957505050505090565b81356001600160401b0381116101bb57602091612e3b87848094880101612c95565b815201910190612e0a565b9080601f830112156101bb578135612e5d81612db1565b92612e6b6040519485612c57565b81845260208085019260051b8201019283116101bb57602001905b828210612e935750505090565b8135815260209182019101612e86565b600554811015612ebe57600560005260206000200190600090565b634e487b7160e01b600052603260045260246000fd5b90600182811c92168015612f04575b6020831014612eee57565b634e487b7160e01b600052602260045260246000fd5b91607f1691612ee3565b9060405191826000825492612f2284612ed4565b8084529360018116908115612f905750600114612f49575b50612f4792500383612c57565b565b90506000929192526020600020906000915b818310612f74575050906020612f479282010138612f3a565b6020919350806001915483858901015201910190918492612f5b565b905060209250612f4794915060ff191682840152151560051b82010138612f3a565b6020612fcb918160405193828580945193849201612cdc565b8101600781520301902090565b602090612ff2928260405194838680955193849201612cdc565b82019081520301902090565b8054821015612ebe5760005260206000209060021b0190600090565b9080601f830112156101bb5781359061303282612db1565b926130406040519485612c57565b82845260208085019360051b8201019182116101bb57602001915b8183106130685750505090565b82356001600160a01b03811681036101bb5781526020928301920161305b565b9080601f830112156101bb578135906130a082612db1565b926130ae6040519485612c57565b82845260208085019360051b8201019182116101bb57602001915b8183106130d65750505090565b823580151581036101bb578152602092830192016130c9565b604051906130fe602083612c57565b600080835282815b82811061311257505050565b806060602080938501015201613106565b9061312d82612db1565b61313a6040519182612c57565b828152809261314b601f1991612db1565b019060005b82811061315c57505050565b806060602080938501015201613150565b9061317782612db1565b6131846040519182612c57565b8281528092613195601f1991612db1565b0190602036910137565b805115612ebe5760200190565b8051821015612ebe5760209160051b010190565b919082039182116131cd57565b634e487b7160e01b600052601160045260246000fd5b9081546131ef81612db1565b926131fd6040519485612c57565b818452602084019060005260206000206000915b83831061321e5750505050565b60016020819261322d85612f0e565b815201920192019190613211565b1561324257565b60405162461bcd60e51b815260206004820152601a60248201527913db9b1e481b585a5b881c1c9bda9958dd0818d85b8818d85b1b60321b6044820152606490fd5b81811061328f575050565b60008155600101613284565b8160011b916000199060031b1c19161790565b9291906132c5602091604086526040860190612cff565b930152565b156132d157565b60405162461bcd60e51b815260206004820152601260248201527153657373696f6e206e6f742061637469766560701b6044820152606490fd5b1561331257565b60405162461bcd60e51b8152602060048201526011602482015270105b1c9958591e48199a5b985b1a5e9959607a1b6044820152606490fd5b909161336261337093604084526040840190612cff565b916020818403910152612cff565b90565b60001981146131cd5760010190565b6009549060015b8281111561339957505050600090565b8060005260086020526133b260016040600020016131e3565b9260005b8451811015613406576133c981866131ac565b516020815191012084516020860120146133e5576001016133b6565b505061340292506000526008602052600660406000200190612fd8565b5490565b50925061341290613373565b613389565b919082018092116131cd57565b1561342b57565b60405162461bcd60e51b8152602060048201526019602482015278566f74696e672073657373696f6e206e6f742061637469766560381b6044820152606490fd5b1561347357565b606460405162461bcd60e51b815260206004820152602060248201527f566f74696e672073657373696f6e20616c72656164792066696e616c697a65646044820152fd5b156134be57565b60405162461bcd60e51b815260206004820152601c60248201527b416c726561647920766f746564206f6e20746869732073616d706c6560201b6044820152606490fd5b60405190613511604083612c57565b600f82526e151a5b595bdd5d081c995858da1959608a1b6020830152565b8054600160401b8110156119b85761354c91600182018155612ffe565b91909161369157805182546001600160a01b0319166001600160a01b03919091161782556020810151805160018401916001600160401b0382116119b8576135948354612ed4565b601f811161365f575b50602090601f83116001146135f3578260039593606095936135c7936000926135e857505061329b565b90555b600284016040820151151560ff801983541691161790550151910155565b0151905038806123ae565b90601f1983169184600052816000209260005b818110613647575092600192859260039896606098961061362f575b505050811b0190556135ca565b015160001983891b60f8161c19169055388080613622565b92936020600181928786015181550195019301613606565b61368b90846000526020600020601f850160051c8101916020861061249157601f0160051c0190613284565b3861359d565b634e487b7160e01b600052600060045260246000fd5b604051906136b6604083612c57565b601a825279082d8d840ecdee8cae4e640c6dedae0d8cae8cac840c4c2e8c6d60331b6020830152565b604051906136ee604083612c57565b601182527010dbdb9cd95b9cdd5cc81c995858da1959607a1b6020830152565b1561371557565b60405162461bcd60e51b815260206004820152600f60248201526e098cadccee8d040dad2e6dac2e8c6d608b1b6044820152606490fd5b519081151582036101bb57565b9293909461376a845187511461370e565b60009360005b81518110156137a55761378381896131ac565b51613791575b600101613770565b9461379d600191613373565b959050613789565b509193949092948015613a53576137bb90613123565b9360009360005b8451811015613818576137d5818a6131ac565b516137e3575b6001016137c2565b946138106001916137f488886131ac565b516137ff828b6131ac565b5261380a818a6131ac565b50613373565b9590506137db565b50959250939250945061382b8251613123565b94836000526008602052604060002093600560009501945b84518110156138f35780613859600192876131ac565b51613867612aff8983612fd8565b80519091901561388f575061387c828b6131ac565b52613887818a6131ac565b505b01613843565b90506138d8603060405180936f029b0b6b83632903230ba30903337b9160851b60208301526138c78151809260208686019101612cdc565b81010301601f198101835282612c57565b6138e2828b6131ac565b526138ed818a6131ac565b50613889565b5092909350939093600093815161390d575b509493929190565b61393d8561391a8461319f565b51604051809381926379c4ab1560e01b8352602060048401526024830190612cff565b0381305afa908115613a485786918791889161399f575b5081613996575b50613967575b50613905565b61397490959295426131c0565b908082106139875750505b923880613961565b61399192506131c0565b61397f565b9050153861395b565b925050503d8087833e6139b28183612c57565b810190608081830312613a445780516139cd6020830161374c565b926139da6040840161374c565b606084015190936001600160401b038211613a3c570181601f82011215613a4057805191613a0783612c7a565b90613a156040519283612c57565b83825260208484010111613a3c5790602080613a349493019101612cdc565b919038613954565b8a80fd5b8980fd5b8680fd5b6040513d88823e3d90fd5b50505091509150613a626130ef565b90613a6b6130ef565b92613a746130ef565b9293929160009190565b60405181519060208181850193613a96818387612cdc565b81016006815203019020918254613aac81612db1565b93613aba6040519586612c57565b818552602085019060005260206000206000915b838310613c7e5750505050613af191602091604051938492839251928391612cdc565b8101600781520301902090805115613c3d57613b0d8151613123565b90600093845b8251811015613b9f576020613b2882856131ac565b510151600060208201815b898110613b70575b505015613b4c575b50600101613b13565b86613b6991613b5e60019499886131ac565b5261380a81876131ac565b9590613b43565b613b7a81896131ac565b51602081519101208451832014613b9357600101613b33565b50505060013880613b3b565b509192939050613bae81613123565b90613bb88161316d565b94613bc28261316d565b94600782019160060160005b848110613bdf575050505050929190565b80613bec600192856131ac565b51613bf782896131ac565b52613c0281886131ac565b50613c118361236183876131ac565b54613c1c828c6131ac565b52613c2b8561236183876131ac565b54613c36828b6131ac565b5201613bce565b5050613c476130ef565b60405191602091613c588385612c57565b60008452600036813760405192613c6f8185612c57565b60008452506000368137929190565b60046020600192604051613c9181612c21565b848060a01b038654168152613ca7858701612f0e565b8382015260ff6002870154161515604082015260038601546060820152815201920192019190613ace565b60405190613ce1604083612c57565b600782526631b932b0ba37b960c91b6020830152565b60405190613d06604083612c57565b600b82526a31b7b73a3934b13aba37b960a91b6020830152565b60405190613d2f604083612c57565b600b82526a31b7b7b93234b730ba37b960a91b6020830152565b60405190613d58604083612c57565b600c82526b4e4f5f434f4e53454e53555360a01b6020830152565b60405190613d82604083612c57565b60088252674e4f5f564f54455360c01b6020830152565b60405160ff600183519260208181870195613db5818389612cdc565b81016007815203019020015460081c1615613e07576002611fbb6020613de693604051809381928851928391612cdc565b80518015908115613e2b575b508015613e0e575b613e075761337091614535565b5050600090565b5080516020820120613e1e613d73565b6020815191012014613dfa565b90506020820120613e3a613d49565b602081519101201438613df2565b6002548015613e0757613e6d6020613e7d938160405193828580945193849201612cdc565b8101600781520301902054613417565b421190565b906000604051613ea460ff6001865193602081818a01966120ef81838a612cdc565b613ebe60ff6001604051602081895161211281838a612cdc565b60016040516020818751613ed3818388612cdc565b810160078152030190200160ff19815416905560016040516020818751613efb818388612cdc565b810160078152030190200161010061ff0019825416179055613f1c846146bd565b9260026040516020818851613f32818389612cdc565b8101600781520301902001845160018060401b0381116142c957613f568254612ed4565b601f8111614299575b506020601f821160011461421d5761400f61402394602094613f9c856004999660008051602061483a833981519152968c91614212575b5061329b565b90555b7f8a0cc662156da5580404150064cc81955de64ef5a8090364795edcbac842999160405180613fd08d4290836132ae565b0390a160405191829160808352613ffb613fee8d6080860190612cff565b848103898601528c612cff565b904260408501528382036060850152612cff565b0390a1604051809381928951928391612cdc565b810160078152030190200154801515806141f9575b6140d6575b50303b156140d357604051632e4bca8f60e11b81529080828061406486886004840161334b565b038183305af191826140c3575b505061407b575050565b7fdabbbde127ef4ac1b0a84891a674bfc7b3ceff8d1e7350abd0f7c48021420d32916140b86104b892604051938493606085526060850190612cff565b4260408301520390a1565b816140cd91612c57565b38614071565b80fd5b8082526008602052600260408320016140ef8154613373565b905580825260086020527f145f86831bf675d553efc81172882ecdb1776f5bdfa7f1b8367ad08b5788874061413b600160408520015483855260086020526002604086200154906131c0565b60405180918482526080602083015261416861415a608084018a612cff565b838103604085015288612cff565b9060608301520390a180825260086020526002604083200154818352600860205260016040842001541161403d576060817fcdf3a25ac86d8c6a422a8356f0fb7d6cc09b23caca39fd699cbc6038e558736492845260086020526003604085200160ff198154169055808452600860205260026040852001546040519182526020820152426040820152a13861403d565b50808252600860205260ff600360408420015416614038565b90508c015138613f96565b82865280862090601f198316875b81811061428157509460209460018560008051602061483a8339815191529561400f9560049b986140239b10614268575b5050811b019055613f9f565b8d015160001960f88460031b161c19169055388061425c565b9192602060018192868d01518155019401920161422b565b6142c39083875260208720601f840160051c8101916020851061249157601f0160051c0190613284565b38613f5f565b634e487b7160e01b85526041600452602485fd5b60005260086020526142f560016040600020016131e3565b80511561437e576005546000915b81831061431257505050600190565b61431b83612ea3565b905460039190911b1c6001600160a01b03169160005b82518110156143715760ff6040600561434d61059485886131ac565b016000908782526020522054161561436757600101614331565b5050505050600090565b5091509160010191614303565b50600090565b606091604051602081845161439c8183858901612cdc565b810160068152030190208054906143b282612db1565b946143c06040519687612c57565b82865260208601916000526020600020906000925b8484106144e25750505050508251156144d1576143f28351613123565b90600090815b855181101561447957602061440d82886131ac565b510151600060208201815b86811061444a575b505015614431575b506001016143f8565b8361444391613b5e60019496886131ac565b9290614428565b61445481896131ac565b5160208151910120845183201461446d57600101614418565b50505060013880614420565b5093509160005b8381106144a05750505050604051614499602082612c57565b6000815290565b6144b46144ad82856131ac565b5183614535565b6144c057600101614480565b9190506144cd92506131ac565b5190565b915050604051614499602082612c57565b600460206001926040516144f581612c21565b848060a01b03875416815261450b858801612f0e565b8382015260ff600288015416151560408201526003870154868201528152019301930192916143d5565b6020614551919392938160405193828580945193849201612cdc565b81016006815203019020805461456681612db1565b916145746040519384612c57565b818352602083019060005260206000206000915b83831061466957505050508051156146625760009081825b82518110156146075760206145b582856131ac565b5101516020815191012086516020880120146145d4575b6001016145a0565b906145de90613373565b9060406145eb82856131ac565b510151156145cc57926145ff600191613373565b9390506145cc565b509091929350801561465a578214614620575050600090565b516064820291808304606414901517156131cd578015614644576001549104101590565b634e487b7160e01b600052601260045260246000fd5b505050600090565b5060009150565b6004602060019260405161467c81612c21565b848060a01b038654168152614692858701612f0e565b8382015260ff6002870154161515604082015260038601546060820152815201920192019190614588565b606090604051815190602081818501936146d8818387612cdc565b810160068152030190208054906146ee82612db1565b946146fc6040519687612c57565b82865260208601916000526020600020906000925b8484106147e65750505050508251156147db57602061473e91600793604051938492839251928391612cdc565b81018481520301902001602092604051614759602082612c57565b600081529260009160005b82518110156147be57604061477982856131ac565b510151614789575b600101614764565b8661479482856131ac565b5101516147a18682612fd8565b548581116147b1575b5050614781565b90965093506001386147aa565b509450505050805115156000146147d25790565b50613370613d49565b505050613370613d73565b600460206001926040516147f981612c21565b848060a01b03875416815261480f858801612f0e565b8382015260ff6002880154161515604082015260038701548682015281520193019301929161471156fea8e1279888c174a6fbf4fd42a8be4469b313be30a5edac87aff45c5f8a450deb0cc62c8b09788a11d11e96187c34c67fad5e9651cadc6ace24e1518490bed9812579d0860b48f37c239a6db657bad6560c277bbce0a8a989d70227407fc62e06a26469706673582212206c0fcd80aa4f5eeab206922bbd1c59658eaa92b677c0b1680a3e934f026dedfe64736f6c634300081c0033",
  "linkReferences": {},
  "deployedLinkReferences": {}
}