{
  "_format": "hh-sol-artifact-1",
  "contractName": "ALProjectVoting",
  "sourceName": "contracts/ALProjectVoting.sol",
  "abi": [
    {
      "inputs": [
        {
          "internalType": "address",
          "name": "_project",
          "type": "address"
        },
        {
          "internalType": "string",
          "name": "_votingConsensus",
          "type": "string"
        },
        {
          "internalType": "uint256",
          "name": "_votingTimeoutSeconds",
          "type": "uint256"
        }
      ],
      "stateMutability": "nonpayable",
      "type": "constructor"
    },
    {
      "anonymous": false,
      "inputs": [
        {
          "indexed": false,
          "internalType": "uint256",
          "name": "round",
          "type": "uint256"
        },
        {
          "indexed": false,
          "internalType": "uint256",
          "name": "completedSamples",
          "type": "uint256"
        },
        {
          "indexed": false,
          "internalType": "uint256",
          "name": "timestamp",
          "type": "uint256"
        }
      ],
      "name": "BatchCompleted",
      "type": "event"
    },
    {
      "anonymous": false,
      "inputs": [
        {
          "indexed": false,
          "internalType": "uint256",
          "name": "round",
          "type": "uint256"
        },
        {
          "indexed": false,
          "internalType": "string",
          "name": "sampleId",
          "type": "string"
        },
        {
          "indexed": false,
          "internalType": "string",
          "name": "finalLabel",
          "type": "string"
        },
        {
          "indexed": false,
          "internalType": "uint256",
          "name": "remainingSamples",
          "type": "uint256"
        }
      ],
      "name": "BatchSampleCompleted",
      "type": "event"
    },
    {
      "anonymous": false,
      "inputs": [
        {
          "indexed": false,
          "internalType": "uint256",
          "name": "round",
          "type": "uint256"
        },
        {
          "indexed": false,
          "internalType": "string[]",
          "name": "sampleIds",
          "type": "string[]"
        },
        {
          "indexed": false,
          "internalType": "uint256",
          "name": "startTime",
          "type": "uint256"
        }
      ],
      "name": "BatchStarted",
      "type": "event"
    },
    {
      "anonymous": false,
      "inputs": [
        {
          "indexed": false,
          "internalType": "string",
          "name": "sampleId",
          "type": "string"
        },
        {
          "indexed": false,
          "internalType": "string",
          "name": "label",
          "type": "string"
        }
      ],
      "name": "ConsensusReached",
      "type": "event"
    },
    {
      "anonymous": false,
      "inputs": [
        {
          "indexed": false,
          "internalType": "string",
          "name": "sampleId",
          "type": "string"
        },
        {
          "indexed": false,
          "internalType": "string",
          "name": "finalLabel",
          "type": "string"
        },
        {
          "indexed": false,
          "internalType": "uint256",
          "name": "timestamp",
          "type": "uint256"
        }
      ],
      "name": "LabelStoredInProject",
      "type": "event"
    },
    {
      "anonymous": false,
      "inputs": [
        {
          "indexed": false,
          "internalType": "string",
          "name": "sampleId",
          "type": "string"
        },
        {
          "indexed": false,
          "internalType": "uint256",
          "name": "endTime",
          "type": "uint256"
        }
      ],
      "name": "TimeoutReached",
      "type": "event"
    },
    {
      "anonymous": false,
      "inputs": [
        {
          "indexed": false,
          "internalType": "string",
          "name": "sampleId",
          "type": "string"
        },
        {
          "indexed": true,
          "internalType": "address",
          "name": "voter",
          "type": "address"
        },
        {
          "indexed": false,
          "internalType": "string",
          "name": "label",
          "type": "string"
        },
        {
          "indexed": false,
          "internalType": "bool",
          "name": "support",
          "type": "bool"
        },
        {
          "indexed": false,
          "internalType": "uint256",
          "name": "timestamp",
          "type": "uint256"
        }
      ],
      "name": "VoteSubmitted",
      "type": "event"
    },
    {
      "anonymous": false,
      "inputs": [
        {
          "indexed": false,
          "internalType": "string",
          "name": "sampleId",
          "type": "string"
        },
        {
          "indexed": false,
          "internalType": "uint256",
          "name": "endTime",
          "type": "uint256"
        }
      ],
      "name": "VotingSessionEnded",
      "type": "event"
    },
    {
      "anonymous": false,
      "inputs": [
        {
          "indexed": false,
          "internalType": "string",
          "name": "sampleId",
          "type": "string"
        },
        {
          "indexed": false,
          "internalType": "string",
          "name": "finalLabel",
          "type": "string"
        },
        {
          "indexed": false,
          "internalType": "uint256",
          "name": "endTime",
          "type": "uint256"
        },
        {
          "indexed": false,
          "internalType": "string",
          "name": "reason",
          "type": "string"
        }
      ],
      "name": "VotingSessionFinalized",
      "type": "event"
    },
    {
      "anonymous": false,
      "inputs": [
        {
          "indexed": false,
          "internalType": "string",
          "name": "sampleId",
          "type": "string"
        },
        {
          "indexed": false,
          "internalType": "uint256",
          "name": "startTime",
          "type": "uint256"
        }
      ],
      "name": "VotingSessionStarted",
      "type": "event"
    },
    {
      "inputs": [
        {
          "internalType": "uint256",
          "name": "",
          "type": "uint256"
        }
      ],
      "name": "batches",
      "outputs": [
        {
          "internalType": "uint256",
          "name": "round",
          "type": "uint256"
        },
        {
          "internalType": "uint256",
          "name": "completedCount",
          "type": "uint256"
        },
        {
          "internalType": "bool",
          "name": "isActive",
          "type": "bool"
        },
        {
          "internalType": "uint256",
          "name": "startTime",
          "type": "uint256"
        }
      ],
      "stateMutability": "view",
      "type": "function"
    },
    {
      "inputs": [
        {
          "internalType": "string",
          "name": "sampleId",
          "type": "string"
        }
      ],
      "name": "checkAndFinalizeTimeout",
      "outputs": [],
      "stateMutability": "nonpayable",
      "type": "function"
    },
    {
      "inputs": [],
      "name": "consensusThreshold",
      "outputs": [
        {
          "internalType": "uint256",
          "name": "",
          "type": "uint256"
        }
      ],
      "stateMutability": "view",
      "type": "function"
    },
    {
      "inputs": [],
      "name": "currentRound",
      "outputs": [
        {
          "internalType": "uint256",
          "name": "",
          "type": "uint256"
        }
      ],
      "stateMutability": "view",
      "type": "function"
    },
    {
      "inputs": [
        {
          "internalType": "string",
          "name": "sampleId",
          "type": "string"
        }
      ],
      "name": "endVotingSession",
      "outputs": [],
      "stateMutability": "nonpayable",
      "type": "function"
    },
    {
      "inputs": [
        {
          "internalType": "uint256",
          "name": "round",
          "type": "uint256"
        }
      ],
      "name": "getBatchSamples",
      "outputs": [
        {
          "internalType": "string[]",
          "name": "",
          "type": "string[]"
        }
      ],
      "stateMutability": "view",
      "type": "function"
    },
    {
      "inputs": [
        {
          "internalType": "uint256",
          "name": "round",
          "type": "uint256"
        }
      ],
      "name": "getBatchStatus",
      "outputs": [
        {
          "internalType": "bool",
          "name": "isActive",
          "type": "bool"
        },
        {
          "internalType": "uint256",
          "name": "totalSamples",
          "type": "uint256"
        },
        {
          "internalType": "uint256",
          "name": "completedSamples",
          "type": "uint256"
        },
        {
          "internalType": "uint256",
          "name": "remainingSamples",
          "type": "uint256"
        },
        {
          "internalType": "uint256",
          "name": "startTime",
          "type": "uint256"
        }
      ],
      "stateMutability": "view",
      "type": "function"
    },
    {
      "inputs": [],
      "name": "getCurrentBatchProgress",
      "outputs": [
        {
          "internalType": "uint256",
          "name": "round",
          "type": "uint256"
        },
        {
          "internalType": "bool",
          "name": "isActive",
          "type": "bool"
        },
        {
          "internalType": "uint256",
          "name": "totalSamples",
          "type": "uint256"
        },
        {
          "internalType": "uint256",
          "name": "completedSamples",
          "type": "uint256"
        },
        {
          "internalType": "string[]",
          "name": "sampleIds",
          "type": "string[]"
        }
      ],
      "stateMutability": "view",
      "type": "function"
    },
    {
      "inputs": [
        {
          "internalType": "string",
          "name": "sampleId",
          "type": "string"
        }
      ],
      "name": "getFinalLabel",
      "outputs": [
        {
          "internalType": "string",
          "name": "",
          "type": "string"
        }
      ],
      "stateMutability": "view",
      "type": "function"
    },
    {
      "inputs": [],
      "name": "getVoterList",
      "outputs": [
        {
          "components": [
            {
              "internalType": "address",
              "name": "addr",
              "type": "address"
            },
            {
              "internalType": "uint256",
              "name": "weight",
              "type": "uint256"
            }
          ],
          "internalType": "struct ALProjectVoting.Voter[]",
          "name": "",
          "type": "tuple[]"
        }
      ],
      "stateMutability": "view",
      "type": "function"
    },
    {
      "inputs": [
        {
          "internalType": "string",
          "name": "sampleId",
          "type": "string"
        }
      ],
      "name": "getVotes",
      "outputs": [
        {
          "components": [
            {
              "internalType": "address",
              "name": "voter",
              "type": "address"
            },
            {
              "internalType": "string",
              "name": "label",
              "type": "string"
            },
            {
              "internalType": "bool",
              "name": "support",
              "type": "bool"
            },
            {
              "internalType": "uint256",
              "name": "timestamp",
              "type": "uint256"
            }
          ],
          "internalType": "struct ALProjectVoting.Vote[]",
          "name": "",
          "type": "tuple[]"
        }
      ],
      "stateMutability": "view",
      "type": "function"
    },
    {
      "inputs": [
        {
          "internalType": "string",
          "name": "sampleId",
          "type": "string"
        }
      ],
      "name": "getVotingDistribution",
      "outputs": [
        {
          "internalType": "string[]",
          "name": "labels",
          "type": "string[]"
        },
        {
          "internalType": "uint256[]",
          "name": "voteCounts",
          "type": "uint256[]"
        },
        {
          "internalType": "uint256[]",
          "name": "voteWeights",
          "type": "uint256[]"
        }
      ],
      "stateMutability": "view",
      "type": "function"
    },
    {
      "inputs": [
        {
          "internalType": "string",
          "name": "sampleId",
          "type": "string"
        }
      ],
      "name": "getVotingResult",
      "outputs": [
        {
          "internalType": "bool",
          "name": "isFinalized",
          "type": "bool"
        },
        {
          "internalType": "string",
          "name": "finalLabel",
          "type": "string"
        },
        {
          "internalType": "uint256",
          "name": "totalVotes",
          "type": "uint256"
        },
        {
          "internalType": "uint256",
          "name": "votedCount",
          "type": "uint256"
        }
      ],
      "stateMutability": "view",
      "type": "function"
    },
    {
      "inputs": [
        {
          "internalType": "string",
          "name": "sampleId",
          "type": "string"
        }
      ],
      "name": "getVotingSession",
      "outputs": [
        {
          "internalType": "uint256",
          "name": "startTime",
          "type": "uint256"
        },
        {
          "internalType": "bool",
          "name": "isActive",
          "type": "bool"
        },
        {
          "internalType": "bool",
          "name": "isFinalized",
          "type": "bool"
        },
        {
          "internalType": "string",
          "name": "finalLabel",
          "type": "string"
        }
      ],
      "stateMutability": "view",
      "type": "function"
    },
    {
      "inputs": [
        {
          "internalType": "string",
          "name": "sampleId",
          "type": "string"
        }
      ],
      "name": "getVotingSessionStatus",
      "outputs": [
        {
          "internalType": "bool",
          "name": "isActive",
          "type": "bool"
        },
        {
          "internalType": "bool",
          "name": "isFinalized",
          "type": "bool"
        },
        {
          "internalType": "string",
          "name": "finalLabel",
          "type": "string"
        },
        {
          "internalType": "uint256",
          "name": "startTime",
          "type": "uint256"
        },
        {
          "internalType": "uint256",
          "name": "timeRemaining",
          "type": "uint256"
        },
        {
          "internalType": "uint256",
          "name": "votedCount",
          "type": "uint256"
        },
        {
          "internalType": "uint256",
          "name": "totalVoters",
          "type": "uint256"
        }
      ],
      "stateMutability": "view",
      "type": "function"
    },
    {
      "inputs": [
        {
          "internalType": "string",
          "name": "sampleId",
          "type": "string"
        },
        {
          "internalType": "address",
          "name": "user",
          "type": "address"
        }
      ],
      "name": "hasUserVoted",
      "outputs": [
        {
          "internalType": "bool",
          "name": "",
          "type": "bool"
        }
      ],
      "stateMutability": "view",
      "type": "function"
    },
    {
      "inputs": [
        {
          "internalType": "string",
          "name": "sampleId",
          "type": "string"
        }
      ],
      "name": "isTimeoutReached",
      "outputs": [
        {
          "internalType": "bool",
          "name": "",
          "type": "bool"
        }
      ],
      "stateMutability": "view",
      "type": "function"
    },
    {
      "inputs": [
        {
          "internalType": "string",
          "name": "sampleId",
          "type": "string"
        }
      ],
      "name": "isVotingActive",
      "outputs": [
        {
          "internalType": "bool",
          "name": "",
          "type": "bool"
        }
      ],
      "stateMutability": "view",
      "type": "function"
    },
    {
      "inputs": [
        {
          "internalType": "string",
          "name": "sampleId",
          "type": "string"
        },
        {
          "internalType": "string",
          "name": "finalLabel",
          "type": "string"
        }
      ],
      "name": "notifyMainContractExternal",
      "outputs": [],
      "stateMutability": "nonpayable",
      "type": "function"
    },
    {
      "inputs": [],
      "name": "project",
      "outputs": [
        {
          "internalType": "address",
          "name": "",
          "type": "address"
        }
      ],
      "stateMutability": "view",
      "type": "function"
    },
    {
      "inputs": [
        {
          "internalType": "address[]",
          "name": "_voters",
          "type": "address[]"
        },
        {
          "internalType": "uint256[]",
          "name": "_weights",
          "type": "uint256[]"
        }
      ],
      "name": "setVoters",
      "outputs": [],
      "stateMutability": "nonpayable",
      "type": "function"
    },
    {
      "inputs": [
        {
          "internalType": "string[]",
          "name": "sampleIds",
          "type": "string[]"
        },
        {
          "internalType": "uint256",
          "name": "round",
          "type": "uint256"
        }
      ],
      "name": "startBatchVoting",
      "outputs": [],
      "stateMutability": "nonpayable",
      "type": "function"
    },
    {
      "inputs": [
        {
          "internalType": "string",
          "name": "sampleId",
          "type": "string"
        }
      ],
      "name": "startVotingSession",
      "outputs": [],
      "stateMutability": "nonpayable",
      "type": "function"
    },
    {
      "inputs": [
        {
          "internalType": "string",
          "name": "sampleId",
          "type": "string"
        },
        {
          "internalType": "string",
          "name": "label",
          "type": "string"
        },
        {
          "internalType": "bool",
          "name": "support",
          "type": "bool"
        }
      ],
      "name": "submitVote",
      "outputs": [],
      "stateMutability": "nonpayable",
      "type": "function"
    },
    {
      "inputs": [
        {
          "internalType": "uint256",
          "name": "",
          "type": "uint256"
        }
      ],
      "name": "voterList",
      "outputs": [
        {
          "internalType": "address",
          "name": "",
          "type": "address"
        }
      ],
      "stateMutability": "view",
      "type": "function"
    },
    {
      "inputs": [
        {
          "internalType": "address",
          "name": "",
          "type": "address"
        }
      ],
      "name": "voterWeights",
      "outputs": [
        {
          "internalType": "uint256",
          "name": "",
          "type": "uint256"
        }
      ],
      "stateMutability": "view",
      "type": "function"
    },
    {
      "inputs": [
        {
          "internalType": "string",
          "name": "",
          "type": "string"
        },
        {
          "internalType": "uint256",
          "name": "",
          "type": "uint256"
        }
      ],
      "name": "votes",
      "outputs": [
        {
          "internalType": "address",
          "name": "voter",
          "type": "address"
        },
        {
          "internalType": "string",
          "name": "label",
          "type": "string"
        },
        {
          "internalType": "bool",
          "name": "support",
          "type": "bool"
        },
        {
          "internalType": "uint256",
          "name": "timestamp",
          "type": "uint256"
        }
      ],
      "stateMutability": "view",
      "type": "function"
    },
    {
      "inputs": [],
      "name": "votingConsensus",
      "outputs": [
        {
          "internalType": "string",
          "name": "",
          "type": "string"
        }
      ],
      "stateMutability": "view",
      "type": "function"
    },
    {
      "inputs": [
        {
          "internalType": "string",
          "name": "",
          "type": "string"
        }
      ],
      "name": "votingSessions",
      "outputs": [
        {
          "internalType": "uint256",
          "name": "startTime",
          "type": "uint256"
        },
        {
          "internalType": "bool",
          "name": "isActive",
          "type": "bool"
        },
        {
          "internalType": "bool",
          "name": "isFinalized",
          "type": "bool"
        },
        {
          "internalType": "string",
          "name": "finalLabel",
          "type": "string"
        },
        {
          "internalType": "uint256",
          "name": "totalVoters",
          "type": "uint256"
        },
        {
          "internalType": "uint256",
          "name": "round",
          "type": "uint256"
        }
      ],
      "stateMutability": "view",
      "type": "function"
    },
    {
      "inputs": [],
      "name": "votingTimeoutSeconds",
      "outputs": [
        {
          "internalType": "uint256",
          "name": "",
          "type": "uint256"
        }
      ],
      "stateMutability": "view",
      "type": "function"
    }
  ],
  "bytecode": "0x60806040523461029757613746803803806100198161029c565b9283398101906060818303126102975780516001600160a01b03811691908290036102975760208101516001600160401b03811161029757810183601f82011215610297578051906001600160401b03821161023557610082601f8301601f191660200161029c565b94828652602083830101116102975760005b82811061028257505060009084016020015260400151603360015590801561024b57600080546001600160a01b03191691909117905581516001600160401b03811161023557600354600181811c9116801561022b575b602082101461021557601f81116101b0575b50602092601f821160011461014b5792819293600092610140575b50508160011b916000199060031b1c1916176003555b60025560405161348490816102c28239f35b015190503880610118565b601f198216936003600052806000209160005b868110610198575083600195961061017f575b505050811b0160035561012e565b015160001960f88460031b161c19169055388080610171565b9192602060018192868501518155019401920161015e565b60036000527fc2575a0e9e593c00f959f8c92f12db2869c3395a3b0502d05e2516446f71f85b601f830160051c8101916020841061020b575b601f0160051c01905b8181106101ff57506100fd565b600081556001016101f2565b90915081906101e9565b634e487b7160e01b600052602260045260246000fd5b90607f16906100eb565b634e487b7160e01b600052604160045260246000fd5b60405162461bcd60e51b815260206004820152600f60248201526e496e76616c6964206164647265737360881b6044820152606490fd5b80602080928401015182828901015201610094565b600080fd5b6040519190601f01601f191682016001600160401b038111838210176102355760405256fe6080604052600436101561001257600080fd5b6000803560e01c806304574fe814611c3557806326a0613a14611bf05780632d1bbc8e14611b8c578063367cb92414611a285780634149738514611999578063414f8e761461195c578063428f83381461190e57806350e2e8af146118ca57806355d389a4146117e75780635c95617e146117315780635c97951e146115ae5780636042ad61146114f157806368acb1ab146114af57806372678fcc1461134c57806375c255fc1461108a578063764926db14610efd57806379c4ab1514610e77578063805265e514610d1c5780638520eb7814610cb05780638a19c8bc14610c92578063a58df19a14610c74578063a672601d14610bc7578063b28d92ae14610a8d578063b32c4d8d14610a3b578063b49c447e146109c2578063db7cde8b146108a4578063e7dc0d1014610262578063f18a5cec146101ae578063f60ca60d146101875763f9b0b5b91461016757600080fd5b346101845780600319360112610184576020600154604051908152f35b80fd5b5034610184578060031936011261018457546040516001600160a01b039091168152602090f35b503461018457602036600319011261018457600435906001600160401b038211610184576101f760206101e43660048601611d47565b8160405193828580945193849201611da2565b81016007815203019020805460018201549161021560028201611e55565b610253600460038401549301549160ff60405196879687528181161515602088015260081c161515604086015260c0606086015260c0850190611dc5565b91608084015260a08301520390f35b5034610184576040366003190112610184576004356001600160401b0381116108a057366023820112156108a057806004013561029e81611f94565b916102ac6040519384611d24565b818352602083019160051b81016024018236821161089c5760248301905b8282106108695750505050602435906102ed60018060a01b038554163314612710565b82511561082f57818452600860205260ff6003604086200154166107de578184526008602052816040852055818452600860205260016040852001835191600160401b83116107ca578154838355808410610754575b509085526020852085915b83831061062f57505050508083526008602052826002604082200155808352600860205260036040842001600160ff19825416179055808352600860205242600460408520015580600955825b82518110156105e3576103ae8184612759565b516040519060ff6001825193602081818601966103cc81838a611da2565b810160078152030190200154166105945760ff600160405160208185516103f481838a611da2565b81016007815203019020015460081c16610554578360046104b8602089956040518651610422818385611da2565b81019060078252838142930301902055600160405183818951610446818388611da2565b8101600781520301902001600160ff19825416179055600160405183818951610470818388611da2565b810160078152030190200161ff00198154169055600554600360405184818a5161049b818389611da2565b810160078152030190200155604051809381928851928391611da2565b8101600781520301902001556000805160206133ef833981519152604051806104e2428583612083565b0390a181546001600160a01b0316803b156105505760405163b2be4d6560e01b8152602060048201529183918391829084908290610524906024830190611dc5565b03925af1610537575b505060010161039b565b8161054191611d24565b61054c57833861052d565b8380fd5b8280fd5b60405162461bcd60e51b815260206004820152601860248201527714d85b5c1b1948185b1c9958591e48199a5b985b1a5e995960421b6044820152606490fd5b60405162461bcd60e51b815260206004820152602160248201527f53616d706c6520616c726561647920686173206163746976652073657373696f6044820152603760f91b6064820152608490fd5b50907f915b7f3f33ca682a46c0a82bcae59307624896b80801e6ea2c6e702a10499ece916106236040519283928352606060208401526060830190611f3b565b4260408301520390a180f35b80518051906001600160401b0382116107405761064c8454611e1b565b601f8111610705575b5060209089601f841160011461069b5783600195929460209487966106819492610690575b5050612149565b85555b0192019201919061034e565b01519050388061067a565b50848a52818a209190601f1984168b5b8181106106ed57509360209360019693879693838895106106d4575b505050811b018555610684565b015160001960f88460031b161c191690553880806106c7565b929360206001819287860151815501950193016106ab565b61073090858b5260208b20601f850160051c81019160208610610736575b601f0160051c0190612132565b38610655565b9091508190610723565b634e487b7160e01b89526041600452602489fd5b828752836020882091820191015b81811061076f5750610343565b8061077c60019254611e1b565b80610789575b5001610762565b601f8111831461079e57508881555b38610782565b818a5260208a206107b991601f0160051c8101908401612132565b808952886020812081835555610798565b634e487b7160e01b86526041600452602486fd5b60405162461bcd60e51b815260206004820152602360248201527f426174636820616c72656164792061637469766520666f72207468697320726f6044820152621d5b9960ea1b6064820152608490fd5b60405162461bcd60e51b815260206004820152601260248201527108adae0e8f240e6c2dae0d8ca40c4c2e8c6d60731b6044820152606490fd5b81356001600160401b0381116108985760209161088d839260243691890101611d47565b8152019101906102ca565b8780fd5b8580fd5b5080fd5b5034610184576020366003190112610184576004356001600160401b0381116108a0576108d5903690600401611d47565b604051815190602081818501936108ed818387611da2565b8101600781520301902090836005549060058401905b82811061097557505050600261093560206109479360ff600187015460081c1696604051938492839251928391611da2565b81016006815203019020549201611e55565b9261096660405194859415158552608060208601526080850190611dc5565b91604084015260608301520390f35b60ff604061098283611dea565b905460039190911b1c6001600160a01b0316600090815260208590522054166109ae575b600101610903565b956109ba60019161215c565b9690506109a6565b503461018457602036600319011261018457600435906001600160401b03821161018457610a1b610a29610a37610a046109ff3660048801611d47565b6127e9565b919390604051958695606087526060870190611f3b565b908582036020870152611fab565b908382036040850152611fab565b0390f35b50346101845760203660031901126101845760406080916004358152600860205220805490600281015490600460ff600383015416910154916040519384526020840152151560408301526060820152f35b5034610184578060031936011261018457600554610aaa81611f94565b90610ab86040519283611d24565b808252601f19610ac782611f94565b01835b818110610ba4575050825b818110610b37578284604051918291602083016020845282518091526020604085019301915b818110610b09575050500390f35b825180516001600160a01b031685526020908101518186015286955060409094019390920191600101610afb565b80610b43600192611dea565b838060a01b0391549060031b1c16610b5a82611dea565b848060a01b0391549060031b1c1686526004602052604086205460405191610b8183611d09565b82526020820152610b928286612759565b52610b9d8185612759565b5001610ad5565b602090604051610bb381611d09565b868152868382015282828701015201610aca565b5034610184576020366003190112610184576004356001600160401b0381116108a057610bfb610c71913690600401611d47565b610c0f60018060a01b038454163314612710565b610c3d60ff60016040516020818651610c2b8183858b01611da2565b8101600781520301902001541661209f565b60405190610c4c604083611d24565b601382527226b0b73ab0b6103334b730b634bd30ba34b7b760691b6020830152612ab3565b80f35b50346101845780600319360112610184576020600254604051908152f35b50346101845780600319360112610184576020600954604051908152f35b503461018457806003193601126101845760406009549182815260086020522090610a3760ff6003840154169260018101610cf160028254930154916126b8565b916040519586958652151560208601526040850152606084015260a0608084015260a0830190611f3b565b5034610184576020366003190112610184576004356001600160401b0381116108a05760206101e4610d52923690600401611d47565b810160068152030190208054610d6781611f94565b90610d756040519283611d24565b80825260208201809385526020852085915b838310610e2357868587604051928392602084019060208552518091526040840160408260051b8601019392905b828210610dc457505050500390f35b919360019193955060208091603f19898203018552875190848060a01b038251168152606080610e01858501516080878601526080850190611dc5565b9360408101511515604085015201519101529601920192018594939192610db5565b60046020600192604051610e3681611cd8565b848060a01b038654168152610e4c858701611e55565b8382015260ff6002870154161515604082015260038601546060820152815201920192019190610d87565b503461018457602036600319011261018457600435906001600160401b03821161018457610ead60206101e43660048601611d47565b810160078152030190208054610a37610ecd600260018501549401611e55565b60ff60405194859485528181161515602086015260081c1615156040840152608060608401526080830190611dc5565b5034610184576020366003190112610184576004356001600160401b0381116108a057610f2e903690600401611d47565b610f4260018060a01b038354163314612710565b6040519060ff600182519360208181860196610f5f81838a611da2565b8101600781520301902001541661104557826004610fb960208395610fa960ff600160405185818b51610f9381838a611da2565b81016007815203019020015460081c16156120e7565b6040518651610422818385611da2565b8101600781520301902001556000805160206133ef83398151915260405180610fe3428583612083565b0390a181546001600160a01b0316803b156110415760405163b2be4d6560e01b8152602060048201529183918391829084908290611025906024830190611dc5565b03925af16110305750f35b8161103a91611d24565b6101845780f35b5050fd5b60405162461bcd60e51b815260206004820152601d60248201527f566f74696e672073657373696f6e20616c7265616479206163746976650000006044820152606490fd5b5034610184576040366003190112610184576004356001600160401b0381116108a057366023820112156108a05780600401356110c681611f94565b916110d46040519384611d24565b8183526024602084019260051b8201019036821161134857602401915b81831061132857505060243590506001600160401b03811161055057366023820112156105505780600401359061112782611f94565b916111356040519384611d24565b8083526024602084019160051b8301019136831161089c57602401905b8282106113185750505061117060018060a01b038454163314612710565b81518151036112de57825b6005548110156111b25780611191600192611dea565b838060a01b0391549060031b1c16855260046020528460408120550161117b565b509060055483600555806112a6575b50825b81518110156112a2576111d78184612759565b511561125d576111e78184612759565b516001600160a01b036111fa8385612759565b51168552600460205260408520556001600160a01b0361121a8284612759565b5116600554600160401b8110156107ca579061123e82600180959401600555611dea565b819291549060031b91821b91858060a01b03901b1916179055016111c4565b60405162461bcd60e51b815260206004820152601d60248201527f576569676874206d7573742062652067726561746572207468616e20300000006044820152606490fd5b8380f35b600584526112d8907f036b6384b5eca791c62761152d0c79bb0604c104a5fb6f4eb0703f3154bb3db090810190612132565b386111c1565b60405162461bcd60e51b81526020600482015260126024820152714d69736d617463686564206c656e6774687360701b6044820152606490fd5b8135815260209182019101611152565b82356001600160a01b038116810361089c578152602092830192016110f1565b8480fd5b5034610184576020366003190112610184576004356001600160401b0381116108a05760206101e4611382923690600401611d47565b810160078152030190209080600254801515806114a1575b8061148f575b61146a575b50819260055460058201945b81811061141d57505060ff93506001810154928154926114046113db600260038601549501611e55565b6040519787818a99161515895260081c161515602088015260e0604088015260e0870190611dc5565b936060860152608085015260a084015260c08301520390f35b60ff604061142a83611dea565b905460039190911b1c6001600160a01b031660009081526020899052205416611456575b6001016113b1565b9361146260019161215c565b94905061144e565b61147590845461216b565b804210156113a55761148991504290611fdf565b386113a5565b5060ff600185015460081c16156113a0565b5060ff60018501541661139a565b5034610184576020366003190112610184576114dd60016040610a37936004358152600860205220016126b8565b604051918291602083526020830190611f3b565b5034610184576040366003190112610184576004356001600160401b0381116108a057611522903690600401611d47565b61153e6020602435928160405193828580945193849201611da2565b8101600681520301902080548210156105505761155b9250611f1f565b5080546001600160a01b031661157360018301611e55565b91600360ff60028301541691015461159d6040519485948552608060208601526080850190611dc5565b911515604084015260608301520390f35b5034610184576040366003190112610184576004356001600160401b0381116108a0576115df903690600401611d47565b906024356001600160401b0381116108a0576115ff903690600401611d47565b3033036116f75781546001600160a01b031692833b156105505782604051809563f0786f2760e01b825260806004830152818360606116566116446084850189611dc5565b84810360031901602486015289611dc5565b8260408583039260031984016044880152601a81527920baba37b6b0ba32b2103b37ba329030b3b3b932b3b0ba34b7b760311b6020820152603c84016064880152015201925af16116e2575b825492935083926001600160a01b031691823b156116dd57611025928492836040518096819582946314faf32d60e11b845260048401612178565b505050fd5b919092816116ef91611d24565b9082906116a2565b60405162461bcd60e51b8152602060048201526012602482015271496e7465726e616c2063616c6c206f6e6c7960701b6044820152606490fd5b5034610184576060366003190112610184576004356001600160401b0381116108a057611762903690600401611d47565b6024356001600160401b03811161055057611781903690600401611d47565b60443590811515820361054c5733845260046020526040842054156117a957610c71926121a0565b60405162461bcd60e51b81526020600482015260166024820152752737ba1030903932b3b4b9ba32b932b2103b37ba32b960511b6044820152606490fd5b503461018457806003193601126101845760405190806003549061180a82611e1b565b80855291600181169081156118a35750600114611846575b610a378461183281860382611d24565b604051918291602083526020830190611dc5565b600381527fc2575a0e9e593c00f959f8c92f12db2869c3395a3b0502d05e2516446f71f85b939250905b8082106118895750909150810160200161183282611822565b919260018160209254838588010152019101909291611870565b60ff191660208087019190915292151560051b850190920192506118329150839050611822565b503461018457602036600319011261018457600435906005548210156101845760206118f583611dea565b905460405160039290921b1c6001600160a01b03168152f35b503461018457602036600319011261018457600435906001600160401b03821161018457610a37611832600261194c60206101e43660048901611d47565b8101600781520301902001611e55565b5034610184576020366003190112610184576004356001600160a01b038116908190036108a0578160409160209352600483522054604051908152f35b5034610184576040366003190112610184576004356001600160401b0381116108a0576119ca903690600401611d47565b602435906001600160a01b03821682036105505760209260ff9260056119ff8660409581875193828580945193849201611da2565b6007908201908152030190206001600160a01b0390921683520184522054604051911615158152f35b5034610184576020366003190112610184576004356001600160401b0381116108a057611a59903690600401611d47565b611aba60ff6001611aa46020604051611a9385858951938581818d0196611a8181838a611da2565b81016007815203019020015416612002565b604051809381928951928391611da2565b81016007815203019020015460081c1615612043565b611ac381612a72565b15611b4d57611b477ffe2a617c3a0856bbd203e77cee3d518a00f599c8a955224e80b1d0a1afd9570391611b39604051611afe606082611d24565b602281527f54696d656f75742072656163686564202d2065787465726e616c20747269676760208201526132b960f11b604082015282612ab3565b604051918291429083612083565b0390a180f35b60405162461bcd60e51b8152602060048201526017602482015276151a5b595bdd5d081b9bdd081c995858da1959081e595d604a1b6044820152606490fd5b503461018457602036600319011261018457604060a091600435815260086020522060ff6003820154169060018101549060028101546004611bce8285611fdf565b9201549260405194151585526020850152604084015260608301526080820152f35b503461018457602036600319011261018457600435906001600160401b038211610184576020611c2b611c263660048601611d47565b612a72565b6040519015158152f35b503461018457602036600319011261018457600435906001600160401b038211610184576020611c683660048501611d47565b60405160ff6001835192858181870195611c83818389611da2565b810160078152030190200154169182611ca3575b50506040519015158152f35b60ff925083600192611cc092604051938492839251928391611da2565b81016007815203019020015460081c16158280611c97565b608081019081106001600160401b03821117611cf357604052565b634e487b7160e01b600052604160045260246000fd5b604081019081106001600160401b03821117611cf357604052565b601f909101601f19168101906001600160401b03821190821017611cf357604052565b81601f82011215611d9d578035906001600160401b038211611cf35760405192611d7b601f8401601f191660200185611d24565b82845260208383010111611d9d57816000926020809301838601378301015290565b600080fd5b60005b838110611db55750506000910152565b8181015183820152602001611da5565b90602091611dde81518092818552858086019101611da2565b601f01601f1916010190565b600554811015611e0557600560005260206000200190600090565b634e487b7160e01b600052603260045260246000fd5b90600182811c92168015611e4b575b6020831014611e3557565b634e487b7160e01b600052602260045260246000fd5b91607f1691611e2a565b9060405191826000825492611e6984611e1b565b8084529360018116908115611ed75750600114611e90575b50611e8e92500383611d24565b565b90506000929192526020600020906000915b818310611ebb575050906020611e8e9282010138611e81565b6020919350806001915483858901015201910190918492611ea2565b905060209250611e8e94915060ff191682840152151560051b82010138611e81565b602090611f13928260405194838680955193849201611da2565b82019081520301902090565b8054821015611e055760005260206000209060021b0190600090565b9080602083519182815201916020808360051b8301019401926000915b838310611f6757505050505090565b9091929394602080611f85600193601f198682030187528951611dc5565b97019301930191939290611f58565b6001600160401b038111611cf35760051b60200190565b906020808351928381520192019060005b818110611fc95750505090565b8251845260209384019390920191600101611fbc565b91908203918211611fec57565b634e487b7160e01b600052601160045260246000fd5b1561200957565b60405162461bcd60e51b815260206004820152601260248201527153657373696f6e206e6f742061637469766560701b6044820152606490fd5b1561204a57565b60405162461bcd60e51b8152602060048201526011602482015270105b1c9958591e48199a5b985b1a5e9959607a1b6044820152606490fd5b92919061209a602091604086526040860190611dc5565b930152565b156120a657565b60405162461bcd60e51b8152602060048201526019602482015278566f74696e672073657373696f6e206e6f742061637469766560381b6044820152606490fd5b156120ee57565b606460405162461bcd60e51b815260206004820152602060248201527f566f74696e672073657373696f6e20616c72656164792066696e616c697a65646044820152fd5b81811061213d575050565b60008155600101612132565b8160011b916000199060031b1c19161790565b6000198114611fec5760010190565b91908201809211611fec57565b909161218f61219d93604084526040840190611dc5565b916020818403910152611dc5565b90565b91604051916121c160ff6001865195602081818a0198610c2b81838c611da2565b6121db60ff60016040516020818951610f9381838c611da2565b600560405160208187516121f081838a611da2565b6007908201908152030190203360009081529101602052604090205460ff166126835761221c84612a72565b61264c576040516020818651612233818389611da2565b810160068152030190209160405161224a81611cd8565b3381526020810193838552604082018315159586825260608401924284528054600160401b811015611cf35761228591600182018155611f1f565b949094612636575184546001600160a01b0319166001600160a01b039190911617845551805160018501916001600160401b038211611cf3576122c88354611e1b565b601f8111612604575b50602090601f831160011461258757826003959360008051602061342f8339815191529a999897959361230c93600092610690575050612149565b90555b600284019051151560ff80198354169116179055519101556005604051602081895161233c81838c611da2565b600790820190815203019020336000908152910160205260409020805460ff19166001179055612504575b61238d604051916080835261237f6080840188611dc5565b908382036020850152611dc5565b9260408201524260608201528033930390a26123a882612f0b565b80519091901561241c57507f0cc62c8b09788a11d11e96187c34c67fad5e9651cadc6ace24e1518490bed98191612417604061240d81516123e98382611d24565b601181527010dbdb9cd95b9cdd5cc81c995858da1959607a1b602082015284612ab3565b5192839283612178565b0390a1565b60055460009250825b8181106124975750506124476020600392604051809381928851928391611da2565b8101600781520301902001541461245b5750565b611e8e906040519061246e604083611d24565b6017825276105b1b081d9bdd195c9cc81c185c9d1a58da5c185d1959604a1b6020830152612ab3565b60ff6040600581516020818a516124af81838c611da2565b81016007815203019020016124c384611dea565b905460039190911b1c6001600160a01b031660009081526020919091522054166124f0575b600101612425565b926124fc60019161215c565b9390506124e8565b61252d6006604051602081895161251c81838c611da2565b810160078152030190200182611ef9565b612537815461215c565b905533600052600460205260406000205461258061257860076125686020898b604051938492839251928391611da2565b8101848152030190200184611ef9565b91825461216b565b9055612367565b90601f1983169184600052816000209260005b8181106125ec57509260019285926003989660008051602061342f8339815191529d9c9b9a9896106125d4575b505050811b01905561230f565b015160001983891b60f8161c191690553880806125c7565b9293602060018192878601518155019501930161259a565b61263090846000526020600020601f850160051c8101916020861061073657601f0160051c0190612132565b386122d1565b634e487b7160e01b600052600060045260246000fd5b505050611e8e9060405190612662604083611d24565b600f82526e151a5b595bdd5d081c995858da1959608a1b6020830152612ab3565b60405162461bcd60e51b815260206004820152600d60248201526c105b1c9958591e481d9bdd1959609a1b6044820152606490fd5b9081546126c481611f94565b926126d26040519485611d24565b818452602084019060005260206000206000915b8383106126f35750505050565b60016020819261270285611e55565b8152019201920191906126e6565b1561271757565b60405162461bcd60e51b815260206004820152601a60248201527913db9b1e481b585a5b881c1c9bda9958dd0818d85b8818d85b1b60321b6044820152606490fd5b8051821015611e055760209160051b010190565b9061277782611f94565b6127846040519182611d24565b8281528092612795601f1991611f94565b019060005b8281106127a657505050565b80606060208093850101520161279a565b906127c182611f94565b6127ce6040519182611d24565b82815280926127df601f1991611f94565b0190602036910137565b60405181519060208181850193612801818387611da2565b8101600681520301902091825461281781611f94565b936128256040519586611d24565b818552602085019060005260206000206000915b838310612a1e575050505061285c91602091604051938492839251928391611da2565b81016007815203019020908051156129b457612878815161276d565b90600093845b82518110156129105760206128938285612759565b510151600060208201815b8981106128e1575b5050156128b7575b5060010161287e565b866128da916128c96001949988612759565b526128d48187612759565b5061215c565b95906128ae565b6128eb8189612759565b516020815191012084518320146129045760010161289e565b505050600138806128a6565b50919293905061291f8161276d565b90612929816127b7565b94612933826127b7565b94600782019160060160005b848110612950575050505050929190565b8061295d60019285612759565b516129688289612759565b526129738188612759565b50612988836129828387612759565b51611ef9565b54612993828c612759565b526129a2856129828387612759565b546129ad828b612759565b520161293f565b50506040519060006129c7602084611d24565b82526000805b818110612a0d575050602090604051926129e78385611d24565b600084526000368137604051926129fe8185611d24565b60008452506000368137929190565b8060606020809387010152016129cd565b60046020600192604051612a3181611cd8565b848060a01b038654168152612a47858701611e55565b8382015260ff6002870154161515604082015260038601546060820152815201920192019190612839565b6002548015612aac57612a976020612aa7938160405193828580945193849201611da2565b810160078152030190205461216b565b421190565b5050600090565b906000604051612ad560ff6001865193602081818a0196611a8181838a611da2565b612aef60ff60016040516020818951611aa481838a611da2565b60016040516020818751612b04818388611da2565b810160078152030190200160ff19815416905560016040516020818751612b2c818388611da2565b810160078152030190200161010061ff0019825416179055612b4d846130bc565b9260026040516020818851612b63818389611da2565b8101600781520301902001845160018060401b038111612ef757612b878254611e1b565b601f8111612ec7575b506020601f8211600114612e4b57612c40612c5494602094612bcd856004999660008051602061340f833981519152968c91612e40575b50612149565b90555b7f8a0cc662156da5580404150064cc81955de64ef5a8090364795edcbac842999160405180612c018d429083612083565b0390a160405191829160808352612c2c612c1f8d6080860190611dc5565b848103898601528c611dc5565b904260408501528382036060850152611dc5565b0390a1604051809381928951928391611da2565b81016007815203019020015480151580612e27575b612d04575b50303b1561018457604051632e4bca8f60e11b815290808280612c95868860048401612178565b038183305af19182612cf4575b5050612cac575050565b7fdabbbde127ef4ac1b0a84891a674bfc7b3ceff8d1e7350abd0f7c48021420d3291612ce961237f92604051938493606085526060850190611dc5565b4260408301520390a1565b81612cfe91611d24565b38612ca2565b808252600860205260026040832001612d1d815461215c565b905580825260086020527f145f86831bf675d553efc81172882ecdb1776f5bdfa7f1b8367ad08b57888740612d6960016040852001548385526008602052600260408620015490611fdf565b604051809184825260806020830152612d96612d88608084018a611dc5565b838103604085015288611dc5565b9060608301520390a1808252600860205260026040832001548183526008602052600160408420015411612c6e576060817fcdf3a25ac86d8c6a422a8356f0fb7d6cc09b23caca39fd699cbc6038e558736492845260086020526003604085200160ff198154169055808452600860205260026040852001546040519182526020820152426040820152a138612c6e565b50808252600860205260ff600360408420015416612c69565b90508c015138612bc7565b82865280862090601f198316875b818110612eaf57509460209460018560008051602061340f83398151915295612c409560049b98612c549b10612e96575b5050811b019055612bd0565b8d015160001960f88460031b161c191690553880612e8a565b9192602060018192868d015181550194019201612e59565b612ef19083875260208720601f840160051c8101916020851061073657601f0160051c0190612132565b38612b90565b634e487b7160e01b85526041600452602485fd5b6060916040516020818451612f238183858901611da2565b81016006815203019020805490612f3982611f94565b94612f476040519687611d24565b82865260208601916000526020600020906000925b84841061306957505050505082511561305857612f79835161276d565b90600090815b8551811015613000576020612f948288612759565b510151600060208201815b868110612fd1575b505015612fb8575b50600101612f7f565b83612fca916128c96001949688612759565b9290612faf565b612fdb8189612759565b51602081519101208451832014612ff457600101612f9f565b50505060013880612fa7565b5093509160005b8381106130275750505050604051613020602082611d24565b6000815290565b61303b6130348285612759565b518361327c565b61304757600101613007565b9190506130549250612759565b5190565b915050604051613020602082611d24565b6004602060019260405161307c81611cd8565b848060a01b038754168152613092858801611e55565b8382015260ff60028801541615156040820152600387015486820152815201930193019291612f5c565b606090604051815190602081818501936130d7818387611da2565b810160068152030190208054906130ed82611f94565b946130fb6040519687611d24565b82865260208601916000526020600020906000925b84841061322957505050505082511561320057602061313d91600793604051938492839251928391611da2565b810184815203019020016020926040516131578582611d24565b600081529260009160005b82518110156131bc5760406131778285612759565b510151613187575b600101613162565b866131928285612759565b51015161319f8682611ef9565b548581116131af575b505061317f565b90965093506001386131a8565b50845190959350600092501590506131d357505090565b506040805192506b4e4f5f434f4e53454e53555360a01b91906131f69084611d24565b600c835282015290565b505050604051613211604082611d24565b60088152674e4f5f564f54455360c01b602082015290565b6004602060019260405161323c81611cd8565b848060a01b038754168152613252858801611e55565b8382015260ff60028801541615156040820152600387015486820152815201930193019291613110565b6020613298919392938160405193828580945193849201611da2565b810160068152030190209182546132ae81611f94565b936132bc6040519586611d24565b818552602085019060005260206000206000915b83831061339a575050505060008091815b85518110156133715760206132f68288612759565b510151602081519101208251602084012014613315575b6001016132e1565b6001600160a01b036133278288612759565b5151166000526004602052613342604060002054809461216b565b92604061334f8389612759565b51015161335d575b5061330d565b61336a906001929561216b565b9390613357565b5050909192508015612aac57606482029180830460641490151715611fec576001549104101590565b600460206001926040516133ad81611cd8565b848060a01b0386541681526133c3858701611e55565b8382015260ff60028701541615156040820152600386015460608201528152019201920191906132d056fe1a6063ea5a85373503082e9047ebbde10c2ef86a0029b81921668e4a2ea190e3a8e1279888c174a6fbf4fd42a8be4469b313be30a5edac87aff45c5f8a450deb2579d0860b48f37c239a6db657bad6560c277bbce0a8a989d70227407fc62e06a2646970667358221220b03579dc2ea9d78016208d301b391f8458da102dff26814914626ded14ab0f1d64736f6c634300081c0033",
  "linkReferences": {},
  "deployedLinkReferences": {}
}