{
  "_format": "hh-sol-artifact-1",
  "contractName": "ALProject",
  "sourceName": "contracts/ALProject.sol",
  "abi": [
    {
      "inputs": [
        {
          "internalType": "address",
          "name": "_baseProject",
          "type": "address"
        },
        {
          "internalType": "string",
          "name": "_projectData",
          "type": "string"
        }
      ],
      "stateMutability": "nonpayable",
      "type": "constructor"
    },
    {
      "anonymous": false,
      "inputs": [
        {
          "indexed": false,
          "internalType": "uint256",
          "name": "round",
          "type": "uint256"
        },
        {
          "indexed": false,
          "internalType": "uint256",
          "name": "completedSamples",
          "type": "uint256"
        },
        {
          "indexed": false,
          "internalType": "uint256",
          "name": "timestamp",
          "type": "uint256"
        }
      ],
      "name": "ALBatchCompleted",
      "type": "event"
    },
    {
      "anonymous": false,
      "inputs": [
        {
          "indexed": false,
          "internalType": "uint256",
          "name": "round",
          "type": "uint256"
        },
        {
          "indexed": false,
          "internalType": "uint256",
          "name": "sampleCount",
          "type": "uint256"
        },
        {
          "indexed": false,
          "internalType": "uint256",
          "name": "timestamp",
          "type": "uint256"
        }
      ],
      "name": "ALBatchStarted",
      "type": "event"
    },
    {
      "anonymous": false,
      "inputs": [
        {
          "indexed": false,
          "internalType": "address",
          "name": "votingContract",
          "type": "address"
        },
        {
          "indexed": false,
          "internalType": "address",
          "name": "storageContract",
          "type": "address"
        }
      ],
      "name": "ALContractsDeployed",
      "type": "event"
    },
    {
      "anonymous": false,
      "inputs": [
        {
          "indexed": false,
          "internalType": "uint256",
          "name": "round",
          "type": "uint256"
        },
        {
          "indexed": false,
          "internalType": "string",
          "name": "reason",
          "type": "string"
        },
        {
          "indexed": false,
          "internalType": "uint256",
          "name": "timestamp",
          "type": "uint256"
        }
      ],
      "name": "ALRoundTriggered",
      "type": "event"
    },
    {
      "anonymous": false,
      "inputs": [
        {
          "indexed": false,
          "internalType": "string",
          "name": "sampleId",
          "type": "string"
        },
        {
          "indexed": false,
          "internalType": "string",
          "name": "label",
          "type": "string"
        },
        {
          "indexed": false,
          "internalType": "uint256",
          "name": "round",
          "type": "uint256"
        },
        {
          "indexed": false,
          "internalType": "uint256",
          "name": "timestamp",
          "type": "uint256"
        }
      ],
      "name": "AutoLabelStored",
      "type": "event"
    },
    {
      "anonymous": false,
      "inputs": [
        {
          "indexed": true,
          "internalType": "address",
          "name": "trigger",
          "type": "address"
        },
        {
          "indexed": false,
          "internalType": "string",
          "name": "reason",
          "type": "string"
        },
        {
          "indexed": false,
          "internalType": "uint256",
          "name": "currentRound",
          "type": "uint256"
        },
        {
          "indexed": false,
          "internalType": "uint256",
          "name": "timestamp",
          "type": "uint256"
        }
      ],
      "name": "ProjectEndTriggered",
      "type": "event"
    },
    {
      "anonymous": false,
      "inputs": [
        {
          "indexed": false,
          "internalType": "uint256",
          "name": "newRound",
          "type": "uint256"
        }
      ],
      "name": "RoundIncremented",
      "type": "event"
    },
    {
      "anonymous": false,
      "inputs": [
        {
          "indexed": false,
          "internalType": "string",
          "name": "sampleId",
          "type": "string"
        },
        {
          "indexed": false,
          "internalType": "address",
          "name": "voter",
          "type": "address"
        },
        {
          "indexed": false,
          "internalType": "string",
          "name": "label",
          "type": "string"
        },
        {
          "indexed": false,
          "internalType": "uint256",
          "name": "timestamp",
          "type": "uint256"
        }
      ],
      "name": "VoteSubmitted",
      "type": "event"
    },
    {
      "anonymous": false,
      "inputs": [
        {
          "indexed": false,
          "internalType": "uint256",
          "name": "round",
          "type": "uint256"
        },
        {
          "indexed": false,
          "internalType": "uint256",
          "name": "voterCount",
          "type": "uint256"
        },
        {
          "indexed": false,
          "internalType": "uint256",
          "name": "timestamp",
          "type": "uint256"
        }
      ],
      "name": "VotersUpdated",
      "type": "event"
    },
    {
      "anonymous": false,
      "inputs": [
        {
          "indexed": false,
          "internalType": "string",
          "name": "sampleId",
          "type": "string"
        },
        {
          "indexed": false,
          "internalType": "string",
          "name": "finalLabel",
          "type": "string"
        },
        {
          "indexed": false,
          "internalType": "uint256",
          "name": "round",
          "type": "uint256"
        },
        {
          "indexed": false,
          "internalType": "uint256",
          "name": "timestamp",
          "type": "uint256"
        }
      ],
      "name": "VotingSessionEnded",
      "type": "event"
    },
    {
      "anonymous": false,
      "inputs": [
        {
          "indexed": false,
          "internalType": "string",
          "name": "sampleId",
          "type": "string"
        },
        {
          "indexed": false,
          "internalType": "uint256",
          "name": "round",
          "type": "uint256"
        },
        {
          "indexed": false,
          "internalType": "uint256",
          "name": "timeout",
          "type": "uint256"
        },
        {
          "indexed": false,
          "internalType": "uint256",
          "name": "timestamp",
          "type": "uint256"
        }
      ],
      "name": "VotingSessionStarted",
      "type": "event"
    },
    {
      "inputs": [],
      "name": "alScenario",
      "outputs": [
        {
          "internalType": "string",
          "name": "",
          "type": "string"
        }
      ],
      "stateMutability": "view",
      "type": "function"
    },
    {
      "inputs": [],
      "name": "baseProject",
      "outputs": [
        {
          "internalType": "address",
          "name": "",
          "type": "address"
        }
      ],
      "stateMutability": "view",
      "type": "function"
    },
    {
      "inputs": [],
      "name": "currentRound",
      "outputs": [
        {
          "internalType": "uint256",
          "name": "",
          "type": "uint256"
        }
      ],
      "stateMutability": "view",
      "type": "function"
    },
    {
      "inputs": [
        {
          "internalType": "uint256",
          "name": "round",
          "type": "uint256"
        }
      ],
      "name": "endBatchVoting",
      "outputs": [],
      "stateMutability": "nonpayable",
      "type": "function"
    },
    {
      "inputs": [],
      "name": "getALConfiguration",
      "outputs": [
        {
          "internalType": "string",
          "name": "_queryStrategy",
          "type": "string"
        },
        {
          "internalType": "string",
          "name": "_alScenario",
          "type": "string"
        },
        {
          "internalType": "uint256",
          "name": "_maxIteration",
          "type": "uint256"
        },
        {
          "internalType": "uint256",
          "name": "_currentRound",
          "type": "uint256"
        },
        {
          "internalType": "uint256",
          "name": "_queryBatchSize",
          "type": "uint256"
        },
        {
          "internalType": "uint256",
          "name": "_votingTimeout",
          "type": "uint256"
        },
        {
          "internalType": "string[]",
          "name": "_labelSpace",
          "type": "string[]"
        }
      ],
      "stateMutability": "view",
      "type": "function"
    },
    {
      "inputs": [],
      "name": "getALProjectMetadata",
      "outputs": [
        {
          "internalType": "string",
          "name": "_title",
          "type": "string"
        },
        {
          "internalType": "string",
          "name": "_description",
          "type": "string"
        },
        {
          "internalType": "address",
          "name": "_owner",
          "type": "address"
        },
        {
          "internalType": "string",
          "name": "_projectType",
          "type": "string"
        },
        {
          "internalType": "string",
          "name": "_rocrateHash",
          "type": "string"
        },
        {
          "internalType": "uint256",
          "name": "_start",
          "type": "uint256"
        },
        {
          "internalType": "uint256",
          "name": "_end",
          "type": "uint256"
        },
        {
          "internalType": "string",
          "name": "_queryStrategy",
          "type": "string"
        },
        {
          "internalType": "string",
          "name": "_alScenario",
          "type": "string"
        },
        {
          "internalType": "uint256",
          "name": "_maxIteration",
          "type": "uint256"
        },
        {
          "internalType": "uint256",
          "name": "_queryBatchSize",
          "type": "uint256"
        },
        {
          "internalType": "string[]",
          "name": "_labelSpace",
          "type": "string[]"
        }
      ],
      "stateMutability": "view",
      "type": "function"
    },
    {
      "inputs": [],
      "name": "getCurrentBatchSampleIds",
      "outputs": [
        {
          "internalType": "string[]",
          "name": "",
          "type": "string[]"
        }
      ],
      "stateMutability": "view",
      "type": "function"
    },
    {
      "inputs": [],
      "name": "hasALContracts",
      "outputs": [
        {
          "internalType": "bool",
          "name": "",
          "type": "bool"
        }
      ],
      "stateMutability": "view",
      "type": "function"
    },
    {
      "inputs": [],
      "name": "incrementRound",
      "outputs": [],
      "stateMutability": "nonpayable",
      "type": "function"
    },
    {
      "inputs": [
        {
          "internalType": "string",
          "name": "sampleId",
          "type": "string"
        }
      ],
      "name": "isSampleActive",
      "outputs": [
        {
          "internalType": "bool",
          "name": "",
          "type": "bool"
        }
      ],
      "stateMutability": "view",
      "type": "function"
    },
    {
      "inputs": [
        {
          "internalType": "uint256",
          "name": "",
          "type": "uint256"
        }
      ],
      "name": "labelSpace",
      "outputs": [
        {
          "internalType": "string",
          "name": "",
          "type": "string"
        }
      ],
      "stateMutability": "view",
      "type": "function"
    },
    {
      "inputs": [],
      "name": "maxIteration",
      "outputs": [
        {
          "internalType": "uint256",
          "name": "",
          "type": "uint256"
        }
      ],
      "stateMutability": "view",
      "type": "function"
    },
    {
      "inputs": [],
      "name": "needsALDeployment",
      "outputs": [
        {
          "internalType": "bool",
          "name": "",
          "type": "bool"
        }
      ],
      "stateMutability": "view",
      "type": "function"
    },
    {
      "inputs": [],
      "name": "notifyUnlabeledSamplesExhausted",
      "outputs": [],
      "stateMutability": "nonpayable",
      "type": "function"
    },
    {
      "inputs": [
        {
          "internalType": "string",
          "name": "sampleId",
          "type": "string"
        },
        {
          "internalType": "string",
          "name": "finalLabel",
          "type": "string"
        }
      ],
      "name": "notifyVotingSessionEnded",
      "outputs": [],
      "stateMutability": "nonpayable",
      "type": "function"
    },
    {
      "inputs": [
        {
          "internalType": "string",
          "name": "sampleId",
          "type": "string"
        }
      ],
      "name": "notifyVotingSessionStarted",
      "outputs": [],
      "stateMutability": "nonpayable",
      "type": "function"
    },
    {
      "inputs": [],
      "name": "queryBatchSize",
      "outputs": [
        {
          "internalType": "uint256",
          "name": "",
          "type": "uint256"
        }
      ],
      "stateMutability": "view",
      "type": "function"
    },
    {
      "inputs": [],
      "name": "queryStrategy",
      "outputs": [
        {
          "internalType": "string",
          "name": "",
          "type": "string"
        }
      ],
      "stateMutability": "view",
      "type": "function"
    },
    {
      "inputs": [
        {
          "internalType": "string",
          "name": "sampleId",
          "type": "string"
        },
        {
          "internalType": "string",
          "name": "label",
          "type": "string"
        }
      ],
      "name": "receiveFinalLabelFromVoting",
      "outputs": [],
      "stateMutability": "nonpayable",
      "type": "function"
    },
    {
      "inputs": [
        {
          "internalType": "address",
          "name": "_votingContract",
          "type": "address"
        },
        {
          "internalType": "address",
          "name": "_storageContract",
          "type": "address"
        },
        {
          "internalType": "string",
          "name": "_queryStrategy",
          "type": "string"
        },
        {
          "internalType": "string",
          "name": "_alScenario",
          "type": "string"
        },
        {
          "internalType": "uint256",
          "name": "_maxIteration",
          "type": "uint256"
        },
        {
          "internalType": "uint256",
          "name": "_queryBatchSize",
          "type": "uint256"
        },
        {
          "internalType": "string[]",
          "name": "_labelSpace",
          "type": "string[]"
        },
        {
          "internalType": "string",
          "name": "_rocrateHash",
          "type": "string"
        }
      ],
      "name": "setupALProject",
      "outputs": [],
      "stateMutability": "nonpayable",
      "type": "function"
    },
    {
      "inputs": [],
      "name": "shouldProjectEnd",
      "outputs": [
        {
          "internalType": "bool",
          "name": "shouldEnd",
          "type": "bool"
        },
        {
          "internalType": "string",
          "name": "reason",
          "type": "string"
        }
      ],
      "stateMutability": "view",
      "type": "function"
    },
    {
      "inputs": [
        {
          "internalType": "string[]",
          "name": "sampleIds",
          "type": "string[]"
        },
        {
          "internalType": "string[]",
          "name": "sampleDataHashes",
          "type": "string[]"
        }
      ],
      "name": "startBatchVoting",
      "outputs": [],
      "stateMutability": "nonpayable",
      "type": "function"
    },
    {
      "inputs": [],
      "name": "storageContract",
      "outputs": [
        {
          "internalType": "address",
          "name": "",
          "type": "address"
        }
      ],
      "stateMutability": "view",
      "type": "function"
    },
    {
      "inputs": [
        {
          "internalType": "string",
          "name": "sampleId",
          "type": "string"
        },
        {
          "internalType": "string",
          "name": "label",
          "type": "string"
        },
        {
          "internalType": "uint256",
          "name": "round",
          "type": "uint256"
        }
      ],
      "name": "storeFinalLabel",
      "outputs": [],
      "stateMutability": "nonpayable",
      "type": "function"
    },
    {
      "inputs": [
        {
          "internalType": "string[]",
          "name": "sampleIds",
          "type": "string[]"
        },
        {
          "internalType": "string[]",
          "name": "labels",
          "type": "string[]"
        }
      ],
      "name": "submitBatchVote",
      "outputs": [],
      "stateMutability": "nonpayable",
      "type": "function"
    },
    {
      "inputs": [
        {
          "internalType": "string",
          "name": "reason",
          "type": "string"
        }
      ],
      "name": "triggerNextRound",
      "outputs": [],
      "stateMutability": "nonpayable",
      "type": "function"
    },
    {
      "inputs": [],
      "name": "unlabeledSamplesExhausted",
      "outputs": [
        {
          "internalType": "bool",
          "name": "",
          "type": "bool"
        }
      ],
      "stateMutability": "view",
      "type": "function"
    },
    {
      "inputs": [],
      "name": "votingContract",
      "outputs": [
        {
          "internalType": "address",
          "name": "",
          "type": "address"
        }
      ],
      "stateMutability": "view",
      "type": "function"
    },
    {
      "inputs": [],
      "name": "votingTimeout",
      "outputs": [
        {
          "internalType": "uint256",
          "name": "",
          "type": "uint256"
        }
      ],
      "stateMutability": "view",
      "type": "function"
    }
  ],
  "bytecode": "0x6080604052346100ea576130b68038038061001981610105565b92833981016040828203126100ea5781516001600160a01b03811692908390036100ea576020810151906001600160401b0382116100ea57019080601f830112156100ea578151916001600160401b0383116100ef57610082601f8401601f1916602001610105565b91838352602084830101116100ea5760005b8381106100d5576000838501602001819052610e10600655600c805460ff1916905580546001600160a01b03191686179055604051612f8b908161012b8239f35b80602080928401015182828601015201610094565b600080fd5b634e487b7160e01b600052604160045260246000fd5b6040519190601f01601f191682016001600160401b038111838210176100ef5760405256fe608080604052600436101561001357600080fd5b600090813560e01c90816311ce026714611eb3575080631633e062146119ca57806319b21227146118d757806329f5e65a14611694578063461e198b146114bb5780635bb06c0b14610e905780636ac4e50e14610e195780636c86d12414610df657806372a1c45d14610c6457806377c39c2114610c465780637a83a44b14610c215780637c13f6cf14610be95780637f52cadc14610bcd57806380a8c84914610b465780638a19c8bc14610b28578063a074018414610af8578063a6ea915b146109c6578063b0611068146108f9578063b0942ce5146108db578063b2be4d65146106d8578063b8c3903414610595578063c1fc006a1461056c578063c3a4b41a14610526578063cf3fc0b8146104ff578063d2291e111461047b578063e030832314610419578063e1d5a2c814610369578063eed016be146101805763f1bc33b41461016057600080fd5b3461017d578060031936011261017d576020600654604051908152f35b80fd5b503461017d5761018f3661200d565b82546040516302d05d3f60e01b815290602090829060049082906001600160a01b03165afa801561035e578490610323575b6101d691506001600160a01b03163314612453565b6009546001600160a01b0316906101ee82151561237e565b8251156102e957600b54600181018091116102d5579081859392600b55610213612935565b823b156102d15761025f9284928360405180968195829463579bdae360e11b845260606004850152610248606485018d612325565b916024850152600319848303016044850152612325565b03925af180156102c6576102ad575b507f24c323b0138f1f608c855cccb8550ac649c15bf3cea39b8fdbde80d33258a74f82600b5490516102a760405192839242918461250f565b0390a180f35b816102b791611ed8565b6102c257813861026e565b5080fd5b6040513d84823e3d90fd5b8380fd5b634e487b7160e01b85526011600452602485fd5b60405162461bcd60e51b815260206004820152601260248201527108adae0e8f240e6c2dae0d8ca40c4c2e8c6d60731b6044820152606490fd5b506020813d602011610356575b8161033d60209383611ed8565b810103126102d1576103516101d69161243f565b6101c1565b3d9150610330565b6040513d86823e3d90fd5b503461017d578060031936011261017d576009546001600160a01b031633036103e6578060405161039b602082611ed8565b52600b54600181018091116103d257602081600080516020612f1683398151915292600b55604051908152a16103cf612935565b80f35b634e487b7160e01b82526011600452602482fd5b60405162461bcd60e51b815260206004820152600b60248201526a4f6e6c7920766f74696e6760a81b6044820152606490fd5b503461017d57602036600319011261017d57600435906001600160401b03821161017d57602060ff610465826104523660048801611f43565b81604051938285809451938492016122dd565b8101600881520301902054166040519015158152f35b503461017d578060031936011261017d5760075461049881611f11565b916104a66040519384611ed8565b81835260078152600080516020612eb6833981519152602084015b8383106104e257604051602080825281906104de90820188612325565b0390f35b6001602081926104f18561223b565b8152019201920191906104c1565b503461017d578060031936011261017d57546040516001600160a01b039091168152602090f35b503461017d578060031936011261017d576009546001600160a01b0316151580610558575b6020906040519015158152f35b50600a546001600160a01b0316151561054b565b503461017d578060031936011261017d576009546040516001600160a01b039091168152602090f35b503461017d57602036600319011261017d5780546040516302d05d3f60e01b81526004803592602091839182906001600160a01b03165afa80156106cd57839061068e575b6105ef91506001600160a01b03163314612453565b6009546001600160a01b031661060681151561237e565b600b548203610659578291813b15610655578291602483926040519485938492632e30e40d60e21b845260048401525af180156102c6576106445750f35b8161064e91611ed8565b61017d5780f35b5050fd5b60405162461bcd60e51b815260206004820152600d60248201526c125b9d985b1a59081c9bdd5b99609a1b6044820152606490fd5b506020813d6020116106c5575b816106a860209383611ed8565b810103126106c1576106bc6105ef9161243f565b6105da565b8280fd5b3d915061069b565b6040513d85823e3d90fd5b503461017d57602036600319011261017d576004356001600160401b0381116102c257610709903690600401611f43565b61071e60018060a01b0360095416331461248e565b604051815190602081818501936107368183876122dd565b81016008815203019020600160ff19825416179055828391600754925b838110610814575b5050156107a8575b50610791600080516020612e9683398151915291600b54600654604051938493608085526080850190612300565b91602084015260408301524260608301520390a180f35b600160401b811015610800578060016107c492016007556120a4565b6107ec57816107e5600080516020612e9683398151915293610791936125b1565b9150610763565b634e487b7160e01b83526004839052602483fd5b634e487b7160e01b83526041600452602483fd5b61081d816120a4565b50604051815491818961082f856120d5565b9283835260208301956001811690816000146108bc575060011461087b575b5061085b92500382611ed8565b519020855183201461086f57600101610753565b5050506001388061075b565b8b52505060208920899183915b8184106108a0575050602061085b928201013861084e565b6020919250806001915483868801015201920191908391610888565b60ff191687525061085b93151560051b8301602001915038905061084e565b503461017d578060031936011261017d576020600354604051908152f35b503461017d576109083661205a565b9061091e60018060a01b0360095416331461248e565b600a5483906001600160a01b03166109378115156128c0565b600b5490803b156106c15760405163a6ea915b60e01b81529183918391829084908290610969908b8b60048501612907565b03925af180156102c6576109b1575b50507f503607074d0e95d8c0c6b1660c3441384010e05305da22aef0594eb3fcae6236916102a7600b54926040519384934292856124da565b816109bb91611ed8565b6106c1578238610978565b503461017d57606036600319011261017d57806004356001600160401b038111610af5576109f8903690600401611f43565b6024356001600160401b03811161065557610a17903690600401611f43565b82546040516302d05d3f60e01b815290602090829060049082906001600160a01b03165afa801561035e578490610aba575b610a5e91506001600160a01b03163314612453565b600a546001600160a01b031691610a768315156128c0565b823b15610ab557610aa49284928360405180968195829463a6ea915b60e01b84526044359160048501612907565b03925af180156102c6576106445750f35b505050fd5b506020813d602011610aed575b81610ad460209383611ed8565b81010312610ab557610ae8610a5e9161243f565b610a49565b3d9150610ac7565b50fd5b503461017d578060031936011261017d576104de610b1461210f565b604051918291602083526020830190612300565b503461017d578060031936011261017d576020600b54604051908152f35b503461017d578060031936011261017d57610b9d6003546104de600b549160045492600654610b7361210f565b94610b7c6121b6565b92610bab610b88612693565b94604051998a9960e08b5260e08b0190612300565b9089820360208b0152612300565b9460408801526060870152608086015260a085015283820360c0850152612325565b503461017d578060031936011261017d576104de610b146121b6565b503461017d578060031936011261017d57610c02612755565b906104de60405192839215158352604060208401526040830190612300565b503461017d578060031936011261017d576020610c3c6126f6565b6040519015158152f35b503461017d578060031936011261017d576020600454604051908152f35b503461017d578060031936011261017d5780546040516302d05d3f60e01b815290602090829060049082906001600160a01b03165afa9081156102c6578291610dbc575b50600354916004549260209360405193610cc28686611ed8565b83855260405193610cd38786611ed8565b80855260405190610ce48883611ed8565b808252604051610cf48982611ed8565b818152610cff61210f565b92610d086121b6565b94610d11612693565b986040519b8c9b6101808d526101808d01610d2b91612300565b908c8203908d0152610d3c91612300565b6001600160a01b0390911660408b015289810360608b0152610d5d91612300565b88810360808a0152610d6e91612300565b908060a089015260c088015286810360e0880152610d8b91612300565b858103610100870152610d9d91612300565b916101208501526101408401528281036101608401526104de91612325565b90506020813d602011610dee575b81610dd760209383611ed8565b810103126102c257610de89061243f565b38610ca8565b3d9150610dca565b503461017d578060031936011261017d57602060ff600c54166040519015158152f35b503461017d57602036600319011261017d576004356005548110156102c257600554811015610e7c5760058252600080516020612e56833981519152019080610e68576104de610b148361223b565b634e487b7160e01b81526004819052602490fd5b634e487b7160e01b82526032600452602482fd5b503461017d5761010036600319011261017d576004356001600160a01b038116908190036102c2576024356001600160a01b038116908190036106c1576044356001600160401b0381116102d157610eec903690600401611f43565b6064356001600160401b0381116114b757610f0b903690600401611f43565b60a435906084359060c4356001600160401b0381116114b357610f32903690600401611f8f565b9360e4356001600160401b0381116114af57610f52903690600401611f43565b506009546001600160a01b0381161580158161149b575b6113cb575b881515806113c2575b1561138057610f8590612567565b600a54610f9b6001600160a01b03821615612567565b8415611343578515611309576001600160a01b03199182168917600955168617600a55610fc6612b96565b8051906001600160401b0382116112f557610fe26001546120d5565b601f81116112b9575b50602090601f83116001146112545761100e92918a9183611189575b505061253c565b6001555b8051906001600160401b0382116112405761102e6002546120d5565b601f81116111f9575b50602090601f831160011461119457611059929189918361118957505061253c565b6002555b600355600455805190600160401b821161117557600554826005558083106110f3575b50600585528490600080516020612e56833981519152906020015b8383106110d657867fb009e24dd5f140ab58abb9e6f2187d998561150b7da958ebad23a90e26d7366b6040888882519182526020820152a180f35b60016020826110e7839451866125b1565b0192019201919061109b565b60058652600080516020612e568339815191529081019083015b81811061111a5750611080565b80611127600192546120d5565b80611134575b500161110d565b601f8111831461114957508781555b3861112d565b8189526020892061116491601f0160051c8101908401612525565b808852876020812081835555611143565b634e487b7160e01b85526041600452602485fd5b015190503880611007565b600289528189209190601f1984168a5b8181106111e157509084600195949392106111c8575b505050811b0160025561105d565b015160001960f88460031b161c191690553880806111ba565b929360206001819287860151815501950193016111a4565b6002895261123090600080516020612e76833981519152601f850160051c81019160208610611236575b601f0160051c0190612525565b38611037565b9091508190611223565b634e487b7160e01b88526041600452602488fd5b60018a52818a209190601f1984168b5b8181106112a15750908460019594939210611288575b505050811b01600155611012565b015160001960f88460031b161c1916905538808061127a565b92936020600181928786015181550195019301611264565b60018a526112ef90600080516020612f36833981519152601f850160051c8101916020861061123657601f0160051c0190612525565b38610feb565b634e487b7160e01b89526041600452602489fd5b60405162461bcd60e51b8152602060048201526012602482015271496e76616c69642062617463682073697a6560701b6044820152606490fd5b60405162461bcd60e51b815260206004820152601560248201527424b73b30b634b21036b0bc1034ba32b930ba34b7b760591b6044820152606490fd5b60405162461bcd60e51b815260206004820152601a602482015279496e76616c696420636f6e74726163742061646472657373657360301b6044820152606490fd5b50871515610f77565b89546040516302d05d3f60e01b815290602090829060049082906001600160a01b03165afa908115611490578b91611452575b506001600160a01b03163314610f6e57606460405162461bcd60e51b815260206004820152602060248201527f4f6e6c792063726561746f7220616674657220696e697469616c2073657475706044820152fd5b90506020813d602011611488575b8161146d60209383611ed8565b810103126114845761147e9061243f565b386113fe565b8a80fd5b3d9150611460565b6040513d8d823e3d90fd5b50600a546001600160a01b03161515610f69565b8880fd5b8780fd5b8480fd5b503461017d57602036600319011261017d576004356001600160401b0381116102c2576114ec903690600401611f43565b81546040516302d05d3f60e01b81526001600160a01b0390911690602081600481855afa90811561035e57849161164f575b50600491602091611539906001600160a01b03163314612453565b6040516308bcf8b560e21b815292839182905afa9081156106cd578391611620575b50156115f057600b5490600182018092116115dc57817fbb4ba47257d82c025e976bcdc375cc2e26de94efd111bca20cbc9a330d2974556115c4602093600080516020612f1683398151915295600b556040519182918583526060878401526060830190612300565b4260408301520390a1604051908152a16103cf612935565b634e487b7160e01b83526011600452602483fd5b60405162461bcd60e51b8152602060048201526008602482015267496e61637469766560c01b6044820152606490fd5b611642915060203d602011611648575b61163a8183611ed8565b81019061254f565b3861155b565b503d611630565b90506020813d60201161168c575b8161166a60209383611ed8565b810103126102d15760049161153961168360209361243f565b9250509161151e565b3d915061165d565b503461017d576117177f0a1e2f362ccc64de291011914f5087c611557a7331c80f2cdd2aacf89b9dc5646116c73661205a565b6116dc60018060a01b0360095416331461248e565b60405160208184516116f181838589016122dd565b8101600881520301902060ff198154169055600b549384926040519384934292856124da565b0390a1600190829183600754905b81811061180d575081611803575b5061173c578280f35b7f72db402a1d505e0ee50fba411e34bd1f9a6e90ab67b824c438255e747a886b289161176f60405192839242918461250f565b0390a1600754816007558061178357808280f35b60078252600080516020612eb6833981519152908101905b8181106117a85750808280f35b806117b5600192546120d5565b806117c2575b500161179b565b601f811183146117d757508381555b386117bb565b818552602085206117f291601f0160051c8101908401612525565b8084528360208120818355556117d1565b9050151538611733565b91611817836120a4565b5060405190879080549061182a826120d5565b91600181169081156118bf575060011461188c575b50506008815281900360200190205460ff16156118625750600185925b01611725565b919360001981146118785760018091019461185c565b634e487b7160e01b86526011600452602486fd5b90915088526020882088905b8282106118ab575050810160208261183f565b600181602092548487015201910190611898565b60ff191685525050801515028201905060208261183f565b503461017d578060031936011261017d5780546040516302d05d3f60e01b815290602090829060049082906001600160a01b03165afa80156102c657829061198f575b61192f91506001600160a01b03163314612453565b600c5460ff811661194c5760ff1916600117600c556103cf612935565b60405162461bcd60e51b815260206004820152601b60248201527a105b1c9958591e481b585c9ad95908185cc8195e1a185d5cdd1959602a1b6044820152606490fd5b506020813d6020116119c2575b816119a960209383611ed8565b810103126102c2576119bd61192f9161243f565b61191a565b3d915061199c565b503461017d576119d93661200d565b6009549091906119f3906001600160a01b0316151561237e565b8051825103611e7a57805115611e4757825b8151811015611b1c5760ff611a336020611a1f84866123c4565b5181604051938285809451938492016122dd565b81016008815203019020541615611ad857611a4e81836123c4565b515115611aa157611a5f81846123c4565b515115611a6e57600101611a05565b60405162461bcd60e51b815260206004820152600b60248201526a115b5c1d1e481b1858995b60aa1b6044820152606490fd5b60405162461bcd60e51b815260206004820152600f60248201526e115b5c1d1e481cd85b5c1b19481251608a1b6044820152606490fd5b60405162461bcd60e51b815260206004820152601c60248201527b53616d706c65206e6f742061637469766520666f7220766f74696e6760201b6044820152606490fd5b508254604051630b9eb40b60e31b815233600482015291929184916001600160a01b0316908281602481855afa9081156106cd578391611e2d575b505115611dba575b508054604051630b9eb40b60e31b81523360048201529190829060249082906001600160a01b03165afa90811561035e578491611d98575b505115611d57576009546040516320a7c73b60e11b81523360048201526001600160a01b039091169290602081602481875afa908115611d4c578591611d1a575b5015611cc557835b848251821015611c625750807f55b5b37db3e79e0cf5fa16c3b213f5856ebaf6a6e58c56813245533b65587bbd611c3f611c1c600194866123c4565b51611c53611c2a85896123c4565b51604051938493608085526080850190612300565b903360208501528382036040850152612300565b4260608301520390a101611be0565b93929050823b15610ab557611cae92611c9c85809460405196879586948593639a6e81ab60e01b8552606060048601526064850190612325565b83810360031901602485015290612325565b33604483015203925af180156102c6576106445750f35b60405162461bcd60e51b815260206004820152602760248201527f566f746572206e6f74207265676973746572656420696e20766f74696e6720636044820152661bdb9d1c9858dd60ca1b6064820152608490fd5b90506020813d602011611d44575b81611d3560209383611ed8565b810103126114b7575138611bd8565b3d9150611d28565b6040513d87823e3d90fd5b60405162461bcd60e51b8152602060048201526019602482015278139bdd0818481c1c9bda9958dd081c185c9d1a58da5c185b9d603a1b6044820152606490fd5b611db491503d8086833e611dac8183611ed8565b81019061241a565b38611b97565b803b156102c257819060a46040518094819363020011eb60e11b835233600484015260606024840152600b60648401526a31b7b73a3934b13aba37b960a91b6084840152600160448401525af1801561035e57611e19575b8390611b5f565b83611e2691949294611ed8565b9138611e12565b611e4191503d8085833e611dac8183611ed8565b38611b57565b60405162461bcd60e51b815260206004820152600b60248201526a08adae0e8f240c4c2e8c6d60ab1b6044820152606490fd5b60405162461bcd60e51b81526020600482015260116024820152704d69736d6174636865642061727261797360781b6044820152606490fd5b9050346102c257816003193601126102c257600a546001600160a01b03168152602090f35b601f909101601f19168101906001600160401b03821190821017611efb57604052565b634e487b7160e01b600052604160045260246000fd5b6001600160401b038111611efb5760051b60200190565b6001600160401b038111611efb57601f01601f191660200190565b81601f82011215611f8a57803590611f5a82611f28565b92611f686040519485611ed8565b82845260208383010111611f8a57816000926020809301838601378301015290565b600080fd5b9080601f83011215611f8a578135611fa681611f11565b92611fb46040519485611ed8565b81845260208085019260051b82010191838311611f8a5760208201905b838210611fe057505050505090565b81356001600160401b038111611f8a5760209161200287848094880101611f43565b815201910190611fd1565b906040600319830112611f8a576004356001600160401b038111611f8a578261203891600401611f8f565b91602435906001600160401b038211611f8a5761205791600401611f8f565b90565b906040600319830112611f8a576004356001600160401b038111611f8a578261208591600401611f43565b91602435906001600160401b038211611f8a5761205791600401611f43565b6007548110156120bf57600760005260206000200190600090565b634e487b7160e01b600052603260045260246000fd5b90600182811c92168015612105575b60208310146120ef57565b634e487b7160e01b600052602260045260246000fd5b91607f16916120e4565b6040519060008260015491612123836120d5565b80835292600181169081156121975750600114612149575b61214792500383611ed8565b565b50600160009081529091600080516020612f368339815191525b81831061217b5750509060206121479282010161213b565b6020919350806001915483858901015201910190918492612163565b6020925061214794915060ff191682840152151560051b82010161213b565b60405190600082600254916121ca836120d5565b808352926001811690811561219757506001146121ed5761214792500383611ed8565b50600260009081529091600080516020612e768339815191525b81831061221f5750509060206121479282010161213b565b6020919350806001915483858901015201910190918492612207565b906040519182600082549261224f846120d5565b80845293600181169081156122bb5750600114612274575b5061214792500383611ed8565b90506000929192526020600020906000915b81831061229f5750509060206121479282010138612267565b6020919350806001915483858901015201910190918492612286565b90506020925061214794915060ff191682840152151560051b82010138612267565b60005b8381106122f05750506000910152565b81810151838201526020016122e0565b90602091612319815180928185528580860191016122dd565b601f01601f1916010190565b9080602083519182815201916020808360051b8301019401926000915b83831061235157505050505090565b909192939460208061236f600193601f198682030187528951612300565b97019301930191939290612342565b1561238557565b60405162461bcd60e51b8152602060048201526017602482015276159bdd1a5b99c818dbdb9d1c9858dd081b9bdd081cd95d604a1b6044820152606490fd5b80518210156120bf5760209160051b010190565b81601f82011215611f8a5780516123ee81611f28565b926123fc6040519485611ed8565b81845260208284010111611f8a5761205791602080850191016122dd565b90602082820312611f8a5781516001600160401b038111611f8a5761205792016123d8565b51906001600160a01b0382168203611f8a57565b1561245a57565b60405162461bcd60e51b815260206004820152600c60248201526b27b7363c9031b932b0ba37b960a11b6044820152606490fd5b1561249557565b60405162461bcd60e51b815260206004820152601d60248201527f4f6e6c7920766f74696e6720636f6e74726163742063616e2063616c6c0000006044820152606490fd5b906060926124f76125059297969597608085526080850190612300565b908382036020850152612300565b9460408201520152565b6040919493926060820195825260208201520152565b818110612530575050565b60008155600101612525565b8160011b916000199060031b1c19161790565b90816020910312611f8a57518015158103611f8a5790565b1561256e57565b60405162461bcd60e51b815260206004820152601b60248201527a10530818dbdb9d1c9858dd1cc8185b1c9958591e481b1a5b9ad959602a1b6044820152606490fd5b81519192916001600160401b038111611efb576125ce82546120d5565b601f8111612661575b506020601f82116001146125ff5781906125fb93949560009261118957505061253c565b9055565b601f1982169083600052806000209160005b81811061264957509583600195969710612630575b505050811b019055565b015160001960f88460031b161c19169055388080612626565b9192602060018192868b015181550194019201612611565b61268d90836000526020600020601f840160051c8101916020851061123657601f0160051c0190612525565b386125d7565b600554906126a082611f11565b916126ae6040519384611ed8565b80835260056000908152600080516020612e56833981519152602085015b8383106126d95750505050565b6001602081926126e88561223b565b8152019201920191906126cc565b6040516361d25a0d60e11b8152602081600481305afa9081156127495760009161272a575b5061272557600190565b600090565b612743915060203d6020116116485761163a8183611ed8565b3861271b565b6040513d6000823e3d90fd5b6000546040516308bcf8b560e21b815290602090829060049082906001600160a01b03165afa908115612749576000916128a1575b5015612864576003548015159081612857575b5061281c5760ff600c54166127e4576000906040516127bd604082611ed8565b601781527650726f6a656374206973207374696c6c2061637469766560481b602082015290565b6001906040516127f5606082611ed8565b60238152600080516020612ef6833981519152602082015262626c6560e81b604082015290565b60019060405161282d604082611ed8565b601a81527913585e1a5b5d5b481a5d195c985d1a5bdb9cc81c995858da195960321b602082015290565b9050600b5410153861279d565b600190604051612875604082611ed8565b601c81527b141c9bda9958dd081b585b9d585b1b1e4819195858dd1a5d985d195960221b602082015290565b6128ba915060203d6020116116485761163a8183611ed8565b3861278a565b156128c757565b60405162461bcd60e51b815260206004820152601860248201527714dd1bdc9859d94818dbdb9d1c9858dd081b9bdd081cd95d60421b6044820152606490fd5b93929161293090612922604093606088526060880190612300565b908682036020880152612300565b930152565b6000546040516308bcf8b560e21b815290602090829060049082906001600160a01b03165afa90811561274957600091612a44575b5015612147576003548015159081612a37575b506129e15760ff600c541661298e57565b600b54604051906060825260236060830152600080516020612ef6833981519152608083015262626c6560e81b60a08301526020820152426040820152600080516020612ed683398151915260c03392a2565b600b546040519060608252601a60608301527913585e1a5b5d5b481a5d195c985d1a5bdb9cc81c995858da195960321b60808301526020820152426040820152600080516020612ed683398151915260a03392a2565b9050600b5410153861297d565b612a5d915060203d6020116116485761163a8183611ed8565b3861296a565b9080601f83011215611f8a578151612a7a81611f11565b92612a886040519485611ed8565b81845260208085019260051b820101928311611f8a57602001905b828210612ab05750505090565b60208091612abd8461243f565b815201910190612aa3565b9080601f83011215611f8a578151612adf81611f11565b92612aed6040519485611ed8565b81845260208085019260051b820101928311611f8a57602001905b828210612b155750505090565b8151815260209182019101612b08565b906020808351928381520192019060005b818110612b435750505090565b82516001600160a01b0316845260209384019390920191600101612b36565b906020808351928381520192019060005b818110612b805750505090565b8251845260209384019390920191600101612b73565b6009546000906001600160a01b03168015612e51578154604051630caf64f760e11b815291908390839060049082906001600160a01b03165afa80156106cd57839084938591612d3a575b50815115612d33578491612c3c612c1892612c2a604051978895869563cdbf3d0160e01b8752606060048801526064870190612b25565b85810360031901602487015290612325565b83810360031901604485015290612b62565b0381845afa9182156106cd5783908493612cce575b508051612c5f575b50505050565b813b156102d157918391612c9683612ca89560405196879586948593631d70957f60e21b8552604060048601526044850190612b25565b83810360031901602485015290612b62565b03925af180156102c657612cbe575b8080612c59565b81612cc891611ed8565b38612cb7565b9250503d8084843e612ce08184611ed8565b82016040838203126102d15782516001600160401b0381116114b75781612d08918501612a63565b602084015190936001600160401b038211612d2f57612d28929101612ac8565b9138612c51565b8580fd5b5050505050565b935050503d8084843e612d4d8184611ed8565b82016080838203126102d15782516001600160401b0381116114b75781612d75918501612a63565b60208401516001600160401b038111612d2f5784019180601f84011215612d2f57825192612da284611f11565b93612db06040519586611ed8565b80855260208086019160051b830101918383116114af5760208101915b838310612e24575050505060408501516001600160401b038111612e205781612df7918701612ac8565b606086015190956001600160401b0382116114b357612e17929101612ac8565b50909238612be1565b8680fd5b82516001600160401b03811161148457602091612e46878480948701016123d8565b815201920191612dcd565b505056fe036b6384b5eca791c62761152d0c79bb0604c104a5fb6f4eb0703f3154bb3db0405787fa12a823e0f2b7631cc41b3ba8828b3321ca811111fa75cd3aa3bb5ace9b196abb2588eccefb36f3e6c9b15d9e260c633d5b2e0b8f497e6e71c6c1c1eaa66cc928b5edb82af9bd49922954155ab7b0942694bea4ce44661d9a8736c688aee3ab89a33c4a6f38aa24238aed506e7f6db5e298e1f32a0ede72dbe23112c44e6f206d6f726520756e6c6162656c65642073616d706c657320617661696c619aa934e5a98d12b60dabec0f34647f2b63b8fd257ba6480e7ded4cc1ef24c573b10e2d527612073b26eecdfd717e6a320cf44b4afac2b0732d9fcbe2b7fa0cf6a2646970667358221220f7fd0a4ce1959482d9f7fada2a9571535caddaa999778c20bee2b586fc6a50db64736f6c634300081c0033",
  "linkReferences": {},
  "deployedLinkReferences": {}
}