{
  "_format": "hh-sol-artifact-1",
  "contractName": "Asset",
  "sourceName": "contracts/Asset.sol",
  "abi": [
    {
      "inputs": [
        {
          "internalType": "address",
          "name": "_owner",
          "type": "address"
        },
        {
          "internalType": "string",
          "name": "_name",
          "type": "string"
        },
        {
          "internalType": "string",
          "name": "_assetType",
          "type": "string"
        },
        {
          "internalType": "string",
          "name": "_ipfsHash",
          "type": "string"
        },
        {
          "internalType": "address[]",
          "name": "_initialViewers",
          "type": "address[]"
        }
      ],
      "stateMutability": "nonpayable",
      "type": "constructor"
    },
    {
      "anonymous": false,
      "inputs": [
        {
          "indexed": true,
          "internalType": "address",
          "name": "owner",
          "type": "address"
        },
        {
          "indexed": false,
          "internalType": "string",
          "name": "name",
          "type": "string"
        },
        {
          "indexed": false,
          "internalType": "string",
          "name": "ipfsHash",
          "type": "string"
        }
      ],
      "name": "AssetCreated",
      "type": "event"
    },
    {
      "anonymous": false,
      "inputs": [
        {
          "indexed": false,
          "internalType": "string",
          "name": "newIpfsHash",
          "type": "string"
        }
      ],
      "name": "AssetUpdated",
      "type": "event"
    },
    {
      "anonymous": false,
      "inputs": [
        {
          "indexed": true,
          "internalType": "address",
          "name": "previousOwner",
          "type": "address"
        },
        {
          "indexed": true,
          "internalType": "address",
          "name": "newOwner",
          "type": "address"
        }
      ],
      "name": "OwnershipTransferred",
      "type": "event"
    },
    {
      "anonymous": false,
      "inputs": [
        {
          "indexed": true,
          "internalType": "address",
          "name": "viewer",
          "type": "address"
        }
      ],
      "name": "ViewerAdded",
      "type": "event"
    },
    {
      "anonymous": false,
      "inputs": [
        {
          "indexed": true,
          "internalType": "address",
          "name": "viewer",
          "type": "address"
        }
      ],
      "name": "ViewerRemoved",
      "type": "event"
    },
    {
      "inputs": [
        {
          "internalType": "address",
          "name": "_viewer",
          "type": "address"
        }
      ],
      "name": "addViewer",
      "outputs": [],
      "stateMutability": "nonpayable",
      "type": "function"
    },
    {
      "inputs": [],
      "name": "assetType",
      "outputs": [
        {
          "internalType": "string",
          "name": "",
          "type": "string"
        }
      ],
      "stateMutability": "view",
      "type": "function"
    },
    {
      "inputs": [],
      "name": "createdAt",
      "outputs": [
        {
          "internalType": "uint256",
          "name": "",
          "type": "uint256"
        }
      ],
      "stateMutability": "view",
      "type": "function"
    },
    {
      "inputs": [],
      "name": "getAssetInfo",
      "outputs": [
        {
          "internalType": "address",
          "name": "assetOwner",
          "type": "address"
        },
        {
          "internalType": "string",
          "name": "assetName",
          "type": "string"
        },
        {
          "internalType": "string",
          "name": "assetTypeValue",
          "type": "string"
        },
        {
          "internalType": "string",
          "name": "assetIpfsHash",
          "type": "string"
        },
        {
          "internalType": "uint256",
          "name": "created",
          "type": "uint256"
        },
        {
          "internalType": "uint256",
          "name": "updated",
          "type": "uint256"
        }
      ],
      "stateMutability": "view",
      "type": "function"
    },
    {
      "inputs": [],
      "name": "getIpfsHash",
      "outputs": [
        {
          "internalType": "string",
          "name": "",
          "type": "string"
        }
      ],
      "stateMutability": "view",
      "type": "function"
    },
    {
      "inputs": [],
      "name": "getViewerCount",
      "outputs": [
        {
          "internalType": "uint256",
          "name": "",
          "type": "uint256"
        }
      ],
      "stateMutability": "view",
      "type": "function"
    },
    {
      "inputs": [],
      "name": "getViewers",
      "outputs": [
        {
          "internalType": "address[]",
          "name": "",
          "type": "address[]"
        }
      ],
      "stateMutability": "view",
      "type": "function"
    },
    {
      "inputs": [],
      "name": "ipfsHash",
      "outputs": [
        {
          "internalType": "string",
          "name": "",
          "type": "string"
        }
      ],
      "stateMutability": "view",
      "type": "function"
    },
    {
      "inputs": [
        {
          "internalType": "address",
          "name": "_address",
          "type": "address"
        }
      ],
      "name": "isViewer",
      "outputs": [
        {
          "internalType": "bool",
          "name": "",
          "type": "bool"
        }
      ],
      "stateMutability": "view",
      "type": "function"
    },
    {
      "inputs": [],
      "name": "name",
      "outputs": [
        {
          "internalType": "string",
          "name": "",
          "type": "string"
        }
      ],
      "stateMutability": "view",
      "type": "function"
    },
    {
      "inputs": [],
      "name": "owner",
      "outputs": [
        {
          "internalType": "address",
          "name": "",
          "type": "address"
        }
      ],
      "stateMutability": "view",
      "type": "function"
    },
    {
      "inputs": [
        {
          "internalType": "address",
          "name": "_viewer",
          "type": "address"
        }
      ],
      "name": "removeViewer",
      "outputs": [],
      "stateMutability": "nonpayable",
      "type": "function"
    },
    {
      "inputs": [
        {
          "internalType": "address",
          "name": "_newOwner",
          "type": "address"
        }
      ],
      "name": "transferOwnership",
      "outputs": [],
      "stateMutability": "nonpayable",
      "type": "function"
    },
    {
      "inputs": [
        {
          "internalType": "string",
          "name": "_newIpfsHash",
          "type": "string"
        }
      ],
      "name": "updateIpfsHash",
      "outputs": [],
      "stateMutability": "nonpayable",
      "type": "function"
    },
    {
      "inputs": [
        {
          "internalType": "string",
          "name": "_name",
          "type": "string"
        }
      ],
      "name": "updateMetadata",
      "outputs": [],
      "stateMutability": "nonpayable",
      "type": "function"
    },
    {
      "inputs": [],
      "name": "updatedAt",
      "outputs": [
        {
          "internalType": "uint256",
          "name": "",
          "type": "uint256"
        }
      ],
      "stateMutability": "view",
      "type": "function"
    },
    {
      "inputs": [
        {
          "internalType": "uint256",
          "name": "",
          "type": "uint256"
        }
      ],
      "name": "viewerList",
      "outputs": [
        {
          "internalType": "address",
          "name": "",
          "type": "address"
        }
      ],
      "stateMutability": "view",
      "type": "function"
    },
    {
      "inputs": [
        {
          "internalType": "address",
          "name": "",
          "type": "address"
        }
      ],
      "name": "viewers",
      "outputs": [
        {
          "internalType": "bool",
          "name": "",
          "type": "bool"
        }
      ],
      "stateMutability": "view",
      "type": "function"
    }
  ],
  "bytecode": "0x608060405234610798576117cd803803806100198161079d565b92833981019060a08183031261079857610032816107c2565b60208201516001600160401b03811161079857836100519184016107f9565b60408301516001600160401b03811161079857846100709185016107f9565b60608401519092906001600160401b03811161079857856100929186016107f9565b608085015190946001600160401b03821161079857019480601f87011215610798578551956001600160401b0387116104ce578660051b906020806100d881850161079d565b809a8152019282010192831161079857602001905b828210610780575050506001600160a01b031691821561073b578151156106f6578351156106b157600080546001600160a01b0319168417905581516001600160401b0381116104ce57600154600181811c911680156106a7575b60208210146104ae57601f8111610642575b50806020601f82116001146105dc576000916105d1575b508160011b916000199060031b1c1916176001555b8051906001600160401b0382116104ce5760035490600182811c921680156105c7575b60208310146104ae5781601f849311610557575b50602090601f83116001146104ef576000926104e4575b50508160011b916000199060031b1c1916176003555b82516001600160401b0381116104ce57600254600181811c911680156104c4575b60208210146104ae57601f8111610449575b50806020601f82116001146103e3576000916103d8575b508160011b916000199060031b1c1916176002555b426004554260055560005b845181101561037a57600581901b8501602001516001600160a01b0316600081151580610370575b80610359575b610291575b5050600101610254565b818152600660205260408120805460ff191660011790556007546801000000000000000081101561034557600181018060075581101561033157600782527fa66cc928b5edb82af9bd49922954155ab7b0942694bea4ce44661d9a8736c6880180546001600160a01b0319168317905560019291907f8f3cdfcd0f6c43806bbb60258ecb84e7687ad429438a38d75a1dbee3c9e31f509080a29038610287565b634e487b7160e01b82526032600452602482fd5b634e487b7160e01b82526041600452602482fd5b50818152600660205260ff60408220541615610282565b508482141561027c565b506103b87fa87566419658c36d7bd865066c1afb99599c60288ef6a0e107d517ecf739a182916103c685604051938493604085526040850190610849565b908382036020850152610849565b0390a2604051610f5e908161086f8239f35b905084015138610234565b600260009081528181209250601f198416905b81811061043157509083600194939210610418575b5050811b01600255610249565b86015160001960f88460031b161c19169055388061040b565b9192602060018192868b0151815501940192016103f6565b60026000527f405787fa12a823e0f2b7631cc41b3ba8828b3321ca811111fa75cd3aa3bb5ace601f830160051c810191602084106104a4575b601f0160051c01905b818110610498575061021d565b6000815560010161048b565b9091508190610482565b634e487b7160e01b600052602260045260246000fd5b90607f169061020b565b634e487b7160e01b600052604160045260246000fd5b0151905038806101d4565b600360009081528281209350601f198516905b81811061053f5750908460019594939210610526575b505050811b016003556101ea565b015160001960f88460031b161c19169055388080610518565b92936020600181928786015181550195019301610502565b60036000529091507fc2575a0e9e593c00f959f8c92f12db2869c3395a3b0502d05e2516446f71f85b601f840160051c810191602085106105bd575b90601f859493920160051c01905b8181106105ae57506101bd565b600081558493506001016105a1565b9091508190610593565b91607f16916101a9565b905083015138610171565b600160009081528181209250601f198416905b81811061062a57509083600194939210610611575b5050811b01600155610186565b85015160001960f88460031b161c191690553880610604565b9192602060018192868a0151815501940192016105ef565b60016000527fb10e2d527612073b26eecdfd717e6a320cf44b4afac2b0732d9fcbe2b7fa0cf6601f830160051c8101916020841061069d575b601f0160051c01905b818110610691575061015a565b60008155600101610684565b909150819061067b565b90607f1690610148565b60405162461bcd60e51b815260206004820152601960248201527f4950465320686173682063616e6e6f7420626520656d707479000000000000006044820152606490fd5b60405162461bcd60e51b815260206004820152601a60248201527f4173736574206e616d652063616e6e6f7420626520656d7074790000000000006044820152606490fd5b60405162461bcd60e51b815260206004820152601c60248201527f4f776e657220616464726573732063616e6e6f74206265207a65726f000000006044820152606490fd5b6020809161078d846107c2565b8152019101906100ed565b600080fd5b6040519190601f01601f191682016001600160401b038111838210176104ce57604052565b51906001600160a01b038216820361079857565b60005b8381106107e95750506000910152565b81810151838201526020016107d9565b81601f820112156107985780516001600160401b0381116104ce57610827601f8201601f191660200161079d565b92818452602082840101116107985761084691602080850191016107d6565b90565b90602091610862815180928185528580860191016107d6565b601f01601f191601019056fe6080604052600436101561001257600080fd5b60003560e01c806306fdde0314610b4c5780630913348f14610988578063092859f81461096a5780632bba6fb7146109095780633fe3347a146108ed57806355115215146108ab5780635e3109e71461081f578063601f8cf5146106a25780637519ab50146106845780638da5cb5b1461065b5780638dd137d9146105ab578063918b5be114610449578063a69439aa14610406578063c623674f14610202578063cf09e0d0146103e8578063d1d9891414610236578063dc9638c7146102025763f2fde38b146100e257600080fd5b346101fd5760203660031901126101fd576004356001600160a01b038116908190036101fd576000546001600160a01b03811690610121338314610e71565b82156101b957818314610165576001600160a01b031916821760009081557f8be0079c531659141344cd1fd0a4f28419497f9722a3daafe3b4186f6b6457e09080a3005b60405162461bcd60e51b815260206004820152602660248201527f4e6577206f776e6572206973207468652073616d652061732063757272656e746044820152651037bbb732b960d11b6064820152608490fd5b606460405162461bcd60e51b815260206004820152602060248201527f4e6577206f776e657220616464726573732063616e6e6f74206265207a65726f6044820152fd5b600080fd5b346101fd5760003660031901126101fd5761023261021e610d03565b604051918291602083526020830190610d88565b0390f35b346101fd5760203660031901126101fd576004356001600160a01b038116908190036101fd5761027160018060a01b03600054163314610e71565b80600052600660205260ff60406000205416156103b4576000818152600660205260408120805460ff191690555b60075490818110156103ad57826102b582610e40565b905460039190911b1c6001600160a01b0316146102d657600191500161029f565b6000198201918211610397576103096102f161032d93610e40565b905460039190911b1c6001600160a01b031691610e40565b9080546001600160a01b0360039390931b83811b199091169290931690921b179055565b6007548015610381576000190161034381610e40565b81549060018060a01b039060031b1b191690556007555b7f9bef54c131a7d1db8da8d80942585e9ac4b3e3901d5fdf297a72d316d83fa62a600080a2005b634e487b7160e01b600052603160045260246000fd5b634e487b7160e01b600052601160045260246000fd5b505061035a565b60405162461bcd60e51b815260206004820152600c60248201526b2737ba1030903b34b2bbb2b960a11b6044820152606490fd5b346101fd5760003660031901126101fd576020600454604051908152f35b346101fd5760203660031901126101fd576004356001600160a01b038116908190036101fd576000526006602052602060ff604060002054166040519015158152f35b346101fd5761045736610dc9565b61046c60018060a01b03600054163314610e71565b80518061047a575b42600555005b6001600160401b03811161059557610493600154610b68565b601f8111610542575b50602091601f82116001146104de579181926000926104d3575b50508160011b916000199060031b1c1916176001555b8080610474565b0151905082806104b6565b601f198216926001600052806000209160005b85811061052a57508360019510610511575b505050811b016001556104cc565b015160001960f88460031b161c19169055828080610503565b919260206001819286850151815501940192016104f1565b6001600052600080516020610f09833981519152601f830160051c8101916020841061058b575b601f0160051c01905b81811061057f575061049c565b60008155600101610572565b9091508190610569565b634e487b7160e01b600052604160045260246000fd5b346101fd5760003660031901126101fd5760405180602060075492838152018092600760005260206000209060005b81811061063c57505050816105f0910382610ba2565b6040519182916020830190602084525180915260408301919060005b81811061061a575050500390f35b82516001600160a01b031684528594506020938401939092019160010161060c565b82546001600160a01b03168452602090930192600192830192016105da565b346101fd5760003660031901126101fd576000546040516001600160a01b039091168152602090f35b346101fd5760003660031901126101fd576020600554604051908152f35b346101fd5760203660031901126101fd576004356001600160a01b038116908181036101fd576000546001600160a01b03166106df338214610e71565b82156107e157821461079c5781600052600660205260ff60406000205416610764576000828152600660205260409020805460ff1916600117905560075490600160401b8210156105955761030982600161073d9401600755610e40565b7f8f3cdfcd0f6c43806bbb60258ecb84e7687ad429438a38d75a1dbee3c9e31f50600080a2005b60405162461bcd60e51b815260206004820152601060248201526f20b63932b0b23c9030903b34b2bbb2b960811b6044820152606490fd5b60405162461bcd60e51b815260206004820152601f60248201527f4f776e6572206973206175746f6d61746963616c6c79206120766965776572006044820152606490fd5b60405162461bcd60e51b8152602060048201526016602482015275496e76616c696420766965776572206164647265737360501b6044820152606490fd5b346101fd5760003660031901126101fd57600054600454600554916001600160a01b03169061084c610bc5565b9261089c610858610c6c565b61088e610863610d03565b91610880604051988998895260c060208a015260c0890190610d88565b908782036040890152610d88565b908582036060870152610d88565b91608084015260a08301520390f35b346101fd5760203660031901126101fd576004356007548110156101fd576108d4602091610e40565b905460405160039290921b1c6001600160a01b03168152f35b346101fd5760003660031901126101fd5761023261021e610c6c565b346101fd5760203660031901126101fd576004356001600160a01b038116908190036101fd576000546001600160a01b031681148015610951575b6020906040519015158152f35b506000526006602052602060ff60406000205416610944565b346101fd5760003660031901126101fd576020600754604051908152f35b346101fd5761099636610dc9565b6109ab60018060a01b03600054163314610e71565b805115610b0b5780516001600160401b038111610595576109cd600254610b68565b601f8111610ab8575b506020601f8211600114610a3f579181610a2f92600080516020610ee983398151915294600091610a34575b508160011b916000199060031b1c1916176002555b42600555604051918291602083526020830190610d88565b0390a1005b905082015185610a02565b601f198216906002600052806000209160005b818110610aa0575092600080516020610ee9833981519152949260019282610a2f9610610a87575b5050811b01600255610a17565b84015160001960f88460031b161c191690558580610a7a565b91926020600181928689015181550194019201610a52565b6002600052600080516020610ec9833981519152601f830160051c81019160208410610b01575b601f0160051c01905b818110610af557506109d6565b60008155600101610ae8565b9091508190610adf565b60405162461bcd60e51b81526020600482015260196024820152784950465320686173682063616e6e6f7420626520656d70747960381b6044820152606490fd5b346101fd5760003660031901126101fd5761023261021e610bc5565b90600182811c92168015610b98575b6020831014610b8257565b634e487b7160e01b600052602260045260246000fd5b91607f1691610b77565b601f909101601f19168101906001600160401b0382119082101761059557604052565b6040519060008260015491610bd983610b68565b8083529260018116908115610c4d5750600114610bff575b610bfd92500383610ba2565b565b50600160009081529091600080516020610f098339815191525b818310610c31575050906020610bfd92820101610bf1565b6020919350806001915483858901015201910190918492610c19565b60209250610bfd94915060ff191682840152151560051b820101610bf1565b6040519060008260035491610c8083610b68565b8083529260018116908115610c4d5750600114610ca357610bfd92500383610ba2565b506003600090815290917fc2575a0e9e593c00f959f8c92f12db2869c3395a3b0502d05e2516446f71f85b5b818310610ce7575050906020610bfd92820101610bf1565b6020919350806001915483858901015201910190918492610ccf565b6040519060008260025491610d1783610b68565b8083529260018116908115610c4d5750600114610d3a57610bfd92500383610ba2565b50600260009081529091600080516020610ec98339815191525b818310610d6c575050906020610bfd92820101610bf1565b6020919350806001915483858901015201910190918492610d54565b919082519283825260005b848110610db4575050826000602080949584010152601f8019910116010190565b80602080928401015182828601015201610d93565b60206003198201126101fd576004356001600160401b0381116101fd57816023820112156101fd576004810135906001600160401b0382116105955760405192610e1d601f8401601f191660200185610ba2565b828452602483830101116101fd5781600092602460209301838601378301015290565b600754811015610e5b57600760005260206000200190600090565b634e487b7160e01b600052603260045260246000fd5b15610e7857565b60405162461bcd60e51b815260206004820152602260248201527f4f6e6c79206f776e65722063616e20706572666f726d2074686973206163746960448201526137b760f11b6064820152608490fdfe405787fa12a823e0f2b7631cc41b3ba8828b3321ca811111fa75cd3aa3bb5ace0ecd765e6823641d147d59e06227d616655a1e63ed986c7967bb029d9ab09586b10e2d527612073b26eecdfd717e6a320cf44b4afac2b0732d9fcbe2b7fa0cf6a2646970667358221220287475671364bffa32b3b8fa04f75e732a08ec979df890053506a1e487f1bd9264736f6c634300081c0033",
  "linkReferences": {},
  "deployedLinkReferences": {}
}