{
  "_format": "hh-sol-artifact-1",
  "contractName": "AssetFactory",
  "sourceName": "contracts/AssetFactory.sol",
  "abi": [
    {
      "anonymous": false,
      "inputs": [
        {
          "indexed": true,
          "internalType": "address",
          "name": "creator",
          "type": "address"
        },
        {
          "indexed": true,
          "internalType": "address",
          "name": "assetAddress",
          "type": "address"
        },
        {
          "indexed": false,
          "internalType": "string",
          "name": "name",
          "type": "string"
        },
        {
          "indexed": false,
          "internalType": "string",
          "name": "assetType",
          "type": "string"
        },
        {
          "indexed": false,
          "internalType": "string",
          "name": "ipfsHash",
          "type": "string"
        }
      ],
      "name": "AssetCreated",
      "type": "event"
    },
    {
      "inputs": [
        {
          "internalType": "address",
          "name": "_assetAddress",
          "type": "address"
        },
        {
          "internalType": "address",
          "name": "_viewer",
          "type": "address"
        }
      ],
      "name": "addAssetViewer",
      "outputs": [],
      "stateMutability": "nonpayable",
      "type": "function"
    },
    {
      "inputs": [
        {
          "internalType": "uint256",
          "name": "",
          "type": "uint256"
        }
      ],
      "name": "assets",
      "outputs": [
        {
          "internalType": "address",
          "name": "",
          "type": "address"
        }
      ],
      "stateMutability": "view",
      "type": "function"
    },
    {
      "inputs": [
        {
          "internalType": "address",
          "name": "_assetAddress",
          "type": "address"
        },
        {
          "internalType": "address",
          "name": "_user",
          "type": "address"
        }
      ],
      "name": "canAccessAsset",
      "outputs": [
        {
          "internalType": "bool",
          "name": "",
          "type": "bool"
        }
      ],
      "stateMutability": "view",
      "type": "function"
    },
    {
      "inputs": [
        {
          "internalType": "string",
          "name": "_name",
          "type": "string"
        },
        {
          "internalType": "string",
          "name": "_assetType",
          "type": "string"
        },
        {
          "internalType": "string",
          "name": "_ipfsHash",
          "type": "string"
        },
        {
          "internalType": "address[]",
          "name": "_viewers",
          "type": "address[]"
        }
      ],
      "name": "createAsset",
      "outputs": [
        {
          "internalType": "address",
          "name": "",
          "type": "address"
        }
      ],
      "stateMutability": "nonpayable",
      "type": "function"
    },
    {
      "inputs": [
        {
          "internalType": "address",
          "name": "_user",
          "type": "address"
        }
      ],
      "name": "getAccessibleAssets",
      "outputs": [
        {
          "internalType": "address[]",
          "name": "",
          "type": "address[]"
        }
      ],
      "stateMutability": "view",
      "type": "function"
    },
    {
      "inputs": [],
      "name": "getAllAssets",
      "outputs": [
        {
          "internalType": "address[]",
          "name": "",
          "type": "address[]"
        }
      ],
      "stateMutability": "view",
      "type": "function"
    },
    {
      "inputs": [],
      "name": "getAssetCount",
      "outputs": [
        {
          "internalType": "uint256",
          "name": "",
          "type": "uint256"
        }
      ],
      "stateMutability": "view",
      "type": "function"
    },
    {
      "inputs": [
        {
          "internalType": "address",
          "name": "_assetAddress",
          "type": "address"
        }
      ],
      "name": "getAssetInfo",
      "outputs": [
        {
          "internalType": "address",
          "name": "assetOwner",
          "type": "address"
        },
        {
          "internalType": "string",
          "name": "assetName",
          "type": "string"
        },
        {
          "internalType": "string",
          "name": "assetTypeValue",
          "type": "string"
        },
        {
          "internalType": "string",
          "name": "assetIpfsHash",
          "type": "string"
        },
        {
          "internalType": "uint256",
          "name": "created",
          "type": "uint256"
        },
        {
          "internalType": "uint256",
          "name": "updated",
          "type": "uint256"
        }
      ],
      "stateMutability": "view",
      "type": "function"
    },
    {
      "inputs": [
        {
          "internalType": "address",
          "name": "_user",
          "type": "address"
        }
      ],
      "name": "getUserAssetCount",
      "outputs": [
        {
          "internalType": "uint256",
          "name": "",
          "type": "uint256"
        }
      ],
      "stateMutability": "view",
      "type": "function"
    },
    {
      "inputs": [
        {
          "internalType": "address",
          "name": "_user",
          "type": "address"
        }
      ],
      "name": "getUserAssets",
      "outputs": [
        {
          "internalType": "address[]",
          "name": "",
          "type": "address[]"
        }
      ],
      "stateMutability": "view",
      "type": "function"
    },
    {
      "inputs": [
        {
          "internalType": "address",
          "name": "",
          "type": "address"
        }
      ],
      "name": "isAsset",
      "outputs": [
        {
          "internalType": "bool",
          "name": "",
          "type": "bool"
        }
      ],
      "stateMutability": "view",
      "type": "function"
    },
    {
      "inputs": [
        {
          "internalType": "address",
          "name": "_assetAddress",
          "type": "address"
        }
      ],
      "name": "isValidAsset",
      "outputs": [
        {
          "internalType": "bool",
          "name": "",
          "type": "bool"
        }
      ],
      "stateMutability": "view",
      "type": "function"
    },
    {
      "inputs": [
        {
          "internalType": "address",
          "name": "_assetAddress",
          "type": "address"
        },
        {
          "internalType": "address",
          "name": "_viewer",
          "type": "address"
        }
      ],
      "name": "removeAssetViewer",
      "outputs": [],
      "stateMutability": "nonpayable",
      "type": "function"
    },
    {
      "inputs": [
        {
          "internalType": "address",
          "name": "",
          "type": "address"
        },
        {
          "internalType": "uint256",
          "name": "",
          "type": "uint256"
        }
      ],
      "name": "userAssets",
      "outputs": [
        {
          "internalType": "address",
          "name": "",
          "type": "address"
        }
      ],
      "stateMutability": "view",
      "type": "function"
    }
  ],
  "bytecode": "0x6080806040523460155761258f908161001b8239f35b600080fdfe6080604052600436101561001257600080fd5b6000803560e01c8063058aa2fd146109ed5780632acada4d1461098e578063508fcd85146109555780636609c1291461068b5780636a8a69aa146106435780636c57e07c1461060c5780636c6f03bd1461041857806373c298b71461037f578063765ff061146102ec578063a0aead4d146102cf578063afad2e161461013b578063c87fa42a146100fc578063cc435bf3146100fc5763cf35bdd0146100b757600080fd5b346100f95760203660031901126100f9576004359080548210156100f95760206100e083610bad565b905460405160039290921b1c6001600160a01b03168152f35b80fd5b50346100f95760203660031901126100f95760209060ff906040906001600160a01b03610127610a8d565b168152600284522054166040519015158152f35b50346100f95760203660031901126100f9576004816001600160a01b03610160610a8d565b16808252600260205261017960ff604084205416610c3d565b604051635e3109e760e01b815292839182905afa9081156102c4578291838081809481946101fb575b5050906101de6101ec926101d060405198899860018060a01b0316895260c060208a015260c0890190610c18565b908782036040890152610c18565b908582036060870152610c18565b91608084015260a08301520390f35b95509550505050503d8083833e6102128183610afb565b81019060c0818303126102c0578051906001600160a01b03821682036102bc5760208101516001600160401b0381116102b85783610251918301610d4a565b60408201519093906001600160401b0381116102b45781610273918401610d4a565b606083015190956001600160401b0382116100f957506101ec91610298918401610d4a565b916101de60a060808301519201519495969391949391926101a2565b8580fd5b8480fd5b8380fd5b8280fd5b6040513d84823e3d90fd5b50346100f957806003193601126100f95760209054604051908152f35b50346100f95760203660031901126100f9576001600160a01b0361030e610a8d565b168152600160205260408120604051918260208354918281520192825260208220915b8181106103605761035c8561034881870382610afb565b604051918291602083526020830190610abe565b0390f35b82546001600160a01b0316845260209093019260019283019201610331565b50346100f95760403660031901126100f9578061039a610a8d565b6103a2610aa8565b9060018060a01b03169081835260026020526103c460ff604085205416610c3d565b813b1561041457604051633476624560e21b81526001600160a01b0390911660048201529082908290602490829084905af180156102c4576104035750f35b8161040d91610afb565b6100f95780f35b5050fd5b50346100f95760203660031901126100f957610432610a8d565b81546001600160a01b03909116919081805b82811061057d575061045583610b96565b926104636040519485610afb565b808452610472601f1991610b96565b013660208501378093815b83811061049a576040516020808252819061035c90820188610abe565b602460206104a783610bad565b9054604051632bba6fb760e01b8152600481018790529384929091839160031b1c6001600160a01b03165afa84918161054d575b506104ea575b5060010161047d565b6104f5575b386104e1565b946104ff86610bad565b9054865160039290921b1c6001600160a01b031690821015610539578161053191602060019460051b89010152610d25565b9590506104ef565b634e487b7160e01b84526032600452602484fd5b61056f91925060203d8111610576575b6105678183610afb565b810190610c81565b90386104db565b503d61055d565b6024602061058a83610bad565b9054604051632bba6fb760e01b8152600481018a90529384929091839160031b1c6001600160a01b03165afa8391816105ec575b506105cd575b50600101610444565b6105d8575b386105c4565b926105e4600191610d25565b9390506105d2565b61060591925060203d8111610576576105678183610afb565b90386105be565b50346100f95760403660031901126100f957602061063961062b610a8d565b610633610aa8565b90610c99565b6040519015158152f35b50346100f95760403660031901126100f95761065d610a8d565b6001600160a01b03168152600160205260408120805460243592908310156100f95760206100e08484610bdd565b50346100f95760803660031901126100f9576004356001600160401b038111610951576106bc903690600401610b4f565b6024356001600160401b0381116102c0576106db903690600401610b4f565b906044356001600160401b0381116102bc576106fb903690600401610b4f565b906064356001600160401b0381116102b857366023820112156102b857806004013561072681610b96565b916107346040519384610afb565b8183526024602084019260051b8201019036821161094d57602401915b818310610929575050604051916117cd80840192506001600160401b0383118484101761091557916107cb918493610d8d853933825260a060208301526107bd6107af6107a160a0850189610c18565b84810360408601528a610c18565b838103606085015288610c18565b916080818403910152610abe565b039085f0801561090a5784546001600160a01b03919091169390600160401b8110156108f6578060016108019201875586610bdd565b81546001600160a01b0360039290921b91821b19169086901b179055338552600160205260408520805490600160401b8210156108e257926108d76108c87fababdc4a9ce94ffdb4d70444b2a90cde13a72a6beb9872583a97677d03e9c24494604060209a61087b878c9b9a60016108bb9a018155610bdd565b81549060031b908c821b9160018060a01b03901b191617905589815260028c5220600160ff19825416179055604051948594606086526060860190610c18565b908482038b860152610c18565b82810360408401523395610c18565b0390a3604051908152f35b634e487b7160e01b87526041600452602487fd5b634e487b7160e01b86526041600452602486fd5b6040513d86823e3d90fd5b634e487b7160e01b88526041600452602488fd5b82356001600160a01b038116810361094957815260209283019201610751565b8880fd5b8780fd5b5080fd5b50346100f95760203660031901126100f9576020906040906001600160a01b0361097d610a8d565b168152600183522054604051908152f35b50346100f957806003193601126100f95760405180916020815492838152019181805260208220915b8181106109ce5761035c8561034881870382610afb565b82546001600160a01b03168452602090930192600192830192016109b7565b50346100f95760403660031901126100f95780610a08610a8d565b610a10610aa8565b9060018060a01b0316908183526002602052610a3260ff604085205416610c3d565b813b156104145760405163601f8cf560e01b81526001600160a01b039091166004820152919081908390602490829084905af18015610a8057610a725780f35b610a7b91610afb565b388180f35b50604051903d90823e3d90fd5b600435906001600160a01b0382168203610aa357565b600080fd5b602435906001600160a01b0382168203610aa357565b906020808351928381520192019060005b818110610adc5750505090565b82516001600160a01b0316845260209384019390920191600101610acf565b601f909101601f19168101906001600160401b03821190821017610b1e57604052565b634e487b7160e01b600052604160045260246000fd5b6001600160401b038111610b1e57601f01601f191660200190565b81601f82011215610aa357803590610b6682610b34565b92610b746040519485610afb565b82845260208383010111610aa357816000926020809301838601378301015290565b6001600160401b038111610b1e5760051b60200190565b600054811015610bc7576000805260206000200190600090565b634e487b7160e01b600052603260045260246000fd5b8054821015610bc75760005260206000200190600090565b60005b838110610c085750506000910152565b8181015183820152602001610bf8565b90602091610c3181518092818552858086019101610bf5565b601f01601f1916010190565b15610c4457565b60405162461bcd60e51b8152602060048201526015602482015274496e76616c6964206173736574206164647265737360581b6044820152606490fd5b90816020910312610aa357518015158103610aa35790565b6001600160a01b031660008181526002602052604090205490919060ff1615610d1e57604051632bba6fb760e01b81526001600160a01b03909116600482015290602090829060249082905afa60009181610cfd575b50610cfa5750600090565b90565b610d1791925060203d602011610576576105678183610afb565b9038610cef565b5050600090565b6000198114610d345760010190565b634e487b7160e01b600052601160045260246000fd5b81601f82011215610aa3578051610d6081610b34565b92610d6e6040519485610afb565b81845260208284010111610aa357610cfa9160208085019101610bf556fe608060405234610798576117cd803803806100198161079d565b92833981019060a08183031261079857610032816107c2565b60208201516001600160401b03811161079857836100519184016107f9565b60408301516001600160401b03811161079857846100709185016107f9565b60608401519092906001600160401b03811161079857856100929186016107f9565b608085015190946001600160401b03821161079857019480601f87011215610798578551956001600160401b0387116104ce578660051b906020806100d881850161079d565b809a8152019282010192831161079857602001905b828210610780575050506001600160a01b031691821561073b578151156106f6578351156106b157600080546001600160a01b0319168417905581516001600160401b0381116104ce57600154600181811c911680156106a7575b60208210146104ae57601f8111610642575b50806020601f82116001146105dc576000916105d1575b508160011b916000199060031b1c1916176001555b8051906001600160401b0382116104ce5760035490600182811c921680156105c7575b60208310146104ae5781601f849311610557575b50602090601f83116001146104ef576000926104e4575b50508160011b916000199060031b1c1916176003555b82516001600160401b0381116104ce57600254600181811c911680156104c4575b60208210146104ae57601f8111610449575b50806020601f82116001146103e3576000916103d8575b508160011b916000199060031b1c1916176002555b426004554260055560005b845181101561037a57600581901b8501602001516001600160a01b0316600081151580610370575b80610359575b610291575b5050600101610254565b818152600660205260408120805460ff191660011790556007546801000000000000000081101561034557600181018060075581101561033157600782527fa66cc928b5edb82af9bd49922954155ab7b0942694bea4ce44661d9a8736c6880180546001600160a01b0319168317905560019291907f8f3cdfcd0f6c43806bbb60258ecb84e7687ad429438a38d75a1dbee3c9e31f509080a29038610287565b634e487b7160e01b82526032600452602482fd5b634e487b7160e01b82526041600452602482fd5b50818152600660205260ff60408220541615610282565b508482141561027c565b506103b87fa87566419658c36d7bd865066c1afb99599c60288ef6a0e107d517ecf739a182916103c685604051938493604085526040850190610849565b908382036020850152610849565b0390a2604051610f5e908161086f8239f35b905084015138610234565b600260009081528181209250601f198416905b81811061043157509083600194939210610418575b5050811b01600255610249565b86015160001960f88460031b161c19169055388061040b565b9192602060018192868b0151815501940192016103f6565b60026000527f405787fa12a823e0f2b7631cc41b3ba8828b3321ca811111fa75cd3aa3bb5ace601f830160051c810191602084106104a4575b601f0160051c01905b818110610498575061021d565b6000815560010161048b565b9091508190610482565b634e487b7160e01b600052602260045260246000fd5b90607f169061020b565b634e487b7160e01b600052604160045260246000fd5b0151905038806101d4565b600360009081528281209350601f198516905b81811061053f5750908460019594939210610526575b505050811b016003556101ea565b015160001960f88460031b161c19169055388080610518565b92936020600181928786015181550195019301610502565b60036000529091507fc2575a0e9e593c00f959f8c92f12db2869c3395a3b0502d05e2516446f71f85b601f840160051c810191602085106105bd575b90601f859493920160051c01905b8181106105ae57506101bd565b600081558493506001016105a1565b9091508190610593565b91607f16916101a9565b905083015138610171565b600160009081528181209250601f198416905b81811061062a57509083600194939210610611575b5050811b01600155610186565b85015160001960f88460031b161c191690553880610604565b9192602060018192868a0151815501940192016105ef565b60016000527fb10e2d527612073b26eecdfd717e6a320cf44b4afac2b0732d9fcbe2b7fa0cf6601f830160051c8101916020841061069d575b601f0160051c01905b818110610691575061015a565b60008155600101610684565b909150819061067b565b90607f1690610148565b60405162461bcd60e51b815260206004820152601960248201527f4950465320686173682063616e6e6f7420626520656d707479000000000000006044820152606490fd5b60405162461bcd60e51b815260206004820152601a60248201527f4173736574206e616d652063616e6e6f7420626520656d7074790000000000006044820152606490fd5b60405162461bcd60e51b815260206004820152601c60248201527f4f776e657220616464726573732063616e6e6f74206265207a65726f000000006044820152606490fd5b6020809161078d846107c2565b8152019101906100ed565b600080fd5b6040519190601f01601f191682016001600160401b038111838210176104ce57604052565b51906001600160a01b038216820361079857565b60005b8381106107e95750506000910152565b81810151838201526020016107d9565b81601f820112156107985780516001600160401b0381116104ce57610827601f8201601f191660200161079d565b92818452602082840101116107985761084691602080850191016107d6565b90565b90602091610862815180928185528580860191016107d6565b601f01601f191601019056fe6080604052600436101561001257600080fd5b60003560e01c806306fdde0314610b4c5780630913348f14610988578063092859f81461096a5780632bba6fb7146109095780633fe3347a146108ed57806355115215146108ab5780635e3109e71461081f578063601f8cf5146106a25780637519ab50146106845780638da5cb5b1461065b5780638dd137d9146105ab578063918b5be114610449578063a69439aa14610406578063c623674f14610202578063cf09e0d0146103e8578063d1d9891414610236578063dc9638c7146102025763f2fde38b146100e257600080fd5b346101fd5760203660031901126101fd576004356001600160a01b038116908190036101fd576000546001600160a01b03811690610121338314610e71565b82156101b957818314610165576001600160a01b031916821760009081557f8be0079c531659141344cd1fd0a4f28419497f9722a3daafe3b4186f6b6457e09080a3005b60405162461bcd60e51b815260206004820152602660248201527f4e6577206f776e6572206973207468652073616d652061732063757272656e746044820152651037bbb732b960d11b6064820152608490fd5b606460405162461bcd60e51b815260206004820152602060248201527f4e6577206f776e657220616464726573732063616e6e6f74206265207a65726f6044820152fd5b600080fd5b346101fd5760003660031901126101fd5761023261021e610d03565b604051918291602083526020830190610d88565b0390f35b346101fd5760203660031901126101fd576004356001600160a01b038116908190036101fd5761027160018060a01b03600054163314610e71565b80600052600660205260ff60406000205416156103b4576000818152600660205260408120805460ff191690555b60075490818110156103ad57826102b582610e40565b905460039190911b1c6001600160a01b0316146102d657600191500161029f565b6000198201918211610397576103096102f161032d93610e40565b905460039190911b1c6001600160a01b031691610e40565b9080546001600160a01b0360039390931b83811b199091169290931690921b179055565b6007548015610381576000190161034381610e40565b81549060018060a01b039060031b1b191690556007555b7f9bef54c131a7d1db8da8d80942585e9ac4b3e3901d5fdf297a72d316d83fa62a600080a2005b634e487b7160e01b600052603160045260246000fd5b634e487b7160e01b600052601160045260246000fd5b505061035a565b60405162461bcd60e51b815260206004820152600c60248201526b2737ba1030903b34b2bbb2b960a11b6044820152606490fd5b346101fd5760003660031901126101fd576020600454604051908152f35b346101fd5760203660031901126101fd576004356001600160a01b038116908190036101fd576000526006602052602060ff604060002054166040519015158152f35b346101fd5761045736610dc9565b61046c60018060a01b03600054163314610e71565b80518061047a575b42600555005b6001600160401b03811161059557610493600154610b68565b601f8111610542575b50602091601f82116001146104de579181926000926104d3575b50508160011b916000199060031b1c1916176001555b8080610474565b0151905082806104b6565b601f198216926001600052806000209160005b85811061052a57508360019510610511575b505050811b016001556104cc565b015160001960f88460031b161c19169055828080610503565b919260206001819286850151815501940192016104f1565b6001600052600080516020610f09833981519152601f830160051c8101916020841061058b575b601f0160051c01905b81811061057f575061049c565b60008155600101610572565b9091508190610569565b634e487b7160e01b600052604160045260246000fd5b346101fd5760003660031901126101fd5760405180602060075492838152018092600760005260206000209060005b81811061063c57505050816105f0910382610ba2565b6040519182916020830190602084525180915260408301919060005b81811061061a575050500390f35b82516001600160a01b031684528594506020938401939092019160010161060c565b82546001600160a01b03168452602090930192600192830192016105da565b346101fd5760003660031901126101fd576000546040516001600160a01b039091168152602090f35b346101fd5760003660031901126101fd576020600554604051908152f35b346101fd5760203660031901126101fd576004356001600160a01b038116908181036101fd576000546001600160a01b03166106df338214610e71565b82156107e157821461079c5781600052600660205260ff60406000205416610764576000828152600660205260409020805460ff1916600117905560075490600160401b8210156105955761030982600161073d9401600755610e40565b7f8f3cdfcd0f6c43806bbb60258ecb84e7687ad429438a38d75a1dbee3c9e31f50600080a2005b60405162461bcd60e51b815260206004820152601060248201526f20b63932b0b23c9030903b34b2bbb2b960811b6044820152606490fd5b60405162461bcd60e51b815260206004820152601f60248201527f4f776e6572206973206175746f6d61746963616c6c79206120766965776572006044820152606490fd5b60405162461bcd60e51b8152602060048201526016602482015275496e76616c696420766965776572206164647265737360501b6044820152606490fd5b346101fd5760003660031901126101fd57600054600454600554916001600160a01b03169061084c610bc5565b9261089c610858610c6c565b61088e610863610d03565b91610880604051988998895260c060208a015260c0890190610d88565b908782036040890152610d88565b908582036060870152610d88565b91608084015260a08301520390f35b346101fd5760203660031901126101fd576004356007548110156101fd576108d4602091610e40565b905460405160039290921b1c6001600160a01b03168152f35b346101fd5760003660031901126101fd5761023261021e610c6c565b346101fd5760203660031901126101fd576004356001600160a01b038116908190036101fd576000546001600160a01b031681148015610951575b6020906040519015158152f35b506000526006602052602060ff60406000205416610944565b346101fd5760003660031901126101fd576020600754604051908152f35b346101fd5761099636610dc9565b6109ab60018060a01b03600054163314610e71565b805115610b0b5780516001600160401b038111610595576109cd600254610b68565b601f8111610ab8575b506020601f8211600114610a3f579181610a2f92600080516020610ee983398151915294600091610a34575b508160011b916000199060031b1c1916176002555b42600555604051918291602083526020830190610d88565b0390a1005b905082015185610a02565b601f198216906002600052806000209160005b818110610aa0575092600080516020610ee9833981519152949260019282610a2f9610610a87575b5050811b01600255610a17565b84015160001960f88460031b161c191690558580610a7a565b91926020600181928689015181550194019201610a52565b6002600052600080516020610ec9833981519152601f830160051c81019160208410610b01575b601f0160051c01905b818110610af557506109d6565b60008155600101610ae8565b9091508190610adf565b60405162461bcd60e51b81526020600482015260196024820152784950465320686173682063616e6e6f7420626520656d70747960381b6044820152606490fd5b346101fd5760003660031901126101fd5761023261021e610bc5565b90600182811c92168015610b98575b6020831014610b8257565b634e487b7160e01b600052602260045260246000fd5b91607f1691610b77565b601f909101601f19168101906001600160401b0382119082101761059557604052565b6040519060008260015491610bd983610b68565b8083529260018116908115610c4d5750600114610bff575b610bfd92500383610ba2565b565b50600160009081529091600080516020610f098339815191525b818310610c31575050906020610bfd92820101610bf1565b6020919350806001915483858901015201910190918492610c19565b60209250610bfd94915060ff191682840152151560051b820101610bf1565b6040519060008260035491610c8083610b68565b8083529260018116908115610c4d5750600114610ca357610bfd92500383610ba2565b506003600090815290917fc2575a0e9e593c00f959f8c92f12db2869c3395a3b0502d05e2516446f71f85b5b818310610ce7575050906020610bfd92820101610bf1565b6020919350806001915483858901015201910190918492610ccf565b6040519060008260025491610d1783610b68565b8083529260018116908115610c4d5750600114610d3a57610bfd92500383610ba2565b50600260009081529091600080516020610ec98339815191525b818310610d6c575050906020610bfd92820101610bf1565b6020919350806001915483858901015201910190918492610d54565b919082519283825260005b848110610db4575050826000602080949584010152601f8019910116010190565b80602080928401015182828601015201610d93565b60206003198201126101fd576004356001600160401b0381116101fd57816023820112156101fd576004810135906001600160401b0382116105955760405192610e1d601f8401601f191660200185610ba2565b828452602483830101116101fd5781600092602460209301838601378301015290565b600754811015610e5b57600760005260206000200190600090565b634e487b7160e01b600052603260045260246000fd5b15610e7857565b60405162461bcd60e51b815260206004820152602260248201527f4f6e6c79206f776e65722063616e20706572666f726d2074686973206163746960448201526137b760f11b6064820152608490fdfe405787fa12a823e0f2b7631cc41b3ba8828b3321ca811111fa75cd3aa3bb5ace0ecd765e6823641d147d59e06227d616655a1e63ed986c7967bb029d9ab09586b10e2d527612073b26eecdfd717e6a320cf44b4afac2b0732d9fcbe2b7fa0cf6a2646970667358221220287475671364bffa32b3b8fa04f75e732a08ec979df890053506a1e487f1bd9264736f6c634300081c0033a264697066735822122007956a5c8f6b82daf50ffaac91eeb576bec5f9806a26c67873c12ffbc9c8a68564736f6c634300081c0033",
  "linkReferences": {},
  "deployedLinkReferences": {}
}