{
  "_format": "hh-sol-artifact-1",
  "contractName": "Asset",
  "sourceName": "contracts/Asset.sol",
  "abi": [
    {
      "inputs": [
        {
          "internalType": "address",
          "name": "_owner",
          "type": "address"
        },
        {
          "internalType": "string",
          "name": "_name",
          "type": "string"
        },
        {
          "internalType": "string",
          "name": "_assetType",
          "type": "string"
        },
        {
          "internalType": "string",
          "name": "_ipfsHash",
          "type": "string"
        }
      ],
      "stateMutability": "nonpayable",
      "type": "constructor"
    },
    {
      "anonymous": false,
      "inputs": [
        {
          "indexed": true,
          "internalType": "address",
          "name": "owner",
          "type": "address"
        },
        {
          "indexed": false,
          "internalType": "string",
          "name": "name",
          "type": "string"
        },
        {
          "indexed": false,
          "internalType": "string",
          "name": "ipfsHash",
          "type": "string"
        }
      ],
      "name": "AssetCreated",
      "type": "event"
    },
    {
      "anonymous": false,
      "inputs": [
        {
          "indexed": false,
          "internalType": "string",
          "name": "newIpfsHash",
          "type": "string"
        }
      ],
      "name": "AssetUpdated",
      "type": "event"
    },
    {
      "anonymous": false,
      "inputs": [
        {
          "indexed": true,
          "internalType": "address",
          "name": "previousOwner",
          "type": "address"
        },
        {
          "indexed": true,
          "internalType": "address",
          "name": "newOwner",
          "type": "address"
        }
      ],
      "name": "OwnershipTransferred",
      "type": "event"
    },
    {
      "inputs": [],
      "name": "assetType",
      "outputs": [
        {
          "internalType": "string",
          "name": "",
          "type": "string"
        }
      ],
      "stateMutability": "view",
      "type": "function"
    },
    {
      "inputs": [],
      "name": "createdAt",
      "outputs": [
        {
          "internalType": "uint256",
          "name": "",
          "type": "uint256"
        }
      ],
      "stateMutability": "view",
      "type": "function"
    },
    {
      "inputs": [],
      "name": "getAssetInfo",
      "outputs": [
        {
          "internalType": "address",
          "name": "assetOwner",
          "type": "address"
        },
        {
          "internalType": "string",
          "name": "assetName",
          "type": "string"
        },
        {
          "internalType": "string",
          "name": "assetTypeValue",
          "type": "string"
        },
        {
          "internalType": "string",
          "name": "assetIpfsHash",
          "type": "string"
        },
        {
          "internalType": "uint256",
          "name": "created",
          "type": "uint256"
        },
        {
          "internalType": "uint256",
          "name": "updated",
          "type": "uint256"
        }
      ],
      "stateMutability": "view",
      "type": "function"
    },
    {
      "inputs": [],
      "name": "getIpfsHash",
      "outputs": [
        {
          "internalType": "string",
          "name": "",
          "type": "string"
        }
      ],
      "stateMutability": "view",
      "type": "function"
    },
    {
      "inputs": [],
      "name": "ipfsHash",
      "outputs": [
        {
          "internalType": "string",
          "name": "",
          "type": "string"
        }
      ],
      "stateMutability": "view",
      "type": "function"
    },
    {
      "inputs": [],
      "name": "name",
      "outputs": [
        {
          "internalType": "string",
          "name": "",
          "type": "string"
        }
      ],
      "stateMutability": "view",
      "type": "function"
    },
    {
      "inputs": [],
      "name": "owner",
      "outputs": [
        {
          "internalType": "address",
          "name": "",
          "type": "address"
        }
      ],
      "stateMutability": "view",
      "type": "function"
    },
    {
      "inputs": [
        {
          "internalType": "address",
          "name": "_newOwner",
          "type": "address"
        }
      ],
      "name": "transferOwnership",
      "outputs": [],
      "stateMutability": "nonpayable",
      "type": "function"
    },
    {
      "inputs": [
        {
          "internalType": "string",
          "name": "_newIpfsHash",
          "type": "string"
        }
      ],
      "name": "updateIpfsHash",
      "outputs": [],
      "stateMutability": "nonpayable",
      "type": "function"
    },
    {
      "inputs": [
        {
          "internalType": "string",
          "name": "_name",
          "type": "string"
        }
      ],
      "name": "updateMetadata",
      "outputs": [],
      "stateMutability": "nonpayable",
      "type": "function"
    },
    {
      "inputs": [],
      "name": "updatedAt",
      "outputs": [
        {
          "internalType": "uint256",
          "name": "",
          "type": "uint256"
        }
      ],
      "stateMutability": "view",
      "type": "function"
    }
  ],
  "bytecode": "0x608060405234801561001057600080fd5b50604051610f58380380610f5883398101604081905261002f91610288565b6001600160a01b03841661008a5760405162461bcd60e51b815260206004820152601c60248201527f4f776e657220616464726573732063616e6e6f74206265207a65726f0000000060448201526064015b60405180910390fd5b60008351116100db5760405162461bcd60e51b815260206004820152601a60248201527f4173736574206e616d652063616e6e6f7420626520656d7074790000000000006044820152606401610081565b600081511161012c5760405162461bcd60e51b815260206004820152601960248201527f4950465320686173682063616e6e6f7420626520656d707479000000000000006044820152606401610081565b600080546001600160a01b0319166001600160a01b038616179055600161015384826103c6565b50600361016083826103c6565b50600261016d82826103c6565b504260048190556005556040516001600160a01b038516907fa87566419658c36d7bd865066c1afb99599c60288ef6a0e107d517ecf739a182906101b490869085906104b0565b60405180910390a2505050506104de565b634e487b7160e01b600052604160045260246000fd5b60005b838110156101f65781810151838201526020016101de565b50506000910152565b600082601f83011261021057600080fd5b81516001600160401b03811115610229576102296101c5565b604051601f8201601f19908116603f011681016001600160401b0381118282101715610257576102576101c5565b60405281815283820160200185101561026f57600080fd5b6102808260208301602087016101db565b949350505050565b6000806000806080858703121561029e57600080fd5b84516001600160a01b03811681146102b557600080fd5b60208601519094506001600160401b038111156102d157600080fd5b6102dd878288016101ff565b604087015190945090506001600160401b038111156102fb57600080fd5b610307878288016101ff565b606087015190935090506001600160401b0381111561032557600080fd5b610331878288016101ff565b91505092959194509250565b600181811c9082168061035157607f821691505b60208210810361037157634e487b7160e01b600052602260045260246000fd5b50919050565b601f8211156103c157806000526020600020601f840160051c8101602085101561039e5750805b601f840160051c820191505b818110156103be57600081556001016103aa565b50505b505050565b81516001600160401b038111156103df576103df6101c5565b6103f3816103ed845461033d565b84610377565b6020601f821160018114610427576000831561040f5750848201515b600019600385901b1c1916600184901b1784556103be565b600084815260208120601f198516915b828110156104575787850151825560209485019460019092019101610437565b50848210156104755786840151600019600387901b60f8161c191681555b50505050600190811b01905550565b6000815180845261049c8160208601602086016101db565b601f01601f19169290920160200192915050565b6040815260006104c36040830185610484565b82810360208401526104d58185610484565b95945050505050565b610a6b806104ed6000396000f3fe608060405234801561001057600080fd5b50600436106100a95760003560e01c80638da5cb5b116100715780638da5cb5b1461011a578063918b5be114610145578063c623674f14610158578063cf09e0d014610160578063dc9638c714610169578063f2fde38b1461017157600080fd5b806306fdde03146100ae5780630913348f146100cc5780633fe3347a146100e15780635e3109e7146100e95780637519ab5014610103575b600080fd5b6100b6610184565b6040516100c39190610739565b60405180910390f35b6100df6100da366004610769565b610212565b005b6100b66102e2565b6100f16102ef565b6040516100c396959493929190610822565b61010c60055481565b6040519081526020016100c3565b60005461012d906001600160a01b031681565b6040516001600160a01b0390911681526020016100c3565b6100df610153366004610769565b6104d1565b6100b6610517565b61010c60045481565b6100b6610524565b6100df61017f366004610882565b6105b6565b60018054610191906108ab565b80601f01602080910402602001604051908101604052809291908181526020018280546101bd906108ab565b801561020a5780601f106101df5761010080835404028352916020019161020a565b820191906000526020600020905b8154815290600101906020018083116101ed57829003601f168201915b505050505081565b6000546001600160a01b031633146102455760405162461bcd60e51b815260040161023c906108e5565b60405180910390fd5b60008151116102965760405162461bcd60e51b815260206004820152601960248201527f4950465320686173682063616e6e6f7420626520656d70747900000000000000604482015260640161023c565b60026102a28282610976565b50426005556040517f0ecd765e6823641d147d59e06227d616655a1e63ed986c7967bb029d9ab09586906102d7908390610739565b60405180910390a150565b60038054610191906108ab565b6000606080606060008060008054906101000a90046001600160a01b0316600160036002600454600554848054610325906108ab565b80601f0160208091040260200160405190810160405280929190818152602001828054610351906108ab565b801561039e5780601f106103735761010080835404028352916020019161039e565b820191906000526020600020905b81548152906001019060200180831161038157829003601f168201915b505050505094508380546103b1906108ab565b80601f01602080910402602001604051908101604052809291908181526020018280546103dd906108ab565b801561042a5780601f106103ff5761010080835404028352916020019161042a565b820191906000526020600020905b81548152906001019060200180831161040d57829003601f168201915b5050505050935082805461043d906108ab565b80601f0160208091040260200160405190810160405280929190818152602001828054610469906108ab565b80156104b65780601f1061048b576101008083540402835291602001916104b6565b820191906000526020600020905b81548152906001019060200180831161049957829003601f168201915b50505050509250955095509550955095509550909192939495565b6000546001600160a01b031633146104fb5760405162461bcd60e51b815260040161023c906108e5565b80511561051057600161050e8282610976565b505b5042600555565b60028054610191906108ab565b606060028054610533906108ab565b80601f016020809104026020016040519081016040528092919081815260200182805461055f906108ab565b80156105ac5780601f10610581576101008083540402835291602001916105ac565b820191906000526020600020905b81548152906001019060200180831161058f57829003601f168201915b5050505050905090565b6000546001600160a01b031633146105e05760405162461bcd60e51b815260040161023c906108e5565b6001600160a01b0381166106365760405162461bcd60e51b815260206004820181905260248201527f4e6577206f776e657220616464726573732063616e6e6f74206265207a65726f604482015260640161023c565b6000546001600160a01b03908116908216036106a35760405162461bcd60e51b815260206004820152602660248201527f4e6577206f776e6572206973207468652073616d652061732063757272656e746044820152651037bbb732b960d11b606482015260840161023c565b600080546001600160a01b038381166001600160a01b0319831681178455604051919092169283917f8be0079c531659141344cd1fd0a4f28419497f9722a3daafe3b4186f6b6457e09190a35050565b6000815180845260005b81811015610719576020818501810151868301820152016106fd565b506000602082860101526020601f19601f83011685010191505092915050565b60208152600061074c60208301846106f3565b9392505050565b634e487b7160e01b600052604160045260246000fd5b60006020828403121561077b57600080fd5b813567ffffffffffffffff81111561079257600080fd5b8201601f810184136107a357600080fd5b803567ffffffffffffffff8111156107bd576107bd610753565b604051601f8201601f19908116603f0116810167ffffffffffffffff811182821017156107ec576107ec610753565b60405281815282820160200186101561080457600080fd5b81602084016020830137600091810160200191909152949350505050565b6001600160a01b038716815260c060208201819052600090610846908301886106f3565b828103604084015261085881886106f3565b9050828103606084015261086c81876106f3565b6080840195909552505060a00152949350505050565b60006020828403121561089457600080fd5b81356001600160a01b038116811461074c57600080fd5b600181811c908216806108bf57607f821691505b6020821081036108df57634e487b7160e01b600052602260045260246000fd5b50919050565b60208082526022908201527f4f6e6c79206f776e65722063616e20706572666f726d2074686973206163746960408201526137b760f11b606082015260800190565b601f82111561097157806000526020600020601f840160051c8101602085101561094e5750805b601f840160051c820191505b8181101561096e576000815560010161095a565b50505b505050565b815167ffffffffffffffff81111561099057610990610753565b6109a48161099e84546108ab565b84610927565b6020601f8211600181146109d857600083156109c05750848201515b600019600385901b1c1916600184901b17845561096e565b600084815260208120601f198516915b82811015610a0857878501518255602094850194600190920191016109e8565b5084821015610a265786840151600019600387901b60f8161c191681555b50505050600190811b0190555056fea26469706673582212207e6f963c6c254901272f189ff08db53bd9054ba03fda27f47095e5ff6e38cb1964736f6c634300081c0033",
  "linkReferences": {},
  "deployedLinkReferences": {}
}