{
  "_format": "hh-sol-artifact-1",
  "contractName": "AssetFactory",
  "sourceName": "contracts/AssetFactory.sol",
  "abi": [
    {
      "anonymous": false,
      "inputs": [
        {
          "indexed": true,
          "internalType": "address",
          "name": "creator",
          "type": "address"
        },
        {
          "indexed": true,
          "internalType": "address",
          "name": "assetAddress",
          "type": "address"
        },
        {
          "indexed": false,
          "internalType": "string",
          "name": "name",
          "type": "string"
        },
        {
          "indexed": false,
          "internalType": "string",
          "name": "assetType",
          "type": "string"
        },
        {
          "indexed": false,
          "internalType": "string",
          "name": "ipfsHash",
          "type": "string"
        }
      ],
      "name": "AssetCreated",
      "type": "event"
    },
    {
      "inputs": [
        {
          "internalType": "uint256",
          "name": "",
          "type": "uint256"
        }
      ],
      "name": "assets",
      "outputs": [
        {
          "internalType": "address",
          "name": "",
          "type": "address"
        }
      ],
      "stateMutability": "view",
      "type": "function"
    },
    {
      "inputs": [
        {
          "internalType": "string",
          "name": "_name",
          "type": "string"
        },
        {
          "internalType": "string",
          "name": "_assetType",
          "type": "string"
        },
        {
          "internalType": "string",
          "name": "_ipfsHash",
          "type": "string"
        }
      ],
      "name": "createAsset",
      "outputs": [
        {
          "internalType": "address",
          "name": "",
          "type": "address"
        }
      ],
      "stateMutability": "nonpayable",
      "type": "function"
    },
    {
      "inputs": [],
      "name": "getAllAssets",
      "outputs": [
        {
          "internalType": "address[]",
          "name": "",
          "type": "address[]"
        }
      ],
      "stateMutability": "view",
      "type": "function"
    },
    {
      "inputs": [],
      "name": "getAssetCount",
      "outputs": [
        {
          "internalType": "uint256",
          "name": "",
          "type": "uint256"
        }
      ],
      "stateMutability": "view",
      "type": "function"
    },
    {
      "inputs": [
        {
          "internalType": "address",
          "name": "_assetAddress",
          "type": "address"
        }
      ],
      "name": "getAssetInfo",
      "outputs": [
        {
          "internalType": "address",
          "name": "assetOwner",
          "type": "address"
        },
        {
          "internalType": "string",
          "name": "assetName",
          "type": "string"
        },
        {
          "internalType": "string",
          "name": "assetTypeValue",
          "type": "string"
        },
        {
          "internalType": "string",
          "name": "assetIpfsHash",
          "type": "string"
        },
        {
          "internalType": "uint256",
          "name": "created",
          "type": "uint256"
        },
        {
          "internalType": "uint256",
          "name": "updated",
          "type": "uint256"
        }
      ],
      "stateMutability": "view",
      "type": "function"
    },
    {
      "inputs": [
        {
          "internalType": "address",
          "name": "_user",
          "type": "address"
        }
      ],
      "name": "getUserAssetCount",
      "outputs": [
        {
          "internalType": "uint256",
          "name": "",
          "type": "uint256"
        }
      ],
      "stateMutability": "view",
      "type": "function"
    },
    {
      "inputs": [
        {
          "internalType": "address",
          "name": "_user",
          "type": "address"
        }
      ],
      "name": "getUserAssets",
      "outputs": [
        {
          "internalType": "address[]",
          "name": "",
          "type": "address[]"
        }
      ],
      "stateMutability": "view",
      "type": "function"
    },
    {
      "inputs": [
        {
          "internalType": "address",
          "name": "",
          "type": "address"
        }
      ],
      "name": "isAsset",
      "outputs": [
        {
          "internalType": "bool",
          "name": "",
          "type": "bool"
        }
      ],
      "stateMutability": "view",
      "type": "function"
    },
    {
      "inputs": [
        {
          "internalType": "address",
          "name": "_assetAddress",
          "type": "address"
        }
      ],
      "name": "isValidAsset",
      "outputs": [
        {
          "internalType": "bool",
          "name": "",
          "type": "bool"
        }
      ],
      "stateMutability": "view",
      "type": "function"
    },
    {
      "inputs": [
        {
          "internalType": "address",
          "name": "",
          "type": "address"
        },
        {
          "internalType": "uint256",
          "name": "",
          "type": "uint256"
        }
      ],
      "name": "userAssets",
      "outputs": [
        {
          "internalType": "address",
          "name": "",
          "type": "address"
        }
      ],
      "stateMutability": "view",
      "type": "function"
    }
  ],
  "bytecode": "0x6080806040523460155761196b908161001b8239f35b600080fdfe608080604052600436101561001357600080fd5b60003560e01c9081632acada4d1461065157508063508fcd85146106175780636a8a69aa146105b4578063765ff06114610524578063a0aead4d14610506578063afad2e161461033d578063c87fa42a146102fe578063cc435bf3146102fe578063cf35bdd0146102a35763de58d1561461008d57600080fd5b3461029e57606036600319011261029e576004356001600160401b03811161029e576100bd9036906004016107d8565b6024356001600160401b03811161029e576100dc9036906004016107d8565b6044356001600160401b03811161029e576100fb9036906004016107d8565b6040519091906110d1808201906001600160401b0382118383101761027c57829161015c9161086584393381526080602082015261014d61013f6080830189610775565b828103604084015286610775565b90606081830391015285610775565b03906000f08015610292576000546001600160a01b03919091169290600160401b81101561027c5780600161019692016000556000610724565b81546001600160a01b0360039290921b91821b19169085901b17905533600090815260016020526040902080549092600160401b82101561027c5760209561027161026261025593610210868a9960017fababdc4a9ce94ffdb4d70444b2a90cde13a72a6beb9872583a97677d03e9c24499018155610724565b81549060031b908a821b9160018060a01b03901b19161790558760005260028a526040600020600160ff19825416179055604051948594606086526060860190610775565b908482038b860152610775565b82810360408401523395610775565b0390a3604051908152f35b634e487b7160e01b600052604160045260246000fd5b6040513d6000823e3d90fd5b600080fd5b3461029e57602036600319011261029e5760043560005481101561029e5760009081548110156102ea5781805260209182902001546040516001600160a01b039091168152f35b634e487b7160e01b82526032600452602482fd5b3461029e57602036600319011261029e576001600160a01b0361031f61070e565b166000526002602052602060ff604060002054166040519015158152f35b3461029e57602036600319011261029e576001600160a01b0361035e61070e565b1680600052600260205260ff60406000205416156104c957600060049160405192838092635e3109e760e01b82525afa908115610292576000908192828390849385936103fe575b50906103e16103ef926103d360405198899860018060a01b0316895260c060208a015260c0890190610775565b908782036040890152610775565b908582036060870152610775565b91608084015260a08301520390f35b949550505050503d8083833e610414818361079a565b81019060c0818303126104c5578051906001600160a01b03821682036104c15760208101516001600160401b0381116104bd578361045391830161081f565b60408201519093906001600160401b0381116104b9578161047591840161081f565b606083015190956001600160401b0382116104b657506103ef9161049a91840161081f565b608083015160a0909301519495939492939091506103e16103a6565b80fd5b8580fd5b8480fd5b8380fd5b8280fd5b60405162461bcd60e51b8152602060048201526015602482015274496e76616c6964206173736574206164647265737360581b6044820152606490fd5b3461029e57600036600319011261029e576020600054604051908152f35b3461029e57602036600319011261029e576001600160a01b0361054561070e565b166000526001602052604060002060405190816020825491828152019160005260206000209060005b81811061059557610591856105858187038261079a565b604051918291826106cb565b0390f35b82546001600160a01b031684526020909301926001928301920161056e565b3461029e57604036600319011261029e576105cd61070e565b6001600160a01b031660009081526001602052604090208054602435919082101561029e576020916105fe91610724565b905460405160039290921b1c6001600160a01b03168152f35b3461029e57602036600319011261029e576001600160a01b0361063861070e565b1660005260016020526020604060002054604051908152f35b3461029e57600036600319011261029e576000805480835281805260208301917f290decd9548b62a8d60345a988386fc84ba6bc95484008f6362f93160ef3e56391905b8181106106ac57610591856105858187038261079a565b82546001600160a01b0316845260209093019260019283019201610695565b602060408183019282815284518094520192019060005b8181106106ef5750505090565b82516001600160a01b03168452602093840193909201916001016106e2565b600435906001600160a01b038216820361029e57565b805482101561073c5760005260206000200190600090565b634e487b7160e01b600052603260045260246000fd5b60005b8381106107655750506000910152565b8181015183820152602001610755565b9060209161078e81518092818552858086019101610752565b601f01601f1916010190565b601f909101601f19168101906001600160401b0382119082101761027c57604052565b6001600160401b03811161027c57601f01601f191660200190565b81601f8201121561029e578035906107ef826107bd565b926107fd604051948561079a565b8284526020838301011161029e57816000926020809301838601378301015290565b81601f8201121561029e578051610835816107bd565b92610843604051948561079a565b8184526020828401011161029e576108619160208085019101610752565b9056fe6080604052346105f1576110d180380380610019816105f6565b9283398101906080818303126105f15780516001600160a01b03811691908290036105f15760208101516001600160401b0381116105f1578361005d91830161063e565b60408201519091906001600160401b0381116105f1578461007f91830161063e565b60608201519094906001600160401b0381116105f15761009f920161063e565b82156105ac578151156105675780511561052257600080546001600160a01b0319168417905581516001600160401b03811161034b57600154600181811c91168015610518575b602082101461032b57601f81116104b3575b50806020601f821160011461044d57600091610442575b508160011b916000199060031b1c1916176001555b83516001600160401b03811161034b57600354600181811c91168015610438575b602082101461032b57601f81116103d3575b50602094601f821160011461036c57948192939495600092610361575b50508160011b916000199060031b1c1916176003555b80516001600160401b03811161034b57600254600181811c91168015610341575b602082101461032b57601f81116102c6575b506020601f82116001146102495761021e92826000805160206110b1833981519152959361022c9360009161023e575b508160011b916000199060031b1c1916176002555b426004554260055560405193849360408552604085019061068e565b90838203602085015261068e565b0390a26040516109fd90816106b48239f35b9050820151386101ed565b601f198216906002600052806000209160005b8181106102ae57508361022c9361021e96936000805160206110b1833981519152989660019410610295575b5050811b01600255610202565b84015160001960f88460031b161c191690553880610288565b9192602060018192868901518155019401920161025c565b60026000527f405787fa12a823e0f2b7631cc41b3ba8828b3321ca811111fa75cd3aa3bb5ace601f830160051c81019160208410610321575b601f0160051c01905b81811061031557506101bd565b60008155600101610308565b90915081906102ff565b634e487b7160e01b600052602260045260246000fd5b90607f16906101ab565b634e487b7160e01b600052604160045260246000fd5b015190503880610174565b601f198216956003600052806000209160005b8881106103bb575083600195969798106103a2575b505050811b0160035561018a565b015160001960f88460031b161c19169055388080610394565b9192602060018192868501518155019401920161037f565b60036000527fc2575a0e9e593c00f959f8c92f12db2869c3395a3b0502d05e2516446f71f85b601f830160051c8101916020841061042e575b601f0160051c01905b8181106104225750610157565b60008155600101610415565b909150819061040c565b90607f1690610145565b90508301513861010f565b600160009081528181209250601f198416905b81811061049b57509083600194939210610482575b5050811b01600155610124565b85015160001960f88460031b161c191690553880610475565b9192602060018192868a015181550194019201610460565b60016000527fb10e2d527612073b26eecdfd717e6a320cf44b4afac2b0732d9fcbe2b7fa0cf6601f830160051c8101916020841061050e575b601f0160051c01905b81811061050257506100f8565b600081556001016104f5565b90915081906104ec565b90607f16906100e6565b60405162461bcd60e51b815260206004820152601960248201527f4950465320686173682063616e6e6f7420626520656d707479000000000000006044820152606490fd5b60405162461bcd60e51b815260206004820152601a60248201527f4173736574206e616d652063616e6e6f7420626520656d7074790000000000006044820152606490fd5b60405162461bcd60e51b815260206004820152601c60248201527f4f776e657220616464726573732063616e6e6f74206265207a65726f000000006044820152606490fd5b600080fd5b6040519190601f01601f191682016001600160401b0381118382101761034b57604052565b60005b83811061062e5750506000910152565b818101518382015260200161061e565b81601f820112156105f15780516001600160401b03811161034b5761066c601f8201601f19166020016105f6565b92818452602082840101116105f15761068b916020808501910161061b565b90565b906020916106a78151809281855285808601910161061b565b601f01601f191601019056fe6080604052600436101561001257600080fd5b60003560e01c806306fdde031461061c5780630913348f146104585780633fe3347a1461043c5780635e3109e7146103b05780637519ab50146103925780638da5cb5b14610369578063918b5be114610207578063c623674f146101b5578063cf09e0d0146101e9578063dc9638c7146101b55763f2fde38b1461009557600080fd5b346101b05760203660031901126101b0576004356001600160a01b038116908190036101b0576000546001600160a01b038116906100d4338314610910565b821561016c57818314610118576001600160a01b031916821760009081557f8be0079c531659141344cd1fd0a4f28419497f9722a3daafe3b4186f6b6457e09080a3005b60405162461bcd60e51b815260206004820152602660248201527f4e6577206f776e6572206973207468652073616d652061732063757272656e746044820152651037bbb732b960d11b6064820152608490fd5b606460405162461bcd60e51b815260206004820152602060248201527f4e6577206f776e657220616464726573732063616e6e6f74206265207a65726f6044820152fd5b600080fd5b346101b05760003660031901126101b0576101e56101d16107d3565b604051918291602083526020830190610858565b0390f35b346101b05760003660031901126101b0576020600454604051908152f35b346101b05761021536610899565b61022a60018060a01b03600054163314610910565b805180610238575b42600555005b6001600160401b03811161035357610251600154610638565b601f8111610300575b50602091601f821160011461029c57918192600092610291575b50508160011b916000199060031b1c1916176001555b8080610232565b015190508280610274565b601f198216926001600052806000209160005b8581106102e8575083600195106102cf575b505050811b0160015561028a565b015160001960f88460031b161c191690558280806102c1565b919260206001819286850151815501940192016102af565b60016000526000805160206109a8833981519152601f830160051c81019160208410610349575b601f0160051c01905b81811061033d575061025a565b60008155600101610330565b9091508190610327565b634e487b7160e01b600052604160045260246000fd5b346101b05760003660031901126101b0576000546040516001600160a01b039091168152602090f35b346101b05760003660031901126101b0576020600554604051908152f35b346101b05760003660031901126101b057600054600454600554916001600160a01b0316906103dd610695565b9261042d6103e961073c565b61041f6103f46107d3565b91610411604051988998895260c060208a015260c0890190610858565b908782036040890152610858565b908582036060870152610858565b91608084015260a08301520390f35b346101b05760003660031901126101b0576101e56101d161073c565b346101b05761046636610899565b61047b60018060a01b03600054163314610910565b8051156105db5780516001600160401b0381116103535761049d600254610638565b601f8111610588575b506020601f821160011461050f5791816104ff9260008051602061098883398151915294600091610504575b508160011b916000199060031b1c1916176002555b42600555604051918291602083526020830190610858565b0390a1005b9050820151856104d2565b601f198216906002600052806000209160005b8181106105705750926000805160206109888339815191529492600192826104ff9610610557575b5050811b016002556104e7565b84015160001960f88460031b161c19169055858061054a565b91926020600181928689015181550194019201610522565b6002600052600080516020610968833981519152601f830160051c810191602084106105d1575b601f0160051c01905b8181106105c557506104a6565b600081556001016105b8565b90915081906105af565b60405162461bcd60e51b81526020600482015260196024820152784950465320686173682063616e6e6f7420626520656d70747960381b6044820152606490fd5b346101b05760003660031901126101b0576101e56101d1610695565b90600182811c92168015610668575b602083101461065257565b634e487b7160e01b600052602260045260246000fd5b91607f1691610647565b601f909101601f19168101906001600160401b0382119082101761035357604052565b60405190600082600154916106a983610638565b808352926001811690811561071d57506001146106cf575b6106cd92500383610672565b565b506001600090815290916000805160206109a88339815191525b8183106107015750509060206106cd928201016106c1565b60209193508060019154838589010152019101909184926106e9565b602092506106cd94915060ff191682840152151560051b8201016106c1565b604051906000826003549161075083610638565b808352926001811690811561071d5750600114610773576106cd92500383610672565b506003600090815290917fc2575a0e9e593c00f959f8c92f12db2869c3395a3b0502d05e2516446f71f85b5b8183106107b75750509060206106cd928201016106c1565b602091935080600191548385890101520191019091849261079f565b60405190600082600254916107e783610638565b808352926001811690811561071d575060011461080a576106cd92500383610672565b506002600090815290916000805160206109688339815191525b81831061083c5750509060206106cd928201016106c1565b6020919350806001915483858901015201910190918492610824565b919082519283825260005b848110610884575050826000602080949584010152601f8019910116010190565b80602080928401015182828601015201610863565b60206003198201126101b0576004356001600160401b0381116101b057816023820112156101b0576004810135906001600160401b03821161035357604051926108ed601f8401601f191660200185610672565b828452602483830101116101b05781600092602460209301838601378301015290565b1561091757565b60405162461bcd60e51b815260206004820152602260248201527f4f6e6c79206f776e65722063616e20706572666f726d2074686973206163746960448201526137b760f11b6064820152608490fdfe405787fa12a823e0f2b7631cc41b3ba8828b3321ca811111fa75cd3aa3bb5ace0ecd765e6823641d147d59e06227d616655a1e63ed986c7967bb029d9ab09586b10e2d527612073b26eecdfd717e6a320cf44b4afac2b0732d9fcbe2b7fa0cf6a264697066735822122019b430138689ec9f0f69dc3fb2081a167cde4a5779bd212494e38e665690300b64736f6c634300081c0033a87566419658c36d7bd865066c1afb99599c60288ef6a0e107d517ecf739a182a264697066735822122074097f5527a42f521629e2f975cb1ae6048d6d6d35e35cabe500451ea524b47164736f6c634300081c0033",
  "linkReferences": {},
  "deployedLinkReferences": {}
}