{
  "_format": "hh-sol-artifact-1",
  "contractName": "FactoryRegistry",
  "sourceName": "contracts/FactoryRegistry.sol",
  "abi": [
    {
      "inputs": [
        {
          "internalType": "string",
          "name": "name",
          "type": "string"
        }
      ],
      "name": "get",
      "outputs": [
        {
          "internalType": "address",
          "name": "",
          "type": "address"
        }
      ],
      "stateMutability": "view",
      "type": "function"
    },
    {
      "inputs": [
        {
          "internalType": "string",
          "name": "name",
          "type": "string"
        },
        {
          "internalType": "address",
          "name": "factory",
          "type": "address"
        }
      ],
      "name": "register",
      "outputs": [],
      "stateMutability": "nonpayable",
      "type": "function"
    }
  ],
  "bytecode": "0x60808060405234601557610168908161001b8239f35b600080fdfe608080604052600436101561001357600080fd5b60003560e01c9081631e59c52914610097575063693ec85e1461003557600080fd5b34610092576020366003190112610092576004356001600160401b03811161009257602061006881923690600401610105565b9190826040519384928337600090820190815203019020546040516001600160a01b039091168152f35b600080fd5b34610092576040366003190112610092576004356001600160401b038111610092576100c7903690600401610105565b6024356001600160a01b03811693929084900361009257816020928492833760009082019081520301902080546001600160a01b0319169091179055005b9181601f84011215610092578235916001600160401b03831161009257602083818601950101116100925756fea2646970667358221220204293a691b5a563d6a26b6ea4ab0067e5146d78ec3ffd5f3f6a83ddffbd67ff64736f6c634300081c0033",
  "linkReferences": {},
  "deployedLinkReferences": {}
}