{
  "_format": "hh-sol-artifact-1",
  "contractName": "JSONProject",
  "sourceName": "contracts/JSONProject.sol",
  "abi": [
    {
      "inputs": [
        {
          "internalType": "address",
          "name": "_creator",
          "type": "address"
        },
        {
          "internalType": "string",
          "name": "_projectData",
          "type": "string"
        }
      ],
      "stateMutability": "nonpayable",
      "type": "constructor"
    },
    {
      "anonymous": false,
      "inputs": [
        {
          "indexed": true,
          "internalType": "address",
          "name": "invitee",
          "type": "address"
        },
        {
          "indexed": true,
          "internalType": "address",
          "name": "project",
          "type": "address"
        },
        {
          "indexed": false,
          "internalType": "uint256",
          "name": "timestamp",
          "type": "uint256"
        }
      ],
      "name": "InvitationAccepted",
      "type": "event"
    },
    {
      "anonymous": false,
      "inputs": [
        {
          "indexed": true,
          "internalType": "address",
          "name": "invitee",
          "type": "address"
        },
        {
          "indexed": true,
          "internalType": "address",
          "name": "project",
          "type": "address"
        },
        {
          "indexed": false,
          "internalType": "uint256",
          "name": "timestamp",
          "type": "uint256"
        }
      ],
      "name": "InvitationRejected",
      "type": "event"
    },
    {
      "anonymous": false,
      "inputs": [
        {
          "indexed": true,
          "internalType": "address",
          "name": "invitee",
          "type": "address"
        },
        {
          "indexed": true,
          "internalType": "address",
          "name": "inviter",
          "type": "address"
        },
        {
          "indexed": false,
          "internalType": "string",
          "name": "role",
          "type": "string"
        },
        {
          "indexed": false,
          "internalType": "uint256",
          "name": "timestamp",
          "type": "uint256"
        }
      ],
      "name": "InvitationSent",
      "type": "event"
    },
    {
      "anonymous": false,
      "inputs": [
        {
          "indexed": true,
          "internalType": "address",
          "name": "requester",
          "type": "address"
        },
        {
          "indexed": true,
          "internalType": "address",
          "name": "approver",
          "type": "address"
        },
        {
          "indexed": false,
          "internalType": "uint256",
          "name": "timestamp",
          "type": "uint256"
        }
      ],
      "name": "JoinRequestApproved",
      "type": "event"
    },
    {
      "anonymous": false,
      "inputs": [
        {
          "indexed": true,
          "internalType": "address",
          "name": "requester",
          "type": "address"
        },
        {
          "indexed": true,
          "internalType": "address",
          "name": "rejector",
          "type": "address"
        },
        {
          "indexed": false,
          "internalType": "uint256",
          "name": "timestamp",
          "type": "uint256"
        }
      ],
      "name": "JoinRequestRejected",
      "type": "event"
    },
    {
      "anonymous": false,
      "inputs": [
        {
          "indexed": true,
          "internalType": "address",
          "name": "requester",
          "type": "address"
        },
        {
          "indexed": false,
          "internalType": "string",
          "name": "role",
          "type": "string"
        },
        {
          "indexed": false,
          "internalType": "uint256",
          "name": "timestamp",
          "type": "uint256"
        }
      ],
      "name": "JoinRequestSubmitted",
      "type": "event"
    },
    {
      "anonymous": false,
      "inputs": [
        {
          "indexed": true,
          "internalType": "address",
          "name": "member",
          "type": "address"
        },
        {
          "indexed": false,
          "internalType": "string",
          "name": "role",
          "type": "string"
        },
        {
          "indexed": false,
          "internalType": "uint256",
          "name": "timestamp",
          "type": "uint256"
        }
      ],
      "name": "MemberAdded",
      "type": "event"
    },
    {
      "anonymous": false,
      "inputs": [
        {
          "indexed": true,
          "internalType": "address",
          "name": "creator",
          "type": "address"
        },
        {
          "indexed": false,
          "internalType": "uint256",
          "name": "timestamp",
          "type": "uint256"
        }
      ],
      "name": "ProjectCreated",
      "type": "event"
    },
    {
      "anonymous": false,
      "inputs": [
        {
          "indexed": true,
          "internalType": "address",
          "name": "creator",
          "type": "address"
        },
        {
          "indexed": false,
          "internalType": "uint256",
          "name": "timestamp",
          "type": "uint256"
        }
      ],
      "name": "ProjectDeactivated",
      "type": "event"
    },
    {
      "anonymous": false,
      "inputs": [
        {
          "indexed": true,
          "internalType": "address",
          "name": "creator",
          "type": "address"
        },
        {
          "indexed": false,
          "internalType": "uint256",
          "name": "timestamp",
          "type": "uint256"
        }
      ],
      "name": "ProjectReactivated",
      "type": "event"
    },
    {
      "anonymous": false,
      "inputs": [
        {
          "indexed": true,
          "internalType": "address",
          "name": "updater",
          "type": "address"
        },
        {
          "indexed": false,
          "internalType": "uint256",
          "name": "timestamp",
          "type": "uint256"
        }
      ],
      "name": "ProjectUpdated",
      "type": "event"
    },
    {
      "inputs": [],
      "name": "acceptInvitation",
      "outputs": [],
      "stateMutability": "nonpayable",
      "type": "function"
    },
    {
      "inputs": [
        {
          "internalType": "address",
          "name": "member",
          "type": "address"
        },
        {
          "internalType": "string",
          "name": "role",
          "type": "string"
        }
      ],
      "name": "addMember",
      "outputs": [],
      "stateMutability": "nonpayable",
      "type": "function"
    },
    {
      "inputs": [
        {
          "internalType": "address",
          "name": "_requester",
          "type": "address"
        }
      ],
      "name": "approveJoinRequest",
      "outputs": [],
      "stateMutability": "nonpayable",
      "type": "function"
    },
    {
      "inputs": [],
      "name": "createdAt",
      "outputs": [
        {
          "internalType": "uint256",
          "name": "",
          "type": "uint256"
        }
      ],
      "stateMutability": "view",
      "type": "function"
    },
    {
      "inputs": [],
      "name": "creator",
      "outputs": [
        {
          "internalType": "address",
          "name": "",
          "type": "address"
        }
      ],
      "stateMutability": "view",
      "type": "function"
    },
    {
      "inputs": [],
      "name": "deactivateProject",
      "outputs": [],
      "stateMutability": "nonpayable",
      "type": "function"
    },
    {
      "inputs": [],
      "name": "getAllInvitees",
      "outputs": [
        {
          "internalType": "address[]",
          "name": "",
          "type": "address[]"
        }
      ],
      "stateMutability": "view",
      "type": "function"
    },
    {
      "inputs": [],
      "name": "getAllRequesters",
      "outputs": [
        {
          "internalType": "address[]",
          "name": "",
          "type": "address[]"
        }
      ],
      "stateMutability": "view",
      "type": "function"
    },
    {
      "inputs": [],
      "name": "getCreator",
      "outputs": [
        {
          "internalType": "address",
          "name": "",
          "type": "address"
        }
      ],
      "stateMutability": "view",
      "type": "function"
    },
    {
      "inputs": [
        {
          "internalType": "address",
          "name": "_invitee",
          "type": "address"
        }
      ],
      "name": "getInvitation",
      "outputs": [
        {
          "internalType": "address",
          "name": "invitee",
          "type": "address"
        },
        {
          "internalType": "string",
          "name": "role",
          "type": "string"
        },
        {
          "internalType": "uint256",
          "name": "timestamp",
          "type": "uint256"
        },
        {
          "internalType": "bool",
          "name": "exists",
          "type": "bool"
        }
      ],
      "stateMutability": "view",
      "type": "function"
    },
    {
      "inputs": [],
      "name": "getIsActive",
      "outputs": [
        {
          "internalType": "bool",
          "name": "",
          "type": "bool"
        }
      ],
      "stateMutability": "view",
      "type": "function"
    },
    {
      "inputs": [
        {
          "internalType": "address",
          "name": "_requester",
          "type": "address"
        }
      ],
      "name": "getJoinRequest",
      "outputs": [
        {
          "internalType": "address",
          "name": "requester",
          "type": "address"
        },
        {
          "internalType": "string",
          "name": "role",
          "type": "string"
        },
        {
          "internalType": "uint256",
          "name": "timestamp",
          "type": "uint256"
        },
        {
          "internalType": "bool",
          "name": "exists",
          "type": "bool"
        }
      ],
      "stateMutability": "view",
      "type": "function"
    },
    {
      "inputs": [],
      "name": "getProjectData",
      "outputs": [
        {
          "internalType": "string",
          "name": "",
          "type": "string"
        }
      ],
      "stateMutability": "view",
      "type": "function"
    },
    {
      "inputs": [],
      "name": "getProjectStatus",
      "outputs": [
        {
          "internalType": "bool",
          "name": "active",
          "type": "bool"
        },
        {
          "internalType": "uint256",
          "name": "created",
          "type": "uint256"
        },
        {
          "internalType": "uint256",
          "name": "modified",
          "type": "uint256"
        },
        {
          "internalType": "address",
          "name": "projectCreator",
          "type": "address"
        }
      ],
      "stateMutability": "view",
      "type": "function"
    },
    {
      "inputs": [],
      "name": "getTimestamps",
      "outputs": [
        {
          "internalType": "uint256",
          "name": "created",
          "type": "uint256"
        },
        {
          "internalType": "uint256",
          "name": "modified",
          "type": "uint256"
        }
      ],
      "stateMutability": "view",
      "type": "function"
    },
    {
      "inputs": [
        {
          "internalType": "address",
          "name": "",
          "type": "address"
        }
      ],
      "name": "invitations",
      "outputs": [
        {
          "internalType": "address",
          "name": "invitee",
          "type": "address"
        },
        {
          "internalType": "string",
          "name": "role",
          "type": "string"
        },
        {
          "internalType": "uint256",
          "name": "timestamp",
          "type": "uint256"
        },
        {
          "internalType": "bool",
          "name": "exists",
          "type": "bool"
        }
      ],
      "stateMutability": "view",
      "type": "function"
    },
    {
      "inputs": [
        {
          "internalType": "uint256",
          "name": "",
          "type": "uint256"
        }
      ],
      "name": "invitees",
      "outputs": [
        {
          "internalType": "address",
          "name": "",
          "type": "address"
        }
      ],
      "stateMutability": "view",
      "type": "function"
    },
    {
      "inputs": [],
      "name": "isActive",
      "outputs": [
        {
          "internalType": "bool",
          "name": "",
          "type": "bool"
        }
      ],
      "stateMutability": "view",
      "type": "function"
    },
    {
      "inputs": [
        {
          "internalType": "address",
          "name": "",
          "type": "address"
        }
      ],
      "name": "joinRequests",
      "outputs": [
        {
          "internalType": "address",
          "name": "requester",
          "type": "address"
        },
        {
          "internalType": "string",
          "name": "role",
          "type": "string"
        },
        {
          "internalType": "uint256",
          "name": "timestamp",
          "type": "uint256"
        },
        {
          "internalType": "bool",
          "name": "exists",
          "type": "bool"
        }
      ],
      "stateMutability": "view",
      "type": "function"
    },
    {
      "inputs": [],
      "name": "lastModified",
      "outputs": [
        {
          "internalType": "uint256",
          "name": "",
          "type": "uint256"
        }
      ],
      "stateMutability": "view",
      "type": "function"
    },
    {
      "inputs": [],
      "name": "projectData",
      "outputs": [
        {
          "internalType": "string",
          "name": "",
          "type": "string"
        }
      ],
      "stateMutability": "view",
      "type": "function"
    },
    {
      "inputs": [],
      "name": "reactivateProject",
      "outputs": [],
      "stateMutability": "nonpayable",
      "type": "function"
    },
    {
      "inputs": [],
      "name": "rejectInvitation",
      "outputs": [],
      "stateMutability": "nonpayable",
      "type": "function"
    },
    {
      "inputs": [
        {
          "internalType": "address",
          "name": "_requester",
          "type": "address"
        }
      ],
      "name": "rejectJoinRequest",
      "outputs": [],
      "stateMutability": "nonpayable",
      "type": "function"
    },
    {
      "inputs": [
        {
          "internalType": "uint256",
          "name": "",
          "type": "uint256"
        }
      ],
      "name": "requesters",
      "outputs": [
        {
          "internalType": "address",
          "name": "",
          "type": "address"
        }
      ],
      "stateMutability": "view",
      "type": "function"
    },
    {
      "inputs": [
        {
          "internalType": "address",
          "name": "_invitee",
          "type": "address"
        },
        {
          "internalType": "string",
          "name": "_role",
          "type": "string"
        }
      ],
      "name": "sendInvitation",
      "outputs": [],
      "stateMutability": "nonpayable",
      "type": "function"
    },
    {
      "inputs": [
        {
          "internalType": "string",
          "name": "_role",
          "type": "string"
        }
      ],
      "name": "submitJoinRequest",
      "outputs": [],
      "stateMutability": "nonpayable",
      "type": "function"
    },
    {
      "inputs": [
        {
          "internalType": "string",
          "name": "_newProjectData",
          "type": "string"
        }
      ],
      "name": "updateProjectData",
      "outputs": [],
      "stateMutability": "nonpayable",
      "type": "function"
    },
    {
      "inputs": [
        {
          "internalType": "string",
          "name": "newData",
          "type": "string"
        }
      ],
      "name": "updateProjectDataAfterAcceptance",
      "outputs": [],
      "stateMutability": "nonpayable",
      "type": "function"
    }
  ],
  "bytecode": "0x608060405234801561001057600080fd5b5060405161210938038061210983398101604081905261002f91610125565b60008151116100845760405162461bcd60e51b815260206004820152601c60248201527f50726f6a65637420646174612063616e6e6f7420626520656d70747900000000604482015260640160405180910390fd5b600080546001600160a01b0319166001600160a01b03841617905560016100ab828261029a565b5042600281905560038190556004805460ff191660011790556040516001600160a01b038416917f20bfd29f3d906f96fc35742fac45a554b19cbd4e21f8c4c1d84cb58fdfc32c899161010091815260200190565b60405180910390a25050610358565b634e487b7160e01b600052604160045260246000fd5b6000806040838503121561013857600080fd5b82516001600160a01b038116811461014f57600080fd5b60208401519092506001600160401b0381111561016b57600080fd5b8301601f8101851361017c57600080fd5b80516001600160401b038111156101955761019561010f565b604051601f8201601f19908116603f011681016001600160401b03811182821017156101c3576101c361010f565b6040528181528282016020018710156101db57600080fd5b60005b828110156101fa576020818501810151838301820152016101de565b506000602083830101528093505050509250929050565b600181811c9082168061022557607f821691505b60208210810361024557634e487b7160e01b600052602260045260246000fd5b50919050565b601f82111561029557806000526020600020601f840160051c810160208510156102725750805b601f840160051c820191505b81811015610292576000815560010161027e565b50505b505050565b81516001600160401b038111156102b3576102b361010f565b6102c7816102c18454610211565b8461024b565b6020601f8211600181146102fb57600083156102e35750848201515b600019600385901b1c1916600184901b178455610292565b600084815260208120601f198516915b8281101561032b578785015182556020948501946001909201910161030b565b50848210156103495786840151600019600387901b60f8161c191681555b50505050600190811b01905550565b611da2806103676000396000f3fe608060405234801561001057600080fd5b50600436106101cf5760003560e01c8063985859f611610104578063c6765d28116100a2578063ef21310611610071578063ef213106146103dc578063f7267cfd146103ef578063f75eade0146103f8578063fba7cc791461040b57600080fd5b8063c6765d2814610364578063cf09e0d014610377578063dfb748aa1461038e578063e7aa3afc146103a157600080fd5b8063b70825dc116100de578063b70825dc1461032e578063bbffd04c14610341578063c127c24714610349578063c3feda171461035c57600080fd5b8063985859f61461030b5780639c0768b314610313578063b56864791461031b57600080fd5b806355b31b55116101715780635e1a6c171161014b5780635e1a6c17146102c8578063728f1112146102db5780637847f1de146102e357806384e07728146102f657600080fd5b806355b31b551461028557806358f43f761461029a57806359abbfe4146102ad57600080fd5b806322f3e2d4116101ad57806322f3e2d41461022a5780632b17b8be1461024757806332c6afd01461026a578063383e1a5e1461027257600080fd5b806302d05d3f146101d45780630ee2cb101461020457806310218f4d14610215575b600080fd5b6000546101e7906001600160a01b031681565b6040516001600160a01b0390911681526020015b60405180910390f35b6000546001600160a01b03166101e7565b610228610223366004611959565b610416565b005b6004546102379060ff1681565b60405190151581526020016101fb565b61025a6102553660046119b2565b610508565b6040516101fb9493929190611a1a565b610228610615565b61025a6102803660046119b2565b6106ea565b61028d610737565b6040516101fb9190611a56565b61025a6102a83660046119b2565b6107c9565b600254600354604080519283526020830191909152016101fb565b6101e76102d6366004611a69565b610888565b6102286108b2565b6102286102f1366004611959565b610ac5565b6102fe610cd6565b6040516101fb9190611a82565b6102fe610e5a565b61028d610fd5565b6102286103293660046119b2565b611063565b6101e761033c366004611a69565b611183565b610228611193565b610228610357366004611ace565b611257565b610228611353565b610228610372366004611959565b611416565b61038060025481565b6040519081526020016101fb565b61022861039c3660046119b2565b6114c8565b6004546002546003546000546040805160ff909516151585526020850193909352918301526001600160a01b031660608201526080016101fb565b61025a6103ea3660046119b2565b6115e1565b61038060035481565b610228610406366004611ace565b61160d565b60045460ff16610237565b6000546001600160a01b031633146104495760405162461bcd60e51b815260040161044090611b1c565b60405180910390fd5b60045460ff1661046b5760405162461bcd60e51b815260040161044090611b68565b60008151116104bc5760405162461bcd60e51b815260206004820152601c60248201527f50726f6a65637420646174612063616e6e6f7420626520656d707479000000006044820152606401610440565b60016104c88282611c20565b5042600381905560405190815233907fc1756fd99ac9a2b1b22b5e701ddb022b897a002144d045b77ac35ce46610fef6906020015b60405180910390a250565b6001600160a01b0380821660009081526006602090815260408083208151608081019092528054909416815260018401805493946060948694859485949093929184019161055590611b97565b80601f016020809104026020016040519081016040528092919081815260200182805461058190611b97565b80156105ce5780601f106105a3576101008083540402835291602001916105ce565b820191906000526020600020905b8154815290600101906020018083116105b157829003601f168201915b5050509183525050600282015460208083019190915260039092015460ff161515604091820152825191830151908301516060909301519199909850919650945092505050565b3360009081526006602052604090206003015460ff166106735760405162461bcd60e51b8152602060048201526019602482015278125b9d9a5d185d1a5bdb88191bd95cc81b9bdd08195e1a5cdd603a1b6044820152606401610440565b33600090815260066020526040812080546001600160a01b03191681559061069e600183018261185e565b5060006002820155600301805460ff19169055604051428152309033907ff7bcbaa371c3a472d8f63f253317d896d63bf307f5e8e913f8eeb9351bc0d4c69060200160405180910390a3565b6001600160a01b0380821660009081526005602090815260408083208151608081019092528054909416815260018401805493946060948694859485949093929184019161055590611b97565b60606001805461074690611b97565b80601f016020809104026020016040519081016040528092919081815260200182805461077290611b97565b80156107bf5780601f10610794576101008083540402835291602001916107bf565b820191906000526020600020905b8154815290600101906020018083116107a257829003601f168201915b5050505050905090565b600660205260009081526040902080546001820180546001600160a01b0390921692916107f590611b97565b80601f016020809104026020016040519081016040528092919081815260200182805461082190611b97565b801561086e5780601f106108435761010080835404028352916020019161086e565b820191906000526020600020905b81548152906001019060200180831161085157829003601f168201915b50505050600283015460039093015491929160ff16905084565b6007818154811061089857600080fd5b6000918252602090912001546001600160a01b0316905081565b60045460ff166108d45760405162461bcd60e51b815260040161044090611b68565b3360009081526006602052604090206003015460ff166109325760405162461bcd60e51b8152602060048201526019602482015278125b9d9a5d185d1a5bdb88191bd95cc81b9bdd08195e1a5cdd603a1b6044820152606401610440565b33600090815260066020908152604080832081516080810190925280546001600160a01b03168252600181018054929391929184019161097190611b97565b80601f016020809104026020016040519081016040528092919081815260200182805461099d90611b97565b80156109ea5780601f106109bf576101008083540402835291602001916109ea565b820191906000526020600020905b8154815290600101906020018083116109cd57829003601f168201915b5050509183525050600282015460208083019190915260039092015460ff1615156040918201523360009081526006909252812080546001600160a01b0319168155919250610a3c600183018261185e565b5060006002820155600301805460ff19169055604051428152309033907f7b7404d30440087c51e068aac60d434f5a3a121313c035893fdf187c11d077b69060200160405180910390a3336001600160a01b03167fac4f9610b174640b0a902ce555faa384cc9c9d291750f76e476f26f97bd079b48260200151426040516104fd929190611cdf565b60045460ff16610ae75760405162461bcd60e51b815260040161044090611b68565b6000546001600160a01b03163303610b545760405162461bcd60e51b815260206004820152602a60248201527f50726f6a6563742063726561746f722063616e6e6f74207375626d6974206a6f6044820152691a5b881c995c5d595cdd60b21b6064820152608401610440565b3360009081526005602052604090206003015460ff1615610bb75760405162461bcd60e51b815260206004820152601b60248201527f4a6f696e207265717565737420616c72656164792065786973747300000000006044820152606401610440565b6000815111610bd85760405162461bcd60e51b815260040161044090611d01565b6040805160808101825233808252602080830185815242848601526001606085018190526000938452600590925293909120825181546001600160a01b0319166001600160a01b03909116178155925191929190820190610c399082611c20565b5060408281015160028301556060909201516003909101805460ff1916911515919091179055600780546001810182556000919091527fa66cc928b5edb82af9bd49922954155ab7b0942694bea4ce44661d9a8736c688018054336001600160a01b0319909116811790915590517fe4d6c018abd0178d4bce0856089ef1876318617b97a1d700bb98506598ab0afc906104fd9084904290611cdf565b60606000805b600754811015610d43576005600060078381548110610cfd57610cfd611d2f565b60009182526020808320909101546001600160a01b0316835282019290925260400190206003015460ff1615610d3b5781610d3781611d45565b9250505b600101610cdc565b5060008167ffffffffffffffff811115610d5f57610d5f6118b4565b604051908082528060200260200182016040528015610d88578160200160208202803683370190505b5090506000805b600754811015610e51576005600060078381548110610db057610db0611d2f565b60009182526020808320909101546001600160a01b0316835282019290925260400190206003015460ff1615610e495760078181548110610df357610df3611d2f565b9060005260206000200160009054906101000a90046001600160a01b0316838381518110610e2357610e23611d2f565b6001600160a01b039092166020928302919091019091015281610e4581611d45565b9250505b600101610d8f565b50909392505050565b60606000805b600854811015610ec7576006600060088381548110610e8157610e81611d2f565b60009182526020808320909101546001600160a01b0316835282019290925260400190206003015460ff1615610ebf5781610ebb81611d45565b9250505b600101610e60565b5060008167ffffffffffffffff811115610ee357610ee36118b4565b604051908082528060200260200182016040528015610f0c578160200160208202803683370190505b5090506000805b600854811015610e51576006600060088381548110610f3457610f34611d2f565b60009182526020808320909101546001600160a01b0316835282019290925260400190206003015460ff1615610fcd5760088181548110610f7757610f77611d2f565b9060005260206000200160009054906101000a90046001600160a01b0316838381518110610fa757610fa7611d2f565b6001600160a01b039092166020928302919091019091015281610fc981611d45565b9250505b600101610f13565b60018054610fe290611b97565b80601f016020809104026020016040519081016040528092919081815260200182805461100e90611b97565b801561105b5780601f106110305761010080835404028352916020019161105b565b820191906000526020600020905b81548152906001019060200180831161103e57829003601f168201915b505050505081565b6000546001600160a01b0316331461108d5760405162461bcd60e51b815260040161044090611b1c565b6001600160a01b03811660009081526005602052604090206003015460ff166110f85760405162461bcd60e51b815260206004820152601b60248201527f4a6f696e207265717565737420646f6573206e6f7420657869737400000000006044820152606401610440565b6001600160a01b038116600090815260056020526040812080546001600160a01b03191681559061112c600183018261185e565b5060006002820155600301805460ff1916905560405142815233906001600160a01b038316907f1a69e67d1be897d0ca0cf1517b4d17e345b4272a80bc900f9fe8e96f261ca1db906020015b60405180910390a350565b6008818154811061089857600080fd5b6000546001600160a01b031633146111bd5760405162461bcd60e51b815260040161044090611b1c565b60045460ff1661120f5760405162461bcd60e51b815260206004820152601b60248201527f50726f6a65637420697320616c726561647920696e61637469766500000000006044820152606401610440565b6004805460ff1916905542600381905560405190815233907f17064d72ee4a5901e55dfa45024ea8f67cdb4895ba6364ab2f8e7223f642ad36906020015b60405180910390a2565b6000546001600160a01b031633146112815760405162461bcd60e51b815260040161044090611b1c565b60045460ff166112a35760405162461bcd60e51b815260040161044090611b68565b6001600160a01b0382166112eb5760405162461bcd60e51b815260206004820152600f60248201526e496e76616c6964206164647265737360881b6044820152606401610440565b600081511161130c5760405162461bcd60e51b815260040161044090611d01565b816001600160a01b03167fac4f9610b174640b0a902ce555faa384cc9c9d291750f76e476f26f97bd079b48242604051611347929190611cdf565b60405180910390a25050565b6000546001600160a01b0316331461137d5760405162461bcd60e51b815260040161044090611b1c565b60045460ff16156113d05760405162461bcd60e51b815260206004820152601960248201527f50726f6a65637420697320616c726561647920616374697665000000000000006044820152606401610440565b6004805460ff1916600117905542600381905560405133917fb351ba71ddc1d2bf39667cebde99fb92eb26b9f418d5049ba0200888ba8107159161124d91815260200190565b60045460ff166114385760405162461bcd60e51b815260040161044090611b68565b60008151116114895760405162461bcd60e51b815260206004820152601c60248201527f50726f6a65637420646174612063616e6e6f7420626520656d707479000000006044820152606401610440565b60016114958282611c20565b5060405142815233907fc1756fd99ac9a2b1b22b5e701ddb022b897a002144d045b77ac35ce46610fef6906020016104fd565b6000546001600160a01b031633146114f25760405162461bcd60e51b815260040161044090611b1c565b6001600160a01b03811660009081526005602052604090206003015460ff1661155d5760405162461bcd60e51b815260206004820152601b60248201527f4a6f696e207265717565737420646f6573206e6f7420657869737400000000006044820152606401610440565b6001600160a01b038116600090815260056020526040812080546001600160a01b031916815590611591600183018261185e565b5060006002820155600301805460ff1916905560405142815233906001600160a01b038316907f423eb00b6a18c3ecfc2170a0e40ef0bad995279070614ba2e4be1b94f67eb88890602001611178565b600560205260009081526040902080546001820180546001600160a01b0390921692916107f590611b97565b6000546001600160a01b031633146116375760405162461bcd60e51b815260040161044090611b1c565b60045460ff166116595760405162461bcd60e51b815260040161044090611b68565b6000546001600160a01b03908116908316036116b75760405162461bcd60e51b815260206004820152601d60248201527f43616e6e6f7420696e766974652070726f6a6563742063726561746f720000006044820152606401610440565b6001600160a01b03821660009081526006602052604090206003015460ff16156117235760405162461bcd60e51b815260206004820152601960248201527f496e7669746174696f6e20616c726561647920657869737473000000000000006044820152606401610440565b60008151116117445760405162461bcd60e51b815260040161044090611d01565b604080516080810182526001600160a01b03848116808352602080840186815242858701526001606086018190526000938452600690925294909120835181546001600160a01b0319169316929092178255925191929091908201906117aa9082611c20565b5060408281015160028301556060909201516003909101805460ff1916911515919091179055600880546001810182556000919091527ff3f7a9fe364faab93b216da50a3214154f22a0a2b415b23a84c8169e8b636ee30180546001600160a01b0319166001600160a01b03851690811790915590513391907f07501885e0e140e0232eed19016a41bde16b8de699d11e7a461f88d6ba58a9cd906118529085904290611cdf565b60405180910390a35050565b50805461186a90611b97565b6000825580601f1061187a575050565b601f016020900490600052602060002090810190611898919061189b565b50565b5b808211156118b0576000815560010161189c565b5090565b634e487b7160e01b600052604160045260246000fd5b600082601f8301126118db57600080fd5b813567ffffffffffffffff8111156118f5576118f56118b4565b604051601f8201601f19908116603f0116810167ffffffffffffffff81118282101715611924576119246118b4565b60405281815283820160200185101561193c57600080fd5b816020850160208301376000918101602001919091529392505050565b60006020828403121561196b57600080fd5b813567ffffffffffffffff81111561198257600080fd5b61198e848285016118ca565b949350505050565b80356001600160a01b03811681146119ad57600080fd5b919050565b6000602082840312156119c457600080fd5b6119cd82611996565b9392505050565b6000815180845260005b818110156119fa576020818501810151868301820152016119de565b506000602082860101526020601f19601f83011685010191505092915050565b6001600160a01b0385168152608060208201819052600090611a3e908301866119d4565b60408301949094525090151560609091015292915050565b6020815260006119cd60208301846119d4565b600060208284031215611a7b57600080fd5b5035919050565b602080825282518282018190526000918401906040840190835b81811015611ac35783516001600160a01b0316835260209384019390920191600101611a9c565b509095945050505050565b60008060408385031215611ae157600080fd5b611aea83611996565b9150602083013567ffffffffffffffff811115611b0657600080fd5b611b12858286016118ca565b9150509250929050565b6020808252602c908201527f4f6e6c792070726f6a6563742063726561746f722063616e20706572666f726d60408201526b103a3434b99030b1ba34b7b760a11b606082015260800190565b60208082526015908201527450726f6a656374206973206e6f742061637469766560581b604082015260600190565b600181811c90821680611bab57607f821691505b602082108103611bcb57634e487b7160e01b600052602260045260246000fd5b50919050565b601f821115611c1b57806000526020600020601f840160051c81016020851015611bf85750805b601f840160051c820191505b81811015611c185760008155600101611c04565b50505b505050565b815167ffffffffffffffff811115611c3a57611c3a6118b4565b611c4e81611c488454611b97565b84611bd1565b6020601f821160018114611c825760008315611c6a5750848201515b600019600385901b1c1916600184901b178455611c18565b600084815260208120601f198516915b82811015611cb25787850151825560209485019460019092019101611c92565b5084821015611cd05786840151600019600387901b60f8161c191681555b50505050600190811b01905550565b604081526000611cf260408301856119d4565b90508260208301529392505050565b602080825260149082015273526f6c652063616e6e6f7420626520656d70747960601b604082015260600190565b634e487b7160e01b600052603260045260246000fd5b600060018201611d6557634e487b7160e01b600052601160045260246000fd5b506001019056fea2646970667358221220011d722068df7213929ba5c15475c17ef36c8192a06218715a3268082ea78ba264736f6c634300081c0033",
  "linkReferences": {},
  "deployedLinkReferences": {}
}