{
  "_format": "hh-sol-artifact-1",
  "contractName": "JSONProject",
  "sourceName": "contracts/JSONProject.sol",
  "abi": [
    {
      "inputs": [
        {
          "internalType": "address",
          "name": "_creator",
          "type": "address"
        },
        {
          "internalType": "string",
          "name": "_projectData",
          "type": "string"
        }
      ],
      "stateMutability": "nonpayable",
      "type": "constructor"
    },
    {
      "anonymous": false,
      "inputs": [
        {
          "indexed": false,
          "internalType": "address",
          "name": "votingContract",
          "type": "address"
        },
        {
          "indexed": false,
          "internalType": "address",
          "name": "storageContract",
          "type": "address"
        }
      ],
      "name": "ALContractsDeployed",
      "type": "event"
    },
    {
      "anonymous": false,
      "inputs": [
        {
          "indexed": false,
          "internalType": "uint256",
          "name": "round",
          "type": "uint256"
        },
        {
          "indexed": false,
          "internalType": "string",
          "name": "reason",
          "type": "string"
        },
        {
          "indexed": false,
          "internalType": "uint256",
          "name": "timestamp",
          "type": "uint256"
        }
      ],
      "name": "ALRoundTriggered",
      "type": "event"
    },
    {
      "anonymous": false,
      "inputs": [
        {
          "indexed": true,
          "internalType": "address",
          "name": "invitee",
          "type": "address"
        },
        {
          "indexed": true,
          "internalType": "address",
          "name": "project",
          "type": "address"
        },
        {
          "indexed": false,
          "internalType": "uint256",
          "name": "timestamp",
          "type": "uint256"
        }
      ],
      "name": "InvitationAccepted",
      "type": "event"
    },
    {
      "anonymous": false,
      "inputs": [
        {
          "indexed": true,
          "internalType": "address",
          "name": "invitee",
          "type": "address"
        },
        {
          "indexed": true,
          "internalType": "address",
          "name": "project",
          "type": "address"
        },
        {
          "indexed": false,
          "internalType": "uint256",
          "name": "timestamp",
          "type": "uint256"
        }
      ],
      "name": "InvitationRejected",
      "type": "event"
    },
    {
      "anonymous": false,
      "inputs": [
        {
          "indexed": true,
          "internalType": "address",
          "name": "invitee",
          "type": "address"
        },
        {
          "indexed": true,
          "internalType": "address",
          "name": "inviter",
          "type": "address"
        },
        {
          "indexed": false,
          "internalType": "string",
          "name": "role",
          "type": "string"
        },
        {
          "indexed": false,
          "internalType": "uint256",
          "name": "timestamp",
          "type": "uint256"
        }
      ],
      "name": "InvitationSent",
      "type": "event"
    },
    {
      "anonymous": false,
      "inputs": [
        {
          "indexed": true,
          "internalType": "address",
          "name": "requester",
          "type": "address"
        },
        {
          "indexed": true,
          "internalType": "address",
          "name": "approver",
          "type": "address"
        },
        {
          "indexed": false,
          "internalType": "uint256",
          "name": "timestamp",
          "type": "uint256"
        }
      ],
      "name": "JoinRequestApproved",
      "type": "event"
    },
    {
      "anonymous": false,
      "inputs": [
        {
          "indexed": true,
          "internalType": "address",
          "name": "requester",
          "type": "address"
        },
        {
          "indexed": true,
          "internalType": "address",
          "name": "rejector",
          "type": "address"
        },
        {
          "indexed": false,
          "internalType": "uint256",
          "name": "timestamp",
          "type": "uint256"
        }
      ],
      "name": "JoinRequestRejected",
      "type": "event"
    },
    {
      "anonymous": false,
      "inputs": [
        {
          "indexed": true,
          "internalType": "address",
          "name": "requester",
          "type": "address"
        },
        {
          "indexed": false,
          "internalType": "string",
          "name": "role",
          "type": "string"
        },
        {
          "indexed": false,
          "internalType": "uint256",
          "name": "timestamp",
          "type": "uint256"
        }
      ],
      "name": "JoinRequestSubmitted",
      "type": "event"
    },
    {
      "anonymous": false,
      "inputs": [
        {
          "indexed": true,
          "internalType": "address",
          "name": "member",
          "type": "address"
        },
        {
          "indexed": false,
          "internalType": "string",
          "name": "role",
          "type": "string"
        },
        {
          "indexed": false,
          "internalType": "uint256",
          "name": "timestamp",
          "type": "uint256"
        }
      ],
      "name": "MemberAdded",
      "type": "event"
    },
    {
      "anonymous": false,
      "inputs": [
        {
          "indexed": true,
          "internalType": "address",
          "name": "participant",
          "type": "address"
        }
      ],
      "name": "ParticipantAdded",
      "type": "event"
    },
    {
      "anonymous": false,
      "inputs": [
        {
          "indexed": true,
          "internalType": "address",
          "name": "creator",
          "type": "address"
        },
        {
          "indexed": false,
          "internalType": "uint256",
          "name": "timestamp",
          "type": "uint256"
        }
      ],
      "name": "ProjectCreated",
      "type": "event"
    },
    {
      "anonymous": false,
      "inputs": [
        {
          "indexed": true,
          "internalType": "address",
          "name": "creator",
          "type": "address"
        },
        {
          "indexed": false,
          "internalType": "uint256",
          "name": "timestamp",
          "type": "uint256"
        }
      ],
      "name": "ProjectDeactivated",
      "type": "event"
    },
    {
      "anonymous": false,
      "inputs": [
        {
          "indexed": true,
          "internalType": "address",
          "name": "creator",
          "type": "address"
        },
        {
          "indexed": false,
          "internalType": "uint256",
          "name": "timestamp",
          "type": "uint256"
        }
      ],
      "name": "ProjectReactivated",
      "type": "event"
    },
    {
      "anonymous": false,
      "inputs": [
        {
          "indexed": true,
          "internalType": "address",
          "name": "updater",
          "type": "address"
        },
        {
          "indexed": false,
          "internalType": "uint256",
          "name": "timestamp",
          "type": "uint256"
        }
      ],
      "name": "ProjectUpdated",
      "type": "event"
    },
    {
      "anonymous": false,
      "inputs": [
        {
          "indexed": false,
          "internalType": "uint256",
          "name": "newRound",
          "type": "uint256"
        }
      ],
      "name": "RoundIncremented",
      "type": "event"
    },
    {
      "inputs": [
        {
          "internalType": "address",
          "name": "_participant",
          "type": "address"
        }
      ],
      "name": "addParticipant",
      "outputs": [],
      "stateMutability": "nonpayable",
      "type": "function"
    },
    {
      "inputs": [],
      "name": "alScenario",
      "outputs": [
        {
          "internalType": "string",
          "name": "",
          "type": "string"
        }
      ],
      "stateMutability": "view",
      "type": "function"
    },
    {
      "inputs": [
        {
          "internalType": "address",
          "name": "_requester",
          "type": "address"
        }
      ],
      "name": "approveJoinRequest",
      "outputs": [],
      "stateMutability": "nonpayable",
      "type": "function"
    },
    {
      "inputs": [],
      "name": "createdAt",
      "outputs": [
        {
          "internalType": "uint256",
          "name": "",
          "type": "uint256"
        }
      ],
      "stateMutability": "view",
      "type": "function"
    },
    {
      "inputs": [],
      "name": "creator",
      "outputs": [
        {
          "internalType": "address",
          "name": "",
          "type": "address"
        }
      ],
      "stateMutability": "view",
      "type": "function"
    },
    {
      "inputs": [],
      "name": "currentRound",
      "outputs": [
        {
          "internalType": "uint256",
          "name": "",
          "type": "uint256"
        }
      ],
      "stateMutability": "view",
      "type": "function"
    },
    {
      "inputs": [],
      "name": "deactivateProject",
      "outputs": [],
      "stateMutability": "nonpayable",
      "type": "function"
    },
    {
      "inputs": [],
      "name": "description",
      "outputs": [
        {
          "internalType": "string",
          "name": "",
          "type": "string"
        }
      ],
      "stateMutability": "view",
      "type": "function"
    },
    {
      "inputs": [],
      "name": "endTime",
      "outputs": [
        {
          "internalType": "uint256",
          "name": "",
          "type": "uint256"
        }
      ],
      "stateMutability": "view",
      "type": "function"
    },
    {
      "inputs": [
        {
          "internalType": "string",
          "name": "sampleId",
          "type": "string"
        }
      ],
      "name": "endVotingSession",
      "outputs": [],
      "stateMutability": "nonpayable",
      "type": "function"
    },
    {
      "inputs": [],
      "name": "getAllRequesters",
      "outputs": [
        {
          "internalType": "address[]",
          "name": "",
          "type": "address[]"
        }
      ],
      "stateMutability": "view",
      "type": "function"
    },
    {
      "inputs": [],
      "name": "getCreator",
      "outputs": [
        {
          "internalType": "address",
          "name": "",
          "type": "address"
        }
      ],
      "stateMutability": "view",
      "type": "function"
    },
    {
      "inputs": [],
      "name": "getIsActive",
      "outputs": [
        {
          "internalType": "bool",
          "name": "",
          "type": "bool"
        }
      ],
      "stateMutability": "view",
      "type": "function"
    },
    {
      "inputs": [
        {
          "internalType": "address",
          "name": "_requester",
          "type": "address"
        }
      ],
      "name": "getJoinRequest",
      "outputs": [
        {
          "internalType": "address",
          "name": "requester",
          "type": "address"
        },
        {
          "internalType": "string",
          "name": "role",
          "type": "string"
        },
        {
          "internalType": "uint256",
          "name": "timestamp",
          "type": "uint256"
        },
        {
          "internalType": "bool",
          "name": "exists",
          "type": "bool"
        }
      ],
      "stateMutability": "view",
      "type": "function"
    },
    {
      "inputs": [],
      "name": "getProjectData",
      "outputs": [
        {
          "internalType": "string",
          "name": "",
          "type": "string"
        }
      ],
      "stateMutability": "view",
      "type": "function"
    },
    {
      "inputs": [],
      "name": "getProjectMetadata",
      "outputs": [
        {
          "internalType": "string",
          "name": "_title",
          "type": "string"
        },
        {
          "internalType": "string",
          "name": "_description",
          "type": "string"
        },
        {
          "internalType": "address",
          "name": "_owner",
          "type": "address"
        },
        {
          "internalType": "string",
          "name": "_projectType",
          "type": "string"
        },
        {
          "internalType": "string",
          "name": "_rocrateHash",
          "type": "string"
        },
        {
          "internalType": "uint256",
          "name": "_start",
          "type": "uint256"
        },
        {
          "internalType": "uint256",
          "name": "_end",
          "type": "uint256"
        },
        {
          "internalType": "string",
          "name": "_queryStrategy",
          "type": "string"
        },
        {
          "internalType": "string",
          "name": "_alScenario",
          "type": "string"
        },
        {
          "internalType": "uint256",
          "name": "_maxIteration",
          "type": "uint256"
        },
        {
          "internalType": "uint256",
          "name": "_queryBatchSize",
          "type": "uint256"
        },
        {
          "internalType": "string[]",
          "name": "_labelSpace",
          "type": "string[]"
        }
      ],
      "stateMutability": "view",
      "type": "function"
    },
    {
      "inputs": [],
      "name": "getProjectStatus",
      "outputs": [
        {
          "internalType": "bool",
          "name": "active",
          "type": "bool"
        },
        {
          "internalType": "uint256",
          "name": "created",
          "type": "uint256"
        },
        {
          "internalType": "uint256",
          "name": "modified",
          "type": "uint256"
        },
        {
          "internalType": "address",
          "name": "projectCreator",
          "type": "address"
        }
      ],
      "stateMutability": "view",
      "type": "function"
    },
    {
      "inputs": [],
      "name": "getTimestamps",
      "outputs": [
        {
          "internalType": "uint256",
          "name": "created",
          "type": "uint256"
        },
        {
          "internalType": "uint256",
          "name": "modified",
          "type": "uint256"
        }
      ],
      "stateMutability": "view",
      "type": "function"
    },
    {
      "inputs": [],
      "name": "hasALContracts",
      "outputs": [
        {
          "internalType": "bool",
          "name": "",
          "type": "bool"
        }
      ],
      "stateMutability": "view",
      "type": "function"
    },
    {
      "inputs": [],
      "name": "incrementRound",
      "outputs": [],
      "stateMutability": "nonpayable",
      "type": "function"
    },
    {
      "inputs": [
        {
          "internalType": "address",
          "name": "",
          "type": "address"
        }
      ],
      "name": "invitations",
      "outputs": [
        {
          "internalType": "address",
          "name": "invitee",
          "type": "address"
        },
        {
          "internalType": "string",
          "name": "role",
          "type": "string"
        },
        {
          "internalType": "uint256",
          "name": "timestamp",
          "type": "uint256"
        },
        {
          "internalType": "bool",
          "name": "exists",
          "type": "bool"
        }
      ],
      "stateMutability": "view",
      "type": "function"
    },
    {
      "inputs": [
        {
          "internalType": "uint256",
          "name": "",
          "type": "uint256"
        }
      ],
      "name": "invitees",
      "outputs": [
        {
          "internalType": "address",
          "name": "",
          "type": "address"
        }
      ],
      "stateMutability": "view",
      "type": "function"
    },
    {
      "inputs": [],
      "name": "isActive",
      "outputs": [
        {
          "internalType": "bool",
          "name": "",
          "type": "bool"
        }
      ],
      "stateMutability": "view",
      "type": "function"
    },
    {
      "inputs": [
        {
          "internalType": "address",
          "name": "",
          "type": "address"
        }
      ],
      "name": "isParticipant",
      "outputs": [
        {
          "internalType": "bool",
          "name": "",
          "type": "bool"
        }
      ],
      "stateMutability": "view",
      "type": "function"
    },
    {
      "inputs": [
        {
          "internalType": "address",
          "name": "",
          "type": "address"
        }
      ],
      "name": "joinRequests",
      "outputs": [
        {
          "internalType": "address",
          "name": "requester",
          "type": "address"
        },
        {
          "internalType": "string",
          "name": "role",
          "type": "string"
        },
        {
          "internalType": "uint256",
          "name": "timestamp",
          "type": "uint256"
        },
        {
          "internalType": "bool",
          "name": "exists",
          "type": "bool"
        }
      ],
      "stateMutability": "view",
      "type": "function"
    },
    {
      "inputs": [
        {
          "internalType": "uint256",
          "name": "",
          "type": "uint256"
        }
      ],
      "name": "labelSpace",
      "outputs": [
        {
          "internalType": "string",
          "name": "",
          "type": "string"
        }
      ],
      "stateMutability": "view",
      "type": "function"
    },
    {
      "inputs": [],
      "name": "lastModified",
      "outputs": [
        {
          "internalType": "uint256",
          "name": "",
          "type": "uint256"
        }
      ],
      "stateMutability": "view",
      "type": "function"
    },
    {
      "inputs": [
        {
          "internalType": "address",
          "name": "_voting",
          "type": "address"
        },
        {
          "internalType": "address",
          "name": "_storage",
          "type": "address"
        }
      ],
      "name": "linkALContracts",
      "outputs": [],
      "stateMutability": "nonpayable",
      "type": "function"
    },
    {
      "inputs": [],
      "name": "maxIteration",
      "outputs": [
        {
          "internalType": "uint256",
          "name": "",
          "type": "uint256"
        }
      ],
      "stateMutability": "view",
      "type": "function"
    },
    {
      "inputs": [],
      "name": "needsALDeployment",
      "outputs": [
        {
          "internalType": "bool",
          "name": "",
          "type": "bool"
        }
      ],
      "stateMutability": "view",
      "type": "function"
    },
    {
      "inputs": [],
      "name": "projectData",
      "outputs": [
        {
          "internalType": "string",
          "name": "",
          "type": "string"
        }
      ],
      "stateMutability": "view",
      "type": "function"
    },
    {
      "inputs": [],
      "name": "projectType",
      "outputs": [
        {
          "internalType": "string",
          "name": "",
          "type": "string"
        }
      ],
      "stateMutability": "view",
      "type": "function"
    },
    {
      "inputs": [],
      "name": "queryBatchSize",
      "outputs": [
        {
          "internalType": "uint256",
          "name": "",
          "type": "uint256"
        }
      ],
      "stateMutability": "view",
      "type": "function"
    },
    {
      "inputs": [],
      "name": "queryStrategy",
      "outputs": [
        {
          "internalType": "string",
          "name": "",
          "type": "string"
        }
      ],
      "stateMutability": "view",
      "type": "function"
    },
    {
      "inputs": [],
      "name": "reactivateProject",
      "outputs": [],
      "stateMutability": "nonpayable",
      "type": "function"
    },
    {
      "inputs": [
        {
          "internalType": "address",
          "name": "_requester",
          "type": "address"
        }
      ],
      "name": "rejectJoinRequest",
      "outputs": [],
      "stateMutability": "nonpayable",
      "type": "function"
    },
    {
      "inputs": [
        {
          "internalType": "uint256",
          "name": "",
          "type": "uint256"
        }
      ],
      "name": "requesters",
      "outputs": [
        {
          "internalType": "address",
          "name": "",
          "type": "address"
        }
      ],
      "stateMutability": "view",
      "type": "function"
    },
    {
      "inputs": [],
      "name": "rocrateHash",
      "outputs": [
        {
          "internalType": "string",
          "name": "",
          "type": "string"
        }
      ],
      "stateMutability": "view",
      "type": "function"
    },
    {
      "inputs": [
        {
          "internalType": "string",
          "name": "_queryStrategy",
          "type": "string"
        },
        {
          "internalType": "string",
          "name": "_alScenario",
          "type": "string"
        },
        {
          "internalType": "uint256",
          "name": "_maxIteration",
          "type": "uint256"
        },
        {
          "internalType": "uint256",
          "name": "_queryBatchSize",
          "type": "uint256"
        },
        {
          "internalType": "string[]",
          "name": "_labelSpace",
          "type": "string[]"
        }
      ],
      "name": "setALMetadata",
      "outputs": [],
      "stateMutability": "nonpayable",
      "type": "function"
    },
    {
      "inputs": [
        {
          "internalType": "string",
          "name": "_title",
          "type": "string"
        },
        {
          "internalType": "string",
          "name": "_description",
          "type": "string"
        },
        {
          "internalType": "string",
          "name": "_projectType",
          "type": "string"
        },
        {
          "internalType": "string",
          "name": "_rocrateHash",
          "type": "string"
        }
      ],
      "name": "setProjectMetadata",
      "outputs": [],
      "stateMutability": "nonpayable",
      "type": "function"
    },
    {
      "inputs": [
        {
          "internalType": "address[]",
          "name": "_voters",
          "type": "address[]"
        },
        {
          "internalType": "uint256[]",
          "name": "_weights",
          "type": "uint256[]"
        }
      ],
      "name": "setProjectVoters",
      "outputs": [],
      "stateMutability": "nonpayable",
      "type": "function"
    },
    {
      "inputs": [
        {
          "internalType": "uint256",
          "name": "_start",
          "type": "uint256"
        },
        {
          "internalType": "uint256",
          "name": "_end",
          "type": "uint256"
        }
      ],
      "name": "setStartAndEndTime",
      "outputs": [],
      "stateMutability": "nonpayable",
      "type": "function"
    },
    {
      "inputs": [],
      "name": "startTime",
      "outputs": [
        {
          "internalType": "uint256",
          "name": "",
          "type": "uint256"
        }
      ],
      "stateMutability": "view",
      "type": "function"
    },
    {
      "inputs": [
        {
          "internalType": "string",
          "name": "sampleId",
          "type": "string"
        }
      ],
      "name": "startVotingSession",
      "outputs": [],
      "stateMutability": "nonpayable",
      "type": "function"
    },
    {
      "inputs": [],
      "name": "storageContract",
      "outputs": [
        {
          "internalType": "address",
          "name": "",
          "type": "address"
        }
      ],
      "stateMutability": "view",
      "type": "function"
    },
    {
      "inputs": [
        {
          "internalType": "string",
          "name": "sampleId",
          "type": "string"
        },
        {
          "internalType": "string",
          "name": "label",
          "type": "string"
        },
        {
          "internalType": "uint256",
          "name": "round",
          "type": "uint256"
        },
        {
          "internalType": "string",
          "name": "justification",
          "type": "string"
        },
        {
          "internalType": "string",
          "name": "ipfsHash",
          "type": "string"
        }
      ],
      "name": "storeFinalLabel",
      "outputs": [],
      "stateMutability": "nonpayable",
      "type": "function"
    },
    {
      "inputs": [
        {
          "internalType": "string",
          "name": "_role",
          "type": "string"
        }
      ],
      "name": "submitJoinRequest",
      "outputs": [],
      "stateMutability": "nonpayable",
      "type": "function"
    },
    {
      "inputs": [],
      "name": "title",
      "outputs": [
        {
          "internalType": "string",
          "name": "",
          "type": "string"
        }
      ],
      "stateMutability": "view",
      "type": "function"
    },
    {
      "inputs": [
        {
          "internalType": "string",
          "name": "reason",
          "type": "string"
        }
      ],
      "name": "triggerNextRound",
      "outputs": [],
      "stateMutability": "nonpayable",
      "type": "function"
    },
    {
      "inputs": [
        {
          "internalType": "string",
          "name": "_newProjectData",
          "type": "string"
        }
      ],
      "name": "updateProjectData",
      "outputs": [],
      "stateMutability": "nonpayable",
      "type": "function"
    },
    {
      "inputs": [],
      "name": "votingContract",
      "outputs": [
        {
          "internalType": "address",
          "name": "",
          "type": "address"
        }
      ],
      "stateMutability": "view",
      "type": "function"
    }
  ],
  "bytecode": "0x6080604052346102c95761347480380380610019816102ce565b9283398101906040818303126102c95780516001600160a01b03811691908290036102c9576020810151906001600160401b0382116102c9570182601f820112156102c9578051906001600160401b03821161026c57610082601f8301601f19166020016102ce565b93828552602083830101116102c95760005b8281106102b457505060206000918401015281511561028257600080546001600160a01b0319168217905581516001600160401b03811161026c57600354600181811c91168015610262575b602082101461024c57601f81116101e7575b50602092601f82116001146101825792819293600092610177575b50508160011b916000199060031b1c1916176003555b4260015542600255600160a01b60ff60a01b1960005416176000557f20bfd29f3d906f96fc35742fac45a554b19cbd4e21f8c4c1d84cb58fdfc32c896020604051428152a260405161318090816102f48239f35b01519050388061010d565b601f198216936003600052806000209160005b8681106101cf57508360019596106101b6575b505050811b01600355610123565b015160001960f88460031b161c191690553880806101a8565b91926020600181928685015181550194019201610195565b60036000527fc2575a0e9e593c00f959f8c92f12db2869c3395a3b0502d05e2516446f71f85b601f830160051c81019160208410610242575b601f0160051c01905b81811061023657506100f2565b60008155600101610229565b9091508190610220565b634e487b7160e01b600052602260045260246000fd5b90607f16906100e0565b634e487b7160e01b600052604160045260246000fd5b60405162461bcd60e51b815260206004820152600a602482015269456d707479206461746160b01b6044820152606490fd5b80602080928401015182828801015201610094565b600080fd5b6040519190601f01601f191682016001600160401b0381118382101761026c5760405256fe608080604052600436101561001357600080fd5b600090813560e01c90816302d05d3f1461275a575080630ee2cb101461273357806310218f4d146125a457806311ce02671461257b5780631af9fd171461223a578063211a85e614611dd857806322f3e2d414611db35780632bc5c480146118c45780633197cbb6146118a6578063383e1a5e1461180c5780633fa969671461166c57806343862d2314611648578063461e198b146115645780634a79d50c146114cf5780634d320b98146113c357806355b31b551461099857806358f43f761461137357806359abbfe41461134e5780635e1a6c171461130a5780636ac4e50e1461128a5780637284e416146111cd578063764926db1461113c57806377c39c211461111e5780637847f1de14610dfa57806378e9792514610ddc57806379ec4f1914610d645780637a83a44b14610d3f5780637f52cadc14610d1b57806384e0772814610bd45780638a19c8bc14610bb6578063929066f514610b77578063953cc52c146109bc5780639c0768b314610998578063a074018414610974578063a672601d146108b1578063b0942ce514610893578063b5686479146107fc578063b70825dc1461077b578063bbffd04c146106d4578063c1fc006a146106ab578063c2fc0d261461066c578063c3a4b41a14610626578063c3feda1714610578578063cf09e0d01461055a578063dfafe10f146104a8578063dfb748aa146103e8578063e1d5a2c814610350578063e7aa3afc1461030c578063ef21310614610297578063f7267cfd146102795763fba7cc791461025257600080fd5b3461027657806003193601126102765760ff6020915460a01c166040519015158152f35b80fd5b50346102765780600319360112610276576020600254604051908152f35b5034610276576020366003190112610276576040906001600160a01b036102bc612885565b168152600f6020522060018060a01b03815416610308604051926102ee846102e78160018501612b63565b03856127af565b60ff6003600283015492015416906040519485948561289b565b0390f35b503461027657806003193601126102765760809054600154906002546040519260ff8360a01c16151584526020840152604083015260018060a01b03166060820152f35b50346102765780600319360112610276576013546001600160a01b031633036103b557601654600181018091116103a1576020816000805160206130ab83398151915292601655604051908152a180f35b634e487b7160e01b82526011600452602482fd5b60405162461bcd60e51b815260206004820152600b60248201526a4f6e6c7920766f74696e6760a81b6044820152606490fd5b503461027657602036600319011261027657610402612885565b61041660018060a01b038354163314612c54565b6001600160a01b0316808252600f602052604082206003015461043b9060ff16612f93565b808252600f60205261044f60408320612fcc565b808252601560205260408220600160ff19825416179055604051428152817f423eb00b6a18c3ecfc2170a0e40ef0bad995279070614ba2e4be1b94f67eb88860203393a360008051602061312b8339815191528280a280f35b5034610276576020366003190112610276576104c2612885565b6104d660018060a01b038354163314612c54565b6001600160a01b03168082526015602052604082205460ff1661051f57808252601560205260408220805460ff1916600117905560008051602061312b8339815191528280a280f35b60405162461bcd60e51b8152602060048201526013602482015272105b1c9958591e481c185c9d1a58da5c185b9d606a1b6044820152606490fd5b50346102765780600319360112610276576020600154604051908152f35b5034610276578060031936011261027657805461059f336001600160a01b03831614612c54565b60ff8160a01c166105f05760ff60a01b1916600160a01b17815542600281905560405190815233907fb351ba71ddc1d2bf39667cebde99fb92eb26b9f418d5049ba0200888ba81071590602090a280f35b60405162461bcd60e51b815260206004820152600e60248201526d416c72656164792061637469766560901b6044820152606490fd5b50346102765780600319360112610276576013546001600160a01b0316151580610658575b6020906040519015158152f35b506014546001600160a01b0316151561064b565b50346102765780600319360112610276576103086040516106978161069081612908565b03826127af565b60405191829160208352602083019061282d565b50346102765780600319360112610276576013546040516001600160a01b039091168152602090f35b503461027657806003193601126102765780546106fb336001600160a01b03831614612c54565b60ff8160a01c16156107435760ff60a01b19168155426002556040514281527f17064d72ee4a5901e55dfa45024ea8f67cdb4895ba6364ab2f8e7223f642ad3660203392a280f35b60405162461bcd60e51b815260206004820152601060248201526f416c726561647920696e61637469766560801b6044820152606490fd5b50346102765760203660031901126102765760043590601254821015610276576012548210156107e857601281527fbb8a6a4669ba250d26cd7a459eca9d215f8307e33aebe50379bc5a3617ec34449091015460405160039290921b1c6001600160a01b03168152602090f35b634e487b7160e01b81526032600452602490fd5b503461027657602036600319011261027657610816612885565b61082a60018060a01b038354163314612c54565b6001600160a01b0316808252600f602052604082206003015461084f9060ff16612f93565b808252600f60205261086360408320612fcc565b604051904282527f1a69e67d1be897d0ca0cf1517b4d17e345b4272a80bc900f9fe8e96f261ca1db60203393a380f35b50346102765780600319360112610276576020600c54604051908152f35b503461027657602036600319011261027657806004356001600160401b038111610971576108e39036906004016127d2565b6108f760018060a01b038354163314612c54565b6013546001600160a01b031661090e811515612d7c565b803b1561096f5760405163a672601d60e01b815260206004820152918391839182908490829061094290602483019061282d565b03925af18015610964576109535750f35b8161095d916127af565b6102765780f35b6040513d84823e3d90fd5b505b50fd5b50346102765780600319360112610276576103086040516106978161069081612a0a565b50346102765780600319360112610276576103086040516106978161069081612af0565b503461027657604036600319011261027657600435906001600160401b03821161027657366023830112156102765781600401356109f98161286e565b92610a0760405194856127af565b8184526024602085019260051b82010190368211610b3757602401915b818310610b535750506024359290506001600160401b038311610b4f5736602384011215610b4f578260040135610a5a8161286e565b93610a6860405195866127af565b818552602085016024819360051b83010191368311610b4b57602401905b828210610b3b57505050610aa460018060a01b038454163314612c54565b6013546001600160a01b031693610abc851515612d7c565b843b15610b37576020610ae760405194631d70957f60e21b8652604060048701526044860190612c17565b848103600319016024860152915180835291019190845b818110610b2157505050818394818581819503925af18015610964576109535750f35b8251845260209384019390920191600101610afe565b8380fd5b8135815260209182019101610a86565b8580fd5b5080fd5b82356001600160a01b0381168103610b7357815260209283019201610a24565b8480fd5b50346102765760203660031901126102765760209060ff906040906001600160a01b03610ba2612885565b168152601584522054166040519015158152f35b50346102765780600319360112610276576020601654604051908152f35b50346102765780600319360112610276578081601154905b818110610cd05750610bfd8261286e565b91610c0b60405193846127af565b808352610c1a601f199161286e565b0136602084013782805b828110610c41576040516020808252819061030890820187612c17565b610c4a81612be6565b9054600391821b1c6001600160a01b03168352600f60205260408320015460ff16610c78575b600101610c24565b93610c8285612be6565b9054855160039290921b1c6001600160a01b031690821015610cbc5781610cb491602060019460051b88010152612def565b949050610c70565b634e487b7160e01b83526032600452602483fd5b610cd981612be6565b9054600391821b1c6001600160a01b03168552600f60205260408520015460ff16610d07575b600101610bec565b91610d13600191612def565b929050610cff565b50346102765780600319360112610276576103086040516106978161069081612a7d565b50346102765780600319360112610276576020610d5a612e25565b6040519015158152f35b50346102765760403660031901126102765760043560243590610d9160018060a01b038454163314612c54565b81811015610da25760085560095580f35b60405162461bcd60e51b8152602060048201526012602482015271496e76616c69642074696d652072616e676560701b6044820152606490fd5b50346102765780600319360112610276576020600854604051908152f35b5034610276576020366003190112610276576004356001600160401b038111610b4f57610e2b9036906004016127d2565b908054610e3d60ff8260a01c16612c8f565b6001600160a01b031633146110e357338152600f60205260ff6003604083200154166110ad5781511561107b5760405191610e778361277e565b338084526020808501838152426040808801918252600160608901818152958852600f9094528620965187546001600160a01b0319166001600160a01b0391909116178755905180519096928301906001600160401b03811161106757610ede82546128ce565b601f811161102c575b506020601f8211600114610fc6579080610f0f92899a600398999a92610fbb575b5050612cdd565b90555b516002820155019051151560ff80198354169116179055601154600160401b811015610fa757806001610f489201601155612be6565b81549060031b9033821b9160018060a01b03901b19161790557fe4d6c018abd0178d4bce0856089ef1876318617b97a1d700bb98506598ab0afc610f976040519260408452604084019061282d565b914260208201528033930390a280f35b634e487b7160e01b83526041600452602483fd5b015190503880610f08565b82885280882098601f198316895b81811061101457509160039798999a91846001959410610ffc575b505050811b019055610f12565b015160001983891b60f8161c19169055388080610fef565b838301518c556001909b019a60209384019301610fd4565b6110579083895260208920601f840160051c8101916020851061105d575b601f0160051c0190612cc6565b38610ee7565b909150819061104a565b634e487b7160e01b87526041600452602487fd5b60405162461bcd60e51b815260206004820152600a602482015269456d70747920726f6c6560b01b6044820152606490fd5b60405162461bcd60e51b815260206004820152600e60248201526d526571756573742065786973747360901b6044820152606490fd5b60405162461bcd60e51b815260206004820152601360248201527221b932b0ba37b91031b0b73737ba103537b4b760691b6044820152606490fd5b50346102765780600319360112610276576020600d54604051908152f35b503461027657602036600319011261027657806004356001600160401b0381116109715761116e9036906004016127d2565b61118260018060a01b038354163314612c54565b6013546001600160a01b0316611199811515612d7c565b803b1561096f5760405163764926db60e01b815260206004820152918391839182908490829061094290602483019061282d565b50346102765780600319360112610276576040519080600554906111f0826128ce565b80855291600181169081156112635750600114611218575b61030884610697818603826127af565b60058152600080516020612feb833981519152939250905b8082106112495750909150810160200161069782611208565b919260018160209254838588010152019101909291611230565b60ff191660208087019190915292151560051b850190920192506106979150839050611208565b503461027657602036600319011261027657600435600e54811015610b4f57600e548110156112f657600e825260008051602061302b8339815191520190806112e25760405161030890610697816106908187612b63565b634e487b7160e01b81526004819052602490fd5b634e487b7160e01b82526032600452602482fd5b5034610276576020366003190112610276576004359060115482101561027657602061133583612be6565b905460405160039290921b1c6001600160a01b03168152f35b5034610276578060031936011261027657604060015460025482519182526020820152f35b5034610276576020366003190112610276576040906001600160a01b03611398612885565b16815260106020522060018060a01b03815416610308604051926102ee846102e78160018501612b63565b5034610276576040366003190112610276576113dd612885565b6024356001600160a01b03811691908290036114cb5761140760018060a01b038454163314612c54565b6001600160a01b0316801515806114c2575b1561148957601354906114356001600160a01b03831615612d3f565b6014549161144c6001600160a01b03841615612d3f565b6001600160a01b0319908116919091176013551617601455426002819055604051908152339060008051602061304b83398151915290602090a280f35b60405162461bcd60e51b8152602060048201526011602482015270496e76616c69642061646472657373657360781b6044820152606490fd5b50811515611419565b8280fd5b50346102765780600319360112610276576040519080600454906114f2826128ce565b808552916001811690811561126357506001146115195761030884610697818603826127af565b6004815260008051602061310b833981519152939250905b80821061154a5750909150810160200161069782611208565b919260018160209254838588010152019101909291611531565b5034610276576020366003190112610276576004356001600160401b038111610b4f576115959036906004016127d2565b81546115bb9060ff906115b2336001600160a01b03831614612c54565b60a01c16612c8f565b601654600181018091116116345790817fbb4ba47257d82c025e976bcdc375cc2e26de94efd111bca20cbc9a330d29745592601655426002556000805160206130ab8339815191526020604051838152a1611628604051928392835260606020840152606083019061282d565b4260408301520390a180f35b634e487b7160e01b83526011600452602483fd5b50346102765780600319360112610276576103086040516106978161069081612997565b50346102765760a0366003190112610276576004356001600160401b038111610b4f5761169d9036906004016127d2565b6024356001600160401b0381116114cb576116bc9036906004016127d2565b906064356001600160401b038111610b37576116dc9036906004016127d2565b906084356001600160401b038111610b73576116fc9036906004016127d2565b9261171160018060a01b038654163314612c54565b6014546001600160a01b031680156117cc578593813b15610b73578480946117a06117749861178e611762956040519b8c998a988997633fa9696760e01b895260a060048a015260a489019061282d565b8781036003190160248901529061282d565b90604435604487015260031986830301606487015261282d565b8381036003190160848501529061282d565b03925af180156117bf576117b15780f35b6117ba916127af565b388180f35b50604051903d90823e3d90fd5b60405162461bcd60e51b815260206004820152601860248201527714dd1bdc9859d94818dbdb9d1c9858dd081b9bdd081cd95d60421b6044820152606490fd5b5034610276576020366003190112610276576040906001600160a01b03611831612885565b168152600f60205220604051906118478261277e565b80546001600160a01b03168252604051916103089061186d846102e78160018701612b63565b83602082015260ff600360028501549485604085015201541615159081606082015260018060a01b03905116926040519485948561289b565b50346102765780600319360112610276576020600954604051908152f35b50346102765760a0366003190112610276576004356001600160401b038111610b4f576118f59036906004016127d2565b6024356001600160401b0381116114cb576119149036906004016127d2565b6084359060643590604435906001600160401b038411610b4b5736602385011215610b4b578360040135946119488661286e565b9461195660405196876127af565b868652602086019660051b810160240187368211611daf5760248301905b828210611d7c575050505061199360018060a01b038854163314612c54565b8215611d3f578315611d05578051906001600160401b038211611cf1576119bb600a546128ce565b601f8111611cb5575b50602090601f8311600114611c50576119e69291899183610fbb575050612cdd565b600a555b8051906001600160401b03821161106757611a06600b546128ce565b601f8111611c14575b50602090601f8311600114611baf57611a319291889183610fbb575050612cdd565b600b555b600c55600d555190600160401b8211610fa757600e5482600e55808310611b76575b50600e8352829060008051602061302b833981519152905b838310611a7e57844260025580f35b80518051906001600160401b03821161106757611a9b84546128ce565b601f8111611b46575b50602090601f8311600114611add5792611ace836001959460209487968c92610fbb575050612cdd565b85555b01920192019190611a6f565b8488528188209190601f198416895b818110611b2e5750936020936001969387969383889510611b15575b505050811b018555611ad1565b015160001960f88460031b161c19169055388080611b08565b92936020600181928786015181550195019301611aec565b611b709085895260208920601f850160051c8101916020861061105d57601f0160051c0190612cc6565b38611aa4565b600e845260008051602061302b8339815191529081019083015b818110611b9d5750611a57565b80611ba9600192612cf0565b01611b90565b600b88528188209190601f198416895b818110611bfc5750908460019594939210611be3575b505050811b01600b55611a35565b015160001960f88460031b161c19169055388080611bd5565b92936020600181928786015181550195019301611bbf565b600b8852611c4a906000805160206130cb833981519152601f850160051c8101916020861061105d57601f0160051c0190612cc6565b38611a0f565b600a89528189209190601f1984168a5b818110611c9d5750908460019594939210611c84575b505050811b01600a556119ea565b015160001960f88460031b161c19169055388080611c76565b92936020600181928786015181550195019301611c60565b600a8952611ceb9060008051602061306b833981519152601f850160051c8101916020861061105d57601f0160051c0190612cc6565b386119c4565b634e487b7160e01b88526041600452602488fd5b60405162461bcd60e51b8152602060048201526012602482015271496e76616c69642062617463682073697a6560701b6044820152606490fd5b60405162461bcd60e51b815260206004820152601560248201527424b73b30b634b21036b0bc1034ba32b930ba34b7b760591b6044820152606490fd5b81356001600160401b038111611dab57602091611da08392602436918901016127d2565b815201910190611974565b8b80fd5b8980fd5b503461027657806003193601126102765760ff6020915460a01c166040519015158152f35b5034610276576080366003190112610276576004356001600160401b038111610b4f57611e099036906004016127d2565b906024356001600160401b038111610b4f57611e299036906004016127d2565b916044356001600160401b0381116114cb57611e499036906004016127d2565b916064356001600160401b038111610b4f57611e699036906004016127d2565b91611e7e60018060a01b038354163314612c54565b8051906001600160401b038211610fa757611e9a6004546128ce565b601f81116121fe575b50602090601f831160011461219957611ec59291849183610fbb575050612cdd565b6004555b83516001600160401b03811161205157611ee46005546128ce565b601f8111612168575b50602094601f821160011461210457829394958291611f129492610fbb575050612cdd565b6005555b82516001600160401b03811161205157611f316006546128ce565b601f81116120c8575b506020601f8211600114612065578190839495611f5d9492610fbb575050612cdd565b6006555b81516001600160401b03811161205157611f7c6007546128ce565b601f8111612015575b50602092601f8211600114611fb35782938291611fa89492610fbb575050612cdd565b6007555b4260025580f35b601f198216936007845280842091845b868110611ffd5750836001959610611fe4575b505050811b01600755611fac565b015160001960f88460031b161c19169055388080611fd6565b91926020600181928685015181550194019201611fc3565b6007835261204b9060008051602061308b833981519152601f840160051c8101916020851061105d57601f0160051c0190612cc6565b38611f85565b634e487b7160e01b82526041600452602482fd5b6006835280832090601f198316845b8181106120b057509583600195969710612097575b505050811b01600655611f61565b015160001960f88460031b161c19169055388080612089565b9192602060018192868b015181550194019201612074565b600683526120fe906000805160206130eb833981519152601f840160051c8101916020851061105d57601f0160051c0190612cc6565b38611f3a565b601f198216956005845280842091845b88811061215057508360019596979810612137575b505050811b01600555611f16565b015160001960f88460031b161c19169055388080612129565b91926020600181928685015181550194019201612114565b612193906005845260208420601f840160051c8101916020851061105d57601f0160051c0190612cc6565b38611eed565b600484528184209190601f198416855b8181106121e657509084600195949392106121cd575b505050811b01600455611ec9565b015160001960f88460031b161c191690553880806121bf565b929360206001819287860151815501950193016121a9565b600484526122349060008051602061310b833981519152601f850160051c8101916020861061105d57601f0160051c0190612cc6565b38611ea3565b503461027657806003193601126102765760018060a01b038154166008549160095491600c5490600d54604051848160045491612276836128ce565b808352926001811690811561255c5750600114612510575b61229a925003826127af565b6040519585976005546122ac816128ce565b808a5290600181169081156124ec57506001146124a7575b50909594939697886122da9194939403896127af565b604051956122f2876122eb81612908565b03886127af565b6040519161230a8361230381612997565b03846127af565b6040519161231b8361230381612a0a565b604051936123338561232c81612a7d565b03866127af565b600e54996123408b61286e565b9761234e604051998a6127af565b8b8952600e8b52602089019b8b60008051602061302b8339815191528e5b838310612466575050505060409d9c9d519d8e9d8e92610180845261018084016123959161282d565b83810360208501526123a69161282d565b91604001528c80820390606001526123bd9161282d565b8b810360808d01526123ce9161282d565b9160a08b015260c08a015288810360e08a01526123ea9161282d565b8781036101008901526123fc9161282d565b926101208701526101408601528482036101608601525190818152602081018260051b82016020019493915b8383106124355786860387f35b919395509193602080612454600193601f19868203018752895161282d565b97019301930190928695949293612428565b9e9f939495969798999a9b9c9d9e60016020819260405161248b816106908189612b63565b8152019201920191909f9e9d9c9b9a999897969594939f61236c565b60058852985086600080516020612feb8339815191525b8a82106124d55750880160200198506122da6122c4565b6001818b60208581955492010152019101906124be565b60ff19166020808c019190915291151560051b8a0190910199506122da90506122c4565b506004875290869060008051602061310b8339815191525b81831061254057505090602061229a9282010161228e565b6020919350806001915483858801015201910190918392612528565b6020925061229a94915060ff191682840152151560051b82010161228e565b50346102765780600319360112610276576014546040516001600160a01b039091168152602090f35b5034610276576020366003190112610276576004356001600160401b038111610b4f576125d59036906004016127d2565b906125f060ff82546115b260018060a01b0382163314612c54565b8151156127015781516001600160401b038111612051576126126003546128ce565b601f81116126c5575b50602092601f8211600114612663578293829161263e9492610fbb575050612cdd565b6003555b4260025560405142815260008051602061304b83398151915260203392a280f35b601f198216936003845280842091845b8681106126ad5750836001959610612694575b505050811b01600355612642565b015160001960f88460031b161c19169055388080612686565b91926020600181928685015181550194019201612673565b600383526126fb9060008051602061300b833981519152601f840160051c8101916020851061105d57601f0160051c0190612cc6565b3861261b565b60405162461bcd60e51b815260206004820152600a602482015269456d707479206461746160b01b6044820152606490fd5b5034610276578060031936011261027657546040516001600160a01b039091168152602090f35b905034610b4f5781600319360112610b4f5790546001600160a01b03168152602090f35b608081019081106001600160401b0382111761279957604052565b634e487b7160e01b600052604160045260246000fd5b601f909101601f19168101906001600160401b0382119082101761279957604052565b81601f82011215612828578035906001600160401b0382116127995760405192612806601f8401601f1916602001856127af565b8284526020838301011161282857816000926020809301838601378301015290565b600080fd5b919082519283825260005b848110612859575050826000602080949584010152601f8019910116010190565b80602080928401015182828601015201612838565b6001600160401b0381116127995760051b60200190565b600435906001600160a01b038216820361282857565b929493906060926128c19160018060a01b0316855260806020860152608085019061282d565b9460408401521515910152565b90600182811c921680156128fe575b60208310146128e857565b634e487b7160e01b600052602260045260246000fd5b91607f16916128dd565b60065460009291612918826128ce565b808252916001811690811561297b5750600114612933575050565b600660009081529293509091906000805160206130eb8339815191525b838310612961575060209250010190565b600181602092949394548385870101520191019190612950565b9050602093945060ff929192191683830152151560051b010190565b600754600092916129a7826128ce565b808252916001811690811561297b57506001146129c2575050565b6007600090815292935090919060008051602061308b8339815191525b8383106129f0575060209250010190565b6001816020929493945483858701015201910191906129df565b600a5460009291612a1a826128ce565b808252916001811690811561297b5750600114612a35575050565b600a600090815292935090919060008051602061306b8339815191525b838310612a63575060209250010190565b600181602092949394548385870101520191019190612a52565b600b5460009291612a8d826128ce565b808252916001811690811561297b5750600114612aa8575050565b600b60009081529293509091906000805160206130cb8339815191525b838310612ad6575060209250010190565b600181602092949394548385870101520191019190612ac5565b60035460009291612b00826128ce565b808252916001811690811561297b5750600114612b1b575050565b6003600090815292935090919060008051602061300b8339815191525b838310612b49575060209250010190565b600181602092949394548385870101520191019190612b38565b60009291815491612b73836128ce565b8083529260018116908115612bc95750600114612b8f57505050565b60009081526020812093945091925b838310612baf575060209250010190565b600181602092949394548385870101520191019190612b9e565b915050602093945060ff929192191683830152151560051b010190565b601154811015612c0157601160005260206000200190600090565b634e487b7160e01b600052603260045260246000fd5b906020808351928381520192019060005b818110612c355750505090565b82516001600160a01b0316845260209384019390920191600101612c28565b15612c5b57565b60405162461bcd60e51b815260206004820152600c60248201526b27b7363c9031b932b0ba37b960a11b6044820152606490fd5b15612c9657565b60405162461bcd60e51b8152602060048201526008602482015267496e61637469766560c01b6044820152606490fd5b818110612cd1575050565b60008155600101612cc6565b8160011b916000199060031b1c19161790565b612cfa81546128ce565b9081612d04575050565b81601f60009311600114612d16575055565b81835260208320612d3291601f0160051c810190600101612cc6565b8082528160208120915555565b15612d4657565b60405162461bcd60e51b815260206004820152600e60248201526d105b1c9958591e481b1a5b9ad95960921b6044820152606490fd5b15612d8357565b60405162461bcd60e51b8152602060048201526017602482015276159bdd1a5b99c818dbdb9d1c9858dd081b9bdd081cd95d604a1b6044820152606490fd5b60405190612dd16040836127af565b600f82526e6163746976655f6c6561726e696e6760881b6020830152565b6000198114612dfe5760010190565b634e487b7160e01b600052601160045260246000fd5b908151811015612c01570160200190565b6040516361d25a0d60e11b8152602081600481305afa908115612f8757600091612f4c575b50612f4757604051612e5f8161069081612908565b60208151910120612e6e612dc2565b6020815191012014612f4257604051612e8a8161069081612af0565b612e92612dc2565b815181511115612ea4575b5050600090565b6000905b825181518103908111612dfe578211612f385760019260005b8251811015612f2e57808401808511612dfe576001600160f81b031990612ee89084612e14565b51166001600160f81b0319612efd8386612e14565b511603612f0c57600101612ec1565b5092509060005b612f2657612f2090612def565b90612ea8565b505050600190565b5092919091612f13565b5050503880612e9d565b600190565b600090565b6020813d602011612f7f575b81612f65602093836127af565b81010312610b4f5751908115158203610276575038612e4a565b3d9150612f58565b6040513d6000823e3d90fd5b15612f9a57565b60405162461bcd60e51b815260206004820152600a602482015269139bc81c995c5d595cdd60b21b6044820152606490fd5b6003600091828155612fe060018201612cf0565b826002820155015556fe036b6384b5eca791c62761152d0c79bb0604c104a5fb6f4eb0703f3154bb3db0c2575a0e9e593c00f959f8c92f12db2869c3395a3b0502d05e2516446f71f85bbb7b4a454dc3493923482f07822329ed19e8244eff582cc204f8554c3620c3fdc1756fd99ac9a2b1b22b5e701ddb022b897a002144d045b77ac35ce46610fef6c65a7bb8d6351c1cf70c95a316cc6a92839c986682d98bc35f958f4883f9d2a8a66cc928b5edb82af9bd49922954155ab7b0942694bea4ce44661d9a8736c6889aa934e5a98d12b60dabec0f34647f2b63b8fd257ba6480e7ded4cc1ef24c5730175b7a638427703f0dbe7bb9bbf987a2551717b34e79f33b5b1008d1fa01db9f652222313e28459528d920b65115c16c04f3efc82aaedc97be59f3f377c0d3f8a35acfbc15ff81a39ae7d344fd709f28e8600b4aa8c65c6b64bfe7fe36bd19b31d3ac54da09405b02d1de0ee0de648de637fbdc111123be0d7fc31f2a544c0ba26469706673582212209b6c763f227cfd5f8cd76331d25d2b03871f10894a0c681c5c2b1426f008d83664736f6c634300081c0033",
  "linkReferences": {},
  "deployedLinkReferences": {}
}