{
  "_format": "hh-sol-artifact-1",
  "contractName": "JSONProject",
  "sourceName": "contracts/JSONProject.sol",
  "abi": [
    {
      "inputs": [
        {
          "internalType": "address",
          "name": "_creator",
          "type": "address"
        },
        {
          "internalType": "string",
          "name": "_projectData",
          "type": "string"
        }
      ],
      "stateMutability": "nonpayable",
      "type": "constructor"
    },
    {
      "anonymous": false,
      "inputs": [
        {
          "indexed": true,
          "internalType": "address",
          "name": "invitee",
          "type": "address"
        },
        {
          "indexed": true,
          "internalType": "address",
          "name": "project",
          "type": "address"
        },
        {
          "indexed": false,
          "internalType": "uint256",
          "name": "timestamp",
          "type": "uint256"
        }
      ],
      "name": "InvitationAccepted",
      "type": "event"
    },
    {
      "anonymous": false,
      "inputs": [
        {
          "indexed": true,
          "internalType": "address",
          "name": "invitee",
          "type": "address"
        },
        {
          "indexed": true,
          "internalType": "address",
          "name": "project",
          "type": "address"
        },
        {
          "indexed": false,
          "internalType": "uint256",
          "name": "timestamp",
          "type": "uint256"
        }
      ],
      "name": "InvitationRejected",
      "type": "event"
    },
    {
      "anonymous": false,
      "inputs": [
        {
          "indexed": true,
          "internalType": "address",
          "name": "invitee",
          "type": "address"
        },
        {
          "indexed": true,
          "internalType": "address",
          "name": "inviter",
          "type": "address"
        },
        {
          "indexed": false,
          "internalType": "string",
          "name": "role",
          "type": "string"
        },
        {
          "indexed": false,
          "internalType": "uint256",
          "name": "timestamp",
          "type": "uint256"
        }
      ],
      "name": "InvitationSent",
      "type": "event"
    },
    {
      "anonymous": false,
      "inputs": [
        {
          "indexed": true,
          "internalType": "address",
          "name": "requester",
          "type": "address"
        },
        {
          "indexed": true,
          "internalType": "address",
          "name": "approver",
          "type": "address"
        },
        {
          "indexed": false,
          "internalType": "uint256",
          "name": "timestamp",
          "type": "uint256"
        }
      ],
      "name": "JoinRequestApproved",
      "type": "event"
    },
    {
      "anonymous": false,
      "inputs": [
        {
          "indexed": true,
          "internalType": "address",
          "name": "requester",
          "type": "address"
        },
        {
          "indexed": true,
          "internalType": "address",
          "name": "rejector",
          "type": "address"
        },
        {
          "indexed": false,
          "internalType": "uint256",
          "name": "timestamp",
          "type": "uint256"
        }
      ],
      "name": "JoinRequestRejected",
      "type": "event"
    },
    {
      "anonymous": false,
      "inputs": [
        {
          "indexed": true,
          "internalType": "address",
          "name": "requester",
          "type": "address"
        },
        {
          "indexed": false,
          "internalType": "string",
          "name": "role",
          "type": "string"
        },
        {
          "indexed": false,
          "internalType": "uint256",
          "name": "timestamp",
          "type": "uint256"
        }
      ],
      "name": "JoinRequestSubmitted",
      "type": "event"
    },
    {
      "anonymous": false,
      "inputs": [
        {
          "indexed": true,
          "internalType": "address",
          "name": "creator",
          "type": "address"
        },
        {
          "indexed": false,
          "internalType": "uint256",
          "name": "timestamp",
          "type": "uint256"
        }
      ],
      "name": "ProjectCreated",
      "type": "event"
    },
    {
      "anonymous": false,
      "inputs": [
        {
          "indexed": true,
          "internalType": "address",
          "name": "creator",
          "type": "address"
        },
        {
          "indexed": false,
          "internalType": "uint256",
          "name": "timestamp",
          "type": "uint256"
        }
      ],
      "name": "ProjectDeactivated",
      "type": "event"
    },
    {
      "anonymous": false,
      "inputs": [
        {
          "indexed": true,
          "internalType": "address",
          "name": "creator",
          "type": "address"
        },
        {
          "indexed": false,
          "internalType": "uint256",
          "name": "timestamp",
          "type": "uint256"
        }
      ],
      "name": "ProjectReactivated",
      "type": "event"
    },
    {
      "anonymous": false,
      "inputs": [
        {
          "indexed": true,
          "internalType": "address",
          "name": "updater",
          "type": "address"
        },
        {
          "indexed": false,
          "internalType": "uint256",
          "name": "timestamp",
          "type": "uint256"
        }
      ],
      "name": "ProjectUpdated",
      "type": "event"
    },
    {
      "inputs": [],
      "name": "acceptInvitation",
      "outputs": [],
      "stateMutability": "nonpayable",
      "type": "function"
    },
    {
      "inputs": [
        {
          "internalType": "address",
          "name": "_requester",
          "type": "address"
        }
      ],
      "name": "approveJoinRequest",
      "outputs": [],
      "stateMutability": "nonpayable",
      "type": "function"
    },
    {
      "inputs": [],
      "name": "createdAt",
      "outputs": [
        {
          "internalType": "uint256",
          "name": "",
          "type": "uint256"
        }
      ],
      "stateMutability": "view",
      "type": "function"
    },
    {
      "inputs": [],
      "name": "creator",
      "outputs": [
        {
          "internalType": "address",
          "name": "",
          "type": "address"
        }
      ],
      "stateMutability": "view",
      "type": "function"
    },
    {
      "inputs": [],
      "name": "deactivateProject",
      "outputs": [],
      "stateMutability": "nonpayable",
      "type": "function"
    },
    {
      "inputs": [],
      "name": "getAllInvitees",
      "outputs": [
        {
          "internalType": "address[]",
          "name": "",
          "type": "address[]"
        }
      ],
      "stateMutability": "view",
      "type": "function"
    },
    {
      "inputs": [],
      "name": "getAllRequesters",
      "outputs": [
        {
          "internalType": "address[]",
          "name": "",
          "type": "address[]"
        }
      ],
      "stateMutability": "view",
      "type": "function"
    },
    {
      "inputs": [],
      "name": "getCreator",
      "outputs": [
        {
          "internalType": "address",
          "name": "",
          "type": "address"
        }
      ],
      "stateMutability": "view",
      "type": "function"
    },
    {
      "inputs": [
        {
          "internalType": "address",
          "name": "_invitee",
          "type": "address"
        }
      ],
      "name": "getInvitation",
      "outputs": [
        {
          "internalType": "address",
          "name": "invitee",
          "type": "address"
        },
        {
          "internalType": "string",
          "name": "role",
          "type": "string"
        },
        {
          "internalType": "uint256",
          "name": "timestamp",
          "type": "uint256"
        },
        {
          "internalType": "bool",
          "name": "exists",
          "type": "bool"
        }
      ],
      "stateMutability": "view",
      "type": "function"
    },
    {
      "inputs": [],
      "name": "getIsActive",
      "outputs": [
        {
          "internalType": "bool",
          "name": "",
          "type": "bool"
        }
      ],
      "stateMutability": "view",
      "type": "function"
    },
    {
      "inputs": [
        {
          "internalType": "address",
          "name": "_requester",
          "type": "address"
        }
      ],
      "name": "getJoinRequest",
      "outputs": [
        {
          "internalType": "address",
          "name": "requester",
          "type": "address"
        },
        {
          "internalType": "string",
          "name": "role",
          "type": "string"
        },
        {
          "internalType": "uint256",
          "name": "timestamp",
          "type": "uint256"
        },
        {
          "internalType": "bool",
          "name": "exists",
          "type": "bool"
        }
      ],
      "stateMutability": "view",
      "type": "function"
    },
    {
      "inputs": [],
      "name": "getProjectData",
      "outputs": [
        {
          "internalType": "string",
          "name": "",
          "type": "string"
        }
      ],
      "stateMutability": "view",
      "type": "function"
    },
    {
      "inputs": [],
      "name": "getProjectStatus",
      "outputs": [
        {
          "internalType": "bool",
          "name": "active",
          "type": "bool"
        },
        {
          "internalType": "uint256",
          "name": "created",
          "type": "uint256"
        },
        {
          "internalType": "uint256",
          "name": "modified",
          "type": "uint256"
        },
        {
          "internalType": "address",
          "name": "projectCreator",
          "type": "address"
        }
      ],
      "stateMutability": "view",
      "type": "function"
    },
    {
      "inputs": [],
      "name": "getTimestamps",
      "outputs": [
        {
          "internalType": "uint256",
          "name": "created",
          "type": "uint256"
        },
        {
          "internalType": "uint256",
          "name": "modified",
          "type": "uint256"
        }
      ],
      "stateMutability": "view",
      "type": "function"
    },
    {
      "inputs": [
        {
          "internalType": "address",
          "name": "",
          "type": "address"
        }
      ],
      "name": "invitations",
      "outputs": [
        {
          "internalType": "address",
          "name": "invitee",
          "type": "address"
        },
        {
          "internalType": "string",
          "name": "role",
          "type": "string"
        },
        {
          "internalType": "uint256",
          "name": "timestamp",
          "type": "uint256"
        },
        {
          "internalType": "bool",
          "name": "exists",
          "type": "bool"
        }
      ],
      "stateMutability": "view",
      "type": "function"
    },
    {
      "inputs": [
        {
          "internalType": "uint256",
          "name": "",
          "type": "uint256"
        }
      ],
      "name": "invitees",
      "outputs": [
        {
          "internalType": "address",
          "name": "",
          "type": "address"
        }
      ],
      "stateMutability": "view",
      "type": "function"
    },
    {
      "inputs": [],
      "name": "isActive",
      "outputs": [
        {
          "internalType": "bool",
          "name": "",
          "type": "bool"
        }
      ],
      "stateMutability": "view",
      "type": "function"
    },
    {
      "inputs": [
        {
          "internalType": "address",
          "name": "",
          "type": "address"
        }
      ],
      "name": "joinRequests",
      "outputs": [
        {
          "internalType": "address",
          "name": "requester",
          "type": "address"
        },
        {
          "internalType": "string",
          "name": "role",
          "type": "string"
        },
        {
          "internalType": "uint256",
          "name": "timestamp",
          "type": "uint256"
        },
        {
          "internalType": "bool",
          "name": "exists",
          "type": "bool"
        }
      ],
      "stateMutability": "view",
      "type": "function"
    },
    {
      "inputs": [],
      "name": "lastModified",
      "outputs": [
        {
          "internalType": "uint256",
          "name": "",
          "type": "uint256"
        }
      ],
      "stateMutability": "view",
      "type": "function"
    },
    {
      "inputs": [],
      "name": "projectData",
      "outputs": [
        {
          "internalType": "string",
          "name": "",
          "type": "string"
        }
      ],
      "stateMutability": "view",
      "type": "function"
    },
    {
      "inputs": [],
      "name": "reactivateProject",
      "outputs": [],
      "stateMutability": "nonpayable",
      "type": "function"
    },
    {
      "inputs": [],
      "name": "rejectInvitation",
      "outputs": [],
      "stateMutability": "nonpayable",
      "type": "function"
    },
    {
      "inputs": [
        {
          "internalType": "address",
          "name": "_requester",
          "type": "address"
        }
      ],
      "name": "rejectJoinRequest",
      "outputs": [],
      "stateMutability": "nonpayable",
      "type": "function"
    },
    {
      "inputs": [
        {
          "internalType": "uint256",
          "name": "",
          "type": "uint256"
        }
      ],
      "name": "requesters",
      "outputs": [
        {
          "internalType": "address",
          "name": "",
          "type": "address"
        }
      ],
      "stateMutability": "view",
      "type": "function"
    },
    {
      "inputs": [
        {
          "internalType": "address",
          "name": "_invitee",
          "type": "address"
        },
        {
          "internalType": "string",
          "name": "_role",
          "type": "string"
        }
      ],
      "name": "sendInvitation",
      "outputs": [],
      "stateMutability": "nonpayable",
      "type": "function"
    },
    {
      "inputs": [
        {
          "internalType": "string",
          "name": "_role",
          "type": "string"
        }
      ],
      "name": "submitJoinRequest",
      "outputs": [],
      "stateMutability": "nonpayable",
      "type": "function"
    },
    {
      "inputs": [
        {
          "internalType": "string",
          "name": "_newProjectData",
          "type": "string"
        }
      ],
      "name": "updateProjectData",
      "outputs": [],
      "stateMutability": "nonpayable",
      "type": "function"
    }
  ],
  "bytecode": "0x608060405234801561001057600080fd5b50604051611e0f380380611e0f83398101604081905261002f91610125565b60008151116100845760405162461bcd60e51b815260206004820152601c60248201527f50726f6a65637420646174612063616e6e6f7420626520656d70747900000000604482015260640160405180910390fd5b600080546001600160a01b0319166001600160a01b03841617905560016100ab828261029a565b5042600281905560038190556004805460ff191660011790556040516001600160a01b038416917f20bfd29f3d906f96fc35742fac45a554b19cbd4e21f8c4c1d84cb58fdfc32c899161010091815260200190565b60405180910390a25050610358565b634e487b7160e01b600052604160045260246000fd5b6000806040838503121561013857600080fd5b82516001600160a01b038116811461014f57600080fd5b60208401519092506001600160401b0381111561016b57600080fd5b8301601f8101851361017c57600080fd5b80516001600160401b038111156101955761019561010f565b604051601f8201601f19908116603f011681016001600160401b03811182821017156101c3576101c361010f565b6040528181528282016020018710156101db57600080fd5b60005b828110156101fa576020818501810151838301820152016101de565b506000602083830101528093505050509250929050565b600181811c9082168061022557607f821691505b60208210810361024557634e487b7160e01b600052602260045260246000fd5b50919050565b601f82111561029557806000526020600020601f840160051c810160208510156102725750805b601f840160051c820191505b81811015610292576000815560010161027e565b50505b505050565b81516001600160401b038111156102b3576102b361010f565b6102c7816102c18454610211565b8461024b565b6020601f8211600181146102fb57600083156102e35750848201515b600019600385901b1c1916600184901b178455610292565b600084815260208120601f198516915b8281101561032b578785015182556020948501946001909201910161030b565b50848210156103495786840151600019600387901b60f8161c191681555b50505050600190811b01905550565b611aa8806103676000396000f3fe608060405234801561001057600080fd5b50600436106101a95760003560e01c806384e07728116100f9578063cf09e0d011610097578063ef21310611610071578063ef21310614610390578063f7267cfd146103a3578063f75eade0146103ac578063fba7cc79146103bf57600080fd5b8063cf09e0d01461032b578063dfb748aa14610342578063e7aa3afc1461035557600080fd5b8063b5686479116100d3578063b5686479146102f5578063b70825dc14610308578063bbffd04c1461031b578063c3feda171461032357600080fd5b806384e07728146102d0578063985859f6146102e55780639c0768b3146102ed57600080fd5b8063383e1a5e1161016657806359abbfe41161014057806359abbfe4146102875780635e1a6c17146102a2578063728f1112146102b55780637847f1de146102bd57600080fd5b8063383e1a5e1461024c57806355b31b551461025f57806358f43f761461027457600080fd5b806302d05d3f146101ae5780630ee2cb10146101de57806310218f4d146101ef57806322f3e2d4146102045780632b17b8be1461022157806332c6afd014610244575b600080fd5b6000546101c1906001600160a01b031681565b6040516001600160a01b0390911681526020015b60405180910390f35b6000546001600160a01b03166101c1565b6102026101fd36600461168d565b6103ca565b005b6004546102119060ff1681565b60405190151581526020016101d5565b61023461022f3660046116e6565b6104bc565b6040516101d5949392919061174e565b6102026105c9565b61023461025a3660046116e6565b61069f565b6102676106ec565b6040516101d5919061178a565b6102346102823660046116e6565b61077e565b600254600354604080519283526020830191909152016101d5565b6101c16102b036600461179d565b61083d565b610202610867565b6102026102cb36600461168d565b610959565b6102d8610b91565b6040516101d591906117b6565b6102d8610d15565b610267610e90565b6102026103033660046116e6565b610f1e565b6101c161031636600461179d565b61103e565b61020261104e565b610202611112565b61033460025481565b6040519081526020016101d5565b6102026103503660046116e6565b6111d5565b6004546002546003546000546040805160ff909516151585526020850193909352918301526001600160a01b031660608201526080016101d5565b61023461039e3660046116e6565b6112ee565b61033460035481565b6102026103ba366004611802565b61131a565b60045460ff16610211565b6000546001600160a01b031633146103fd5760405162461bcd60e51b81526004016103f490611850565b60405180910390fd5b60045460ff1661041f5760405162461bcd60e51b81526004016103f49061189c565b60008151116104705760405162461bcd60e51b815260206004820152601c60248201527f50726f6a65637420646174612063616e6e6f7420626520656d7074790000000060448201526064016103f4565b600161047c8282611954565b5042600381905560405190815233907fc1756fd99ac9a2b1b22b5e701ddb022b897a002144d045b77ac35ce46610fef6906020015b60405180910390a250565b6001600160a01b03808216600090815260066020908152604080832081516080810190925280549094168152600184018054939460609486948594859490939291840191610509906118cb565b80601f0160208091040260200160405190810160405280929190818152602001828054610535906118cb565b80156105825780601f1061055757610100808354040283529160200191610582565b820191906000526020600020905b81548152906001019060200180831161056557829003601f168201915b5050509183525050600282015460208083019190915260039092015460ff161515604091820152825191830151908301516060909301519199909850919650945092505050565b3360009081526006602052604090206003015460ff166106275760405162461bcd60e51b8152602060048201526019602482015278125b9d9a5d185d1a5bdb88191bd95cc81b9bdd08195e1a5cdd603a1b60448201526064016103f4565b33600090815260066020526040812080546001600160a01b0319168155906106526001830182611592565b5060006002820155600301805460ff19169055604051428152309033907ff7bcbaa371c3a472d8f63f253317d896d63bf307f5e8e913f8eeb9351bc0d4c6906020015b60405180910390a3565b6001600160a01b03808216600090815260056020908152604080832081516080810190925280549094168152600184018054939460609486948594859490939291840191610509906118cb565b6060600180546106fb906118cb565b80601f0160208091040260200160405190810160405280929190818152602001828054610727906118cb565b80156107745780601f1061074957610100808354040283529160200191610774565b820191906000526020600020905b81548152906001019060200180831161075757829003601f168201915b5050505050905090565b600660205260009081526040902080546001820180546001600160a01b0390921692916107aa906118cb565b80601f01602080910402602001604051908101604052809291908181526020018280546107d6906118cb565b80156108235780601f106107f857610100808354040283529160200191610823565b820191906000526020600020905b81548152906001019060200180831161080657829003601f168201915b50505050600283015460039093015491929160ff16905084565b6007818154811061084d57600080fd5b6000918252602090912001546001600160a01b0316905081565b60045460ff166108895760405162461bcd60e51b81526004016103f49061189c565b3360009081526006602052604090206003015460ff166108e75760405162461bcd60e51b8152602060048201526019602482015278125b9d9a5d185d1a5bdb88191bd95cc81b9bdd08195e1a5cdd603a1b60448201526064016103f4565b33600090815260066020526040812080546001600160a01b0319168155906109126001830182611592565b5060006002820155600301805460ff19169055604051428152309033907f7b7404d30440087c51e068aac60d434f5a3a121313c035893fdf187c11d077b690602001610695565b60045460ff1661097b5760405162461bcd60e51b81526004016103f49061189c565b6000546001600160a01b031633036109e85760405162461bcd60e51b815260206004820152602a60248201527f50726f6a6563742063726561746f722063616e6e6f74207375626d6974206a6f6044820152691a5b881c995c5d595cdd60b21b60648201526084016103f4565b3360009081526005602052604090206003015460ff1615610a4b5760405162461bcd60e51b815260206004820152601b60248201527f4a6f696e207265717565737420616c726561647920657869737473000000000060448201526064016103f4565b6000815111610a935760405162461bcd60e51b8152602060048201526014602482015273526f6c652063616e6e6f7420626520656d70747960601b60448201526064016103f4565b6040805160808101825233808252602080830185815242848601526001606085018190526000938452600590925293909120825181546001600160a01b0319166001600160a01b03909116178155925191929190820190610af49082611954565b5060408281015160028301556060909201516003909101805460ff1916911515919091179055600780546001810182556000919091527fa66cc928b5edb82af9bd49922954155ab7b0942694bea4ce44661d9a8736c688018054336001600160a01b0319909116811790915590517fe4d6c018abd0178d4bce0856089ef1876318617b97a1d700bb98506598ab0afc906104b19084904290611a13565b60606000805b600754811015610bfe576005600060078381548110610bb857610bb8611a35565b60009182526020808320909101546001600160a01b0316835282019290925260400190206003015460ff1615610bf65781610bf281611a4b565b9250505b600101610b97565b5060008167ffffffffffffffff811115610c1a57610c1a6115e8565b604051908082528060200260200182016040528015610c43578160200160208202803683370190505b5090506000805b600754811015610d0c576005600060078381548110610c6b57610c6b611a35565b60009182526020808320909101546001600160a01b0316835282019290925260400190206003015460ff1615610d045760078181548110610cae57610cae611a35565b9060005260206000200160009054906101000a90046001600160a01b0316838381518110610cde57610cde611a35565b6001600160a01b039092166020928302919091019091015281610d0081611a4b565b9250505b600101610c4a565b50909392505050565b60606000805b600854811015610d82576006600060088381548110610d3c57610d3c611a35565b60009182526020808320909101546001600160a01b0316835282019290925260400190206003015460ff1615610d7a5781610d7681611a4b565b9250505b600101610d1b565b5060008167ffffffffffffffff811115610d9e57610d9e6115e8565b604051908082528060200260200182016040528015610dc7578160200160208202803683370190505b5090506000805b600854811015610d0c576006600060088381548110610def57610def611a35565b60009182526020808320909101546001600160a01b0316835282019290925260400190206003015460ff1615610e885760088181548110610e3257610e32611a35565b9060005260206000200160009054906101000a90046001600160a01b0316838381518110610e6257610e62611a35565b6001600160a01b039092166020928302919091019091015281610e8481611a4b565b9250505b600101610dce565b60018054610e9d906118cb565b80601f0160208091040260200160405190810160405280929190818152602001828054610ec9906118cb565b8015610f165780601f10610eeb57610100808354040283529160200191610f16565b820191906000526020600020905b815481529060010190602001808311610ef957829003601f168201915b505050505081565b6000546001600160a01b03163314610f485760405162461bcd60e51b81526004016103f490611850565b6001600160a01b03811660009081526005602052604090206003015460ff16610fb35760405162461bcd60e51b815260206004820152601b60248201527f4a6f696e207265717565737420646f6573206e6f74206578697374000000000060448201526064016103f4565b6001600160a01b038116600090815260056020526040812080546001600160a01b031916815590610fe76001830182611592565b5060006002820155600301805460ff1916905560405142815233906001600160a01b038316907f1a69e67d1be897d0ca0cf1517b4d17e345b4272a80bc900f9fe8e96f261ca1db906020015b60405180910390a350565b6008818154811061084d57600080fd5b6000546001600160a01b031633146110785760405162461bcd60e51b81526004016103f490611850565b60045460ff166110ca5760405162461bcd60e51b815260206004820152601b60248201527f50726f6a65637420697320616c726561647920696e616374697665000000000060448201526064016103f4565b6004805460ff1916905542600381905560405190815233907f17064d72ee4a5901e55dfa45024ea8f67cdb4895ba6364ab2f8e7223f642ad36906020015b60405180910390a2565b6000546001600160a01b0316331461113c5760405162461bcd60e51b81526004016103f490611850565b60045460ff161561118f5760405162461bcd60e51b815260206004820152601960248201527f50726f6a65637420697320616c7265616479206163746976650000000000000060448201526064016103f4565b6004805460ff1916600117905542600381905560405133917fb351ba71ddc1d2bf39667cebde99fb92eb26b9f418d5049ba0200888ba8107159161110891815260200190565b6000546001600160a01b031633146111ff5760405162461bcd60e51b81526004016103f490611850565b6001600160a01b03811660009081526005602052604090206003015460ff1661126a5760405162461bcd60e51b815260206004820152601b60248201527f4a6f696e207265717565737420646f6573206e6f74206578697374000000000060448201526064016103f4565b6001600160a01b038116600090815260056020526040812080546001600160a01b03191681559061129e6001830182611592565b5060006002820155600301805460ff1916905560405142815233906001600160a01b038316907f423eb00b6a18c3ecfc2170a0e40ef0bad995279070614ba2e4be1b94f67eb88890602001611033565b600560205260009081526040902080546001820180546001600160a01b0390921692916107aa906118cb565b6000546001600160a01b031633146113445760405162461bcd60e51b81526004016103f490611850565b60045460ff166113665760405162461bcd60e51b81526004016103f49061189c565b6000546001600160a01b03908116908316036113c45760405162461bcd60e51b815260206004820152601d60248201527f43616e6e6f7420696e766974652070726f6a6563742063726561746f7200000060448201526064016103f4565b6001600160a01b03821660009081526006602052604090206003015460ff16156114305760405162461bcd60e51b815260206004820152601960248201527f496e7669746174696f6e20616c7265616479206578697374730000000000000060448201526064016103f4565b60008151116114785760405162461bcd60e51b8152602060048201526014602482015273526f6c652063616e6e6f7420626520656d70747960601b60448201526064016103f4565b604080516080810182526001600160a01b03848116808352602080840186815242858701526001606086018190526000938452600690925294909120835181546001600160a01b0319169316929092178255925191929091908201906114de9082611954565b5060408281015160028301556060909201516003909101805460ff1916911515919091179055600880546001810182556000919091527ff3f7a9fe364faab93b216da50a3214154f22a0a2b415b23a84c8169e8b636ee30180546001600160a01b0319166001600160a01b03851690811790915590513391907f07501885e0e140e0232eed19016a41bde16b8de699d11e7a461f88d6ba58a9cd906115869085904290611a13565b60405180910390a35050565b50805461159e906118cb565b6000825580601f106115ae575050565b601f0160209004906000526020600020908101906115cc91906115cf565b50565b5b808211156115e457600081556001016115d0565b5090565b634e487b7160e01b600052604160045260246000fd5b600082601f83011261160f57600080fd5b813567ffffffffffffffff811115611629576116296115e8565b604051601f8201601f19908116603f0116810167ffffffffffffffff81118282101715611658576116586115e8565b60405281815283820160200185101561167057600080fd5b816020850160208301376000918101602001919091529392505050565b60006020828403121561169f57600080fd5b813567ffffffffffffffff8111156116b657600080fd5b6116c2848285016115fe565b949350505050565b80356001600160a01b03811681146116e157600080fd5b919050565b6000602082840312156116f857600080fd5b611701826116ca565b9392505050565b6000815180845260005b8181101561172e57602081850181015186830182015201611712565b506000602082860101526020601f19601f83011685010191505092915050565b6001600160a01b038516815260806020820181905260009061177290830186611708565b60408301949094525090151560609091015292915050565b6020815260006117016020830184611708565b6000602082840312156117af57600080fd5b5035919050565b602080825282518282018190526000918401906040840190835b818110156117f75783516001600160a01b03168352602093840193909201916001016117d0565b509095945050505050565b6000806040838503121561181557600080fd5b61181e836116ca565b9150602083013567ffffffffffffffff81111561183a57600080fd5b611846858286016115fe565b9150509250929050565b6020808252602c908201527f4f6e6c792070726f6a6563742063726561746f722063616e20706572666f726d60408201526b103a3434b99030b1ba34b7b760a11b606082015260800190565b60208082526015908201527450726f6a656374206973206e6f742061637469766560581b604082015260600190565b600181811c908216806118df57607f821691505b6020821081036118ff57634e487b7160e01b600052602260045260246000fd5b50919050565b601f82111561194f57806000526020600020601f840160051c8101602085101561192c5750805b601f840160051c820191505b8181101561194c5760008155600101611938565b50505b505050565b815167ffffffffffffffff81111561196e5761196e6115e8565b6119828161197c84546118cb565b84611905565b6020601f8211600181146119b6576000831561199e5750848201515b600019600385901b1c1916600184901b17845561194c565b600084815260208120601f198516915b828110156119e657878501518255602094850194600190920191016119c6565b5084821015611a045786840151600019600387901b60f8161c191681555b50505050600190811b01905550565b604081526000611a266040830185611708565b90508260208301529392505050565b634e487b7160e01b600052603260045260246000fd5b600060018201611a6b57634e487b7160e01b600052601160045260246000fd5b506001019056fea264697066735822122097645d2aff7854258c8dbf41c6c477aaa8779a788624b32882ff1563337c47bf64736f6c634300081c0033",
  "linkReferences": {},
  "deployedLinkReferences": {}
}