{
  "_format": "hh-sol-artifact-1",
  "contractName": "ProjectTemplateRegistry",
  "sourceName": "contracts/ProjectTemplateRegistry.sol",
  "abi": [
    {
      "inputs": [],
      "stateMutability": "nonpayable",
      "type": "constructor"
    },
    {
      "anonymous": false,
      "inputs": [
        {
          "indexed": true,
          "internalType": "uint256",
          "name": "templateId",
          "type": "uint256"
        },
        {
          "indexed": false,
          "internalType": "uint256",
          "name": "timestamp",
          "type": "uint256"
        }
      ],
      "name": "TemplateDeactivated",
      "type": "event"
    },
    {
      "anonymous": false,
      "inputs": [
        {
          "indexed": true,
          "internalType": "uint256",
          "name": "templateId",
          "type": "uint256"
        },
        {
          "indexed": false,
          "internalType": "string",
          "name": "name",
          "type": "string"
        },
        {
          "indexed": false,
          "internalType": "string",
          "name": "projectType",
          "type": "string"
        },
        {
          "indexed": true,
          "internalType": "address",
          "name": "creator",
          "type": "address"
        },
        {
          "indexed": false,
          "internalType": "uint256",
          "name": "timestamp",
          "type": "uint256"
        }
      ],
      "name": "TemplateRegistered",
      "type": "event"
    },
    {
      "anonymous": false,
      "inputs": [
        {
          "indexed": true,
          "internalType": "uint256",
          "name": "templateId",
          "type": "uint256"
        },
        {
          "indexed": false,
          "internalType": "string",
          "name": "name",
          "type": "string"
        },
        {
          "indexed": false,
          "internalType": "uint256",
          "name": "timestamp",
          "type": "uint256"
        }
      ],
      "name": "TemplateUpdated",
      "type": "event"
    },
    {
      "inputs": [
        {
          "internalType": "uint256",
          "name": "_templateId",
          "type": "uint256"
        },
        {
          "internalType": "string",
          "name": "_fieldName",
          "type": "string"
        },
        {
          "internalType": "string",
          "name": "_fieldType",
          "type": "string"
        },
        {
          "internalType": "bool",
          "name": "_isRequired",
          "type": "bool"
        },
        {
          "internalType": "string",
          "name": "_defaultValue",
          "type": "string"
        }
      ],
      "name": "addTemplateField",
      "outputs": [],
      "stateMutability": "nonpayable",
      "type": "function"
    },
    {
      "inputs": [
        {
          "internalType": "string",
          "name": "_name",
          "type": "string"
        },
        {
          "internalType": "string",
          "name": "_description",
          "type": "string"
        },
        {
          "internalType": "string",
          "name": "_projectType",
          "type": "string"
        },
        {
          "internalType": "string[]",
          "name": "_participantRoles",
          "type": "string[]"
        },
        {
          "internalType": "string",
          "name": "_exampleJSON",
          "type": "string"
        }
      ],
      "name": "createTemplate",
      "outputs": [
        {
          "internalType": "uint256",
          "name": "",
          "type": "uint256"
        }
      ],
      "stateMutability": "nonpayable",
      "type": "function"
    },
    {
      "inputs": [
        {
          "internalType": "uint256",
          "name": "_templateId",
          "type": "uint256"
        }
      ],
      "name": "deactivateTemplate",
      "outputs": [],
      "stateMutability": "nonpayable",
      "type": "function"
    },
    {
      "inputs": [],
      "name": "getAllTemplates",
      "outputs": [
        {
          "internalType": "uint256[]",
          "name": "",
          "type": "uint256[]"
        }
      ],
      "stateMutability": "view",
      "type": "function"
    },
    {
      "inputs": [
        {
          "internalType": "uint256",
          "name": "_templateId",
          "type": "uint256"
        }
      ],
      "name": "getTemplate",
      "outputs": [
        {
          "internalType": "string",
          "name": "name",
          "type": "string"
        },
        {
          "internalType": "string",
          "name": "description",
          "type": "string"
        },
        {
          "internalType": "string",
          "name": "projectType",
          "type": "string"
        },
        {
          "internalType": "string[]",
          "name": "participantRoles",
          "type": "string[]"
        },
        {
          "internalType": "string",
          "name": "exampleJSON",
          "type": "string"
        },
        {
          "internalType": "bool",
          "name": "isActive",
          "type": "bool"
        }
      ],
      "stateMutability": "view",
      "type": "function"
    },
    {
      "inputs": [],
      "name": "getTemplateCount",
      "outputs": [
        {
          "internalType": "uint256",
          "name": "",
          "type": "uint256"
        }
      ],
      "stateMutability": "view",
      "type": "function"
    },
    {
      "inputs": [
        {
          "internalType": "uint256",
          "name": "_templateId",
          "type": "uint256"
        }
      ],
      "name": "getTemplateFields",
      "outputs": [
        {
          "internalType": "string[]",
          "name": "fieldNames",
          "type": "string[]"
        },
        {
          "internalType": "string[]",
          "name": "fieldTypes",
          "type": "string[]"
        },
        {
          "internalType": "bool[]",
          "name": "isRequired",
          "type": "bool[]"
        },
        {
          "internalType": "string[]",
          "name": "defaultValues",
          "type": "string[]"
        }
      ],
      "stateMutability": "view",
      "type": "function"
    },
    {
      "inputs": [
        {
          "internalType": "string",
          "name": "_projectType",
          "type": "string"
        }
      ],
      "name": "getTemplatesByType",
      "outputs": [
        {
          "internalType": "uint256[]",
          "name": "",
          "type": "uint256[]"
        }
      ],
      "stateMutability": "view",
      "type": "function"
    },
    {
      "inputs": [
        {
          "internalType": "uint256",
          "name": "",
          "type": "uint256"
        }
      ],
      "name": "templates",
      "outputs": [
        {
          "internalType": "string",
          "name": "name",
          "type": "string"
        },
        {
          "internalType": "string",
          "name": "description",
          "type": "string"
        },
        {
          "internalType": "string",
          "name": "projectType",
          "type": "string"
        },
        {
          "internalType": "string",
          "name": "exampleJSON",
          "type": "string"
        },
        {
          "internalType": "bool",
          "name": "isActive",
          "type": "bool"
        },
        {
          "internalType": "address",
          "name": "creator",
          "type": "address"
        },
        {
          "internalType": "uint256",
          "name": "createdAt",
          "type": "uint256"
        }
      ],
      "stateMutability": "view",
      "type": "function"
    },
    {
      "inputs": [
        {
          "internalType": "address",
          "name": "",
          "type": "address"
        },
        {
          "internalType": "uint256",
          "name": "",
          "type": "uint256"
        }
      ],
      "name": "templatesByCreator",
      "outputs": [
        {
          "internalType": "uint256",
          "name": "",
          "type": "uint256"
        }
      ],
      "stateMutability": "view",
      "type": "function"
    },
    {
      "inputs": [
        {
          "internalType": "string",
          "name": "",
          "type": "string"
        },
        {
          "internalType": "uint256",
          "name": "",
          "type": "uint256"
        }
      ],
      "name": "templatesByType",
      "outputs": [
        {
          "internalType": "uint256",
          "name": "",
          "type": "uint256"
        }
      ],
      "stateMutability": "view",
      "type": "function"
    }
  ],
  "bytecode": "0x608060405234611e8457610011611ecd565b61001b6040611ea8565b600a8152693230ba30afb7bbb732b960b11b602082015261003b82611f03565b5261004581611f03565b506100506040611ea8565b600a81526930b3b3b932b3b0ba37b960b11b602082015261007082611f26565b5261007a81611f26565b506100856040611ea8565b600b81526a31b7b7b93234b730ba37b960a91b60208201526100a682611f36565b526100b081611f36565b506100bc610200611ea8565b906101dc82527f7b2270726f6a6563745f6964223a22666c2d63616e6365722d73747564792d3060208301527f31222c2274797065223a226665646572617465645f6c6561726e696e67222c2260408301527f6f626a656374697665223a2243616e636572207374756479204149222c22726f60608301527f6c6573223a5b22646174615f6f776e6572222c2261676772656761746f72222c60808301527f22636f6f7264696e61746f72225d2c227061727469636970616e7473223a5b7b60a08301527f226964223a223078414243222c22726f6c65223a22646174615f6f776e65722260c08301527f7d2c7b226964223a223078444546222c22726f6c65223a22616767726567617460e08301527f6f72227d5d2c22617373657473223a7b226461746173657473223a5b223078486101008301527f494a222c2230784c4d4e225d2c2273637269707473223a5b2230784f5051225d6101208301527f7d2c22776f726b666c6f77223a7b227374657073223a5b7b2273746570223a226101408301527f6c6f63616c5f747261696e696e67222c226578656375746f72223a22307841426101608301527f43227d2c7b2273746570223a226167677265676174696f6e222c2265786563756101808301527f746f72223a223078444546227d5d7d2c22706f6c6963696573223a7b226163636101a08301527f657373223a7b223078444546223a5b22766965775f726573756c7473225d2c226101c08301527f3078414243223a5b22657865637574655f737465705f31225d7d7d7d000000006101e083015260005490610310611f80565b505061031b82611f46565b509061033061032a8354611fcc565b8361201d565b7f466564657261746564204c6561726e696e670000000000000000000000000024825560018201805461036290611fcc565b601f8111611e5f575b50607b81556000527f6865726520646174612072656d61696e73206469737472696275746564000000600160206000207f436f6c6c61626f726174697665206d616368696e65206c6561726e696e67207781550155600282016103d76103d18254611fcc565b8261201d565b7f6665646572617465645f6c6561726e696e670000000000000000000000000024905580516003830191680100000000000000008211611927578254828455808310611de1575b50602001916000526020600020916000905b828210611d1a575050845160058401925090506001600160401b038111611927576104658161045f8454611fcc565b84612047565b6020601f8211600114611cac57816004949392610490926108939798600092611ac9575b505061208c565b90555b6104ac60068201600160ff19825416178155309061209f565b426007820155016105236104be611e89565b6104c86040611ea8565b600a8152691c1c9bda9958dd17da5960b21b602082015281526104eb6040611ea8565b6006815265737472696e6760d01b60208201526020820152600160408201526105146020611ea8565b600081526060820152826120c4565b6105a861052e611e89565b6105386040611ea8565b60048152637479706560e01b602082015281526105556040611ea8565b6006815265737472696e6760d01b602082015260208201526001604082015261057e6040611ea8565b60128152716665646572617465645f6c6561726e696e6760701b60208201526060820152826120c4565b6105df6105b3611e89565b6105bd6040611ea8565b60098152686f626a65637469766560b81b602082015281526104eb6040611ea8565b6106816105ea611e89565b6105f46040611ea8565b6005815264726f6c657360d81b602082015281526106126040611ea8565b6005815264617272617960d81b602082015260208201526001604082015261063a6060611ea8565b602981527f5b22646174615f6f776e6572222c2261676772656761746f72222c22636f6f7260208201526864696e61746f72225d60b81b60408201526060820152826120c4565b6106fd61068c611e89565b6106966040611ea8565b600c81526b7061727469636970616e747360a01b602082015281526106bb6040611ea8565b6005815264617272617960d81b60208201526020820152600160408201526106e36040611ea8565b60028152615b5d60f01b60208201526060820152826120c4565b61078f610708611e89565b6107126040611ea8565b600681526561737365747360d01b602082015281526107316040611ea8565b60068152651bd89a9958dd60d21b602082015260208201526001604082015261075a6040611ea8565b601c81527f7b226461746173657473223a5b5d2c2273637269707473223a5b5d7d0000000060208201526060820152826120c4565b61081261079a611e89565b6107a46040611ea8565b6008815267776f726b666c6f7760c01b602082015281526107c56040611ea8565b60068152651bd89a9958dd60d21b60208201526020820152600160408201526107ee6040611ea8565b600c81526b7b227374657073223a5b5d7d60a01b60208201526060820152826120c4565b61081a611e89565b906108256040611ea8565b6008815267706f6c696369657360c01b602082015282526108466040611ea8565b60068152651bd89a9958dd60d21b602082015260208301526001604083015261086f6040611ea8565b600d81526c7b22616363657373223a7b7d7d60981b602082015260608301526120c4565b6108c1816032604051716665646572617465645f6c6561726e696e6760701b81526001601282015220612329565b3060005260026020526108d8816040600020612329565b60405190606082526012606083015271466564657261746564204c6561726e696e6760701b608083015260a06020830152601260a0830152716665646572617465645f6c6561726e696e6760701b60c0830152426040830152600080516020613c4783398151915260e03093a361094d611ecd565b6109576040611ea8565b600a8152693932b9b2b0b931b432b960b11b602082015261097782611f03565b5261098181611f03565b5061098c6040611ea8565b60088152673932bb34b2bbb2b960c11b60208201526109aa82611f26565b526109b481611f26565b506109bf6040611ea8565b600b81526a31b7b7b93234b730ba37b960a91b60208201526109e082611f36565b526109ea81611f36565b506109f66101a0611ea8565b9061017f82527f7b2270726f6a6563745f6964223a2272657365617263682d636f6c6c61622d3060208301527f31222c2274797065223a2272657365617263685f636f6c6c61626f726174696f60408301527f6e222c226f626a656374697665223a22436c696d617465206368616e6765207260608301527f65736561726368222c22726f6c6573223a5b2272657365617263686572222c2260808301527f7265766965776572222c22636f6f7264696e61746f72225d2c2270617274696360a08301527f6970616e7473223a5b7b226964223a223078414243222c22726f6c65223a227260c08301527f657365617263686572227d2c7b226964223a223078444546222c22726f6c652260e08301527f3a227265766965776572227d5d2c2272657365617263685f6172656173223a5b6101008301527f22636c696d617465222c22656e7669726f6e6d656e74225d2c227075626c69636101208301527f6174696f6e73223a5b5d2c226d696c6573746f6e6573223a5b7b226e616d65226101408301527f3a224461746120636f6c6c656374696f6e222c22646561646c696e65223a22326101608301527f3032352d31322d3331222c22636f6d706c65746564223a66616c73657d5d7d0061018083015260005490610bd5611f80565b5050610be082611f46565b5090610bef61032a8354611fcc565b7f526573656172636820436f6c6c61626f726174696f6e0000000000000000002c8255600182018054610c2190611fcc565b601f8111611c87575b50605981556000526b696f6e20706c6174666f726d60a01b600160206000207f41636164656d696320616e6420726573656172636820636f6c6c61626f7261748155015560028201610c7f6103d18254611fcc565b7f72657365617263685f636f6c6c61626f726174696f6e0000000000000000002c905580516003830191680100000000000000008211611927578254828455808310611c09575b50602001916000526020600020916000905b828210611b42575050845160058401925090506001600160401b03811161192757610d078161045f8454611fcc565b6020601f8211600114611ad457816004949392610d3192610fa89798600092611ac957505061208c565b90555b610d4d60068201600160ff19825416178155309061209f565b42600782015501610d5f6104be611e89565b610ddd610d6a611e89565b610d746040611ea8565b60048152637479706560e01b60208201528152610d916040611ea8565b6006815265737472696e6760d01b6020820152602082015260016040820152610dba6040611ea8565b60168152600080516020613c6783398151915260208201526060820152826120c4565b610de86105b3611e89565b610e88610df3611e89565b610dfd6040611ea8565b6005815264726f6c657360d81b60208201528152610e1b6040611ea8565b6005815264617272617960d81b6020820152602082015260016040820152610e436060611ea8565b602781527f5b2272657365617263686572222c227265766965776572222c22636f6f7264696020820152666e61746f72225d60c81b60408201526060820152826120c4565b610e9361068c611e89565b610ecf610e9e611e89565b610ea86040611ea8565b600e81526d72657365617263685f617265617360901b602082015281526106bb6040611ea8565b610f31610eda611e89565b610ee46040611ea8565b600c81526b7075626c69636174696f6e7360a01b60208201528152610f096040611ea8565b6005815264617272617960d81b60208201526020820152600060408201526106e36040611ea8565b610f39611e89565b90610f446040611ea8565b600a8152696d696c6573746f6e657360b01b60208201528252610f676040611ea8565b6005815264617272617960d81b6020820152602083015260006040830152610f8f6040611ea8565b60028152615b5d60f01b602082015260608301526120c4565b610fcf816036604051600080516020613c6783398151915281526001601682015220612329565b306000526002602052610fe6816040600020612329565b6040519060608252601660608301527f526573656172636820436f6c6c61626f726174696f6e00000000000000000000608083015260a06020830152601660a0830152600080516020613c6783398151915260c0830152426040830152600080516020613c4783398151915260e03093a3606061106281611ea8565b6002815290601f190160005b818110611ab857826110806040611ea8565b600b81526a31b7b7b93234b730ba37b960a91b60208201526110a182611f03565b526110ab81611f03565b506110b66040611ea8565b600b81526a31b7b73a3934b13aba37b960a91b60208201526110d782611f26565b526110e181611f26565b506110ed610220611ea8565b906101f682527f7b2270726f6a6563745f6964223a22616c2d63616e6365722d6465746563746960208301527f6f6e2d3031222c2274797065223a226163746976655f6c6561726e696e67222c60408301527f226f626a656374697665223a22416374697665206c6561726e696e6720666f7260608301527f2063616e63657220646574656374696f6e206d6f64656c222c22726f6c65732260808301527f3a5b22636f6f7264696e61746f72222c22636f6e7472696275746f72225d2c2260a08301527f7061727469636970616e7473223a5b7b226964223a223078414243222c22726f60c08301527f6c65223a22636f6f7264696e61746f72227d2c7b226964223a2230784445462260e08301527f2c22726f6c65223a22636f6e7472696275746f72227d5d2c22706f6c696369656101008301527f73223a7b227065726d697373696f6e73223a7b22636f6f7264696e61746f72226101208301527f3a5b226d616e6167655f70726f6a656374222c2273746172745f726f756e64736101408301527f222c22617070726f76655f7061727469636970616e7473222c22766965775f616101608301527f6c6c222c226d6f646966795f73657474696e6773225d2c22636f6e74726962756101808301527f746f72223a5b22766f7465222c22766965775f726573756c7473222c227375626101a08301527f6d69745f6c6162656c73225d7d2c22766f74696e67223a7b22656e61626c65646101c08301527f223a747275652c227468726573686f6c64223a302e352c227265766f6361626c6101e08301527f655f6279223a22636f6f7264696e61746f72227d7d7d0000000000000000000061020083015260005490611368611f80565b505061137382611f46565b509061138261032a8354611fcc565b7f416374697665204c6561726e696e67000000000000000000000000000000001e82556001820180546113b490611fcc565b601f8111611a93575b5060838155600052606760f81b600260206000207f436f6c6c61626f72617469766520616374697665206c6561726e696e6720666f81557f72206d616368696e65206c6561726e696e67206d6f64656c20747261696e696e600182015501556002820161142d6103d18254611fcc565b7f6163746976655f6c6561726e696e67000000000000000000000000000000001e905580516003830191680100000000000000008211611927578254828455808310611a15575b50602001916000526020600020916000905b82821061193d575050845160058401925090506001600160401b038111611927576114b58161045f8454611fcc565b6020601f82116001146118b9578160049493926114df926117f697986000926118ae57505061208c565b90555b6114fb60068201600160ff19825416178155309061209f565b4260078201550161150d6104be611e89565b61158f611518611e89565b6115226040611ea8565b60048152637479706560e01b6020820152815261153f6040611ea8565b6006815265737472696e6760d01b60208201526020820152600160408201526115686040611ea8565b600f81526e6163746976655f6c6561726e696e6760881b60208201526060820152826120c4565b61159a6105b3611e89565b61162a6115a5611e89565b6115af6040611ea8565b6005815264726f6c657360d81b602082015281526115cd6040611ea8565b6005815264617272617960d81b60208201526020820152600160408201526115f56040611ea8565b601d81527f5b22636f6f7264696e61746f72222c22636f6e7472696275746f72225d00000060208201526060820152826120c4565b611664611635611e89565b61163f6040611ea8565b600c81526b7061727469636970616e747360a01b60208201528152610f096040611ea8565b61166c611e89565b906116776040611ea8565b6008815267706f6c696369657360c01b602082015282526116986040611ea8565b60068152651bd89a9958dd60d21b60208201526020830152600160408301526116c2610120611ea8565b60f281527f7b227065726d697373696f6e73223a7b22636f6f7264696e61746f72223a5b2260208201527f6d616e6167655f70726f6a656374222c2273746172745f726f756e6473222c2260408201527f617070726f76655f7061727469636970616e7473222c22766965775f616c6c2260608201527f2c226d6f646966795f73657474696e6773225d2c22636f6e7472696275746f7260808201527f223a5b22766f7465222c22766965775f726573756c7473222c227375626d697460a08201527f5f6c6162656c73225d7d2c22766f74696e67223a7b22656e61626c6564223a7460c08201527f7275652c227468726573686f6c64223a302e352c227265766f6361626c655f6260e08201527179223a22636f6f7264696e61746f72227d7d60701b61010082015260608301526120c4565b61182181602f6040516e6163746976655f6c6561726e696e6760881b81526001600f82015220612329565b306000526002602052611838816040600020612329565b6040519060608252600f60608301526e416374697665204c6561726e696e6760881b608083015260a06020830152600f60a08301526e6163746976655f6c6561726e696e6760881b60c0830152426040830152600080516020613c4783398151915260e03093a36040516118ef90816123588239f35b015190508880610489565b601f1982169583600052816000209660005b81811061190f575096600192849260049796956117f6999a106118f6575b505050811b0190556114e2565b015160001960f88460031b161c191690558780806118e9565b838301518955600190980197602093840193016118cb565b634e487b7160e01b600052604160045260246000fd5b80518051906001600160401b038211611927576119648261195e8854611fcc565b88612047565b602090601f83116001146119a8579261198e8360019594602094879660009261199d57505061208c565b87555b01940191019092611486565b015190508d80610489565b90601f1983169187600052816000209260005b8181106119fd57509360209360019693879693838895106119e4575b505050811b018755611991565b015160001960f88460031b161c191690558c80806119d7565b929360206001819287860151815501950193016119bb565b8360005282602060002091820191015b818110611a325750611474565b80611a3f60019254611fcc565b80611a4c575b5001611a25565b601f81118314611a625750600081555b89611a45565b611a80908260005283601f6020600020920160051c82019101612006565b8060005260006020812081835555611a5c565b611ab290826000526003601f6020600020920160051c82019101612006565b856113bd565b80606060208093860101520161106e565b015190503880610489565b601f1982169583600052816000209660005b818110611b2a57509660019284926004979695610fa8999a10611b11575b505050811b019055610d34565b015160001960f88460031b161c19169055388080611b04565b83830151895560019098019760209384019301611ae6565b80518051906001600160401b03821161192757611b638261195e8854611fcc565b602090601f8311600114611b9c5792611b8d83600195946020948796600092611ac957505061208c565b87555b01940191019092610cd8565b90601f1983169187600052816000209260005b818110611bf15750936020936001969387969383889510611bd8575b505050811b018755611b90565b015160001960f88460031b161c19169055388080611bcb565b92936020600181928786015181550195019301611baf565b8360005282602060002091820191015b818110611c265750610cc6565b80611c3360019254611fcc565b80611c40575b5001611c19565b601f81118314611c565750600081555b38611c39565b611c74908260005283601f6020600020920160051c82019101612006565b8060005260006020812081835555611c50565b611ca690826000526002601f6020600020920160051c82019101612006565b38610c2a565b601f1982169583600052816000209660005b818110611d0257509660019284926004979695610893999a10611ce9575b505050811b019055610493565b015160001960f88460031b161c19169055388080611cdc565b83830151895560019098019760209384019301611cbe565b80518051906001600160401b03821161192757611d3b8261195e8854611fcc565b602090601f8311600114611d745792611d6583600195946020948796600092611ac957505061208c565b87555b01940191019092610430565b90601f1983169187600052816000209260005b818110611dc95750936020936001969387969383889510611db0575b505050811b018755611d68565b015160001960f88460031b161c19169055388080611da3565b92936020600181928786015181550195019301611d87565b8360005282602060002091820191015b818110611dfe575061041e565b80611e0b60019254611fcc565b80611e18575b5001611df1565b601f81118314611e2e5750600081555b38611e11565b611e4c908260005283601f6020600020920160051c82019101612006565b8060005260006020812081835555611e28565b611e7e90826000526002601f6020600020920160051c82019101612006565b3861036b565b600080fd5b60405190608082016001600160401b0381118382101761192757604052565b6040519190601f01601f191682016001600160401b0381118382101761192757604052565b608090611ed982611ea8565b6003815291601f19018260005b828110611ef257505050565b806060602080938501015201611ee6565b805115611f105760200190565b634e487b7160e01b600052603260045260246000fd5b805160011015611f105760400190565b805160021015611f105760600190565b600054811015611f1057600080805260039190911b7f290decd9548b62a8d60345a988386fc84ba6bc95484008f6362f93160ef3e5630191565b60005468010000000000000000811015611927576001810160005560008054821015611fb857808060209252209060031b0190600090565b634e487b7160e01b81526032600452602490fd5b90600182811c92168015611ffc575b6020831014611fe657565b634e487b7160e01b600052602260045260246000fd5b91607f1691611fdb565b818110612011575050565b60008155600101612006565b90601f811161202a575050565b61204591600052601f6020600020910160051c810190612006565b565b9190601f811161205657505050565b612045926000526020600020906020601f840160051c83019310612082575b601f0160051c0190612006565b9091508190612075565b8160011b916000199060031b1c19161790565b8054610100600160a81b03191660089290921b610100600160a81b0316919091179055565b805490680100000000000000008210156119275760018201808255821015611f105760005260206000209060021b0191815192835160018060401b038111611927576121148161045f8454611fcc565b602094601f82116001146122c457612139929394958291600092611ac957505061208c565b81555b6020830151805160018301916001600160401b0382116119275761216a826121648554611fcc565b85612047565b602090601f83116001146122585782606095936003959361219393600092611ac957505061208c565b90555b600281016040860151151560ff801983541691161790550192015191825160018060401b038111611927576121cf8161045f8454611fcc565b6020601f82116001146121f65781906121f2939495600092611ac957505061208c565b9055565b601f1982169083600052806000209160005b81811061224057509583600195969710612227575b505050811b019055565b015160001960f88460031b161c1916905538808061221d565b9192602060018192868b015181550194019201612208565b90601f1983169184600052816000209260005b8181106122ac5750926001928592606098966003989610612294575b505050811b019055612196565b015160001983881b60f8161c19169055388080612287565b9293602060018192878601518155019501930161226b565b601f1982169583600052806000209160005b888110612311575083600195969798106122f8575b505050811b01815561213c565b015160001960f88460031b161c191690553880806122eb565b919260206001819286850151815501940192016122d6565b805490680100000000000000008210156119275760018201808255821015611f10576000526020600020015556fe6080604052600436101561001257600080fd5b60003560e01c80631d1a689e146113db57806331543cf4146111b55780635016959a146111975780638e46a300146111295780639a33dab0146110dd578063a12228e214611037578063bc52565214610f63578063d3ebf9c514610729578063d830082f146106af578063df715769146102395763e74ed18a1461009557600080fd5b346102345760203660031901126102345760046100bf81356100ba600054821061177a565b61164b565b50018054906100cd8261184f565b906100d78361184f565b6100e084611763565b906100ee60405192836115d2565b8482526100fa85611763565b602083019590601f19013687376101108161184f565b9360005b82811061019157505050610146602091610139604051966080885260808801906114f6565b90868203848801526114f6565b918483036040860152519182815201939060005b818110610179578480610175888783820360608501526114f6565b0390f35b8251151586526020958601959092019160010161015a565b806101a76101a160019385611833565b506116bf565b6101b1828a6117c0565b526101bc81896117c0565b506101d2826101cb8386611833565b50016116bf565b6101dc82876117c0565b526101e781866117c0565b5060ff60026101f68386611833565b5001541661020482886117c0565b901515905261021860036101cb8386611833565b61022282896117c0565b5261022d81886117c0565b5001610114565b600080fd5b346102345760a0366003190112610234576004356024356001600160401b0381116102345761026c9036906004016115f5565b906044356001600160401b0381116102345761028c9036906004016115f5565b91606435801515809103610234576084356001600160401b038111610234576102b99036906004016115f5565b926102c7600054821061177a565b6102d08161164b565b506006015460081c6001600160a01b0316330361065e576102f260049161164b565b500160405192610301846115b7565b83526020830194855260408301918252606083019384528054600160401b8110156104e85761033591600182018155611833565b92909261064857518051906001600160401b0382116104e8576103588454611685565b601f8111610616575b50602090601f83116001146105af576103859291600091836105a4575b50506117eb565b82555b92518051939060018301906001600160401b0386116104e8576103ab8254611685565b601f8111610572575b50602090601f87116001146105095795806103db92600397986000926104fe5750506117eb565b90555b600282019051151560ff8019835416911617905501905190815160018060401b0381116104e85761040f8254611685565b601f81116104ab575b50602092601f821160011461044b5761043c929382916000926104405750506117eb565b9055005b01519050848061037e565b601f1982169383600052806000209160005b868110610493575083600195961061047a575b505050811b019055005b015160001960f88460031b161c19169055838080610470565b9192602060018192868501518155019401920161045d565b6104d890836000526020600020601f840160051c810191602085106104de575b601f0160051c01906117d4565b83610418565b90915081906104cb565b634e487b7160e01b600052604160045260246000fd5b01519050888061037e565b90601f1987169183600052816000209260005b81811061055a57509160019391896003999a9410610542575b505050811b0190556103de565b015160001983891b60f8161c19169055878080610535565b9293602060018192878601518155019501930161051c565b61059e90836000526020600020601f890160051c81019160208a106104de57601f0160051c01906117d4565b866103b4565b01519050878061037e565b90601f1983169185600052816000209260005b8181106105fe57509084600195949392106105e5575b505050811b018255610388565b015160001960f88460031b161c191690558680806105d8565b929360206001819287860151815501950193016105c2565b61064290856000526020600020601f850160051c810191602086106104de57601f0160051c01906117d4565b86610361565b634e487b7160e01b600052600060045260246000fd5b60405162461bcd60e51b8152602060048201526024808201527f4f6e6c792074656d706c6174652063726561746f722063616e20616464206669604482015263656c647360e01b6064820152608490fd5b34610234576040366003190112610234576004356001600160401b038111610234576106df9036906004016115f5565b6106fb60206024359281604051938285809451938492016114ae565b8101600181520301902080548210156102345760209161071a91611589565b90549060031b1c604051908152f35b346102345760a0366003190112610234576004356001600160401b038111610234576107599036906004016115f5565b6024356001600160401b038111610234576107789036906004016115f5565b906044356001600160401b038111610234576107989036906004016115f5565b906064356001600160401b0381116102345736602382011215610234578060040135926107c484611763565b916107d260405193846115d2565b84835260208301906024829660051b820101903682116102345760248101925b828410610f345750506084359150506001600160401b0381116102345761081d9036906004016115f5565b91835115610eef57815115610eab5760005494600160401b8610156104e8576001860160005561084c8661164b565b50506108578661164b565b5085519097906001600160401b0381116104e8576108758954611685565b601f8111610e79575b506020601f8211600114610e135790806108a092600091610e08575b506117eb565b88555b805160018901916001600160401b0382116104e8576108c28354611685565b601f8111610dd6575b50602090601f8311600114610d6f576108ee929160009183610d645750506117eb565b90555b825160028801906001600160401b0381116104e8576109108254611685565b601f8111610d32575b506020601f8211600114610cce57908061093a92600091610cc357506117eb565b90555b90516003870191600160401b82116104e8578254828455808310610c45575b50916000526020600020916000905b828210610b3b575050835196915050600581016001600160401b0387116104e857602096869461099b8354611685565b601f8111610b0b575b508890601f8311600114610a8d5782610a6d959360008051602061189a8339815191529795936109dc93600092610a825750506117eb565b90555b6006810180546001600160a81b0319163360081b610100600160a81b0316176001179055426007909101556040518151610a359186918a908290610a2681838986016114ae565b810160018152030190206117fe565b3360005260028752610a4b8460406000206117fe565b610a60604051956060875260608701906114d1565b90858203888701526114d1565b924260408201528033940390a3604051908152f35b015190508c8061037e565b90601f1983169184600052816000209260005b818110610af15750926001928592610a6d989660008051602061189a8339815191529a989610610ad8575b505050811b0190556109df565b015160001960f88460031b161c191690558b8080610acb565b8284015185558b9950600190940193928c01928c01610aa0565b610b3590846000528a600020601f850160051c8101918c86106104de57601f0160051c01906117d4565b896109a4565b80518051906001600160401b0382116104e857610b588654611685565b601f8111610c13575b50602090601f8311600114610ba65792610b8c83600195946020948796600092610b9b5750506117eb565b87555b0194019101909261096b565b015190508f8061037e565b90601f1983169187600052816000209260005b818110610bfb5750936020936001969387969383889510610be2575b505050811b018755610b8f565b015160001960f88460031b161c191690558e8080610bd5565b92936020600181928786015181550195019301610bb9565b610c3f90876000526020600020601f850160051c810191602086106104de57601f0160051c01906117d4565b8b610b61565b8360005282602060002091820191015b818110610c62575061095c565b80610c6f60019254611685565b80610c7c575b5001610c55565b601f81118314610c925750600081555b8b610c75565b610cb0908260005283601f6020600020920160051c820191016117d4565b8060005260006020812081835555610c8c565b90508601518b61089a565b601f1982169083600052806000209160005b818110610d1a57509083600194939210610d01575b5050811b01905561093d565b87015160001960f88460031b161c191690558a80610cf5565b9192602060018192868c015181550194019201610ce0565b610d5e90836000526020600020601f840160051c810191602085106104de57601f0160051c01906117d4565b89610919565b015190508b8061037e565b90601f1983169184600052816000209260005b818110610dbe5750908460019594939210610da5575b505050811b0190556108f1565b015160001960f88460031b161c191690558a8080610d98565b92936020600181928786015181550195019301610d82565b610e0290846000526020600020601f850160051c810191602086106104de57601f0160051c01906117d4565b8a6108cb565b90508801518b61089a565b601f198216908a600052806000209160005b8a828210610e615750509083600194939210610e48575b5050811b0188556108a3565b89015160001960f88460031b161c191690558a80610e3c565b60018495602093958493015181550194019201610e25565b610ea5908a6000526020600020601f840160051c810191602085106104de57601f0160051c01906117d4565b8961087e565b60405162461bcd60e51b815260206004820152601c60248201527b50726f6a65637420747970652063616e6e6f7420626520656d70747960201b6044820152606490fd5b60405162461bcd60e51b815260206004820152601d60248201527f54656d706c617465206e616d652063616e6e6f7420626520656d7074790000006044820152606490fd5b83356001600160401b03811161023457602091610f588392602436918701016115f5565b8152019301926107f2565b346102345760203660031901126102345760043560005481101561023457610f8d610fe59161164b565b50610f97816116bf565b90610fa4600182016116bf565b61100f610fb3600284016116bf565b611001610fc2600586016116bf565b91610ff36007600688015497015495604051998a9960e08b5260e08b01906114d1565b9089820360208b01526114d1565b9087820360408901526114d1565b9085820360608701526114d1565b60ff83161515608085015260089290921c6001600160a01b031660a084015260c08301520390f35b34610234576020366003190112610234576004356001600160401b03811161023457602061106c61107f9236906004016115f5565b81604051938285809451938492016114ae565b8101600181520301902060405190816020825491828152019160005260206000209060005b8181106110c757610175856110bb818703826115d2565b6040519182918261154f565b82548452602090930192600192830192016110a4565b34610234576040366003190112610234576004356001600160a01b0381169081900361023457602435906000526002602052604060002080548210156102345760209161071a91611589565b346102345760003660031901126102345760005461114681611763565b9061115460405192836115d2565b808252601f1961116382611763565b0136602084013760005b8181106111825760405180610175858261154f565b8080611190600193866117c0565b520161116d565b34610234576000366003190112610234576020600054604051908152f35b34610234576020366003190112610234576111d96004356100ba600054821061177a565b506040519061012082016001600160401b038111838210176104e857604052611201816116bf565b825261120f600182016116bf565b9060208301918252611223600282016116bf565b92604081019384526003820193845461123b81611763565b9561124960405197886115d2565b818752602087019060005260206000206000915b8383106113be5750505050606082019485526004830194855461127f81611763565b9061128d60405192836115d2565b80825260208201976000526020600020976000905b8282106113625761132089896113588a61134a8b61133c8c8c608086015261132e6112cf600589016116bf565b958660a0820152600760068a01549960ff8b1615159a8b60c085015260018060a01b039060081c1660e0840152015461010082015251985193519151936040519a8b9a60c08c5260c08c01906114d1565b908a820360208c01526114d1565b9088820360408a01526114d1565b9086820360608801526114f6565b9084820360808601526114d1565b9060a08301520390f35b600460206001928c6113ab60036040519261137c846115b7565b611385816116bf565b84526113928882016116bf565b8685015260ff60028201541615156040850152016116bf565b60608201528152019a01910190986112a2565b6001602081926113cd856116bf565b81520192019201919061125d565b34610234576020366003190112610234576004356113fc600054821061177a565b6114058161164b565b506006015460081c6001600160a01b0316330361145d5760066114278261164b565b500160ff1981541690557f7207c44586dc0a66684a1bcea62a6cf5b1e7e6365b0f6de987db6c32bd50cec56020604051428152a2005b60405162461bcd60e51b8152602060048201526024808201527f4f6e6c792074656d706c6174652063726561746f722063616e206465616374696044820152637661746560e01b6064820152608490fd5b60005b8381106114c15750506000910152565b81810151838201526020016114b1565b906020916114ea815180928185528580860191016114ae565b601f01601f1916010190565b9080602083519182815201916020808360051b8301019401926000915b83831061152257505050505090565b9091929394602080611540600193601f1986820301875289516114d1565b97019301930191939290611513565b602060408183019282815284518094520192019060005b8181106115735750505090565b8251845260209384019390920191600101611566565b80548210156115a15760005260206000200190600090565b634e487b7160e01b600052603260045260246000fd5b608081019081106001600160401b038211176104e857604052565b601f909101601f19168101906001600160401b038211908210176104e857604052565b81601f82011215610234578035906001600160401b0382116104e85760405192611629601f8401601f1916602001856115d2565b8284526020838301011161023457816000926020809301838601378301015290565b6000548110156115a157600080805260039190911b7f290decd9548b62a8d60345a988386fc84ba6bc95484008f6362f93160ef3e5630191565b90600182811c921680156116b5575b602083101461169f57565b634e487b7160e01b600052602260045260246000fd5b91607f1691611694565b90604051918260008254926116d384611685565b808452936001811690811561174157506001146116fa575b506116f8925003836115d2565b565b90506000929192526020600020906000915b8183106117255750509060206116f892820101386116eb565b602091935080600191548385890101520191019091849261170c565b9050602092506116f894915060ff191682840152151560051b820101386116eb565b6001600160401b0381116104e85760051b60200190565b1561178157565b60405162461bcd60e51b815260206004820152601760248201527615195b5c1b185d1948191bd95cc81b9bdd08195e1a5cdd604a1b6044820152606490fd5b80518210156115a15760209160051b010190565b8181106117df575050565b600081556001016117d4565b8160011b916000199060031b1c19161790565b8054600160401b8110156104e85761181b91600182018155611589565b819291549060031b91821b91600019901b1916179055565b80548210156115a15760005260206000209060021b0190600090565b9061185982611763565b61186660405191826115d2565b8281528092611877601f1991611763565b019060005b82811061188857505050565b80606060208093850101520161187c56fed2079278fcb22234a7956bcc5eb65ad7662583e56aa048fa17163cfa522af8d3a2646970667358221220e477b26231c73f5fac8d325bf7dbb2fa8a01ff955c727a18a6b55bd64bb34a7e64736f6c634300081c0033d2079278fcb22234a7956bcc5eb65ad7662583e56aa048fa17163cfa522af8d372657365617263685f636f6c6c61626f726174696f6e00000000000000000000",
  "linkReferences": {},
  "deployedLinkReferences": {}
}