{
  "_format": "hh-sol-artifact-1",
  "contractName": "Project",
  "sourceName": "contracts/Project.sol",
  "abi": [
    {
      "inputs": [
        {
          "internalType": "address",
          "name": "_creator",
          "type": "address"
        },
        {
          "internalType": "string",
          "name": "_projectData",
          "type": "string"
        }
      ],
      "stateMutability": "nonpayable",
      "type": "constructor"
    },
    {
      "anonymous": false,
      "inputs": [
        {
          "indexed": false,
          "internalType": "uint256",
          "name": "round",
          "type": "uint256"
        },
        {
          "indexed": false,
          "internalType": "uint256",
          "name": "completedSamples",
          "type": "uint256"
        },
        {
          "indexed": false,
          "internalType": "uint256",
          "name": "timestamp",
          "type": "uint256"
        }
      ],
      "name": "ALBatchCompleted",
      "type": "event"
    },
    {
      "anonymous": false,
      "inputs": [
        {
          "indexed": false,
          "internalType": "uint256",
          "name": "round",
          "type": "uint256"
        },
        {
          "indexed": false,
          "internalType": "uint256",
          "name": "sampleCount",
          "type": "uint256"
        },
        {
          "indexed": false,
          "internalType": "uint256",
          "name": "timestamp",
          "type": "uint256"
        }
      ],
      "name": "ALBatchStarted",
      "type": "event"
    },
    {
      "anonymous": false,
      "inputs": [
        {
          "indexed": false,
          "internalType": "address",
          "name": "votingContract",
          "type": "address"
        },
        {
          "indexed": false,
          "internalType": "address",
          "name": "storageContract",
          "type": "address"
        }
      ],
      "name": "ALContractsDeployed",
      "type": "event"
    },
    {
      "anonymous": false,
      "inputs": [
        {
          "indexed": false,
          "internalType": "uint256",
          "name": "round",
          "type": "uint256"
        },
        {
          "indexed": false,
          "internalType": "string",
          "name": "reason",
          "type": "string"
        },
        {
          "indexed": false,
          "internalType": "uint256",
          "name": "timestamp",
          "type": "uint256"
        }
      ],
      "name": "ALRoundTriggered",
      "type": "event"
    },
    {
      "anonymous": false,
      "inputs": [
        {
          "indexed": false,
          "internalType": "string",
          "name": "sampleId",
          "type": "string"
        },
        {
          "indexed": false,
          "internalType": "string",
          "name": "label",
          "type": "string"
        },
        {
          "indexed": false,
          "internalType": "uint256",
          "name": "round",
          "type": "uint256"
        },
        {
          "indexed": false,
          "internalType": "uint256",
          "name": "timestamp",
          "type": "uint256"
        }
      ],
      "name": "AutoLabelStored",
      "type": "event"
    },
    {
      "anonymous": false,
      "inputs": [
        {
          "indexed": true,
          "internalType": "address",
          "name": "updater",
          "type": "address"
        },
        {
          "indexed": false,
          "internalType": "string",
          "name": "rocrateHashFinal",
          "type": "string"
        },
        {
          "indexed": false,
          "internalType": "uint256",
          "name": "timestamp",
          "type": "uint256"
        }
      ],
      "name": "FinalROCrateHashUpdated",
      "type": "event"
    },
    {
      "anonymous": false,
      "inputs": [
        {
          "indexed": true,
          "internalType": "address",
          "name": "invitee",
          "type": "address"
        },
        {
          "indexed": true,
          "internalType": "address",
          "name": "project",
          "type": "address"
        },
        {
          "indexed": false,
          "internalType": "uint256",
          "name": "timestamp",
          "type": "uint256"
        }
      ],
      "name": "InvitationAccepted",
      "type": "event"
    },
    {
      "anonymous": false,
      "inputs": [
        {
          "indexed": true,
          "internalType": "address",
          "name": "invitee",
          "type": "address"
        },
        {
          "indexed": true,
          "internalType": "address",
          "name": "project",
          "type": "address"
        },
        {
          "indexed": false,
          "internalType": "uint256",
          "name": "timestamp",
          "type": "uint256"
        }
      ],
      "name": "InvitationRejected",
      "type": "event"
    },
    {
      "anonymous": false,
      "inputs": [
        {
          "indexed": true,
          "internalType": "address",
          "name": "invitee",
          "type": "address"
        },
        {
          "indexed": true,
          "internalType": "address",
          "name": "inviter",
          "type": "address"
        },
        {
          "indexed": false,
          "internalType": "string",
          "name": "role",
          "type": "string"
        },
        {
          "indexed": false,
          "internalType": "uint256",
          "name": "timestamp",
          "type": "uint256"
        }
      ],
      "name": "InvitationSent",
      "type": "event"
    },
    {
      "anonymous": false,
      "inputs": [
        {
          "indexed": true,
          "internalType": "address",
          "name": "requester",
          "type": "address"
        },
        {
          "indexed": true,
          "internalType": "address",
          "name": "approver",
          "type": "address"
        },
        {
          "indexed": false,
          "internalType": "uint256",
          "name": "timestamp",
          "type": "uint256"
        }
      ],
      "name": "JoinRequestApproved",
      "type": "event"
    },
    {
      "anonymous": false,
      "inputs": [
        {
          "indexed": true,
          "internalType": "address",
          "name": "requester",
          "type": "address"
        },
        {
          "indexed": true,
          "internalType": "address",
          "name": "rejector",
          "type": "address"
        },
        {
          "indexed": false,
          "internalType": "uint256",
          "name": "timestamp",
          "type": "uint256"
        }
      ],
      "name": "JoinRequestRejected",
      "type": "event"
    },
    {
      "anonymous": false,
      "inputs": [
        {
          "indexed": true,
          "internalType": "address",
          "name": "requester",
          "type": "address"
        },
        {
          "indexed": false,
          "internalType": "string",
          "name": "role",
          "type": "string"
        },
        {
          "indexed": false,
          "internalType": "uint256",
          "name": "timestamp",
          "type": "uint256"
        }
      ],
      "name": "JoinRequestSubmitted",
      "type": "event"
    },
    {
      "anonymous": false,
      "inputs": [
        {
          "indexed": true,
          "internalType": "address",
          "name": "participant",
          "type": "address"
        },
        {
          "indexed": false,
          "internalType": "string",
          "name": "role",
          "type": "string"
        },
        {
          "indexed": false,
          "internalType": "uint256",
          "name": "weight",
          "type": "uint256"
        }
      ],
      "name": "ParticipantAutoAdded",
      "type": "event"
    },
    {
      "anonymous": false,
      "inputs": [
        {
          "indexed": true,
          "internalType": "address",
          "name": "participant",
          "type": "address"
        },
        {
          "indexed": false,
          "internalType": "string",
          "name": "role",
          "type": "string"
        },
        {
          "indexed": false,
          "internalType": "uint256",
          "name": "weight",
          "type": "uint256"
        }
      ],
      "name": "ParticipantUpdated",
      "type": "event"
    },
    {
      "anonymous": false,
      "inputs": [
        {
          "indexed": true,
          "internalType": "address",
          "name": "creator",
          "type": "address"
        },
        {
          "indexed": false,
          "internalType": "uint256",
          "name": "timestamp",
          "type": "uint256"
        }
      ],
      "name": "ProjectCreated",
      "type": "event"
    },
    {
      "anonymous": false,
      "inputs": [
        {
          "indexed": true,
          "internalType": "address",
          "name": "creator",
          "type": "address"
        },
        {
          "indexed": false,
          "internalType": "uint256",
          "name": "timestamp",
          "type": "uint256"
        }
      ],
      "name": "ProjectDeactivated",
      "type": "event"
    },
    {
      "anonymous": false,
      "inputs": [
        {
          "indexed": true,
          "internalType": "address",
          "name": "trigger",
          "type": "address"
        },
        {
          "indexed": false,
          "internalType": "string",
          "name": "reason",
          "type": "string"
        },
        {
          "indexed": false,
          "internalType": "uint256",
          "name": "currentRound",
          "type": "uint256"
        },
        {
          "indexed": false,
          "internalType": "uint256",
          "name": "timestamp",
          "type": "uint256"
        }
      ],
      "name": "ProjectEndTriggered",
      "type": "event"
    },
    {
      "anonymous": false,
      "inputs": [
        {
          "indexed": true,
          "internalType": "address",
          "name": "creator",
          "type": "address"
        },
        {
          "indexed": false,
          "internalType": "uint256",
          "name": "timestamp",
          "type": "uint256"
        }
      ],
      "name": "ProjectReactivated",
      "type": "event"
    },
    {
      "anonymous": false,
      "inputs": [
        {
          "indexed": true,
          "internalType": "address",
          "name": "updater",
          "type": "address"
        },
        {
          "indexed": false,
          "internalType": "uint256",
          "name": "timestamp",
          "type": "uint256"
        }
      ],
      "name": "ProjectUpdated",
      "type": "event"
    },
    {
      "anonymous": false,
      "inputs": [
        {
          "indexed": false,
          "internalType": "uint256",
          "name": "newRound",
          "type": "uint256"
        }
      ],
      "name": "RoundIncremented",
      "type": "event"
    },
    {
      "anonymous": false,
      "inputs": [
        {
          "indexed": false,
          "internalType": "string",
          "name": "sampleId",
          "type": "string"
        },
        {
          "indexed": false,
          "internalType": "address",
          "name": "voter",
          "type": "address"
        },
        {
          "indexed": false,
          "internalType": "string",
          "name": "label",
          "type": "string"
        },
        {
          "indexed": false,
          "internalType": "uint256",
          "name": "timestamp",
          "type": "uint256"
        }
      ],
      "name": "VoteSubmitted",
      "type": "event"
    },
    {
      "anonymous": false,
      "inputs": [
        {
          "indexed": false,
          "internalType": "uint256",
          "name": "round",
          "type": "uint256"
        },
        {
          "indexed": false,
          "internalType": "uint256",
          "name": "voterCount",
          "type": "uint256"
        },
        {
          "indexed": false,
          "internalType": "uint256",
          "name": "timestamp",
          "type": "uint256"
        }
      ],
      "name": "VotersUpdated",
      "type": "event"
    },
    {
      "anonymous": false,
      "inputs": [
        {
          "indexed": false,
          "internalType": "string",
          "name": "sampleId",
          "type": "string"
        },
        {
          "indexed": false,
          "internalType": "string",
          "name": "finalLabel",
          "type": "string"
        },
        {
          "indexed": false,
          "internalType": "uint256",
          "name": "round",
          "type": "uint256"
        },
        {
          "indexed": false,
          "internalType": "uint256",
          "name": "timestamp",
          "type": "uint256"
        }
      ],
      "name": "VotingSessionEnded",
      "type": "event"
    },
    {
      "anonymous": false,
      "inputs": [
        {
          "indexed": false,
          "internalType": "string",
          "name": "sampleId",
          "type": "string"
        },
        {
          "indexed": false,
          "internalType": "uint256",
          "name": "round",
          "type": "uint256"
        },
        {
          "indexed": false,
          "internalType": "uint256",
          "name": "timeout",
          "type": "uint256"
        },
        {
          "indexed": false,
          "internalType": "uint256",
          "name": "timestamp",
          "type": "uint256"
        }
      ],
      "name": "VotingSessionStarted",
      "type": "event"
    },
    {
      "inputs": [
        {
          "internalType": "address",
          "name": "_participant",
          "type": "address"
        }
      ],
      "name": "addParticipant",
      "outputs": [],
      "stateMutability": "nonpayable",
      "type": "function"
    },
    {
      "inputs": [
        {
          "internalType": "address",
          "name": "_participant",
          "type": "address"
        },
        {
          "internalType": "string",
          "name": "_role",
          "type": "string"
        },
        {
          "internalType": "uint256",
          "name": "_weight",
          "type": "uint256"
        }
      ],
      "name": "addParticipantWithRole",
      "outputs": [],
      "stateMutability": "nonpayable",
      "type": "function"
    },
    {
      "inputs": [],
      "name": "alScenario",
      "outputs": [
        {
          "internalType": "string",
          "name": "",
          "type": "string"
        }
      ],
      "stateMutability": "view",
      "type": "function"
    },
    {
      "inputs": [
        {
          "internalType": "address",
          "name": "_requester",
          "type": "address"
        }
      ],
      "name": "approveJoinRequest",
      "outputs": [],
      "stateMutability": "nonpayable",
      "type": "function"
    },
    {
      "inputs": [],
      "name": "createdAt",
      "outputs": [
        {
          "internalType": "uint256",
          "name": "",
          "type": "uint256"
        }
      ],
      "stateMutability": "view",
      "type": "function"
    },
    {
      "inputs": [],
      "name": "creator",
      "outputs": [
        {
          "internalType": "address",
          "name": "",
          "type": "address"
        }
      ],
      "stateMutability": "view",
      "type": "function"
    },
    {
      "inputs": [],
      "name": "currentRound",
      "outputs": [
        {
          "internalType": "uint256",
          "name": "",
          "type": "uint256"
        }
      ],
      "stateMutability": "view",
      "type": "function"
    },
    {
      "inputs": [],
      "name": "deactivateProject",
      "outputs": [],
      "stateMutability": "nonpayable",
      "type": "function"
    },
    {
      "inputs": [],
      "name": "description",
      "outputs": [
        {
          "internalType": "string",
          "name": "",
          "type": "string"
        }
      ],
      "stateMutability": "view",
      "type": "function"
    },
    {
      "inputs": [
        {
          "internalType": "uint256",
          "name": "round",
          "type": "uint256"
        }
      ],
      "name": "endBatchVoting",
      "outputs": [],
      "stateMutability": "nonpayable",
      "type": "function"
    },
    {
      "inputs": [],
      "name": "endTime",
      "outputs": [
        {
          "internalType": "uint256",
          "name": "",
          "type": "uint256"
        }
      ],
      "stateMutability": "view",
      "type": "function"
    },
    {
      "inputs": [],
      "name": "getALConfiguration",
      "outputs": [
        {
          "internalType": "string",
          "name": "_queryStrategy",
          "type": "string"
        },
        {
          "internalType": "string",
          "name": "_alScenario",
          "type": "string"
        },
        {
          "internalType": "uint256",
          "name": "_maxIteration",
          "type": "uint256"
        },
        {
          "internalType": "uint256",
          "name": "_currentRound",
          "type": "uint256"
        },
        {
          "internalType": "uint256",
          "name": "_queryBatchSize",
          "type": "uint256"
        },
        {
          "internalType": "uint256",
          "name": "_votingTimeout",
          "type": "uint256"
        },
        {
          "internalType": "string[]",
          "name": "_labelSpace",
          "type": "string[]"
        }
      ],
      "stateMutability": "view",
      "type": "function"
    },
    {
      "inputs": [],
      "name": "getAllParticipants",
      "outputs": [
        {
          "internalType": "address[]",
          "name": "participantAddresses",
          "type": "address[]"
        },
        {
          "internalType": "string[]",
          "name": "roles",
          "type": "string[]"
        },
        {
          "internalType": "uint256[]",
          "name": "weights",
          "type": "uint256[]"
        },
        {
          "internalType": "uint256[]",
          "name": "joinTimestamps",
          "type": "uint256[]"
        }
      ],
      "stateMutability": "view",
      "type": "function"
    },
    {
      "inputs": [],
      "name": "getCreator",
      "outputs": [
        {
          "internalType": "address",
          "name": "",
          "type": "address"
        }
      ],
      "stateMutability": "view",
      "type": "function"
    },
    {
      "inputs": [],
      "name": "getCurrentBatchSampleIds",
      "outputs": [
        {
          "internalType": "string[]",
          "name": "",
          "type": "string[]"
        }
      ],
      "stateMutability": "view",
      "type": "function"
    },
    {
      "inputs": [],
      "name": "getFinalROCrateHash",
      "outputs": [
        {
          "internalType": "string",
          "name": "",
          "type": "string"
        }
      ],
      "stateMutability": "view",
      "type": "function"
    },
    {
      "inputs": [],
      "name": "getIsActive",
      "outputs": [
        {
          "internalType": "bool",
          "name": "",
          "type": "bool"
        }
      ],
      "stateMutability": "view",
      "type": "function"
    },
    {
      "inputs": [
        {
          "internalType": "address",
          "name": "_requester",
          "type": "address"
        }
      ],
      "name": "getJoinRequest",
      "outputs": [
        {
          "internalType": "address",
          "name": "requester",
          "type": "address"
        },
        {
          "internalType": "string",
          "name": "role",
          "type": "string"
        },
        {
          "internalType": "uint256",
          "name": "timestamp",
          "type": "uint256"
        },
        {
          "internalType": "bool",
          "name": "exists",
          "type": "bool"
        }
      ],
      "stateMutability": "view",
      "type": "function"
    },
    {
      "inputs": [],
      "name": "getProjectData",
      "outputs": [
        {
          "internalType": "string",
          "name": "",
          "type": "string"
        }
      ],
      "stateMutability": "view",
      "type": "function"
    },
    {
      "inputs": [],
      "name": "getProjectMetadata",
      "outputs": [
        {
          "internalType": "string",
          "name": "_title",
          "type": "string"
        },
        {
          "internalType": "string",
          "name": "_description",
          "type": "string"
        },
        {
          "internalType": "address",
          "name": "_owner",
          "type": "address"
        },
        {
          "internalType": "string",
          "name": "_projectType",
          "type": "string"
        },
        {
          "internalType": "string",
          "name": "_rocrateHash",
          "type": "string"
        },
        {
          "internalType": "uint256",
          "name": "_start",
          "type": "uint256"
        },
        {
          "internalType": "uint256",
          "name": "_end",
          "type": "uint256"
        },
        {
          "internalType": "string",
          "name": "_queryStrategy",
          "type": "string"
        },
        {
          "internalType": "string",
          "name": "_alScenario",
          "type": "string"
        },
        {
          "internalType": "uint256",
          "name": "_maxIteration",
          "type": "uint256"
        },
        {
          "internalType": "uint256",
          "name": "_queryBatchSize",
          "type": "uint256"
        },
        {
          "internalType": "string[]",
          "name": "_labelSpace",
          "type": "string[]"
        }
      ],
      "stateMutability": "view",
      "type": "function"
    },
    {
      "inputs": [],
      "name": "getProjectStatus",
      "outputs": [
        {
          "internalType": "bool",
          "name": "active",
          "type": "bool"
        },
        {
          "internalType": "uint256",
          "name": "created",
          "type": "uint256"
        },
        {
          "internalType": "uint256",
          "name": "modified",
          "type": "uint256"
        },
        {
          "internalType": "address",
          "name": "projectCreator",
          "type": "address"
        }
      ],
      "stateMutability": "view",
      "type": "function"
    },
    {
      "inputs": [],
      "name": "getTimestamps",
      "outputs": [
        {
          "internalType": "uint256",
          "name": "created",
          "type": "uint256"
        },
        {
          "internalType": "uint256",
          "name": "modified",
          "type": "uint256"
        }
      ],
      "stateMutability": "view",
      "type": "function"
    },
    {
      "inputs": [],
      "name": "hasALContracts",
      "outputs": [
        {
          "internalType": "bool",
          "name": "",
          "type": "bool"
        }
      ],
      "stateMutability": "view",
      "type": "function"
    },
    {
      "inputs": [],
      "name": "incrementRound",
      "outputs": [],
      "stateMutability": "nonpayable",
      "type": "function"
    },
    {
      "inputs": [
        {
          "internalType": "address",
          "name": "",
          "type": "address"
        }
      ],
      "name": "invitations",
      "outputs": [
        {
          "internalType": "address",
          "name": "invitee",
          "type": "address"
        },
        {
          "internalType": "string",
          "name": "role",
          "type": "string"
        },
        {
          "internalType": "uint256",
          "name": "timestamp",
          "type": "uint256"
        },
        {
          "internalType": "bool",
          "name": "exists",
          "type": "bool"
        }
      ],
      "stateMutability": "view",
      "type": "function"
    },
    {
      "inputs": [
        {
          "internalType": "uint256",
          "name": "",
          "type": "uint256"
        }
      ],
      "name": "invitees",
      "outputs": [
        {
          "internalType": "address",
          "name": "",
          "type": "address"
        }
      ],
      "stateMutability": "view",
      "type": "function"
    },
    {
      "inputs": [],
      "name": "isActive",
      "outputs": [
        {
          "internalType": "bool",
          "name": "",
          "type": "bool"
        }
      ],
      "stateMutability": "view",
      "type": "function"
    },
    {
      "inputs": [
        {
          "internalType": "string",
          "name": "sampleId",
          "type": "string"
        }
      ],
      "name": "isSampleActive",
      "outputs": [
        {
          "internalType": "bool",
          "name": "",
          "type": "bool"
        }
      ],
      "stateMutability": "view",
      "type": "function"
    },
    {
      "inputs": [
        {
          "internalType": "address",
          "name": "",
          "type": "address"
        }
      ],
      "name": "joinRequests",
      "outputs": [
        {
          "internalType": "address",
          "name": "requester",
          "type": "address"
        },
        {
          "internalType": "string",
          "name": "role",
          "type": "string"
        },
        {
          "internalType": "uint256",
          "name": "timestamp",
          "type": "uint256"
        },
        {
          "internalType": "bool",
          "name": "exists",
          "type": "bool"
        }
      ],
      "stateMutability": "view",
      "type": "function"
    },
    {
      "inputs": [
        {
          "internalType": "address",
          "name": "",
          "type": "address"
        }
      ],
      "name": "joinedAt",
      "outputs": [
        {
          "internalType": "uint256",
          "name": "",
          "type": "uint256"
        }
      ],
      "stateMutability": "view",
      "type": "function"
    },
    {
      "inputs": [
        {
          "internalType": "uint256",
          "name": "",
          "type": "uint256"
        }
      ],
      "name": "labelSpace",
      "outputs": [
        {
          "internalType": "string",
          "name": "",
          "type": "string"
        }
      ],
      "stateMutability": "view",
      "type": "function"
    },
    {
      "inputs": [],
      "name": "lastModified",
      "outputs": [
        {
          "internalType": "uint256",
          "name": "",
          "type": "uint256"
        }
      ],
      "stateMutability": "view",
      "type": "function"
    },
    {
      "inputs": [
        {
          "internalType": "address",
          "name": "_voting",
          "type": "address"
        },
        {
          "internalType": "address",
          "name": "_storage",
          "type": "address"
        }
      ],
      "name": "linkALContracts",
      "outputs": [],
      "stateMutability": "nonpayable",
      "type": "function"
    },
    {
      "inputs": [],
      "name": "maxIteration",
      "outputs": [
        {
          "internalType": "uint256",
          "name": "",
          "type": "uint256"
        }
      ],
      "stateMutability": "view",
      "type": "function"
    },
    {
      "inputs": [],
      "name": "needsALDeployment",
      "outputs": [
        {
          "internalType": "bool",
          "name": "",
          "type": "bool"
        }
      ],
      "stateMutability": "view",
      "type": "function"
    },
    {
      "inputs": [],
      "name": "notifyUnlabeledSamplesExhausted",
      "outputs": [],
      "stateMutability": "nonpayable",
      "type": "function"
    },
    {
      "inputs": [
        {
          "internalType": "string",
          "name": "sampleId",
          "type": "string"
        },
        {
          "internalType": "string",
          "name": "finalLabel",
          "type": "string"
        }
      ],
      "name": "notifyVotingSessionEnded",
      "outputs": [],
      "stateMutability": "nonpayable",
      "type": "function"
    },
    {
      "inputs": [
        {
          "internalType": "string",
          "name": "sampleId",
          "type": "string"
        }
      ],
      "name": "notifyVotingSessionStarted",
      "outputs": [],
      "stateMutability": "nonpayable",
      "type": "function"
    },
    {
      "inputs": [
        {
          "internalType": "address",
          "name": "",
          "type": "address"
        }
      ],
      "name": "participantRoles",
      "outputs": [
        {
          "internalType": "string",
          "name": "",
          "type": "string"
        }
      ],
      "stateMutability": "view",
      "type": "function"
    },
    {
      "inputs": [
        {
          "internalType": "address",
          "name": "",
          "type": "address"
        }
      ],
      "name": "participantWeights",
      "outputs": [
        {
          "internalType": "uint256",
          "name": "",
          "type": "uint256"
        }
      ],
      "stateMutability": "view",
      "type": "function"
    },
    {
      "inputs": [
        {
          "internalType": "uint256",
          "name": "",
          "type": "uint256"
        }
      ],
      "name": "participants",
      "outputs": [
        {
          "internalType": "address",
          "name": "",
          "type": "address"
        }
      ],
      "stateMutability": "view",
      "type": "function"
    },
    {
      "inputs": [],
      "name": "projectData",
      "outputs": [
        {
          "internalType": "string",
          "name": "",
          "type": "string"
        }
      ],
      "stateMutability": "view",
      "type": "function"
    },
    {
      "inputs": [],
      "name": "projectType",
      "outputs": [
        {
          "internalType": "string",
          "name": "",
          "type": "string"
        }
      ],
      "stateMutability": "view",
      "type": "function"
    },
    {
      "inputs": [],
      "name": "queryBatchSize",
      "outputs": [
        {
          "internalType": "uint256",
          "name": "",
          "type": "uint256"
        }
      ],
      "stateMutability": "view",
      "type": "function"
    },
    {
      "inputs": [],
      "name": "queryStrategy",
      "outputs": [
        {
          "internalType": "string",
          "name": "",
          "type": "string"
        }
      ],
      "stateMutability": "view",
      "type": "function"
    },
    {
      "inputs": [],
      "name": "reactivateProject",
      "outputs": [],
      "stateMutability": "nonpayable",
      "type": "function"
    },
    {
      "inputs": [
        {
          "internalType": "string",
          "name": "sampleId",
          "type": "string"
        },
        {
          "internalType": "string",
          "name": "label",
          "type": "string"
        }
      ],
      "name": "receiveFinalLabelFromVoting",
      "outputs": [],
      "stateMutability": "nonpayable",
      "type": "function"
    },
    {
      "inputs": [
        {
          "internalType": "address",
          "name": "_requester",
          "type": "address"
        }
      ],
      "name": "rejectJoinRequest",
      "outputs": [],
      "stateMutability": "nonpayable",
      "type": "function"
    },
    {
      "inputs": [
        {
          "internalType": "uint256",
          "name": "",
          "type": "uint256"
        }
      ],
      "name": "requesters",
      "outputs": [
        {
          "internalType": "address",
          "name": "",
          "type": "address"
        }
      ],
      "stateMutability": "view",
      "type": "function"
    },
    {
      "inputs": [],
      "name": "rocrateHash",
      "outputs": [
        {
          "internalType": "string",
          "name": "",
          "type": "string"
        }
      ],
      "stateMutability": "view",
      "type": "function"
    },
    {
      "inputs": [],
      "name": "rocrateHashFinal",
      "outputs": [
        {
          "internalType": "string",
          "name": "",
          "type": "string"
        }
      ],
      "stateMutability": "view",
      "type": "function"
    },
    {
      "inputs": [
        {
          "internalType": "string",
          "name": "_queryStrategy",
          "type": "string"
        },
        {
          "internalType": "string",
          "name": "_alScenario",
          "type": "string"
        },
        {
          "internalType": "uint256",
          "name": "_maxIteration",
          "type": "uint256"
        },
        {
          "internalType": "uint256",
          "name": "_queryBatchSize",
          "type": "uint256"
        },
        {
          "internalType": "string[]",
          "name": "_labelSpace",
          "type": "string[]"
        }
      ],
      "name": "setALMetadata",
      "outputs": [],
      "stateMutability": "nonpayable",
      "type": "function"
    },
    {
      "inputs": [
        {
          "internalType": "string",
          "name": "_rocrateHashFinal",
          "type": "string"
        }
      ],
      "name": "setFinalROCrateHash",
      "outputs": [],
      "stateMutability": "nonpayable",
      "type": "function"
    },
    {
      "inputs": [
        {
          "internalType": "string",
          "name": "_title",
          "type": "string"
        },
        {
          "internalType": "string",
          "name": "_description",
          "type": "string"
        },
        {
          "internalType": "string",
          "name": "_projectType",
          "type": "string"
        },
        {
          "internalType": "string",
          "name": "_rocrateHash",
          "type": "string"
        }
      ],
      "name": "setProjectMetadata",
      "outputs": [],
      "stateMutability": "nonpayable",
      "type": "function"
    },
    {
      "inputs": [
        {
          "internalType": "uint256",
          "name": "_start",
          "type": "uint256"
        },
        {
          "internalType": "uint256",
          "name": "_end",
          "type": "uint256"
        }
      ],
      "name": "setStartAndEndTime",
      "outputs": [],
      "stateMutability": "nonpayable",
      "type": "function"
    },
    {
      "inputs": [],
      "name": "shouldProjectEnd",
      "outputs": [
        {
          "internalType": "bool",
          "name": "shouldEnd",
          "type": "bool"
        },
        {
          "internalType": "string",
          "name": "reason",
          "type": "string"
        }
      ],
      "stateMutability": "view",
      "type": "function"
    },
    {
      "inputs": [
        {
          "internalType": "string[]",
          "name": "sampleIds",
          "type": "string[]"
        }
      ],
      "name": "startBatchVoting",
      "outputs": [],
      "stateMutability": "nonpayable",
      "type": "function"
    },
    {
      "inputs": [],
      "name": "startTime",
      "outputs": [
        {
          "internalType": "uint256",
          "name": "",
          "type": "uint256"
        }
      ],
      "stateMutability": "view",
      "type": "function"
    },
    {
      "inputs": [],
      "name": "storageContract",
      "outputs": [
        {
          "internalType": "address",
          "name": "",
          "type": "address"
        }
      ],
      "stateMutability": "view",
      "type": "function"
    },
    {
      "inputs": [
        {
          "internalType": "string",
          "name": "sampleId",
          "type": "string"
        },
        {
          "internalType": "string",
          "name": "label",
          "type": "string"
        },
        {
          "internalType": "uint256",
          "name": "round",
          "type": "uint256"
        }
      ],
      "name": "storeFinalLabel",
      "outputs": [],
      "stateMutability": "nonpayable",
      "type": "function"
    },
    {
      "inputs": [
        {
          "internalType": "string[]",
          "name": "sampleIds",
          "type": "string[]"
        },
        {
          "internalType": "string[]",
          "name": "labels",
          "type": "string[]"
        }
      ],
      "name": "submitBatchVote",
      "outputs": [],
      "stateMutability": "nonpayable",
      "type": "function"
    },
    {
      "inputs": [
        {
          "internalType": "string",
          "name": "_role",
          "type": "string"
        }
      ],
      "name": "submitJoinRequest",
      "outputs": [],
      "stateMutability": "nonpayable",
      "type": "function"
    },
    {
      "inputs": [],
      "name": "title",
      "outputs": [
        {
          "internalType": "string",
          "name": "",
          "type": "string"
        }
      ],
      "stateMutability": "view",
      "type": "function"
    },
    {
      "inputs": [
        {
          "internalType": "string",
          "name": "reason",
          "type": "string"
        }
      ],
      "name": "triggerNextRound",
      "outputs": [],
      "stateMutability": "nonpayable",
      "type": "function"
    },
    {
      "inputs": [],
      "name": "unlabeledSamplesExhausted",
      "outputs": [
        {
          "internalType": "bool",
          "name": "",
          "type": "bool"
        }
      ],
      "stateMutability": "view",
      "type": "function"
    },
    {
      "inputs": [
        {
          "internalType": "address",
          "name": "_participant",
          "type": "address"
        },
        {
          "internalType": "string",
          "name": "_role",
          "type": "string"
        },
        {
          "internalType": "uint256",
          "name": "_weight",
          "type": "uint256"
        }
      ],
      "name": "updateParticipant",
      "outputs": [],
      "stateMutability": "nonpayable",
      "type": "function"
    },
    {
      "inputs": [
        {
          "internalType": "string",
          "name": "_newProjectData",
          "type": "string"
        }
      ],
      "name": "updateProjectData",
      "outputs": [],
      "stateMutability": "nonpayable",
      "type": "function"
    },
    {
      "inputs": [
        {
          "internalType": "string",
          "name": "_rocrateHash",
          "type": "string"
        }
      ],
      "name": "updateROCrateHash",
      "outputs": [],
      "stateMutability": "nonpayable",
      "type": "function"
    },
    {
      "inputs": [],
      "name": "votingContract",
      "outputs": [
        {
          "internalType": "address",
          "name": "",
          "type": "address"
        }
      ],
      "stateMutability": "view",
      "type": "function"
    },
    {
      "inputs": [],
      "name": "votingTimeout",
      "outputs": [
        {
          "internalType": "uint256",
          "name": "",
          "type": "uint256"
        }
      ],
      "stateMutability": "view",
      "type": "function"
    }
  ],
  "bytecode": "0x6080604052346103cb57614ddb80380380610019816103d0565b9283398101906040818303126103cb5780516001600160a01b03811691908290036103cb576020810151906001600160401b0382116103cb570182601f820112156103cb578051906001600160401b0382116102a457610082601f8301601f19166020016103d0565b93828552602083830101116103cb5760005b8281106103b6575050602060009184010152610e1060105560ff19601e5416601e5581511561038457600080546001600160a01b0319168217905581516001600160401b0381116102a4576100ea6003546103f5565b601f811161032a575b50602092601f82116001146102c557928192936000926102ba575b50508160011b916000199060031b1c1916176003555b4260018190556002556000805460ff60a01b1916600160a01b179055601954680100000000000000008110156102a457600181018060195581101561028e577f944998273e477b495144fb8794c914197f3ccb46be2900f4698fd0ef743c96950180546001600160a01b031916821790556000818152601a6020526040902080546101ae906103f5565b601f811161026c575b50600e6631b932b0ba37b960c91b01905580600052601b602052600160406000205580600052601c60205242604060002055807f20bfd29f3d906f96fc35742fac45a554b19cbd4e21f8c4c1d84cb58fdfc32c896020604051428152a27fbceee304ac8d461cb65ac9f6dc37bbcb2c2c34c155224ffbfdc4752b89008f73608060405160408152600760408201526631b932b0ba37b960c91b606082015260016020820152a260405161499490816104478239f35b6102889082600052601f6020600020910160051c81019061042f565b386101b7565b634e487b7160e01b600052603260045260246000fd5b634e487b7160e01b600052604160045260246000fd5b01519050388061010e565b601f198216936003600052806000209160005b86811061031257508360019596106102f9575b505050811b01600355610124565b015160001960f88460031b161c191690553880806102eb565b919260206001819286850151815501940192016102d8565b6003600052610374907fc2575a0e9e593c00f959f8c92f12db2869c3395a3b0502d05e2516446f71f85b601f840160051c8101916020851061037a575b601f0160051c019061042f565b386100f3565b9091508190610367565b60405162461bcd60e51b815260206004820152600a602482015269456d707479206461746160b01b6044820152606490fd5b80602080928401015182828801015201610094565b600080fd5b6040519190601f01601f191682016001600160401b038111838210176102a457604052565b90600182811c92168015610425575b602083101461040f57565b634e487b7160e01b600052602260045260246000fd5b91607f1691610404565b81811061043a575050565b6000815560010161042f56fe608080604052600436101561001357600080fd5b600090813560e01c90816302d05d3f146131fa57508063040023d6146131435780630ee2cb101461311c57806310218f4d14612f8e57806311ce026714612f655780631633e06214612b10578063195ec9ee146129ee57806319b21227146129695780631af9fd1714612801578063211a85e61461246257806322f3e2d41461243d57806329f5e65a146122435780632bc5c48014611e815780633197cbb614611e6357806335c1d34914611e1f578063383e1a5e14611d8557806343862d2314611d61578063461e198b14611c775780634a79d50c14611c535780634d320b9814611b6857806355b31b55146113fa57806358f43f7614611b1857806359abbfe414611af35780635e1a6c1714611a865780636ac4e50e14611a065780636c86d124146119e35780637284e416146119bf57806377c39c21146119a15780637847f1de146117de57806378e97925146117c057806379ec4f19146117485780637a83a44b146117235780637c13f6cf146116eb5780637f52cadc146116c757806380a8c8491461162957806384958fc31461143c5780638a19c8bc1461141e5780639c0768b3146113fa578063a0740184146113d6578063a6ea915b14611314578063ab34c9e9146112db578063b06110681461120e578063b0942ce5146111f0578063b2be4d6514611074578063b568647914610fdd578063b70825dc14610f5c578063b8c3903414610e94578063b9be92f914610d96578063bbffd04c14610c8a578063be27151a14610b12578063c1fc006a14610ae9578063c2e4fe5a14610aa3578063c2fc0d2614610a7f578063c3a4b41a14610a39578063c3feda171461098b578063c47d1724146108f6578063c4b192f714610837578063cf09e0d014610819578063d2291e111461078a578063d64c58a714610751578063dfafe10f146106e9578063dfb748aa14610622578063e0308323146105c0578063e1d5a2c814610510578063e7aa3afc146104cc578063e807c0b2146103fb578063ef21310614610386578063f1bc33b414610368578063f7267cfd1461034a5763fba7cc791461032357600080fd5b3461034757806003193601126103475760ff6020915460a01c166040519015158152f35b80fd5b50346103475780600319360112610347576020600254604051908152f35b50346103475780600319360112610347576020601054604051908152f35b5034610347576020366003190112610347576040906001600160a01b036103ab61321e565b16815260136020522060018060a01b038154166103f7604051926103dd846103d68160018501613941565b038561326a565b60ff60036002830154920154169060405194859485613581565b0390f35b503461034757806003193601126103475760405190806008549061041e826135b4565b80855291600181169081156104a5575060011461045a575b6103f7846104468186038261326a565b60405191829160208352602083019061341e565b6008815260008051602061487f833981519152939250905b80821061048b5750909150810160200161044682610436565b919260018160209254838588010152019101909291610472565b60ff191660208087019190915292151560051b850190920192506104469150839050610436565b503461034757806003193601126103475760809054600154906002546040519260ff8360a01c16151584526020840152604083015260018060a01b03166060820152f35b50346103475780600319360112610347576017546001600160a01b0316330361058d578060405161054260208261326a565b52601d54600181018091116105795760208160008051602061489f83398151915292601d55604051908152a16105766143bb565b80f35b634e487b7160e01b82526011600452602482fd5b60405162461bcd60e51b815260206004820152600b60248201526a4f6e6c7920766f74696e6760a81b6044820152606490fd5b503461034757602036600319011261034757600435906001600160401b03821161034757602060ff61060c826105f9366004880161328d565b81604051938285809451938492016133fb565b8101601281520301902054166040519015158152f35b50346103475760203660031901126103475761063c61321e565b61065060018060a01b0383541633146139c4565b6106a561069960018060a01b03831692838552601360205261067b60ff600360408820015416614239565b83855260136020526106a06001604087200160405193848092613941565b038361326a565b614318565b80825260136020526106b960408320614272565b604051904282527f423eb00b6a18c3ecfc2170a0e40ef0bad995279070614ba2e4be1b94f67eb88860203393a380f35b50346103475760203660031901126103475761057661070661321e565b61071a60018060a01b0384541633146139c4565b6001600160a01b0381168352601a60205260408320546107439061073d906135b4565b156142d6565b61074b613cc4565b90614318565b5034610347576020366003190112610347576020906040906001600160a01b0361077961321e565b168152601b83522054604051908152f35b50346103475780600319360112610347576011546107a781613329565b916107b5604051938461326a565b818352601181526000805160206147ff833981519152602084015b8383106107ed57604051602080825281906103f790820188613443565b60016020819260405161080b816108048189613941565b038261326a565b8152019201920191906107d0565b50346103475780600319360112610347576020600154604051908152f35b5034610347576020366003190112610347576004356001600160401b0381116108f25761086890369060040161328d565b61087c60018060a01b0383541633146139c4565b8051156108ad5761088c90613a99565b426002556040514281526000805160206147df83398151915260203392a280f35b60405162461bcd60e51b815260206004820152601d60248201527f524f2d437261746520686173682063616e6e6f7420626520656d7074790000006044820152606490fd5b5080fd5b5034610347578060031936011261034757604051908060085490610919826135b4565b80855291600181169081156104a55750600114610940576103f7846104468186038261326a565b6008815260008051602061487f833981519152939250905b8082106109715750909150810160200161044682610436565b919260018160209254838588010152019101909291610958565b503461034757806003193601126103475780546109b2336001600160a01b038316146139c4565b60ff8160a01c16610a035760ff60a01b1916600160a01b17815542600281905560405190815233907fb351ba71ddc1d2bf39667cebde99fb92eb26b9f418d5049ba0200888ba81071590602090a280f35b60405162461bcd60e51b815260206004820152600e60248201526d416c72656164792061637469766560901b6044820152606490fd5b50346103475780600319360112610347576017546001600160a01b0316151580610a6b575b6020906040519015158152f35b506018546001600160a01b03161515610a5e565b50346103475780600319360112610347576103f76040516104468161080481613702565b5034610347576020366003190112610347576103f79061080490610446906040906001600160a01b03610ad461321e565b168152601a6020522060405192838092613941565b50346103475780600319360112610347576017546040516001600160a01b039091168152602090f35b5034610347576020366003190112610347576004356001600160401b0381116108f257610b43903690600401613340565b610b5760018060a01b0383541633146139c4565b6017546001600160a01b0316610b6e811515613c6a565b815115610c5057601d549060018201809211610c3c5790839181601d55610b936143bb565b803b15610c3857829182916040518094818094630e7dc0d160e41b825260406004830152610bc4604483018b613443565b90602483015203925af18015610c2d57610c18575b507f24c323b0138f1f608c855cccb8550ac649c15bf3cea39b8fdbde80d33258a74f82601d549051610c12604051928392429184613e55565b0390a180f35b81610c229161326a565b6108f2578138610bd9565b6040513d84823e3d90fd5b8280fd5b634e487b7160e01b84526011600452602484fd5b60405162461bcd60e51b815260206004820152601260248201527108adae0e8f240e6c2dae0d8ca40c4c2e8c6d60731b6044820152606490fd5b50346103475780600319360112610347578054610cb1336001600160a01b038316146139c4565b60ff8160a01c1615610d5e5760ff60a01b19168155426002556040514281527f17064d72ee4a5901e55dfa45024ea8f67cdb4895ba6364ab2f8e7223f642ad3660203392a2601d546040519060608252602560608301527f50726f6a656374206d616e75616c6c7920656e64656420627920636f6f7264696080830152643730ba37b960d91b60a0830152602082015242604082015260008051602061483f83398151915260c03392a280f35b60405162461bcd60e51b815260206004820152601060248201526f416c726561647920696e61637469766560801b6044820152606490fd5b503461034757610da5366132e3565b91610dba60018060a01b0385541633146139c4565b6001600160a01b0316808452601a6020526040842054909290610ddc906135b4565b15610e5b5781610e0f7fe8c250df70afa51c6916b9661d224a47fd9568cb0c1c9d0d49e2e45cc729a987935115156139ff565b610e1a821515614290565b838552601a602052610e2f8160408720613b88565b838552601b60205281604086205542600255610e5060405192839283613f3d565b0390a261057661449d565b60405162461bcd60e51b8152602060048201526011602482015270139bdd0818481c185c9d1a58da5c185b9d607a1b6044820152606490fd5b503461034757602036600319011261034757600435610ebd60018060a01b0383541633146139c4565b6017546001600160a01b0316610ed4811515613c6a565b601d548203610f27578291813b15610f23578291602483926040519485938492632e30e40d60e21b845260048401525af18015610c2d57610f125750f35b81610f1c9161326a565b6103475780f35b5050fd5b60405162461bcd60e51b815260206004820152600d60248201526c125b9d985b1a59081c9bdd5b99609a1b6044820152606490fd5b5034610347576020366003190112610347576004359060165482101561034757601654821015610fc957601681527fd833147d7dc355ba459fc788f669e58cfaf9dc25ddcd0702e87d69c7b51242899091015460405160039290921b1c6001600160a01b03168152602090f35b634e487b7160e01b81526032600452602490fd5b503461034757602036600319011261034757610ff761321e565b61100b60018060a01b0383541633146139c4565b6001600160a01b0316808252601360205260408220600301546110309060ff16614239565b808252601360205261104460408320614272565b604051904282527f1a69e67d1be897d0ca0cf1517b4d17e345b4272a80bc900f9fe8e96f261ca1db60203393a380f35b5034610347576020366003190112610347576004356001600160401b0381116108f2576110a590369060040161328d565b6110ba60018060a01b03601754163314613dd4565b604051815190602081818501936110d28183876133fb565b81016012815203019020600160ff19825416179055828391601154925b8381106111b0575b505015611144575b5061112d6000805160206147bf83398151915291601d5460105460405193849360808552608085019061341e565b91602084015260408301524260608301520390a180f35b600160401b81101561119c57806001611160920160115561354e565b61118857816111816000805160206147bf8339815191529361112d93613b88565b91506110ff565b634e487b7160e01b83526004839052602483fd5b634e487b7160e01b83526041600452602483fd5b6108046111cc6111bf8361354e565b5060405192838092613941565b6020815191012085518320146111e4576001016110ef565b505050600138806110f7565b50346103475780600319360112610347576020600d54604051908152f35b50346103475761121d366134d0565b9061123360018060a01b03601754163314613dd4565b60185483906001600160a01b031661124c8115156141c9565b601d5490803b15610c385760405163a6ea915b60e01b8152918391839182908490829061127e908b8b60048501614210565b03925af18015610c2d576112c6575b50507f503607074d0e95d8c0c6b1660c3441384010e05305da22aef0594eb3fcae623691610c12601d5492604051938493429285613e20565b816112d09161326a565b610c3857823861128d565b5034610347576020366003190112610347576020906040906001600160a01b0361130361321e565b168152601c83522054604051908152f35b503461034757606036600319011261034757806004356001600160401b0381116113d35761134690369060040161328d565b6024356001600160401b038111610f235761136590369060040161328d565b61137960018060a01b0384541633146139c4565b6018546001600160a01b0316916113918315156141c9565b823b156113d0576113bf9284928360405180968195829463a6ea915b60e01b84526044359160048501614210565b03925af18015610c2d57610f125750f35b50505b50fd5b50346103475780600319360112610347576103f760405161044681610804816137e8565b50346103475780600319360112610347576103f760405161044681610804816138ce565b50346103475780600319360112610347576020601d54604051908152f35b5034610347576020366003190112610347576004356001600160401b0381116108f25761146d90369060040161328d565b9061148260018060a01b0382541633146139c4565b8151156115d8578151916001600160401b0383116115c4576114a56008546135b4565b601f811161157d575b50602092601f811160011461151c578083946114d1939491611511575b50613a86565b6008555b426002557fad44b517dc31b3f923480dd93ac031881f73b79bbac3f58972598878941472446040518061150b3394429083613f3d565b0390a280f35b9050830151386114cb565b60088352838320601f19821694845b86811061156557508260019495961061154c575b5050811b016008556114d5565b84015160001960f88460031b161c19169055388061153f565b9091602060018192858801518155019301910161152b565b600883526115b49060008051602061487f833981519152601f860160051c810191602087106115ba575b601f0160051c0190613a6f565b386114ae565b90915081906115a7565b634e487b7160e01b82526041600452602482fd5b60405162461bcd60e51b815260206004820152602360248201527f46696e616c20524f2d437261746520686173682063616e6e6f7420626520656d60448201526270747960e81b6064820152608490fd5b5034610347578060031936011261034757611697600d546103f7601d5491600e5492601054604051946116668661165f816137e8565b038761326a565b60405192611677846103d68161385b565b6116a5611682613d69565b94604051998a9960e08b5260e08b019061341e565b9089820360208b015261341e565b9460408801526060870152608086015260a085015283820360c0850152613443565b50346103475780600319360112610347576103f7604051610446816108048161385b565b50346103475780600319360112610347576117046140aa565b906103f76040519283921515835260406020840152604083019061341e565b5034610347578060031936011261034757602061173e613f59565b6040519015158152f35b5034610347576040366003190112610347576004356024359061177560018060a01b0384541633146139c4565b8181101561178657600955600a5580f35b60405162461bcd60e51b8152602060048201526012602482015271496e76616c69642074696d652072616e676560701b6044820152606490fd5b50346103475780600319360112610347576020600954604051908152f35b5034610347576020366003190112610347576004356001600160401b0381116108f25761180f90369060040161328d565b815461182060ff8260a01c16613a38565b6001600160a01b0316331461196657338252601360205260ff60036040842001541661193057611852815115156139ff565b60405161185e81613239565b33815260036020820191838352604081014281526118ad6060830194600186523388526013602052604088209360018060a01b0390511660018060a01b03198554161784555160018401613b88565b516002820155019051151560ff80198354169116179055601554600160401b81101561119c578060016118e592016015556015613569565b81549060031b9033821b9160018060a01b03901b19161790557fe4d6c018abd0178d4bce0856089ef1876318617b97a1d700bb98506598ab0afc6040518061150b3394429083613f3d565b60405162461bcd60e51b815260206004820152600e60248201526d526571756573742065786973747360901b6044820152606490fd5b60405162461bcd60e51b815260206004820152601360248201527221b932b0ba37b91031b0b73737ba103537b4b760691b6044820152606490fd5b50346103475780600319360112610347576020600e54604051908152f35b50346103475780600319360112610347576103f7604051610446816108048161367d565b5034610347578060031936011261034757602060ff601e54166040519015158152f35b503461034757602036600319011261034757600435600f548110156108f257600f54811015611a7257600f825260008051602061493f833981519152019080611a5e576040516103f790610446816108048187613941565b634e487b7160e01b81526004819052602490fd5b634e487b7160e01b82526032600452602482fd5b5034610347576020366003190112610347576004359060155482101561034757601554821015610fc957601581527f55f448fdea98c4d29eb340757ef0a66cd03dbb9538908a6a81d96026b71ec4759091015460405160039290921b1c6001600160a01b03168152602090f35b5034610347578060031936011261034757604060015460025482519182526020820152f35b5034610347576020366003190112610347576040906001600160a01b03611b3d61321e565b16815260146020522060018060a01b038154166103f7604051926103dd846103d68160018501613941565b503461034757604036600319011261034757611b8261321e565b6024356001600160a01b0381169190829003610c3857611bac60018060a01b0384541633146139c4565b6001600160a01b031680151580611c4a575b15611c115760175490611bda6001600160a01b03831615613ebb565b60185491611bf16001600160a01b03841615613ebb565b6001600160a01b031990811691909117601755161760185561088c61449d565b60405162461bcd60e51b8152602060048201526011602482015270496e76616c69642061646472657373657360781b6044820152606490fd5b50811515611bbe565b50346103475780600319360112610347576103f760405161044681610804816135ee565b5034610347576020366003190112610347576004356001600160401b0381116108f257611ca890369060040161328d565b8154611cce9060ff90611cc5336001600160a01b038316146139c4565b60a01c16613a38565b601d549060018201809211611d4d57817fbb4ba47257d82c025e976bcdc375cc2e26de94efd111bca20cbc9a330d297455611d3560209360008051602061489f83398151915295601d5542600255604051918291858352606087840152606083019061341e565b4260408301520390a1604051908152a16105766143bb565b634e487b7160e01b83526011600452602483fd5b50346103475780600319360112610347576103f76040516104468161080481613775565b5034610347576020366003190112610347576040906001600160a01b03611daa61321e565b16815260136020522060405190611dc082613239565b80546001600160a01b03168252604051916103f790611de6846103d68160018701613941565b83602082015260ff600360028501549485604085015201541615159081606082015260018060a01b039051169260405194859485613581565b50346103475760203660031901126103475760043590601954821015610347576020611e4a8361351d565b905460405160039290921b1c6001600160a01b03168152f35b50346103475780600319360112610347576020600a54604051908152f35b50346103475760a0366003190112610347576004356001600160401b0381116108f257611eb290369060040161328d565b6024356001600160401b038111610c3857611ed190369060040161328d565b60643590604435906084356001600160401b03811161223f57611ef8903690600401613340565b93611f0d60018060a01b0387541633146139c4565b82156122025783156121c8578051906001600160401b0382116121b457611f35600b546135b4565b601f8111612178575b50602090601f831160011461211357611f619291889183612053575b5050613a86565b600b555b8051906001600160401b0382116120ff57611f81600c546135b4565b601f81116120c3575b50602090601f831160011461205e57611fac9291879183612053575050613a86565b600c555b600d55600e55805190600160401b821161119c57600f5482600f5580831061201a575b50600f8352829060008051602061493f833981519152906020015b838310611ffd57844260025580f35b600160208261200e83945186613b88565b01920192019190611fee565b600f845260008051602061493f8339815191529081019083015b8181106120415750611fd3565b8061204d600192613e6b565b01612034565b015190503880611f5a565b600c87528187209190601f198416885b8181106120ab5750908460019594939210612092575b505050811b01600c55611fb0565b015160001960f88460031b161c19169055388080612084565b9293602060018192878601518155019501930161206e565b600c87526120f99060008051602061477f833981519152601f850160051c810191602086106115ba57601f0160051c0190613a6f565b38611f8a565b634e487b7160e01b86526041600452602486fd5b600b88528188209190601f198416895b8181106121605750908460019594939210612147575b505050811b01600b55611f65565b015160001960f88460031b161c19169055388080612139565b92936020600181928786015181550195019301612123565b600b88526121ae906000805160206148bf833981519152601f850160051c810191602086106115ba57601f0160051c0190613a6f565b38611f3e565b634e487b7160e01b87526041600452602487fd5b60405162461bcd60e51b8152602060048201526012602482015271496e76616c69642062617463682073697a6560701b6044820152606490fd5b60405162461bcd60e51b815260206004820152601560248201527424b73b30b634b21036b0bc1034ba32b930ba34b7b760591b6044820152606490fd5b8580fd5b5034610347576122c67f0a1e2f362ccc64de291011914f5087c611557a7331c80f2cdd2aacf89b9dc564612276366134d0565b61228b60018060a01b03601754163314613dd4565b60405160208184516122a081838589016133fb565b8101601281520301902060ff198154169055601d54938492604051938493429285613e20565b0390a1600190829183601154905b818110612373575081612369575b506122eb578280f35b7f72db402a1d505e0ee50fba411e34bd1f9a6e90ab67b824c438255e747a886b289161231e604051928392429184613e55565b0390a1601154816011558061233257808280f35b601182526000805160206147ff833981519152908101905b8181106123575750808280f35b80612363600192613e6b565b0161234a565b90501515386122e2565b9161237d8361354e565b50604051908790805490612390826135b4565b916001811690811561242557506001146123f2575b50506012815281900360200190205460ff16156123c85750600185925b016122d4565b919360001981146123de576001809101946123c2565b634e487b7160e01b86526011600452602486fd5b90915088526020882088905b82821061241157505081016020826123a5565b6001816020925484870152019101906123fe565b60ff19168552505080151502820190506020826123a5565b503461034757806003193601126103475760ff6020915460a01c166040519015158152f35b5034610347576080366003190112610347576004356001600160401b0381116108f25761249390369060040161328d565b906024356001600160401b0381116108f2576124b390369060040161328d565b916044356001600160401b038111610c38576124d390369060040161328d565b6064356001600160401b0381116127fd576124f290369060040161328d565b9161250760018060a01b0385541633146139c4565b8051906001600160401b0382116127e9576125236004546135b4565b601f81116127ad575b50602090601f83116001146127485761254e9291869183612053575050613a86565b6004555b83516001600160401b03811161269f5761256d6005546135b4565b601f8111612717575b50602094601f82116001146126b3578495829161259b94959692612053575050613a86565b6005555b8051906001600160401b03821161269f576125bb6006546135b4565b601f8111612663575b50602090601f83116001146125fa5791806125eb926125f395948792612053575050613a86565b600655613a99565b4260025580f35b600685528185209190601f198416865b81811061264b57509160019391856125f397969410612632575b505050811b01600655613a99565b015160001960f88460031b161c19169055388080612624565b9293602060018192878601518155019501930161260a565b60068552612699906000805160206148df833981519152601f850160051c810191602086106115ba57601f0160051c0190613a6f565b386125c4565b634e487b7160e01b84526041600452602484fd5b601f198216956005865280862091865b8881106126ff575083600195969798106126e6575b505050811b0160055561259f565b015160001960f88460031b161c191690553880806126d8565b919260206001819286850151815501940192016126c3565b612742906005865260208620601f840160051c810191602085106115ba57601f0160051c0190613a6f565b38612576565b600486528186209190601f198416875b818110612795575090846001959493921061277c575b505050811b01600455612552565b015160001960f88460031b161c1916905538808061276e565b92936020600181928786015181550195019301612758565b600486526127e3906000805160206148ff833981519152601f850160051c810191602086106115ba57601f0160051c0190613a6f565b3861252c565b634e487b7160e01b85526041600452602485fd5b8380fd5b5034610347578060031936011261034757600160a01b60019003905416600954600a5491600d54600e546040519384612839816135ee565b03612844908661326a565b60405195866128528161367d565b0361285d908861326a565b604051918261286b81613702565b03612876908461326a565b604051918261288481613775565b0361288f908461326a565b604051928361289d816137e8565b036128a8908561326a565b60405194856128b68161385b565b036128c1908761326a565b6128c9613d69565b986040519b8c9b6101808d526101808d016128e39161341e565b8c810360208e01526128f49161341e565b9060408c01528a810360608c015261290b9161341e565b89810360808b015261291c9161341e565b9160a089015260c088015286810360e08801526129389161341e565b85810361010087015261294a9161341e565b916101208501526101408401528281036101608401526103f791613443565b503461034757806003193601126103475761298e60018060a01b0382541633146139c4565b601e5460ff81166129ab5760ff1916600117601e556105766143bb565b60405162461bcd60e51b815260206004820152601b60248201527a105b1c9958591e481b585c9ad95908185cc8195e1a185d5cdd1959602a1b6044820152606490fd5b503461034757806003193601126103475760195490612a0c82613ced565b90612a1683613d1f565b612a1f84613ced565b93612a2981613ced565b92805b828110612a8157612a57866103f787612a738b612a658a6040519788976080895260808901906133be565b908782036020890152613443565b90858203604087015261349c565b90838203606085015261349c565b80612a8d60019261351d565b838060a01b0391549060031b1c1680612aa6838a613cb0565b52808452601a602052610804612ac56040862060405192838092613941565b612acf8388613cb0565b52612ada8287613cb0565b50808452601b6020526040842054612af2838b613cb0565b528352601c6020526040832054612b098288613cb0565b5201612a2c565b5034610347576040366003190112610347576004356001600160401b0381116108f257612b41903690600401613340565b6024356001600160401b038111610c3857612b60903690600401613340565b601754909190612b7a906001600160a01b03161515613c6a565b8051825103612f2c57805115612ef957825b8151811015612ca35760ff612bba6020612ba68486613cb0565b5181604051938285809451938492016133fb565b81016012815203019020541615612c5f57612bd58183613cb0565b515115612c2857612be68184613cb0565b515115612bf557600101612b8c565b60405162461bcd60e51b815260206004820152600b60248201526a115b5c1d1e481b1858995b60aa1b6044820152606490fd5b60405162461bcd60e51b815260206004820152600f60248201526e115b5c1d1e481cd85b5c1b19481251608a1b6044820152606490fd5b60405162461bcd60e51b815260206004820152601c60248201527b53616d706c65206e6f742061637469766520666f7220766f74696e6760201b6044820152606490fd5b509190338252601a602052612cbb60408320546135b4565b15612ee3575b338252601a602052612cd660408320546135b4565b15612ea2576017546040516320a7c73b60e11b81523360048201526001600160a01b039091169290602081602481875afa908115610c2d578291612e70575b5015612e1b57805b8451811015612d9d57807f55b5b37db3e79e0cf5fa16c3b213f5856ebaf6a6e58c56813245533b65587bbd612d7a612d5760019489613cb0565b51612d8e612d658589613cb0565b5160405193849360808552608085019061341e565b90336020850152838203604085015261341e565b4260608301520390a101612d1d565b50928391833b15610c3857612de993612dd784809460405197889586948593639a6e81ab60e01b8552606060048601526064850190613443565b83810360031901602485015290613443565b33604483015203925af18015612e0e57612e005780f35b612e099161326a565b388180f35b50604051903d90823e3d90fd5b60405162461bcd60e51b815260206004820152602760248201527f566f746572206e6f74207265676973746572656420696e20766f74696e6720636044820152661bdb9d1c9858dd60ca1b6064820152608490fd5b90506020813d602011612e9a575b81612e8b6020938361326a565b810103126108f2575138612d15565b3d9150612e7e565b60405162461bcd60e51b8152602060048201526019602482015278139bdd0818481c1c9bda9958dd081c185c9d1a58da5c185b9d603a1b6044820152606490fd5b612ef4612eee613cc4565b33614318565b612cc1565b60405162461bcd60e51b815260206004820152600b60248201526a08adae0e8f240c4c2e8c6d60ab1b6044820152606490fd5b60405162461bcd60e51b81526020600482015260116024820152704d69736d6174636865642061727261797360781b6044820152606490fd5b50346103475780600319360112610347576018546040516001600160a01b039091168152602090f35b5034610347576020366003190112610347576004356001600160401b0381116108f257612fbf90369060040161328d565b90612fda60ff8254611cc560018060a01b03821633146139c4565b8151156130ea5781516001600160401b0381116115c457612ffc6003546135b4565b601f81116130ae575b50602092601f821160011461304c57829382916130289492612053575050613a86565b600355426002556040514281526000805160206147df83398151915260203392a280f35b601f198216936003845280842091845b868110613096575083600195961061307d575b505050811b0160035561088c565b015160001960f88460031b161c1916905538808061306f565b9192602060018192868501518155019401920161305c565b600383526130e49060008051602061479f833981519152601f840160051c810191602085106115ba57601f0160051c0190613a6f565b38613005565b60405162461bcd60e51b815260206004820152600a602482015269456d707479206461746160b01b6044820152606490fd5b5034610347578060031936011261034757546040516001600160a01b039091168152602090f35b50346103475760008051602061491f833981519152613161366132e3565b9061317960018060a09695961b0386541633146139c4565b613185815115156139ff565b6131ba60018060a01b03851694858752601a6020526131aa61073d60408920546135b4565b6131b5841515614290565b613ef8565b838552601a6020526131cf8160408720613b88565b838552601b602052816040862055838552601c602052426040862055610e5060405192839283613f3d565b9050346108f257816003193601126108f25790546001600160a01b03168152602090f35b600435906001600160a01b038216820361323457565b600080fd5b608081019081106001600160401b0382111761325457604052565b634e487b7160e01b600052604160045260246000fd5b601f909101601f19168101906001600160401b0382119082101761325457604052565b81601f82011215613234578035906001600160401b03821161325457604051926132c1601f8401601f19166020018561326a565b8284526020838301011161323457816000926020809301838601378301015290565b906060600319830112613234576004356001600160a01b03811681036132345791602435906001600160401b038211613234576133229160040161328d565b9060443590565b6001600160401b0381116132545760051b60200190565b9080601f8301121561323457813561335781613329565b92613365604051948561326a565b81845260208085019260051b820101918383116132345760208201905b83821061339157505050505090565b81356001600160401b038111613234576020916133b38784809488010161328d565b815201910190613382565b906020808351928381520192019060005b8181106133dc5750505090565b82516001600160a01b03168452602093840193909201916001016133cf565b60005b83811061340e5750506000910152565b81810151838201526020016133fe565b90602091613437815180928185528580860191016133fb565b601f01601f1916010190565b9080602083519182815201916020808360051b8301019401926000915b83831061346f57505050505090565b909192939460208061348d600193601f19868203018752895161341e565b97019301930191939290613460565b906020808351928381520192019060005b8181106134ba5750505090565b82518452602093840193909201916001016134ad565b906040600319830112613234576004356001600160401b03811161323457826134fb9160040161328d565b91602435906001600160401b0382116132345761351a9160040161328d565b90565b60195481101561353857601960005260206000200190600090565b634e487b7160e01b600052603260045260246000fd5b60115481101561353857601160005260206000200190600090565b80548210156135385760005260206000200190600090565b929493906060926135a79160018060a01b0316855260806020860152608085019061341e565b9460408401521515910152565b90600182811c921680156135e4575b60208310146135ce57565b634e487b7160e01b600052602260045260246000fd5b91607f16916135c3565b600454600092916135fe826135b4565b80825291600181169081156136615750600114613619575050565b600460009081529293509091906000805160206148ff8339815191525b838310613647575060209250010190565b600181602092949394548385870101520191019190613636565b9050602093945060ff929192191683830152151560051b010190565b6005546000929161368d826135b4565b808252916001811690811561366157506001146136a8575050565b600560009081529293509091907f036b6384b5eca791c62761152d0c79bb0604c104a5fb6f4eb0703f3154bb3db05b8383106136e8575060209250010190565b6001816020929493945483858701015201910191906136d7565b60065460009291613712826135b4565b8082529160018116908115613661575060011461372d575050565b600660009081529293509091906000805160206148df8339815191525b83831061375b575060209250010190565b60018160209294939454838587010152019101919061374a565b60075460009291613785826135b4565b808252916001811690811561366157506001146137a0575050565b6007600090815292935090919060008051602061481f8339815191525b8383106137ce575060209250010190565b6001816020929493945483858701015201910191906137bd565b600b54600092916137f8826135b4565b80825291600181169081156136615750600114613813575050565b600b60009081529293509091906000805160206148bf8339815191525b838310613841575060209250010190565b600181602092949394548385870101520191019190613830565b600c546000929161386b826135b4565b80825291600181169081156136615750600114613886575050565b600c600090815292935090919060008051602061477f8339815191525b8383106138b4575060209250010190565b6001816020929493945483858701015201910191906138a3565b600354600092916138de826135b4565b808252916001811690811561366157506001146138f9575050565b6003600090815292935090919060008051602061479f8339815191525b838310613927575060209250010190565b600181602092949394548385870101520191019190613916565b60009291815491613951836135b4565b80835292600181169081156139a7575060011461396d57505050565b60009081526020812093945091925b83831061398d575060209250010190565b60018160209294939454838587010152019101919061397c565b915050602093945060ff929192191683830152151560051b010190565b156139cb57565b60405162461bcd60e51b815260206004820152600c60248201526b27b7363c9031b932b0ba37b960a11b6044820152606490fd5b15613a0657565b60405162461bcd60e51b815260206004820152600a602482015269456d70747920726f6c6560b01b6044820152606490fd5b15613a3f57565b60405162461bcd60e51b8152602060048201526008602482015267496e61637469766560c01b6044820152606490fd5b818110613a7a575050565b60008155600101613a6f565b8160011b916000199060031b1c19161790565b80519091906001600160401b03811161325457613ab76007546135b4565b601f8111613b4b575b50602092601f8211600114613ae957613ae492938291600092612053575050613a86565b600755565b601f198216936007600052806000209160005b868110613b335750836001959610613b1a575b505050811b01600755565b015160001960f88460031b161c19169055388080613b0f565b91926020600181928685015181550194019201613afc565b6007600052613b829060008051602061481f833981519152601f840160051c810191602085106115ba57601f0160051c0190613a6f565b38613ac0565b81519192916001600160401b03811161325457613ba582546135b4565b601f8111613c38575b506020601f8211600114613bd6578190613bd2939495600092612053575050613a86565b9055565b601f1982169083600052806000209160005b818110613c2057509583600195969710613c07575b505050811b019055565b015160001960f88460031b161c19169055388080613bfd565b9192602060018192868b015181550194019201613be8565b613c6490836000526020600020601f840160051c810191602085106115ba57601f0160051c0190613a6f565b38613bae565b15613c7157565b60405162461bcd60e51b8152602060048201526017602482015276159bdd1a5b99c818dbdb9d1c9858dd081b9bdd081cd95d604a1b6044820152606490fd5b80518210156135385760209160051b010190565b60405190613cd360408361326a565b600b82526a31b7b73a3934b13aba37b960a91b6020830152565b90613cf782613329565b613d04604051918261326a565b8281528092613d15601f1991613329565b0190602036910137565b90613d2982613329565b613d36604051918261326a565b8281528092613d47601f1991613329565b019060005b828110613d5857505050565b806060602080938501015201613d4c565b600f5490613d7682613329565b91613d84604051938461326a565b808352600f600090815260008051602061493f833981519152602085015b838310613daf5750505050565b600160208192604051613dc6816108048189613941565b815201920192019190613da2565b15613ddb57565b60405162461bcd60e51b815260206004820152601d60248201527f4f6e6c7920766f74696e6720636f6e74726163742063616e2063616c6c0000006044820152606490fd5b90606092613e3d613e4b929796959760808552608085019061341e565b90838203602085015261341e565b9460408201520152565b6040919493926060820195825260208201520152565b613e7581546135b4565b9081613e7f575050565b81601f60009311600114613e925750555b565b81835260208320613eae91601f0160051c810190600101613a6f565b8082528160208120915555565b15613ec257565b60405162461bcd60e51b815260206004820152600e60248201526d105b1c9958591e481b1a5b9ad95960921b6044820152606490fd5b601954600160401b81101561325457806001613f1992016019556019613569565b81546001600160a01b0393841660039290921b91821b9390911b1916919091179055565b929190613f5460209160408652604086019061341e565b930152565b6040516361d25a0d60e11b8152602081600481305afa90811561409e57600091614063575b5061405e5760405160065490600081613f96846135b4565b9182825260208201946001811690816000146140425750600114613ff4575b613fc19250038261326a565b519020600f6020604051613fd660408261326a565b828152016e6163746976655f6c6561726e696e6760881b8152201490565b506006600090815290916000805160206148df8339815191525b818310614026575050906020613fc192820101613fb5565b602091935080600191548385880101520191019091839261400e565b60ff1916865250613fc192151560051b82016020019050613fb5565b600090565b6020813d602011614096575b8161407c6020938361326a565b810103126108f25751908115158203610347575038613f7e565b3d915061406f565b6040513d6000823e3d90fd5b60ff60005460a01c161561418c57600d54801515908161417f575b506141445760ff601e541661410c576000906040516140e560408261326a565b601781527650726f6a656374206973207374696c6c2061637469766560481b602082015290565b60019060405161411d60608261326a565b6023815260008051602061485f833981519152602082015262626c6560e81b604082015290565b60019060405161415560408261326a565b601a81527913585e1a5b5d5b481a5d195c985d1a5bdb9cc81c995858da195960321b602082015290565b9050601d541015386140c5565b60019060405161419d60408261326a565b601c81527b141c9bda9958dd081b585b9d585b1b1e4819195858dd1a5d985d195960221b602082015290565b156141d057565b60405162461bcd60e51b815260206004820152601860248201527714dd1bdc9859d94818dbdb9d1c9858dd081b9bdd081cd95d60421b6044820152606490fd5b939291613f549061422b60409360608852606088019061341e565b90868203602088015261341e565b1561424057565b60405162461bcd60e51b815260206004820152600a602482015269139bc81c995c5d595cdd60b21b6044820152606490fd5b600360009182815561428660018201613e6b565b8260028201550155565b1561429757565b60405162461bcd60e51b8152602060048201526017602482015276576569676874206d75737420626520706f73697469766560481b6044820152606490fd5b156142dd57565b60405162461bcd60e51b8152602060048201526013602482015272105b1c9958591e481c185c9d1a58da5c185b9d606a1b6044820152606490fd5b906143a960008051602061491f8339815191529161435d60018060a01b0385169485600052601a60205261435361073d6040600020546135b4565b6131b56001614290565b83600052601a602052614374816040600020613b88565b83600052601b602052600160406000205583600052601c6020524260406000205560405191829160408352604083019061341e565b600160208301520390a2613e9061449d565b60ff60005460a01c1615613e9057600d548015159081614490575b5061443a5760ff601e54166143e757565b601d5460405190606082526023606083015260008051602061485f833981519152608083015262626c6560e81b60a0830152602082015242604082015260008051602061483f83398151915260c03392a2565b601d546040519060608252601a60608301527913585e1a5b5d5b481a5d195c985d1a5bdb9cc81c995858da195960321b6080830152602082015242604082015260008051602061483f83398151915260a03392a2565b9050601d541015386143d6565b6017546000906001600160a01b0316801561477a5760195490811561477557826144c683613ced565b6144cf84613d1f565b936144d981613ced565b90835b8181106146f55750509061453761451392614525604051978895869563cdbf3d0160e01b87526060600488015260648701906133be565b85810360031901602487015290613443565b8381036003190160448501529061349c565b0381845afa9182156146ea57839084936145c9575b50805161455a575b50505050565b813b156127fd57918391614591836145a39560405196879586948593631d70957f60e21b85526040600486015260448501906133be565b8381036003190160248501529061349c565b03925af18015610c2d576145b9575b8080614554565b816145c39161326a565b386145b2565b9250503d8084843e6145db818461326a565b8201916040818403126127fd5780516001600160401b0381116146be5781019083601f830112156146be57815161461181613329565b9261461f604051948561326a565b81845260208085019260051b820101908682116146e657602001915b8183106146c2575050506020810151906001600160401b03821161223f57019280601f850112156146be57835161467181613329565b9461467f604051968761326a565b81865260208087019260051b8201019283116146ba57602001905b8282106146aa575050503861454c565b815181526020918201910161469a565b8680fd5b8480fd5b82516001600160a01b03811681036146e25781526020928301920161463b565b8880fd5b8780fd5b6040513d85823e3d90fd5b600191929394506147058161351d565b838060a01b0391549060031b1c168061471e8388613cb0565b52808952601a60205261080461473d60408b2060405192838092613941565b614747838a613cb0565b526147528289613cb0565b508852601b60205260408820546147698286613cb0565b520190869392916144dc565b505050565b505056fedf6966c971051c3d54ec59162606531493a51404a002842f56009d7e5cf4a8c7c2575a0e9e593c00f959f8c92f12db2869c3395a3b0502d05e2516446f71f85b9b196abb2588eccefb36f3e6c9b15d9e260c633d5b2e0b8f497e6e71c6c1c1eac1756fd99ac9a2b1b22b5e701ddb022b897a002144d045b77ac35ce46610fef631ecc21a745e3968a04e9570e4425bc18fa8019c68028196b546d1669c200c68a66cc928b5edb82af9bd49922954155ab7b0942694bea4ce44661d9a8736c688aee3ab89a33c4a6f38aa24238aed506e7f6db5e298e1f32a0ede72dbe23112c44e6f206d6f726520756e6c6162656c65642073616d706c657320617661696c61f3f7a9fe364faab93b216da50a3214154f22a0a2b415b23a84c8169e8b636ee39aa934e5a98d12b60dabec0f34647f2b63b8fd257ba6480e7ded4cc1ef24c5730175b7a638427703f0dbe7bb9bbf987a2551717b34e79f33b5b1008d1fa01db9f652222313e28459528d920b65115c16c04f3efc82aaedc97be59f3f377c0d3f8a35acfbc15ff81a39ae7d344fd709f28e8600b4aa8c65c6b64bfe7fe36bd19bbceee304ac8d461cb65ac9f6dc37bbcb2c2c34c155224ffbfdc4752b89008f738d1108e10bcb7c27dddfc02ed9d693a074039d026cf4ea4240b40f7d581ac802a264697066735822122027d69d091f25adfb2fb87c856b7993df5622bf541d8de59900ab61651a5775eb64736f6c634300081c0033",
  "linkReferences": {},
  "deployedLinkReferences": {}
}