{
  "_format": "hh-sol-artifact-1",
  "contractName": "Project",
  "sourceName": "contracts/Project.sol",
  "abi": [
    {
      "inputs": [
        {
          "internalType": "address",
          "name": "_creator",
          "type": "address"
        },
        {
          "internalType": "string",
          "name": "_projectData",
          "type": "string"
        }
      ],
      "stateMutability": "nonpayable",
      "type": "constructor"
    },
    {
      "anonymous": false,
      "inputs": [
        {
          "indexed": false,
          "internalType": "uint256",
          "name": "round",
          "type": "uint256"
        },
        {
          "indexed": false,
          "internalType": "uint256",
          "name": "completedSamples",
          "type": "uint256"
        },
        {
          "indexed": false,
          "internalType": "uint256",
          "name": "timestamp",
          "type": "uint256"
        }
      ],
      "name": "ALBatchCompleted",
      "type": "event"
    },
    {
      "anonymous": false,
      "inputs": [
        {
          "indexed": false,
          "internalType": "uint256",
          "name": "round",
          "type": "uint256"
        },
        {
          "indexed": false,
          "internalType": "uint256",
          "name": "sampleCount",
          "type": "uint256"
        },
        {
          "indexed": false,
          "internalType": "uint256",
          "name": "timestamp",
          "type": "uint256"
        }
      ],
      "name": "ALBatchStarted",
      "type": "event"
    },
    {
      "anonymous": false,
      "inputs": [
        {
          "indexed": false,
          "internalType": "address",
          "name": "votingContract",
          "type": "address"
        },
        {
          "indexed": false,
          "internalType": "address",
          "name": "storageContract",
          "type": "address"
        }
      ],
      "name": "ALContractsDeployed",
      "type": "event"
    },
    {
      "anonymous": false,
      "inputs": [
        {
          "indexed": false,
          "internalType": "uint256",
          "name": "round",
          "type": "uint256"
        },
        {
          "indexed": false,
          "internalType": "string",
          "name": "reason",
          "type": "string"
        },
        {
          "indexed": false,
          "internalType": "uint256",
          "name": "timestamp",
          "type": "uint256"
        }
      ],
      "name": "ALRoundTriggered",
      "type": "event"
    },
    {
      "anonymous": false,
      "inputs": [
        {
          "indexed": false,
          "internalType": "string",
          "name": "sampleId",
          "type": "string"
        },
        {
          "indexed": false,
          "internalType": "string",
          "name": "label",
          "type": "string"
        },
        {
          "indexed": false,
          "internalType": "uint256",
          "name": "round",
          "type": "uint256"
        },
        {
          "indexed": false,
          "internalType": "uint256",
          "name": "timestamp",
          "type": "uint256"
        }
      ],
      "name": "AutoLabelStored",
      "type": "event"
    },
    {
      "anonymous": false,
      "inputs": [
        {
          "indexed": true,
          "internalType": "address",
          "name": "invitee",
          "type": "address"
        },
        {
          "indexed": true,
          "internalType": "address",
          "name": "project",
          "type": "address"
        },
        {
          "indexed": false,
          "internalType": "uint256",
          "name": "timestamp",
          "type": "uint256"
        }
      ],
      "name": "InvitationAccepted",
      "type": "event"
    },
    {
      "anonymous": false,
      "inputs": [
        {
          "indexed": true,
          "internalType": "address",
          "name": "invitee",
          "type": "address"
        },
        {
          "indexed": true,
          "internalType": "address",
          "name": "project",
          "type": "address"
        },
        {
          "indexed": false,
          "internalType": "uint256",
          "name": "timestamp",
          "type": "uint256"
        }
      ],
      "name": "InvitationRejected",
      "type": "event"
    },
    {
      "anonymous": false,
      "inputs": [
        {
          "indexed": true,
          "internalType": "address",
          "name": "invitee",
          "type": "address"
        },
        {
          "indexed": true,
          "internalType": "address",
          "name": "inviter",
          "type": "address"
        },
        {
          "indexed": false,
          "internalType": "string",
          "name": "role",
          "type": "string"
        },
        {
          "indexed": false,
          "internalType": "uint256",
          "name": "timestamp",
          "type": "uint256"
        }
      ],
      "name": "InvitationSent",
      "type": "event"
    },
    {
      "anonymous": false,
      "inputs": [
        {
          "indexed": true,
          "internalType": "address",
          "name": "requester",
          "type": "address"
        },
        {
          "indexed": true,
          "internalType": "address",
          "name": "approver",
          "type": "address"
        },
        {
          "indexed": false,
          "internalType": "uint256",
          "name": "timestamp",
          "type": "uint256"
        }
      ],
      "name": "JoinRequestApproved",
      "type": "event"
    },
    {
      "anonymous": false,
      "inputs": [
        {
          "indexed": true,
          "internalType": "address",
          "name": "requester",
          "type": "address"
        },
        {
          "indexed": true,
          "internalType": "address",
          "name": "rejector",
          "type": "address"
        },
        {
          "indexed": false,
          "internalType": "uint256",
          "name": "timestamp",
          "type": "uint256"
        }
      ],
      "name": "JoinRequestRejected",
      "type": "event"
    },
    {
      "anonymous": false,
      "inputs": [
        {
          "indexed": true,
          "internalType": "address",
          "name": "requester",
          "type": "address"
        },
        {
          "indexed": false,
          "internalType": "string",
          "name": "role",
          "type": "string"
        },
        {
          "indexed": false,
          "internalType": "uint256",
          "name": "timestamp",
          "type": "uint256"
        }
      ],
      "name": "JoinRequestSubmitted",
      "type": "event"
    },
    {
      "anonymous": false,
      "inputs": [
        {
          "indexed": true,
          "internalType": "address",
          "name": "member",
          "type": "address"
        },
        {
          "indexed": false,
          "internalType": "string",
          "name": "role",
          "type": "string"
        },
        {
          "indexed": false,
          "internalType": "uint256",
          "name": "timestamp",
          "type": "uint256"
        }
      ],
      "name": "MemberAdded",
      "type": "event"
    },
    {
      "anonymous": false,
      "inputs": [
        {
          "indexed": true,
          "internalType": "address",
          "name": "participant",
          "type": "address"
        }
      ],
      "name": "ParticipantAdded",
      "type": "event"
    },
    {
      "anonymous": false,
      "inputs": [
        {
          "indexed": true,
          "internalType": "address",
          "name": "participant",
          "type": "address"
        },
        {
          "indexed": false,
          "internalType": "string",
          "name": "role",
          "type": "string"
        },
        {
          "indexed": false,
          "internalType": "uint256",
          "name": "weight",
          "type": "uint256"
        }
      ],
      "name": "ParticipantAutoAdded",
      "type": "event"
    },
    {
      "anonymous": false,
      "inputs": [
        {
          "indexed": true,
          "internalType": "address",
          "name": "participant",
          "type": "address"
        },
        {
          "indexed": false,
          "internalType": "string",
          "name": "role",
          "type": "string"
        },
        {
          "indexed": false,
          "internalType": "uint256",
          "name": "weight",
          "type": "uint256"
        }
      ],
      "name": "ParticipantUpdated",
      "type": "event"
    },
    {
      "anonymous": false,
      "inputs": [
        {
          "indexed": true,
          "internalType": "address",
          "name": "creator",
          "type": "address"
        },
        {
          "indexed": false,
          "internalType": "uint256",
          "name": "timestamp",
          "type": "uint256"
        }
      ],
      "name": "ProjectCreated",
      "type": "event"
    },
    {
      "anonymous": false,
      "inputs": [
        {
          "indexed": true,
          "internalType": "address",
          "name": "creator",
          "type": "address"
        },
        {
          "indexed": false,
          "internalType": "uint256",
          "name": "timestamp",
          "type": "uint256"
        }
      ],
      "name": "ProjectDeactivated",
      "type": "event"
    },
    {
      "anonymous": false,
      "inputs": [
        {
          "indexed": true,
          "internalType": "address",
          "name": "creator",
          "type": "address"
        },
        {
          "indexed": false,
          "internalType": "uint256",
          "name": "timestamp",
          "type": "uint256"
        }
      ],
      "name": "ProjectReactivated",
      "type": "event"
    },
    {
      "anonymous": false,
      "inputs": [
        {
          "indexed": true,
          "internalType": "address",
          "name": "updater",
          "type": "address"
        },
        {
          "indexed": false,
          "internalType": "uint256",
          "name": "timestamp",
          "type": "uint256"
        }
      ],
      "name": "ProjectUpdated",
      "type": "event"
    },
    {
      "anonymous": false,
      "inputs": [
        {
          "indexed": false,
          "internalType": "uint256",
          "name": "newRound",
          "type": "uint256"
        }
      ],
      "name": "RoundIncremented",
      "type": "event"
    },
    {
      "anonymous": false,
      "inputs": [
        {
          "indexed": false,
          "internalType": "string",
          "name": "sampleId",
          "type": "string"
        },
        {
          "indexed": false,
          "internalType": "address",
          "name": "voter",
          "type": "address"
        },
        {
          "indexed": false,
          "internalType": "string",
          "name": "label",
          "type": "string"
        },
        {
          "indexed": false,
          "internalType": "uint256",
          "name": "timestamp",
          "type": "uint256"
        }
      ],
      "name": "VoteSubmitted",
      "type": "event"
    },
    {
      "anonymous": false,
      "inputs": [
        {
          "indexed": false,
          "internalType": "uint256",
          "name": "round",
          "type": "uint256"
        },
        {
          "indexed": false,
          "internalType": "uint256",
          "name": "voterCount",
          "type": "uint256"
        },
        {
          "indexed": false,
          "internalType": "uint256",
          "name": "timestamp",
          "type": "uint256"
        }
      ],
      "name": "VotersUpdated",
      "type": "event"
    },
    {
      "anonymous": false,
      "inputs": [
        {
          "indexed": false,
          "internalType": "string",
          "name": "sampleId",
          "type": "string"
        },
        {
          "indexed": false,
          "internalType": "string",
          "name": "finalLabel",
          "type": "string"
        },
        {
          "indexed": false,
          "internalType": "uint256",
          "name": "round",
          "type": "uint256"
        },
        {
          "indexed": false,
          "internalType": "uint256",
          "name": "timestamp",
          "type": "uint256"
        }
      ],
      "name": "VotingSessionEnded",
      "type": "event"
    },
    {
      "anonymous": false,
      "inputs": [
        {
          "indexed": false,
          "internalType": "string",
          "name": "sampleId",
          "type": "string"
        },
        {
          "indexed": false,
          "internalType": "uint256",
          "name": "round",
          "type": "uint256"
        },
        {
          "indexed": false,
          "internalType": "uint256",
          "name": "timeout",
          "type": "uint256"
        },
        {
          "indexed": false,
          "internalType": "uint256",
          "name": "timestamp",
          "type": "uint256"
        }
      ],
      "name": "VotingSessionStarted",
      "type": "event"
    },
    {
      "inputs": [
        {
          "internalType": "address",
          "name": "_participant",
          "type": "address"
        }
      ],
      "name": "addParticipant",
      "outputs": [],
      "stateMutability": "nonpayable",
      "type": "function"
    },
    {
      "inputs": [
        {
          "internalType": "address",
          "name": "_participant",
          "type": "address"
        },
        {
          "internalType": "string",
          "name": "_role",
          "type": "string"
        },
        {
          "internalType": "uint256",
          "name": "_weight",
          "type": "uint256"
        }
      ],
      "name": "addParticipantWithRole",
      "outputs": [],
      "stateMutability": "nonpayable",
      "type": "function"
    },
    {
      "inputs": [],
      "name": "alScenario",
      "outputs": [
        {
          "internalType": "string",
          "name": "",
          "type": "string"
        }
      ],
      "stateMutability": "view",
      "type": "function"
    },
    {
      "inputs": [
        {
          "internalType": "address",
          "name": "_requester",
          "type": "address"
        }
      ],
      "name": "approveJoinRequest",
      "outputs": [],
      "stateMutability": "nonpayable",
      "type": "function"
    },
    {
      "inputs": [],
      "name": "createdAt",
      "outputs": [
        {
          "internalType": "uint256",
          "name": "",
          "type": "uint256"
        }
      ],
      "stateMutability": "view",
      "type": "function"
    },
    {
      "inputs": [],
      "name": "creator",
      "outputs": [
        {
          "internalType": "address",
          "name": "",
          "type": "address"
        }
      ],
      "stateMutability": "view",
      "type": "function"
    },
    {
      "inputs": [],
      "name": "currentRound",
      "outputs": [
        {
          "internalType": "uint256",
          "name": "",
          "type": "uint256"
        }
      ],
      "stateMutability": "view",
      "type": "function"
    },
    {
      "inputs": [],
      "name": "deactivateProject",
      "outputs": [],
      "stateMutability": "nonpayable",
      "type": "function"
    },
    {
      "inputs": [],
      "name": "description",
      "outputs": [
        {
          "internalType": "string",
          "name": "",
          "type": "string"
        }
      ],
      "stateMutability": "view",
      "type": "function"
    },
    {
      "inputs": [],
      "name": "endTime",
      "outputs": [
        {
          "internalType": "uint256",
          "name": "",
          "type": "uint256"
        }
      ],
      "stateMutability": "view",
      "type": "function"
    },
    {
      "inputs": [
        {
          "internalType": "string",
          "name": "sampleId",
          "type": "string"
        }
      ],
      "name": "endVotingSession",
      "outputs": [],
      "stateMutability": "nonpayable",
      "type": "function"
    },
    {
      "inputs": [],
      "name": "getActiveVoting",
      "outputs": [
        {
          "internalType": "string",
          "name": "sampleId",
          "type": "string"
        },
        {
          "internalType": "string",
          "name": "sampleData",
          "type": "string"
        },
        {
          "internalType": "string[]",
          "name": "labelOptions",
          "type": "string[]"
        },
        {
          "internalType": "uint256",
          "name": "timeRemaining",
          "type": "uint256"
        },
        {
          "internalType": "address[]",
          "name": "voters",
          "type": "address[]"
        }
      ],
      "stateMutability": "view",
      "type": "function"
    },
    {
      "inputs": [],
      "name": "getAllMembers",
      "outputs": [
        {
          "internalType": "address[]",
          "name": "memberAddresses",
          "type": "address[]"
        },
        {
          "internalType": "string[]",
          "name": "roles",
          "type": "string[]"
        },
        {
          "internalType": "uint256[]",
          "name": "weights",
          "type": "uint256[]"
        },
        {
          "internalType": "uint256[]",
          "name": "joinTimestamps",
          "type": "uint256[]"
        }
      ],
      "stateMutability": "view",
      "type": "function"
    },
    {
      "inputs": [],
      "name": "getAllRequesters",
      "outputs": [
        {
          "internalType": "address[]",
          "name": "",
          "type": "address[]"
        }
      ],
      "stateMutability": "view",
      "type": "function"
    },
    {
      "inputs": [],
      "name": "getCreator",
      "outputs": [
        {
          "internalType": "address",
          "name": "",
          "type": "address"
        }
      ],
      "stateMutability": "view",
      "type": "function"
    },
    {
      "inputs": [],
      "name": "getEligibleVoters",
      "outputs": [
        {
          "internalType": "address[]",
          "name": "voters",
          "type": "address[]"
        },
        {
          "internalType": "uint256[]",
          "name": "weights",
          "type": "uint256[]"
        }
      ],
      "stateMutability": "view",
      "type": "function"
    },
    {
      "inputs": [],
      "name": "getIsActive",
      "outputs": [
        {
          "internalType": "bool",
          "name": "",
          "type": "bool"
        }
      ],
      "stateMutability": "view",
      "type": "function"
    },
    {
      "inputs": [
        {
          "internalType": "address",
          "name": "_requester",
          "type": "address"
        }
      ],
      "name": "getJoinRequest",
      "outputs": [
        {
          "internalType": "address",
          "name": "requester",
          "type": "address"
        },
        {
          "internalType": "string",
          "name": "role",
          "type": "string"
        },
        {
          "internalType": "uint256",
          "name": "timestamp",
          "type": "uint256"
        },
        {
          "internalType": "bool",
          "name": "exists",
          "type": "bool"
        }
      ],
      "stateMutability": "view",
      "type": "function"
    },
    {
      "inputs": [],
      "name": "getProjectData",
      "outputs": [
        {
          "internalType": "string",
          "name": "",
          "type": "string"
        }
      ],
      "stateMutability": "view",
      "type": "function"
    },
    {
      "inputs": [],
      "name": "getProjectMetadata",
      "outputs": [
        {
          "internalType": "string",
          "name": "_title",
          "type": "string"
        },
        {
          "internalType": "string",
          "name": "_description",
          "type": "string"
        },
        {
          "internalType": "address",
          "name": "_owner",
          "type": "address"
        },
        {
          "internalType": "string",
          "name": "_projectType",
          "type": "string"
        },
        {
          "internalType": "string",
          "name": "_rocrateHash",
          "type": "string"
        },
        {
          "internalType": "uint256",
          "name": "_start",
          "type": "uint256"
        },
        {
          "internalType": "uint256",
          "name": "_end",
          "type": "uint256"
        },
        {
          "internalType": "string",
          "name": "_queryStrategy",
          "type": "string"
        },
        {
          "internalType": "string",
          "name": "_alScenario",
          "type": "string"
        },
        {
          "internalType": "uint256",
          "name": "_maxIteration",
          "type": "uint256"
        },
        {
          "internalType": "uint256",
          "name": "_queryBatchSize",
          "type": "uint256"
        },
        {
          "internalType": "string[]",
          "name": "_labelSpace",
          "type": "string[]"
        }
      ],
      "stateMutability": "view",
      "type": "function"
    },
    {
      "inputs": [],
      "name": "getProjectStatus",
      "outputs": [
        {
          "internalType": "bool",
          "name": "active",
          "type": "bool"
        },
        {
          "internalType": "uint256",
          "name": "created",
          "type": "uint256"
        },
        {
          "internalType": "uint256",
          "name": "modified",
          "type": "uint256"
        },
        {
          "internalType": "address",
          "name": "projectCreator",
          "type": "address"
        }
      ],
      "stateMutability": "view",
      "type": "function"
    },
    {
      "inputs": [
        {
          "internalType": "string",
          "name": "sampleId",
          "type": "string"
        }
      ],
      "name": "getSampleVotingHistory",
      "outputs": [
        {
          "internalType": "uint256",
          "name": "round",
          "type": "uint256"
        },
        {
          "internalType": "string",
          "name": "finalLabel",
          "type": "string"
        },
        {
          "internalType": "uint256",
          "name": "timestamp",
          "type": "uint256"
        },
        {
          "internalType": "address[]",
          "name": "voters",
          "type": "address[]"
        },
        {
          "internalType": "string[]",
          "name": "labels",
          "type": "string[]"
        }
      ],
      "stateMutability": "view",
      "type": "function"
    },
    {
      "inputs": [],
      "name": "getTimestamps",
      "outputs": [
        {
          "internalType": "uint256",
          "name": "created",
          "type": "uint256"
        },
        {
          "internalType": "uint256",
          "name": "modified",
          "type": "uint256"
        }
      ],
      "stateMutability": "view",
      "type": "function"
    },
    {
      "inputs": [],
      "name": "getUserContributions",
      "outputs": [
        {
          "internalType": "address[]",
          "name": "voters",
          "type": "address[]"
        },
        {
          "internalType": "uint256[]",
          "name": "voteCounts",
          "type": "uint256[]"
        },
        {
          "internalType": "uint256[]",
          "name": "weights",
          "type": "uint256[]"
        }
      ],
      "stateMutability": "view",
      "type": "function"
    },
    {
      "inputs": [
        {
          "internalType": "address",
          "name": "voter",
          "type": "address"
        }
      ],
      "name": "getVoterStats",
      "outputs": [
        {
          "internalType": "uint256",
          "name": "weight",
          "type": "uint256"
        },
        {
          "internalType": "uint256",
          "name": "totalVotes",
          "type": "uint256"
        },
        {
          "internalType": "bool",
          "name": "isRegistered",
          "type": "bool"
        }
      ],
      "stateMutability": "view",
      "type": "function"
    },
    {
      "inputs": [],
      "name": "getVotingHistory",
      "outputs": [
        {
          "internalType": "string[]",
          "name": "sampleIds",
          "type": "string[]"
        },
        {
          "internalType": "uint256[]",
          "name": "rounds",
          "type": "uint256[]"
        },
        {
          "internalType": "string[]",
          "name": "finalLabels",
          "type": "string[]"
        },
        {
          "internalType": "uint256[]",
          "name": "timestamps",
          "type": "uint256[]"
        }
      ],
      "stateMutability": "view",
      "type": "function"
    },
    {
      "inputs": [],
      "name": "hasALContracts",
      "outputs": [
        {
          "internalType": "bool",
          "name": "",
          "type": "bool"
        }
      ],
      "stateMutability": "view",
      "type": "function"
    },
    {
      "inputs": [],
      "name": "incrementRound",
      "outputs": [],
      "stateMutability": "nonpayable",
      "type": "function"
    },
    {
      "inputs": [
        {
          "internalType": "address",
          "name": "",
          "type": "address"
        }
      ],
      "name": "invitations",
      "outputs": [
        {
          "internalType": "address",
          "name": "invitee",
          "type": "address"
        },
        {
          "internalType": "string",
          "name": "role",
          "type": "string"
        },
        {
          "internalType": "uint256",
          "name": "timestamp",
          "type": "uint256"
        },
        {
          "internalType": "bool",
          "name": "exists",
          "type": "bool"
        }
      ],
      "stateMutability": "view",
      "type": "function"
    },
    {
      "inputs": [
        {
          "internalType": "uint256",
          "name": "",
          "type": "uint256"
        }
      ],
      "name": "invitees",
      "outputs": [
        {
          "internalType": "address",
          "name": "",
          "type": "address"
        }
      ],
      "stateMutability": "view",
      "type": "function"
    },
    {
      "inputs": [],
      "name": "isActive",
      "outputs": [
        {
          "internalType": "bool",
          "name": "",
          "type": "bool"
        }
      ],
      "stateMutability": "view",
      "type": "function"
    },
    {
      "inputs": [
        {
          "internalType": "address",
          "name": "",
          "type": "address"
        }
      ],
      "name": "isParticipant",
      "outputs": [
        {
          "internalType": "bool",
          "name": "",
          "type": "bool"
        }
      ],
      "stateMutability": "view",
      "type": "function"
    },
    {
      "inputs": [
        {
          "internalType": "address",
          "name": "",
          "type": "address"
        }
      ],
      "name": "joinRequests",
      "outputs": [
        {
          "internalType": "address",
          "name": "requester",
          "type": "address"
        },
        {
          "internalType": "string",
          "name": "role",
          "type": "string"
        },
        {
          "internalType": "uint256",
          "name": "timestamp",
          "type": "uint256"
        },
        {
          "internalType": "bool",
          "name": "exists",
          "type": "bool"
        }
      ],
      "stateMutability": "view",
      "type": "function"
    },
    {
      "inputs": [
        {
          "internalType": "address",
          "name": "",
          "type": "address"
        }
      ],
      "name": "joinedAt",
      "outputs": [
        {
          "internalType": "uint256",
          "name": "",
          "type": "uint256"
        }
      ],
      "stateMutability": "view",
      "type": "function"
    },
    {
      "inputs": [
        {
          "internalType": "uint256",
          "name": "",
          "type": "uint256"
        }
      ],
      "name": "labelSpace",
      "outputs": [
        {
          "internalType": "string",
          "name": "",
          "type": "string"
        }
      ],
      "stateMutability": "view",
      "type": "function"
    },
    {
      "inputs": [],
      "name": "lastModified",
      "outputs": [
        {
          "internalType": "uint256",
          "name": "",
          "type": "uint256"
        }
      ],
      "stateMutability": "view",
      "type": "function"
    },
    {
      "inputs": [
        {
          "internalType": "address",
          "name": "_voting",
          "type": "address"
        },
        {
          "internalType": "address",
          "name": "_storage",
          "type": "address"
        }
      ],
      "name": "linkALContracts",
      "outputs": [],
      "stateMutability": "nonpayable",
      "type": "function"
    },
    {
      "inputs": [],
      "name": "maxIteration",
      "outputs": [
        {
          "internalType": "uint256",
          "name": "",
          "type": "uint256"
        }
      ],
      "stateMutability": "view",
      "type": "function"
    },
    {
      "inputs": [
        {
          "internalType": "uint256",
          "name": "",
          "type": "uint256"
        }
      ],
      "name": "members",
      "outputs": [
        {
          "internalType": "address",
          "name": "",
          "type": "address"
        }
      ],
      "stateMutability": "view",
      "type": "function"
    },
    {
      "inputs": [],
      "name": "needsALDeployment",
      "outputs": [
        {
          "internalType": "bool",
          "name": "",
          "type": "bool"
        }
      ],
      "stateMutability": "view",
      "type": "function"
    },
    {
      "inputs": [
        {
          "internalType": "string",
          "name": "sampleId",
          "type": "string"
        },
        {
          "internalType": "string",
          "name": "finalLabel",
          "type": "string"
        }
      ],
      "name": "notifyVotingSessionEnded",
      "outputs": [],
      "stateMutability": "nonpayable",
      "type": "function"
    },
    {
      "inputs": [
        {
          "internalType": "string",
          "name": "sampleId",
          "type": "string"
        }
      ],
      "name": "notifyVotingSessionStarted",
      "outputs": [],
      "stateMutability": "nonpayable",
      "type": "function"
    },
    {
      "inputs": [
        {
          "internalType": "address",
          "name": "",
          "type": "address"
        }
      ],
      "name": "participantRoles",
      "outputs": [
        {
          "internalType": "string",
          "name": "",
          "type": "string"
        }
      ],
      "stateMutability": "view",
      "type": "function"
    },
    {
      "inputs": [
        {
          "internalType": "address",
          "name": "",
          "type": "address"
        }
      ],
      "name": "participantWeights",
      "outputs": [
        {
          "internalType": "uint256",
          "name": "",
          "type": "uint256"
        }
      ],
      "stateMutability": "view",
      "type": "function"
    },
    {
      "inputs": [],
      "name": "projectData",
      "outputs": [
        {
          "internalType": "string",
          "name": "",
          "type": "string"
        }
      ],
      "stateMutability": "view",
      "type": "function"
    },
    {
      "inputs": [],
      "name": "projectType",
      "outputs": [
        {
          "internalType": "string",
          "name": "",
          "type": "string"
        }
      ],
      "stateMutability": "view",
      "type": "function"
    },
    {
      "inputs": [],
      "name": "queryBatchSize",
      "outputs": [
        {
          "internalType": "uint256",
          "name": "",
          "type": "uint256"
        }
      ],
      "stateMutability": "view",
      "type": "function"
    },
    {
      "inputs": [],
      "name": "queryStrategy",
      "outputs": [
        {
          "internalType": "string",
          "name": "",
          "type": "string"
        }
      ],
      "stateMutability": "view",
      "type": "function"
    },
    {
      "inputs": [],
      "name": "reactivateProject",
      "outputs": [],
      "stateMutability": "nonpayable",
      "type": "function"
    },
    {
      "inputs": [
        {
          "internalType": "string",
          "name": "sampleId",
          "type": "string"
        },
        {
          "internalType": "string",
          "name": "label",
          "type": "string"
        },
        {
          "internalType": "string",
          "name": "justification",
          "type": "string"
        },
        {
          "internalType": "string",
          "name": "ipfsHash",
          "type": "string"
        }
      ],
      "name": "receiveFinalLabelFromVoting",
      "outputs": [],
      "stateMutability": "nonpayable",
      "type": "function"
    },
    {
      "inputs": [
        {
          "internalType": "address",
          "name": "_requester",
          "type": "address"
        }
      ],
      "name": "rejectJoinRequest",
      "outputs": [],
      "stateMutability": "nonpayable",
      "type": "function"
    },
    {
      "inputs": [
        {
          "internalType": "uint256",
          "name": "",
          "type": "uint256"
        }
      ],
      "name": "requesters",
      "outputs": [
        {
          "internalType": "address",
          "name": "",
          "type": "address"
        }
      ],
      "stateMutability": "view",
      "type": "function"
    },
    {
      "inputs": [],
      "name": "rocrateHash",
      "outputs": [
        {
          "internalType": "string",
          "name": "",
          "type": "string"
        }
      ],
      "stateMutability": "view",
      "type": "function"
    },
    {
      "inputs": [
        {
          "internalType": "string",
          "name": "_queryStrategy",
          "type": "string"
        },
        {
          "internalType": "string",
          "name": "_alScenario",
          "type": "string"
        },
        {
          "internalType": "uint256",
          "name": "_maxIteration",
          "type": "uint256"
        },
        {
          "internalType": "uint256",
          "name": "_queryBatchSize",
          "type": "uint256"
        },
        {
          "internalType": "string[]",
          "name": "_labelSpace",
          "type": "string[]"
        }
      ],
      "name": "setALMetadata",
      "outputs": [],
      "stateMutability": "nonpayable",
      "type": "function"
    },
    {
      "inputs": [
        {
          "internalType": "string",
          "name": "_title",
          "type": "string"
        },
        {
          "internalType": "string",
          "name": "_description",
          "type": "string"
        },
        {
          "internalType": "string",
          "name": "_projectType",
          "type": "string"
        },
        {
          "internalType": "string",
          "name": "_rocrateHash",
          "type": "string"
        }
      ],
      "name": "setProjectMetadata",
      "outputs": [],
      "stateMutability": "nonpayable",
      "type": "function"
    },
    {
      "inputs": [
        {
          "internalType": "address[]",
          "name": "_voters",
          "type": "address[]"
        },
        {
          "internalType": "uint256[]",
          "name": "_weights",
          "type": "uint256[]"
        }
      ],
      "name": "setProjectVoters",
      "outputs": [],
      "stateMutability": "nonpayable",
      "type": "function"
    },
    {
      "inputs": [
        {
          "internalType": "uint256",
          "name": "_start",
          "type": "uint256"
        },
        {
          "internalType": "uint256",
          "name": "_end",
          "type": "uint256"
        }
      ],
      "name": "setStartAndEndTime",
      "outputs": [],
      "stateMutability": "nonpayable",
      "type": "function"
    },
    {
      "inputs": [
        {
          "internalType": "string[]",
          "name": "sampleIds",
          "type": "string[]"
        }
      ],
      "name": "startBatchVoting",
      "outputs": [],
      "stateMutability": "nonpayable",
      "type": "function"
    },
    {
      "inputs": [],
      "name": "startTime",
      "outputs": [
        {
          "internalType": "uint256",
          "name": "",
          "type": "uint256"
        }
      ],
      "stateMutability": "view",
      "type": "function"
    },
    {
      "inputs": [
        {
          "internalType": "string",
          "name": "sampleId",
          "type": "string"
        }
      ],
      "name": "startVotingSession",
      "outputs": [],
      "stateMutability": "nonpayable",
      "type": "function"
    },
    {
      "inputs": [],
      "name": "storageContract",
      "outputs": [
        {
          "internalType": "address",
          "name": "",
          "type": "address"
        }
      ],
      "stateMutability": "view",
      "type": "function"
    },
    {
      "inputs": [
        {
          "internalType": "string",
          "name": "sampleId",
          "type": "string"
        },
        {
          "internalType": "string",
          "name": "label",
          "type": "string"
        },
        {
          "internalType": "uint256",
          "name": "round",
          "type": "uint256"
        },
        {
          "internalType": "string",
          "name": "justification",
          "type": "string"
        },
        {
          "internalType": "string",
          "name": "ipfsHash",
          "type": "string"
        }
      ],
      "name": "storeFinalLabel",
      "outputs": [],
      "stateMutability": "nonpayable",
      "type": "function"
    },
    {
      "inputs": [
        {
          "internalType": "string",
          "name": "_role",
          "type": "string"
        }
      ],
      "name": "submitJoinRequest",
      "outputs": [],
      "stateMutability": "nonpayable",
      "type": "function"
    },
    {
      "inputs": [
        {
          "internalType": "string",
          "name": "sampleId",
          "type": "string"
        },
        {
          "internalType": "string",
          "name": "label",
          "type": "string"
        }
      ],
      "name": "submitVote",
      "outputs": [],
      "stateMutability": "nonpayable",
      "type": "function"
    },
    {
      "inputs": [],
      "name": "title",
      "outputs": [
        {
          "internalType": "string",
          "name": "",
          "type": "string"
        }
      ],
      "stateMutability": "view",
      "type": "function"
    },
    {
      "inputs": [
        {
          "internalType": "string",
          "name": "reason",
          "type": "string"
        }
      ],
      "name": "triggerNextRound",
      "outputs": [],
      "stateMutability": "nonpayable",
      "type": "function"
    },
    {
      "inputs": [
        {
          "internalType": "address",
          "name": "_participant",
          "type": "address"
        },
        {
          "internalType": "string",
          "name": "_role",
          "type": "string"
        },
        {
          "internalType": "uint256",
          "name": "_weight",
          "type": "uint256"
        }
      ],
      "name": "updateParticipant",
      "outputs": [],
      "stateMutability": "nonpayable",
      "type": "function"
    },
    {
      "inputs": [
        {
          "internalType": "string",
          "name": "_newProjectData",
          "type": "string"
        }
      ],
      "name": "updateProjectData",
      "outputs": [],
      "stateMutability": "nonpayable",
      "type": "function"
    },
    {
      "inputs": [],
      "name": "votingContract",
      "outputs": [
        {
          "internalType": "address",
          "name": "",
          "type": "address"
        }
      ],
      "stateMutability": "view",
      "type": "function"
    },
    {
      "inputs": [],
      "name": "votingTimeout",
      "outputs": [
        {
          "internalType": "uint256",
          "name": "",
          "type": "uint256"
        }
      ],
      "stateMutability": "view",
      "type": "function"
    }
  ],
  "bytecode": "0x6080604052346103b35761530680380380610019816103b8565b9283398101906040818303126103b35780516001600160a01b03811691908290036103b3576020810151906001600160401b0382116103b3570182601f820112156103b3578051906001600160401b03821161028c57610082601f8301601f19166020016103b8565b93828552602083830101116103b35760005b82811061039e575050602060009184010152610e10600f5581511561036c57600080546001600160a01b0319168217905581516001600160401b03811161028c576100e06003546103dd565b601f8111610312575b50602092601f82116001146102ad57928192936000926102a2575b50508160011b916000199060031b1c1916176003555b4260018190556002556000805460ff60a01b1916600160a01b1790556019546801000000000000000081101561028c576001810180601955811015610276577f944998273e477b495144fb8794c914197f3ccb46be2900f4698fd0ef743c96950180546001600160a01b031916821790556000818152601860209081526040808320805460ff19166001179055601a909152902080546101b9906103dd565b601f8111610254575b50600e6631b932b0ba37b960c91b01905580600052601b602052600160406000205580600052601c60205242604060002055807f20bfd29f3d906f96fc35742fac45a554b19cbd4e21f8c4c1d84cb58fdfc32c896020604051428152a2604051907f31d3ac54da09405b02d1de0ee0de648de637fbdc111123be0d7fc31f2a544c0b600080a2614ed7908161042f8239f35b6102709082600052601f6020600020910160051c810190610417565b386101c2565b634e487b7160e01b600052603260045260246000fd5b634e487b7160e01b600052604160045260246000fd5b015190503880610104565b601f198216936003600052806000209160005b8681106102fa57508360019596106102e1575b505050811b0160035561011a565b015160001960f88460031b161c191690553880806102d3565b919260206001819286850151815501940192016102c0565b600360005261035c907fc2575a0e9e593c00f959f8c92f12db2869c3395a3b0502d05e2516446f71f85b601f840160051c81019160208510610362575b601f0160051c0190610417565b386100e9565b909150819061034f565b60405162461bcd60e51b815260206004820152600a602482015269456d707479206461746160b01b6044820152606490fd5b80602080928401015182828801015201610094565b600080fd5b6040519190601f01601f191682016001600160401b0381118382101761028c57604052565b90600182811c9216801561040d575b60208310146103f757565b634e487b7160e01b600052602260045260246000fd5b91607f16916103ec565b818110610422575050565b6000815560010161041756fe608080604052600436101561001357600080fd5b600090813560e01c90816302d05d3f1461350557508063040023d61461341f5780630ee2cb10146133f857806310218f4d1461326957806311ce0267146132405780631af9fd17146130d85780631cf118a114613036578063211a85e614612c5357806322f3e2d414612c2e57806329f5e65a14612a395780632bc5c480146126705780633197cbb614612652578063383e1a5e146125b85780633fa96967146124af57806343862d231461248b578063461e198b146123a75780634a79d50c146123835780634d320b981461227b57806355b31b55146117ec57806358f43f761461222b57806359abbfe4146122065780635bff3c23146121435780635daf08ca146121185780635e1a6c17146120d45780636ac4e50e146120545780637284e4161461203057806372fe1c0314611f8c578063764926db14611efb57806377c39c2114611edd5780637847f1de14611d1a57806378e9792514611cfc57806379ec4f1914611c845780637a83a44b14611c5f5780637c0f6b3514611b3d5780637f52cadc14611b1957806384e0772814611a1e5780638a19c8bc14611a00578063929066f5146119c1578063953cc52c146118105780639c0768b3146117ec578063a01647e614611651578063a07401841461162d578063a0fb79e1146115bf578063a672601d14611518578063ab34c9e9146114df578063b0942ce5146114c1578063b2be4d6514611345578063b2e635e114610ea8578063b568647914610e11578063b70825dc14610d90578063b9be92f914610c9d578063bbffd04c14610bf6578063be27151a14610965578063c1fc006a1461093c578063c2e4fe5a146108f6578063c2fc0d26146108b7578063c3a4b41a14610871578063c3feda17146107c3578063cf09e0d0146107a5578063d64c58a71461076c578063dfafe10f14610707578063dfb748aa14610640578063e1d5a2c8146105a8578063e7aa3afc14610564578063ef213106146104f3578063f0786f271461040c578063f1bc33b4146103ee578063f5e8fd2114610368578063f7267cfd1461034a5763fba7cc791461032357600080fd5b3461034757806003193601126103475760ff6020915460a01c166040519015158152f35b80fd5b50346103475780600319360112610347576020600254604051908152f35b503461034757602036600319011261034757600435906001600160401b038211610347576103ea6103dc6103a76103a236600487016135ae565b6149d6565b9295939491906103c9604051978897885260a0602089015260a088019061365e565b91604087015285820360608701526136dc565b908382036080850152613683565b0390f35b50346103475780600319360112610347576020600f54604051908152f35b5034610347578061041c3661374d565b61043460018060a09795971b03601654163314614038565b6017546001600160a01b03169061044c821515614143565b601d5491803b156104ef5761047d9385809460405196879586948593633fa9696760e01b85528d8d6004870161418a565b03925af180156104e4576104cb575b50507f503607074d0e95d8c0c6b1660c3441384010e05305da22aef0594eb3fcae6236916104c5601d5492604051938493429285614084565b0390a180f35b816104d591613570565b6104e057823861048c565b8280fd5b6040513d84823e3d90fd5b8480fd5b5034610347576020366003190112610347576040906001600160a01b03610518613529565b16815260126020522060018060a01b038154166103ea6040519261054a846105438160018501613c77565b0385613570565b60ff600360028301549201541690604051948594856138b7565b503461034757806003193601126103475760809054600154906002546040519260ff8360a01c16151584526020840152604083015260018060a01b03166060820152f35b50346103475780600319360112610347576016546001600160a01b0316330361060d57601d54600181018091116105f957602081600080516020614de283398151915292601d55604051908152a180f35b634e487b7160e01b82526011600452602482fd5b60405162461bcd60e51b815260206004820152600b60248201526a4f6e6c7920766f74696e6760a81b6044820152606490fd5b50346103475760203660031901126103475761065a613529565b61066e60018060a01b038354163314613d9e565b6106c36106b760018060a01b03831692838552601260205261069960ff6003604088200154166148f7565b83855260126020526106be6001604087200160405193848092613c77565b0383613570565b614c43565b80825260126020526106d760408320614930565b604051904282527f423eb00b6a18c3ecfc2170a0e40ef0bad995279070614ba2e4be1b94f67eb88860203393a380f35b503461034757602036600319011261034757610769610724613529565b61073860018060a01b038454163314613d9e565b6001600160a01b03811683526018602052604083205461075b9060ff1615614994565b6107636144f2565b90614c43565b80f35b5034610347576020366003190112610347576020906040906001600160a01b03610794613529565b168152601b83522054604051908152f35b50346103475780600319360112610347576020600154604051908152f35b503461034757806003193601126103475780546107ea336001600160a01b03831614613d9e565b60ff8160a01c1661083b5760ff60a01b1916600160a01b17815542600281905560405190815233907fb351ba71ddc1d2bf39667cebde99fb92eb26b9f418d5049ba0200888ba81071590602090a280f35b60405162461bcd60e51b815260206004820152600e60248201526d416c72656164792061637469766560901b6044820152606490fd5b50346103475780600319360112610347576016546001600160a01b03161515806108a3575b6020906040519015158152f35b506017546001600160a01b03161515610896565b50346103475780600319360112610347576103ea6040516108e2816108db81613a38565b0382613570565b60405191829160208352602083019061365e565b5034610347576020366003190112610347576103ea906108db906108e2906040906001600160a01b03610927613529565b168152601a6020522060405192838092613c77565b50346103475780600319360112610347576016546040516001600160a01b039091168152602090f35b5034610347576020366003190112610347576004356001600160401b038111610b1157610996903690600401613839565b6109aa60018060a01b038354163314613d9e565b6016546001600160a01b03166109c1811515613fc0565b815115610bbc57601d5460018101809111610ba857601d5560405163500b23f360e11b81528381600481305afa8015610b9d5784918591610b79575b50815115610b39578285933b15610b3557604051631d70957f60e21b81529184918391829084908290610a34908960048401613d79565b03925af1908115610b2a578391610b15575b5050600080516020614e02833981519152610a6e601d549251604051918291429086846140de565b0390a16016546001600160a01b0316803b156104e057829182916040518094818094630e7dc0d160e41b825260406004830152610aae604483018b613683565b90602483015203925af180156104e457610afc575b507f24c323b0138f1f608c855cccb8550ac649c15bf3cea39b8fdbde80d33258a74f82601d5490516104c56040519283924291846140de565b81610b0691613570565b610b11578138610ac3565b5080fd5b81610b1f91613570565b610b11578138610a46565b6040513d85823e3d90fd5b8380fd5b60405162461bcd60e51b8152602060048201526018602482015277139bc8195b1a59da589b19481d9bdd195c9cc8199bdd5b9960421b6044820152606490fd5b9050610b9791503d8086833e610b8f8183613570565b810190614803565b386109fd565b6040513d86823e3d90fd5b634e487b7160e01b84526011600452602484fd5b60405162461bcd60e51b815260206004820152601260248201527108adae0e8f240e6c2dae0d8ca40c4c2e8c6d60731b6044820152606490fd5b50346103475780600319360112610347578054610c1d336001600160a01b03831614613d9e565b60ff8160a01c1615610c655760ff60a01b19168155426002556040514281527f17064d72ee4a5901e55dfa45024ea8f67cdb4895ba6364ab2f8e7223f642ad3660203392a280f35b60405162461bcd60e51b815260206004820152601060248201526f416c726561647920696e61637469766560801b6044820152606490fd5b503461034757610cac366135f5565b91610cc160018060a01b038554163314613d9e565b6001600160a01b03168084526018602052604084205490929060ff1615610d575781610d107fe8c250df70afa51c6916b9661d224a47fd9568cb0c1c9d0d49e2e45cc729a98793511515613dd9565b610d1b82151561494e565b838552601a602052610d308160408720613e73565b838552601b60205281604086205542600255610d51604051928392836142d8565b0390a280f35b60405162461bcd60e51b8152602060048201526011602482015270139bdd0818481c185c9d1a58da5c185b9d607a1b6044820152606490fd5b5034610347576020366003190112610347576004359060155482101561034757601554821015610dfd57601581527f55f448fdea98c4d29eb340757ef0a66cd03dbb9538908a6a81d96026b71ec4759091015460405160039290921b1c6001600160a01b03168152602090f35b634e487b7160e01b81526032600452602490fd5b503461034757602036600319011261034757610e2b613529565b610e3f60018060a01b038354163314613d9e565b6001600160a01b031680825260126020526040822060030154610e649060ff166148f7565b8082526012602052610e7860408320614930565b604051904282527f1a69e67d1be897d0ca0cf1517b4d17e345b4272a80bc900f9fe8e96f261ca1db60203393a380f35b503461034757610eb7366137d8565b601654909190610ed1906001600160a01b03161515613fc0565b80511561130e578151156112db5760ff6040516020818451610ef6818385890161363b565b8101601181520301902054161561129757338352601860205260ff60408420541615611117575b338352601860205260ff604084205416156110d6576016546040516320a7c73b60e11b81523360048201526001600160a01b039091169190602081602481865afa9081156110cb578591611094575b501561103f5783927f55b5b37db3e79e0cf5fa16c3b213f5856ebaf6a6e58c56813245533b65587bbd6040516080815280610fc1610fad608083018761365e565b33602084015282810360408401528561365e565b4260608301520390a1823b1561103a576110129261100085809460405196879586948593636ec479b560e01b855260606004860152606485019061365e565b8381036003190160248501529061365e565b33604483015203925af180156104e4576110295750f35b8161103391613570565b6103475780f35b505050fd5b60405162461bcd60e51b815260206004820152602760248201527f566f746572206e6f74207265676973746572656420696e20766f74696e6720636044820152661bdb9d1c9858dd60ca1b6064820152608490fd5b90506020813d6020116110c3575b816110af60209383613570565b810103126110be575138610f6c565b600080fd5b3d91506110a2565b6040513d87823e3d90fd5b60405162461bcd60e51b8152602060048201526019602482015278139bdd0818481c1c9bda9958dd081c185c9d1a58da5c185b9d603a1b6044820152606490fd5b61111f6144f2565b338452601860205261113860ff60408620541615614994565b61114133614293565b338452601860205260408420600160ff19825416179055338452601a60205261116d8160408620613e73565b338452601b60205260016040852055338452601c602052426040852055604051604081527fbceee304ac8d461cb65ac9f6dc37bbcb2c2c34c155224ffbfdc4752b89008f736111bf604083018461365e565b91600160208201528033930390a2600080516020614dc2833981519152604051806111ed33944290836142d8565b0390a260405163500b23f360e11b815283908181600481305afa9081156104e4578290839261127a575b506016546001600160a01b031691823b15610b355761124f92849283604051809681958294631d70957f60e21b845260048401613d79565b03925af180156104e457611265575b5050610f1d565b8161126f91613570565b6104e057823861125e565b905061129091503d8084833e610b8f8183613570565b9038611217565b60405162461bcd60e51b815260206004820152601c60248201527b53616d706c65206e6f742061637469766520666f7220766f74696e6760201b6044820152606490fd5b60405162461bcd60e51b815260206004820152600b60248201526a115b5c1d1e481b1858995b60aa1b6044820152606490fd5b60405162461bcd60e51b815260206004820152600f60248201526e115b5c1d1e481cd85b5c1b19481251608a1b6044820152606490fd5b5034610347576020366003190112610347576004356001600160401b038111610b11576113769036906004016135ae565b61138b60018060a01b03601654163314614038565b604051815190602081818501936113a381838761363b565b81016011815203019020600160ff19825416179055828391601054925b838110611481575b505015611415575b506113fe600080516020614d4283398151915291601d54600f5460405193849360808552608085019061365e565b91602084015260408301524260608301520390a180f35b600160401b81101561146d578060016114319201601055613cfa565b6114595781611452600080516020614d42833981519152936113fe93613e73565b91506113d0565b634e487b7160e01b83526004839052602483fd5b634e487b7160e01b83526041600452602483fd5b6108db61149d61149083613cfa565b5060405192838092613c77565b6020815191012085518320146114b5576001016113c0565b505050600138806113c8565b50346103475780600319360112610347576020600c54604051908152f35b5034610347576020366003190112610347576020906040906001600160a01b03611507613529565b168152601c83522054604051908152f35b503461034757602036600319011261034757806004356001600160401b0381116115bc5761154a9036906004016135ae565b61155e60018060a01b038354163314613d9e565b6016546001600160a01b0316611575811515613fc0565b803b156115ba5760405163a672601d60e01b81526020600482015291839183918290849082906115a990602483019061365e565b03925af180156104e4576110295750f35b505b50fd5b50346103475780600319360112610347576115fe61161a6103ea61160c6115e461455d565b93969260409591955198899860a08a5260a08a019061365e565b9088820360208a015261365e565b908682036040880152613683565b91606085015283820360808501526136dc565b50346103475780600319360112610347576103ea6040516108e2816108db81613b1e565b50346103475780600319360112610347578081601954905b818110611757575061168361167d83614006565b92614006565b9280805b83811061169d57604051806103ea888883613d79565b6116a681613d2b565b60018060a01b0391549060031b1c16808352601a6020526108db6116d36040852060405192838092613c77565b8051602082019081206116e46144cd565b602081519101201491821561173b575b5050611704575b50600101611687565b838161173492611717600195978a6144b9565b528452601b602052604084205461172e828a6144b9565b526140b9565b92906116fb565b51902090506117486144f2565b602081519101201438806116f4565b61176081613d2b565b60018060a01b0391549060031b1c168452601a6020526108db61178c6040862060405192838092613c77565b80516020820190812061179d6144cd565b60208151910120149182156117d0575b50506117bc575b600101611669565b916117c86001916140b9565b9290506117b4565b51902090506117dd6144f2565b602081519101201438806117ad565b50346103475780600319360112610347576103ea6040516108e2816108db81613c04565b5034610347576040366003190112610347576004356001600160401b038111610b115736602382011215610b1157806004013561184c81613822565b9161185a6040519384613570565b8183526024602084019260051b820101903682116104ef57602401915b8183106119a157505060243590506001600160401b0381116104e057366023820112156104e0578060040135906118ad82613822565b916118bb6040519384613570565b8083526024602084019160051b8301019136831161199d579060248694939201905b82821061198a575050506118fb60018060a01b038354163314613d9e565b6016546001600160a01b0316611912811515613fc0565b803b156104e057604051631d70957f60e21b8152918391839182908490829061193f908a60048401613d79565b03925af180156104e457611975575b50600080516020614e0283398151915282601d5490516104c56040519283924291846140de565b8161197f91613570565b610b1157813861194e565b81358152869450602091820191016118dd565b8580fd5b82356001600160a01b03811681036110be57815260209283019201611877565b50346103475760203660031901126103475760209060ff906040906001600160a01b036119ec613529565b168152601884522054166040519015158152f35b50346103475780600319360112610347576020601d54604051908152f35b503461034757806003193601126103475760145481805b828110611ace5750611a4690614006565b9180805b838110611a6757604051602080825281906103ea908201886136dc565b611a7081613d46565b9054600391821b1c6001600160a01b03168352601260205260408320015460ff16611a9e575b600101611a4a565b91611ac6600191611aae85613d46565b848060a01b0391549060031b1c1661172e82896144b9565b929050611a96565b611ad781613d46565b9054600391821b1c6001600160a01b03168552601260205260408520015460ff16611b05575b600101611a35565b90611b116001916140b9565b919050611afd565b50346103475780600319360112610347576103ea6040516108e2816108db81613b91565b503461034757806003193601126103475760195490611b5b82614006565b90611b6583614249565b611b6e84614006565b93611b7881614006565b92805b828110611bd057611ba6866103ea87611bc28b611bb48a6040519788976080895260808901906136dc565b908782036020890152613683565b908582036040870152613719565b908382036060850152613719565b80611bdc600192613d2b565b838060a01b0391549060031b1c1680611bf5838a6144b9565b52808452601a6020526108db611c146040862060405192838092613c77565b611c1e83886144b9565b52611c2982876144b9565b50808452601b6020526040842054611c41838b6144b9565b528352601c6020526040832054611c5882886144b9565b5201611b7b565b50346103475780600319360112610347576020611c7a61434c565b6040519015158152f35b50346103475760403660031901126103475760043560243590611cb160018060a01b038454163314613d9e565b81811015611cc25760085560095580f35b60405162461bcd60e51b8152602060048201526012602482015271496e76616c69642074696d652072616e676560701b6044820152606490fd5b50346103475780600319360112610347576020600854604051908152f35b5034610347576020366003190112610347576004356001600160401b038111610b1157611d4b9036906004016135ae565b8154611d5c60ff8260a01c16613e12565b6001600160a01b03163314611ea257338252601260205260ff600360408420015416611e6c57611d8e81511515613dd9565b604051611d9a8161353f565b3381526003602082019183835260408101428152611de96060830194600186523388526012602052604088209360018060a01b0390511660018060a01b03198554161784555160018401613e73565b516002820155019051151560ff80198354169116179055601454600160401b81101561146d57806001611e2192016014556014613d61565b81549060031b9033821b9160018060a01b03901b19161790557fe4d6c018abd0178d4bce0856089ef1876318617b97a1d700bb98506598ab0afc60405180610d5133944290836142d8565b60405162461bcd60e51b815260206004820152600e60248201526d526571756573742065786973747360901b6044820152606490fd5b60405162461bcd60e51b815260206004820152601360248201527221b932b0ba37b91031b0b73737ba103537b4b760691b6044820152606490fd5b50346103475780600319360112610347576020600d54604051908152f35b503461034757602036600319011261034757806004356001600160401b0381116115bc57611f2d9036906004016135ae565b611f4160018060a01b038354163314613d9e565b6016546001600160a01b0316611f58811515613fc0565b803b156115ba5760405163764926db60e01b81526020600482015291839183918290849082906115a990602483019061365e565b50346103475780600319360112610347576017546120159190611fb9906001600160a01b03161515614143565b6103ea611fc4614215565b91611bc2602061202260405191611fdb8184613570565b8483526000368137611feb614215565b9260405195611ffa8388613570565b8652600036813760405198899860808a5260808a0190613683565b9188830390890152613719565b908582036040870152613683565b50346103475780600319360112610347576103ea6040516108e2816108db816139b3565b503461034757602036600319011261034757600435600e54811015610b1157600e548110156120c057600e8252600080516020614d228339815191520190806120ac576040516103ea906108e2816108db8187613c77565b634e487b7160e01b81526004819052602490fd5b634e487b7160e01b82526032600452602482fd5b503461034757602036600319011261034757600435906014548210156103475760206120ff83613d46565b905460405160039290921b1c6001600160a01b03168152f35b503461034757602036600319011261034757600435906019548210156103475760206120ff83613d2b565b50346103475760203660031901126103475761215d613529565b6016546001600160a01b03169190602090612179841515613fc0565b6040516320a7c73b60e11b81526001600160a01b03909116600482015292839060249082905afa80156121f95781906121c6575b6060925060405191818352602083015215156040820152f35b506020823d6020116121f1575b816121e060209383613570565b810103126110be57606091516121ad565b3d91506121d3565b50604051903d90823e3d90fd5b5034610347578060031936011261034757604060015460025482519182526020820152f35b5034610347576020366003190112610347576040906001600160a01b03612250613529565b16815260136020522060018060a01b038154166103ea6040519261054a846105438160018501613c77565b503461034757604036600319011261034757612295613529565b6024356001600160a01b03811691908290036104e0576122bf60018060a01b038454163314613d9e565b6001600160a01b03168015158061237a575b1561234157601654906122ed6001600160a01b038316156141d8565b601754916123046001600160a01b038416156141d8565b6001600160a01b03199081169190911760165516176017554260028190556040519081523390600080516020614d6283398151915290602090a280f35b60405162461bcd60e51b8152602060048201526011602482015270496e76616c69642061646472657373657360781b6044820152606490fd5b508115156122d1565b50346103475780600319360112610347576103ea6040516108e2816108db81613924565b5034610347576020366003190112610347576004356001600160401b038111610b11576123d89036906004016135ae565b81546123fe9060ff906123f5336001600160a01b03831614613d9e565b60a01c16613e12565b601d54600181018091116124775790817fbb4ba47257d82c025e976bcdc375cc2e26de94efd111bca20cbc9a330d29745592601d5542600255600080516020614de28339815191526020604051838152a161246b604051928392835260606020840152606083019061365e565b4260408301520390a180f35b634e487b7160e01b83526011600452602483fd5b50346103475780600319360112610347576103ea6040516108e2816108db81613aab565b50346103475760a0366003190112610347576004356001600160401b038111610b11576124e09036906004016135ae565b816024356001600160401b038111610b11576125009036906004016135ae565b6064356001600160401b0381116104e05761251f9036906004016135ae565b6084356001600160401b038111610b355761253e9036906004016135ae565b9361255360018060a01b038554163314613d9e565b6017546001600160a01b03169061256b821515614143565b813b156104ef5784809461259960405198899687958694633fa9696760e01b8652604435916004870161418a565b03925af180156121f9576125aa5780f35b6125b391613570565b388180f35b5034610347576020366003190112610347576040906001600160a01b036125dd613529565b168152601260205220604051906125f38261353f565b80546001600160a01b03168252604051916103ea90612619846105438160018701613c77565b83602082015260ff600360028501549485604085015201541615159081606082015260018060a01b0390511692604051948594856138b7565b50346103475780600319360112610347576020600954604051908152f35b50346103475760a0366003190112610347576004356001600160401b038111610b11576126a19036906004016135ae565b6024356001600160401b0381116104e0576126c09036906004016135ae565b60643590604435906084356001600160401b03811161199d576126e7903690600401613839565b936126fc60018060a01b038754163314613d9e565b82156129fc5783156129c2578051906001600160401b0382116129ae57612724600a546138ea565b601f8111612972575b50602090601f831160011461290d576127509291889183612842575b5050613e60565b600a555b8051906001600160401b0382116128f957612770600b546138ea565b601f81116128b2575b50602090601f831160011461284d5761279b9291879183612842575050613e60565b600b555b600c55600d55805190600160401b821161146d57600e5482600e55808310612809575b50600e83528290600080516020614d22833981519152906020015b8383106127ec57844260025580f35b60016020826127fd83945186613e73565b019201920191906127dd565b600e8452600080516020614d228339815191529081019083015b81811061283057506127c2565b8061283c6001926140f4565b01612823565b015190503880612749565b600b87528187209190601f198416885b81811061289a5750908460019594939210612881575b505050811b01600b5561279f565b015160001960f88460031b161c19169055388080612873565b9293602060018192878601518155019501930161285d565b600b87526128e990600080516020614e22833981519152601f850160051c810191602086106128ef575b601f0160051c0190613e49565b38612779565b90915081906128dc565b634e487b7160e01b86526041600452602486fd5b600a88528188209190601f198416895b81811061295a5750908460019594939210612941575b505050811b01600a55612754565b015160001960f88460031b161c19169055388080612933565b9293602060018192878601518155019501930161291d565b600a88526129a890600080516020614d82833981519152601f850160051c810191602086106128ef57601f0160051c0190613e49565b3861272d565b634e487b7160e01b87526041600452602487fd5b60405162461bcd60e51b8152602060048201526012602482015271496e76616c69642062617463682073697a6560701b6044820152606490fd5b60405162461bcd60e51b815260206004820152601560248201527424b73b30b634b21036b0bc1034ba32b930ba34b7b760591b6044820152606490fd5b503461034757612abc7f0a1e2f362ccc64de291011914f5087c611557a7331c80f2cdd2aacf89b9dc564612a6c366137d8565b612a8160018060a01b03601654163314614038565b6040516020818451612a96818385890161363b565b8101601181520301902060ff198154169055601d54938492604051938493429285614084565b0390a1600190829183601054905b818110612b7b575081612b71575b50612ae1578280f35b7f72db402a1d505e0ee50fba411e34bd1f9a6e90ab67b824c438255e747a886b2891612b146040519283924291846140de565b0390a16010548160105580612b2857808280f35b601082527f1b6847dc741a1b0cd08d278845f9d819d87b734759afb55fe2de5cb82a9ae672908101905b818110612b5f5750808280f35b80612b6b6001926140f4565b01612b52565b9050151538612ad8565b91612b8583613cfa565b50604051908790805490612b98826138ea565b9160018116908115612c165750600114612be3575b50506011815281900360200190205460ff1615612bd05750600185925b01612aca565b9193612bdd6001916140b9565b94612bca565b90915088526020882088905b828210612c025750508101602082612bad565b600181602092548487015201910190612bef565b60ff1916855250508015150282019050602082612bad565b503461034757806003193601126103475760ff6020915460a01c166040519015158152f35b503461034757612c623661374d565b91939092612c7a60018060a01b038354163314613d9e565b8051906001600160401b03821161146d57612c966004546138ea565b601f8111612ffa575b50602090601f8311600114612f9557612cc19291849183612842575050613e60565b6004555b83516001600160401b038111612e4d57612ce06005546138ea565b601f8111612f64575b50602094601f8211600114612f0057829394958291612d0e9492612842575050613e60565b6005555b82516001600160401b038111612e4d57612d2d6006546138ea565b601f8111612ec4575b506020601f8211600114612e61578190839495612d599492612842575050613e60565b6006555b81516001600160401b038111612e4d57612d786007546138ea565b601f8111612e11575b50602092601f8211600114612daf5782938291612da49492612842575050613e60565b6007555b4260025580f35b601f198216936007845280842091845b868110612df95750836001959610612de0575b505050811b01600755612da8565b015160001960f88460031b161c19169055388080612dd2565b91926020600181928685015181550194019201612dbf565b60078352612e4790600080516020614da2833981519152601f840160051c810191602085106128ef57601f0160051c0190613e49565b38612d81565b634e487b7160e01b82526041600452602482fd5b6006835280832090601f198316845b818110612eac57509583600195969710612e93575b505050811b01600655612d5d565b015160001960f88460031b161c19169055388080612e85565b9192602060018192868b015181550194019201612e70565b60068352612efa90600080516020614e42833981519152601f840160051c810191602085106128ef57601f0160051c0190613e49565b38612d36565b601f198216956005845280842091845b888110612f4c57508360019596979810612f33575b505050811b01600555612d12565b015160001960f88460031b161c19169055388080612f25565b91926020600181928685015181550194019201612f10565b612f8f906005845260208420601f840160051c810191602085106128ef57601f0160051c0190613e49565b38612ce9565b600484528184209190601f198416855b818110612fe25750908460019594939210612fc9575b505050811b01600455612cc5565b015160001960f88460031b161c19169055388080612fbb565b92936020600181928786015181550195019301612fa5565b6004845261303090600080516020614e62833981519152601f850160051c810191602086106128ef57601f0160051c0190613e49565b38612c9f565b50346103475780600319360112610347576016546130bd9190613063906001600160a01b03161515613fc0565b6103ea6020916130ca6040519361307a8186613570565b8285528236813760405161308e8282613570565b83815283368137604051936130a38386613570565b8085523681376040519687966060885260608801906136dc565b9186830390870152613719565b908382036040850152613719565b5034610347578060031936011261034757600160a01b6001900390541660085460095491600c54600d54604051938461311081613924565b0361311b9086613570565b6040519586613129816139b3565b036131349088613570565b604051918261314281613a38565b0361314d9084613570565b604051918261315b81613aab565b036131669084613570565b604051928361317481613b1e565b0361317f9085613570565b604051948561318d81613b91565b036131989087613570565b6131a0613f55565b986040519b8c9b6101808d526101808d016131ba9161365e565b8c810360208e01526131cb9161365e565b9060408c01528a810360608c01526131e29161365e565b89810360808b01526131f39161365e565b9160a089015260c088015286810360e088015261320f9161365e565b8581036101008701526132219161365e565b916101208501526101408401528281036101608401526103ea91613683565b50346103475780600319360112610347576017546040516001600160a01b039091168152602090f35b5034610347576020366003190112610347576004356001600160401b038111610b115761329a9036906004016135ae565b906132b560ff82546123f560018060a01b0382163314613d9e565b8151156133c65781516001600160401b038111612e4d576132d76003546138ea565b601f811161338a575b50602092601f821160011461332857829382916133039492612842575050613e60565b6003555b42600255604051428152600080516020614d6283398151915260203392a280f35b601f198216936003845280842091845b8681106133725750836001959610613359575b505050811b01600355613307565b015160001960f88460031b161c1916905538808061334b565b91926020600181928685015181550194019201613338565b600383526133c090600080516020614d02833981519152601f840160051c810191602085106128ef57601f0160051c0190613e49565b386132e0565b60405162461bcd60e51b815260206004820152600a602482015269456d707479206461746160b01b6044820152606490fd5b5034610347578060031936011261034757546040516001600160a01b039091168152602090f35b503461034757610d51600080516020614dc2833981519152613440366135f5565b61345760018060a09795971b038754163314613d9e565b61346382511515613dd9565b6001600160a01b03851680875260186020526040872054909561349d9161348d9060ff1615614994565b61349883151561494e565b614293565b848652601860205260408620600160ff19825416179055848652601a6020526134c98260408820613e73565b848652601b6020526040862055838552601c60205242604086205560405191829185600080516020614e828339815191528880a24290836142d8565b905034610b115781600319360112610b115790546001600160a01b03168152602090f35b600435906001600160a01b03821682036110be57565b608081019081106001600160401b0382111761355a57604052565b634e487b7160e01b600052604160045260246000fd5b601f909101601f19168101906001600160401b0382119082101761355a57604052565b6001600160401b03811161355a57601f01601f191660200190565b81601f820112156110be578035906135c582613593565b926135d36040519485613570565b828452602083830101116110be57816000926020809301838601378301015290565b9060606003198301126110be576004356001600160a01b03811681036110be5791602435906001600160401b0382116110be57613634916004016135ae565b9060443590565b60005b83811061364e5750506000910152565b818101518382015260200161363e565b906020916136778151809281855285808601910161363b565b601f01601f1916010190565b9080602083519182815201916020808360051b8301019401926000915b8383106136af57505050505090565b90919293946020806136cd600193601f19868203018752895161365e565b970193019301919392906136a0565b906020808351928381520192019060005b8181106136fa5750505090565b82516001600160a01b03168452602093840193909201916001016136ed565b906020808351928381520192019060005b8181106137375750505090565b825184526020938401939092019160010161372a565b9060806003198301126110be576004356001600160401b0381116110be5782613778916004016135ae565b916024356001600160401b0381116110be5781613797916004016135ae565b916044356001600160401b0381116110be57826137b6916004016135ae565b91606435906001600160401b0382116110be576137d5916004016135ae565b90565b9060406003198301126110be576004356001600160401b0381116110be5782613803916004016135ae565b91602435906001600160401b0382116110be576137d5916004016135ae565b6001600160401b03811161355a5760051b60200190565b9080601f830112156110be57813561385081613822565b9261385e6040519485613570565b81845260208085019260051b820101918383116110be5760208201905b83821061388a57505050505090565b81356001600160401b0381116110be576020916138ac878480948801016135ae565b81520191019061387b565b929493906060926138dd9160018060a01b0316855260806020860152608085019061365e565b9460408401521515910152565b90600182811c9216801561391a575b602083101461390457565b634e487b7160e01b600052602260045260246000fd5b91607f16916138f9565b60045460009291613934826138ea565b8082529160018116908115613997575060011461394f575050565b60046000908152929350909190600080516020614e628339815191525b83831061397d575060209250010190565b60018160209294939454838587010152019101919061396c565b9050602093945060ff929192191683830152151560051b010190565b600554600092916139c3826138ea565b808252916001811690811561399757506001146139de575050565b600560009081529293509091907f036b6384b5eca791c62761152d0c79bb0604c104a5fb6f4eb0703f3154bb3db05b838310613a1e575060209250010190565b600181602092949394548385870101520191019190613a0d565b60065460009291613a48826138ea565b80825291600181169081156139975750600114613a63575050565b60066000908152929350909190600080516020614e428339815191525b838310613a91575060209250010190565b600181602092949394548385870101520191019190613a80565b60075460009291613abb826138ea565b80825291600181169081156139975750600114613ad6575050565b60076000908152929350909190600080516020614da28339815191525b838310613b04575060209250010190565b600181602092949394548385870101520191019190613af3565b600a5460009291613b2e826138ea565b80825291600181169081156139975750600114613b49575050565b600a6000908152929350909190600080516020614d828339815191525b838310613b77575060209250010190565b600181602092949394548385870101520191019190613b66565b600b5460009291613ba1826138ea565b80825291600181169081156139975750600114613bbc575050565b600b6000908152929350909190600080516020614e228339815191525b838310613bea575060209250010190565b600181602092949394548385870101520191019190613bd9565b60035460009291613c14826138ea565b80825291600181169081156139975750600114613c2f575050565b60036000908152929350909190600080516020614d028339815191525b838310613c5d575060209250010190565b600181602092949394548385870101520191019190613c4c565b60009291815491613c87836138ea565b8083529260018116908115613cdd5750600114613ca357505050565b60009081526020812093945091925b838310613cc3575060209250010190565b600181602092949394548385870101520191019190613cb2565b915050602093945060ff929192191683830152151560051b010190565b601054811015613d1557601060005260206000200190600090565b634e487b7160e01b600052603260045260246000fd5b601954811015613d1557601960005260206000200190600090565b601454811015613d1557601460005260206000200190600090565b8054821015613d155760005260206000200190600090565b9091613d906137d5936040845260408401906136dc565b916020818403910152613719565b15613da557565b60405162461bcd60e51b815260206004820152600c60248201526b27b7363c9031b932b0ba37b960a11b6044820152606490fd5b15613de057565b60405162461bcd60e51b815260206004820152600a602482015269456d70747920726f6c6560b01b6044820152606490fd5b15613e1957565b60405162461bcd60e51b8152602060048201526008602482015267496e61637469766560c01b6044820152606490fd5b818110613e54575050565b60008155600101613e49565b8160011b916000199060031b1c19161790565b81519192916001600160401b03811161355a57613e9082546138ea565b601f8111613f23575b506020601f8211600114613ec1578190613ebd939495600092612842575050613e60565b9055565b601f1982169083600052806000209160005b818110613f0b57509583600195969710613ef2575b505050811b019055565b015160001960f88460031b161c19169055388080613ee8565b9192602060018192868b015181550194019201613ed3565b613f4f90836000526020600020601f840160051c810191602085106128ef57601f0160051c0190613e49565b38613e99565b600e5490613f6282613822565b91613f706040519384613570565b808352600e6000908152600080516020614d22833981519152602085015b838310613f9b5750505050565b600160208192604051613fb2816108db8189613c77565b815201920192019190613f8e565b15613fc757565b60405162461bcd60e51b8152602060048201526017602482015276159bdd1a5b99c818dbdb9d1c9858dd081b9bdd081cd95d604a1b6044820152606490fd5b9061401082613822565b61401d6040519182613570565b828152809261402e601f1991613822565b0190602036910137565b1561403f57565b60405162461bcd60e51b815260206004820152601d60248201527f4f6e6c7920766f74696e6720636f6e74726163742063616e2063616c6c0000006044820152606490fd5b906060926140a16140af929796959760808552608085019061365e565b90838203602085015261365e565b9460408201520152565b60001981146140c85760010190565b634e487b7160e01b600052601160045260246000fd5b6040919493926060820195825260208201520152565b6140fe81546138ea565b9081614108575050565b81601f6000931160011461411a575055565b8183526020832061413691601f0160051c810190600101613e49565b8082528160208120915555565b1561414a57565b60405162461bcd60e51b815260206004820152601860248201527714dd1bdc9859d94818dbdb9d1c9858dd081b9bdd081cd95d60421b6044820152606490fd5b936141b76141ca936141a96137d598969460a0895260a089019061365e565b90878203602089015261365e565b916040860152848203606086015261365e565b91608081840391015261365e565b156141df57565b60405162461bcd60e51b815260206004820152600e60248201526d105b1c9958591e481b1a5b9ad95960921b6044820152606490fd5b60405190614224602083613570565b600080835282815b82811061423857505050565b80606060208093850101520161422c565b9061425382613822565b6142606040519182613570565b8281528092614271601f1991613822565b019060005b82811061428257505050565b806060602080938501015201614276565b601954600160401b81101561355a578060016142b492016019556019613d61565b81546001600160a01b0393841660039290921b91821b9390911b1916919091179055565b9291906142ef60209160408652604086019061365e565b930152565b519081151582036110be57565b60405190614310604083613570565b600f82526e6163746976655f6c6561726e696e6760881b6020830152565b919082039182116140c857565b908151811015613d15570160200190565b6040516361d25a0d60e11b8152602081600481305afa9081156144ad57600091614473575b5061446e57604051614386816108db81613a38565b60208151910120614395614301565b6020815191012014614469576040516143b1816108db81613c04565b6143b9614301565b8151815111156143cb575b5050600090565b6000905b6143dc835182519061432e565b821161445f5760019260005b8251811015614455578084018085116140c8576001600160f81b03199061440f908461433b565b51166001600160f81b0319614424838661433b565b511603614433576001016143e8565b5092509060005b61444d57614447906140b9565b906143cf565b505050600190565b509291909161443a565b50505038806143c4565b600190565b600090565b90506020813d6020116144a5575b8161448e60209383613570565b810103126110be5761449f906142f4565b38614371565b3d9150614481565b6040513d6000823e3d90fd5b8051821015613d155760209160051b010190565b604051906144dc604083613570565b600782526631b932b0ba37b960c91b6020830152565b60405190614501604083613570565b600b82526a31b7b73a3934b13aba37b960a91b6020830152565b81601f820112156110be57805161453181613593565b9261453f6040519485613570565b818452602082840101116110be576137d5916020808501910161363b565b6016546001600160a01b0316614574811515613fc0565b60105460005b8181106145d05750505061458c614215565b60209160405161459c8482613570565b6000815260003681376040516145b28582613570565b60008152936145c46040519182613570565b60008152929160009190565b6108db6145df61149083613cfa565b6040519060ff815192602081818501956145fa81838961363b565b81016011815203019020541680614777575b61461b575b505060010161457a565b6040516379c4ab1560e01b81526020600482015260008180614640602482018661365e565b0381895afa9081156144ad5760009182918391614711575b5081614708575b5061466a5750614611565b91959450925061467b91504261432e565b600f54908181106146f95750506000905b6146d0603060405180966f029b0b6b83632903230ba30903337b9160851b60208301526146bf855180928585019061363b565b81010301601f198101865285613570565b6040519060206146e08184613570565b6000835250600036813793926146f4613f55565b929190565b6147029161432e565b9061468c565b9050153861465f565b9150503d8083833e6147238183613570565b81016080828203126104e05781519061473e602084016142f4565b9361474b604085016142f4565b6060850151909490916001600160401b038311610347575061476e92910161451b565b50919038614658565b50604051628ae9fd60e31b8152602060048201819052818061479c602482018661365e565b0381895afa9081156144ad576000916147b6575b5061460c565b906020823d82116147e7575b816147cf60209383613570565b8101031261034757506147e1906142f4565b386147b0565b3d91506147c2565b51906001600160a01b03821682036110be57565b91906040838203126110be5782516001600160401b0381116110be57830181601f820112156110be5780519061483882613822565b916148466040519384613570565b80835260208084019160051b830101918483116110be57602001905b8282106148df57505050602084015190936001600160401b0382116110be57019080601f830112156110be57815161489981613822565b926148a76040519485613570565b81845260208085019260051b8201019283116110be57602001905b8282106148cf5750505090565b81518152602091820191016148c2565b602080916148ec846147ef565b815201910190614862565b156148fe57565b60405162461bcd60e51b815260206004820152600a602482015269139bc81c995c5d595cdd60b21b6044820152606490fd5b6003600091828155614944600182016140f4565b8260028201550155565b1561495557565b60405162461bcd60e51b8152602060048201526017602482015276576569676874206d75737420626520706f73697469766560481b6044820152606490fd5b1561499b57565b60405162461bcd60e51b8152602060048201526013602482015272105b1c9958591e481c185c9d1a58da5c185b9d606a1b6044820152606490fd5b6017549091906001600160a01b03166149f0811515614143565b604051926387b1735560e01b84526020600485015260208480614a16602482018561365e565b0381855afa9384156144ad57600094614c0f575b508315614bcf5760001984019384116140c857604051636173a87360e11b81529260008480614a5d8886600484016142d8565b0381865afa80156144ad57600090819682968392614b74575b50614a8082614006565b95614a8a83614249565b9560005b848110614aa15750505050509493929190565b604051637a2e9f0f60e01b81526060600482015260008180614ac6606482018761365e565b8860248301528560448301520381875afa9081156144ad576000908192614b1e575b50908291614af86001948d6144b9565b90848060a01b03169052614b0c828b6144b9565b52614b17818a6144b9565b5001614a8e565b91503d8082843e614b2f8184613570565b82019060408383031261034757614b45836147ef565b6020840151909390916001600160401b038311610347575091614b6d9160019594930161451b565b9192614ae8565b9750919550503d8086883e614b898188613570565b860160808782031261199d578651602088015190966001600160401b038211610347575090614bb991880161451b565b9060606040880151970151959196959038614a76565b505060405160209250614be28382613570565b600081526000368137614bf3614215565b600093614c036040519182613570565b60008152926000929190565b90936020823d602011614c3b575b81614c2a60209383613570565b810103126103475750519238614a2a565b3d9150614c1d565b90614cfc600080516020614dc283398151915291614c8960018060a01b03851694856000526018602052614c7f60ff6040600020541615614994565b613498600161494e565b8360005260186020526040600020600160ff1982541617905583600052601a602052614cb9816040600020613e73565b83600052601b602052600160406000205583600052601c6020524260406000205560405191829185600080516020614e82833981519152600080a24290836142d8565b0390a256fec2575a0e9e593c00f959f8c92f12db2869c3395a3b0502d05e2516446f71f85bbb7b4a454dc3493923482f07822329ed19e8244eff582cc204f8554c3620c3fd9b196abb2588eccefb36f3e6c9b15d9e260c633d5b2e0b8f497e6e71c6c1c1eac1756fd99ac9a2b1b22b5e701ddb022b897a002144d045b77ac35ce46610fef6c65a7bb8d6351c1cf70c95a316cc6a92839c986682d98bc35f958f4883f9d2a8a66cc928b5edb82af9bd49922954155ab7b0942694bea4ce44661d9a8736c688ac4f9610b174640b0a902ce555faa384cc9c9d291750f76e476f26f97bd079b49aa934e5a98d12b60dabec0f34647f2b63b8fd257ba6480e7ded4cc1ef24c5730a9c68276cabbfae61374ea354989f7b112bc3f975b6bdd05731c6b53943153b0175b7a638427703f0dbe7bb9bbf987a2551717b34e79f33b5b1008d1fa01db9f652222313e28459528d920b65115c16c04f3efc82aaedc97be59f3f377c0d3f8a35acfbc15ff81a39ae7d344fd709f28e8600b4aa8c65c6b64bfe7fe36bd19b31d3ac54da09405b02d1de0ee0de648de637fbdc111123be0d7fc31f2a544c0ba2646970667358221220260d15ca58e430a8d0bebbd8c0891bd1e5ae4c493bb2bac138ebbbca0abb221864736f6c634300081c0033",
  "linkReferences": {},
  "deployedLinkReferences": {}
}