{
  "_format": "hh-sol-artifact-1",
  "contractName": "Project",
  "sourceName": "contracts/Project.sol",
  "abi": [
    {
      "inputs": [
        {
          "internalType": "address",
          "name": "_creator",
          "type": "address"
        },
        {
          "internalType": "string",
          "name": "_projectData",
          "type": "string"
        }
      ],
      "stateMutability": "nonpayable",
      "type": "constructor"
    },
    {
      "anonymous": false,
      "inputs": [
        {
          "indexed": false,
          "internalType": "uint256",
          "name": "round",
          "type": "uint256"
        },
        {
          "indexed": false,
          "internalType": "uint256",
          "name": "completedSamples",
          "type": "uint256"
        },
        {
          "indexed": false,
          "internalType": "uint256",
          "name": "timestamp",
          "type": "uint256"
        }
      ],
      "name": "ALBatchCompleted",
      "type": "event"
    },
    {
      "anonymous": false,
      "inputs": [
        {
          "indexed": false,
          "internalType": "uint256",
          "name": "round",
          "type": "uint256"
        },
        {
          "indexed": false,
          "internalType": "uint256",
          "name": "sampleCount",
          "type": "uint256"
        },
        {
          "indexed": false,
          "internalType": "uint256",
          "name": "timestamp",
          "type": "uint256"
        }
      ],
      "name": "ALBatchStarted",
      "type": "event"
    },
    {
      "anonymous": false,
      "inputs": [
        {
          "indexed": false,
          "internalType": "address",
          "name": "votingContract",
          "type": "address"
        },
        {
          "indexed": false,
          "internalType": "address",
          "name": "storageContract",
          "type": "address"
        }
      ],
      "name": "ALContractsDeployed",
      "type": "event"
    },
    {
      "anonymous": false,
      "inputs": [
        {
          "indexed": false,
          "internalType": "uint256",
          "name": "round",
          "type": "uint256"
        },
        {
          "indexed": false,
          "internalType": "string",
          "name": "reason",
          "type": "string"
        },
        {
          "indexed": false,
          "internalType": "uint256",
          "name": "timestamp",
          "type": "uint256"
        }
      ],
      "name": "ALRoundTriggered",
      "type": "event"
    },
    {
      "anonymous": false,
      "inputs": [
        {
          "indexed": false,
          "internalType": "string",
          "name": "sampleId",
          "type": "string"
        },
        {
          "indexed": false,
          "internalType": "string",
          "name": "label",
          "type": "string"
        },
        {
          "indexed": false,
          "internalType": "uint256",
          "name": "round",
          "type": "uint256"
        },
        {
          "indexed": false,
          "internalType": "uint256",
          "name": "timestamp",
          "type": "uint256"
        }
      ],
      "name": "AutoLabelStored",
      "type": "event"
    },
    {
      "anonymous": false,
      "inputs": [
        {
          "indexed": true,
          "internalType": "address",
          "name": "updater",
          "type": "address"
        },
        {
          "indexed": false,
          "internalType": "string",
          "name": "rocrateHashFinal",
          "type": "string"
        },
        {
          "indexed": false,
          "internalType": "uint256",
          "name": "timestamp",
          "type": "uint256"
        }
      ],
      "name": "FinalROCrateHashUpdated",
      "type": "event"
    },
    {
      "anonymous": false,
      "inputs": [
        {
          "indexed": true,
          "internalType": "address",
          "name": "invitee",
          "type": "address"
        },
        {
          "indexed": true,
          "internalType": "address",
          "name": "project",
          "type": "address"
        },
        {
          "indexed": false,
          "internalType": "uint256",
          "name": "timestamp",
          "type": "uint256"
        }
      ],
      "name": "InvitationAccepted",
      "type": "event"
    },
    {
      "anonymous": false,
      "inputs": [
        {
          "indexed": true,
          "internalType": "address",
          "name": "invitee",
          "type": "address"
        },
        {
          "indexed": true,
          "internalType": "address",
          "name": "project",
          "type": "address"
        },
        {
          "indexed": false,
          "internalType": "uint256",
          "name": "timestamp",
          "type": "uint256"
        }
      ],
      "name": "InvitationRejected",
      "type": "event"
    },
    {
      "anonymous": false,
      "inputs": [
        {
          "indexed": true,
          "internalType": "address",
          "name": "invitee",
          "type": "address"
        },
        {
          "indexed": true,
          "internalType": "address",
          "name": "inviter",
          "type": "address"
        },
        {
          "indexed": false,
          "internalType": "string",
          "name": "role",
          "type": "string"
        },
        {
          "indexed": false,
          "internalType": "uint256",
          "name": "timestamp",
          "type": "uint256"
        }
      ],
      "name": "InvitationSent",
      "type": "event"
    },
    {
      "anonymous": false,
      "inputs": [
        {
          "indexed": true,
          "internalType": "address",
          "name": "requester",
          "type": "address"
        },
        {
          "indexed": true,
          "internalType": "address",
          "name": "approver",
          "type": "address"
        },
        {
          "indexed": false,
          "internalType": "uint256",
          "name": "timestamp",
          "type": "uint256"
        }
      ],
      "name": "JoinRequestApproved",
      "type": "event"
    },
    {
      "anonymous": false,
      "inputs": [
        {
          "indexed": true,
          "internalType": "address",
          "name": "requester",
          "type": "address"
        },
        {
          "indexed": true,
          "internalType": "address",
          "name": "rejector",
          "type": "address"
        },
        {
          "indexed": false,
          "internalType": "uint256",
          "name": "timestamp",
          "type": "uint256"
        }
      ],
      "name": "JoinRequestRejected",
      "type": "event"
    },
    {
      "anonymous": false,
      "inputs": [
        {
          "indexed": true,
          "internalType": "address",
          "name": "requester",
          "type": "address"
        },
        {
          "indexed": false,
          "internalType": "string",
          "name": "role",
          "type": "string"
        },
        {
          "indexed": false,
          "internalType": "uint256",
          "name": "timestamp",
          "type": "uint256"
        }
      ],
      "name": "JoinRequestSubmitted",
      "type": "event"
    },
    {
      "anonymous": false,
      "inputs": [
        {
          "indexed": true,
          "internalType": "address",
          "name": "participant",
          "type": "address"
        },
        {
          "indexed": false,
          "internalType": "string",
          "name": "role",
          "type": "string"
        },
        {
          "indexed": false,
          "internalType": "uint256",
          "name": "weight",
          "type": "uint256"
        }
      ],
      "name": "ParticipantAutoAdded",
      "type": "event"
    },
    {
      "anonymous": false,
      "inputs": [
        {
          "indexed": true,
          "internalType": "address",
          "name": "participant",
          "type": "address"
        },
        {
          "indexed": false,
          "internalType": "string",
          "name": "role",
          "type": "string"
        },
        {
          "indexed": false,
          "internalType": "uint256",
          "name": "weight",
          "type": "uint256"
        }
      ],
      "name": "ParticipantUpdated",
      "type": "event"
    },
    {
      "anonymous": false,
      "inputs": [
        {
          "indexed": true,
          "internalType": "address",
          "name": "creator",
          "type": "address"
        },
        {
          "indexed": false,
          "internalType": "uint256",
          "name": "timestamp",
          "type": "uint256"
        }
      ],
      "name": "ProjectCreated",
      "type": "event"
    },
    {
      "anonymous": false,
      "inputs": [
        {
          "indexed": true,
          "internalType": "address",
          "name": "creator",
          "type": "address"
        },
        {
          "indexed": false,
          "internalType": "uint256",
          "name": "timestamp",
          "type": "uint256"
        }
      ],
      "name": "ProjectDeactivated",
      "type": "event"
    },
    {
      "anonymous": false,
      "inputs": [
        {
          "indexed": true,
          "internalType": "address",
          "name": "trigger",
          "type": "address"
        },
        {
          "indexed": false,
          "internalType": "string",
          "name": "reason",
          "type": "string"
        },
        {
          "indexed": false,
          "internalType": "uint256",
          "name": "currentRound",
          "type": "uint256"
        },
        {
          "indexed": false,
          "internalType": "uint256",
          "name": "timestamp",
          "type": "uint256"
        }
      ],
      "name": "ProjectEndTriggered",
      "type": "event"
    },
    {
      "anonymous": false,
      "inputs": [
        {
          "indexed": true,
          "internalType": "address",
          "name": "creator",
          "type": "address"
        },
        {
          "indexed": false,
          "internalType": "uint256",
          "name": "timestamp",
          "type": "uint256"
        }
      ],
      "name": "ProjectReactivated",
      "type": "event"
    },
    {
      "anonymous": false,
      "inputs": [
        {
          "indexed": true,
          "internalType": "address",
          "name": "updater",
          "type": "address"
        },
        {
          "indexed": false,
          "internalType": "uint256",
          "name": "timestamp",
          "type": "uint256"
        }
      ],
      "name": "ProjectUpdated",
      "type": "event"
    },
    {
      "anonymous": false,
      "inputs": [
        {
          "indexed": false,
          "internalType": "uint256",
          "name": "newRound",
          "type": "uint256"
        }
      ],
      "name": "RoundIncremented",
      "type": "event"
    },
    {
      "anonymous": false,
      "inputs": [
        {
          "indexed": false,
          "internalType": "string",
          "name": "sampleId",
          "type": "string"
        },
        {
          "indexed": false,
          "internalType": "address",
          "name": "voter",
          "type": "address"
        },
        {
          "indexed": false,
          "internalType": "string",
          "name": "label",
          "type": "string"
        },
        {
          "indexed": false,
          "internalType": "uint256",
          "name": "timestamp",
          "type": "uint256"
        }
      ],
      "name": "VoteSubmitted",
      "type": "event"
    },
    {
      "anonymous": false,
      "inputs": [
        {
          "indexed": false,
          "internalType": "uint256",
          "name": "round",
          "type": "uint256"
        },
        {
          "indexed": false,
          "internalType": "uint256",
          "name": "voterCount",
          "type": "uint256"
        },
        {
          "indexed": false,
          "internalType": "uint256",
          "name": "timestamp",
          "type": "uint256"
        }
      ],
      "name": "VotersUpdated",
      "type": "event"
    },
    {
      "anonymous": false,
      "inputs": [
        {
          "indexed": false,
          "internalType": "string",
          "name": "sampleId",
          "type": "string"
        },
        {
          "indexed": false,
          "internalType": "string",
          "name": "finalLabel",
          "type": "string"
        },
        {
          "indexed": false,
          "internalType": "uint256",
          "name": "round",
          "type": "uint256"
        },
        {
          "indexed": false,
          "internalType": "uint256",
          "name": "timestamp",
          "type": "uint256"
        }
      ],
      "name": "VotingSessionEnded",
      "type": "event"
    },
    {
      "anonymous": false,
      "inputs": [
        {
          "indexed": false,
          "internalType": "string",
          "name": "sampleId",
          "type": "string"
        },
        {
          "indexed": false,
          "internalType": "uint256",
          "name": "round",
          "type": "uint256"
        },
        {
          "indexed": false,
          "internalType": "uint256",
          "name": "timeout",
          "type": "uint256"
        },
        {
          "indexed": false,
          "internalType": "uint256",
          "name": "timestamp",
          "type": "uint256"
        }
      ],
      "name": "VotingSessionStarted",
      "type": "event"
    },
    {
      "inputs": [],
      "name": "acceptInvitation",
      "outputs": [],
      "stateMutability": "nonpayable",
      "type": "function"
    },
    {
      "inputs": [
        {
          "internalType": "address",
          "name": "_participant",
          "type": "address"
        }
      ],
      "name": "addParticipant",
      "outputs": [],
      "stateMutability": "nonpayable",
      "type": "function"
    },
    {
      "inputs": [
        {
          "internalType": "address",
          "name": "_participant",
          "type": "address"
        },
        {
          "internalType": "string",
          "name": "_role",
          "type": "string"
        },
        {
          "internalType": "uint256",
          "name": "_weight",
          "type": "uint256"
        }
      ],
      "name": "addParticipantWithRole",
      "outputs": [],
      "stateMutability": "nonpayable",
      "type": "function"
    },
    {
      "inputs": [],
      "name": "alScenario",
      "outputs": [
        {
          "internalType": "string",
          "name": "",
          "type": "string"
        }
      ],
      "stateMutability": "view",
      "type": "function"
    },
    {
      "inputs": [
        {
          "internalType": "address",
          "name": "_requester",
          "type": "address"
        }
      ],
      "name": "approveJoinRequest",
      "outputs": [],
      "stateMutability": "nonpayable",
      "type": "function"
    },
    {
      "inputs": [],
      "name": "createdAt",
      "outputs": [
        {
          "internalType": "uint256",
          "name": "",
          "type": "uint256"
        }
      ],
      "stateMutability": "view",
      "type": "function"
    },
    {
      "inputs": [],
      "name": "creator",
      "outputs": [
        {
          "internalType": "address",
          "name": "",
          "type": "address"
        }
      ],
      "stateMutability": "view",
      "type": "function"
    },
    {
      "inputs": [],
      "name": "currentRound",
      "outputs": [
        {
          "internalType": "uint256",
          "name": "",
          "type": "uint256"
        }
      ],
      "stateMutability": "view",
      "type": "function"
    },
    {
      "inputs": [],
      "name": "deactivateProject",
      "outputs": [],
      "stateMutability": "nonpayable",
      "type": "function"
    },
    {
      "inputs": [],
      "name": "description",
      "outputs": [
        {
          "internalType": "string",
          "name": "",
          "type": "string"
        }
      ],
      "stateMutability": "view",
      "type": "function"
    },
    {
      "inputs": [
        {
          "internalType": "uint256",
          "name": "round",
          "type": "uint256"
        }
      ],
      "name": "endBatchVoting",
      "outputs": [],
      "stateMutability": "nonpayable",
      "type": "function"
    },
    {
      "inputs": [],
      "name": "endTime",
      "outputs": [
        {
          "internalType": "uint256",
          "name": "",
          "type": "uint256"
        }
      ],
      "stateMutability": "view",
      "type": "function"
    },
    {
      "inputs": [],
      "name": "getALConfiguration",
      "outputs": [
        {
          "internalType": "string",
          "name": "_queryStrategy",
          "type": "string"
        },
        {
          "internalType": "string",
          "name": "_alScenario",
          "type": "string"
        },
        {
          "internalType": "uint256",
          "name": "_maxIteration",
          "type": "uint256"
        },
        {
          "internalType": "uint256",
          "name": "_currentRound",
          "type": "uint256"
        },
        {
          "internalType": "uint256",
          "name": "_queryBatchSize",
          "type": "uint256"
        },
        {
          "internalType": "uint256",
          "name": "_votingTimeout",
          "type": "uint256"
        },
        {
          "internalType": "string[]",
          "name": "_labelSpace",
          "type": "string[]"
        }
      ],
      "stateMutability": "view",
      "type": "function"
    },
    {
      "inputs": [],
      "name": "getAllParticipants",
      "outputs": [
        {
          "internalType": "address[]",
          "name": "participantAddresses",
          "type": "address[]"
        },
        {
          "internalType": "string[]",
          "name": "roles",
          "type": "string[]"
        },
        {
          "internalType": "uint256[]",
          "name": "weights",
          "type": "uint256[]"
        },
        {
          "internalType": "uint256[]",
          "name": "joinTimestamps",
          "type": "uint256[]"
        }
      ],
      "stateMutability": "view",
      "type": "function"
    },
    {
      "inputs": [],
      "name": "getCreator",
      "outputs": [
        {
          "internalType": "address",
          "name": "",
          "type": "address"
        }
      ],
      "stateMutability": "view",
      "type": "function"
    },
    {
      "inputs": [],
      "name": "getCurrentBatchSampleIds",
      "outputs": [
        {
          "internalType": "string[]",
          "name": "",
          "type": "string[]"
        }
      ],
      "stateMutability": "view",
      "type": "function"
    },
    {
      "inputs": [],
      "name": "getFinalROCrateHash",
      "outputs": [
        {
          "internalType": "string",
          "name": "",
          "type": "string"
        }
      ],
      "stateMutability": "view",
      "type": "function"
    },
    {
      "inputs": [
        {
          "internalType": "address",
          "name": "_invitee",
          "type": "address"
        }
      ],
      "name": "getInvitation",
      "outputs": [
        {
          "internalType": "address",
          "name": "invitee",
          "type": "address"
        },
        {
          "internalType": "string",
          "name": "role",
          "type": "string"
        },
        {
          "internalType": "uint256",
          "name": "timestamp",
          "type": "uint256"
        },
        {
          "internalType": "bool",
          "name": "exists",
          "type": "bool"
        }
      ],
      "stateMutability": "view",
      "type": "function"
    },
    {
      "inputs": [],
      "name": "getIsActive",
      "outputs": [
        {
          "internalType": "bool",
          "name": "",
          "type": "bool"
        }
      ],
      "stateMutability": "view",
      "type": "function"
    },
    {
      "inputs": [
        {
          "internalType": "address",
          "name": "_requester",
          "type": "address"
        }
      ],
      "name": "getJoinRequest",
      "outputs": [
        {
          "internalType": "address",
          "name": "requester",
          "type": "address"
        },
        {
          "internalType": "string",
          "name": "role",
          "type": "string"
        },
        {
          "internalType": "uint256",
          "name": "timestamp",
          "type": "uint256"
        },
        {
          "internalType": "bool",
          "name": "exists",
          "type": "bool"
        }
      ],
      "stateMutability": "view",
      "type": "function"
    },
    {
      "inputs": [],
      "name": "getProjectData",
      "outputs": [
        {
          "internalType": "string",
          "name": "",
          "type": "string"
        }
      ],
      "stateMutability": "view",
      "type": "function"
    },
    {
      "inputs": [],
      "name": "getProjectMetadata",
      "outputs": [
        {
          "internalType": "string",
          "name": "_title",
          "type": "string"
        },
        {
          "internalType": "string",
          "name": "_description",
          "type": "string"
        },
        {
          "internalType": "address",
          "name": "_owner",
          "type": "address"
        },
        {
          "internalType": "string",
          "name": "_projectType",
          "type": "string"
        },
        {
          "internalType": "string",
          "name": "_rocrateHash",
          "type": "string"
        },
        {
          "internalType": "uint256",
          "name": "_start",
          "type": "uint256"
        },
        {
          "internalType": "uint256",
          "name": "_end",
          "type": "uint256"
        },
        {
          "internalType": "string",
          "name": "_queryStrategy",
          "type": "string"
        },
        {
          "internalType": "string",
          "name": "_alScenario",
          "type": "string"
        },
        {
          "internalType": "uint256",
          "name": "_maxIteration",
          "type": "uint256"
        },
        {
          "internalType": "uint256",
          "name": "_queryBatchSize",
          "type": "uint256"
        },
        {
          "internalType": "string[]",
          "name": "_labelSpace",
          "type": "string[]"
        }
      ],
      "stateMutability": "view",
      "type": "function"
    },
    {
      "inputs": [],
      "name": "getProjectStatus",
      "outputs": [
        {
          "internalType": "bool",
          "name": "active",
          "type": "bool"
        },
        {
          "internalType": "uint256",
          "name": "created",
          "type": "uint256"
        },
        {
          "internalType": "uint256",
          "name": "modified",
          "type": "uint256"
        },
        {
          "internalType": "address",
          "name": "projectCreator",
          "type": "address"
        }
      ],
      "stateMutability": "view",
      "type": "function"
    },
    {
      "inputs": [],
      "name": "getTimestamps",
      "outputs": [
        {
          "internalType": "uint256",
          "name": "created",
          "type": "uint256"
        },
        {
          "internalType": "uint256",
          "name": "modified",
          "type": "uint256"
        }
      ],
      "stateMutability": "view",
      "type": "function"
    },
    {
      "inputs": [],
      "name": "hasALContracts",
      "outputs": [
        {
          "internalType": "bool",
          "name": "",
          "type": "bool"
        }
      ],
      "stateMutability": "view",
      "type": "function"
    },
    {
      "inputs": [],
      "name": "incrementRound",
      "outputs": [],
      "stateMutability": "nonpayable",
      "type": "function"
    },
    {
      "inputs": [
        {
          "internalType": "address",
          "name": "",
          "type": "address"
        }
      ],
      "name": "invitations",
      "outputs": [
        {
          "internalType": "address",
          "name": "invitee",
          "type": "address"
        },
        {
          "internalType": "string",
          "name": "role",
          "type": "string"
        },
        {
          "internalType": "uint256",
          "name": "timestamp",
          "type": "uint256"
        },
        {
          "internalType": "bool",
          "name": "exists",
          "type": "bool"
        }
      ],
      "stateMutability": "view",
      "type": "function"
    },
    {
      "inputs": [
        {
          "internalType": "uint256",
          "name": "",
          "type": "uint256"
        }
      ],
      "name": "invitees",
      "outputs": [
        {
          "internalType": "address",
          "name": "",
          "type": "address"
        }
      ],
      "stateMutability": "view",
      "type": "function"
    },
    {
      "inputs": [],
      "name": "isActive",
      "outputs": [
        {
          "internalType": "bool",
          "name": "",
          "type": "bool"
        }
      ],
      "stateMutability": "view",
      "type": "function"
    },
    {
      "inputs": [
        {
          "internalType": "string",
          "name": "sampleId",
          "type": "string"
        }
      ],
      "name": "isSampleActive",
      "outputs": [
        {
          "internalType": "bool",
          "name": "",
          "type": "bool"
        }
      ],
      "stateMutability": "view",
      "type": "function"
    },
    {
      "inputs": [
        {
          "internalType": "address",
          "name": "",
          "type": "address"
        }
      ],
      "name": "joinRequests",
      "outputs": [
        {
          "internalType": "address",
          "name": "requester",
          "type": "address"
        },
        {
          "internalType": "string",
          "name": "role",
          "type": "string"
        },
        {
          "internalType": "uint256",
          "name": "timestamp",
          "type": "uint256"
        },
        {
          "internalType": "bool",
          "name": "exists",
          "type": "bool"
        }
      ],
      "stateMutability": "view",
      "type": "function"
    },
    {
      "inputs": [
        {
          "internalType": "address",
          "name": "",
          "type": "address"
        }
      ],
      "name": "joinedAt",
      "outputs": [
        {
          "internalType": "uint256",
          "name": "",
          "type": "uint256"
        }
      ],
      "stateMutability": "view",
      "type": "function"
    },
    {
      "inputs": [
        {
          "internalType": "uint256",
          "name": "",
          "type": "uint256"
        }
      ],
      "name": "labelSpace",
      "outputs": [
        {
          "internalType": "string",
          "name": "",
          "type": "string"
        }
      ],
      "stateMutability": "view",
      "type": "function"
    },
    {
      "inputs": [],
      "name": "lastModified",
      "outputs": [
        {
          "internalType": "uint256",
          "name": "",
          "type": "uint256"
        }
      ],
      "stateMutability": "view",
      "type": "function"
    },
    {
      "inputs": [],
      "name": "maxIteration",
      "outputs": [
        {
          "internalType": "uint256",
          "name": "",
          "type": "uint256"
        }
      ],
      "stateMutability": "view",
      "type": "function"
    },
    {
      "inputs": [],
      "name": "needsALDeployment",
      "outputs": [
        {
          "internalType": "bool",
          "name": "",
          "type": "bool"
        }
      ],
      "stateMutability": "view",
      "type": "function"
    },
    {
      "inputs": [],
      "name": "notifyUnlabeledSamplesExhausted",
      "outputs": [],
      "stateMutability": "nonpayable",
      "type": "function"
    },
    {
      "inputs": [
        {
          "internalType": "string",
          "name": "sampleId",
          "type": "string"
        },
        {
          "internalType": "string",
          "name": "finalLabel",
          "type": "string"
        }
      ],
      "name": "notifyVotingSessionEnded",
      "outputs": [],
      "stateMutability": "nonpayable",
      "type": "function"
    },
    {
      "inputs": [
        {
          "internalType": "string",
          "name": "sampleId",
          "type": "string"
        }
      ],
      "name": "notifyVotingSessionStarted",
      "outputs": [],
      "stateMutability": "nonpayable",
      "type": "function"
    },
    {
      "inputs": [
        {
          "internalType": "address",
          "name": "",
          "type": "address"
        }
      ],
      "name": "participantRoles",
      "outputs": [
        {
          "internalType": "string",
          "name": "",
          "type": "string"
        }
      ],
      "stateMutability": "view",
      "type": "function"
    },
    {
      "inputs": [
        {
          "internalType": "address",
          "name": "",
          "type": "address"
        }
      ],
      "name": "participantWeights",
      "outputs": [
        {
          "internalType": "uint256",
          "name": "",
          "type": "uint256"
        }
      ],
      "stateMutability": "view",
      "type": "function"
    },
    {
      "inputs": [
        {
          "internalType": "uint256",
          "name": "",
          "type": "uint256"
        }
      ],
      "name": "participants",
      "outputs": [
        {
          "internalType": "address",
          "name": "",
          "type": "address"
        }
      ],
      "stateMutability": "view",
      "type": "function"
    },
    {
      "inputs": [],
      "name": "projectData",
      "outputs": [
        {
          "internalType": "string",
          "name": "",
          "type": "string"
        }
      ],
      "stateMutability": "view",
      "type": "function"
    },
    {
      "inputs": [],
      "name": "projectType",
      "outputs": [
        {
          "internalType": "string",
          "name": "",
          "type": "string"
        }
      ],
      "stateMutability": "view",
      "type": "function"
    },
    {
      "inputs": [],
      "name": "queryBatchSize",
      "outputs": [
        {
          "internalType": "uint256",
          "name": "",
          "type": "uint256"
        }
      ],
      "stateMutability": "view",
      "type": "function"
    },
    {
      "inputs": [],
      "name": "queryStrategy",
      "outputs": [
        {
          "internalType": "string",
          "name": "",
          "type": "string"
        }
      ],
      "stateMutability": "view",
      "type": "function"
    },
    {
      "inputs": [],
      "name": "reactivateProject",
      "outputs": [],
      "stateMutability": "nonpayable",
      "type": "function"
    },
    {
      "inputs": [
        {
          "internalType": "string",
          "name": "sampleId",
          "type": "string"
        },
        {
          "internalType": "string",
          "name": "label",
          "type": "string"
        }
      ],
      "name": "receiveFinalLabelFromVoting",
      "outputs": [],
      "stateMutability": "nonpayable",
      "type": "function"
    },
    {
      "inputs": [],
      "name": "rejectInvitation",
      "outputs": [],
      "stateMutability": "nonpayable",
      "type": "function"
    },
    {
      "inputs": [
        {
          "internalType": "address",
          "name": "_requester",
          "type": "address"
        }
      ],
      "name": "rejectJoinRequest",
      "outputs": [],
      "stateMutability": "nonpayable",
      "type": "function"
    },
    {
      "inputs": [
        {
          "internalType": "uint256",
          "name": "",
          "type": "uint256"
        }
      ],
      "name": "requesters",
      "outputs": [
        {
          "internalType": "address",
          "name": "",
          "type": "address"
        }
      ],
      "stateMutability": "view",
      "type": "function"
    },
    {
      "inputs": [],
      "name": "rocrateHash",
      "outputs": [
        {
          "internalType": "string",
          "name": "",
          "type": "string"
        }
      ],
      "stateMutability": "view",
      "type": "function"
    },
    {
      "inputs": [],
      "name": "rocrateHashFinal",
      "outputs": [
        {
          "internalType": "string",
          "name": "",
          "type": "string"
        }
      ],
      "stateMutability": "view",
      "type": "function"
    },
    {
      "inputs": [
        {
          "internalType": "address",
          "name": "_invitee",
          "type": "address"
        },
        {
          "internalType": "string",
          "name": "_role",
          "type": "string"
        }
      ],
      "name": "sendInvitation",
      "outputs": [],
      "stateMutability": "nonpayable",
      "type": "function"
    },
    {
      "inputs": [
        {
          "internalType": "string",
          "name": "_rocrateHashFinal",
          "type": "string"
        }
      ],
      "name": "setFinalROCrateHash",
      "outputs": [],
      "stateMutability": "nonpayable",
      "type": "function"
    },
    {
      "inputs": [
        {
          "internalType": "string",
          "name": "_title",
          "type": "string"
        },
        {
          "internalType": "string",
          "name": "_description",
          "type": "string"
        },
        {
          "internalType": "string",
          "name": "_projectType",
          "type": "string"
        },
        {
          "internalType": "string",
          "name": "_rocrateHash",
          "type": "string"
        }
      ],
      "name": "setProjectMetadata",
      "outputs": [],
      "stateMutability": "nonpayable",
      "type": "function"
    },
    {
      "inputs": [
        {
          "internalType": "uint256",
          "name": "_start",
          "type": "uint256"
        },
        {
          "internalType": "uint256",
          "name": "_end",
          "type": "uint256"
        }
      ],
      "name": "setStartAndEndTime",
      "outputs": [],
      "stateMutability": "nonpayable",
      "type": "function"
    },
    {
      "inputs": [
        {
          "internalType": "address",
          "name": "_votingContract",
          "type": "address"
        },
        {
          "internalType": "address",
          "name": "_storageContract",
          "type": "address"
        },
        {
          "internalType": "string",
          "name": "_queryStrategy",
          "type": "string"
        },
        {
          "internalType": "string",
          "name": "_alScenario",
          "type": "string"
        },
        {
          "internalType": "uint256",
          "name": "_maxIteration",
          "type": "uint256"
        },
        {
          "internalType": "uint256",
          "name": "_queryBatchSize",
          "type": "uint256"
        },
        {
          "internalType": "string[]",
          "name": "_labelSpace",
          "type": "string[]"
        },
        {
          "internalType": "string",
          "name": "_rocrateHash",
          "type": "string"
        }
      ],
      "name": "setupALProject",
      "outputs": [],
      "stateMutability": "nonpayable",
      "type": "function"
    },
    {
      "inputs": [],
      "name": "shouldProjectEnd",
      "outputs": [
        {
          "internalType": "bool",
          "name": "shouldEnd",
          "type": "bool"
        },
        {
          "internalType": "string",
          "name": "reason",
          "type": "string"
        }
      ],
      "stateMutability": "view",
      "type": "function"
    },
    {
      "inputs": [
        {
          "internalType": "string[]",
          "name": "sampleIds",
          "type": "string[]"
        }
      ],
      "name": "startBatchVoting",
      "outputs": [],
      "stateMutability": "nonpayable",
      "type": "function"
    },
    {
      "inputs": [],
      "name": "startTime",
      "outputs": [
        {
          "internalType": "uint256",
          "name": "",
          "type": "uint256"
        }
      ],
      "stateMutability": "view",
      "type": "function"
    },
    {
      "inputs": [],
      "name": "storageContract",
      "outputs": [
        {
          "internalType": "address",
          "name": "",
          "type": "address"
        }
      ],
      "stateMutability": "view",
      "type": "function"
    },
    {
      "inputs": [
        {
          "internalType": "string",
          "name": "sampleId",
          "type": "string"
        },
        {
          "internalType": "string",
          "name": "label",
          "type": "string"
        },
        {
          "internalType": "uint256",
          "name": "round",
          "type": "uint256"
        }
      ],
      "name": "storeFinalLabel",
      "outputs": [],
      "stateMutability": "nonpayable",
      "type": "function"
    },
    {
      "inputs": [
        {
          "internalType": "string[]",
          "name": "sampleIds",
          "type": "string[]"
        },
        {
          "internalType": "string[]",
          "name": "labels",
          "type": "string[]"
        }
      ],
      "name": "submitBatchVote",
      "outputs": [],
      "stateMutability": "nonpayable",
      "type": "function"
    },
    {
      "inputs": [
        {
          "internalType": "string",
          "name": "_role",
          "type": "string"
        }
      ],
      "name": "submitJoinRequest",
      "outputs": [],
      "stateMutability": "nonpayable",
      "type": "function"
    },
    {
      "inputs": [],
      "name": "title",
      "outputs": [
        {
          "internalType": "string",
          "name": "",
          "type": "string"
        }
      ],
      "stateMutability": "view",
      "type": "function"
    },
    {
      "inputs": [
        {
          "internalType": "string",
          "name": "reason",
          "type": "string"
        }
      ],
      "name": "triggerNextRound",
      "outputs": [],
      "stateMutability": "nonpayable",
      "type": "function"
    },
    {
      "inputs": [],
      "name": "unlabeledSamplesExhausted",
      "outputs": [
        {
          "internalType": "bool",
          "name": "",
          "type": "bool"
        }
      ],
      "stateMutability": "view",
      "type": "function"
    },
    {
      "inputs": [
        {
          "internalType": "address",
          "name": "_participant",
          "type": "address"
        },
        {
          "internalType": "string",
          "name": "_role",
          "type": "string"
        },
        {
          "internalType": "uint256",
          "name": "_weight",
          "type": "uint256"
        }
      ],
      "name": "updateParticipant",
      "outputs": [],
      "stateMutability": "nonpayable",
      "type": "function"
    },
    {
      "inputs": [
        {
          "internalType": "string",
          "name": "_newProjectData",
          "type": "string"
        }
      ],
      "name": "updateProjectData",
      "outputs": [],
      "stateMutability": "nonpayable",
      "type": "function"
    },
    {
      "inputs": [
        {
          "internalType": "string",
          "name": "_newProjectData",
          "type": "string"
        }
      ],
      "name": "updateProjectDataAfterAcceptance",
      "outputs": [],
      "stateMutability": "nonpayable",
      "type": "function"
    },
    {
      "inputs": [
        {
          "internalType": "string",
          "name": "_rocrateHash",
          "type": "string"
        }
      ],
      "name": "updateROCrateHash",
      "outputs": [],
      "stateMutability": "nonpayable",
      "type": "function"
    },
    {
      "inputs": [],
      "name": "votingContract",
      "outputs": [
        {
          "internalType": "address",
          "name": "",
          "type": "address"
        }
      ],
      "stateMutability": "view",
      "type": "function"
    },
    {
      "inputs": [],
      "name": "votingTimeout",
      "outputs": [
        {
          "internalType": "uint256",
          "name": "",
          "type": "uint256"
        }
      ],
      "stateMutability": "view",
      "type": "function"
    }
  ],
  "bytecode": "0x6080604052346103cb5761516f80380380610019816103d0565b9283398101906040818303126103cb5780516001600160a01b03811691908290036103cb576020810151906001600160401b0382116103cb570182601f820112156103cb578051906001600160401b0382116102a457610082601f8301601f19166020016103d0565b93828552602083830101116103cb5760005b8281106103b6575050602060009184010152610e1060105560ff19601e5416601e5581511561038457600080546001600160a01b0319168217905581516001600160401b0381116102a4576100ea6003546103f5565b601f811161032a575b50602092601f82116001146102c557928192936000926102ba575b50508160011b916000199060031b1c1916176003555b4260018190556002556000805460ff60a01b1916600160a01b179055601954680100000000000000008110156102a457600181018060195581101561028e577f944998273e477b495144fb8794c914197f3ccb46be2900f4698fd0ef743c96950180546001600160a01b031916821790556000818152601a6020526040902080546101ae906103f5565b601f811161026c575b50600e6631b932b0ba37b960c91b01905580600052601b602052600160406000205580600052601c60205242604060002055807f20bfd29f3d906f96fc35742fac45a554b19cbd4e21f8c4c1d84cb58fdfc32c896020604051428152a27fbceee304ac8d461cb65ac9f6dc37bbcb2c2c34c155224ffbfdc4752b89008f73608060405160408152600760408201526631b932b0ba37b960c91b606082015260016020820152a2604051614d2890816104478239f35b6102889082600052601f6020600020910160051c81019061042f565b386101b7565b634e487b7160e01b600052603260045260246000fd5b634e487b7160e01b600052604160045260246000fd5b01519050388061010e565b601f198216936003600052806000209160005b86811061031257508360019596106102f9575b505050811b01600355610124565b015160001960f88460031b161c191690553880806102eb565b919260206001819286850151815501940192016102d8565b6003600052610374907fc2575a0e9e593c00f959f8c92f12db2869c3395a3b0502d05e2516446f71f85b601f840160051c8101916020851061037a575b601f0160051c019061042f565b386100f3565b9091508190610367565b60405162461bcd60e51b815260206004820152600a602482015269456d707479206461746160b01b6044820152606490fd5b80602080928401015182828801015201610094565b600080fd5b6040519190601f01601f191682016001600160401b038111838210176102a457604052565b90600182811c92168015610425575b602083101461040f57565b634e487b7160e01b600052602260045260246000fd5b91607f1691610404565b81811061043a575050565b6000815560010161042f56fe608080604052600436101561001357600080fd5b600090813560e01c90816302d05d3f146132f557508063040023d61461323e5780630ee2cb101461321757806310218f4d146131ba57806311ce0267146131915780631633e06214612d85578063195ec9ee14612c6357806319b2122714612bde5780631af9fd1714612a76578063211a85e6146126ef57806322f3e2d4146126ca57806329f5e65a146124d05780632b17b8be146124995780633197cbb61461247b57806332c6afd01461240a57806335c1d349146123df578063383e1a5e1461237c57806343862d2314612358578063461e198b146122775780634a79d50c1461225357806355b31b551461158157806358f43f761461220357806359abbfe4146121de5780635bb06c0b14611d135780635e1a6c1714611ce85780636ac4e50e14611c685780636c86d12414611c455780637284e41614611c21578063728f111214611b5e57806377c39c2114611b405780637847f1de1461196557806378e979251461194757806379ec4f19146118cf5780637a83a44b146118aa5780637c13f6cf146118725780637f52cadc1461184e57806380a8c849146117b057806384958fc3146115c35780638a19c8bc146115a55780639c0768b314611581578063a07401841461155d578063a6ea915b1461149b578063ab34c9e914611462578063b061106814611395578063b0942ce514611377578063b2be4d65146111fb578063b568647914611164578063b70825dc14611120578063b8c3903414611058578063b9be92f914610f5a578063bbffd04c14610e4e578063be27151a14610cda578063c1fc006a14610cb1578063c2e4fe5a14610c6b578063c2fc0d2614610c47578063c3a4b41a14610c01578063c3feda1714610b53578063c47d1724146106b2578063c4b192f714610afa578063c6765d2814610a4f578063cf09e0d014610a31578063d2291e11146109a9578063d64c58a714610970578063dfafe10f1461090e578063dfb748aa14610847578063e0308323146107e5578063e1d5a2c814610735578063e7aa3afc146106f1578063e807c0b2146106b2578063ef2131061461063d578063f1bc33b41461061f578063f7267cfd14610601578063f75eade0146103765763fba7cc791461034f57600080fd5b3461037357806003193601126103735760ff6020915460a01c166040519015158152f35b80fd5b503461037357604036600319011261037357610390613319565b6024356001600160401b0381116105fd576103af903690600401613388565b825490916001600160a01b038216916103d99060ff906103d0338614613b68565b60a01c16613bdc565b6001600160a01b03169081156105be57811461058157808352601460205260ff6003604085200154166105405761041282511515613ba3565b808352601a60205261043061042a60408520546136e5565b15614313565b61046660405161043f81613334565b82815283602082015242604082015260016060820152828552601460205260408520614355565b8283601654905b81811061050b575b5050156104b5575b7f07501885e0e140e0232eed19016a41bde16b8de699d11e7a461f88d6ba58a9cd604051806104af33954290836143ed565b0390a380f35b601654600160401b8110156104f7578060016104d6920160165560166136cd565b81546001600160a01b0360039290921b91821b19169083901b17905561047d565b634e487b7160e01b84526041600452602484fd5b83610515826136b2565b905460039190911b1c6001600160a01b0316146105345760010161046d565b50505060013880610475565b60405162461bcd60e51b8152602060048201526019602482015278496e7669746174696f6e20616c72656164792065786973747360381b6044820152606490fd5b60405162461bcd60e51b815260206004820152601560248201527421b0b73737ba1034b73b34ba329031b932b0ba37b960591b6044820152606490fd5b60405162461bcd60e51b8152602060048201526017602482015276496e76616c696420696e7669746565206164647265737360481b6044820152606490fd5b8280fd5b50346103735780600319360112610373576020600254604051908152f35b50346103735780600319360112610373576020601054604051908152f35b5034610373576020366003190112610373576040906001600160a01b03610662613319565b16815260136020522060018060a01b038154166106ae604051926106948461068d8160018501613ae5565b0385613365565b60ff60036002830154920154169060405194859485613618565b0390f35b50346103735780600319360112610373576106ae6040516106dd816106d681613a72565b0382613365565b604051918291602083526020830190613519565b503461037357806003193601126103735760809054600154906002546040519260ff8360a01c16151584526020840152604083015260018060a01b03166060820152f35b50346103735780600319360112610373576017546001600160a01b031633036107b25780604051610767602082613365565b52601d546001810180911161079e57602081600080516020614c3383398151915292601d55604051908152a161079b614777565b80f35b634e487b7160e01b82526011600452602482fd5b60405162461bcd60e51b815260206004820152600b60248201526a4f6e6c7920766f74696e6760a81b6044820152606490fd5b503461037357602036600319011261037357600435906001600160401b03821161037357602060ff6108318261081e3660048801613388565b81604051938285809451938492016134f6565b8101601281520301902054166040519015158152f35b503461037357602036600319011261037357610861613319565b61087560018060a01b038354163314613b68565b6108ca6108be60018060a01b0383169283855260136020526108a060ff600360408820015416614655565b83855260136020526108c56001604087200160405193848092613ae5565b0383613365565b6146d4565b80825260136020526108de6040832061425f565b604051904282527f423eb00b6a18c3ecfc2170a0e40ef0bad995279070614ba2e4be1b94f67eb88860203393a380f35b50346103735760203660031901126103735761079b61092b613319565b61093f60018060a01b038454163314613b68565b6001600160a01b0381168352601a60205260408320546109629061042a906136e5565b61096a613f90565b906146d4565b5034610373576020366003190112610373576020906040906001600160a01b03610998613319565b168152601b83522054604051908152f35b50346103735780600319360112610373576011546109c681613424565b916109d46040519384613365565b81835260118152600080516020614b93833981519152602084015b838310610a0c57604051602080825281906106ae9082018861353e565b600160208192604051610a23816106d68189613ae5565b8152019201920191906109ef565b50346103735780600319360112610373576020600154604051908152f35b5034610373576020366003190112610373576004356001600160401b038111610af657610a83610ac3913690600401613388565b610a9360ff845460a01c16613bdc565b610a9f81511515613c13565b338352601a602052610abe610ab760408520546136e5565b1515613fb9565b613c76565b426002556040514281527fc1756fd99ac9a2b1b22b5e701ddb022b897a002144d045b77ac35ce46610fef660203392a280f35b5080fd5b5034610373576020366003190112610373576004356001600160401b038111610af657610b2e610ac3913690600401613388565b610b4260018060a01b038454163314613b68565b610b4e815115156142c7565b613d65565b50346103735780600319360112610373578054610b7a336001600160a01b03831614613b68565b60ff8160a01c16610bcb5760ff60a01b1916600160a01b17815542600281905560405190815233907fb351ba71ddc1d2bf39667cebde99fb92eb26b9f418d5049ba0200888ba81071590602090a280f35b60405162461bcd60e51b815260206004820152600e60248201526d416c72656164792061637469766560901b6044820152606490fd5b50346103735780600319360112610373576017546001600160a01b0316151580610c33575b6020906040519015158152f35b506018546001600160a01b03161515610c26565b50346103735780600319360112610373576106ae6040516106dd816106d681613833565b5034610373576020366003190112610373576106ae906106d6906106dd906040906001600160a01b03610c9c613319565b168152601a6020522060405192838092613ae5565b50346103735780600319360112610373576017546040516001600160a01b039091168152602090f35b5034610373576020366003190112610373576004356001600160401b038111610af657610d0b90369060040161343b565b610d1f60018060a01b038354163314613b68565b6017546001600160a01b0316610d36811515613f36565b815115610e1457601d549060018201809211610e005790839181601d55610d5b614777565b803b156105fd57829182916040518094818094630e7dc0d160e41b825260406004830152610d8c604483018b61353e565b90602483015203925af18015610df557610de0575b507f24c323b0138f1f608c855cccb8550ac649c15bf3cea39b8fdbde80d33258a74f82601d549051610dda604051928392429184614169565b0390a180f35b81610dea91613365565b610af6578138610da1565b6040513d84823e3d90fd5b634e487b7160e01b84526011600452602484fd5b60405162461bcd60e51b815260206004820152601260248201527108adae0e8f240e6c2dae0d8ca40c4c2e8c6d60731b6044820152606490fd5b50346103735780600319360112610373578054610e75336001600160a01b03831614613b68565b60ff8160a01c1615610f225760ff60a01b19168155426002556040514281527f17064d72ee4a5901e55dfa45024ea8f67cdb4895ba6364ab2f8e7223f642ad3660203392a2601d546040519060608252602560608301527f50726f6a656374206d616e75616c6c7920656e64656420627920636f6f7264696080830152643730ba37b960d91b60a08301526020820152426040820152600080516020614bd383398151915260c03392a280f35b60405162461bcd60e51b815260206004820152601060248201526f416c726561647920696e61637469766560801b6044820152606490fd5b503461037357610f69366133de565b91610f7e60018060a01b038554163314613b68565b6001600160a01b0316808452601a6020526040842054909290610fa0906136e5565b1561101f5781610fd37fe8c250df70afa51c6916b9661d224a47fd9568cb0c1c9d0d49e2e45cc729a98793511515613ba3565b610fde82151561468e565b838552601a602052610ff38160408720613e54565b838552601b60205281604086205542600255611014604051928392836143ed565b0390a261079b614859565b60405162461bcd60e51b8152602060048201526011602482015270139bdd0818481c185c9d1a58da5c185b9d607a1b6044820152606490fd5b50346103735760203660031901126103735760043561108160018060a01b038354163314613b68565b6017546001600160a01b0316611098811515613f36565b601d5482036110eb578291813b156110e7578291602483926040519485938492632e30e40d60e21b845260048401525af18015610df5576110d65750f35b816110e091613365565b6103735780f35b5050fd5b60405162461bcd60e51b815260206004820152600d60248201526c125b9d985b1a59081c9bdd5b99609a1b6044820152606490fd5b5034610373576020366003190112610373576004359060165482101561037357602061114b836136b2565b905460405160039290921b1c6001600160a01b03168152f35b50346103735760203660031901126103735761117e613319565b61119260018060a01b038354163314613b68565b6001600160a01b0316808252601360205260408220600301546111b79060ff16614655565b80825260136020526111cb6040832061425f565b604051904282527f1a69e67d1be897d0ca0cf1517b4d17e345b4272a80bc900f9fe8e96f261ca1db60203393a380f35b5034610373576020366003190112610373576004356001600160401b038111610af65761122c903690600401613388565b61124160018060a01b036017541633146140e8565b604051815190602081818501936112598183876134f6565b81016012815203019020600160ff19825416179055828391601154925b838110611337575b5050156112cb575b506112b4600080516020614b7383398151915291601d54601054604051938493608085526080850190613519565b91602084015260408301524260608301520390a180f35b600160401b811015611323578060016112e7920160115561367c565b61130f5781611308600080516020614b73833981519152936112b493613e54565b9150611286565b634e487b7160e01b83526004839052602483fd5b634e487b7160e01b83526041600452602483fd5b6106d66113536113468361367c565b5060405192838092613ae5565b60208151910120855183201461136b57600101611276565b5050506001388061127e565b50346103735780600319360112610373576020600d54604051908152f35b5034610373576113a4366135cb565b906113ba60018060a01b036017541633146140e8565b60185483906001600160a01b03166113d38115156145e5565b601d5490803b156105fd5760405163a6ea915b60e01b81529183918391829084908290611405908b8b6004850161462c565b03925af18015610df55761144d575b50507f503607074d0e95d8c0c6b1660c3441384010e05305da22aef0594eb3fcae623691610dda601d5492604051938493429285614134565b8161145791613365565b6105fd578238611414565b5034610373576020366003190112610373576020906040906001600160a01b0361148a613319565b168152601c83522054604051908152f35b503461037357606036600319011261037357806004356001600160401b03811161155a576114cd903690600401613388565b6024356001600160401b0381116110e7576114ec903690600401613388565b61150060018060a01b038454163314613b68565b6018546001600160a01b0316916115188315156145e5565b823b15611557576115469284928360405180968195829463a6ea915b60e01b8452604435916004850161462c565b03925af18015610df5576110d65750f35b50505b50fd5b50346103735780600319360112610373576106ae6040516106dd816106d681613919565b50346103735780600319360112610373576106ae6040516106dd816106d6816139ff565b50346103735780600319360112610373576020601d54604051908152f35b5034610373576020366003190112610373576004356001600160401b038111610af6576115f4903690600401613388565b9061160960018060a01b038254163314613b68565b81511561175f578151916001600160401b03831161174b5761162c6008546136e5565b601f8111611704575b50602092601f81116001146116a357808394611658939491611698575b50613c63565b6008555b426002557fad44b517dc31b3f923480dd93ac031881f73b79bbac3f58972598878941472446040518061169233944290836143ed565b0390a280f35b905083015138611652565b60088352838320601f19821694845b8681106116ec5750826001949596106116d3575b5050811b0160085561165c565b84015160001960f88460031b161c1916905538806116c6565b909160206001819285880151815501930191016116b2565b6008835261173b90600080516020614c13833981519152601f860160051c81019160208710611741575b601f0160051c0190613c4c565b38611635565b909150819061172e565b634e487b7160e01b82526041600452602482fd5b60405162461bcd60e51b815260206004820152602360248201527f46696e616c20524f2d437261746520686173682063616e6e6f7420626520656d60448201526270747960e81b6064820152608490fd5b503461037357806003193601126103735761181e600d546106ae601d5491600e5492601054604051946117ed866117e681613919565b0387613365565b604051926117fe8461068d8161398c565b61182c61180961407d565b94604051998a9960e08b5260e08b0190613519565b9089820360208b0152613519565b9460408801526060870152608086015260a085015283820360c085015261353e565b50346103735780600319360112610373576106ae6040516106dd816106d68161398c565b503461037357806003193601126103735761188b6144c6565b906106ae60405192839215158352604060208401526040830190613519565b503461037357806003193601126103735760206118c5614409565b6040519015158152f35b503461037357604036600319011261037357600435602435906118fc60018060a01b038454163314613b68565b8181101561190d57600955600a5580f35b60405162461bcd60e51b8152602060048201526012602482015271496e76616c69642074696d652072616e676560701b6044820152606490fd5b50346103735780600319360112610373576020600954604051908152f35b5034610373576020366003190112610373576004356001600160401b038111610af657611996903690600401613388565b81546119a760ff8260a01c16613bdc565b6001600160a01b03163314611b0557338252601360205260ff600360408420015416611acf576119d981511515613ba3565b611a0f6040516119e881613334565b33815282602082015242604082015260016060820152338452601360205260408420614355565b8182601554905b818110611a9a575b505015611a58575b7fe4d6c018abd0178d4bce0856089ef1876318617b97a1d700bb98506598ab0afc6040518061169233944290836143ed565b601554600160401b81101561132357806001611a79920160155560156136cd565b81546001600160a01b0360039290921b91821b19163390911b179055611a26565b611aa381613697565b905460039190911b1c6001600160a01b03163314611ac357600101611a16565b50505060013880611a1e565b60405162461bcd60e51b815260206004820152600e60248201526d526571756573742065786973747360901b6044820152606490fd5b60405162461bcd60e51b815260206004820152601360248201527221b932b0ba37b91031b0b73737ba103537b4b760691b6044820152606490fd5b50346103735780600319360112610373576020600e54604051908152f35b5034610373578060031936011261037357611b7f60ff825460a01c16613bdc565b3381526014602052611b9a60ff60036040842001541661421d565b338152601a602052611bb261042a60408320546136e5565b3381526014602052611bdc6106d6611bd66001604085200160405192838092613ae5565b336146d4565b3381526014602052611bf06040822061425f565b60405142815230907f7b7404d30440087c51e068aac60d434f5a3a121313c035893fdf187c11d077b660203392a380f35b50346103735780600319360112610373576106ae6040516106dd816106d6816137ae565b5034610373578060031936011261037357602060ff601e54166040519015158152f35b503461037357602036600319011261037357600435600f54811015610af657600f54811015611cd457600f8252600080516020614cd3833981519152019080611cc0576040516106ae906106dd816106d68187613ae5565b634e487b7160e01b81526004819052602490fd5b634e487b7160e01b82526032600452602482fd5b5034610373576020366003190112610373576004359060155482101561037357602061114b83613697565b50346103735761010036600319011261037357611d2e613319565b6024356001600160a01b038116908190036105fd576044356001600160401b0381116121da57611d62903690600401613388565b6064356001600160401b0381116121d657611d81903690600401613388565b60a43591608435919060c4356001600160401b0381116121d257611da990369060040161343b565b9460e4356001600160401b0381116121ce57611dc9903690600401613388565b96611dde60018060a01b038a54163314613b68565b6001600160a01b0316801515806121c5575b156121835760175490611e0c6001600160a01b0383161561427d565b60185491611e236001600160a01b0384161561427d565b861561214657871561210c57611e3b8a5115156142c7565b6001600160a01b0319908116919091176017551617601855611e5b614859565b8051906001600160401b0382116120f857611e77600b546136e5565b601f81116120bc575b50602090601f831160011461205757611ea39291899183611f97575b5050613c63565b600b555b8051906001600160401b03821161204357611ec3600c546136e5565b601f8111612007575b50602090601f8311600114611fa257611eee9291889183611f97575050613c63565b600c555b600d55600e55805190600160401b82116104f757600f5482600f55808310611f5e575b50600f84528390600080516020614cd3833981519152906020015b838310611f415785610ac386613d65565b6001602082611f5283945186613e54565b01920192019190611f30565b600f8552600080516020614cd38339815191529081019083015b818110611f855750611f15565b80611f9160019261417f565b01611f78565b015190503880611e9c565b600c88528188209190601f198416895b818110611fef5750908460019594939210611fd6575b505050811b01600c55611ef2565b015160001960f88460031b161c19169055388080611fc8565b92936020600181928786015181550195019301611fb2565b600c885261203d90600080516020614b33833981519152601f850160051c8101916020861061174157601f0160051c0190613c4c565b38611ecc565b634e487b7160e01b87526041600452602487fd5b600b89528189209190601f1984168a5b8181106120a4575090846001959493921061208b575b505050811b01600b55611ea7565b015160001960f88460031b161c1916905538808061207d565b92936020600181928786015181550195019301612067565b600b89526120f290600080516020614c53833981519152601f850160051c8101916020861061174157601f0160051c0190613c4c565b38611e80565b634e487b7160e01b88526041600452602488fd5b60405162461bcd60e51b8152602060048201526012602482015271496e76616c69642062617463682073697a6560701b6044820152606490fd5b60405162461bcd60e51b815260206004820152601560248201527424b73b30b634b21036b0bc1034ba32b930ba34b7b760591b6044820152606490fd5b60405162461bcd60e51b815260206004820152601a602482015279496e76616c696420636f6e74726163742061646472657373657360301b6044820152606490fd5b50811515611df0565b8880fd5b8780fd5b8480fd5b8380fd5b5034610373578060031936011261037357604060015460025482519182526020820152f35b5034610373576020366003190112610373576040906001600160a01b03612228613319565b16815260146020522060018060a01b038154166106ae604051926106948461068d8160018501613ae5565b50346103735780600319360112610373576106ae6040516106dd816106d68161371f565b5034610373576020366003190112610373576004356001600160401b038111610af6576122a8903690600401613388565b81546122c59060ff906103d0336001600160a01b03831614613b68565b601d54906001820180921161234457817fbb4ba47257d82c025e976bcdc375cc2e26de94efd111bca20cbc9a330d29745561232c602093600080516020614c3383398151915295601d55426002556040519182918583526060878401526060830190613519565b4260408301520390a1604051908152a161079b614777565b634e487b7160e01b83526011600452602483fd5b50346103735780600319360112610373576106ae6040516106dd816106d6816138a6565b5034610373576020366003190112610373576123b3906040906001600160a01b036123a5613319565b1681526013602052206141cf565b60018060a01b038151166106ae6020830151926060604082015191015115159060405194859485613618565b5034610373576020366003190112610373576004359060195482101561037357602061114b8361364b565b5034610373578060031936011261037357338152601460205261243660ff60036040842001541661421d565b338152601460205261244a6040822061425f565b60405142815230907ff7bcbaa371c3a472d8f63f253317d896d63bf307f5e8e913f8eeb9351bc0d4c660203392a380f35b50346103735780600319360112610373576020600a54604051908152f35b5034610373576020366003190112610373576123b3906040906001600160a01b036124c2613319565b1681526014602052206141cf565b5034610373576125537f0a1e2f362ccc64de291011914f5087c611557a7331c80f2cdd2aacf89b9dc564612503366135cb565b61251860018060a01b036017541633146140e8565b604051602081845161252d81838589016134f6565b8101601281520301902060ff198154169055601d54938492604051938493429285614134565b0390a1600190829183601154905b8181106126005750816125f6575b50612578578280f35b7f72db402a1d505e0ee50fba411e34bd1f9a6e90ab67b824c438255e747a886b28916125ab604051928392429184614169565b0390a160115481601155806125bf57808280f35b60118252600080516020614b93833981519152908101905b8181106125e45750808280f35b806125f060019261417f565b016125d7565b905015153861256f565b9161260a8361367c565b5060405190879080549061261d826136e5565b91600181169081156126b2575060011461267f575b50506012815281900360200190205460ff16156126555750600185925b01612561565b9193600019811461266b5760018091019461264f565b634e487b7160e01b86526011600452602486fd5b90915088526020882088905b82821061269e5750508101602082612632565b60018160209254848701520191019061268b565b60ff1916855250508015150282019050602082612632565b503461037357806003193601126103735760ff6020915460a01c166040519015158152f35b5034610373576080366003190112610373576004356001600160401b038111610af657612720903690600401613388565b906024356001600160401b038111610af657612740903690600401613388565b916044356001600160401b0381116105fd57612760903690600401613388565b6064356001600160401b0381116121da5761277f903690600401613388565b9161279460018060a01b038554163314613b68565b8051906001600160401b038211612a62576127b06004546136e5565b601f8111612a26575b50602090601f83116001146129c1576127db9291869183611f97575050613c63565b6004555b83516001600160401b0381116104f7576127fa6005546136e5565b601f8111612990575b50602094601f821160011461292c578495829161282894959692611f97575050613c63565b6005555b8051906001600160401b0382116104f7576128486006546136e5565b601f81116128f0575b50602090601f83116001146128875791806128789261288095948792611f97575050613c63565b600655613d65565b4260025580f35b600685528185209190601f198416865b8181106128d85750916001939185612880979694106128bf575b505050811b01600655613d65565b015160001960f88460031b161c191690553880806128b1565b92936020600181928786015181550195019301612897565b6006855261292690600080516020614c73833981519152601f850160051c8101916020861061174157601f0160051c0190613c4c565b38612851565b601f198216956005865280862091865b8881106129785750836001959697981061295f575b505050811b0160055561282c565b015160001960f88460031b161c19169055388080612951565b9192602060018192868501518155019401920161293c565b6129bb906005865260208620601f840160051c8101916020851061174157601f0160051c0190613c4c565b38612803565b600486528186209190601f198416875b818110612a0e57509084600195949392106129f5575b505050811b016004556127df565b015160001960f88460031b161c191690553880806129e7565b929360206001819287860151815501950193016129d1565b60048652612a5c90600080516020614c93833981519152601f850160051c8101916020861061174157601f0160051c0190613c4c565b386127b9565b634e487b7160e01b85526041600452602485fd5b5034610373578060031936011261037357600160a01b60019003905416600954600a5491600d54600e546040519384612aae8161371f565b03612ab99086613365565b6040519586612ac7816137ae565b03612ad29088613365565b6040519182612ae081613833565b03612aeb9084613365565b6040519182612af9816138a6565b03612b049084613365565b6040519283612b1281613919565b03612b1d9085613365565b6040519485612b2b8161398c565b03612b369087613365565b612b3e61407d565b986040519b8c9b6101808d526101808d01612b5891613519565b8c810360208e0152612b6991613519565b9060408c01528a810360608c0152612b8091613519565b89810360808b0152612b9191613519565b9160a089015260c088015286810360e0880152612bad91613519565b858103610100870152612bbf91613519565b916101208501526101408401528281036101608401526106ae9161353e565b5034610373578060031936011261037357612c0360018060a01b038254163314613b68565b601e5460ff8116612c205760ff1916600117601e5561079b614777565b60405162461bcd60e51b815260206004820152601b60248201527a105b1c9958591e481b585c9ad95908185cc8195e1a185d5cdd1959602a1b6044820152606490fd5b503461037357806003193601126103735760195490612c8182614001565b90612c8b83614033565b612c9484614001565b93612c9e81614001565b92805b828110612cf657612ccc866106ae87612ce88b612cda8a6040519788976080895260808901906134b9565b90878203602089015261353e565b908582036040870152613597565b908382036060850152613597565b80612d0260019261364b565b838060a01b0391549060031b1c1680612d1b838a613f7c565b52808452601a6020526106d6612d3a6040862060405192838092613ae5565b612d448388613f7c565b52612d4f8287613f7c565b50808452601b6020526040842054612d67838b613f7c565b528352601c6020526040832054612d7e8288613f7c565b5201612ca1565b5034610373576040366003190112610373576004356001600160401b038111610af657612db690369060040161343b565b6024356001600160401b0381116105fd57612dd590369060040161343b565b601754909190612def906001600160a01b03161515613f36565b80518251036131585780511561312557825b8151811015612f185760ff612e2f6020612e1b8486613f7c565b5181604051938285809451938492016134f6565b81016012815203019020541615612ed457612e4a8183613f7c565b515115612e9d57612e5b8184613f7c565b515115612e6a57600101612e01565b60405162461bcd60e51b815260206004820152600b60248201526a115b5c1d1e481b1858995b60aa1b6044820152606490fd5b60405162461bcd60e51b815260206004820152600f60248201526e115b5c1d1e481cd85b5c1b19481251608a1b6044820152606490fd5b60405162461bcd60e51b815260206004820152601c60248201527b53616d706c65206e6f742061637469766520666f7220766f74696e6760201b6044820152606490fd5b509190338252601a602052612f3060408320546136e5565b15613115575b338252601a602052612f4e610ab760408420546136e5565b6017546040516320a7c73b60e11b81523360048201526001600160a01b039091169290602081602481875afa908115610df55782916130e3575b501561308e57805b845181101561301057807f55b5b37db3e79e0cf5fa16c3b213f5856ebaf6a6e58c56813245533b65587bbd612fed612fca60019489613f7c565b51613001612fd88589613f7c565b51604051938493608085526080850190613519565b903360208501528382036040850152613519565b4260608301520390a101612f90565b50928391833b156105fd5761305c9361304a84809460405197889586948593639a6e81ab60e01b855260606004860152606485019061353e565b8381036003190160248501529061353e565b33604483015203925af18015613081576130735780f35b61307c91613365565b388180f35b50604051903d90823e3d90fd5b60405162461bcd60e51b815260206004820152602760248201527f566f746572206e6f74207265676973746572656420696e20766f74696e6720636044820152661bdb9d1c9858dd60ca1b6064820152608490fd5b90506020813d60201161310d575b816130fe60209383613365565b81010312610af6575138612f88565b3d91506130f1565b613120611bd6613f90565b612f36565b60405162461bcd60e51b815260206004820152600b60248201526a08adae0e8f240c4c2e8c6d60ab1b6044820152606490fd5b60405162461bcd60e51b81526020600482015260116024820152704d69736d6174636865642061727261797360781b6044820152606490fd5b50346103735780600319360112610373576018546040516001600160a01b039091168152602090f35b5034610373576020366003190112610373576004356001600160401b038111610af6576131ee610ac3913690600401613388565b825461320b9060ff906103d0336001600160a01b03831614613b68565b610abe81511515613c13565b5034610373578060031936011261037357546040516001600160a01b039091168152602090f35b503461037357600080516020614cb383398151915261325c366133de565b9061327460018060a09695961b038654163314613b68565b61328081511515613ba3565b6132b560018060a01b03851694858752601a6020526132a561042a60408920546136e5565b6132b084151561468e565b6143a8565b838552601a6020526132ca8160408720613e54565b838552601b602052816040862055838552601c602052426040862055611014604051928392836143ed565b905034610af65781600319360112610af65790546001600160a01b03168152602090f35b600435906001600160a01b038216820361332f57565b600080fd5b608081019081106001600160401b0382111761334f57604052565b634e487b7160e01b600052604160045260246000fd5b601f909101601f19168101906001600160401b0382119082101761334f57604052565b81601f8201121561332f578035906001600160401b03821161334f57604051926133bc601f8401601f191660200185613365565b8284526020838301011161332f57816000926020809301838601378301015290565b90606060031983011261332f576004356001600160a01b038116810361332f5791602435906001600160401b03821161332f5761341d91600401613388565b9060443590565b6001600160401b03811161334f5760051b60200190565b9080601f8301121561332f57813561345281613424565b926134606040519485613365565b81845260208085019260051b8201019183831161332f5760208201905b83821061348c57505050505090565b81356001600160401b03811161332f576020916134ae87848094880101613388565b81520191019061347d565b906020808351928381520192019060005b8181106134d75750505090565b82516001600160a01b03168452602093840193909201916001016134ca565b60005b8381106135095750506000910152565b81810151838201526020016134f9565b90602091613532815180928185528580860191016134f6565b601f01601f1916010190565b9080602083519182815201916020808360051b8301019401926000915b83831061356a57505050505090565b9091929394602080613588600193601f198682030187528951613519565b9701930193019193929061355b565b906020808351928381520192019060005b8181106135b55750505090565b82518452602093840193909201916001016135a8565b90604060031983011261332f576004356001600160401b03811161332f57826135f691600401613388565b91602435906001600160401b03821161332f5761361591600401613388565b90565b9294939060609261363e9160018060a01b03168552608060208601526080850190613519565b9460408401521515910152565b60195481101561366657601960005260206000200190600090565b634e487b7160e01b600052603260045260246000fd5b60115481101561366657601160005260206000200190600090565b60155481101561366657601560005260206000200190600090565b60165481101561366657601660005260206000200190600090565b80548210156136665760005260206000200190600090565b90600182811c92168015613715575b60208310146136ff57565b634e487b7160e01b600052602260045260246000fd5b91607f16916136f4565b6004546000929161372f826136e5565b8082529160018116908115613792575060011461374a575050565b60046000908152929350909190600080516020614c938339815191525b838310613778575060209250010190565b600181602092949394548385870101520191019190613767565b9050602093945060ff929192191683830152151560051b010190565b600554600092916137be826136e5565b808252916001811690811561379257506001146137d9575050565b600560009081529293509091907f036b6384b5eca791c62761152d0c79bb0604c104a5fb6f4eb0703f3154bb3db05b838310613819575060209250010190565b600181602092949394548385870101520191019190613808565b60065460009291613843826136e5565b8082529160018116908115613792575060011461385e575050565b60066000908152929350909190600080516020614c738339815191525b83831061388c575060209250010190565b60018160209294939454838587010152019101919061387b565b600754600092916138b6826136e5565b808252916001811690811561379257506001146138d1575050565b60076000908152929350909190600080516020614bb38339815191525b8383106138ff575060209250010190565b6001816020929493945483858701015201910191906138ee565b600b5460009291613929826136e5565b80825291600181169081156137925750600114613944575050565b600b6000908152929350909190600080516020614c538339815191525b838310613972575060209250010190565b600181602092949394548385870101520191019190613961565b600c546000929161399c826136e5565b808252916001811690811561379257506001146139b7575050565b600c6000908152929350909190600080516020614b338339815191525b8383106139e5575060209250010190565b6001816020929493945483858701015201910191906139d4565b60035460009291613a0f826136e5565b80825291600181169081156137925750600114613a2a575050565b60036000908152929350909190600080516020614b538339815191525b838310613a58575060209250010190565b600181602092949394548385870101520191019190613a47565b60085460009291613a82826136e5565b80825291600181169081156137925750600114613a9d575050565b60086000908152929350909190600080516020614c138339815191525b838310613acb575060209250010190565b600181602092949394548385870101520191019190613aba565b60009291815491613af5836136e5565b8083529260018116908115613b4b5750600114613b1157505050565b60009081526020812093945091925b838310613b31575060209250010190565b600181602092949394548385870101520191019190613b20565b915050602093945060ff929192191683830152151560051b010190565b15613b6f57565b60405162461bcd60e51b815260206004820152600c60248201526b27b7363c9031b932b0ba37b960a11b6044820152606490fd5b15613baa57565b60405162461bcd60e51b815260206004820152600a602482015269456d70747920726f6c6560b01b6044820152606490fd5b15613be357565b60405162461bcd60e51b8152602060048201526008602482015267496e61637469766560c01b6044820152606490fd5b15613c1a57565b60405162461bcd60e51b815260206004820152600a602482015269456d707479206461746160b01b6044820152606490fd5b818110613c57575050565b60008155600101613c4c565b8160011b916000199060031b1c19161790565b80519091906001600160401b03811161334f57613c946003546136e5565b601f8111613d28575b50602092601f8211600114613cc657613cc192938291600092611f97575050613c63565b600355565b601f198216936003600052806000209160005b868110613d105750836001959610613cf7575b505050811b01600355565b015160001960f88460031b161c19169055388080613cec565b91926020600181928685015181550194019201613cd9565b6003600052613d5f90600080516020614b53833981519152601f840160051c8101916020851061174157601f0160051c0190613c4c565b38613c9d565b80519091906001600160401b03811161334f57613d836007546136e5565b601f8111613e17575b50602092601f8211600114613db557613db092938291600092611f97575050613c63565b600755565b601f198216936007600052806000209160005b868110613dff5750836001959610613de6575b505050811b01600755565b015160001960f88460031b161c19169055388080613ddb565b91926020600181928685015181550194019201613dc8565b6007600052613e4e90600080516020614bb3833981519152601f840160051c8101916020851061174157601f0160051c0190613c4c565b38613d8c565b81519192916001600160401b03811161334f57613e7182546136e5565b601f8111613f04575b506020601f8211600114613ea2578190613e9e939495600092611f97575050613c63565b9055565b601f1982169083600052806000209160005b818110613eec57509583600195969710613ed3575b505050811b019055565b015160001960f88460031b161c19169055388080613ec9565b9192602060018192868b015181550194019201613eb4565b613f3090836000526020600020601f840160051c8101916020851061174157601f0160051c0190613c4c565b38613e7a565b15613f3d57565b60405162461bcd60e51b8152602060048201526017602482015276159bdd1a5b99c818dbdb9d1c9858dd081b9bdd081cd95d604a1b6044820152606490fd5b80518210156136665760209160051b010190565b60405190613f9f604083613365565b600b82526a31b7b73a3934b13aba37b960a91b6020830152565b15613fc057565b60405162461bcd60e51b8152602060048201526019602482015278139bdd0818481c1c9bda9958dd081c185c9d1a58da5c185b9d603a1b6044820152606490fd5b9061400b82613424565b6140186040519182613365565b8281528092614029601f1991613424565b0190602036910137565b9061403d82613424565b61404a6040519182613365565b828152809261405b601f1991613424565b019060005b82811061406c57505050565b806060602080938501015201614060565b600f549061408a82613424565b916140986040519384613365565b808352600f6000908152600080516020614cd3833981519152602085015b8383106140c35750505050565b6001602081926040516140da816106d68189613ae5565b8152019201920191906140b6565b156140ef57565b60405162461bcd60e51b815260206004820152601d60248201527f4f6e6c7920766f74696e6720636f6e74726163742063616e2063616c6c0000006044820152606490fd5b9060609261415161415f9297969597608085526080850190613519565b908382036020850152613519565b9460408201520152565b6040919493926060820195825260208201520152565b61418981546136e5565b9081614193575050565b81601f600093116001146141a65750555b565b818352602083206141c291601f0160051c810190600101613c4c565b8082528160208120915555565b906040516141dc81613334565b606060ff6003839560018060a01b038154168552604051614204816106d68160018601613ae5565b6020860152600281015460408601520154161515910152565b1561422457565b60405162461bcd60e51b8152602060048201526013602482015272139bc81a5b9d9a5d185d1a5bdb88199bdd5b99606a1b6044820152606490fd5b60036000918281556142736001820161417f565b8260028201550155565b1561428457565b60405162461bcd60e51b815260206004820152601b60248201527a10530818dbdb9d1c9858dd1cc8185b1c9958591e481b1a5b9ad959602a1b6044820152606490fd5b156142ce57565b60405162461bcd60e51b815260206004820152601d60248201527f524f2d437261746520686173682063616e6e6f7420626520656d7074790000006044820152606490fd5b1561431a57565b60405162461bcd60e51b8152602060048201526013602482015272105b1c9958591e481c185c9d1a58da5c185b9d606a1b6044820152606490fd5b815181546001600160a01b0319166001600160a01b0391909116178155602082015160609160039161438a9060018301613e54565b6040840151600282015501910151151560ff80198354169116179055565b601954600160401b81101561334f578060016143c9920160195560196136cd565b81546001600160a01b0393841660039290921b91821b9390911b1916919091179055565b929190614404602091604086526040860190613519565b930152565b6040516361d25a0d60e11b8152602081600481305afa9081156144ba5760009161447f575b5061447a57604051614443816106d681613833565b60208151910120600f602060405161445c604082613365565b828152016e6163746976655f6c6561726e696e6760881b8152201490565b600090565b6020813d6020116144b2575b8161449860209383613365565b81010312610af6575190811515820361037357503861442e565b3d915061448b565b6040513d6000823e3d90fd5b60ff60005460a01c16156145a857600d54801515908161459b575b506145605760ff601e541661452857600090604051614501604082613365565b601781527650726f6a656374206973207374696c6c2061637469766560481b602082015290565b600190604051614539606082613365565b60238152600080516020614bf3833981519152602082015262626c6560e81b604082015290565b600190604051614571604082613365565b601a81527913585e1a5b5d5b481a5d195c985d1a5bdb9cc81c995858da195960321b602082015290565b9050601d541015386144e1565b6001906040516145b9604082613365565b601c81527b141c9bda9958dd081b585b9d585b1b1e4819195858dd1a5d985d195960221b602082015290565b156145ec57565b60405162461bcd60e51b815260206004820152601860248201527714dd1bdc9859d94818dbdb9d1c9858dd081b9bdd081cd95d60421b6044820152606490fd5b93929161440490614647604093606088526060880190613519565b908682036020880152613519565b1561465c57565b60405162461bcd60e51b815260206004820152600a602482015269139bc81c995c5d595cdd60b21b6044820152606490fd5b1561469557565b60405162461bcd60e51b8152602060048201526017602482015276576569676874206d75737420626520706f73697469766560481b6044820152606490fd5b90614765600080516020614cb38339815191529161471960018060a01b0385169485600052601a60205261470f61042a6040600020546136e5565b6132b0600161468e565b83600052601a602052614730816040600020613e54565b83600052601b602052600160406000205583600052601c60205242604060002055604051918291604083526040830190613519565b600160208301520390a26141a4614859565b60ff60005460a01c16156141a457600d54801515908161484c575b506147f65760ff601e54166147a357565b601d54604051906060825260236060830152600080516020614bf3833981519152608083015262626c6560e81b60a08301526020820152426040820152600080516020614bd383398151915260c03392a2565b601d546040519060608252601a60608301527913585e1a5b5d5b481a5d195c985d1a5bdb9cc81c995858da195960321b60808301526020820152426040820152600080516020614bd383398151915260a03392a2565b9050601d54101538614792565b6017546000906001600160a01b03168015614b2e57601954908115614b29578261488283614001565b61488b84614033565b9361489581614001565b90835b818110614aa9575050906148f36148cf926148e1604051978895869563cdbf3d0160e01b87526060600488015260648701906134b9565b8581036003190160248701529061353e565b83810360031901604485015290613597565b0381845afa918215614a9e5783908493614985575b508051614916575b50505050565b813b156121da5791839161494d8361495f9560405196879586948593631d70957f60e21b85526040600486015260448501906134b9565b83810360031901602485015290613597565b03925af18015610df557614975575b8080614910565b8161497f91613365565b3861496e565b9250503d8084843e6149978184613365565b8201916040818403126121da5780516001600160401b0381116121d65781019083601f830112156121d65781516149cd81613424565b926149db6040519485613365565b81845260208085019260051b820101908682116121d257602001915b818310614a7e575050506020810151906001600160401b038211614a7a57019280601f850112156121d6578351614a2d81613424565b94614a3b6040519687613365565b81865260208087019260051b820101928311614a7657602001905b828210614a665750505038614908565b8151815260209182019101614a56565b8680fd5b8580fd5b82516001600160a01b03811681036121ce578152602092830192016149f7565b6040513d85823e3d90fd5b60019192939450614ab98161364b565b838060a01b0391549060031b1c1680614ad28388613f7c565b52808952601a6020526106d6614af160408b2060405192838092613ae5565b614afb838a613f7c565b52614b068289613f7c565b508852601b6020526040882054614b1d8286613f7c565b52019086939291614898565b505050565b505056fedf6966c971051c3d54ec59162606531493a51404a002842f56009d7e5cf4a8c7c2575a0e9e593c00f959f8c92f12db2869c3395a3b0502d05e2516446f71f85b9b196abb2588eccefb36f3e6c9b15d9e260c633d5b2e0b8f497e6e71c6c1c1ea31ecc21a745e3968a04e9570e4425bc18fa8019c68028196b546d1669c200c68a66cc928b5edb82af9bd49922954155ab7b0942694bea4ce44661d9a8736c688aee3ab89a33c4a6f38aa24238aed506e7f6db5e298e1f32a0ede72dbe23112c44e6f206d6f726520756e6c6162656c65642073616d706c657320617661696c61f3f7a9fe364faab93b216da50a3214154f22a0a2b415b23a84c8169e8b636ee39aa934e5a98d12b60dabec0f34647f2b63b8fd257ba6480e7ded4cc1ef24c5730175b7a638427703f0dbe7bb9bbf987a2551717b34e79f33b5b1008d1fa01db9f652222313e28459528d920b65115c16c04f3efc82aaedc97be59f3f377c0d3f8a35acfbc15ff81a39ae7d344fd709f28e8600b4aa8c65c6b64bfe7fe36bd19bbceee304ac8d461cb65ac9f6dc37bbcb2c2c34c155224ffbfdc4752b89008f738d1108e10bcb7c27dddfc02ed9d693a074039d026cf4ea4240b40f7d581ac802a264697066735822122048f7f2918faaeb7ab06f0f5fcf1e3e90eaf9af3ba77ea5ef1ec5f4b840006eb364736f6c634300081c0033",
  "linkReferences": {},
  "deployedLinkReferences": {}
}