{
  "_format": "hh-sol-artifact-1",
  "contractName": "Project",
  "sourceName": "contracts/Project.sol",
  "abi": [
    {
      "inputs": [
        {
          "internalType": "address",
          "name": "_creator",
          "type": "address"
        },
        {
          "internalType": "string",
          "name": "_projectData",
          "type": "string"
        }
      ],
      "stateMutability": "nonpayable",
      "type": "constructor"
    },
    {
      "anonymous": false,
      "inputs": [
        {
          "indexed": false,
          "internalType": "uint256",
          "name": "round",
          "type": "uint256"
        },
        {
          "indexed": false,
          "internalType": "uint256",
          "name": "completedSamples",
          "type": "uint256"
        },
        {
          "indexed": false,
          "internalType": "uint256",
          "name": "timestamp",
          "type": "uint256"
        }
      ],
      "name": "ALBatchCompleted",
      "type": "event"
    },
    {
      "anonymous": false,
      "inputs": [
        {
          "indexed": false,
          "internalType": "uint256",
          "name": "round",
          "type": "uint256"
        },
        {
          "indexed": false,
          "internalType": "uint256",
          "name": "sampleCount",
          "type": "uint256"
        },
        {
          "indexed": false,
          "internalType": "uint256",
          "name": "timestamp",
          "type": "uint256"
        }
      ],
      "name": "ALBatchStarted",
      "type": "event"
    },
    {
      "anonymous": false,
      "inputs": [
        {
          "indexed": false,
          "internalType": "address",
          "name": "votingContract",
          "type": "address"
        },
        {
          "indexed": false,
          "internalType": "address",
          "name": "storageContract",
          "type": "address"
        }
      ],
      "name": "ALContractsDeployed",
      "type": "event"
    },
    {
      "anonymous": false,
      "inputs": [
        {
          "indexed": false,
          "internalType": "uint256",
          "name": "round",
          "type": "uint256"
        },
        {
          "indexed": false,
          "internalType": "string",
          "name": "reason",
          "type": "string"
        },
        {
          "indexed": false,
          "internalType": "uint256",
          "name": "timestamp",
          "type": "uint256"
        }
      ],
      "name": "ALRoundTriggered",
      "type": "event"
    },
    {
      "anonymous": false,
      "inputs": [
        {
          "indexed": false,
          "internalType": "string",
          "name": "sampleId",
          "type": "string"
        },
        {
          "indexed": false,
          "internalType": "string",
          "name": "label",
          "type": "string"
        },
        {
          "indexed": false,
          "internalType": "uint256",
          "name": "round",
          "type": "uint256"
        },
        {
          "indexed": false,
          "internalType": "uint256",
          "name": "timestamp",
          "type": "uint256"
        }
      ],
      "name": "AutoLabelStored",
      "type": "event"
    },
    {
      "anonymous": false,
      "inputs": [
        {
          "indexed": true,
          "internalType": "address",
          "name": "invitee",
          "type": "address"
        },
        {
          "indexed": true,
          "internalType": "address",
          "name": "project",
          "type": "address"
        },
        {
          "indexed": false,
          "internalType": "uint256",
          "name": "timestamp",
          "type": "uint256"
        }
      ],
      "name": "InvitationAccepted",
      "type": "event"
    },
    {
      "anonymous": false,
      "inputs": [
        {
          "indexed": true,
          "internalType": "address",
          "name": "invitee",
          "type": "address"
        },
        {
          "indexed": true,
          "internalType": "address",
          "name": "project",
          "type": "address"
        },
        {
          "indexed": false,
          "internalType": "uint256",
          "name": "timestamp",
          "type": "uint256"
        }
      ],
      "name": "InvitationRejected",
      "type": "event"
    },
    {
      "anonymous": false,
      "inputs": [
        {
          "indexed": true,
          "internalType": "address",
          "name": "invitee",
          "type": "address"
        },
        {
          "indexed": true,
          "internalType": "address",
          "name": "inviter",
          "type": "address"
        },
        {
          "indexed": false,
          "internalType": "string",
          "name": "role",
          "type": "string"
        },
        {
          "indexed": false,
          "internalType": "uint256",
          "name": "timestamp",
          "type": "uint256"
        }
      ],
      "name": "InvitationSent",
      "type": "event"
    },
    {
      "anonymous": false,
      "inputs": [
        {
          "indexed": true,
          "internalType": "address",
          "name": "requester",
          "type": "address"
        },
        {
          "indexed": true,
          "internalType": "address",
          "name": "approver",
          "type": "address"
        },
        {
          "indexed": false,
          "internalType": "uint256",
          "name": "timestamp",
          "type": "uint256"
        }
      ],
      "name": "JoinRequestApproved",
      "type": "event"
    },
    {
      "anonymous": false,
      "inputs": [
        {
          "indexed": true,
          "internalType": "address",
          "name": "requester",
          "type": "address"
        },
        {
          "indexed": true,
          "internalType": "address",
          "name": "rejector",
          "type": "address"
        },
        {
          "indexed": false,
          "internalType": "uint256",
          "name": "timestamp",
          "type": "uint256"
        }
      ],
      "name": "JoinRequestRejected",
      "type": "event"
    },
    {
      "anonymous": false,
      "inputs": [
        {
          "indexed": true,
          "internalType": "address",
          "name": "requester",
          "type": "address"
        },
        {
          "indexed": false,
          "internalType": "string",
          "name": "role",
          "type": "string"
        },
        {
          "indexed": false,
          "internalType": "uint256",
          "name": "timestamp",
          "type": "uint256"
        }
      ],
      "name": "JoinRequestSubmitted",
      "type": "event"
    },
    {
      "anonymous": false,
      "inputs": [
        {
          "indexed": true,
          "internalType": "address",
          "name": "member",
          "type": "address"
        },
        {
          "indexed": false,
          "internalType": "string",
          "name": "role",
          "type": "string"
        },
        {
          "indexed": false,
          "internalType": "uint256",
          "name": "timestamp",
          "type": "uint256"
        }
      ],
      "name": "MemberAdded",
      "type": "event"
    },
    {
      "anonymous": false,
      "inputs": [
        {
          "indexed": true,
          "internalType": "address",
          "name": "participant",
          "type": "address"
        }
      ],
      "name": "ParticipantAdded",
      "type": "event"
    },
    {
      "anonymous": false,
      "inputs": [
        {
          "indexed": true,
          "internalType": "address",
          "name": "creator",
          "type": "address"
        },
        {
          "indexed": false,
          "internalType": "uint256",
          "name": "timestamp",
          "type": "uint256"
        }
      ],
      "name": "ProjectCreated",
      "type": "event"
    },
    {
      "anonymous": false,
      "inputs": [
        {
          "indexed": true,
          "internalType": "address",
          "name": "creator",
          "type": "address"
        },
        {
          "indexed": false,
          "internalType": "uint256",
          "name": "timestamp",
          "type": "uint256"
        }
      ],
      "name": "ProjectDeactivated",
      "type": "event"
    },
    {
      "anonymous": false,
      "inputs": [
        {
          "indexed": true,
          "internalType": "address",
          "name": "creator",
          "type": "address"
        },
        {
          "indexed": false,
          "internalType": "uint256",
          "name": "timestamp",
          "type": "uint256"
        }
      ],
      "name": "ProjectReactivated",
      "type": "event"
    },
    {
      "anonymous": false,
      "inputs": [
        {
          "indexed": true,
          "internalType": "address",
          "name": "updater",
          "type": "address"
        },
        {
          "indexed": false,
          "internalType": "uint256",
          "name": "timestamp",
          "type": "uint256"
        }
      ],
      "name": "ProjectUpdated",
      "type": "event"
    },
    {
      "anonymous": false,
      "inputs": [
        {
          "indexed": false,
          "internalType": "uint256",
          "name": "newRound",
          "type": "uint256"
        }
      ],
      "name": "RoundIncremented",
      "type": "event"
    },
    {
      "anonymous": false,
      "inputs": [
        {
          "indexed": false,
          "internalType": "string",
          "name": "sampleId",
          "type": "string"
        },
        {
          "indexed": false,
          "internalType": "address",
          "name": "voter",
          "type": "address"
        },
        {
          "indexed": false,
          "internalType": "string",
          "name": "label",
          "type": "string"
        },
        {
          "indexed": false,
          "internalType": "uint256",
          "name": "timestamp",
          "type": "uint256"
        }
      ],
      "name": "VoteSubmitted",
      "type": "event"
    },
    {
      "anonymous": false,
      "inputs": [
        {
          "indexed": false,
          "internalType": "string",
          "name": "sampleId",
          "type": "string"
        },
        {
          "indexed": false,
          "internalType": "string",
          "name": "finalLabel",
          "type": "string"
        },
        {
          "indexed": false,
          "internalType": "uint256",
          "name": "round",
          "type": "uint256"
        },
        {
          "indexed": false,
          "internalType": "uint256",
          "name": "timestamp",
          "type": "uint256"
        }
      ],
      "name": "VotingSessionEnded",
      "type": "event"
    },
    {
      "anonymous": false,
      "inputs": [
        {
          "indexed": false,
          "internalType": "string",
          "name": "sampleId",
          "type": "string"
        },
        {
          "indexed": false,
          "internalType": "uint256",
          "name": "round",
          "type": "uint256"
        },
        {
          "indexed": false,
          "internalType": "uint256",
          "name": "timeout",
          "type": "uint256"
        },
        {
          "indexed": false,
          "internalType": "uint256",
          "name": "timestamp",
          "type": "uint256"
        }
      ],
      "name": "VotingSessionStarted",
      "type": "event"
    },
    {
      "inputs": [
        {
          "internalType": "address",
          "name": "_participant",
          "type": "address"
        }
      ],
      "name": "addParticipant",
      "outputs": [],
      "stateMutability": "nonpayable",
      "type": "function"
    },
    {
      "inputs": [],
      "name": "alScenario",
      "outputs": [
        {
          "internalType": "string",
          "name": "",
          "type": "string"
        }
      ],
      "stateMutability": "view",
      "type": "function"
    },
    {
      "inputs": [
        {
          "internalType": "address",
          "name": "_requester",
          "type": "address"
        }
      ],
      "name": "approveJoinRequest",
      "outputs": [],
      "stateMutability": "nonpayable",
      "type": "function"
    },
    {
      "inputs": [],
      "name": "createdAt",
      "outputs": [
        {
          "internalType": "uint256",
          "name": "",
          "type": "uint256"
        }
      ],
      "stateMutability": "view",
      "type": "function"
    },
    {
      "inputs": [],
      "name": "creator",
      "outputs": [
        {
          "internalType": "address",
          "name": "",
          "type": "address"
        }
      ],
      "stateMutability": "view",
      "type": "function"
    },
    {
      "inputs": [],
      "name": "currentRound",
      "outputs": [
        {
          "internalType": "uint256",
          "name": "",
          "type": "uint256"
        }
      ],
      "stateMutability": "view",
      "type": "function"
    },
    {
      "inputs": [],
      "name": "deactivateProject",
      "outputs": [],
      "stateMutability": "nonpayable",
      "type": "function"
    },
    {
      "inputs": [],
      "name": "description",
      "outputs": [
        {
          "internalType": "string",
          "name": "",
          "type": "string"
        }
      ],
      "stateMutability": "view",
      "type": "function"
    },
    {
      "inputs": [],
      "name": "endTime",
      "outputs": [
        {
          "internalType": "uint256",
          "name": "",
          "type": "uint256"
        }
      ],
      "stateMutability": "view",
      "type": "function"
    },
    {
      "inputs": [
        {
          "internalType": "string",
          "name": "sampleId",
          "type": "string"
        }
      ],
      "name": "endVotingSession",
      "outputs": [],
      "stateMutability": "nonpayable",
      "type": "function"
    },
    {
      "inputs": [],
      "name": "getActiveVoting",
      "outputs": [
        {
          "internalType": "string",
          "name": "sampleId",
          "type": "string"
        },
        {
          "internalType": "string",
          "name": "sampleData",
          "type": "string"
        },
        {
          "internalType": "string[]",
          "name": "labelOptions",
          "type": "string[]"
        },
        {
          "internalType": "uint256",
          "name": "timeRemaining",
          "type": "uint256"
        },
        {
          "internalType": "address[]",
          "name": "voters",
          "type": "address[]"
        }
      ],
      "stateMutability": "view",
      "type": "function"
    },
    {
      "inputs": [],
      "name": "getAllRequesters",
      "outputs": [
        {
          "internalType": "address[]",
          "name": "",
          "type": "address[]"
        }
      ],
      "stateMutability": "view",
      "type": "function"
    },
    {
      "inputs": [],
      "name": "getCreator",
      "outputs": [
        {
          "internalType": "address",
          "name": "",
          "type": "address"
        }
      ],
      "stateMutability": "view",
      "type": "function"
    },
    {
      "inputs": [],
      "name": "getIsActive",
      "outputs": [
        {
          "internalType": "bool",
          "name": "",
          "type": "bool"
        }
      ],
      "stateMutability": "view",
      "type": "function"
    },
    {
      "inputs": [
        {
          "internalType": "address",
          "name": "_requester",
          "type": "address"
        }
      ],
      "name": "getJoinRequest",
      "outputs": [
        {
          "internalType": "address",
          "name": "requester",
          "type": "address"
        },
        {
          "internalType": "string",
          "name": "role",
          "type": "string"
        },
        {
          "internalType": "uint256",
          "name": "timestamp",
          "type": "uint256"
        },
        {
          "internalType": "bool",
          "name": "exists",
          "type": "bool"
        }
      ],
      "stateMutability": "view",
      "type": "function"
    },
    {
      "inputs": [],
      "name": "getProjectData",
      "outputs": [
        {
          "internalType": "string",
          "name": "",
          "type": "string"
        }
      ],
      "stateMutability": "view",
      "type": "function"
    },
    {
      "inputs": [],
      "name": "getProjectMetadata",
      "outputs": [
        {
          "internalType": "string",
          "name": "_title",
          "type": "string"
        },
        {
          "internalType": "string",
          "name": "_description",
          "type": "string"
        },
        {
          "internalType": "address",
          "name": "_owner",
          "type": "address"
        },
        {
          "internalType": "string",
          "name": "_projectType",
          "type": "string"
        },
        {
          "internalType": "string",
          "name": "_rocrateHash",
          "type": "string"
        },
        {
          "internalType": "uint256",
          "name": "_start",
          "type": "uint256"
        },
        {
          "internalType": "uint256",
          "name": "_end",
          "type": "uint256"
        },
        {
          "internalType": "string",
          "name": "_queryStrategy",
          "type": "string"
        },
        {
          "internalType": "string",
          "name": "_alScenario",
          "type": "string"
        },
        {
          "internalType": "uint256",
          "name": "_maxIteration",
          "type": "uint256"
        },
        {
          "internalType": "uint256",
          "name": "_queryBatchSize",
          "type": "uint256"
        },
        {
          "internalType": "string[]",
          "name": "_labelSpace",
          "type": "string[]"
        }
      ],
      "stateMutability": "view",
      "type": "function"
    },
    {
      "inputs": [],
      "name": "getProjectStatus",
      "outputs": [
        {
          "internalType": "bool",
          "name": "active",
          "type": "bool"
        },
        {
          "internalType": "uint256",
          "name": "created",
          "type": "uint256"
        },
        {
          "internalType": "uint256",
          "name": "modified",
          "type": "uint256"
        },
        {
          "internalType": "address",
          "name": "projectCreator",
          "type": "address"
        }
      ],
      "stateMutability": "view",
      "type": "function"
    },
    {
      "inputs": [],
      "name": "getTimestamps",
      "outputs": [
        {
          "internalType": "uint256",
          "name": "created",
          "type": "uint256"
        },
        {
          "internalType": "uint256",
          "name": "modified",
          "type": "uint256"
        }
      ],
      "stateMutability": "view",
      "type": "function"
    },
    {
      "inputs": [],
      "name": "hasALContracts",
      "outputs": [
        {
          "internalType": "bool",
          "name": "",
          "type": "bool"
        }
      ],
      "stateMutability": "view",
      "type": "function"
    },
    {
      "inputs": [],
      "name": "incrementRound",
      "outputs": [],
      "stateMutability": "nonpayable",
      "type": "function"
    },
    {
      "inputs": [
        {
          "internalType": "address",
          "name": "",
          "type": "address"
        }
      ],
      "name": "invitations",
      "outputs": [
        {
          "internalType": "address",
          "name": "invitee",
          "type": "address"
        },
        {
          "internalType": "string",
          "name": "role",
          "type": "string"
        },
        {
          "internalType": "uint256",
          "name": "timestamp",
          "type": "uint256"
        },
        {
          "internalType": "bool",
          "name": "exists",
          "type": "bool"
        }
      ],
      "stateMutability": "view",
      "type": "function"
    },
    {
      "inputs": [
        {
          "internalType": "uint256",
          "name": "",
          "type": "uint256"
        }
      ],
      "name": "invitees",
      "outputs": [
        {
          "internalType": "address",
          "name": "",
          "type": "address"
        }
      ],
      "stateMutability": "view",
      "type": "function"
    },
    {
      "inputs": [],
      "name": "isActive",
      "outputs": [
        {
          "internalType": "bool",
          "name": "",
          "type": "bool"
        }
      ],
      "stateMutability": "view",
      "type": "function"
    },
    {
      "inputs": [
        {
          "internalType": "address",
          "name": "",
          "type": "address"
        }
      ],
      "name": "isParticipant",
      "outputs": [
        {
          "internalType": "bool",
          "name": "",
          "type": "bool"
        }
      ],
      "stateMutability": "view",
      "type": "function"
    },
    {
      "inputs": [
        {
          "internalType": "address",
          "name": "",
          "type": "address"
        }
      ],
      "name": "joinRequests",
      "outputs": [
        {
          "internalType": "address",
          "name": "requester",
          "type": "address"
        },
        {
          "internalType": "string",
          "name": "role",
          "type": "string"
        },
        {
          "internalType": "uint256",
          "name": "timestamp",
          "type": "uint256"
        },
        {
          "internalType": "bool",
          "name": "exists",
          "type": "bool"
        }
      ],
      "stateMutability": "view",
      "type": "function"
    },
    {
      "inputs": [
        {
          "internalType": "uint256",
          "name": "",
          "type": "uint256"
        }
      ],
      "name": "labelSpace",
      "outputs": [
        {
          "internalType": "string",
          "name": "",
          "type": "string"
        }
      ],
      "stateMutability": "view",
      "type": "function"
    },
    {
      "inputs": [],
      "name": "lastModified",
      "outputs": [
        {
          "internalType": "uint256",
          "name": "",
          "type": "uint256"
        }
      ],
      "stateMutability": "view",
      "type": "function"
    },
    {
      "inputs": [
        {
          "internalType": "address",
          "name": "_voting",
          "type": "address"
        },
        {
          "internalType": "address",
          "name": "_storage",
          "type": "address"
        }
      ],
      "name": "linkALContracts",
      "outputs": [],
      "stateMutability": "nonpayable",
      "type": "function"
    },
    {
      "inputs": [],
      "name": "maxIteration",
      "outputs": [
        {
          "internalType": "uint256",
          "name": "",
          "type": "uint256"
        }
      ],
      "stateMutability": "view",
      "type": "function"
    },
    {
      "inputs": [],
      "name": "needsALDeployment",
      "outputs": [
        {
          "internalType": "bool",
          "name": "",
          "type": "bool"
        }
      ],
      "stateMutability": "view",
      "type": "function"
    },
    {
      "inputs": [
        {
          "internalType": "string",
          "name": "sampleId",
          "type": "string"
        },
        {
          "internalType": "string",
          "name": "finalLabel",
          "type": "string"
        }
      ],
      "name": "notifyVotingSessionEnded",
      "outputs": [],
      "stateMutability": "nonpayable",
      "type": "function"
    },
    {
      "inputs": [
        {
          "internalType": "string",
          "name": "sampleId",
          "type": "string"
        }
      ],
      "name": "notifyVotingSessionStarted",
      "outputs": [],
      "stateMutability": "nonpayable",
      "type": "function"
    },
    {
      "inputs": [],
      "name": "projectData",
      "outputs": [
        {
          "internalType": "string",
          "name": "",
          "type": "string"
        }
      ],
      "stateMutability": "view",
      "type": "function"
    },
    {
      "inputs": [],
      "name": "projectType",
      "outputs": [
        {
          "internalType": "string",
          "name": "",
          "type": "string"
        }
      ],
      "stateMutability": "view",
      "type": "function"
    },
    {
      "inputs": [],
      "name": "queryBatchSize",
      "outputs": [
        {
          "internalType": "uint256",
          "name": "",
          "type": "uint256"
        }
      ],
      "stateMutability": "view",
      "type": "function"
    },
    {
      "inputs": [],
      "name": "queryStrategy",
      "outputs": [
        {
          "internalType": "string",
          "name": "",
          "type": "string"
        }
      ],
      "stateMutability": "view",
      "type": "function"
    },
    {
      "inputs": [],
      "name": "reactivateProject",
      "outputs": [],
      "stateMutability": "nonpayable",
      "type": "function"
    },
    {
      "inputs": [
        {
          "internalType": "string",
          "name": "sampleId",
          "type": "string"
        },
        {
          "internalType": "string",
          "name": "label",
          "type": "string"
        },
        {
          "internalType": "string",
          "name": "justification",
          "type": "string"
        },
        {
          "internalType": "string",
          "name": "ipfsHash",
          "type": "string"
        }
      ],
      "name": "receiveFinalLabelFromVoting",
      "outputs": [],
      "stateMutability": "nonpayable",
      "type": "function"
    },
    {
      "inputs": [
        {
          "internalType": "address",
          "name": "_requester",
          "type": "address"
        }
      ],
      "name": "rejectJoinRequest",
      "outputs": [],
      "stateMutability": "nonpayable",
      "type": "function"
    },
    {
      "inputs": [
        {
          "internalType": "uint256",
          "name": "",
          "type": "uint256"
        }
      ],
      "name": "requesters",
      "outputs": [
        {
          "internalType": "address",
          "name": "",
          "type": "address"
        }
      ],
      "stateMutability": "view",
      "type": "function"
    },
    {
      "inputs": [],
      "name": "rocrateHash",
      "outputs": [
        {
          "internalType": "string",
          "name": "",
          "type": "string"
        }
      ],
      "stateMutability": "view",
      "type": "function"
    },
    {
      "inputs": [
        {
          "internalType": "string",
          "name": "_queryStrategy",
          "type": "string"
        },
        {
          "internalType": "string",
          "name": "_alScenario",
          "type": "string"
        },
        {
          "internalType": "uint256",
          "name": "_maxIteration",
          "type": "uint256"
        },
        {
          "internalType": "uint256",
          "name": "_queryBatchSize",
          "type": "uint256"
        },
        {
          "internalType": "string[]",
          "name": "_labelSpace",
          "type": "string[]"
        }
      ],
      "name": "setALMetadata",
      "outputs": [],
      "stateMutability": "nonpayable",
      "type": "function"
    },
    {
      "inputs": [
        {
          "internalType": "string",
          "name": "_title",
          "type": "string"
        },
        {
          "internalType": "string",
          "name": "_description",
          "type": "string"
        },
        {
          "internalType": "string",
          "name": "_projectType",
          "type": "string"
        },
        {
          "internalType": "string",
          "name": "_rocrateHash",
          "type": "string"
        }
      ],
      "name": "setProjectMetadata",
      "outputs": [],
      "stateMutability": "nonpayable",
      "type": "function"
    },
    {
      "inputs": [
        {
          "internalType": "address[]",
          "name": "_voters",
          "type": "address[]"
        },
        {
          "internalType": "uint256[]",
          "name": "_weights",
          "type": "uint256[]"
        }
      ],
      "name": "setProjectVoters",
      "outputs": [],
      "stateMutability": "nonpayable",
      "type": "function"
    },
    {
      "inputs": [
        {
          "internalType": "uint256",
          "name": "_start",
          "type": "uint256"
        },
        {
          "internalType": "uint256",
          "name": "_end",
          "type": "uint256"
        }
      ],
      "name": "setStartAndEndTime",
      "outputs": [],
      "stateMutability": "nonpayable",
      "type": "function"
    },
    {
      "inputs": [
        {
          "internalType": "string[]",
          "name": "sampleIds",
          "type": "string[]"
        }
      ],
      "name": "startBatchVoting",
      "outputs": [],
      "stateMutability": "nonpayable",
      "type": "function"
    },
    {
      "inputs": [],
      "name": "startTime",
      "outputs": [
        {
          "internalType": "uint256",
          "name": "",
          "type": "uint256"
        }
      ],
      "stateMutability": "view",
      "type": "function"
    },
    {
      "inputs": [
        {
          "internalType": "string",
          "name": "sampleId",
          "type": "string"
        }
      ],
      "name": "startVotingSession",
      "outputs": [],
      "stateMutability": "nonpayable",
      "type": "function"
    },
    {
      "inputs": [],
      "name": "storageContract",
      "outputs": [
        {
          "internalType": "address",
          "name": "",
          "type": "address"
        }
      ],
      "stateMutability": "view",
      "type": "function"
    },
    {
      "inputs": [
        {
          "internalType": "string",
          "name": "sampleId",
          "type": "string"
        },
        {
          "internalType": "string",
          "name": "label",
          "type": "string"
        },
        {
          "internalType": "uint256",
          "name": "round",
          "type": "uint256"
        },
        {
          "internalType": "string",
          "name": "justification",
          "type": "string"
        },
        {
          "internalType": "string",
          "name": "ipfsHash",
          "type": "string"
        }
      ],
      "name": "storeFinalLabel",
      "outputs": [],
      "stateMutability": "nonpayable",
      "type": "function"
    },
    {
      "inputs": [
        {
          "internalType": "string",
          "name": "_role",
          "type": "string"
        }
      ],
      "name": "submitJoinRequest",
      "outputs": [],
      "stateMutability": "nonpayable",
      "type": "function"
    },
    {
      "inputs": [
        {
          "internalType": "string",
          "name": "sampleId",
          "type": "string"
        },
        {
          "internalType": "string",
          "name": "label",
          "type": "string"
        }
      ],
      "name": "submitVote",
      "outputs": [],
      "stateMutability": "nonpayable",
      "type": "function"
    },
    {
      "inputs": [],
      "name": "title",
      "outputs": [
        {
          "internalType": "string",
          "name": "",
          "type": "string"
        }
      ],
      "stateMutability": "view",
      "type": "function"
    },
    {
      "inputs": [
        {
          "internalType": "string",
          "name": "reason",
          "type": "string"
        }
      ],
      "name": "triggerNextRound",
      "outputs": [],
      "stateMutability": "nonpayable",
      "type": "function"
    },
    {
      "inputs": [
        {
          "internalType": "string",
          "name": "_newProjectData",
          "type": "string"
        }
      ],
      "name": "updateProjectData",
      "outputs": [],
      "stateMutability": "nonpayable",
      "type": "function"
    },
    {
      "inputs": [],
      "name": "votingContract",
      "outputs": [
        {
          "internalType": "address",
          "name": "",
          "type": "address"
        }
      ],
      "stateMutability": "view",
      "type": "function"
    },
    {
      "inputs": [],
      "name": "votingTimeout",
      "outputs": [
        {
          "internalType": "uint256",
          "name": "",
          "type": "uint256"
        }
      ],
      "stateMutability": "view",
      "type": "function"
    }
  ],
  "bytecode": "0x6080604052346102cf57613e6980380380610019816102d4565b9283398101906040818303126102cf5780516001600160a01b03811691908290036102cf576020810151906001600160401b0382116102cf570182601f820112156102cf578051906001600160401b03821161027257610082601f8301601f19166020016102d4565b93828552602083830101116102cf5760005b8281106102ba575050602060009184010152610e10600f5581511561028857600080546001600160a01b0319168217905581516001600160401b03811161027257600354600181811c91168015610268575b602082101461025257601f81116101ed575b50602092601f8211600114610188579281929360009261017d575b50508160011b916000199060031b1c1916176003555b4260015542600255600160a01b60ff60a01b1960005416176000557f20bfd29f3d906f96fc35742fac45a554b19cbd4e21f8c4c1d84cb58fdfc32c896020604051428152a2604051613b6f90816102fa8239f35b015190503880610113565b601f198216936003600052806000209160005b8681106101d557508360019596106101bc575b505050811b01600355610129565b015160001960f88460031b161c191690553880806101ae565b9192602060018192868501518155019401920161019b565b60036000527fc2575a0e9e593c00f959f8c92f12db2869c3395a3b0502d05e2516446f71f85b601f830160051c81019160208410610248575b601f0160051c01905b81811061023c57506100f8565b6000815560010161022f565b9091508190610226565b634e487b7160e01b600052602260045260246000fd5b90607f16906100e6565b634e487b7160e01b600052604160045260246000fd5b60405162461bcd60e51b815260206004820152600a602482015269456d707479206461746160b01b6044820152606490fd5b80602080928401015182828801015201610094565b600080fd5b6040519190601f01601f191682016001600160401b038111838210176102725760405256fe608080604052600436101561001357600080fd5b600090813560e01c90816302d05d3f14612906575080630ee2cb10146128df57806310218f4d1461275057806311ce0267146127275780631af9fd17146125bf578063211a85e6146121dc57806322f3e2d4146121b757806329f5e65a14611fc25780632bc5c48014611bf95780633197cbb614611bdb578063383e1a5e14611b415780633fa9696714611a2b57806343862d2314611a07578063461e198b146119235780634a79d50c146118ff5780634d320b98146117f757806355b31b5514610f8f57806358f43f76146117a757806359abbfe4146117825780635e1a6c171461173e5780636ac4e50e146116be5780637284e4161461169a578063764926db1461160957806377c39c21146115eb5780637847f1de146113e957806378e97925146113cb57806379ec4f19146113535780637a83a44b1461132e5780637f52cadc1461130a57806384e07728146111c35780638a19c8bc146111a5578063929066f514611166578063953cc52c14610fb35780639c0768b314610f8f578063a074018414610f6b578063a0fb79e114610efd578063a672601d14610e45578063b0942ce514610e27578063b2be4d6514610cab578063b2e635e114610b44578063b568647914610aad578063b70825dc14610a2c578063bbffd04c14610985578063be27151a14610826578063c1fc006a146107fd578063c2fc0d26146107be578063c3a4b41a14610778578063c3feda17146106ca578063cf09e0d0146106ac578063dfafe10f146105fa578063dfb748aa1461053a578063e1d5a2c8146104a2578063e7aa3afc1461045e578063ef213106146103e9578063f0786f2714610302578063f1bc33b4146102e4578063f7267cfd146102c65763fba7cc791461029f57600080fd5b346102c357806003193601126102c35760ff6020915460a01c166040519015158152f35b80fd5b50346102c357806003193601126102c3576020600254604051908152f35b50346102c357806003193601126102c3576020600f54604051908152f35b50346102c3578061031236612a86565b61032a60018060a09795971b036016541633146132bb565b6017546001600160a01b0316906103428215156133c6565b60195491803b156103e5576103739385809460405196879586948593633fa9696760e01b85528d8d6004870161340d565b03925af180156103da576103c1575b50507f503607074d0e95d8c0c6b1660c3441384010e05305da22aef0594eb3fcae6236916103bb60195492604051938493429285613307565b0390a180f35b816103cb9161295b565b6103d6578238610382565b8280fd5b6040513d84823e3d90fd5b8480fd5b50346102c35760203660031901126102c3576040906001600160a01b0361040e612bf0565b16815260126020522060018060a01b0381541661045a60405192610440846104398160018501612fc6565b038561295b565b60ff60036002830154920154169060405194859485612c06565b0390f35b50346102c357806003193601126102c35760809054600154906002546040519260ff8360a01c16151584526020840152604083015260018060a01b03166060820152f35b50346102c357806003193601126102c3576016546001600160a01b0316330361050757601954600181018091116104f357602081600080516020613a9a83398151915292601955604051908152a180f35b634e487b7160e01b82526011600452602482fd5b60405162461bcd60e51b815260206004820152600b60248201526a4f6e6c7920766f74696e6760a81b6044820152606490fd5b50346102c35760203660031901126102c357610554612bf0565b61056860018060a01b0383541633146130d2565b6001600160a01b03168082526012602052604082206003015461058d9060ff16613982565b80825260126020526105a1604083206139bb565b808252601860205260408220600160ff19825416179055604051428152817f423eb00b6a18c3ecfc2170a0e40ef0bad995279070614ba2e4be1b94f67eb88860203393a3600080516020613b1a8339815191528280a280f35b50346102c35760203660031901126102c357610614612bf0565b61062860018060a01b0383541633146130d2565b6001600160a01b03168082526018602052604082205460ff1661067157808252601860205260408220805460ff19166001179055600080516020613b1a8339815191528280a280f35b60405162461bcd60e51b8152602060048201526013602482015272105b1c9958591e481c185c9d1a58da5c185b9d606a1b6044820152606490fd5b50346102c357806003193601126102c3576020600154604051908152f35b50346102c357806003193601126102c35780546106f1336001600160a01b038316146130d2565b60ff8160a01c166107425760ff60a01b1916600160a01b17815542600281905560405190815233907fb351ba71ddc1d2bf39667cebde99fb92eb26b9f418d5049ba0200888ba81071590602090a280f35b60405162461bcd60e51b815260206004820152600e60248201526d416c72656164792061637469766560901b6044820152606490fd5b50346102c357806003193601126102c3576016546001600160a01b03161515806107aa575b6020906040519015158152f35b506017546001600160a01b0316151561079d565b50346102c357806003193601126102c35761045a6040516107e9816107e281612d87565b038261295b565b604051918291602083526020830190612a08565b50346102c357806003193601126102c3576016546040516001600160a01b039091168152602090f35b50346102c35760203660031901126102c3576004356001600160401b03811161093357610857903690600401612b72565b61086b60018060a01b0383541633146130d2565b6016546001600160a01b0316610882811515613498565b81511561094b5760195490600182018092116109375790839181601955803b156103d657829182916040518094818094630e7dc0d160e41b8252604060048301526108d0604483018b612a2d565b90602483015203925af180156103da5761091e575b507f24c323b0138f1f608c855cccb8550ac649c15bf3cea39b8fdbde80d33258a74f8260195490516103bb604051928392429184613361565b816109289161295b565b6109335781386108e5565b5080fd5b634e487b7160e01b84526011600452602484fd5b60405162461bcd60e51b815260206004820152601260248201527108adae0e8f240e6c2dae0d8ca40c4c2e8c6d60731b6044820152606490fd5b50346102c357806003193601126102c35780546109ac336001600160a01b038316146130d2565b60ff8160a01c16156109f45760ff60a01b19168155426002556040514281527f17064d72ee4a5901e55dfa45024ea8f67cdb4895ba6364ab2f8e7223f642ad3660203392a280f35b60405162461bcd60e51b815260206004820152601060248201526f416c726561647920696e61637469766560801b6044820152606490fd5b50346102c35760203660031901126102c357600435906015548210156102c357601554821015610a9957601581527f55f448fdea98c4d29eb340757ef0a66cd03dbb9538908a6a81d96026b71ec4759091015460405160039290921b1c6001600160a01b03168152602090f35b634e487b7160e01b81526032600452602490fd5b50346102c35760203660031901126102c357610ac7612bf0565b610adb60018060a01b0383541633146130d2565b6001600160a01b031680825260126020526040822060030154610b009060ff16613982565b8082526012602052610b14604083206139bb565b604051904282527f1a69e67d1be897d0ca0cf1517b4d17e345b4272a80bc900f9fe8e96f261ca1db60203393a380f35b50346102c357610b5336612b11565b601654610b6a906001600160a01b03161515613498565b815115610c7457805115610c415760ff6040516020818551610b8f8183858a016129e5565b81016011815203019020541615610bfd577f55b5b37db3e79e0cf5fa16c3b213f5856ebaf6a6e58c56813245533b65587bbd91610bf1610bdd92604051938493608085526080850190612a08565b903360208501528382036040850152612a08565b4260608301520390a180f35b60405162461bcd60e51b815260206004820152601c60248201527b53616d706c65206e6f742061637469766520666f7220766f74696e6760201b6044820152606490fd5b60405162461bcd60e51b815260206004820152600b60248201526a115b5c1d1e481b1858995b60aa1b6044820152606490fd5b60405162461bcd60e51b815260206004820152600f60248201526e115b5c1d1e481cd85b5c1b19481251608a1b6044820152606490fd5b50346102c35760203660031901126102c3576004356001600160401b03811161093357610cdc903690600401612999565b610cf160018060a01b036016541633146132bb565b60405181519060208181850193610d098183876129e5565b81016011815203019020600160ff19825416179055828391601054925b838110610de7575b505015610d7b575b50610d64600080516020613a1a83398151915291601954600f54604051938493608085526080850190612a08565b91602084015260408301524260608301520390a180f35b600160401b811015610dd357806001610d979201601055613049565b610dbf5781610db8600080516020613a1a83398151915293610d649361316e565b9150610d36565b634e487b7160e01b83526004839052602483fd5b634e487b7160e01b83526041600452602483fd5b6107e2610e03610df683613049565b5060405192838092612fc6565b602081519101208551832014610e1b57600101610d26565b50505060013880610d2e565b50346102c357806003193601126102c3576020600c54604051908152f35b50346102c35760203660031901126102c357806004356001600160401b038111610efa57610e77903690600401612999565b610e8b60018060a01b0383541633146130d2565b6016546001600160a01b0316610ea2811515613498565b803b15610ef85760405163a672601d60e01b8152602060048201529183918391829084908290610ed6906024830190612a08565b03925af180156103da57610ee75750f35b81610ef19161295b565b6102c35780f35b505b50fd5b50346102c357806003193601126102c357610f3c610f5861045a610f4a610f226136a3565b93969260409591955198899860a08a5260a08a0190612a08565b9088820360208a0152612a08565b908682036040880152612a2d565b9160608501528382036080850152613095565b50346102c357806003193601126102c35761045a6040516107e9816107e281612e6d565b50346102c357806003193601126102c35761045a6040516107e9816107e281612f53565b50346102c35760403660031901126102c357600435906001600160401b0382116102c357366023830112156102c3578160040135610ff081612b5b565b92610ffe604051948561295b565b8184526024602085019260051b8201019036821161112e57602401915b8183106111465750506024359290506001600160401b038311610933573660238401121561093357826004013561105181612b5b565b9361105f604051958661295b565b818552602085016024819360051b8301019136831161114257602401905b8282106111325750505061109b60018060a01b0384541633146130d2565b6016546001600160a01b0316936110b3851515613498565b843b1561112e5760206110de60405194631d70957f60e21b8652604060048701526044860190613095565b848103600319016024860152915180835291019190845b81811061111857505050818394818581819503925af180156103da57610ee75750f35b82518452602093840193909201916001016110f5565b8380fd5b813581526020918201910161107d565b8580fd5b82356001600160a01b03811681036103e55781526020928301920161101b565b50346102c35760203660031901126102c35760209060ff906040906001600160a01b03611191612bf0565b168152601884522054166040519015158152f35b50346102c357806003193601126102c3576020601954604051908152f35b50346102c357806003193601126102c3578081601454905b8181106112bf57506111ec82612b5b565b916111fa604051938461295b565b808352611209601f1991612b5b565b0136602084013782805b828110611230576040516020808252819061045a90820187613095565b6112398161307a565b9054600391821b1c6001600160a01b03168352601260205260408320015460ff16611267575b600101611213565b936112718561307a565b9054855160039290921b1c6001600160a01b0316908210156112ab57816112a391602060019460051b8801015261333c565b94905061125f565b634e487b7160e01b83526032600452602483fd5b6112c88161307a565b9054600391821b1c6001600160a01b03168552601260205260408520015460ff166112f6575b6001016111db565b9161130260019161333c565b9290506112ee565b50346102c357806003193601126102c35761045a6040516107e9816107e281612ee0565b50346102c357806003193601126102c3576020611349613536565b6040519015158152f35b50346102c35760403660031901126102c3576004356024359061138060018060a01b0384541633146130d2565b818110156113915760085560095580f35b60405162461bcd60e51b8152602060048201526012602482015271496e76616c69642074696d652072616e676560701b6044820152606490fd5b50346102c357806003193601126102c3576020600854604051908152f35b50346102c35760203660031901126102c3576004356001600160401b0381116109335761141a903690600401612999565b815461142b60ff8260a01c1661310d565b6001600160a01b031633146115b057338252601260205260ff60036040842001541661157a57805115611548576040516114648161292a565b33815260036020820191838352604081014281526114b36060830194600186523388526012602052604088209360018060a01b0390511660018060a01b0319855416178455516001840161316e565b516002820155019051151560ff80198354169116179055601454600160401b811015610dd3578060016114e9920160145561307a565b81549060031b9033821b9160018060a01b03901b19161790557fe4d6c018abd0178d4bce0856089ef1876318617b97a1d700bb98506598ab0afc61153860405192604084526040840190612a08565b914260208201528033930390a280f35b60405162461bcd60e51b815260206004820152600a602482015269456d70747920726f6c6560b01b6044820152606490fd5b60405162461bcd60e51b815260206004820152600e60248201526d526571756573742065786973747360901b6044820152606490fd5b60405162461bcd60e51b815260206004820152601360248201527221b932b0ba37b91031b0b73737ba103537b4b760691b6044820152606490fd5b50346102c357806003193601126102c3576020600d54604051908152f35b50346102c35760203660031901126102c357806004356001600160401b038111610efa5761163b903690600401612999565b61164f60018060a01b0383541633146130d2565b6016546001600160a01b0316611666811515613498565b803b15610ef85760405163764926db60e01b8152602060048201529183918391829084908290610ed6906024830190612a08565b50346102c357806003193601126102c35761045a6040516107e9816107e281612d02565b50346102c35760203660031901126102c357600435600e5481101561093357600e5481101561172a57600e82526000805160206139fa8339815191520190806117165760405161045a906107e9816107e28187612fc6565b634e487b7160e01b81526004819052602490fd5b634e487b7160e01b82526032600452602482fd5b50346102c35760203660031901126102c357600435906014548210156102c35760206117698361307a565b905460405160039290921b1c6001600160a01b03168152f35b50346102c357806003193601126102c357604060015460025482519182526020820152f35b50346102c35760203660031901126102c3576040906001600160a01b036117cc612bf0565b16815260136020522060018060a01b0381541661045a60405192610440846104398160018501612fc6565b50346102c35760403660031901126102c357611811612bf0565b6024356001600160a01b03811691908290036103d65761183b60018060a01b0384541633146130d2565b6001600160a01b0316801515806118f6575b156118bd57601654906118696001600160a01b0383161561345b565b601754916118806001600160a01b0384161561345b565b6001600160a01b03199081169190911760165516176017554260028190556040519081523390600080516020613a3a83398151915290602090a280f35b60405162461bcd60e51b8152602060048201526011602482015270496e76616c69642061646472657373657360781b6044820152606490fd5b5081151561184d565b50346102c357806003193601126102c35761045a6040516107e9816107e281612c73565b50346102c35760203660031901126102c3576004356001600160401b03811161093357611954903690600401612999565b815461197a9060ff90611971336001600160a01b038316146130d2565b60a01c1661310d565b601954600181018091116119f35790817fbb4ba47257d82c025e976bcdc375cc2e26de94efd111bca20cbc9a330d2974559260195542600255600080516020613a9a8339815191526020604051838152a16119e76040519283928352606060208401526060830190612a08565b4260408301520390a180f35b634e487b7160e01b83526011600452602483fd5b50346102c357806003193601126102c35761045a6040516107e9816107e281612dfa565b50346102c35760a03660031901126102c3576004356001600160401b03811161093357611a5c903690600401612999565b816024356001600160401b03811161093357611a7c903690600401612999565b6064356001600160401b0381116103d657611a9b903690600401612999565b6084356001600160401b03811161112e57611aba903690600401612999565b93611acf60018060a01b0385541633146130d2565b6017546001600160a01b031690611ae78215156133c6565b813b156103e557848094611b1560405198899687958694633fa9696760e01b8652604435916004870161340d565b03925af18015611b3457611b265780f35b611b2f9161295b565b388180f35b50604051903d90823e3d90fd5b50346102c35760203660031901126102c3576040906001600160a01b03611b66612bf0565b16815260126020522060405190611b7c8261292a565b80546001600160a01b031682526040519161045a90611ba2846104398160018701612fc6565b83602082015260ff600360028501549485604085015201541615159081606082015260018060a01b039051169260405194859485612c06565b50346102c357806003193601126102c3576020600954604051908152f35b50346102c35760a03660031901126102c3576004356001600160401b03811161093357611c2a903690600401612999565b6024356001600160401b0381116103d657611c49903690600401612999565b60643590604435906084356001600160401b03811161114257611c70903690600401612b72565b93611c8560018060a01b0387541633146130d2565b8215611f85578315611f4b578051906001600160401b038211611f3757611cad600a54612c39565b601f8111611efb575b50602090601f8311600114611e9657611cd99291889183611dcb575b505061315b565b600a555b8051906001600160401b038211611e8257611cf9600b54612c39565b601f8111611e3b575b50602090601f8311600114611dd657611d249291879183611dcb57505061315b565b600b555b600c55600d55805190600160401b8211610dd357600e5482600e55808310611d92575b50600e835282906000805160206139fa833981519152906020015b838310611d7557844260025580f35b6001602082611d868394518661316e565b01920192019190611d66565b600e84526000805160206139fa8339815191529081019083015b818110611db95750611d4b565b80611dc5600192613377565b01611dac565b015190503880611cd2565b600b87528187209190601f198416885b818110611e235750908460019594939210611e0a575b505050811b01600b55611d28565b015160001960f88460031b161c19169055388080611dfc565b92936020600181928786015181550195019301611de6565b600b8752611e7290600080516020613aba833981519152601f850160051c81019160208610611e78575b601f0160051c0190613144565b38611d02565b9091508190611e65565b634e487b7160e01b86526041600452602486fd5b600a88528188209190601f198416895b818110611ee35750908460019594939210611eca575b505050811b01600a55611cdd565b015160001960f88460031b161c19169055388080611ebc565b92936020600181928786015181550195019301611ea6565b600a8852611f3190600080516020613a5a833981519152601f850160051c81019160208610611e7857601f0160051c0190613144565b38611cb6565b634e487b7160e01b87526041600452602487fd5b60405162461bcd60e51b8152602060048201526012602482015271496e76616c69642062617463682073697a6560701b6044820152606490fd5b60405162461bcd60e51b815260206004820152601560248201527424b73b30b634b21036b0bc1034ba32b930ba34b7b760591b6044820152606490fd5b50346102c3576120457f0a1e2f362ccc64de291011914f5087c611557a7331c80f2cdd2aacf89b9dc564611ff536612b11565b61200a60018060a01b036016541633146132bb565b604051602081845161201f81838589016129e5565b8101601181520301902060ff198154169055601954938492604051938493429285613307565b0390a1600190829183601054905b8181106121045750816120fa575b5061206a578280f35b7f72db402a1d505e0ee50fba411e34bd1f9a6e90ab67b824c438255e747a886b289161209d604051928392429184613361565b0390a160105481601055806120b157808280f35b601082527f1b6847dc741a1b0cd08d278845f9d819d87b734759afb55fe2de5cb82a9ae672908101905b8181106120e85750808280f35b806120f4600192613377565b016120db565b9050151538612061565b9161210e83613049565b5060405190879080549061212182612c39565b916001811690811561219f575060011461216c575b50506011815281900360200190205460ff16156121595750600185925b01612053565b919361216660019161333c565b94612153565b90915088526020882088905b82821061218b5750508101602082612136565b600181602092548487015201910190612178565b60ff1916855250508015150282019050602082612136565b50346102c357806003193601126102c35760ff6020915460a01c166040519015158152f35b50346102c3576121eb36612a86565b9193909261220360018060a01b0383541633146130d2565b8051906001600160401b038211610dd35761221f600454612c39565b601f8111612583575b50602090601f831160011461251e5761224a9291849183611dcb57505061315b565b6004555b83516001600160401b0381116123d657612269600554612c39565b601f81116124ed575b50602094601f8211600114612489578293949582916122979492611dcb57505061315b565b6005555b82516001600160401b0381116123d6576122b6600654612c39565b601f811161244d575b506020601f82116001146123ea5781908394956122e29492611dcb57505061315b565b6006555b81516001600160401b0381116123d657612301600754612c39565b601f811161239a575b50602092601f8211600114612338578293829161232d9492611dcb57505061315b565b6007555b4260025580f35b601f198216936007845280842091845b8681106123825750836001959610612369575b505050811b01600755612331565b015160001960f88460031b161c1916905538808061235b565b91926020600181928685015181550194019201612348565b600783526123d090600080516020613a7a833981519152601f840160051c81019160208510611e7857601f0160051c0190613144565b3861230a565b634e487b7160e01b82526041600452602482fd5b6006835280832090601f198316845b8181106124355750958360019596971061241c575b505050811b016006556122e6565b015160001960f88460031b161c1916905538808061240e565b9192602060018192868b0151815501940192016123f9565b6006835261248390600080516020613ada833981519152601f840160051c81019160208510611e7857601f0160051c0190613144565b386122bf565b601f198216956005845280842091845b8881106124d5575083600195969798106124bc575b505050811b0160055561229b565b015160001960f88460031b161c191690553880806124ae565b91926020600181928685015181550194019201612499565b612518906005845260208420601f840160051c81019160208510611e7857601f0160051c0190613144565b38612272565b600484528184209190601f198416855b81811061256b5750908460019594939210612552575b505050811b0160045561224e565b015160001960f88460031b161c19169055388080612544565b9293602060018192878601518155019501930161252e565b600484526125b990600080516020613afa833981519152601f850160051c81019160208610611e7857601f0160051c0190613144565b38612228565b50346102c357806003193601126102c357600160a01b6001900390541660085460095491600c54600d5460405193846125f781612c73565b03612602908661295b565b604051958661261081612d02565b0361261b908861295b565b604051918261262981612d87565b03612634908461295b565b604051918261264281612dfa565b0361264d908461295b565b604051928361265b81612e6d565b03612666908561295b565b604051948561267481612ee0565b0361267f908761295b565b612687613250565b986040519b8c9b6101808d526101808d016126a191612a08565b8c810360208e01526126b291612a08565b9060408c01528a810360608c01526126c991612a08565b89810360808b01526126da91612a08565b9160a089015260c088015286810360e08801526126f691612a08565b85810361010087015261270891612a08565b9161012085015261014084015282810361016084015261045a91612a2d565b50346102c357806003193601126102c3576017546040516001600160a01b039091168152602090f35b50346102c35760203660031901126102c3576004356001600160401b03811161093357612781903690600401612999565b9061279c60ff825461197160018060a01b03821633146130d2565b8151156128ad5781516001600160401b0381116123d6576127be600354612c39565b601f8111612871575b50602092601f821160011461280f57829382916127ea9492611dcb57505061315b565b6003555b42600255604051428152600080516020613a3a83398151915260203392a280f35b601f198216936003845280842091845b8681106128595750836001959610612840575b505050811b016003556127ee565b015160001960f88460031b161c19169055388080612832565b9192602060018192868501518155019401920161281f565b600383526128a7906000805160206139da833981519152601f840160051c81019160208510611e7857601f0160051c0190613144565b386127c7565b60405162461bcd60e51b815260206004820152600a602482015269456d707479206461746160b01b6044820152606490fd5b50346102c357806003193601126102c357546040516001600160a01b039091168152602090f35b90503461093357816003193601126109335790546001600160a01b03168152602090f35b608081019081106001600160401b0382111761294557604052565b634e487b7160e01b600052604160045260246000fd5b601f909101601f19168101906001600160401b0382119082101761294557604052565b6001600160401b03811161294557601f01601f191660200190565b81601f820112156129e0578035906129b08261297e565b926129be604051948561295b565b828452602083830101116129e057816000926020809301838601378301015290565b600080fd5b60005b8381106129f85750506000910152565b81810151838201526020016129e8565b90602091612a21815180928185528580860191016129e5565b601f01601f1916010190565b9080602083519182815201916020808360051b8301019401926000915b838310612a5957505050505090565b9091929394602080612a77600193601f198682030187528951612a08565b97019301930191939290612a4a565b9060806003198301126129e0576004356001600160401b0381116129e05782612ab191600401612999565b916024356001600160401b0381116129e05781612ad091600401612999565b916044356001600160401b0381116129e05782612aef91600401612999565b91606435906001600160401b0382116129e057612b0e91600401612999565b90565b9060406003198301126129e0576004356001600160401b0381116129e05782612b3c91600401612999565b91602435906001600160401b0382116129e057612b0e91600401612999565b6001600160401b0381116129455760051b60200190565b9080601f830112156129e0578135612b8981612b5b565b92612b97604051948561295b565b81845260208085019260051b820101918383116129e05760208201905b838210612bc357505050505090565b81356001600160401b0381116129e057602091612be587848094880101612999565b815201910190612bb4565b600435906001600160a01b03821682036129e057565b92949390606092612c2c9160018060a01b03168552608060208601526080850190612a08565b9460408401521515910152565b90600182811c92168015612c69575b6020831014612c5357565b634e487b7160e01b600052602260045260246000fd5b91607f1691612c48565b60045460009291612c8382612c39565b8082529160018116908115612ce65750600114612c9e575050565b60046000908152929350909190600080516020613afa8339815191525b838310612ccc575060209250010190565b600181602092949394548385870101520191019190612cbb565b9050602093945060ff929192191683830152151560051b010190565b60055460009291612d1282612c39565b8082529160018116908115612ce65750600114612d2d575050565b600560009081529293509091907f036b6384b5eca791c62761152d0c79bb0604c104a5fb6f4eb0703f3154bb3db05b838310612d6d575060209250010190565b600181602092949394548385870101520191019190612d5c565b60065460009291612d9782612c39565b8082529160018116908115612ce65750600114612db2575050565b60066000908152929350909190600080516020613ada8339815191525b838310612de0575060209250010190565b600181602092949394548385870101520191019190612dcf565b60075460009291612e0a82612c39565b8082529160018116908115612ce65750600114612e25575050565b60076000908152929350909190600080516020613a7a8339815191525b838310612e53575060209250010190565b600181602092949394548385870101520191019190612e42565b600a5460009291612e7d82612c39565b8082529160018116908115612ce65750600114612e98575050565b600a6000908152929350909190600080516020613a5a8339815191525b838310612ec6575060209250010190565b600181602092949394548385870101520191019190612eb5565b600b5460009291612ef082612c39565b8082529160018116908115612ce65750600114612f0b575050565b600b6000908152929350909190600080516020613aba8339815191525b838310612f39575060209250010190565b600181602092949394548385870101520191019190612f28565b60035460009291612f6382612c39565b8082529160018116908115612ce65750600114612f7e575050565b600360009081529293509091906000805160206139da8339815191525b838310612fac575060209250010190565b600181602092949394548385870101520191019190612f9b565b60009291815491612fd683612c39565b808352926001811690811561302c5750600114612ff257505050565b60009081526020812093945091925b838310613012575060209250010190565b600181602092949394548385870101520191019190613001565b915050602093945060ff929192191683830152151560051b010190565b60105481101561306457601060005260206000200190600090565b634e487b7160e01b600052603260045260246000fd5b60145481101561306457601460005260206000200190600090565b906020808351928381520192019060005b8181106130b35750505090565b82516001600160a01b03168452602093840193909201916001016130a6565b156130d957565b60405162461bcd60e51b815260206004820152600c60248201526b27b7363c9031b932b0ba37b960a11b6044820152606490fd5b1561311457565b60405162461bcd60e51b8152602060048201526008602482015267496e61637469766560c01b6044820152606490fd5b81811061314f575050565b60008155600101613144565b8160011b916000199060031b1c19161790565b81519192916001600160401b0381116129455761318b8254612c39565b601f811161321e575b506020601f82116001146131bc5781906131b8939495600092611dcb57505061315b565b9055565b601f1982169083600052806000209160005b818110613206575095836001959697106131ed575b505050811b019055565b015160001960f88460031b161c191690553880806131e3565b9192602060018192868b0151815501940192016131ce565b61324a90836000526020600020601f840160051c81019160208510611e7857601f0160051c0190613144565b38613194565b600e549061325d82612b5b565b9161326b604051938461295b565b808352600e60009081526000805160206139fa833981519152602085015b8383106132965750505050565b6001602081926040516132ad816107e28189612fc6565b815201920192019190613289565b156132c257565b60405162461bcd60e51b815260206004820152601d60248201527f4f6e6c7920766f74696e6720636f6e74726163742063616e2063616c6c0000006044820152606490fd5b906060926133246133329297969597608085526080850190612a08565b908382036020850152612a08565b9460408201520152565b600019811461334b5760010190565b634e487b7160e01b600052601160045260246000fd5b6040919493926060820195825260208201520152565b6133818154612c39565b908161338b575050565b81601f6000931160011461339d575055565b818352602083206133b991601f0160051c810190600101613144565b8082528160208120915555565b156133cd57565b60405162461bcd60e51b815260206004820152601860248201527714dd1bdc9859d94818dbdb9d1c9858dd081b9bdd081cd95d60421b6044820152606490fd5b9361343a61344d9361342c612b0e98969460a0895260a0890190612a08565b908782036020890152612a08565b9160408601528482036060860152612a08565b916080818403910152612a08565b1561346257565b60405162461bcd60e51b815260206004820152600e60248201526d105b1c9958591e481b1a5b9ad95960921b6044820152606490fd5b1561349f57565b60405162461bcd60e51b8152602060048201526017602482015276159bdd1a5b99c818dbdb9d1c9858dd081b9bdd081cd95d604a1b6044820152606490fd5b519081151582036129e057565b604051906134fa60408361295b565b600f82526e6163746976655f6c6561726e696e6760881b6020830152565b9190820391821161334b57565b908151811015613064570160200190565b6040516361d25a0d60e11b8152602081600481305afa9081156136975760009161365d575b5061365857604051613570816107e281612d87565b6020815191012061357f6134eb565b60208151910120146136535760405161359b816107e281612f53565b6135a36134eb565b8151815111156135b5575b5050600090565b6000905b6135c68351825190613518565b82116136495760019260005b825181101561363f5780840180851161334b576001600160f81b0319906135f99084613525565b51166001600160f81b031961360e8386613525565b51160361361d576001016135d2565b5092509060005b613637576136319061333c565b906135b9565b505050600190565b5092919091613624565b50505038806135ae565b600190565b600090565b90506020813d60201161368f575b816136786020938361295b565b810103126129e057613689906134de565b3861355b565b3d915061366b565b6040513d6000823e3d90fd5b6016546001600160a01b03166136ba811515613498565b60105460005b81811061372a575050506020906001604051916136dd848461295b565b60008352600091613725575b604051906136f7858361295b565b8282528236813760405161370b868261295b565b8381529461371c604051918261295b565b83815293929190565b6136e9565b6107e2613739610df683613049565b6040519060ff815192602081818501956137548183896129e5565b8101601181520301902054168061390a575b613775575b50506001016136c0565b6040516379c4ab1560e01b8152602060048201526000818061379a6024820186612a08565b0381895afa908115613697576000918291839161386b575b5081613862575b506137c4575061376b565b9195945092506137d5915042613518565b600f54908181106138535750506000905b61382a603060405180966f029b0b6b83632903230ba30903337b9160851b602083015261381985518092858501906129e5565b81010301601f19810186528561295b565b60405190602061383a818461295b565b60008352506000368137939261384e613250565b929190565b61385c91613518565b906137e6565b905015386137b9565b9150503d8083833e61387d818361295b565b8101916080828403126102c357815190613899602084016134de565b936138a6604085016134de565b606085015190946001600160401b03821161112e57019080601f830112156103d6578151926138d48461297e565b916138e2604051938461295b565b848352602085850101116102c357509060208061390294930191016129e5565b9190386137b2565b50604051628ae9fd60e31b8152602060048201819052818061392f6024820186612a08565b0381895afa90811561369757600091613949575b50613766565b906020823d821161397a575b816139626020938361295b565b810103126102c35750613974906134de565b38613943565b3d9150613955565b1561398957565b60405162461bcd60e51b815260206004820152600a602482015269139bc81c995c5d595cdd60b21b6044820152606490fd5b60036000918281556139cf60018201613377565b826002820155015556fec2575a0e9e593c00f959f8c92f12db2869c3395a3b0502d05e2516446f71f85bbb7b4a454dc3493923482f07822329ed19e8244eff582cc204f8554c3620c3fd9b196abb2588eccefb36f3e6c9b15d9e260c633d5b2e0b8f497e6e71c6c1c1eac1756fd99ac9a2b1b22b5e701ddb022b897a002144d045b77ac35ce46610fef6c65a7bb8d6351c1cf70c95a316cc6a92839c986682d98bc35f958f4883f9d2a8a66cc928b5edb82af9bd49922954155ab7b0942694bea4ce44661d9a8736c6889aa934e5a98d12b60dabec0f34647f2b63b8fd257ba6480e7ded4cc1ef24c5730175b7a638427703f0dbe7bb9bbf987a2551717b34e79f33b5b1008d1fa01db9f652222313e28459528d920b65115c16c04f3efc82aaedc97be59f3f377c0d3f8a35acfbc15ff81a39ae7d344fd709f28e8600b4aa8c65c6b64bfe7fe36bd19b31d3ac54da09405b02d1de0ee0de648de637fbdc111123be0d7fc31f2a544c0ba264697066735822122005dbf8d3f769dc533ef28a6c3ac6e43434d8f3976ca5ec13800676edef97943864736f6c634300081c0033",
  "linkReferences": {},
  "deployedLinkReferences": {}
}