{
  "_format": "hh-sol-artifact-1",
  "contractName": "ProjectFactory",
  "sourceName": "contracts/ProjectFactory.sol",
  "abi": [
    {
      "inputs": [
        {
          "internalType": "address",
          "name": "_templateRegistry",
          "type": "address"
        }
      ],
      "stateMutability": "nonpayable",
      "type": "constructor"
    },
    {
      "anonymous": false,
      "inputs": [
        {
          "indexed": true,
          "internalType": "address",
          "name": "creator",
          "type": "address"
        },
        {
          "indexed": true,
          "internalType": "address",
          "name": "projectAddress",
          "type": "address"
        },
        {
          "indexed": false,
          "internalType": "string",
          "name": "projectType",
          "type": "string"
        },
        {
          "indexed": false,
          "internalType": "uint256",
          "name": "templateId",
          "type": "uint256"
        },
        {
          "indexed": false,
          "internalType": "uint256",
          "name": "timestamp",
          "type": "uint256"
        }
      ],
      "name": "ProjectCreated",
      "type": "event"
    },
    {
      "inputs": [
        {
          "internalType": "uint256",
          "name": "",
          "type": "uint256"
        }
      ],
      "name": "allProjects",
      "outputs": [
        {
          "internalType": "address",
          "name": "",
          "type": "address"
        }
      ],
      "stateMutability": "view",
      "type": "function"
    },
    {
      "inputs": [
        {
          "internalType": "address",
          "name": "_projectAddress",
          "type": "address"
        }
      ],
      "name": "checkIsDALProject",
      "outputs": [
        {
          "internalType": "bool",
          "name": "",
          "type": "bool"
        }
      ],
      "stateMutability": "view",
      "type": "function"
    },
    {
      "inputs": [
        {
          "internalType": "address",
          "name": "_projectAddress",
          "type": "address"
        }
      ],
      "name": "checkIsProject",
      "outputs": [
        {
          "internalType": "bool",
          "name": "",
          "type": "bool"
        }
      ],
      "stateMutability": "view",
      "type": "function"
    },
    {
      "inputs": [
        {
          "internalType": "string",
          "name": "_projectData",
          "type": "string"
        }
      ],
      "name": "createCustomProject",
      "outputs": [
        {
          "internalType": "address",
          "name": "",
          "type": "address"
        }
      ],
      "stateMutability": "nonpayable",
      "type": "function"
    },
    {
      "inputs": [
        {
          "internalType": "uint256",
          "name": "_templateId",
          "type": "uint256"
        },
        {
          "internalType": "string",
          "name": "_projectData",
          "type": "string"
        }
      ],
      "name": "createProjectFromTemplate",
      "outputs": [
        {
          "internalType": "address",
          "name": "",
          "type": "address"
        }
      ],
      "stateMutability": "nonpayable",
      "type": "function"
    },
    {
      "inputs": [
        {
          "internalType": "uint256",
          "name": "",
          "type": "uint256"
        }
      ],
      "name": "dalProjects",
      "outputs": [
        {
          "internalType": "address",
          "name": "",
          "type": "address"
        }
      ],
      "stateMutability": "view",
      "type": "function"
    },
    {
      "inputs": [],
      "name": "getAllProjects",
      "outputs": [
        {
          "internalType": "address[]",
          "name": "",
          "type": "address[]"
        }
      ],
      "stateMutability": "view",
      "type": "function"
    },
    {
      "inputs": [],
      "name": "getDALProjectCount",
      "outputs": [
        {
          "internalType": "uint256",
          "name": "",
          "type": "uint256"
        }
      ],
      "stateMutability": "view",
      "type": "function"
    },
    {
      "inputs": [],
      "name": "getDALProjects",
      "outputs": [
        {
          "internalType": "address[]",
          "name": "",
          "type": "address[]"
        }
      ],
      "stateMutability": "view",
      "type": "function"
    },
    {
      "inputs": [],
      "name": "getProjectCount",
      "outputs": [
        {
          "internalType": "uint256",
          "name": "",
          "type": "uint256"
        }
      ],
      "stateMutability": "view",
      "type": "function"
    },
    {
      "inputs": [
        {
          "internalType": "address",
          "name": "_user",
          "type": "address"
        }
      ],
      "name": "getUserProjectCount",
      "outputs": [
        {
          "internalType": "uint256",
          "name": "",
          "type": "uint256"
        }
      ],
      "stateMutability": "view",
      "type": "function"
    },
    {
      "inputs": [
        {
          "internalType": "address",
          "name": "_user",
          "type": "address"
        }
      ],
      "name": "getUserProjects",
      "outputs": [
        {
          "internalType": "address[]",
          "name": "",
          "type": "address[]"
        }
      ],
      "stateMutability": "view",
      "type": "function"
    },
    {
      "inputs": [
        {
          "internalType": "address",
          "name": "",
          "type": "address"
        }
      ],
      "name": "isDALProject",
      "outputs": [
        {
          "internalType": "bool",
          "name": "",
          "type": "bool"
        }
      ],
      "stateMutability": "view",
      "type": "function"
    },
    {
      "inputs": [
        {
          "internalType": "address",
          "name": "",
          "type": "address"
        }
      ],
      "name": "isProject",
      "outputs": [
        {
          "internalType": "bool",
          "name": "",
          "type": "bool"
        }
      ],
      "stateMutability": "view",
      "type": "function"
    },
    {
      "inputs": [],
      "name": "templateRegistry",
      "outputs": [
        {
          "internalType": "contract ProjectTemplateRegistry",
          "name": "",
          "type": "address"
        }
      ],
      "stateMutability": "view",
      "type": "function"
    },
    {
      "inputs": [
        {
          "internalType": "address",
          "name": "",
          "type": "address"
        },
        {
          "internalType": "uint256",
          "name": "",
          "type": "uint256"
        }
      ],
      "name": "userProjects",
      "outputs": [
        {
          "internalType": "address",
          "name": "",
          "type": "address"
        }
      ],
      "stateMutability": "view",
      "type": "function"
    }
  ],
  "bytecode": "0x60803460cb57601f614d0d38819003918201601f19168301916001600160401b0383118484101760d05780849260209460405283398101031260cb57516001600160a01b0381169081900360cb578015607557600080546001600160a01b031916919091179055604051614c2690816100e78239f35b60405162461bcd60e51b815260206004820152602860248201527f54656d706c61746520726567697374727920616464726573732063616e6e6f74604482015267206265207a65726f60c01b6064820152608490fd5b600080fd5b634e487b7160e01b600052604160045260246000fdfe608080604052600436101561001357600080fd5b60003560e01c90816305c8140814610966575080630e9eb496146100f25780632fa9c007146109035780633bcff3b0146108e55780633f3c9833146108a65780634780f786146104de57806353b3194c1461048857806380d038291461041b5780639c1fa044146103b1578063a0af81f014610388578063a375728a1461034e578063bb3098ff146102e1578063e32e723c14610251578063eabec3a314610131578063f0f847d6146100f25763f4d32852146100cf57600080fd5b346100ed5760003660031901126100ed576020600554604051908152f35b600080fd5b346100ed5760203660031901126100ed576001600160a01b036101136109a1565b166000526004602052602060ff604060002054166040519015158152f35b346100ed5760203660031901126100ed576004356001600160401b0381116100ed57610161903690600401610a23565b61016d81511515610b15565b60405190613f87808301916001600160401b0383118484101761023b57839261019c92610c0a85393390610b85565b03906000f0801561022f5760209060018060a01b031633600052600182526101c8816040600020610bec565b80600052600282526040600020600160ff198254161790556101e981610ba7565b80604051606081526006606082015265637573746f6d60d01b6080820152600084820152426040820152600080516020614bb183398151915260a03392a3604051908152f35b6040513d6000823e3d90fd5b634e487b7160e01b600052604160045260246000fd5b346100ed5760203660031901126100ed576001600160a01b036102726109a1565b166000526001602052604060002060405190816020825491828152019160005260206000209060005b8181106102c2576102be856102b2818703826109e5565b60405191829182610a6a565b0390f35b82546001600160a01b031684526020909301926001928301920161029b565b346100ed5760003660031901126100ed576040516005805480835260009182526020830191600080516020614b9183398151915291905b81811061032f576102be856102b2818703826109e5565b82546001600160a01b0316845260209093019260019283019201610318565b346100ed5760203660031901126100ed576001600160a01b0361036f6109a1565b1660005260016020526020604060002054604051908152f35b346100ed5760003660031901126100ed576000546040516001600160a01b039091168152602090f35b346100ed5760203660031901126100ed576004356005548110156100ed57600090600554811015610407576005909152600080516020614b9183398151915201546040516001600160a01b039091168152602090f35b634e487b7160e01b82526032600452602482fd5b346100ed5760003660031901126100ed576040516003805480835260009182526020830191600080516020614bd183398151915291905b818110610469576102be856102b2818703826109e5565b82546001600160a01b0316845260209093019260019283019201610452565b346100ed5760203660031901126100ed576004356003548110156100ed57600090600354811015610407576003909152600080516020614bd183398151915201546040516001600160a01b039091168152602090f35b346100ed5760403660031901126100ed576004356024356001600160401b0381116100ed576105136024913690600401610a23565b60008054604051630c550f3d60e21b81526004810186905293849182906001600160a01b03165afa801561022f576000928391610732575b50156106f45761055d81511515610b15565b60405190613f87808301916001600160401b0383118484101761023b57839261058c92610c0a85393390610b85565b03906000f0801561022f5760018060a01b03169060405160208101906105ce60208285516105bd8187858a01610aad565b81010301601f1981018352826109e5565b51902060405160208101906e6163746976655f6c6561726e696e6760881b8252600f81526105fd602f826109e5565b5190201461067f575b602092600080516020614bb183398151915283923360005260018652610630846040600020610bec565b83600052600286526040600020600160ff1982541617905561065184610ba7565b61066660405191606083526060830190610b60565b92868201524260408201528033930390a3604051908152f35b6000828152600460205260409020805460ff1916600117905560055492600160401b84101561023b57600080516020614bb183398151915283926106cd8660016020980160055560056109b7565b81546001600160a01b0360039290921b91821b191695901b94909417909355509250610606565b60405162461bcd60e51b815260206004820152601660248201527554656d706c617465206973206e6f742061637469766560501b6044820152606490fd5b90503d8084833e61074381836109e5565b81019060c0818303126108a25780516001600160401b03811161089e578261076c918301610ad0565b5060208101516001600160401b03811161089e578261078c918301610ad0565b5060408101516001600160401b03811161089e57826107ac918301610ad0565b60608201519092906001600160401b03811161085157820181601f820112156108515780516001600160401b03811161088a576020808260051b92604051906107f7838601836109e5565b81520191830101918383116108865760208101915b838310610855575050505060808201516001600160401b0381116108515782916108399160a09401610ad0565b50015192831515840361084e5750918461054b565b80fd5b8580fd5b82516001600160401b0381116108825760209161087787848094870101610ad0565b81520192019161080c565b8980fd5b8780fd5b634e487b7160e01b87526041600452602487fd5b8480fd5b8380fd5b346100ed5760203660031901126100ed576001600160a01b036108c76109a1565b166000526002602052602060ff604060002054166040519015158152f35b346100ed5760003660031901126100ed576020600354604051908152f35b346100ed5760403660031901126100ed5761091c6109a1565b6001600160a01b03166000908152600160205260409020805460243591908210156100ed5760209161094d916109b7565b905460405160039290921b1c6001600160a01b03168152f35b346100ed5760203660031901126100ed576020906001600160a01b0361098a6109a1565b166000526002825260ff6040600020541615158152f35b600435906001600160a01b03821682036100ed57565b80548210156109cf5760005260206000200190600090565b634e487b7160e01b600052603260045260246000fd5b601f909101601f19168101906001600160401b0382119082101761023b57604052565b6001600160401b03811161023b57601f01601f191660200190565b81601f820112156100ed57803590610a3a82610a08565b92610a4860405194856109e5565b828452602083830101116100ed57816000926020809301838601378301015290565b602060408183019282815284518094520192019060005b818110610a8e5750505090565b82516001600160a01b0316845260209384019390920191600101610a81565b60005b838110610ac05750506000910152565b8181015183820152602001610ab0565b81601f820112156100ed578051610ae681610a08565b92610af460405194856109e5565b818452602082840101116100ed57610b129160208085019101610aad565b90565b15610b1c57565b60405162461bcd60e51b815260206004820152601c60248201527b50726f6a65637420646174612063616e6e6f7420626520656d70747960201b6044820152606490fd5b90602091610b7981518092818552858086019101610aad565b601f01601f1916010190565b6001600160a01b039091168152604060208201819052610b1292910190610b60565b600354600160401b81101561023b57806001610bc8920160035560036109b7565b81546001600160a01b0393841660039290921b91821b9390911b1916919091179055565b8054600160401b81101561023b57610bc8916001820181556109b756fe6080604052346102dc57613f8780380380610019816102e1565b9283398101906040818303126102dc5780516001600160a01b03811691908290036102dc576020810151906001600160401b0382116102dc570182601f820112156102dc578051906001600160401b03821161026c57610082601f8301601f19166020016102e1565b93828552602083830101116102dc5760005b8281106102c757505060206000918401015281511561028257600080546001600160a01b0319168217905581516001600160401b03811161026c57600354600181811c91168015610262575b602082101461024c57601f81116101e7575b50602092601f82116001146101825792819293600092610177575b50508160011b916000199060031b1c1916176003555b4260015542600255600160a01b60ff60a01b1960005416176000557f20bfd29f3d906f96fc35742fac45a554b19cbd4e21f8c4c1d84cb58fdfc32c896020604051428152a2604051613c8090816103078239f35b01519050388061010d565b601f198216936003600052806000209160005b8681106101cf57508360019596106101b6575b505050811b01600355610123565b015160001960f88460031b161c191690553880806101a8565b91926020600181928685015181550194019201610195565b60036000527fc2575a0e9e593c00f959f8c92f12db2869c3395a3b0502d05e2516446f71f85b601f830160051c81019160208410610242575b601f0160051c01905b81811061023657506100f2565b60008155600101610229565b9091508190610220565b634e487b7160e01b600052602260045260246000fd5b90607f16906100e0565b634e487b7160e01b600052604160045260246000fd5b60405162461bcd60e51b815260206004820152601c60248201527f50726f6a65637420646174612063616e6e6f7420626520656d707479000000006044820152606490fd5b80602080928401015182828801015201610094565b600080fd5b6040519190601f01601f191682016001600160401b0381118382101761026c5760405256fe60c080604052600436101561001357600080fd5b600090813560e01c90816302d05d3f14612bf2575080630ee2cb1014612bcb57806310218f4d14612a6957806311ce026714612a405780631af9fd171461280057806322f3e2d4146127db5780632b17b8be146127a45780632bc5c4801461226e5780633197cbb61461225057806332c6afd0146121df578063383e1a5e1461217c5780633fa9696714611fb257806343862d2314611f8e578063461e198b14611eb35780634a79d50c14611e8f5780634d320b9814611d7357806355b31b5514610dfe57806358f43f7614611d2357806359abbfe414611cfe5780635e1a6c1714611cd35780636ac4e50e14611c695780637284e41614611c45578063728f111214611b91578063764926db14611aad57806377c39c2114611a8f5780637847f1de146118de57806378e97925146118c057806379ec4f19146118325780637a83a44b1461180d5780637f52cadc146117e957806384e07728146117065780638a19c8bc146116e85780638ba26e2f14611177578063929066f514611138578063953cc52c14610f23578063985859f614610e225780639c0768b314610dfe578063a074018414610dda578063a672601d14610ce6578063b0942ce514610cc8578063b568647914610c31578063b70825dc14610bed578063bbffd04c14610b3b578063c127c24714610a97578063c1fc006a14610a6e578063c2fc0d2614610a4a578063c3a4b41a14610a04578063c3feda171461094b578063c6765d28146107c8578063cf09e0d0146107aa578063df6465d01461076b578063dfafe10f146106b7578063dfb748aa146105f7578063e1d5a2c814610556578063e7aa3afc14610512578063ef2131061461049d578063f7267cfd1461047f578063f75eade0146102d15763fba7cc79146102aa57600080fd5b346102ce57806003193601126102ce5760ff6020915460a01c166040519015158152f35b80fd5b50346102ce576102e036613291565b825490916001600160a01b0382169161030a9060ff906103013386146132d3565b60a01c16613334565b6001600160a01b031690811461043a57808352601160205260ff6003604085200154166103f95761033d825115156135cc565b61037360405161034c81612c16565b8281528360208201524260408201526001606082015282855260116020526040852061360f565b601354600160401b8110156103e5578060016103949201601355601361323c565b81549060031b9083821b9160018060a01b03901b19161790557f07501885e0e140e0232eed19016a41bde16b8de699d11e7a461f88d6ba58a9cd604051806103df339542908361356a565b0390a380f35b634e487b7160e01b84526041600452602484fd5b60405162461bcd60e51b8152602060048201526019602482015278496e7669746174696f6e20616c72656164792065786973747360381b6044820152606490fd5b60405162461bcd60e51b815260206004820152601d60248201527f43616e6e6f7420696e766974652070726f6a6563742063726561746f720000006044820152606490fd5b50346102ce57806003193601126102ce576020600254604051908152f35b50346102ce5760203660031901126102ce576040906001600160a01b036104c2612d0d565b16815260106020522060018060a01b0381541661050e604051926104f4846104ed816001850161316d565b0385612c47565b60ff60036002830154920154169060405194859485612d23565b0390f35b50346102ce57806003193601126102ce5760809054600154906002546040519260ff8360a01c16151584526020840152604083015260018060a01b03166060820152f35b50346102ce57806003193601126102ce576014546001600160a01b031633036105bb57601754600181018091116105a757602081600080516020613b8b83398151915292601755604051908152a180f35b634e487b7160e01b82526011600452602482fd5b60405162461bcd60e51b815260206004820152601460248201527313db9b1e481d9bdd1a5b99c818dbdb9d1c9858dd60621b6044820152606490fd5b50346102ce5760203660031901126102ce57610611612d0d565b61062560018060a01b0383541633146132d3565b6001600160a01b03168082526010602052604082206003015461064a9060ff16613a80565b808252601060205261065e604083206134d2565b808252601660205260408220600160ff19825416179055604051428152817f423eb00b6a18c3ecfc2170a0e40ef0bad995279070614ba2e4be1b94f67eb88860203393a3600080516020613c0b8339815191528280a280f35b50346102ce5760203660031901126102ce576106d1612d0d565b6106e560018060a01b0383541633146132d3565b6001600160a01b03168082526016602052604082205460ff1661072e57808252601660205260408220805460ff19166001179055600080516020613c0b8339815191528280a280f35b60405162461bcd60e51b8152602060048201526015602482015274105b1c9958591e4818481c185c9d1a58da5c185b9d605a1b6044820152606490fd5b50346102ce57806003193601126102ce5761050e6040516107968161078f81612fa1565b0382612c47565b604051918291602083526020830190612ccc565b50346102ce57806003193601126102ce576020600154604051908152f35b50346102ce5760203660031901126102ce576004356001600160401b038111610947576107f9903690600401612c85565b9061080a60ff825460a01c16613334565b61081682511515613378565b81516001600160401b03811161093357610831600354612d6d565b601f81116108ec575b50602092601f821160011461088a578293829161085e949261087f575b50506133da565b6003555b604051428152600080516020613b0b83398151915260203392a280f35b015190503880610857565b601f198216936003845280842091845b8681106108d457508360019596106108bb575b505050811b01600355610862565b015160001960f88460031b161c191690553880806108ad565b9192602060018192868501518155019401920161089a565b6003835261092390600080516020613aeb833981519152601f840160051c81019160208510610929575b601f0160051c01906133c3565b3861083a565b9091508190610916565b634e487b7160e01b82526041600452602482fd5b5080fd5b50346102ce57806003193601126102ce578054610972336001600160a01b038316146132d3565b60ff8160a01c166109c35760ff60a01b1916600160a01b17815542600281905560405190815233907fb351ba71ddc1d2bf39667cebde99fb92eb26b9f418d5049ba0200888ba81071590602090a280f35b60405162461bcd60e51b815260206004820152601960248201527850726f6a65637420697320616c72656164792061637469766560381b6044820152606490fd5b50346102ce57806003193601126102ce576014546001600160a01b0316151580610a36575b6020906040519015158152f35b506015546001600160a01b03161515610a29565b50346102ce57806003193601126102ce5761050e6040516107968161078f81612ebb565b50346102ce57806003193601126102ce576014546040516001600160a01b039091168152602090f35b50346102ce57610aa636613291565b90610ac160ff845461030160018060a01b03821633146132d3565b6001600160a01b0316908115610b0457610afe81610af0600080516020613b4b833981519152935115156135cc565b60405191829142908361356a565b0390a280f35b60405162461bcd60e51b815260206004820152600f60248201526e496e76616c6964206164647265737360881b6044820152606490fd5b50346102ce57806003193601126102ce578054610b62336001600160a01b038316146132d3565b60ff8160a01c1615610baa5760ff60a01b19168155426002556040514281527f17064d72ee4a5901e55dfa45024ea8f67cdb4895ba6364ab2f8e7223f642ad3660203392a280f35b60405162461bcd60e51b815260206004820152601b60248201527a50726f6a65637420697320616c726561647920696e61637469766560281b6044820152606490fd5b50346102ce5760203660031901126102ce57600435906013548210156102ce576020610c1883613221565b905460405160039290921b1c6001600160a01b03168152f35b50346102ce5760203660031901126102ce57610c4b612d0d565b610c5f60018060a01b0383541633146132d3565b6001600160a01b031680825260106020526040822060030154610c849060ff16613a80565b8082526010602052610c98604083206134d2565b604051904282527f1a69e67d1be897d0ca0cf1517b4d17e345b4272a80bc900f9fe8e96f261ca1db60203393a380f35b50346102ce57806003193601126102ce576020600d54604051908152f35b50346102ce5760203660031901126102ce57806004356001600160401b038111610dd757610d1982913690600401612c85565b610d2d60018060a01b0383541633146132d3565b6014546001600160a01b031690610d45821515613586565b82604051610d7e81610d70602082019563a672601d60e01b8752602060248401526044830190612ccc565b03601f198101835282612c47565b51925af1610d8a6134f0565b5015610d935780f35b60405162461bcd60e51b815260206004820152601c60248201527b2330b4b632b2103a379032b732103b37ba34b7339039b2b9b9b4b7b760211b6044820152606490fd5b50fd5b50346102ce57806003193601126102ce5761050e6040516107968161078f81613014565b50346102ce57806003193601126102ce5761050e6040516107968161078f816130fa565b50346102ce57806003193601126102ce5760135481805b828110610ed85750610e4a90613a3a565b9180805b838110610e6b576040516020808252819061050e90820188613254565b610e7481613221565b9054600391821b1c6001600160a01b03168352601160205260408320015460ff16610ea2575b600101610e4e565b91610ed0600191610eb285613221565b848060a01b0391549060031b1c16610eca8289613a6c565b5261376f565b929050610e9a565b610ee181613221565b9054600391821b1c6001600160a01b03168552601160205260408520015460ff16610f0f575b600101610e39565b90610f1b60019161376f565b919050610f07565b50346102ce5760403660031901126102ce576004356001600160401b0381116109475736602382011215610947578060040135610f5f81612d56565b91610f6d6040519384612c47565b8183526024602084019260051b8201019036821161113457602401915b81831061110f5750506024359190506001600160401b03821161110b573660238301121561110b57816004013591610fc183612d56565b90610fcf6040519283612c47565b838252602082016024819560051b8301019136831161110757906024879594939201905b8282106110f45750505061101160018060a01b0384541633146132d3565b6014546001600160a01b031693611029851515613586565b60405191602061105181850195631d70957f60e21b8752604060248701526064860190613254565b848103602319016044860152915180835291019190855b8181106110db575050508161108a85969493869303601f198101835282612c47565b51925af16110966134f0565b501561109f5780f35b60405162461bcd60e51b81526020600482015260146024820152734661696c656420746f2073657420766f7465727360601b6044820152606490fd5b8251845288965060209384019390920191600101611068565b8135815287955060209182019101610ff3565b8680fd5b8280fd5b82356001600160a01b038116810361112f57815260209283019201610f8a565b600080fd5b8480fd5b50346102ce5760203660031901126102ce5760209060ff906040906001600160a01b03611163612d0d565b168152601684522054166040519015158152f35b50346102ce5760a03660031901126102ce576004356001600160401b038111610947576111a8903690600401612c85565b6024356001600160401b03811161110b576111c7903690600401612c85565b906044356001600160401b0381116116e4576111e7903690600401612c85565b926064356001600160401b03811161094757611207903690600401612c85565b926084356001600160401b03811161110b57611227903690600401612c85565b9261123c60018060a01b0384541633146132d3565b8051906001600160401b0382116103e557611258600454612d6d565b601f81116116a8575b50602090601f831160011461164357611283929185918361087f5750506133da565b6004555b8051906001600160401b03821161162f576112a3600554612d6d565b601f81116115fe575b50602090601f8311600114611599576112ce929184918361087f5750506133da565b6005555b83516001600160401b038111610933576112ed600654612d6d565b601f811161155d575b50602094601f82116001146114f95782939495829161131b949261087f5750506133da565b6006555b82516001600160401b0381116109335761133a600754612d6d565b601f81116114bd575b506020601f821160011461145a578190839495611366949261087f5750506133da565b6007555b81516001600160401b03811161093357611385600854612d6d565b601f811161141e575b50602092601f82116001146113bc57829382916113b1949261087f5750506133da565b6008555b4260025580f35b601f198216936008845280842091845b86811061140657508360019596106113ed575b505050811b016008556113b5565b015160001960f88460031b161c191690553880806113df565b919260206001819286850151815501940192016113cc565b6008835261145490600080516020613b6b833981519152601f840160051c8101916020851061092957601f0160051c01906133c3565b3861138e565b6007835280832090601f198316845b8181106114a55750958360019596971061148c575b505050811b0160075561136a565b015160001960f88460031b161c1916905538808061147e565b9192602060018192868b015181550194019201611469565b600783526114f390600080516020613b2b833981519152601f840160051c8101916020851061092957601f0160051c01906133c3565b38611343565b601f198216956006845280842091845b8881106115455750836001959697981061152c575b505050811b0160065561131f565b015160001960f88460031b161c1916905538808061151e565b91926020600181928685015181550194019201611509565b6006835261159390600080516020613bcb833981519152601f840160051c8101916020851061092957601f0160051c01906133c3565b386112f6565b600584528184209190601f198416855b8181106115e657509084600195949392106115cd575b505050811b016005556112d2565b015160001960f88460031b161c191690553880806115bf565b929360206001819287860151815501950193016115a9565b611629906005855260208520601f850160051c8101916020861061092957601f0160051c01906133c3565b386112ac565b634e487b7160e01b83526041600452602483fd5b600485528185209190601f198416865b8181106116905750908460019594939210611677575b505050811b01600455611287565b015160001960f88460031b161c19169055388080611669565b92936020600181928786015181550195019301611653565b600485526116de90600080516020613beb833981519152601f850160051c8101916020861061092957601f0160051c01906133c3565b38611261565b8380fd5b50346102ce57806003193601126102ce576020601754604051908152f35b50346102ce57806003193601126102ce5760125481805b82811061179e575061172e90613a3a565b9180805b83811061174f576040516020808252819061050e90820188613254565b611758816131f0565b9054600391821b1c6001600160a01b03168352601060205260408320015460ff16611786575b600101611732565b91611796600191610eb2856131f0565b92905061177e565b6117a7816131f0565b9054600391821b1c6001600160a01b03168552601060205260408520015460ff166117d5575b60010161171d565b906117e160019161376f565b9190506117cd565b50346102ce57806003193601126102ce5761050e6040516107968161078f81613087565b50346102ce57806003193601126102ce5760206118286137a5565b6040519015158152f35b50346102ce5760403660031901126102ce576004356024359061185f60018060a01b0384541633146132d3565b8181101561187057600955600a5580f35b60405162461bcd60e51b815260206004820152602260248201527f53746172742074696d65206d757374206265206265666f726520656e642074696044820152616d6560f01b6064820152608490fd5b50346102ce57806003193601126102ce576020600954604051908152f35b50346102ce5760203660031901126102ce576004356001600160401b0381116109475761190f903690600401612c85565b815461192060ff8260a01c16613334565b6001600160a01b03163314611a3757338252601060205260ff6003604084200154166119f457611952815115156135cc565b61198860405161196181612c16565b3381528260208201524260408201526001606082015233845260106020526040842061360f565b601254600160401b81101561162f578060016119a99201601255601261323c565b81549060031b9033821b9160018060a01b03901b19161790557fe4d6c018abd0178d4bce0856089ef1876318617b97a1d700bb98506598ab0afc60405180610afe339442908361356a565b60405162461bcd60e51b815260206004820152601b60248201527a4a6f696e207265717565737420616c72656164792065786973747360281b6044820152606490fd5b60405162461bcd60e51b815260206004820152602a60248201527f50726f6a6563742063726561746f722063616e6e6f74207375626d6974206a6f6044820152691a5b881c995c5d595cdd60b21b6064820152608490fd5b50346102ce57806003193601126102ce576020600e54604051908152f35b50346102ce5760203660031901126102ce57806004356001600160401b038111610dd757611ae082913690600401612c85565b611af460018060a01b0383541633146132d3565b6014546001600160a01b031690611b0c821515613586565b82604051611b3781610d70602082019563764926db60e01b8752602060248401526044830190612ccc565b51925af1611b436134f0565b5015611b4c5780f35b60405162461bcd60e51b815260206004820152601e60248201527f4661696c656420746f20737461727420766f74696e672073657373696f6e00006044820152606490fd5b50346102ce57806003193601126102ce57611bb260ff825460a01c16613334565b3381526011602052611bcd60ff60036040842001541661348a565b33815260116020526020611be3604083206133ed565b33835260118252611bf6604084206134d2565b60405142815230907f7b7404d30440087c51e068aac60d434f5a3a121313c035893fdf187c11d077b6843392a30151600080516020613b4b83398151915260405180610afe339442908361356a565b50346102ce57806003193601126102ce5761050e6040516107968161078f81612e36565b50346102ce5760203660031901126102ce57600435600f5481101561094757600f54811015611cbf57600f90915260405161050e9161079690829061078f908290600080516020613c2b8339815191520161316d565b634e487b7160e01b82526032600452602482fd5b50346102ce5760203660031901126102ce57600435906012548210156102ce576020610c18836131f0565b50346102ce57806003193601126102ce57604060015460025482519182526020820152f35b50346102ce5760203660031901126102ce576040906001600160a01b03611d48612d0d565b16815260116020522060018060a01b0381541661050e604051926104f4846104ed816001850161316d565b50346102ce5760403660031901126102ce57611d8d612d0d565b6024356001600160a01b038116919082900361110b57611db760018060a01b0384541633146132d3565b6001600160a01b03169081151580611e86575b15611e4d576014547fc88cdca9f466e28f0dde9f13a5462d887fe2998e1847d57f410da2699ff6079d9260409290918190611e0e6001600160a01b03821615613520565b601554908490611e276001600160a01b03841615613520565b6001600160a01b031990811691909117601455161760155582519182526020820152a180f35b60405162461bcd60e51b8152602060048201526011602482015270496e76616c69642061646472657373657360781b6044820152606490fd5b50801515611dca565b50346102ce57806003193601126102ce5761050e6040516107968161078f81612da7565b50346102ce5760203660031901126102ce576004356001600160401b03811161094757611ee4903690600401612c85565b8154611f019060ff90610301336001600160a01b038316146132d3565b60175460018101809111611f7a5790817fbb4ba47257d82c025e976bcdc375cc2e26de94efd111bca20cbc9a330d2974559260175542600255600080516020613b8b8339815191526020604051838152a1611f6e6040519283928352606060208401526060830190612ccc565b4260408301520390a180f35b634e487b7160e01b83526011600452602483fd5b50346102ce57806003193601126102ce5761050e6040516107968161078f81612f2e565b50346102ce5760a03660031901126102ce576004356001600160401b03811161094757611fe3903690600401612c85565b6024356001600160401b03811161110b57612002903690600401612c85565b906064356001600160401b0381116116e457612022903690600401612c85565b916084356001600160401b03811161113457612042903690600401612c85565b9161205760018060a01b0386541633146132d3565b6015546001600160a01b031691821561213c576120b86120e4879692610d7088976120d289966040519687956120a6602088019b633fa9696760e01b8d5260a060248a015260c4890190612ccc565b87810360231901604489015290612ccc565b604435606487015285810360231901608487015290612ccc565b8381036023190160a485015290612ccc565b51925af16120f06134f0565b50156120f95780f35b60405162461bcd60e51b815260206004820152601b60248201527a11985a5b1959081d1bc81cdd1bdc9948199a5b985b081b1858995b602a1b6044820152606490fd5b60405162461bcd60e51b815260206004820152601860248201527714dd1bdc9859d94818dbdb9d1c9858dd081b9bdd081cd95d60421b6044820152606490fd5b50346102ce5760203660031901126102ce576121b3906040906001600160a01b036121a5612d0d565b1681526010602052206133ed565b60018060a01b0381511661050e6020830151926060604082015191015115159060405194859485612d23565b50346102ce57806003193601126102ce57338152601160205261220b60ff60036040842001541661348a565b338152601160205261221f604082206134d2565b60405142815230907ff7bcbaa371c3a472d8f63f253317d896d63bf307f5e8e913f8eeb9351bc0d4c660203392a380f35b50346102ce57806003193601126102ce576020600a54604051908152f35b50346102ce5760a03660031901126102ce576004356001600160401b0381116109475761229f903690600401612c85565b6024356001600160401b03811161110b576122be903690600401612c85565b6084359060643590604435906001600160401b0384116127a057366023850112156127a0578360040135946122f286612d56565b946123006040519687612c47565b868652602086019660051b81016024018736821161279c5760248301905b828210612769575050505061233d60018060a01b0388541633146132d3565b82156127185783156126c3578051906001600160401b0382116126af57612365600b54612d6d565b601f8111612673575b50602090601f831160011461260e57612390929189918361087f5750506133da565b600b555b8051906001600160401b038211612520576123b0600c54612d6d565b601f81116125d2575b50602090601f831160011461256d576123db929188918361087f5750506133da565b600c555b600d55600e555190600160401b821161162f57600f5482600f55808310612534575b50600f83528290600080516020613c2b833981519152905b83831061242857844260025580f35b80518051906001600160401b038211612520576124458454612d6d565b601f81116124f0575b50602090601f83116001146124875792612478836001959460209487968c9261087f5750506133da565b85555b01920192019190612419565b8488528188209190601f198416895b8181106124d857509360209360019693879693838895106124bf575b505050811b01855561247b565b015160001960f88460031b161c191690553880806124b2565b92936020600181928786015181550195019301612496565b61251a9085895260208920601f850160051c8101916020861061092957601f0160051c01906133c3565b3861244e565b634e487b7160e01b87526041600452602487fd5b600f8452600080516020613c2b8339815191529081019083015b81811061255b5750612401565b8061256760019261343b565b0161254e565b600c88528188209190601f198416895b8181106125ba57509084600195949392106125a1575b505050811b01600c556123df565b015160001960f88460031b161c19169055388080612593565b9293602060018192878601518155019501930161257d565b600c885261260890600080516020613acb833981519152601f850160051c8101916020861061092957601f0160051c01906133c3565b386123b9565b600b89528189209190601f1984168a5b81811061265b5750908460019594939210612642575b505050811b01600b55612394565b015160001960f88460031b161c19169055388080612634565b9293602060018192878601518155019501930161261e565b600b89526126a990600080516020613bab833981519152601f850160051c8101916020861061092957601f0160051c01906133c3565b3861236e565b634e487b7160e01b88526041600452602488fd5b60405162461bcd60e51b815260206004820152602760248201527f51756572792062617463682073697a65206d75737420626520677265617465726044820152660207468616e20360cc1b6064820152608490fd5b60405162461bcd60e51b8152602060048201526024808201527f4d617820697465726174696f6e206d75737420626520677265617465722074686044820152630616e20360e41b6064820152608490fd5b81356001600160401b0381116127985760209161278d839260243691890101612c85565b81520191019061231e565b8b80fd5b8980fd5b8580fd5b50346102ce5760203660031901126102ce576121b3906040906001600160a01b036127cd612d0d565b1681526011602052206133ed565b50346102ce57806003193601126102ce5760ff6020915460a01c166040519015158152f35b50346102ce57806003193601126102ce5780546001600160a01b031660a052600954600a54600d54600e5460405193949192906128478561284081612da7565b0386612c47565b6040519561285f8761285881612e36565b0388612c47565b60405192612870846104ed81612ebb565b604051916128888361288181612f2e565b0384612c47565b604051916128998361288181612fa1565b604051926128aa846104ed81613014565b604051946128c2866128bb81613087565b0387612c47565b600f54976128cf89612d56565b986128dd6040519a8b612c47565b808a5260208a0180608052600f8c5260208c208c915b8383106129ff57505050506040519c8d9c8d6101a081526101a00161291791612ccc565b8d810360208f015261292891612ccc565b60a05160408e01528c810360608e015261294191612ccc565b8b810360808d015261295291612ccc565b8a810360a08c015261296391612ccc565b9160c08a015260e089015287810361010089015261298091612ccc565b86810361012088015261299291612ccc565b936101408601526101608501528383036101808501525180835260208301928160051b81016020019360805193915b8383106129ce5786860387f35b9193955091936020806129ed600193601f198682030187528951612ccc565b970193019301909286959492936129c1565b9e9f939495969798999a9b9c9d9e600160208192604051612a248161078f818961316d565b8152019201920191909f9e9d9c9b9a999897969594939f6128f3565b50346102ce57806003193601126102ce576015546040516001600160a01b039091168152602090f35b50346102ce5760203660031901126102ce576004356001600160401b03811161094757612a9a903690600401612c85565b90612ab560ff825461030160018060a01b03821633146132d3565b612ac182511515613378565b81516001600160401b03811161093357612adc600354612d6d565b601f8111612b8f575b50602092601f8211600114612b2d5782938291612b08949261087f5750506133da565b6003555b42600255604051428152600080516020613b0b83398151915260203392a280f35b601f198216936003845280842091845b868110612b775750836001959610612b5e575b505050811b01600355612b0c565b015160001960f88460031b161c19169055388080612b50565b91926020600181928685015181550194019201612b3d565b60038352612bc590600080516020613aeb833981519152601f840160051c8101916020851061092957601f0160051c01906133c3565b38612ae5565b50346102ce57806003193601126102ce57546040516001600160a01b039091168152602090f35b90503461094757816003193601126109475790546001600160a01b03168152602090f35b608081019081106001600160401b03821117612c3157604052565b634e487b7160e01b600052604160045260246000fd5b601f909101601f19168101906001600160401b03821190821017612c3157604052565b6001600160401b038111612c3157601f01601f191660200190565b81601f8201121561112f57803590612c9c82612c6a565b92612caa6040519485612c47565b8284526020838301011161112f57816000926020809301838601378301015290565b919082519283825260005b848110612cf8575050826000602080949584010152601f8019910116010190565b80602080928401015182828601015201612cd7565b600435906001600160a01b038216820361112f57565b92949390606092612d499160018060a01b03168552608060208601526080850190612ccc565b9460408401521515910152565b6001600160401b038111612c315760051b60200190565b90600182811c92168015612d9d575b6020831014612d8757565b634e487b7160e01b600052602260045260246000fd5b91607f1691612d7c565b60045460009291612db782612d6d565b8082529160018116908115612e1a5750600114612dd2575050565b60046000908152929350909190600080516020613beb8339815191525b838310612e00575060209250010190565b600181602092949394548385870101520191019190612def565b9050602093945060ff929192191683830152151560051b010190565b60055460009291612e4682612d6d565b8082529160018116908115612e1a5750600114612e61575050565b600560009081529293509091907f036b6384b5eca791c62761152d0c79bb0604c104a5fb6f4eb0703f3154bb3db05b838310612ea1575060209250010190565b600181602092949394548385870101520191019190612e90565b60065460009291612ecb82612d6d565b8082529160018116908115612e1a5750600114612ee6575050565b60066000908152929350909190600080516020613bcb8339815191525b838310612f14575060209250010190565b600181602092949394548385870101520191019190612f03565b60075460009291612f3e82612d6d565b8082529160018116908115612e1a5750600114612f59575050565b60076000908152929350909190600080516020613b2b8339815191525b838310612f87575060209250010190565b600181602092949394548385870101520191019190612f76565b60085460009291612fb182612d6d565b8082529160018116908115612e1a5750600114612fcc575050565b60086000908152929350909190600080516020613b6b8339815191525b838310612ffa575060209250010190565b600181602092949394548385870101520191019190612fe9565b600b546000929161302482612d6d565b8082529160018116908115612e1a575060011461303f575050565b600b6000908152929350909190600080516020613bab8339815191525b83831061306d575060209250010190565b60018160209294939454838587010152019101919061305c565b600c546000929161309782612d6d565b8082529160018116908115612e1a57506001146130b2575050565b600c6000908152929350909190600080516020613acb8339815191525b8383106130e0575060209250010190565b6001816020929493945483858701015201910191906130cf565b6003546000929161310a82612d6d565b8082529160018116908115612e1a5750600114613125575050565b60036000908152929350909190600080516020613aeb8339815191525b838310613153575060209250010190565b600181602092949394548385870101520191019190613142565b6000929181549161317d83612d6d565b80835292600181169081156131d3575060011461319957505050565b60009081526020812093945091925b8383106131b9575060209250010190565b6001816020929493945483858701015201910191906131a8565b915050602093945060ff929192191683830152151560051b010190565b60125481101561320b57601260005260206000200190600090565b634e487b7160e01b600052603260045260246000fd5b60135481101561320b57601360005260206000200190600090565b805482101561320b5760005260206000200190600090565b906020808351928381520192019060005b8181106132725750505090565b82516001600160a01b0316845260209384019390920191600101613265565b90604060031983011261112f576004356001600160a01b038116810361112f5791602435906001600160401b03821161112f576132d091600401612c85565b90565b156132da57565b60405162461bcd60e51b815260206004820152602c60248201527f4f6e6c792070726f6a6563742063726561746f722063616e20706572666f726d60448201526b103a3434b99030b1ba34b7b760a11b6064820152608490fd5b1561333b57565b60405162461bcd60e51b815260206004820152601560248201527450726f6a656374206973206e6f742061637469766560581b6044820152606490fd5b1561337f57565b60405162461bcd60e51b815260206004820152601c60248201527b50726f6a65637420646174612063616e6e6f7420626520656d70747960201b6044820152606490fd5b8181106133ce575050565b600081556001016133c3565b8160011b916000199060031b1c19161790565b906040516133fa81612c16565b606060ff6003839560018060a01b0381541685526040516134228161078f816001860161316d565b6020860152600281015460408601520154161515910152565b6134458154612d6d565b908161344f575050565b81601f60009311600114613461575055565b8183526020832061347d91601f0160051c8101906001016133c3565b8082528160208120915555565b1561349157565b60405162461bcd60e51b8152602060048201526019602482015278125b9d9a5d185d1a5bdb88191bd95cc81b9bdd08195e1a5cdd603a1b6044820152606490fd5b60036000918281556134e66001820161343b565b8260028201550155565b3d1561351b573d9061350182612c6a565b9161350f6040519384612c47565b82523d6000602084013e565b606090565b1561352757565b60405162461bcd60e51b815260206004820152601b60248201527a10530818dbdb9d1c9858dd1cc8185b1c9958591e481b1a5b9ad959602a1b6044820152606490fd5b929190613581602091604086526040860190612ccc565b930152565b1561358d57565b60405162461bcd60e51b8152602060048201526017602482015276159bdd1a5b99c818dbdb9d1c9858dd081b9bdd081cd95d604a1b6044820152606490fd5b156135d357565b60405162461bcd60e51b8152602060048201526014602482015273526f6c652063616e6e6f7420626520656d70747960601b6044820152606490fd5b815181546001600160a01b0319166001600160a01b03919091161781556020820151805160018301916001600160401b038211612c31576136508354612d6d565b601f8111613710575b50602090601f83116001146136a4578260609593600395936136839360009261087f5750506133da565b90555b6040840151600282015501910151151560ff80198354169116179055565b90601f1983169184600052816000209260005b8181106136f857509260019285926060989660039896106136e0575b505050811b019055613686565b015160001983881b60f8161c191690553880806136d3565b929360206001819287860151815501950193016136b7565b61373c90846000526020600020601f850160051c8101916020861061092957601f0160051c01906133c3565b38613659565b60405190613751604083612c47565b600f82526e6163746976655f6c6561726e696e6760881b6020830152565b600019811461377e5760010190565b634e487b7160e01b600052601160045260246000fd5b90815181101561320b570160200190565b6040516361d25a0d60e11b8152602081600481305afa908115613a2e576000916139f3575b506139ee57604051600654906000816137e284612d6d565b9182825260208201946001811690816000146139d25750600114613984575b61380d92500382612c47565b519020613818613742565b602081519101201461397f5760405160035481600061383683612d6d565b80835292600181169081156139605750600114613912575b61385a92500382612c47565b613862613742565b815181511115613874575b5050600090565b6000905b82518151810390811161377e5782116139085760019260005b82518110156138fe5780840180851161377e576001600160f81b0319906138b89084613794565b51166001600160f81b03196138cd8386613794565b5116036138dc57600101613891565b5092509060005b6138f6576138f09061376f565b90613878565b505050600190565b50929190916138e3565b505050388061386d565b50600360009081529091600080516020613aeb8339815191525b81831061394457505090602061385a9282010161384e565b602091935080600191548385880101520191019091839261392c565b6020925061385a94915060ff191682840152151560051b82010161384e565b600190565b50600660009081529091600080516020613bcb8339815191525b8183106139b657505090602061380d92820101613801565b602091935080600191548385880101520191019091839261399e565b60ff191686525061380d92151560051b82016020019050613801565b600090565b6020813d602011613a26575b81613a0c60209383612c47565b8101031261094757519081151582036102ce5750386137ca565b3d91506139ff565b6040513d6000823e3d90fd5b90613a4482612d56565b613a516040519182612c47565b8281528092613a62601f1991612d56565b0190602036910137565b805182101561320b5760209160051b010190565b15613a8757565b60405162461bcd60e51b815260206004820152601b60248201527a129bda5b881c995c5d595cdd08191bd95cc81b9bdd08195e1a5cdd602a1b6044820152606490fdfedf6966c971051c3d54ec59162606531493a51404a002842f56009d7e5cf4a8c7c2575a0e9e593c00f959f8c92f12db2869c3395a3b0502d05e2516446f71f85bc1756fd99ac9a2b1b22b5e701ddb022b897a002144d045b77ac35ce46610fef6a66cc928b5edb82af9bd49922954155ab7b0942694bea4ce44661d9a8736c688ac4f9610b174640b0a902ce555faa384cc9c9d291750f76e476f26f97bd079b4f3f7a9fe364faab93b216da50a3214154f22a0a2b415b23a84c8169e8b636ee39aa934e5a98d12b60dabec0f34647f2b63b8fd257ba6480e7ded4cc1ef24c5730175b7a638427703f0dbe7bb9bbf987a2551717b34e79f33b5b1008d1fa01db9f652222313e28459528d920b65115c16c04f3efc82aaedc97be59f3f377c0d3f8a35acfbc15ff81a39ae7d344fd709f28e8600b4aa8c65c6b64bfe7fe36bd19b31d3ac54da09405b02d1de0ee0de648de637fbdc111123be0d7fc31f2a544c0b8d1108e10bcb7c27dddfc02ed9d693a074039d026cf4ea4240b40f7d581ac802a2646970667358221220c075d53db9c9919541301b010e74a6e76f5c19b9312e007970f977ea7abcc80764736f6c634300081c0033036b6384b5eca791c62761152d0c79bb0604c104a5fb6f4eb0703f3154bb3db0f474a44bbf67e28a60e1e8977a0d7bdf30896d6b88b7c83710a32ad527611994c2575a0e9e593c00f959f8c92f12db2869c3395a3b0502d05e2516446f71f85ba2646970667358221220cfa466f9fab9bf0998d1c59c90abc71d08ef032732557e22730718171934128164736f6c634300081c0033",
  "linkReferences": {},
  "deployedLinkReferences": {}
}