{
  "_format": "hh-sol-artifact-1",
  "contractName": "Project",
  "sourceName": "contracts/Project.sol",
  "abi": [
    {
      "inputs": [
        {
          "internalType": "address",
          "name": "_creator",
          "type": "address"
        },
        {
          "internalType": "string",
          "name": "_projectData",
          "type": "string"
        }
      ],
      "stateMutability": "nonpayable",
      "type": "constructor"
    },
    {
      "anonymous": false,
      "inputs": [
        {
          "indexed": false,
          "internalType": "uint256",
          "name": "round",
          "type": "uint256"
        },
        {
          "indexed": false,
          "internalType": "uint256",
          "name": "completedSamples",
          "type": "uint256"
        },
        {
          "indexed": false,
          "internalType": "uint256",
          "name": "timestamp",
          "type": "uint256"
        }
      ],
      "name": "ALBatchCompleted",
      "type": "event"
    },
    {
      "anonymous": false,
      "inputs": [
        {
          "indexed": false,
          "internalType": "uint256",
          "name": "round",
          "type": "uint256"
        },
        {
          "indexed": false,
          "internalType": "uint256",
          "name": "sampleCount",
          "type": "uint256"
        },
        {
          "indexed": false,
          "internalType": "uint256",
          "name": "timestamp",
          "type": "uint256"
        }
      ],
      "name": "ALBatchStarted",
      "type": "event"
    },
    {
      "anonymous": false,
      "inputs": [
        {
          "indexed": false,
          "internalType": "address",
          "name": "votingContract",
          "type": "address"
        },
        {
          "indexed": false,
          "internalType": "address",
          "name": "storageContract",
          "type": "address"
        }
      ],
      "name": "ALContractsDeployed",
      "type": "event"
    },
    {
      "anonymous": false,
      "inputs": [
        {
          "indexed": false,
          "internalType": "uint256",
          "name": "round",
          "type": "uint256"
        },
        {
          "indexed": false,
          "internalType": "string",
          "name": "reason",
          "type": "string"
        },
        {
          "indexed": false,
          "internalType": "uint256",
          "name": "timestamp",
          "type": "uint256"
        }
      ],
      "name": "ALRoundTriggered",
      "type": "event"
    },
    {
      "anonymous": false,
      "inputs": [
        {
          "indexed": false,
          "internalType": "string",
          "name": "sampleId",
          "type": "string"
        },
        {
          "indexed": false,
          "internalType": "string",
          "name": "label",
          "type": "string"
        },
        {
          "indexed": false,
          "internalType": "uint256",
          "name": "round",
          "type": "uint256"
        },
        {
          "indexed": false,
          "internalType": "uint256",
          "name": "timestamp",
          "type": "uint256"
        }
      ],
      "name": "AutoLabelStored",
      "type": "event"
    },
    {
      "anonymous": false,
      "inputs": [
        {
          "indexed": true,
          "internalType": "address",
          "name": "invitee",
          "type": "address"
        },
        {
          "indexed": true,
          "internalType": "address",
          "name": "project",
          "type": "address"
        },
        {
          "indexed": false,
          "internalType": "uint256",
          "name": "timestamp",
          "type": "uint256"
        }
      ],
      "name": "InvitationAccepted",
      "type": "event"
    },
    {
      "anonymous": false,
      "inputs": [
        {
          "indexed": true,
          "internalType": "address",
          "name": "invitee",
          "type": "address"
        },
        {
          "indexed": true,
          "internalType": "address",
          "name": "project",
          "type": "address"
        },
        {
          "indexed": false,
          "internalType": "uint256",
          "name": "timestamp",
          "type": "uint256"
        }
      ],
      "name": "InvitationRejected",
      "type": "event"
    },
    {
      "anonymous": false,
      "inputs": [
        {
          "indexed": true,
          "internalType": "address",
          "name": "invitee",
          "type": "address"
        },
        {
          "indexed": true,
          "internalType": "address",
          "name": "inviter",
          "type": "address"
        },
        {
          "indexed": false,
          "internalType": "string",
          "name": "role",
          "type": "string"
        },
        {
          "indexed": false,
          "internalType": "uint256",
          "name": "timestamp",
          "type": "uint256"
        }
      ],
      "name": "InvitationSent",
      "type": "event"
    },
    {
      "anonymous": false,
      "inputs": [
        {
          "indexed": true,
          "internalType": "address",
          "name": "requester",
          "type": "address"
        },
        {
          "indexed": true,
          "internalType": "address",
          "name": "approver",
          "type": "address"
        },
        {
          "indexed": false,
          "internalType": "uint256",
          "name": "timestamp",
          "type": "uint256"
        }
      ],
      "name": "JoinRequestApproved",
      "type": "event"
    },
    {
      "anonymous": false,
      "inputs": [
        {
          "indexed": true,
          "internalType": "address",
          "name": "requester",
          "type": "address"
        },
        {
          "indexed": true,
          "internalType": "address",
          "name": "rejector",
          "type": "address"
        },
        {
          "indexed": false,
          "internalType": "uint256",
          "name": "timestamp",
          "type": "uint256"
        }
      ],
      "name": "JoinRequestRejected",
      "type": "event"
    },
    {
      "anonymous": false,
      "inputs": [
        {
          "indexed": true,
          "internalType": "address",
          "name": "requester",
          "type": "address"
        },
        {
          "indexed": false,
          "internalType": "string",
          "name": "role",
          "type": "string"
        },
        {
          "indexed": false,
          "internalType": "uint256",
          "name": "timestamp",
          "type": "uint256"
        }
      ],
      "name": "JoinRequestSubmitted",
      "type": "event"
    },
    {
      "anonymous": false,
      "inputs": [
        {
          "indexed": true,
          "internalType": "address",
          "name": "member",
          "type": "address"
        },
        {
          "indexed": false,
          "internalType": "string",
          "name": "role",
          "type": "string"
        },
        {
          "indexed": false,
          "internalType": "uint256",
          "name": "timestamp",
          "type": "uint256"
        }
      ],
      "name": "MemberAdded",
      "type": "event"
    },
    {
      "anonymous": false,
      "inputs": [
        {
          "indexed": true,
          "internalType": "address",
          "name": "participant",
          "type": "address"
        }
      ],
      "name": "ParticipantAdded",
      "type": "event"
    },
    {
      "anonymous": false,
      "inputs": [
        {
          "indexed": true,
          "internalType": "address",
          "name": "creator",
          "type": "address"
        },
        {
          "indexed": false,
          "internalType": "uint256",
          "name": "timestamp",
          "type": "uint256"
        }
      ],
      "name": "ProjectCreated",
      "type": "event"
    },
    {
      "anonymous": false,
      "inputs": [
        {
          "indexed": true,
          "internalType": "address",
          "name": "creator",
          "type": "address"
        },
        {
          "indexed": false,
          "internalType": "uint256",
          "name": "timestamp",
          "type": "uint256"
        }
      ],
      "name": "ProjectDeactivated",
      "type": "event"
    },
    {
      "anonymous": false,
      "inputs": [
        {
          "indexed": true,
          "internalType": "address",
          "name": "creator",
          "type": "address"
        },
        {
          "indexed": false,
          "internalType": "uint256",
          "name": "timestamp",
          "type": "uint256"
        }
      ],
      "name": "ProjectReactivated",
      "type": "event"
    },
    {
      "anonymous": false,
      "inputs": [
        {
          "indexed": true,
          "internalType": "address",
          "name": "updater",
          "type": "address"
        },
        {
          "indexed": false,
          "internalType": "uint256",
          "name": "timestamp",
          "type": "uint256"
        }
      ],
      "name": "ProjectUpdated",
      "type": "event"
    },
    {
      "anonymous": false,
      "inputs": [
        {
          "indexed": false,
          "internalType": "uint256",
          "name": "newRound",
          "type": "uint256"
        }
      ],
      "name": "RoundIncremented",
      "type": "event"
    },
    {
      "anonymous": false,
      "inputs": [
        {
          "indexed": false,
          "internalType": "string",
          "name": "sampleId",
          "type": "string"
        },
        {
          "indexed": false,
          "internalType": "address",
          "name": "voter",
          "type": "address"
        },
        {
          "indexed": false,
          "internalType": "string",
          "name": "label",
          "type": "string"
        },
        {
          "indexed": false,
          "internalType": "uint256",
          "name": "timestamp",
          "type": "uint256"
        }
      ],
      "name": "VoteSubmitted",
      "type": "event"
    },
    {
      "anonymous": false,
      "inputs": [
        {
          "indexed": false,
          "internalType": "string",
          "name": "sampleId",
          "type": "string"
        },
        {
          "indexed": false,
          "internalType": "string",
          "name": "finalLabel",
          "type": "string"
        },
        {
          "indexed": false,
          "internalType": "uint256",
          "name": "round",
          "type": "uint256"
        },
        {
          "indexed": false,
          "internalType": "uint256",
          "name": "timestamp",
          "type": "uint256"
        }
      ],
      "name": "VotingSessionEnded",
      "type": "event"
    },
    {
      "anonymous": false,
      "inputs": [
        {
          "indexed": false,
          "internalType": "string",
          "name": "sampleId",
          "type": "string"
        },
        {
          "indexed": false,
          "internalType": "uint256",
          "name": "round",
          "type": "uint256"
        },
        {
          "indexed": false,
          "internalType": "uint256",
          "name": "timeout",
          "type": "uint256"
        },
        {
          "indexed": false,
          "internalType": "uint256",
          "name": "timestamp",
          "type": "uint256"
        }
      ],
      "name": "VotingSessionStarted",
      "type": "event"
    },
    {
      "inputs": [
        {
          "internalType": "address",
          "name": "_participant",
          "type": "address"
        }
      ],
      "name": "addParticipant",
      "outputs": [],
      "stateMutability": "nonpayable",
      "type": "function"
    },
    {
      "inputs": [],
      "name": "alScenario",
      "outputs": [
        {
          "internalType": "string",
          "name": "",
          "type": "string"
        }
      ],
      "stateMutability": "view",
      "type": "function"
    },
    {
      "inputs": [
        {
          "internalType": "address",
          "name": "_requester",
          "type": "address"
        }
      ],
      "name": "approveJoinRequest",
      "outputs": [],
      "stateMutability": "nonpayable",
      "type": "function"
    },
    {
      "inputs": [],
      "name": "createdAt",
      "outputs": [
        {
          "internalType": "uint256",
          "name": "",
          "type": "uint256"
        }
      ],
      "stateMutability": "view",
      "type": "function"
    },
    {
      "inputs": [],
      "name": "creator",
      "outputs": [
        {
          "internalType": "address",
          "name": "",
          "type": "address"
        }
      ],
      "stateMutability": "view",
      "type": "function"
    },
    {
      "inputs": [],
      "name": "currentRound",
      "outputs": [
        {
          "internalType": "uint256",
          "name": "",
          "type": "uint256"
        }
      ],
      "stateMutability": "view",
      "type": "function"
    },
    {
      "inputs": [],
      "name": "deactivateProject",
      "outputs": [],
      "stateMutability": "nonpayable",
      "type": "function"
    },
    {
      "inputs": [],
      "name": "description",
      "outputs": [
        {
          "internalType": "string",
          "name": "",
          "type": "string"
        }
      ],
      "stateMutability": "view",
      "type": "function"
    },
    {
      "inputs": [],
      "name": "endTime",
      "outputs": [
        {
          "internalType": "uint256",
          "name": "",
          "type": "uint256"
        }
      ],
      "stateMutability": "view",
      "type": "function"
    },
    {
      "inputs": [
        {
          "internalType": "string",
          "name": "sampleId",
          "type": "string"
        }
      ],
      "name": "endVotingSession",
      "outputs": [],
      "stateMutability": "nonpayable",
      "type": "function"
    },
    {
      "inputs": [],
      "name": "getActiveVoting",
      "outputs": [
        {
          "internalType": "string",
          "name": "sampleId",
          "type": "string"
        },
        {
          "internalType": "string",
          "name": "sampleData",
          "type": "string"
        },
        {
          "internalType": "string[]",
          "name": "labelOptions",
          "type": "string[]"
        },
        {
          "internalType": "uint256",
          "name": "timeRemaining",
          "type": "uint256"
        },
        {
          "internalType": "address[]",
          "name": "voters",
          "type": "address[]"
        }
      ],
      "stateMutability": "view",
      "type": "function"
    },
    {
      "inputs": [],
      "name": "getAllRequesters",
      "outputs": [
        {
          "internalType": "address[]",
          "name": "",
          "type": "address[]"
        }
      ],
      "stateMutability": "view",
      "type": "function"
    },
    {
      "inputs": [],
      "name": "getCreator",
      "outputs": [
        {
          "internalType": "address",
          "name": "",
          "type": "address"
        }
      ],
      "stateMutability": "view",
      "type": "function"
    },
    {
      "inputs": [],
      "name": "getIsActive",
      "outputs": [
        {
          "internalType": "bool",
          "name": "",
          "type": "bool"
        }
      ],
      "stateMutability": "view",
      "type": "function"
    },
    {
      "inputs": [
        {
          "internalType": "address",
          "name": "_requester",
          "type": "address"
        }
      ],
      "name": "getJoinRequest",
      "outputs": [
        {
          "internalType": "address",
          "name": "requester",
          "type": "address"
        },
        {
          "internalType": "string",
          "name": "role",
          "type": "string"
        },
        {
          "internalType": "uint256",
          "name": "timestamp",
          "type": "uint256"
        },
        {
          "internalType": "bool",
          "name": "exists",
          "type": "bool"
        }
      ],
      "stateMutability": "view",
      "type": "function"
    },
    {
      "inputs": [],
      "name": "getProjectData",
      "outputs": [
        {
          "internalType": "string",
          "name": "",
          "type": "string"
        }
      ],
      "stateMutability": "view",
      "type": "function"
    },
    {
      "inputs": [],
      "name": "getProjectMetadata",
      "outputs": [
        {
          "internalType": "string",
          "name": "_title",
          "type": "string"
        },
        {
          "internalType": "string",
          "name": "_description",
          "type": "string"
        },
        {
          "internalType": "address",
          "name": "_owner",
          "type": "address"
        },
        {
          "internalType": "string",
          "name": "_projectType",
          "type": "string"
        },
        {
          "internalType": "string",
          "name": "_rocrateHash",
          "type": "string"
        },
        {
          "internalType": "uint256",
          "name": "_start",
          "type": "uint256"
        },
        {
          "internalType": "uint256",
          "name": "_end",
          "type": "uint256"
        },
        {
          "internalType": "string",
          "name": "_queryStrategy",
          "type": "string"
        },
        {
          "internalType": "string",
          "name": "_alScenario",
          "type": "string"
        },
        {
          "internalType": "uint256",
          "name": "_maxIteration",
          "type": "uint256"
        },
        {
          "internalType": "uint256",
          "name": "_queryBatchSize",
          "type": "uint256"
        },
        {
          "internalType": "string[]",
          "name": "_labelSpace",
          "type": "string[]"
        }
      ],
      "stateMutability": "view",
      "type": "function"
    },
    {
      "inputs": [],
      "name": "getProjectStatus",
      "outputs": [
        {
          "internalType": "bool",
          "name": "active",
          "type": "bool"
        },
        {
          "internalType": "uint256",
          "name": "created",
          "type": "uint256"
        },
        {
          "internalType": "uint256",
          "name": "modified",
          "type": "uint256"
        },
        {
          "internalType": "address",
          "name": "projectCreator",
          "type": "address"
        }
      ],
      "stateMutability": "view",
      "type": "function"
    },
    {
      "inputs": [
        {
          "internalType": "string",
          "name": "sampleId",
          "type": "string"
        }
      ],
      "name": "getSampleVotingHistory",
      "outputs": [
        {
          "internalType": "uint256",
          "name": "round",
          "type": "uint256"
        },
        {
          "internalType": "string",
          "name": "finalLabel",
          "type": "string"
        },
        {
          "internalType": "uint256",
          "name": "timestamp",
          "type": "uint256"
        },
        {
          "internalType": "address[]",
          "name": "voters",
          "type": "address[]"
        },
        {
          "internalType": "string[]",
          "name": "labels",
          "type": "string[]"
        }
      ],
      "stateMutability": "view",
      "type": "function"
    },
    {
      "inputs": [],
      "name": "getTimestamps",
      "outputs": [
        {
          "internalType": "uint256",
          "name": "created",
          "type": "uint256"
        },
        {
          "internalType": "uint256",
          "name": "modified",
          "type": "uint256"
        }
      ],
      "stateMutability": "view",
      "type": "function"
    },
    {
      "inputs": [],
      "name": "getUserContributions",
      "outputs": [
        {
          "internalType": "address[]",
          "name": "voters",
          "type": "address[]"
        },
        {
          "internalType": "uint256[]",
          "name": "voteCounts",
          "type": "uint256[]"
        },
        {
          "internalType": "uint256[]",
          "name": "weights",
          "type": "uint256[]"
        }
      ],
      "stateMutability": "view",
      "type": "function"
    },
    {
      "inputs": [
        {
          "internalType": "address",
          "name": "voter",
          "type": "address"
        }
      ],
      "name": "getVoterStats",
      "outputs": [
        {
          "internalType": "uint256",
          "name": "weight",
          "type": "uint256"
        },
        {
          "internalType": "uint256",
          "name": "totalVotes",
          "type": "uint256"
        },
        {
          "internalType": "bool",
          "name": "isRegistered",
          "type": "bool"
        }
      ],
      "stateMutability": "view",
      "type": "function"
    },
    {
      "inputs": [],
      "name": "getVotingHistory",
      "outputs": [
        {
          "internalType": "string[]",
          "name": "sampleIds",
          "type": "string[]"
        },
        {
          "internalType": "uint256[]",
          "name": "rounds",
          "type": "uint256[]"
        },
        {
          "internalType": "string[]",
          "name": "finalLabels",
          "type": "string[]"
        },
        {
          "internalType": "uint256[]",
          "name": "timestamps",
          "type": "uint256[]"
        }
      ],
      "stateMutability": "view",
      "type": "function"
    },
    {
      "inputs": [],
      "name": "hasALContracts",
      "outputs": [
        {
          "internalType": "bool",
          "name": "",
          "type": "bool"
        }
      ],
      "stateMutability": "view",
      "type": "function"
    },
    {
      "inputs": [],
      "name": "incrementRound",
      "outputs": [],
      "stateMutability": "nonpayable",
      "type": "function"
    },
    {
      "inputs": [
        {
          "internalType": "address",
          "name": "",
          "type": "address"
        }
      ],
      "name": "invitations",
      "outputs": [
        {
          "internalType": "address",
          "name": "invitee",
          "type": "address"
        },
        {
          "internalType": "string",
          "name": "role",
          "type": "string"
        },
        {
          "internalType": "uint256",
          "name": "timestamp",
          "type": "uint256"
        },
        {
          "internalType": "bool",
          "name": "exists",
          "type": "bool"
        }
      ],
      "stateMutability": "view",
      "type": "function"
    },
    {
      "inputs": [
        {
          "internalType": "uint256",
          "name": "",
          "type": "uint256"
        }
      ],
      "name": "invitees",
      "outputs": [
        {
          "internalType": "address",
          "name": "",
          "type": "address"
        }
      ],
      "stateMutability": "view",
      "type": "function"
    },
    {
      "inputs": [],
      "name": "isActive",
      "outputs": [
        {
          "internalType": "bool",
          "name": "",
          "type": "bool"
        }
      ],
      "stateMutability": "view",
      "type": "function"
    },
    {
      "inputs": [
        {
          "internalType": "address",
          "name": "",
          "type": "address"
        }
      ],
      "name": "isParticipant",
      "outputs": [
        {
          "internalType": "bool",
          "name": "",
          "type": "bool"
        }
      ],
      "stateMutability": "view",
      "type": "function"
    },
    {
      "inputs": [
        {
          "internalType": "address",
          "name": "",
          "type": "address"
        }
      ],
      "name": "joinRequests",
      "outputs": [
        {
          "internalType": "address",
          "name": "requester",
          "type": "address"
        },
        {
          "internalType": "string",
          "name": "role",
          "type": "string"
        },
        {
          "internalType": "uint256",
          "name": "timestamp",
          "type": "uint256"
        },
        {
          "internalType": "bool",
          "name": "exists",
          "type": "bool"
        }
      ],
      "stateMutability": "view",
      "type": "function"
    },
    {
      "inputs": [
        {
          "internalType": "uint256",
          "name": "",
          "type": "uint256"
        }
      ],
      "name": "labelSpace",
      "outputs": [
        {
          "internalType": "string",
          "name": "",
          "type": "string"
        }
      ],
      "stateMutability": "view",
      "type": "function"
    },
    {
      "inputs": [],
      "name": "lastModified",
      "outputs": [
        {
          "internalType": "uint256",
          "name": "",
          "type": "uint256"
        }
      ],
      "stateMutability": "view",
      "type": "function"
    },
    {
      "inputs": [
        {
          "internalType": "address",
          "name": "_voting",
          "type": "address"
        },
        {
          "internalType": "address",
          "name": "_storage",
          "type": "address"
        }
      ],
      "name": "linkALContracts",
      "outputs": [],
      "stateMutability": "nonpayable",
      "type": "function"
    },
    {
      "inputs": [],
      "name": "maxIteration",
      "outputs": [
        {
          "internalType": "uint256",
          "name": "",
          "type": "uint256"
        }
      ],
      "stateMutability": "view",
      "type": "function"
    },
    {
      "inputs": [],
      "name": "needsALDeployment",
      "outputs": [
        {
          "internalType": "bool",
          "name": "",
          "type": "bool"
        }
      ],
      "stateMutability": "view",
      "type": "function"
    },
    {
      "inputs": [
        {
          "internalType": "string",
          "name": "sampleId",
          "type": "string"
        },
        {
          "internalType": "string",
          "name": "finalLabel",
          "type": "string"
        }
      ],
      "name": "notifyVotingSessionEnded",
      "outputs": [],
      "stateMutability": "nonpayable",
      "type": "function"
    },
    {
      "inputs": [
        {
          "internalType": "string",
          "name": "sampleId",
          "type": "string"
        }
      ],
      "name": "notifyVotingSessionStarted",
      "outputs": [],
      "stateMutability": "nonpayable",
      "type": "function"
    },
    {
      "inputs": [],
      "name": "projectData",
      "outputs": [
        {
          "internalType": "string",
          "name": "",
          "type": "string"
        }
      ],
      "stateMutability": "view",
      "type": "function"
    },
    {
      "inputs": [],
      "name": "projectType",
      "outputs": [
        {
          "internalType": "string",
          "name": "",
          "type": "string"
        }
      ],
      "stateMutability": "view",
      "type": "function"
    },
    {
      "inputs": [],
      "name": "queryBatchSize",
      "outputs": [
        {
          "internalType": "uint256",
          "name": "",
          "type": "uint256"
        }
      ],
      "stateMutability": "view",
      "type": "function"
    },
    {
      "inputs": [],
      "name": "queryStrategy",
      "outputs": [
        {
          "internalType": "string",
          "name": "",
          "type": "string"
        }
      ],
      "stateMutability": "view",
      "type": "function"
    },
    {
      "inputs": [],
      "name": "reactivateProject",
      "outputs": [],
      "stateMutability": "nonpayable",
      "type": "function"
    },
    {
      "inputs": [
        {
          "internalType": "string",
          "name": "sampleId",
          "type": "string"
        },
        {
          "internalType": "string",
          "name": "label",
          "type": "string"
        },
        {
          "internalType": "string",
          "name": "justification",
          "type": "string"
        },
        {
          "internalType": "string",
          "name": "ipfsHash",
          "type": "string"
        }
      ],
      "name": "receiveFinalLabelFromVoting",
      "outputs": [],
      "stateMutability": "nonpayable",
      "type": "function"
    },
    {
      "inputs": [
        {
          "internalType": "address",
          "name": "_requester",
          "type": "address"
        }
      ],
      "name": "rejectJoinRequest",
      "outputs": [],
      "stateMutability": "nonpayable",
      "type": "function"
    },
    {
      "inputs": [
        {
          "internalType": "uint256",
          "name": "",
          "type": "uint256"
        }
      ],
      "name": "requesters",
      "outputs": [
        {
          "internalType": "address",
          "name": "",
          "type": "address"
        }
      ],
      "stateMutability": "view",
      "type": "function"
    },
    {
      "inputs": [],
      "name": "rocrateHash",
      "outputs": [
        {
          "internalType": "string",
          "name": "",
          "type": "string"
        }
      ],
      "stateMutability": "view",
      "type": "function"
    },
    {
      "inputs": [
        {
          "internalType": "string",
          "name": "_queryStrategy",
          "type": "string"
        },
        {
          "internalType": "string",
          "name": "_alScenario",
          "type": "string"
        },
        {
          "internalType": "uint256",
          "name": "_maxIteration",
          "type": "uint256"
        },
        {
          "internalType": "uint256",
          "name": "_queryBatchSize",
          "type": "uint256"
        },
        {
          "internalType": "string[]",
          "name": "_labelSpace",
          "type": "string[]"
        }
      ],
      "name": "setALMetadata",
      "outputs": [],
      "stateMutability": "nonpayable",
      "type": "function"
    },
    {
      "inputs": [
        {
          "internalType": "string",
          "name": "_title",
          "type": "string"
        },
        {
          "internalType": "string",
          "name": "_description",
          "type": "string"
        },
        {
          "internalType": "string",
          "name": "_projectType",
          "type": "string"
        },
        {
          "internalType": "string",
          "name": "_rocrateHash",
          "type": "string"
        }
      ],
      "name": "setProjectMetadata",
      "outputs": [],
      "stateMutability": "nonpayable",
      "type": "function"
    },
    {
      "inputs": [
        {
          "internalType": "address[]",
          "name": "_voters",
          "type": "address[]"
        },
        {
          "internalType": "uint256[]",
          "name": "_weights",
          "type": "uint256[]"
        }
      ],
      "name": "setProjectVoters",
      "outputs": [],
      "stateMutability": "nonpayable",
      "type": "function"
    },
    {
      "inputs": [
        {
          "internalType": "uint256",
          "name": "_start",
          "type": "uint256"
        },
        {
          "internalType": "uint256",
          "name": "_end",
          "type": "uint256"
        }
      ],
      "name": "setStartAndEndTime",
      "outputs": [],
      "stateMutability": "nonpayable",
      "type": "function"
    },
    {
      "inputs": [
        {
          "internalType": "string[]",
          "name": "sampleIds",
          "type": "string[]"
        }
      ],
      "name": "startBatchVoting",
      "outputs": [],
      "stateMutability": "nonpayable",
      "type": "function"
    },
    {
      "inputs": [],
      "name": "startTime",
      "outputs": [
        {
          "internalType": "uint256",
          "name": "",
          "type": "uint256"
        }
      ],
      "stateMutability": "view",
      "type": "function"
    },
    {
      "inputs": [
        {
          "internalType": "string",
          "name": "sampleId",
          "type": "string"
        }
      ],
      "name": "startVotingSession",
      "outputs": [],
      "stateMutability": "nonpayable",
      "type": "function"
    },
    {
      "inputs": [],
      "name": "storageContract",
      "outputs": [
        {
          "internalType": "address",
          "name": "",
          "type": "address"
        }
      ],
      "stateMutability": "view",
      "type": "function"
    },
    {
      "inputs": [
        {
          "internalType": "string",
          "name": "sampleId",
          "type": "string"
        },
        {
          "internalType": "string",
          "name": "label",
          "type": "string"
        },
        {
          "internalType": "uint256",
          "name": "round",
          "type": "uint256"
        },
        {
          "internalType": "string",
          "name": "justification",
          "type": "string"
        },
        {
          "internalType": "string",
          "name": "ipfsHash",
          "type": "string"
        }
      ],
      "name": "storeFinalLabel",
      "outputs": [],
      "stateMutability": "nonpayable",
      "type": "function"
    },
    {
      "inputs": [
        {
          "internalType": "string",
          "name": "_role",
          "type": "string"
        }
      ],
      "name": "submitJoinRequest",
      "outputs": [],
      "stateMutability": "nonpayable",
      "type": "function"
    },
    {
      "inputs": [
        {
          "internalType": "string",
          "name": "sampleId",
          "type": "string"
        },
        {
          "internalType": "string",
          "name": "label",
          "type": "string"
        }
      ],
      "name": "submitVote",
      "outputs": [],
      "stateMutability": "nonpayable",
      "type": "function"
    },
    {
      "inputs": [],
      "name": "title",
      "outputs": [
        {
          "internalType": "string",
          "name": "",
          "type": "string"
        }
      ],
      "stateMutability": "view",
      "type": "function"
    },
    {
      "inputs": [
        {
          "internalType": "string",
          "name": "reason",
          "type": "string"
        }
      ],
      "name": "triggerNextRound",
      "outputs": [],
      "stateMutability": "nonpayable",
      "type": "function"
    },
    {
      "inputs": [
        {
          "internalType": "string",
          "name": "_newProjectData",
          "type": "string"
        }
      ],
      "name": "updateProjectData",
      "outputs": [],
      "stateMutability": "nonpayable",
      "type": "function"
    },
    {
      "inputs": [],
      "name": "votingContract",
      "outputs": [
        {
          "internalType": "address",
          "name": "",
          "type": "address"
        }
      ],
      "stateMutability": "view",
      "type": "function"
    },
    {
      "inputs": [],
      "name": "votingTimeout",
      "outputs": [
        {
          "internalType": "uint256",
          "name": "",
          "type": "uint256"
        }
      ],
      "stateMutability": "view",
      "type": "function"
    }
  ],
  "bytecode": "0x6080604052346102cf5761440d80380380610019816102d4565b9283398101906040818303126102cf5780516001600160a01b03811691908290036102cf576020810151906001600160401b0382116102cf570182601f820112156102cf578051906001600160401b03821161027257610082601f8301601f19166020016102d4565b93828552602083830101116102cf5760005b8281106102ba575050602060009184010152610e10600f5581511561028857600080546001600160a01b0319168217905581516001600160401b03811161027257600354600181811c91168015610268575b602082101461025257601f81116101ed575b50602092601f8211600114610188579281929360009261017d575b50508160011b916000199060031b1c1916176003555b4260015542600255600160a01b60ff60a01b1960005416176000557f20bfd29f3d906f96fc35742fac45a554b19cbd4e21f8c4c1d84cb58fdfc32c896020604051428152a260405161411390816102fa8239f35b015190503880610113565b601f198216936003600052806000209160005b8681106101d557508360019596106101bc575b505050811b01600355610129565b015160001960f88460031b161c191690553880806101ae565b9192602060018192868501518155019401920161019b565b60036000527fc2575a0e9e593c00f959f8c92f12db2869c3395a3b0502d05e2516446f71f85b601f830160051c81019160208410610248575b601f0160051c01905b81811061023c57506100f8565b6000815560010161022f565b9091508190610226565b634e487b7160e01b600052602260045260246000fd5b90607f16906100e6565b634e487b7160e01b600052604160045260246000fd5b60405162461bcd60e51b815260206004820152600a602482015269456d707479206461746160b01b6044820152606490fd5b80602080928401015182828801015201610094565b600080fd5b6040519190601f01601f191682016001600160401b038111838210176102725760405256fe608080604052600436101561001357600080fd5b600090813560e01c90816302d05d3f14612b42575080630ee2cb1014612b1b57806310218f4d1461298c57806311ce0267146129635780631af9fd17146127fb5780631cf118a114612759578063211a85e61461237657806322f3e2d41461235157806329f5e65a1461215c5780632bc5c48014611d8f5780633197cbb614611d71578063383e1a5e14611cd75780633fa9696714611bce57806343862d2314611baa578063461e198b14611ac65780634a79d50c14611aa25780634d320b981461199a57806355b31b551461103d57806358f43f761461194a57806359abbfe4146119255780635bff3c231461185d5780635e1a6c17146118195780636ac4e50e146117995780637284e4161461177557806372fe1c03146116c3578063764926db1461163257806377c39c21146116145780637847f1de1461142057806378e979251461140257806379ec4f191461138a5780637a83a44b146113655780637f52cadc1461134157806384e07728146112405780638a19c8bc14611222578063929066f5146111e3578063953cc52c146110615780639c0768b31461103d578063a074018414611019578063a0fb79e114610fab578063a672601d14610ef3578063b0942ce514610ed5578063b2be4d6514610d59578063b2e635e114610bf2578063b568647914610b5b578063b70825dc14610ada578063bbffd04c14610a33578063be27151a146108d4578063c1fc006a146108ab578063c2fc0d261461086c578063c3a4b41a14610826578063c3feda1714610778578063cf09e0d01461075a578063dfafe10f146106a8578063dfb748aa146105e8578063e1d5a2c814610550578063e7aa3afc1461050c578063ef2131061461049b578063f0786f27146103b4578063f1bc33b414610396578063f5e8fd2114610310578063f7267cfd146102f25763fba7cc79146102cb57600080fd5b346102ef57806003193601126102ef5760ff6020915460a01c166040519015158152f35b80fd5b50346102ef57806003193601126102ef576020600254604051908152f35b50346102ef5760203660031901126102ef57600435906001600160401b0382116102ef5761039261038461034f61034a3660048701612bd5565b613ccf565b929593949190610371604051978897885260a0602089015260a0880190612c3f565b9160408701528582036060870152612cbd565b908382036080850152612c64565b0390f35b50346102ef57806003193601126102ef576020600f54604051908152f35b50346102ef57806103c436612d2e565b6103dc60018060a09795971b0360165416331461359e565b6017546001600160a01b0316906103f48215156136a9565b60195491803b15610497576104259385809460405196879586948593633fa9696760e01b85528d8d600487016136f0565b03925af1801561048c57610473575b50507f503607074d0e95d8c0c6b1660c3441384010e05305da22aef0594eb3fcae62369161046d601954926040519384934292856135ea565b0390a180f35b8161047d91612b97565b610488578238610434565b8280fd5b6040513d84823e3d90fd5b8480fd5b50346102ef5760203660031901126102ef576040906001600160a01b036104c0612e98565b16815260126020522060018060a01b03815416610392604051926104f2846104eb816001850161326e565b0385612b97565b60ff60036002830154920154169060405194859485612eae565b50346102ef57806003193601126102ef5760809054600154906002546040519260ff8360a01c16151584526020840152604083015260018060a01b03166060820152f35b50346102ef57806003193601126102ef576016546001600160a01b031633036105b557601954600181018091116105a15760208160008051602061403e83398151915292601955604051908152a180f35b634e487b7160e01b82526011600452602482fd5b60405162461bcd60e51b815260206004820152600b60248201526a4f6e6c7920766f74696e6760a81b6044820152606490fd5b50346102ef5760203660031901126102ef57610602612e98565b61061660018060a01b03835416331461333d565b6001600160a01b03168082526012602052604082206003015461063b9060ff16613c78565b808252601260205261064f60408320613cb1565b808252601860205260408220600160ff19825416179055604051428152817f423eb00b6a18c3ecfc2170a0e40ef0bad995279070614ba2e4be1b94f67eb88860203393a36000805160206140be8339815191528280a280f35b50346102ef5760203660031901126102ef576106c2612e98565b6106d660018060a01b03835416331461333d565b6001600160a01b03168082526018602052604082205460ff1661071f57808252601860205260408220805460ff191660011790556000805160206140be8339815191528280a280f35b60405162461bcd60e51b8152602060048201526013602482015272105b1c9958591e481c185c9d1a58da5c185b9d606a1b6044820152606490fd5b50346102ef57806003193601126102ef576020600154604051908152f35b50346102ef57806003193601126102ef57805461079f336001600160a01b0383161461333d565b60ff8160a01c166107f05760ff60a01b1916600160a01b17815542600281905560405190815233907fb351ba71ddc1d2bf39667cebde99fb92eb26b9f418d5049ba0200888ba81071590602090a280f35b60405162461bcd60e51b815260206004820152600e60248201526d416c72656164792061637469766560901b6044820152606490fd5b50346102ef57806003193601126102ef576016546001600160a01b0316151580610858575b6020906040519015158152f35b506017546001600160a01b0316151561084b565b50346102ef57806003193601126102ef57610392604051610897816108908161302f565b0382612b97565b604051918291602083526020830190612c3f565b50346102ef57806003193601126102ef576016546040516001600160a01b039091168152602090f35b50346102ef5760203660031901126102ef576004356001600160401b0381116109e157610905903690600401612e1a565b61091960018060a01b03835416331461333d565b6016546001600160a01b0316610930811515613526565b8151156109f95760195490600182018092116109e55790839181601955803b1561048857829182916040518094818094630e7dc0d160e41b82526040600483015261097e604483018b612c64565b90602483015203925af1801561048c576109cc575b507f24c323b0138f1f608c855cccb8550ac649c15bf3cea39b8fdbde80d33258a74f82601954905161046d604051928392429184613644565b816109d691612b97565b6109e1578138610993565b5080fd5b634e487b7160e01b84526011600452602484fd5b60405162461bcd60e51b815260206004820152601260248201527108adae0e8f240e6c2dae0d8ca40c4c2e8c6d60731b6044820152606490fd5b50346102ef57806003193601126102ef578054610a5a336001600160a01b0383161461333d565b60ff8160a01c1615610aa25760ff60a01b19168155426002556040514281527f17064d72ee4a5901e55dfa45024ea8f67cdb4895ba6364ab2f8e7223f642ad3660203392a280f35b60405162461bcd60e51b815260206004820152601060248201526f416c726561647920696e61637469766560801b6044820152606490fd5b50346102ef5760203660031901126102ef57600435906015548210156102ef57601554821015610b4757601581527f55f448fdea98c4d29eb340757ef0a66cd03dbb9538908a6a81d96026b71ec4759091015460405160039290921b1c6001600160a01b03168152602090f35b634e487b7160e01b81526032600452602490fd5b50346102ef5760203660031901126102ef57610b75612e98565b610b8960018060a01b03835416331461333d565b6001600160a01b031680825260126020526040822060030154610bae9060ff16613c78565b8082526012602052610bc260408320613cb1565b604051904282527f1a69e67d1be897d0ca0cf1517b4d17e345b4272a80bc900f9fe8e96f261ca1db60203393a380f35b50346102ef57610c0136612db9565b601654610c18906001600160a01b03161515613526565b815115610d2257805115610cef5760ff6040516020818551610c3d8183858a01612c1c565b81016011815203019020541615610cab577f55b5b37db3e79e0cf5fa16c3b213f5856ebaf6a6e58c56813245533b65587bbd91610c9f610c8b92604051938493608085526080850190612c3f565b903360208501528382036040850152612c3f565b4260608301520390a180f35b60405162461bcd60e51b815260206004820152601c60248201527b53616d706c65206e6f742061637469766520666f7220766f74696e6760201b6044820152606490fd5b60405162461bcd60e51b815260206004820152600b60248201526a115b5c1d1e481b1858995b60aa1b6044820152606490fd5b60405162461bcd60e51b815260206004820152600f60248201526e115b5c1d1e481cd85b5c1b19481251608a1b6044820152606490fd5b50346102ef5760203660031901126102ef576004356001600160401b0381116109e157610d8a903690600401612bd5565b610d9f60018060a01b0360165416331461359e565b60405181519060208181850193610db7818387612c1c565b81016011815203019020600160ff19825416179055828391601054925b838110610e95575b505015610e29575b50610e12600080516020613fbe83398151915291601954600f54604051938493608085526080850190612c3f565b91602084015260408301524260608301520390a180f35b600160401b811015610e8157806001610e4592016010556132f1565b610e6d5781610e66600080516020613fbe83398151915293610e12936133d9565b9150610de4565b634e487b7160e01b83526004839052602483fd5b634e487b7160e01b83526041600452602483fd5b610890610eb1610ea4836132f1565b506040519283809261326e565b602081519101208551832014610ec957600101610dd4565b50505060013880610ddc565b50346102ef57806003193601126102ef576020600c54604051908152f35b50346102ef5760203660031901126102ef57806004356001600160401b038111610fa857610f25903690600401612bd5565b610f3960018060a01b03835416331461333d565b6016546001600160a01b0316610f50811515613526565b803b15610fa65760405163a672601d60e01b8152602060048201529183918391829084908290610f84906024830190612c3f565b03925af1801561048c57610f955750f35b81610f9f91612b97565b6102ef5780f35b505b50fd5b50346102ef57806003193601126102ef57610fea611006610392610ff8610fd06139e6565b93969260409591955198899860a08a5260a08a0190612c3f565b9088820360208a0152612c3f565b908682036040880152612c64565b9160608501528382036080850152612cbd565b50346102ef57806003193601126102ef576103926040516108978161089081613115565b50346102ef57806003193601126102ef5761039260405161089781610890816131fb565b50346102ef5760403660031901126102ef57600435906001600160401b0382116102ef57366023830112156102ef57816004013561109e81612e03565b926110ac6040519485612b97565b8184526024602085019260051b820101903682116111df57602401915b8183106111bf57505060243590506001600160401b0381116109e157366023820112156109e1578060040135926110ff84612e03565b9161110d6040519384612b97565b8483526024602084019560051b8201019036821161049757602401945b8186106111af57505082935061114a60018060a01b03845416331461333d565b6016546001600160a01b031691611162831515613526565b823b156111aa57610f849261119885809460405196879586948593631d70957f60e21b8552604060048601526044850190612cbd565b83810360031901602485015290612cfa565b505050fd5b853581526020958601950161112a565b82356001600160a01b0381168103610497578152602092830192016110c9565b8380fd5b50346102ef5760203660031901126102ef5760209060ff906040906001600160a01b0361120e612e98565b168152601884522054166040519015158152f35b50346102ef57806003193601126102ef576020601954604051908152f35b50346102ef57806003193601126102ef5760145481805b8281106112f657506112689061356c565b9180805b838110611289576040516020808252819061039290820188612cbd565b61129281613322565b9054600391821b1c6001600160a01b03168352601260205260408320015460ff166112c0575b60010161126c565b916112ee6001916112d085613322565b848060a01b0391549060031b1c166112e88289613990565b5261361f565b9290506112b8565b6112ff81613322565b9054600391821b1c6001600160a01b03168552601260205260408520015460ff1661132d575b600101611257565b9061133960019161361f565b919050611325565b50346102ef57806003193601126102ef576103926040516108978161089081613188565b50346102ef57806003193601126102ef576020611380613823565b6040519015158152f35b50346102ef5760403660031901126102ef57600435602435906113b760018060a01b03845416331461333d565b818110156113c85760085560095580f35b60405162461bcd60e51b8152602060048201526012602482015271496e76616c69642074696d652072616e676560701b6044820152606490fd5b50346102ef57806003193601126102ef576020600854604051908152f35b50346102ef5760203660031901126102ef576004356001600160401b0381116109e157611451903690600401612bd5565b815461146260ff8260a01c16613378565b6001600160a01b031633146115d957338252601260205260ff6003604084200154166115a3578051156115715760405161149b81612b66565b33815260036020820191838352604081014281526114ea6060830194600186523388526012602052604088209360018060a01b0390511660018060a01b031985541617845551600184016133d9565b516002820155019051151560ff80198354169116179055601454600160401b811015610e81578060016115209201601455613322565b81549060031b9033821b9160018060a01b03901b19161790557fe4d6c018abd0178d4bce0856089ef1876318617b97a1d700bb98506598ab0afc6040518061156b33944290836137af565b0390a280f35b60405162461bcd60e51b815260206004820152600a602482015269456d70747920726f6c6560b01b6044820152606490fd5b60405162461bcd60e51b815260206004820152600e60248201526d526571756573742065786973747360901b6044820152606490fd5b60405162461bcd60e51b815260206004820152601360248201527221b932b0ba37b91031b0b73737ba103537b4b760691b6044820152606490fd5b50346102ef57806003193601126102ef576020600d54604051908152f35b50346102ef5760203660031901126102ef57806004356001600160401b038111610fa857611664903690600401612bd5565b61167860018060a01b03835416331461333d565b6016546001600160a01b031661168f811515613526565b803b15610fa65760405163764926db60e01b8152602060048201529183918391829084908290610f84906024830190612c3f565b50346102ef57806003193601126102ef5760175461174c91906116f0906001600160a01b031615156136a9565b6103926116fb61377b565b916117676020611759604051916117128184612b97565b848352600036813761172261377b565b92604051956117318388612b97565b8652600036813760405198899860808a5260808a0190612c64565b9188830390890152612cfa565b908582036040870152612c64565b908382036060850152612cfa565b50346102ef57806003193601126102ef576103926040516108978161089081612faa565b50346102ef5760203660031901126102ef57600435600e548110156109e157600e5481101561180557600e8252600080516020613f9e8339815191520190806117f1576040516103929061089781610890818761326e565b634e487b7160e01b81526004819052602490fd5b634e487b7160e01b82526032600452602482fd5b50346102ef5760203660031901126102ef57600435906014548210156102ef57602061184483613322565b905460405160039290921b1c6001600160a01b03168152f35b50346102ef5760203660031901126102ef57611877612e98565b6016546001600160a01b03169190602090611893841515613526565b6040516320a7c73b60e11b81526001600160a01b03909116600482015292839060249082905afa80156119185781906118e0575b6060925060405191818352602083015215156040820152f35b506020823d602011611910575b816118fa60209383612b97565b8101031261190b57606091516118c7565b600080fd5b3d91506118ed565b50604051903d90823e3d90fd5b50346102ef57806003193601126102ef57604060015460025482519182526020820152f35b50346102ef5760203660031901126102ef576040906001600160a01b0361196f612e98565b16815260136020522060018060a01b03815416610392604051926104f2846104eb816001850161326e565b50346102ef5760403660031901126102ef576119b4612e98565b6024356001600160a01b0381169190829003610488576119de60018060a01b03845416331461333d565b6001600160a01b031680151580611a99575b15611a605760165490611a0c6001600160a01b0383161561373e565b60175491611a236001600160a01b0384161561373e565b6001600160a01b03199081169190911760165516176017554260028190556040519081523390600080516020613fde83398151915290602090a280f35b60405162461bcd60e51b8152602060048201526011602482015270496e76616c69642061646472657373657360781b6044820152606490fd5b508115156119f0565b50346102ef57806003193601126102ef576103926040516108978161089081612f1b565b50346102ef5760203660031901126102ef576004356001600160401b0381116109e157611af7903690600401612bd5565b8154611b1d9060ff90611b14336001600160a01b0383161461333d565b60a01c16613378565b60195460018101809111611b965790817fbb4ba47257d82c025e976bcdc375cc2e26de94efd111bca20cbc9a330d297455926019554260025560008051602061403e8339815191526020604051838152a1611b8a6040519283928352606060208401526060830190612c3f565b4260408301520390a180f35b634e487b7160e01b83526011600452602483fd5b50346102ef57806003193601126102ef5761039260405161089781610890816130a2565b50346102ef5760a03660031901126102ef576004356001600160401b0381116109e157611bff903690600401612bd5565b816024356001600160401b0381116109e157611c1f903690600401612bd5565b6064356001600160401b03811161048857611c3e903690600401612bd5565b6084356001600160401b0381116111df57611c5d903690600401612bd5565b93611c7260018060a01b03855416331461333d565b6017546001600160a01b031690611c8a8215156136a9565b813b1561049757848094611cb860405198899687958694633fa9696760e01b865260443591600487016136f0565b03925af1801561191857611cc95780f35b611cd291612b97565b388180f35b50346102ef5760203660031901126102ef576040906001600160a01b03611cfc612e98565b16815260126020522060405190611d1282612b66565b80546001600160a01b031682526040519161039290611d38846104eb816001870161326e565b83602082015260ff600360028501549485604085015201541615159081606082015260018060a01b039051169260405194859485612eae565b50346102ef57806003193601126102ef576020600954604051908152f35b50346102ef5760a03660031901126102ef576004356001600160401b0381116109e157611dc0903690600401612bd5565b6024356001600160401b03811161048857611ddf903690600401612bd5565b60643590604435906084356001600160401b03811161215857611e06903690600401612e1a565b93611e1b60018060a01b03875416331461333d565b821561211b5783156120e1578051906001600160401b0382116120cd57611e43600a54612ee1565b601f8111612091575b50602090601f831160011461202c57611e6f9291889183611f61575b50506133c6565b600a555b8051906001600160401b03821161201857611e8f600b54612ee1565b601f8111611fd1575b50602090601f8311600114611f6c57611eba9291879183611f615750506133c6565b600b555b600c55600d55805190600160401b8211610e8157600e5482600e55808310611f28575b50600e83528290600080516020613f9e833981519152906020015b838310611f0b57844260025580f35b6001602082611f1c839451866133d9565b01920192019190611efc565b600e8452600080516020613f9e8339815191529081019083015b818110611f4f5750611ee1565b80611f5b60019261365a565b01611f42565b015190503880611e68565b600b87528187209190601f198416885b818110611fb95750908460019594939210611fa0575b505050811b01600b55611ebe565b015160001960f88460031b161c19169055388080611f92565b92936020600181928786015181550195019301611f7c565b600b87526120089060008051602061405e833981519152601f850160051c8101916020861061200e575b601f0160051c01906133af565b38611e98565b9091508190611ffb565b634e487b7160e01b86526041600452602486fd5b600a88528188209190601f198416895b8181106120795750908460019594939210612060575b505050811b01600a55611e73565b015160001960f88460031b161c19169055388080612052565b9293602060018192878601518155019501930161203c565b600a88526120c790600080516020613ffe833981519152601f850160051c8101916020861061200e57601f0160051c01906133af565b38611e4c565b634e487b7160e01b87526041600452602487fd5b60405162461bcd60e51b8152602060048201526012602482015271496e76616c69642062617463682073697a6560701b6044820152606490fd5b60405162461bcd60e51b815260206004820152601560248201527424b73b30b634b21036b0bc1034ba32b930ba34b7b760591b6044820152606490fd5b8580fd5b50346102ef576121df7f0a1e2f362ccc64de291011914f5087c611557a7331c80f2cdd2aacf89b9dc56461218f36612db9565b6121a460018060a01b0360165416331461359e565b60405160208184516121b98183858901612c1c565b8101601181520301902060ff1981541690556019549384926040519384934292856135ea565b0390a1600190829183601054905b81811061229e575081612294575b50612204578280f35b7f72db402a1d505e0ee50fba411e34bd1f9a6e90ab67b824c438255e747a886b2891612237604051928392429184613644565b0390a1601054816010558061224b57808280f35b601082527f1b6847dc741a1b0cd08d278845f9d819d87b734759afb55fe2de5cb82a9ae672908101905b8181106122825750808280f35b8061228e60019261365a565b01612275565b90501515386121fb565b916122a8836132f1565b506040519087908054906122bb82612ee1565b91600181169081156123395750600114612306575b50506011815281900360200190205460ff16156122f35750600185925b016121ed565b919361230060019161361f565b946122ed565b90915088526020882088905b82821061232557505081016020826122d0565b600181602092548487015201910190612312565b60ff19168552505080151502820190506020826122d0565b50346102ef57806003193601126102ef5760ff6020915460a01c166040519015158152f35b50346102ef5761238536612d2e565b9193909261239d60018060a01b03835416331461333d565b8051906001600160401b038211610e81576123b9600454612ee1565b601f811161271d575b50602090601f83116001146126b8576123e49291849183611f615750506133c6565b6004555b83516001600160401b03811161257057612403600554612ee1565b601f8111612687575b50602094601f8211600114612623578293949582916124319492611f615750506133c6565b6005555b82516001600160401b03811161257057612450600654612ee1565b601f81116125e7575b506020601f821160011461258457819083949561247c9492611f615750506133c6565b6006555b81516001600160401b0381116125705761249b600754612ee1565b601f8111612534575b50602092601f82116001146124d257829382916124c79492611f615750506133c6565b6007555b4260025580f35b601f198216936007845280842091845b86811061251c5750836001959610612503575b505050811b016007556124cb565b015160001960f88460031b161c191690553880806124f5565b919260206001819286850151815501940192016124e2565b6007835261256a9060008051602061401e833981519152601f840160051c8101916020851061200e57601f0160051c01906133af565b386124a4565b634e487b7160e01b82526041600452602482fd5b6006835280832090601f198316845b8181106125cf575095836001959697106125b6575b505050811b01600655612480565b015160001960f88460031b161c191690553880806125a8565b9192602060018192868b015181550194019201612593565b6006835261261d9060008051602061407e833981519152601f840160051c8101916020851061200e57601f0160051c01906133af565b38612459565b601f198216956005845280842091845b88811061266f57508360019596979810612656575b505050811b01600555612435565b015160001960f88460031b161c19169055388080612648565b91926020600181928685015181550194019201612633565b6126b2906005845260208420601f840160051c8101916020851061200e57601f0160051c01906133af565b3861240c565b600484528184209190601f198416855b81811061270557509084600195949392106126ec575b505050811b016004556123e8565b015160001960f88460031b161c191690553880806126de565b929360206001819287860151815501950193016126c8565b600484526127539060008051602061409e833981519152601f850160051c8101916020861061200e57601f0160051c01906133af565b386123c2565b50346102ef57806003193601126102ef576016546127e09190612786906001600160a01b03161515613526565b6103926020916127ed6040519361279d8186612b97565b828552823681376040516127b18282612b97565b83815283368137604051936127c68386612b97565b808552368137604051968796606088526060880190612cbd565b9186830390870152612cfa565b908382036040850152612cfa565b50346102ef57806003193601126102ef57600160a01b6001900390541660085460095491600c54600d54604051938461283381612f1b565b0361283e9086612b97565b604051958661284c81612faa565b036128579088612b97565b60405191826128658161302f565b036128709084612b97565b604051918261287e816130a2565b036128899084612b97565b604051928361289781613115565b036128a29085612b97565b60405194856128b081613188565b036128bb9087612b97565b6128c36134bb565b986040519b8c9b6101808d526101808d016128dd91612c3f565b8c810360208e01526128ee91612c3f565b9060408c01528a810360608c015261290591612c3f565b89810360808b015261291691612c3f565b9160a089015260c088015286810360e088015261293291612c3f565b85810361010087015261294491612c3f565b9161012085015261014084015282810361016084015261039291612c64565b50346102ef57806003193601126102ef576017546040516001600160a01b039091168152602090f35b50346102ef5760203660031901126102ef576004356001600160401b0381116109e1576129bd903690600401612bd5565b906129d860ff8254611b1460018060a01b038216331461333d565b815115612ae95781516001600160401b038111612570576129fa600354612ee1565b601f8111612aad575b50602092601f8211600114612a4b5782938291612a269492611f615750506133c6565b6003555b42600255604051428152600080516020613fde83398151915260203392a280f35b601f198216936003845280842091845b868110612a955750836001959610612a7c575b505050811b01600355612a2a565b015160001960f88460031b161c19169055388080612a6e565b91926020600181928685015181550194019201612a5b565b60038352612ae390600080516020613f7e833981519152601f840160051c8101916020851061200e57601f0160051c01906133af565b38612a03565b60405162461bcd60e51b815260206004820152600a602482015269456d707479206461746160b01b6044820152606490fd5b50346102ef57806003193601126102ef57546040516001600160a01b039091168152602090f35b9050346109e157816003193601126109e15790546001600160a01b03168152602090f35b608081019081106001600160401b03821117612b8157604052565b634e487b7160e01b600052604160045260246000fd5b601f909101601f19168101906001600160401b03821190821017612b8157604052565b6001600160401b038111612b8157601f01601f191660200190565b81601f8201121561190b57803590612bec82612bba565b92612bfa6040519485612b97565b8284526020838301011161190b57816000926020809301838601378301015290565b60005b838110612c2f5750506000910152565b8181015183820152602001612c1f565b90602091612c5881518092818552858086019101612c1c565b601f01601f1916010190565b9080602083519182815201916020808360051b8301019401926000915b838310612c9057505050505090565b9091929394602080612cae600193601f198682030187528951612c3f565b97019301930191939290612c81565b906020808351928381520192019060005b818110612cdb5750505090565b82516001600160a01b0316845260209384019390920191600101612cce565b906020808351928381520192019060005b818110612d185750505090565b8251845260209384019390920191600101612d0b565b90608060031983011261190b576004356001600160401b03811161190b5782612d5991600401612bd5565b916024356001600160401b03811161190b5781612d7891600401612bd5565b916044356001600160401b03811161190b5782612d9791600401612bd5565b91606435906001600160401b03821161190b57612db691600401612bd5565b90565b90604060031983011261190b576004356001600160401b03811161190b5782612de491600401612bd5565b91602435906001600160401b03821161190b57612db691600401612bd5565b6001600160401b038111612b815760051b60200190565b9080601f8301121561190b578135612e3181612e03565b92612e3f6040519485612b97565b81845260208085019260051b8201019183831161190b5760208201905b838210612e6b57505050505090565b81356001600160401b03811161190b57602091612e8d87848094880101612bd5565b815201910190612e5c565b600435906001600160a01b038216820361190b57565b92949390606092612ed49160018060a01b03168552608060208601526080850190612c3f565b9460408401521515910152565b90600182811c92168015612f11575b6020831014612efb57565b634e487b7160e01b600052602260045260246000fd5b91607f1691612ef0565b60045460009291612f2b82612ee1565b8082529160018116908115612f8e5750600114612f46575050565b6004600090815292935090919060008051602061409e8339815191525b838310612f74575060209250010190565b600181602092949394548385870101520191019190612f63565b9050602093945060ff929192191683830152151560051b010190565b60055460009291612fba82612ee1565b8082529160018116908115612f8e5750600114612fd5575050565b600560009081529293509091907f036b6384b5eca791c62761152d0c79bb0604c104a5fb6f4eb0703f3154bb3db05b838310613015575060209250010190565b600181602092949394548385870101520191019190613004565b6006546000929161303f82612ee1565b8082529160018116908115612f8e575060011461305a575050565b6006600090815292935090919060008051602061407e8339815191525b838310613088575060209250010190565b600181602092949394548385870101520191019190613077565b600754600092916130b282612ee1565b8082529160018116908115612f8e57506001146130cd575050565b6007600090815292935090919060008051602061401e8339815191525b8383106130fb575060209250010190565b6001816020929493945483858701015201910191906130ea565b600a546000929161312582612ee1565b8082529160018116908115612f8e5750600114613140575050565b600a6000908152929350909190600080516020613ffe8339815191525b83831061316e575060209250010190565b60018160209294939454838587010152019101919061315d565b600b546000929161319882612ee1565b8082529160018116908115612f8e57506001146131b3575050565b600b600090815292935090919060008051602061405e8339815191525b8383106131e1575060209250010190565b6001816020929493945483858701015201910191906131d0565b6003546000929161320b82612ee1565b8082529160018116908115612f8e5750600114613226575050565b60036000908152929350909190600080516020613f7e8339815191525b838310613254575060209250010190565b600181602092949394548385870101520191019190613243565b6000929181549161327e83612ee1565b80835292600181169081156132d4575060011461329a57505050565b60009081526020812093945091925b8383106132ba575060209250010190565b6001816020929493945483858701015201910191906132a9565b915050602093945060ff929192191683830152151560051b010190565b60105481101561330c57601060005260206000200190600090565b634e487b7160e01b600052603260045260246000fd5b60145481101561330c57601460005260206000200190600090565b1561334457565b60405162461bcd60e51b815260206004820152600c60248201526b27b7363c9031b932b0ba37b960a11b6044820152606490fd5b1561337f57565b60405162461bcd60e51b8152602060048201526008602482015267496e61637469766560c01b6044820152606490fd5b8181106133ba575050565b600081556001016133af565b8160011b916000199060031b1c19161790565b81519192916001600160401b038111612b81576133f68254612ee1565b601f8111613489575b506020601f8211600114613427578190613423939495600092611f615750506133c6565b9055565b601f1982169083600052806000209160005b81811061347157509583600195969710613458575b505050811b019055565b015160001960f88460031b161c1916905538808061344e565b9192602060018192868b015181550194019201613439565b6134b590836000526020600020601f840160051c8101916020851061200e57601f0160051c01906133af565b386133ff565b600e54906134c882612e03565b916134d66040519384612b97565b808352600e6000908152600080516020613f9e833981519152602085015b8383106135015750505050565b60016020819260405161351881610890818961326e565b8152019201920191906134f4565b1561352d57565b60405162461bcd60e51b8152602060048201526017602482015276159bdd1a5b99c818dbdb9d1c9858dd081b9bdd081cd95d604a1b6044820152606490fd5b9061357682612e03565b6135836040519182612b97565b8281528092613594601f1991612e03565b0190602036910137565b156135a557565b60405162461bcd60e51b815260206004820152601d60248201527f4f6e6c7920766f74696e6720636f6e74726163742063616e2063616c6c0000006044820152606490fd5b906060926136076136159297969597608085526080850190612c3f565b908382036020850152612c3f565b9460408201520152565b600019811461362e5760010190565b634e487b7160e01b600052601160045260246000fd5b6040919493926060820195825260208201520152565b6136648154612ee1565b908161366e575050565b81601f60009311600114613680575055565b8183526020832061369c91601f0160051c8101906001016133af565b8082528160208120915555565b156136b057565b60405162461bcd60e51b815260206004820152601860248201527714dd1bdc9859d94818dbdb9d1c9858dd081b9bdd081cd95d60421b6044820152606490fd5b9361371d6137309361370f612db698969460a0895260a0890190612c3f565b908782036020890152612c3f565b9160408601528482036060860152612c3f565b916080818403910152612c3f565b1561374557565b60405162461bcd60e51b815260206004820152600e60248201526d105b1c9958591e481b1a5b9ad95960921b6044820152606490fd5b6040519061378a602083612b97565b600080835282815b82811061379e57505050565b806060602080938501015201613792565b9291906137c6602091604086526040860190612c3f565b930152565b5190811515820361190b57565b604051906137e7604083612b97565b600f82526e6163746976655f6c6561726e696e6760881b6020830152565b9190820391821161362e57565b90815181101561330c570160200190565b6040516361d25a0d60e11b8152602081600481305afa9081156139845760009161394a575b506139455760405161385d816108908161302f565b6020815191012061386c6137d8565b60208151910120146139405760405161388881610890816131fb565b6138906137d8565b8151815111156138a2575b5050600090565b6000905b6138b38351825190613805565b82116139365760019260005b825181101561392c5780840180851161362e576001600160f81b0319906138e69084613812565b51166001600160f81b03196138fb8386613812565b51160361390a576001016138bf565b5092509060005b6139245761391e9061361f565b906138a6565b505050600190565b5092919091613911565b505050388061389b565b600190565b600090565b90506020813d60201161397c575b8161396560209383612b97565b8101031261190b57613976906137cb565b38613848565b3d9150613958565b6040513d6000823e3d90fd5b805182101561330c5760209160051b010190565b81601f8201121561190b5780516139ba81612bba565b926139c86040519485612b97565b8184526020828401011161190b57612db69160208085019101612c1c565b6016546001600160a01b03166139fd811515613526565b60105460005b818110613a5957505050613a1561377b565b602091604051613a258482612b97565b600081526000368137604051613a3b8582612b97565b6000815293613a4d6040519182612b97565b60008152929160009190565b610890613a68610ea4836132f1565b6040519060ff81519260208181850195613a83818389612c1c565b81016011815203019020541680613c00575b613aa4575b5050600101613a03565b6040516379c4ab1560e01b81526020600482015260008180613ac96024820186612c3f565b0381895afa9081156139845760009182918391613b9a575b5081613b91575b50613af35750613a9a565b919594509250613b04915042613805565b600f5490818110613b825750506000905b613b59603060405180966f029b0b6b83632903230ba30903337b9160851b6020830152613b488551809285850190612c1c565b81010301601f198101865285612b97565b604051906020613b698184612b97565b600083525060003681379392613b7d6134bb565b929190565b613b8b91613805565b90613b15565b90501538613ae8565b9150503d8083833e613bac8183612b97565b810160808282031261048857815190613bc7602084016137cb565b93613bd4604085016137cb565b6060850151909490916001600160401b0383116102ef5750613bf79291016139a4565b50919038613ae1565b50604051628ae9fd60e31b81526020600482018190528180613c256024820186612c3f565b0381895afa90811561398457600091613c3f575b50613a95565b906020823d8211613c70575b81613c5860209383612b97565b810103126102ef5750613c6a906137cb565b38613c39565b3d9150613c4b565b15613c7f57565b60405162461bcd60e51b815260206004820152600a602482015269139bc81c995c5d595cdd60b21b6044820152606490fd5b6003600091828155613cc56001820161365a565b8260028201550155565b6017549091906001600160a01b0316613ce98115156136a9565b604051926387b1735560e01b84526020600485015260208480613d0f6024820185612c3f565b0381855afa93841561398457600094613f49575b508315613f0957600019840193841161362e57604051636173a87360e11b81529260008480613d568886600484016137af565b0381865afa801561398457600090819682968392613eae575b50613d798261356c565b95613d8383612e03565b95613d916040519788612b97565b838752601f19613da085612e03565b0160005b818110613e9d57505060005b848110613dc35750505050509493929190565b604051637a2e9f0f60e01b81526060600482015260008180613de86064820187612c3f565b8860248301528560448301520381875afa908115613984576000908192613e40575b50908291613e1a6001948d613990565b90848060a01b03169052613e2e828b613990565b52613e39818a613990565b5001613db0565b91503d8082843e613e518184612b97565b8201906040838303126102ef578251926001600160a01b03841684036109e1576020810151916001600160401b0383116102ef575091613e96916001959493016139a4565b9192613e0a565b806060602080938c01015201613da4565b9750919550503d8086883e613ec38188612b97565b8601608087820312612158578651602088015190966001600160401b0382116102ef575090613ef39188016139a4565b9060606040880151970151959196959038613d6f565b505060405160209250613f1c8382612b97565b600081526000368137613f2d61377b565b600093613f3d6040519182612b97565b60008152926000929190565b90936020823d602011613f75575b81613f6460209383612b97565b810103126102ef5750519238613d23565b3d9150613f5756fec2575a0e9e593c00f959f8c92f12db2869c3395a3b0502d05e2516446f71f85bbb7b4a454dc3493923482f07822329ed19e8244eff582cc204f8554c3620c3fd9b196abb2588eccefb36f3e6c9b15d9e260c633d5b2e0b8f497e6e71c6c1c1eac1756fd99ac9a2b1b22b5e701ddb022b897a002144d045b77ac35ce46610fef6c65a7bb8d6351c1cf70c95a316cc6a92839c986682d98bc35f958f4883f9d2a8a66cc928b5edb82af9bd49922954155ab7b0942694bea4ce44661d9a8736c6889aa934e5a98d12b60dabec0f34647f2b63b8fd257ba6480e7ded4cc1ef24c5730175b7a638427703f0dbe7bb9bbf987a2551717b34e79f33b5b1008d1fa01db9f652222313e28459528d920b65115c16c04f3efc82aaedc97be59f3f377c0d3f8a35acfbc15ff81a39ae7d344fd709f28e8600b4aa8c65c6b64bfe7fe36bd19b31d3ac54da09405b02d1de0ee0de648de637fbdc111123be0d7fc31f2a544c0ba26469706673582212208222ba1e0082c7acb51cffb8501a689fccfcf4ace2ccc42a8e73046a1f26f63c64736f6c634300081c0033",
  "linkReferences": {},
  "deployedLinkReferences": {}
}