{
  "_format": "hh-sol-artifact-1",
  "contractName": "ProjectFactory",
  "sourceName": "contracts/ProjectFactory.sol",
  "abi": [
    {
      "inputs": [
        {
          "internalType": "address",
          "name": "_templateRegistry",
          "type": "address"
        }
      ],
      "stateMutability": "nonpayable",
      "type": "constructor"
    },
    {
      "anonymous": false,
      "inputs": [
        {
          "indexed": true,
          "internalType": "address",
          "name": "creator",
          "type": "address"
        },
        {
          "indexed": true,
          "internalType": "address",
          "name": "projectAddress",
          "type": "address"
        },
        {
          "indexed": false,
          "internalType": "string",
          "name": "projectType",
          "type": "string"
        },
        {
          "indexed": false,
          "internalType": "uint256",
          "name": "templateId",
          "type": "uint256"
        },
        {
          "indexed": false,
          "internalType": "uint256",
          "name": "timestamp",
          "type": "uint256"
        }
      ],
      "name": "ProjectCreated",
      "type": "event"
    },
    {
      "inputs": [
        {
          "internalType": "uint256",
          "name": "",
          "type": "uint256"
        }
      ],
      "name": "allProjects",
      "outputs": [
        {
          "internalType": "address",
          "name": "",
          "type": "address"
        }
      ],
      "stateMutability": "view",
      "type": "function"
    },
    {
      "inputs": [
        {
          "internalType": "address",
          "name": "_projectAddress",
          "type": "address"
        }
      ],
      "name": "checkIsDALProject",
      "outputs": [
        {
          "internalType": "bool",
          "name": "",
          "type": "bool"
        }
      ],
      "stateMutability": "view",
      "type": "function"
    },
    {
      "inputs": [
        {
          "internalType": "address",
          "name": "_projectAddress",
          "type": "address"
        }
      ],
      "name": "checkIsProject",
      "outputs": [
        {
          "internalType": "bool",
          "name": "",
          "type": "bool"
        }
      ],
      "stateMutability": "view",
      "type": "function"
    },
    {
      "inputs": [
        {
          "internalType": "string",
          "name": "_projectData",
          "type": "string"
        }
      ],
      "name": "createCustomProject",
      "outputs": [
        {
          "internalType": "address",
          "name": "",
          "type": "address"
        }
      ],
      "stateMutability": "nonpayable",
      "type": "function"
    },
    {
      "inputs": [
        {
          "internalType": "uint256",
          "name": "_templateId",
          "type": "uint256"
        },
        {
          "internalType": "string",
          "name": "_projectData",
          "type": "string"
        }
      ],
      "name": "createProjectFromTemplate",
      "outputs": [
        {
          "internalType": "address",
          "name": "",
          "type": "address"
        }
      ],
      "stateMutability": "nonpayable",
      "type": "function"
    },
    {
      "inputs": [
        {
          "internalType": "uint256",
          "name": "",
          "type": "uint256"
        }
      ],
      "name": "dalProjects",
      "outputs": [
        {
          "internalType": "address",
          "name": "",
          "type": "address"
        }
      ],
      "stateMutability": "view",
      "type": "function"
    },
    {
      "inputs": [],
      "name": "getAllProjects",
      "outputs": [
        {
          "internalType": "address[]",
          "name": "",
          "type": "address[]"
        }
      ],
      "stateMutability": "view",
      "type": "function"
    },
    {
      "inputs": [],
      "name": "getDALProjectCount",
      "outputs": [
        {
          "internalType": "uint256",
          "name": "",
          "type": "uint256"
        }
      ],
      "stateMutability": "view",
      "type": "function"
    },
    {
      "inputs": [],
      "name": "getDALProjects",
      "outputs": [
        {
          "internalType": "address[]",
          "name": "",
          "type": "address[]"
        }
      ],
      "stateMutability": "view",
      "type": "function"
    },
    {
      "inputs": [],
      "name": "getProjectCount",
      "outputs": [
        {
          "internalType": "uint256",
          "name": "",
          "type": "uint256"
        }
      ],
      "stateMutability": "view",
      "type": "function"
    },
    {
      "inputs": [
        {
          "internalType": "address",
          "name": "_user",
          "type": "address"
        }
      ],
      "name": "getUserProjectCount",
      "outputs": [
        {
          "internalType": "uint256",
          "name": "",
          "type": "uint256"
        }
      ],
      "stateMutability": "view",
      "type": "function"
    },
    {
      "inputs": [
        {
          "internalType": "address",
          "name": "_user",
          "type": "address"
        }
      ],
      "name": "getUserProjects",
      "outputs": [
        {
          "internalType": "address[]",
          "name": "",
          "type": "address[]"
        }
      ],
      "stateMutability": "view",
      "type": "function"
    },
    {
      "inputs": [
        {
          "internalType": "address",
          "name": "",
          "type": "address"
        }
      ],
      "name": "isDALProject",
      "outputs": [
        {
          "internalType": "bool",
          "name": "",
          "type": "bool"
        }
      ],
      "stateMutability": "view",
      "type": "function"
    },
    {
      "inputs": [
        {
          "internalType": "address",
          "name": "",
          "type": "address"
        }
      ],
      "name": "isProject",
      "outputs": [
        {
          "internalType": "bool",
          "name": "",
          "type": "bool"
        }
      ],
      "stateMutability": "view",
      "type": "function"
    },
    {
      "inputs": [],
      "name": "templateRegistry",
      "outputs": [
        {
          "internalType": "contract ProjectTemplateRegistry",
          "name": "",
          "type": "address"
        }
      ],
      "stateMutability": "view",
      "type": "function"
    },
    {
      "inputs": [
        {
          "internalType": "address",
          "name": "",
          "type": "address"
        },
        {
          "internalType": "uint256",
          "name": "",
          "type": "uint256"
        }
      ],
      "name": "userProjects",
      "outputs": [
        {
          "internalType": "address",
          "name": "",
          "type": "address"
        }
      ],
      "stateMutability": "view",
      "type": "function"
    }
  ],
  "bytecode": "0x60803460cb57601f6168be38819003918201601f19168301916001600160401b0383118484101760d05780849260209460405283398101031260cb57516001600160a01b0381169081900360cb578015607557600080546001600160a01b0319169190911790556040516167d790816100e78239f35b60405162461bcd60e51b815260206004820152602860248201527f54656d706c61746520726567697374727920616464726573732063616e6e6f74604482015267206265207a65726f60c01b6064820152608490fd5b600080fd5b634e487b7160e01b600052604160045260246000fdfe608080604052600436101561001357600080fd5b60003560e01c90816305c8140814610966575080630e9eb496146100f25780632fa9c007146109035780633bcff3b0146108e55780633f3c9833146108a65780634780f786146104de57806353b3194c1461048857806380d038291461041b5780639c1fa044146103b1578063a0af81f014610388578063a375728a1461034e578063bb3098ff146102e1578063e32e723c14610251578063eabec3a314610131578063f0f847d6146100f25763f4d32852146100cf57600080fd5b346100ed5760003660031901126100ed576020600554604051908152f35b600080fd5b346100ed5760203660031901126100ed576001600160a01b036101136109a1565b166000526004602052602060ff604060002054166040519015158152f35b346100ed5760203660031901126100ed576004356001600160401b0381116100ed57610161903690600401610a23565b61016d81511515610b15565b60405190615b38808301916001600160401b0383118484101761023b57839261019c92610c0a85393390610b85565b03906000f0801561022f5760209060018060a01b031633600052600182526101c8816040600020610bec565b80600052600282526040600020600160ff198254161790556101e981610ba7565b80604051606081526006606082015265637573746f6d60d01b608082015260008482015242604082015260008051602061676283398151915260a03392a3604051908152f35b6040513d6000823e3d90fd5b634e487b7160e01b600052604160045260246000fd5b346100ed5760203660031901126100ed576001600160a01b036102726109a1565b166000526001602052604060002060405190816020825491828152019160005260206000209060005b8181106102c2576102be856102b2818703826109e5565b60405191829182610a6a565b0390f35b82546001600160a01b031684526020909301926001928301920161029b565b346100ed5760003660031901126100ed57604051600580548083526000918252602083019160008051602061674283398151915291905b81811061032f576102be856102b2818703826109e5565b82546001600160a01b0316845260209093019260019283019201610318565b346100ed5760203660031901126100ed576001600160a01b0361036f6109a1565b1660005260016020526020604060002054604051908152f35b346100ed5760003660031901126100ed576000546040516001600160a01b039091168152602090f35b346100ed5760203660031901126100ed576004356005548110156100ed5760009060055481101561040757600590915260008051602061674283398151915201546040516001600160a01b039091168152602090f35b634e487b7160e01b82526032600452602482fd5b346100ed5760003660031901126100ed57604051600380548083526000918252602083019160008051602061678283398151915291905b818110610469576102be856102b2818703826109e5565b82546001600160a01b0316845260209093019260019283019201610452565b346100ed5760203660031901126100ed576004356003548110156100ed5760009060035481101561040757600390915260008051602061678283398151915201546040516001600160a01b039091168152602090f35b346100ed5760403660031901126100ed576004356024356001600160401b0381116100ed576105136024913690600401610a23565b60008054604051630c550f3d60e21b81526004810186905293849182906001600160a01b03165afa801561022f576000928391610732575b50156106f45761055d81511515610b15565b60405190615b38808301916001600160401b0383118484101761023b57839261058c92610c0a85393390610b85565b03906000f0801561022f5760018060a01b03169060405160208101906105ce60208285516105bd8187858a01610aad565b81010301601f1981018352826109e5565b51902060405160208101906e6163746976655f6c6561726e696e6760881b8252600f81526105fd602f826109e5565b5190201461067f575b60209260008051602061676283398151915283923360005260018652610630846040600020610bec565b83600052600286526040600020600160ff1982541617905561065184610ba7565b61066660405191606083526060830190610b60565b92868201524260408201528033930390a3604051908152f35b6000828152600460205260409020805460ff1916600117905560055492600160401b84101561023b5760008051602061676283398151915283926106cd8660016020980160055560056109b7565b81546001600160a01b0360039290921b91821b191695901b94909417909355509250610606565b60405162461bcd60e51b815260206004820152601660248201527554656d706c617465206973206e6f742061637469766560501b6044820152606490fd5b90503d8084833e61074381836109e5565b81019060c0818303126108a25780516001600160401b03811161089e578261076c918301610ad0565b5060208101516001600160401b03811161089e578261078c918301610ad0565b5060408101516001600160401b03811161089e57826107ac918301610ad0565b60608201519092906001600160401b03811161085157820181601f820112156108515780516001600160401b03811161088a576020808260051b92604051906107f7838601836109e5565b81520191830101918383116108865760208101915b838310610855575050505060808201516001600160401b0381116108515782916108399160a09401610ad0565b50015192831515840361084e5750918461054b565b80fd5b8580fd5b82516001600160401b0381116108825760209161087787848094870101610ad0565b81520192019161080c565b8980fd5b8780fd5b634e487b7160e01b87526041600452602487fd5b8480fd5b8380fd5b346100ed5760203660031901126100ed576001600160a01b036108c76109a1565b166000526002602052602060ff604060002054166040519015158152f35b346100ed5760003660031901126100ed576020600354604051908152f35b346100ed5760403660031901126100ed5761091c6109a1565b6001600160a01b03166000908152600160205260409020805460243591908210156100ed5760209161094d916109b7565b905460405160039290921b1c6001600160a01b03168152f35b346100ed5760203660031901126100ed576020906001600160a01b0361098a6109a1565b166000526002825260ff6040600020541615158152f35b600435906001600160a01b03821682036100ed57565b80548210156109cf5760005260206000200190600090565b634e487b7160e01b600052603260045260246000fd5b601f909101601f19168101906001600160401b0382119082101761023b57604052565b6001600160401b03811161023b57601f01601f191660200190565b81601f820112156100ed57803590610a3a82610a08565b92610a4860405194856109e5565b828452602083830101116100ed57816000926020809301838601378301015290565b602060408183019282815284518094520192019060005b818110610a8e5750505090565b82516001600160a01b0316845260209384019390920191600101610a81565b60005b838110610ac05750506000910152565b8181015183820152602001610ab0565b81601f820112156100ed578051610ae681610a08565b92610af460405194856109e5565b818452602082840101116100ed57610b129160208085019101610aad565b90565b15610b1c57565b60405162461bcd60e51b815260206004820152601c60248201527b50726f6a65637420646174612063616e6e6f7420626520656d70747960201b6044820152606490fd5b90602091610b7981518092818552858086019101610aad565b601f01601f1916010190565b6001600160a01b039091168152604060208201819052610b1292910190610b60565b600354600160401b81101561023b57806001610bc8920160035560036109b7565b81546001600160a01b0393841660039290921b91821b9390911b1916919091179055565b8054600160401b81101561023b57610bc8916001820181556109b756fe6080604052346102dc57615b3880380380610019816102e1565b9283398101906040818303126102dc5780516001600160a01b03811691908290036102dc576020810151906001600160401b0382116102dc570182601f820112156102dc578051906001600160401b03821161026c57610082601f8301601f19166020016102e1565b93828552602083830101116102dc5760005b8281106102c757505060206000918401015281511561028257600080546001600160a01b0319168217905581516001600160401b03811161026c57600354600181811c91168015610262575b602082101461024c57601f81116101e7575b50602092601f82116001146101825792819293600092610177575b50508160011b916000199060031b1c1916176003555b4260015542600255600160a01b60ff60a01b1960005416176000557f20bfd29f3d906f96fc35742fac45a554b19cbd4e21f8c4c1d84cb58fdfc32c896020604051428152a260405161583190816103078239f35b01519050388061010d565b601f198216936003600052806000209160005b8681106101cf57508360019596106101b6575b505050811b01600355610123565b015160001960f88460031b161c191690553880806101a8565b91926020600181928685015181550194019201610195565b60036000527fc2575a0e9e593c00f959f8c92f12db2869c3395a3b0502d05e2516446f71f85b601f830160051c81019160208410610242575b601f0160051c01905b81811061023657506100f2565b60008155600101610229565b9091508190610220565b634e487b7160e01b600052602260045260246000fd5b90607f16906100e0565b634e487b7160e01b600052604160045260246000fd5b60405162461bcd60e51b815260206004820152601c60248201527f50726f6a65637420646174612063616e6e6f7420626520656d707479000000006044820152606490fd5b80602080928401015182828801015201610094565b600080fd5b6040519190601f01601f191682016001600160401b0381118382101761026c5760405256fe608080604052600436101561001357600080fd5b60003560e01c90816302d05d3f146122c3575080630ee2cb101461229a57806310218f4d1461213557806311ce02671461210c5780631af9fd1714611f6a57806322f3e2d41461023a5780632b17b8be14611f335780632bc5c48014611e4557806332c6afd014611dd1578063383e1a5e14611d6e5780633fa9696714611ba4578063461e198b14611ade5780634d320b98146119c857806355b31b551461106257806358f43f761461197e57806359abbfe4146119595780635e1a6c1714611930578063728f111214611875578063764926db146117925780637847f1de146115dd57806379ec4f19146115b75780637a83a44b1461159257806384e07728146114a75780638a19c8bc146114895780638ba26e2f146113cd578063929066f51461138e578063953cc52c1461119b578063985859f6146110925780639c0768b314611062578063a672601d14610f72578063b3494f9c14610dfe578063b568647914610d64578063b70825dc14610d22578063bbffd04c14610c6f578063c127c24714610bcc578063c1fc006a14610ba3578063c3a4b41a14610b5d578063c3feda1714610aa3578063c6765d2814610938578063cf09e0d01461091a578063dfafe10f14610862578063dfb748aa1461079c578063e1d5a2c8146106fa578063e7aa3afc146106b5578063e9bbc8e01461049f578063ef21310614610436578063f7267cfd14610418578063f75eade0146102655763fba7cc791461023a57600080fd5b3461026057600036600319011261026057602060ff60005460a01c166040519015158152f35b600080fd5b34610260576102733661264c565b60005490916001600160a01b0382169161029e9060ff9061029533861461268e565b60a01c166126ef565b6001600160a01b03169081146103d35780600052600560205260ff60036040600020015416610392576102d3825115156129b8565b61030b6040516102e2816122e7565b8281528360208201524260408201526001606082015282600052600560205260406000206129fb565b600754600160401b81101561037c5780600161032c920160075560076125f7565b81549060031b9083821b9160018060a01b03901b19161790557f07501885e0e140e0232eed19016a41bde16b8de699d11e7a461f88d6ba58a9cd604051806103773395429083612956565b0390a3005b634e487b7160e01b600052604160045260246000fd5b60405162461bcd60e51b8152602060048201526019602482015278496e7669746174696f6e20616c72656164792065786973747360381b6044820152606490fd5b60405162461bcd60e51b815260206004820152601d60248201527f43616e6e6f7420696e766974652070726f6a6563742063726561746f720000006044820152606490fd5b34610260576000366003190112610260576020600254604051908152f35b34610260576020366003190112610260576001600160a01b036104576123c8565b16600090815260046020526040902080546001600160a01b031661049b61048060018401612509565b9260ff600360028301549201541690604051948594856123de565b0390f35b34610260576040366003190112610260576004356001600160401b038111610260576104cf903690600401612340565b6024356104e760018060a01b0360005416331461268e565b6008546001600160a01b031615806106a2575b61050390612c04565b81511561065e57801561060b576040519161185491828401916001600160401b0383118584101761037c5761054f6040918695612c9b8739308552606060208601526060850190612387565b92015203906000f080156105ff57600880546001600160a01b0319166001600160a01b039290921691909117905560405161124d808201906001600160401b0382118383101761037c5760209183916144ef83393081520301906000f080156105ff57600980546001600160a01b0319166001600160a01b039283169081179091554260025560085460405160008051602061573c83398151915293909283926105fa92168361293c565b0390a1005b6040513d6000823e3d90fd5b60405162461bcd60e51b815260206004820152602560248201527f566f74696e672074696d656f7574206d75737420626520677265617465722074604482015264068616e20360dc1b6064820152608490fd5b606460405162461bcd60e51b815260206004820152602060248201527f566f74696e6720636f6e73656e7375732063616e6e6f7420626520656d7074796044820152fd5b506009546001600160a01b0316156104fa565b34610260576000366003190112610260576080600054600154906002546040519260ff8360a01c16151584526020840152604083015260018060a01b03166060820152f35b34610260576000366003190112610260576008546001600160a01b0316330361076057600b546001810180911161074a576020816000805160206157bc83398151915292600b55604051908152a1005b634e487b7160e01b600052601160045260246000fd5b60405162461bcd60e51b815260206004820152601460248201527313db9b1e481d9bdd1a5b99c818dbdb9d1c9858dd60621b6044820152606490fd5b34610260576020366003190112610260576107b56123c8565b6107ca60018060a01b0360005416331461268e565b6001600160a01b03166000818152600460205260409020600301546107f19060ff16612c50565b8060005260046020526108076040600020612856565b80600052600a6020526040600020600160ff19825416179055604051428152817f423eb00b6a18c3ecfc2170a0e40ef0bad995279070614ba2e4be1b94f67eb88860203393a36000805160206157dc833981519152600080a2005b346102605760203660031901126102605761087b6123c8565b61089060018060a01b0360005416331461268e565b6001600160a01b03166000818152600a602052604090205460ff166108dd5780600052600a6020526040600020600160ff198254161790556000805160206157dc833981519152600080a2005b60405162461bcd60e51b8152602060048201526015602482015274105b1c9958591e4818481c185c9d1a58da5c185b9d605a1b6044820152606490fd5b34610260576000366003190112610260576020600154604051908152f35b34610260576020366003190112610260576004356001600160401b03811161026057610968903690600401612340565b61097960ff60005460a01c166126ef565b61098581511515612733565b80516001600160401b03811161037c576109a0600354612428565b601f8111610a5b575b50602091601f82116001146109f7576109cc92600091836109ec575b5050612795565b6003555b60405142815260008051602061577c83398151915260203392a2005b0151905083806109c5565b601f198216926003600052806000209160005b858110610a4357508360019510610a2a575b505050811b016003556109d0565b015160001960f88460031b161c19169055828080610a1c565b91926020600181928685015181550194019201610a0a565b6003600052610a939060008051602061575c833981519152601f840160051c81019160208510610a99575b601f0160051c019061277e565b826109a9565b9091508190610a86565b3461026057600036600319011261026057600054610acb336001600160a01b0383161461268e565b60ff8160a01c16610b1c5760ff60a01b1916600160a01b1760005542600281905560405190815233907fb351ba71ddc1d2bf39667cebde99fb92eb26b9f418d5049ba0200888ba81071590602090a2005b60405162461bcd60e51b815260206004820152601960248201527850726f6a65637420697320616c72656164792061637469766560381b6044820152606490fd5b34610260576000366003190112610260576008546001600160a01b0316151580610b8f575b6020906040519015158152f35b506009546001600160a01b03161515610b82565b34610260576000366003190112610260576008546040516001600160a01b039091168152602090f35b3461026057610bda3661264c565b90610bf660ff60005461029560018060a01b038216331461268e565b6001600160a01b0316908115610c3857610c3381610c2560008051602061579c833981519152935115156129b8565b604051918291429083612956565b0390a2005b60405162461bcd60e51b815260206004820152600f60248201526e496e76616c6964206164647265737360881b6044820152606490fd5b3461026057600036600319011261026057600054610c97336001600160a01b0383161461268e565b60ff8160a01c1615610cdf5760ff60a01b1916600055426002556040514281527f17064d72ee4a5901e55dfa45024ea8f67cdb4895ba6364ab2f8e7223f642ad3660203392a2005b60405162461bcd60e51b815260206004820152601b60248201527a50726f6a65637420697320616c726561647920696e61637469766560281b6044820152606490fd5b346102605760203660031901126102605760043560075481101561026057610d4b6020916125dc565b905460405160039290921b1c6001600160a01b03168152f35b3461026057602036600319011261026057610d7d6123c8565b610d9260018060a01b0360005416331461268e565b6001600160a01b0316600081815260046020526040902060030154610db99060ff16612c50565b806000526004602052610dcf6040600020612856565b604051904282527f1a69e67d1be897d0ca0cf1517b4d17e345b4272a80bc900f9fe8e96f261ca1db60203393a3005b3461026057600036600319011261026057610e2460018060a01b0360005416331461268e565b6008546001600160a01b03161580610f5f575b610e4090612c04565b60408051610e4e8282612302565b600f81526e73696d706c655f6d616a6f7269747960881b6020820152815190611854808301906001600160401b0382118483101761037c5784610ea98594610e1093612c9b8739308552606060208601526060850190612387565b92015203906000f08015610f5457600880546001600160a01b0319166001600160a01b0392909216919091179055805161124d808201906001600160401b0382118383101761037c5760209183916144ef83393081520301906000f08015610f5457600980546001600160a01b0319166001600160a01b0392831690811790915542600255600854925160008051602061573c83398151915293909283926105fa929091168361293c565b50513d6000823e3d90fd5b506009546001600160a01b031615610e37565b34610260576020366003190112610260576004356001600160401b038111610260576000610fa581923690600401612340565b610fb960018060a01b03835416331461268e565b6008546001600160a01b031690610fd1821515612972565b8260405161100a81610ffc602082019563a672601d60e01b8752602060248401526044830190612387565b03601f198101835282612302565b51925af16110166128c2565b501561101e57005b60405162461bcd60e51b815260206004820152601c60248201527b2330b4b632b2103a379032b732103b37ba34b7339039b2b9b9b4b7b760211b6044820152606490fd5b346102605760003660031901126102605761049b61107e612462565b604051918291602083526020830190612387565b34610260576000366003190112610260576007546000805b82811061114d57506110bb90612bbe565b906000805b8281106110dd576040516020808252819061049b9082018761260f565b6110e6816125dc565b9054600391821b1c6001600160a01b03166000908152600560205260409020015460ff16611117575b6001016110c0565b90611145600191611127846125dc565b848060a01b0391549060031b1c1661113f8288612bf0565b52612baf565b91905061110f565b611156816125dc565b9054600391821b1c6001600160a01b03166000908152600560205260409020015460ff16611187575b6001016110aa565b90611193600191612baf565b91905061117f565b34610260576040366003190112610260576004356001600160401b03811161026057366023820112156102605780600401356111d681612411565b916111e46040519384612302565b8183526024602084019260051b8201019036821161026057602401915b81831061136e57602435846001600160401b03821161026057366023830112156102605781600401359161123483612411565b906112426040519283612302565b838252602082016024819560051b8301019136831161026057602401905b82821061135e5750505061127f60018060a01b0360005416331461268e565b6008546001600160a01b031692611297841515612972565b6040519160206112bf81850195631d70957f60e21b875260406024870152606486019061260f565b84810360231901604486015291518083529101919060005b81811061134857600080888882896112f8818b03601f198101835282612302565b51925af16113046128c2565b501561130c57005b60405162461bcd60e51b81526020600482015260146024820152734661696c656420746f2073657420766f7465727360601b6044820152606490fd5b82518452602093840193909201916001016112d7565b8135815260209182019101611260565b82356001600160a01b038116810361026057815260209283019201611201565b34610260576020366003190112610260576001600160a01b036113af6123c8565b16600052600a602052602060ff604060002054166040519015158152f35b346102605760a0366003190112610260576004356001600160401b038111610260576113fd903690600401612340565b6024356001600160401b0381116102605761141c903690600401612340565b906044356001600160401b0381116102605761143c903690600401612340565b6064356001600160401b0381116102605761145b903690600401612340565b608435939091906001600160401b03851161026057611481611487953690600401612340565b936127ee565b005b34610260576000366003190112610260576020600b54604051908152f35b34610260576000366003190112610260576006546000805b82811061154457506114d090612bbe565b906000805b8281106114f2576040516020808252819061049b9082018761260f565b6114fb816125ab565b9054600391821b1c6001600160a01b03166000908152600460205260409020015460ff1661152c575b6001016114d5565b9061153c600191611127846125ab565b919050611524565b61154d816125ab565b9054600391821b1c6001600160a01b03166000908152600460205260409020015460ff1661157e575b6001016114bf565b9061158a600191612baf565b919050611576565b346102605760003660031901126102605760206115ad612b39565b6040519015158152f35b346102605760403660031901126102605761148760018060a01b0360005416331461268e565b34610260576020366003190112610260576004356001600160401b0381116102605761160d903690600401612340565b60005461161f60ff8260a01c166126ef565b6001600160a01b0316331461173a5733600052600460205260ff600360406000200154166116f757611653815115156129b8565b61168b604051611662816122e7565b3381528260208201524260408201526001606082015233600052600460205260406000206129fb565b600654600160401b81101561037c578060016116ac920160065560066125f7565b81549060031b9033821b9160018060a01b03901b19161790557fe4d6c018abd0178d4bce0856089ef1876318617b97a1d700bb98506598ab0afc60405180610c333394429083612956565b60405162461bcd60e51b815260206004820152601b60248201527a4a6f696e207265717565737420616c72656164792065786973747360281b6044820152606490fd5b60405162461bcd60e51b815260206004820152602a60248201527f50726f6a6563742063726561746f722063616e6e6f74207375626d6974206a6f6044820152691a5b881c995c5d595cdd60b21b6064820152608490fd5b34610260576020366003190112610260576004356001600160401b0381116102605760006117c581923690600401612340565b6117d960018060a01b03835416331461268e565b6008546001600160a01b0316906117f1821515612972565b8260405161181c81610ffc602082019563764926db60e01b8752602060248401526044830190612387565b51925af16118286128c2565b501561183057005b60405162461bcd60e51b815260206004820152601e60248201527f4661696c656420746f20737461727420766f74696e672073657373696f6e00006044820152606490fd5b346102605760003660031901126102605761189760ff60005460a01c166126ef565b3360005260056020526118b460ff6003604060002001541661280e565b33600052600560205260206118cc60406000206127a8565b33600052600582526118e16040600020612856565b60405142815230907f7b7404d30440087c51e068aac60d434f5a3a121313c035893fdf187c11d077b6843392a3015160008051602061579c83398151915260405180610c333394429083612956565b346102605760203660031901126102605760043560065481101561026057610d4b6020916125ab565b3461026057600036600319011261026057604060015460025482519182526020820152f35b34610260576020366003190112610260576001600160a01b0361199f6123c8565b16600090815260056020526040902080546001600160a01b031661049b61048060018401612509565b34610260576040366003190112610260576119e16123c8565b6024356001600160a01b0381169182820361026057611a0b60018060a01b0360005416331461268e565b6001600160a01b0381169283151580611ad5575b15611a9c576008547fc88cdca9f466e28f0dde9f13a5462d887fe2998e1847d57f410da2699ff6079d94611a5c6001600160a01b038316156128f2565b60095491611a736001600160a01b038416156128f2565b6001600160a01b03199081169190911760085516176009556040519182916105fa91908361293c565b60405162461bcd60e51b8152602060048201526011602482015270496e76616c69642061646472657373657360781b6044820152606490fd5b50801515611a1f565b34610260576020366003190112610260576004356001600160401b03811161026057611b0e903690600401612340565b600054611b2c9060ff90610295336001600160a01b0383161461268e565b600b54906001820180921161074a57817fbb4ba47257d82c025e976bcdc375cc2e26de94efd111bca20cbc9a330d29745592600b55426002556000805160206157bc8339815191526020604051838152a1611b996040519283928352606060208401526060830190612387565b4260408301520390a1005b346102605760a0366003190112610260576004356001600160401b03811161026057611bd4903690600401612340565b6024356001600160401b03811161026057611bf3903690600401612340565b906064356001600160401b03811161026057611c13903690600401612340565b916084356001600160401b03811161026057611c33903690600401612340565b91611c4960018060a01b0360005416331461268e565b6009546001600160a01b0316918215611d2e57611cab611cd760009692610ffc8897611cc58996604051968795611c99602088019b633fa9696760e01b8d5260a060248a015260c4890190612387565b87810360231901604489015290612387565b604435606487015285810360231901608487015290612387565b8381036023190160a485015290612387565b51925af1611ce36128c2565b5015611ceb57005b60405162461bcd60e51b815260206004820152601b60248201527a11985a5b1959081d1bc81cdd1bdc9948199a5b985b081b1858995b602a1b6044820152606490fd5b60405162461bcd60e51b815260206004820152601860248201527714dd1bdc9859d94818dbdb9d1c9858dd081b9bdd081cd95d60421b6044820152606490fd5b34610260576020366003190112610260576001600160a01b03611d8f6123c8565b166000526004602052611da560406000206127a8565b60018060a01b0381511661049b60208301519260606040820151910151151590604051948594856123de565b3461026057600036600319011261026057336000526005602052611dff60ff6003604060002001541661280e565b336000526005602052611e156040600020612856565b60405142815230907ff7bcbaa371c3a472d8f63f253317d896d63bf307f5e8e913f8eeb9351bc0d4c660203392a3005b346102605760a0366003190112610260576004356001600160401b03811161026057611e75903690600401612340565b6024356001600160401b03811161026057611e94903690600401612340565b608435906001600160401b038211610260573660238301121561026057816004013592611ec084612411565b92611ece6040519485612302565b8484526024602085019560051b820101903682116102605760248101955b828710611f04576114878660643560443588886127ee565b86356001600160401b03811161026057602091611f28839260243691870101612340565b815201960195611eec565b34610260576020366003190112610260576001600160a01b03611f546123c8565b166000526005602052611da560406000206127a8565b34610260576000366003190112610260576000546040516020916001600160a01b031690611f988382612302565b600080825260405192611fab8585612302565b81845260405190611fbc8683612302565b828252604051611fcc8782612302565b838152604051611fdc8882612302565b84815260405191611fed8984612302565b85835260405193611ffe8a86612302565b8685526040519561200f8b88612302565b878752604051996101a08b526101a08b0161202991612387565b8a81038c8c015261203991612387565b9060408a015288810360608a015261205091612387565b878103608089015261206191612387565b86810360a088015261207291612387565b8360c08701528360e087015285810361010087015261209091612387565b8481036101208601526120a291612387565b93816101408501528161016085015283850361018085015282519081865280860181808460051b890101950193965b8388106120de5786860387f35b909192939483806120fb600193601f198682030187528951612387565b9701930197019690939291936120d1565b34610260576000366003190112610260576009546040516001600160a01b039091168152602090f35b34610260576020366003190112610260576004356001600160401b03811161026057612165903690600401612340565b6000546121839060ff90610295336001600160a01b0383161461268e565b61218f81511515612733565b80516001600160401b03811161037c576121aa600354612428565b601f811161225d575b50602091601f82116001146121f9576121d592600091836109ec575050612795565b6003555b4260025560405142815260008051602061577c83398151915260203392a2005b601f198216926003600052806000209160005b8581106122455750836001951061222c575b505050811b016003556121d9565b015160001960f88460031b161c1916905582808061221e565b9192602060018192868501518155019401920161220c565b60036000526122949060008051602061575c833981519152601f840160051c81019160208510610a9957601f0160051c019061277e565b826121b3565b34610260576000366003190112610260576000546040516001600160a01b039091168152602090f35b34610260576000366003190112610260576000546001600160a01b03168152602090f35b608081019081106001600160401b0382111761037c57604052565b601f909101601f19168101906001600160401b0382119082101761037c57604052565b6001600160401b03811161037c57601f01601f191660200190565b81601f820112156102605780359061235782612325565b926123656040519485612302565b8284526020838301011161026057816000926020809301838601378301015290565b919082519283825260005b8481106123b3575050826000602080949584010152601f8019910116010190565b80602080928401015182828601015201612392565b600435906001600160a01b038216820361026057565b929493906060926124049160018060a01b03168552608060208601526080850190612387565b9460408401521515910152565b6001600160401b03811161037c5760051b60200190565b90600182811c92168015612458575b602083101461244257565b634e487b7160e01b600052602260045260246000fd5b91607f1691612437565b604051906000826003549161247683612428565b80835292600181169081156124ea575060011461249c575b61249a92500383612302565b565b5060036000908152909160008051602061575c8339815191525b8183106124ce57505090602061249a9282010161248e565b60209193508060019154838589010152019101909184926124b6565b6020925061249a94915060ff191682840152151560051b82010161248e565b906040519182600082549261251d84612428565b80845293600181169081156125895750600114612542575b5061249a92500383612302565b90506000929192526020600020906000915b81831061256d57505090602061249a9282010138612535565b6020919350806001915483858901015201910190918492612554565b90506020925061249a94915060ff191682840152151560051b82010138612535565b6006548110156125c657600660005260206000200190600090565b634e487b7160e01b600052603260045260246000fd5b6007548110156125c657600760005260206000200190600090565b80548210156125c65760005260206000200190600090565b906020808351928381520192019060005b81811061262d5750505090565b82516001600160a01b0316845260209384019390920191600101612620565b906040600319830112610260576004356001600160a01b03811681036102605791602435906001600160401b0382116102605761268b91600401612340565b90565b1561269557565b60405162461bcd60e51b815260206004820152602c60248201527f4f6e6c792070726f6a6563742063726561746f722063616e20706572666f726d60448201526b103a3434b99030b1ba34b7b760a11b6064820152608490fd5b156126f657565b60405162461bcd60e51b815260206004820152601560248201527450726f6a656374206973206e6f742061637469766560581b6044820152606490fd5b1561273a57565b60405162461bcd60e51b815260206004820152601c60248201527b50726f6a65637420646174612063616e6e6f7420626520656d70747960201b6044820152606490fd5b818110612789575050565b6000815560010161277e565b8160011b916000199060031b1c19161790565b906040516127b5816122e7565b606060ff6003839560018060a01b0381541685526127d560018201612509565b6020860152600281015460408601520154161515910152565b505050505061280860018060a01b0360005416331461268e565b42600255565b1561281557565b60405162461bcd60e51b8152602060048201526019602482015278125b9d9a5d185d1a5bdb88191bd95cc81b9bdd08195e1a5cdd603a1b6044820152606490fd5b60036000918281556001810161286c8154612428565b908161287f575b50508260028201550155565b81601f8693116001146128965750555b3880612873565b818352602083206128b291601f0160051c81019060010161277e565b808252816020812091555561288f565b3d156128ed573d906128d382612325565b916128e16040519384612302565b82523d6000602084013e565b606090565b156128f957565b60405162461bcd60e51b815260206004820152601b60248201527a10530818dbdb9d1c9858dd1cc8185b1c9958591e481b1a5b9ad959602a1b6044820152606490fd5b6001600160a01b0391821681529116602082015260400190565b92919061296d602091604086526040860190612387565b930152565b1561297957565b60405162461bcd60e51b8152602060048201526017602482015276159bdd1a5b99c818dbdb9d1c9858dd081b9bdd081cd95d604a1b6044820152606490fd5b156129bf57565b60405162461bcd60e51b8152602060048201526014602482015273526f6c652063616e6e6f7420626520656d70747960601b6044820152606490fd5b815181546001600160a01b0319166001600160a01b03919091161781556020820151805160018301916001600160401b03821161037c57612a3c8354612428565b601f8111612b07575b50602090601f8311600114612a9b57826060959360039593612a6f93600092612a90575050612795565b90555b6040840151600282015501910151151560ff80198354169116179055565b0151905038806109c5565b90601f1983169184600052816000209260005b818110612aef5750926001928592606098966003989610612ad7575b505050811b019055612a72565b015160001983881b60f8161c19169055388080612aca565b92936020600181928786015181550195019301612aae565b612b3390846000526020600020601f850160051c81019160208610610a9957601f0160051c019061277e565b38612a45565b6040516361d25a0d60e11b8152602081600481305afa9081156105ff57600091612b6d575b50612b6857600090565b600090565b6020813d602011612ba7575b81612b8660209383612302565b81010312612ba35751908115158203612ba0575038612b5e565b80fd5b5080fd5b3d9150612b79565b600019811461074a5760010190565b90612bc882612411565b612bd56040519182612302565b8281528092612be6601f1991612411565b0190602036910137565b80518210156125c65760209160051b010190565b15612c0b57565b60405162461bcd60e51b815260206004820152601d60248201527f414c20636f6e74726163747320616c7265616479206465706c6f7965640000006044820152606490fd5b15612c5757565b60405162461bcd60e51b815260206004820152601b60248201527a129bda5b881c995c5d595cdd08191bd95cc81b9bdd08195e1a5cdd602a1b6044820152606490fdfe60806040523461029757611854803803806100198161029c565b9283398101906060818303126102975780516001600160a01b03811691908290036102975760208101516001600160401b03811161029757810183601f82011215610297578051906001600160401b03821161023557610082601f8301601f191660200161029c565b94828652602083830101116102975760005b82811061028257505060009084016020015260400151603360015590801561024b57600080546001600160a01b03191691909117905581516001600160401b03811161023557600354600181811c9116801561022b575b602082101461021557601f81116101b0575b50602092601f821160011461014b5792819293600092610140575b50508160011b916000199060031b1c1916176003555b60025560405161159290816102c28239f35b015190503880610118565b601f198216936003600052806000209160005b868110610198575083600195961061017f575b505050811b0160035561012e565b015160001960f88460031b161c19169055388080610171565b9192602060018192868501518155019401920161015e565b60036000527fc2575a0e9e593c00f959f8c92f12db2869c3395a3b0502d05e2516446f71f85b601f830160051c8101916020841061020b575b601f0160051c01905b8181106101ff57506100fd565b600081556001016101f2565b90915081906101e9565b634e487b7160e01b600052602260045260246000fd5b90607f16906100eb565b634e487b7160e01b600052604160045260246000fd5b60405162461bcd60e51b815260206004820152600f60248201526e496e76616c6964206164647265737360881b6044820152606490fd5b80602080928401015182828901015201610094565b600080fd5b6040519190601f01601f191682016001600160401b038111838210176102355760405256fe6080604052600436101561001257600080fd5b60003560e01c806304574fe81461105e5780634149738514610fd0578063414f8e7614610f9257806350e2e8af14610f5057806355d389a414610e6b5780635c95617e146109f65780636042ad611461093a578063697cfa401461091157806375c255fc1461063a578063764926db14610501578063805265e51461038e578063a58df19a14610370578063a672601d1461029a578063b28d92ae1461015a578063f18a5cec146100ef5763f9b0b5b9146100cc57600080fd5b346100ea5760003660031901126100ea576020600154604051908152f35b600080fd5b346100ea5760203660031901126100ea576004356001600160401b0381116100ea5761013860206101266040933690600401611108565b8184519382858094519384920161126d565b8101600781520301902060ff6001825492015416825191825215156020820152f35b346100ea5760003660031901126100ea57600554610177816112d1565b9061018560405192836110e5565b808252601f19610194826112d1565b0160005b81811061027557505060005b818110610206578260405180916020820160208352815180915260206040840192019060005b8181106101d8575050500390f35b825180516001600160a01b0316855260209081015181860152869550604090940193909201916001016101ca565b8061021260019261115e565b838060a01b0391549060031b1c166102298261115e565b848060a01b0391549060031b1c16600052600460205260406000205460405191610252836110ca565b8252602082015261026382866113b3565b5261026e81856113b3565b50016101a4565b602090604051610284816110ca565b6000815260008382015282828701015201610198565b346100ea5760203660031901126100ea576004356001600160401b0381116100ea5761036b6102ee7f8a0cc662156da5580404150064cc81955de64ef5a8090364795edcbac8429991923690600401611108565b61030360018060a01b0360005416331461136a565b600161034a602060405161033960ff858751938581818b019661032781838a61126d565b810160078152030190200154166112e8565b60405180938192875192839161126d565b810160078152030190200160ff1981541690556040519182914290836113c7565b0390a1005b346100ea5760003660031901126100ea576020600254604051908152f35b346100ea5760203660031901126100ea576004356001600160401b0381116100ea5760206103c36103d6923690600401611108565b816040519382858094519384920161126d565b810160068152030190208054906103ec826112d1565b916103fa60405193846110e5565b80835260208301809260005260206000206000915b8383106104ad57848660405191829160208301906020845251809152604083019060408160051b85010192916000905b82821061044e57505050500390f35b919360019193955060208091603f19898203018552875190848060a01b03825116815260608061048b858501516080878601526080850190611290565b936040810151151560408501520151910152960192019201859493919261043f565b600460206001926040516104c0816110af565b848060a01b0386541681526104d68587016111c9565b8382015260ff600287015416151560408201526003860154606082015281520192019201919061040f565b346100ea5760203660031901126100ea576004356001600160401b0381116100ea57610531903690600401611108565b61054660018060a01b0360005416331461136a565b60405160ff60018351926020818187019561056281838961126d565b810160078152030190200154166105f5577f1a6063ea5a85373503082e9047ebbde10c2ef86a0029b81921668e4a2ea190e39160016105d1602061036b9460405185516105b081838561126d565b8101906007825283814293030190205560405180938192875192839161126d565b8101600781520301902001600160ff198254161790556040519182914290836113c7565b60405162461bcd60e51b815260206004820152601d60248201527f566f74696e672073657373696f6e20616c7265616479206163746976650000006044820152606490fd5b346100ea5760403660031901126100ea576004356001600160401b0381116100ea57366023820112156100ea578060040135610675816112d1565b9161068360405193846110e5565b8183526024602084019260051b820101903682116100ea57602401915b8183106108f157602435846001600160401b0382116100ea57366023830112156100ea578160040135916106d3836112d1565b926106e160405194856110e5565b8084526024602085019160051b830101913683116100ea57602401905b8282106108e15750505061071d60018060a01b0360005416331461136a565b80518251036108a75760005b600554811015610762578061073f60019261115e565b838060a01b0391549060031b1c1660005260046020526000604081205501610729565b5060055460006005558061086e575b5060005b815181101561086c5761078881846113b3565b51156108275761079881846113b3565b516001600160a01b036107ab83856113b3565b51166000908152600460205260409020556001600160a01b036107ce82846113b3565b51600554929116600160401b831015610811576107f283600180950160055561115e565b819291549060031b91821b91858060a01b03901b191617905501610775565b634e487b7160e01b600052604160045260246000fd5b60405162461bcd60e51b815260206004820152601d60248201527f576569676874206d7573742062652067726561746572207468616e20300000006044820152606490fd5b005b60056000526108a1907f036b6384b5eca791c62761152d0c79bb0604c104a5fb6f4eb0703f3154bb3db090810190611353565b82610771565b60405162461bcd60e51b81526020600482015260126024820152714d69736d617463686564206c656e6774687360701b6044820152606490fd5b81358152602091820191016106fe565b82356001600160a01b03811681036100ea578152602092830192016106a0565b346100ea5760003660031901126100ea576000546040516001600160a01b039091168152602090f35b346100ea5760403660031901126100ea576004356001600160401b0381116100ea5761096a903690600401611108565b610986602060243592816040519382858094519384920161126d565b810160068152030190209081548110156100ea576109a3916112b5565b5080546001600160a01b03166109bb600183016111c9565b91600360ff6002830154169101546109e56040519485948552608060208601526080850190611290565b911515604084015260608301520390f35b346100ea5760603660031901126100ea576004356001600160401b0381116100ea57610a26903690600401611108565b6024356001600160401b0381116100ea57610a45903690600401611108565b6044358015158091036100ea5733600052600460205260406000205415610e2d57604051610a8560ff6001865193602081818a019661032781838a61126d565b60026040516020818751610a9a81838861126d565b6007908201908152030190203360009081529101602052604090205460ff16610df85760025480610d88575b506040516020818651610ada81838761126d565b8101600681520301902060405190610af1826110af565b33825260208201858152604083019085825260608401924284528054600160401b81101561081157610b28916001820181556112b5565b949094610d72575184546001600160a01b0319166001600160a01b039190911617845551805160018501916001600160401b03821161081157610b6b835461118f565b601f8111610d35575b50602090601f8311600114610cc15793610bd99693836003946020989460029b98600092610cb6575b50508160011b9160001990871b1c19161790555b8784019051151560ff801983541691161790555191015560405180938192895192839161126d565b810160078152030190200160018060a01b0333166000526020526040600020600160ff198254161790557f2579d0860b48f37c239a6db657bad6560c277bbce0a8a989d70227407fc62e0660405160808152610c49610c3b6080830187611290565b828103602084015285611290565b9260408201524260608201528033930390a2610c6581836113e3565b610c6b57005b7f0cc62c8b09788a11d11e96187c34c67fad5e9651cadc6ace24e1518490bed9819161036b610ca892604051938493604085526040850190611290565b908382036020850152611290565b015190508e80610b9d565b90601f1983169184600052816000209260005b818110610d1d5750846020989460029b9894610bd99b989460039860019510610d05575b505050811b019055610bb1565b015160001983891b60f8161c191690558e8080610cf8565b92936020600181928786015181550195019301610cd4565b610d6290846000526020600020601f850160051c81019160208610610d68575b601f0160051c0190611353565b8a610b74565b9091508190610d55565b634e487b7160e01b600052600060045260246000fd5b610daf906040516020818851610d9f81838961126d565b8101600781520301902054611330565b4211610dbb5784610ac6565b60405162461bcd60e51b8152602060048201526015602482015274159bdd1a5b99c81c195c9a5bd908195e1c1a5c9959605a1b6044820152606490fd5b60405162461bcd60e51b815260206004820152600d60248201526c105b1c9958591e481d9bdd1959609a1b6044820152606490fd5b60405162461bcd60e51b81526020600482015260166024820152752737ba1030903932b3b4b9ba32b932b2103b37ba32b960511b6044820152606490fd5b346100ea5760003660031901126100ea576040516000600354610e8d8161118f565b8084529060018116908115610f2c5750600114610ecd575b610ec983610eb5818503826110e5565b604051918291602083526020830190611290565b0390f35b600360009081527fc2575a0e9e593c00f959f8c92f12db2869c3395a3b0502d05e2516446f71f85b939250905b808210610f1257509091508101602001610eb5610ea5565b919260018160209254838588010152019101909291610efa565b60ff191660208086019190915291151560051b84019091019150610eb59050610ea5565b346100ea5760203660031901126100ea576004356005548110156100ea57610f7960209161115e565b905460405160039290921b1c6001600160a01b03168152f35b346100ea5760203660031901126100ea576004356001600160a01b038116908190036100ea5760005260046020526020604060002054604051908152f35b346100ea5760403660031901126100ea576004356001600160401b0381116100ea57611000903690600401611108565b602435906001600160a01b03821682036100ea5761102f6020600292816040519382858094519384920161126d565b81016007815203019020019060018060a01b0316600052602052602060ff604060002054166040519015158152f35b346100ea5760203660031901126100ea576004356001600160401b0381116100ea5760ff600161109860206103c381953690600401611108565b810160078152030190200154166040519015158152f35b608081019081106001600160401b0382111761081157604052565b604081019081106001600160401b0382111761081157604052565b601f909101601f19168101906001600160401b0382119082101761081157604052565b81601f820112156100ea578035906001600160401b038211610811576040519261113c601f8401601f1916602001856110e5565b828452602083830101116100ea57816000926020809301838601378301015290565b60055481101561117957600560005260206000200190600090565b634e487b7160e01b600052603260045260246000fd5b90600182811c921680156111bf575b60208310146111a957565b634e487b7160e01b600052602260045260246000fd5b91607f169161119e565b90604051918260008254926111dd8461118f565b808452936001811690811561124b5750600114611204575b50611202925003836110e5565b565b90506000929192526020600020906000915b81831061122f57505090602061120292820101386111f5565b6020919350806001915483858901015201910190918492611216565b90506020925061120294915060ff191682840152151560051b820101386111f5565b60005b8381106112805750506000910152565b8181015183820152602001611270565b906020916112a98151809281855285808601910161126d565b601f01601f1916010190565b80548210156111795760005260206000209060021b0190600090565b6001600160401b0381116108115760051b60200190565b156112ef57565b60405162461bcd60e51b8152602060048201526019602482015278566f74696e672073657373696f6e206e6f742061637469766560381b6044820152606490fd5b9190820180921161133d57565b634e487b7160e01b600052601160045260246000fd5b81811061135e575050565b60008155600101611353565b1561137157565b60405162461bcd60e51b815260206004820152601a60248201527913db9b1e481b585a5b881c1c9bda9958dd0818d85b8818d85b1b60321b6044820152606490fd5b80518210156111795760209160051b010190565b9291906113de602091604086526040860190611290565b930152565b60206113ff91939293816040519382858094519384920161126d565b81016006815203019020918254611415816112d1565b9361142360405195866110e5565b818552602085019060005260206000206000915b838310611508575050505060008091815b85518110156114d857602061145d82886113b3565b51015160208151910120825160208401201461147c575b600101611448565b6001600160a01b0361148e82886113b3565b51511660005260046020526114a96040600020548094611330565b9260406114b683896113b3565b5101516114c4575b50611474565b6114d19060019295611330565b93906114be565b50509091925080156115015760648202918083046064149015171561133d576001549104101590565b5050600090565b6004602060019260405161151b816110af565b848060a01b0386541681526115318587016111c9565b8382015260ff600287015416151560408201526003860154606082015281520192019201919061143756fea26469706673582212203af503c897ff1194837f857024cb018b33562b5247218970c6c84b3419ffc19d64736f6c634300081c003360803460ba57601f61124d38819003918201601f19168301916001600160401b0383118484101760bf5780849260209460405283398101031260ba57516001600160a01b0381169081900360ba578015607557600080546001600160a01b03191691909117905560405161117790816100d68239f35b60405162461bcd60e51b815260206004820152601760248201527f496e76616c69642070726f6a65637420616464726573730000000000000000006044820152606490fd5b600080fd5b634e487b7160e01b600052604160045260246000fdfe6080604052600436101561001257600080fd5b60003560e01c80633ae9437914610c1b5780633fa96967146109cd578063428f8338146108d65780634fe8933714610875578063697cfa401461084c5780637a2e9f0f146106cb57806387b17355146106825780638b31dad01461030e578063c2e750e614610229578063df21abfa146101a65763f6e677861461009557600080fd5b346101a15760203660031901126101a1576004356001600160401b0381116101a15760206100ca6100dd923690600401610d46565b8160405193828580945193849201610d9c565b810160028152030190208054906100f382610f46565b916101016040519384610d23565b80835260208301809260005260206000206000915b83831061018457848660405191829160208301906020845251809152604083019060408160051b85010192916000905b82821061015557505050500390f35b919360019193955060206101748192603f198a82030186528851610e9d565b9601920192018594939192610146565b60016020819261019385610df9565b815201920192019190610116565b600080fd5b346101a15760206101ce6101b936610ec2565b92908160405193828580945193849201610d9c565b810160028152030190209081548110156101a1576101eb91610f5d565b610213576101fb61020f91610df9565b604051918291602083526020830190610e9d565b0390f35b634e487b7160e01b600052600060045260246000fd5b346101a15761023736610ec2565b6040518251906020818186019361024f818387610d9c565b81016003815203019020548210156102d357602061027c9161028b94604051938492839251928391610d9c565b81016003815203019020610ef3565b50600181015460038201546102a7600260048501549401610df9565b926102c46040519485948552608060208601526080850190610e9d565b91604084015260608301520390f35b60405162461bcd60e51b8152602060048201526013602482015272496e646578206f7574206f6620626f756e647360681b6044820152606490fd5b346101a15760a03660031901126101a1576004356001600160401b0381116101a15761033e903690600401610d46565b602435906044356001600160401b0381116101a157610361903690600401610d46565b6064356001600160401b0381116101a157366023820112156101a157806004013561038b81610f46565b916103996040519384610d23565b8183526024602084019260051b820101903682116101a157602401915b8183106106625750506084359490506001600160401b0385116101a157366023860112156101a15784600401356103ec81610f46565b956103fa6040519788610d23565b8187526024602088019260051b820101903682116101a15760248101925b828410610633575050505061043860018060a01b03600054163314610f75565b81518551036105fc5761044d84511515610fbe565b60405184519060208181880193610465818387610d9c565b810160038152030190208054600160401b8110156105965761048c91600182018155610ef3565b505060405160208187516104a1818387610d9c565b810160038152030190205460001981019081116105e65761027c60206104d593604098979851809381928a51928391610d9c565b50926104e18185611006565b8160018501556104f48560028601611006565b426003850155600460009401935b83518110156105ac576001600160a01b0361051d828661112d565b51169061052a818961112d565b516040519261053884610d08565b8352602083019081528654600160401b8110156105965780600161055f9201895588611111565b61021357925183546001600160a01b0319166001600160a01b03919091161783555160019261059091908401611006565b01610502565b634e487b7160e01b600052604160045260246000fd5b506105e1857fb74589472dd4252ab2cbc69b30cc7fb08c8bf28c11827e66c6e6a7cbe59ec27194519060405194859485610f25565b0390a1005b634e487b7160e01b600052601160045260246000fd5b60405162461bcd60e51b815260206004820152600f60248201526e098cadccee8d040dad2e6dac2e8c6d608b1b6044820152606490fd5b83356001600160401b0381116101a157602091610657839260243691870101610d46565b815201930192610418565b82356001600160a01b03811681036101a1578152602092830192016103b6565b346101a15760203660031901126101a1576004356001600160401b0381116101a1576106b860206100ca81933690600401610d46565b8101600381520301902054604051908152f35b346101a15760603660031901126101a1576004356001600160401b0381116101a1576106fb903690600401610d46565b60405181516024359260443592602080830193829061071b818388610d9c565b810160038152030190205484101561080957600461074685604051602081865161027c81838b610d9c565b5001548310156107c9576107789361027c602060049461077194604051938492839251928391610d9c565b5001611111565b5061079c60016040519261078b84610d08565b818060a01b03815416845201610df9565b9081602082015260018060a01b0390511661020f6040519283928352604060208401526040830190610e9d565b60405162461bcd60e51b8152602060048201526018602482015277566f746520696e646578206f7574206f6620626f756e647360401b6044820152606490fd5b60405162461bcd60e51b815260206004820152601b60248201527a486973746f727920696e646578206f7574206f6620626f756e647360281b6044820152606490fd5b346101a15760003660031901126101a1576000546040516001600160a01b039091168152602090f35b346101a15760206108886101b936610ec2565b810160038152030190209081548110156101a1576108a591610ef3565b506108af81610df9565b61020f60018301549260036108c660028301610df9565b9101549060405194859485610f25565b346101a15760203660031901126101a1576004356001600160401b0381116101a15761090e60206100ca6109a2933690600401610d46565b8101600181520301902060a06109c36040519261092a84610ced565b61093381610df9565b84526109b561094460018301610df9565b94602081019586526002830154956040820196875261096560038501610df9565b9160608101928352600561097b60048701610df9565b9586608084015201549687910152519551905160405197889760a0895260a0890190610e9d565b9160208801528682036040880152610e9d565b908482036060860152610e9d565b9060808301520390f35b346101a15760a03660031901126101a1576004356001600160401b0381116101a1576109fd903690600401610d46565b6024356001600160401b0381116101a157610a1c903690600401610d46565b604435916064356001600160401b0381116101a157610a3f903690600401610d46565b926084356001600160401b0381116101a157610a5f903690600401610d46565b93610a7560018060a01b03600054163314610f75565b610a8183511515610fbe565b835115610bde57604051610a9481610ced565b8381526020810191858352604082019084825260608301908152608083019088825260a0840192428452604051958851968060208b0198610ad681838c610d9c565b8101600181520360200190209551610aee9087611006565b51610afc9060018701611006565b51600285015551610b109060038501611006565b51610b1e9060048401611006565b51906005015560405180809285518092610b3792610d9c565b8101600281520360200190208054600160401b81101561059657610b6091600182018155610f5d565b9390936102135784610bbf610bcd92610b9d7ff84a42c8735c4bc780cc1f05f254f9e45ac5bae1e9bf577171cbe3e4963c128f98610bb198611006565b60405196879660a0885260a0880190610e9d565b908682036020880152610e9d565b908482036040860152610e9d565b9060608301524260808301520390a1005b60405162461bcd60e51b81526020600482015260156024820152744c6162656c2063616e6e6f7420626520656d70747960581b6044820152606490fd5b346101a15760203660031901126101a1576004356001600160401b0381116101a157610c5360206100ca610cb4933690600401610d46565b81016001815203019020610c6681610df9565b90610ce3610c7660018301610df9565b91610cd56002820154610c8b60038401610df9565b610cc26005610c9c60048701610df9565b95015496604051998a9960c08b5260c08b0190610e9d565b9089820360208b0152610e9d565b9160408801528682036060880152610e9d565b908482036080860152610e9d565b9060a08301520390f35b60c081019081106001600160401b0382111761059657604052565b604081019081106001600160401b0382111761059657604052565b601f909101601f19168101906001600160401b0382119082101761059657604052565b81601f820112156101a1578035906001600160401b0382116105965760405192610d7a601f8401601f191660200185610d23565b828452602083830101116101a157816000926020809301838601378301015290565b60005b838110610daf5750506000910152565b8181015183820152602001610d9f565b90600182811c92168015610def575b6020831014610dd957565b634e487b7160e01b600052602260045260246000fd5b91607f1691610dce565b9060405191826000825492610e0d84610dbf565b8084529360018116908115610e7b5750600114610e34575b50610e3292500383610d23565b565b90506000929192526020600020906000915b818310610e5f575050906020610e329282010138610e25565b6020919350806001915483858901015201910190918492610e46565b905060209250610e3294915060ff191682840152151560051b82010138610e25565b90602091610eb681518092818552858086019101610d9c565b601f01601f1916010190565b60406003198201126101a157600435906001600160401b0382116101a157610eec91600401610d46565b9060243590565b8054821015610f0f576000526005602060002091020190600090565b634e487b7160e01b600052603260045260246000fd5b949392916060926109a2610f4193608089526080890190610e9d565b930152565b6001600160401b0381116105965760051b60200190565b8054821015610f0f5760005260206000200190600090565b15610f7c57565b60405162461bcd60e51b815260206004820152601a60248201527913db9b1e481b585a5b881c1c9bda9958dd0818d85b8818d85b1b60321b6044820152606490fd5b15610fc557565b60405162461bcd60e51b815260206004820152601960248201527853616d706c652049442063616e6e6f7420626520656d70747960381b6044820152606490fd5b81519192916001600160401b038111610596576110238254610dbf565b601f81116110c9575b506020601f8211600114611067578192939460009261105c575b50508160011b916000199060031b1c1916179055565b015190503880611046565b601f1982169083600052806000209160005b8181106110b157509583600195969710611098575b505050811b019055565b015160001960f88460031b161c1916905538808061108e565b9192602060018192868b015181550194019201611079565b826000526020600020601f830160051c81019160208410611107575b601f0160051c01905b8181106110fb575061102c565b600081556001016110ee565b90915081906110e5565b8054821015610f0f5760005260206000209060011b0190600090565b8051821015610f0f5760209160051b01019056fea26469706673582212201e484c627663fb849f15bc7d6b63d3f76a2b6f2ef4aeb72f27fe761d3926a88764736f6c634300081c0033b009e24dd5f140ab58abb9e6f2187d998561150b7da958ebad23a90e26d7366bc2575a0e9e593c00f959f8c92f12db2869c3395a3b0502d05e2516446f71f85bc1756fd99ac9a2b1b22b5e701ddb022b897a002144d045b77ac35ce46610fef6ac4f9610b174640b0a902ce555faa384cc9c9d291750f76e476f26f97bd079b49aa934e5a98d12b60dabec0f34647f2b63b8fd257ba6480e7ded4cc1ef24c57331d3ac54da09405b02d1de0ee0de648de637fbdc111123be0d7fc31f2a544c0ba2646970667358221220ec45152e06072e9af1e5f809ab9a524576e482d5866098fba9e2795e6a6d1e1664736f6c634300081c0033036b6384b5eca791c62761152d0c79bb0604c104a5fb6f4eb0703f3154bb3db0f474a44bbf67e28a60e1e8977a0d7bdf30896d6b88b7c83710a32ad527611994c2575a0e9e593c00f959f8c92f12db2869c3395a3b0502d05e2516446f71f85ba264697066735822122052ac56087afc0f54e014a744a6ba1604d271e3166e34921aa732fea48b410aa764736f6c634300081c0033",
  "linkReferences": {},
  "deployedLinkReferences": {}
}