{
  "_format": "hh-sol-artifact-1",
  "contractName": "Project",
  "sourceName": "contracts/Project.sol",
  "abi": [
    {
      "inputs": [
        {
          "internalType": "address",
          "name": "_creator",
          "type": "address"
        },
        {
          "internalType": "string",
          "name": "_projectData",
          "type": "string"
        }
      ],
      "stateMutability": "nonpayable",
      "type": "constructor"
    },
    {
      "anonymous": false,
      "inputs": [
        {
          "indexed": false,
          "internalType": "uint256",
          "name": "round",
          "type": "uint256"
        },
        {
          "indexed": false,
          "internalType": "uint256",
          "name": "completedSamples",
          "type": "uint256"
        },
        {
          "indexed": false,
          "internalType": "uint256",
          "name": "timestamp",
          "type": "uint256"
        }
      ],
      "name": "ALBatchCompleted",
      "type": "event"
    },
    {
      "anonymous": false,
      "inputs": [
        {
          "indexed": false,
          "internalType": "uint256",
          "name": "round",
          "type": "uint256"
        },
        {
          "indexed": false,
          "internalType": "uint256",
          "name": "sampleCount",
          "type": "uint256"
        },
        {
          "indexed": false,
          "internalType": "uint256",
          "name": "timestamp",
          "type": "uint256"
        }
      ],
      "name": "ALBatchStarted",
      "type": "event"
    },
    {
      "anonymous": false,
      "inputs": [
        {
          "indexed": false,
          "internalType": "address",
          "name": "votingContract",
          "type": "address"
        },
        {
          "indexed": false,
          "internalType": "address",
          "name": "storageContract",
          "type": "address"
        }
      ],
      "name": "ALContractsDeployed",
      "type": "event"
    },
    {
      "anonymous": false,
      "inputs": [
        {
          "indexed": false,
          "internalType": "uint256",
          "name": "round",
          "type": "uint256"
        },
        {
          "indexed": false,
          "internalType": "string",
          "name": "reason",
          "type": "string"
        },
        {
          "indexed": false,
          "internalType": "uint256",
          "name": "timestamp",
          "type": "uint256"
        }
      ],
      "name": "ALRoundTriggered",
      "type": "event"
    },
    {
      "anonymous": false,
      "inputs": [
        {
          "indexed": false,
          "internalType": "string",
          "name": "sampleId",
          "type": "string"
        },
        {
          "indexed": false,
          "internalType": "string",
          "name": "label",
          "type": "string"
        },
        {
          "indexed": false,
          "internalType": "uint256",
          "name": "round",
          "type": "uint256"
        },
        {
          "indexed": false,
          "internalType": "uint256",
          "name": "timestamp",
          "type": "uint256"
        }
      ],
      "name": "AutoLabelStored",
      "type": "event"
    },
    {
      "anonymous": false,
      "inputs": [
        {
          "indexed": true,
          "internalType": "address",
          "name": "updater",
          "type": "address"
        },
        {
          "indexed": false,
          "internalType": "string",
          "name": "rocrateHashFinal",
          "type": "string"
        },
        {
          "indexed": false,
          "internalType": "uint256",
          "name": "timestamp",
          "type": "uint256"
        }
      ],
      "name": "FinalROCrateHashUpdated",
      "type": "event"
    },
    {
      "anonymous": false,
      "inputs": [
        {
          "indexed": true,
          "internalType": "address",
          "name": "invitee",
          "type": "address"
        },
        {
          "indexed": true,
          "internalType": "address",
          "name": "project",
          "type": "address"
        },
        {
          "indexed": false,
          "internalType": "uint256",
          "name": "timestamp",
          "type": "uint256"
        }
      ],
      "name": "InvitationAccepted",
      "type": "event"
    },
    {
      "anonymous": false,
      "inputs": [
        {
          "indexed": true,
          "internalType": "address",
          "name": "invitee",
          "type": "address"
        },
        {
          "indexed": true,
          "internalType": "address",
          "name": "project",
          "type": "address"
        },
        {
          "indexed": false,
          "internalType": "uint256",
          "name": "timestamp",
          "type": "uint256"
        }
      ],
      "name": "InvitationRejected",
      "type": "event"
    },
    {
      "anonymous": false,
      "inputs": [
        {
          "indexed": true,
          "internalType": "address",
          "name": "invitee",
          "type": "address"
        },
        {
          "indexed": true,
          "internalType": "address",
          "name": "inviter",
          "type": "address"
        },
        {
          "indexed": false,
          "internalType": "string",
          "name": "role",
          "type": "string"
        },
        {
          "indexed": false,
          "internalType": "uint256",
          "name": "timestamp",
          "type": "uint256"
        }
      ],
      "name": "InvitationSent",
      "type": "event"
    },
    {
      "anonymous": false,
      "inputs": [
        {
          "indexed": true,
          "internalType": "address",
          "name": "requester",
          "type": "address"
        },
        {
          "indexed": true,
          "internalType": "address",
          "name": "approver",
          "type": "address"
        },
        {
          "indexed": false,
          "internalType": "uint256",
          "name": "timestamp",
          "type": "uint256"
        }
      ],
      "name": "JoinRequestApproved",
      "type": "event"
    },
    {
      "anonymous": false,
      "inputs": [
        {
          "indexed": true,
          "internalType": "address",
          "name": "requester",
          "type": "address"
        },
        {
          "indexed": true,
          "internalType": "address",
          "name": "rejector",
          "type": "address"
        },
        {
          "indexed": false,
          "internalType": "uint256",
          "name": "timestamp",
          "type": "uint256"
        }
      ],
      "name": "JoinRequestRejected",
      "type": "event"
    },
    {
      "anonymous": false,
      "inputs": [
        {
          "indexed": true,
          "internalType": "address",
          "name": "requester",
          "type": "address"
        },
        {
          "indexed": false,
          "internalType": "string",
          "name": "role",
          "type": "string"
        },
        {
          "indexed": false,
          "internalType": "uint256",
          "name": "timestamp",
          "type": "uint256"
        }
      ],
      "name": "JoinRequestSubmitted",
      "type": "event"
    },
    {
      "anonymous": false,
      "inputs": [
        {
          "indexed": true,
          "internalType": "address",
          "name": "participant",
          "type": "address"
        }
      ],
      "name": "ParticipantAdded",
      "type": "event"
    },
    {
      "anonymous": false,
      "inputs": [
        {
          "indexed": true,
          "internalType": "address",
          "name": "participant",
          "type": "address"
        },
        {
          "indexed": false,
          "internalType": "string",
          "name": "role",
          "type": "string"
        },
        {
          "indexed": false,
          "internalType": "uint256",
          "name": "weight",
          "type": "uint256"
        }
      ],
      "name": "ParticipantAutoAdded",
      "type": "event"
    },
    {
      "anonymous": false,
      "inputs": [
        {
          "indexed": true,
          "internalType": "address",
          "name": "participant",
          "type": "address"
        },
        {
          "indexed": false,
          "internalType": "string",
          "name": "role",
          "type": "string"
        },
        {
          "indexed": false,
          "internalType": "uint256",
          "name": "weight",
          "type": "uint256"
        }
      ],
      "name": "ParticipantUpdated",
      "type": "event"
    },
    {
      "anonymous": false,
      "inputs": [
        {
          "indexed": true,
          "internalType": "address",
          "name": "creator",
          "type": "address"
        },
        {
          "indexed": false,
          "internalType": "uint256",
          "name": "timestamp",
          "type": "uint256"
        }
      ],
      "name": "ProjectCreated",
      "type": "event"
    },
    {
      "anonymous": false,
      "inputs": [
        {
          "indexed": true,
          "internalType": "address",
          "name": "creator",
          "type": "address"
        },
        {
          "indexed": false,
          "internalType": "uint256",
          "name": "timestamp",
          "type": "uint256"
        }
      ],
      "name": "ProjectDeactivated",
      "type": "event"
    },
    {
      "anonymous": false,
      "inputs": [
        {
          "indexed": true,
          "internalType": "address",
          "name": "creator",
          "type": "address"
        },
        {
          "indexed": false,
          "internalType": "uint256",
          "name": "timestamp",
          "type": "uint256"
        }
      ],
      "name": "ProjectReactivated",
      "type": "event"
    },
    {
      "anonymous": false,
      "inputs": [
        {
          "indexed": true,
          "internalType": "address",
          "name": "updater",
          "type": "address"
        },
        {
          "indexed": false,
          "internalType": "uint256",
          "name": "timestamp",
          "type": "uint256"
        }
      ],
      "name": "ProjectUpdated",
      "type": "event"
    },
    {
      "anonymous": false,
      "inputs": [
        {
          "indexed": false,
          "internalType": "uint256",
          "name": "newRound",
          "type": "uint256"
        }
      ],
      "name": "RoundIncremented",
      "type": "event"
    },
    {
      "anonymous": false,
      "inputs": [
        {
          "indexed": false,
          "internalType": "string",
          "name": "sampleId",
          "type": "string"
        },
        {
          "indexed": false,
          "internalType": "address",
          "name": "voter",
          "type": "address"
        },
        {
          "indexed": false,
          "internalType": "string",
          "name": "label",
          "type": "string"
        },
        {
          "indexed": false,
          "internalType": "uint256",
          "name": "timestamp",
          "type": "uint256"
        }
      ],
      "name": "VoteSubmitted",
      "type": "event"
    },
    {
      "anonymous": false,
      "inputs": [
        {
          "indexed": false,
          "internalType": "uint256",
          "name": "round",
          "type": "uint256"
        },
        {
          "indexed": false,
          "internalType": "uint256",
          "name": "voterCount",
          "type": "uint256"
        },
        {
          "indexed": false,
          "internalType": "uint256",
          "name": "timestamp",
          "type": "uint256"
        }
      ],
      "name": "VotersUpdated",
      "type": "event"
    },
    {
      "anonymous": false,
      "inputs": [
        {
          "indexed": false,
          "internalType": "string",
          "name": "sampleId",
          "type": "string"
        },
        {
          "indexed": false,
          "internalType": "string",
          "name": "finalLabel",
          "type": "string"
        },
        {
          "indexed": false,
          "internalType": "uint256",
          "name": "round",
          "type": "uint256"
        },
        {
          "indexed": false,
          "internalType": "uint256",
          "name": "timestamp",
          "type": "uint256"
        }
      ],
      "name": "VotingSessionEnded",
      "type": "event"
    },
    {
      "anonymous": false,
      "inputs": [
        {
          "indexed": false,
          "internalType": "string",
          "name": "sampleId",
          "type": "string"
        },
        {
          "indexed": false,
          "internalType": "uint256",
          "name": "round",
          "type": "uint256"
        },
        {
          "indexed": false,
          "internalType": "uint256",
          "name": "timeout",
          "type": "uint256"
        },
        {
          "indexed": false,
          "internalType": "uint256",
          "name": "timestamp",
          "type": "uint256"
        }
      ],
      "name": "VotingSessionStarted",
      "type": "event"
    },
    {
      "inputs": [
        {
          "internalType": "address",
          "name": "_participant",
          "type": "address"
        }
      ],
      "name": "addParticipant",
      "outputs": [],
      "stateMutability": "nonpayable",
      "type": "function"
    },
    {
      "inputs": [
        {
          "internalType": "address",
          "name": "_participant",
          "type": "address"
        },
        {
          "internalType": "string",
          "name": "_role",
          "type": "string"
        },
        {
          "internalType": "uint256",
          "name": "_weight",
          "type": "uint256"
        }
      ],
      "name": "addParticipantWithRole",
      "outputs": [],
      "stateMutability": "nonpayable",
      "type": "function"
    },
    {
      "inputs": [],
      "name": "alScenario",
      "outputs": [
        {
          "internalType": "string",
          "name": "",
          "type": "string"
        }
      ],
      "stateMutability": "view",
      "type": "function"
    },
    {
      "inputs": [
        {
          "internalType": "address",
          "name": "_requester",
          "type": "address"
        }
      ],
      "name": "approveJoinRequest",
      "outputs": [],
      "stateMutability": "nonpayable",
      "type": "function"
    },
    {
      "inputs": [],
      "name": "createdAt",
      "outputs": [
        {
          "internalType": "uint256",
          "name": "",
          "type": "uint256"
        }
      ],
      "stateMutability": "view",
      "type": "function"
    },
    {
      "inputs": [],
      "name": "creator",
      "outputs": [
        {
          "internalType": "address",
          "name": "",
          "type": "address"
        }
      ],
      "stateMutability": "view",
      "type": "function"
    },
    {
      "inputs": [],
      "name": "currentRound",
      "outputs": [
        {
          "internalType": "uint256",
          "name": "",
          "type": "uint256"
        }
      ],
      "stateMutability": "view",
      "type": "function"
    },
    {
      "inputs": [],
      "name": "deactivateProject",
      "outputs": [],
      "stateMutability": "nonpayable",
      "type": "function"
    },
    {
      "inputs": [],
      "name": "description",
      "outputs": [
        {
          "internalType": "string",
          "name": "",
          "type": "string"
        }
      ],
      "stateMutability": "view",
      "type": "function"
    },
    {
      "inputs": [
        {
          "internalType": "uint256",
          "name": "round",
          "type": "uint256"
        }
      ],
      "name": "endBatchVoting",
      "outputs": [],
      "stateMutability": "nonpayable",
      "type": "function"
    },
    {
      "inputs": [],
      "name": "endTime",
      "outputs": [
        {
          "internalType": "uint256",
          "name": "",
          "type": "uint256"
        }
      ],
      "stateMutability": "view",
      "type": "function"
    },
    {
      "inputs": [],
      "name": "getALConfiguration",
      "outputs": [
        {
          "internalType": "string",
          "name": "_queryStrategy",
          "type": "string"
        },
        {
          "internalType": "string",
          "name": "_alScenario",
          "type": "string"
        },
        {
          "internalType": "uint256",
          "name": "_maxIteration",
          "type": "uint256"
        },
        {
          "internalType": "uint256",
          "name": "_currentRound",
          "type": "uint256"
        },
        {
          "internalType": "uint256",
          "name": "_queryBatchSize",
          "type": "uint256"
        },
        {
          "internalType": "uint256",
          "name": "_votingTimeout",
          "type": "uint256"
        },
        {
          "internalType": "string[]",
          "name": "_labelSpace",
          "type": "string[]"
        }
      ],
      "stateMutability": "view",
      "type": "function"
    },
    {
      "inputs": [],
      "name": "getActiveBatch",
      "outputs": [
        {
          "internalType": "string[]",
          "name": "sampleIds",
          "type": "string[]"
        },
        {
          "internalType": "string[]",
          "name": "sampleData",
          "type": "string[]"
        },
        {
          "internalType": "string[]",
          "name": "labelOptions",
          "type": "string[]"
        },
        {
          "internalType": "uint256",
          "name": "timeRemaining",
          "type": "uint256"
        },
        {
          "internalType": "uint256",
          "name": "round",
          "type": "uint256"
        }
      ],
      "stateMutability": "view",
      "type": "function"
    },
    {
      "inputs": [],
      "name": "getActiveSamples",
      "outputs": [
        {
          "internalType": "string[]",
          "name": "",
          "type": "string[]"
        }
      ],
      "stateMutability": "view",
      "type": "function"
    },
    {
      "inputs": [],
      "name": "getAllParticipants",
      "outputs": [
        {
          "internalType": "address[]",
          "name": "participantAddresses",
          "type": "address[]"
        },
        {
          "internalType": "string[]",
          "name": "roles",
          "type": "string[]"
        },
        {
          "internalType": "uint256[]",
          "name": "weights",
          "type": "uint256[]"
        },
        {
          "internalType": "uint256[]",
          "name": "joinTimestamps",
          "type": "uint256[]"
        }
      ],
      "stateMutability": "view",
      "type": "function"
    },
    {
      "inputs": [],
      "name": "getAllRequesters",
      "outputs": [
        {
          "internalType": "address[]",
          "name": "",
          "type": "address[]"
        }
      ],
      "stateMutability": "view",
      "type": "function"
    },
    {
      "inputs": [],
      "name": "getCreator",
      "outputs": [
        {
          "internalType": "address",
          "name": "",
          "type": "address"
        }
      ],
      "stateMutability": "view",
      "type": "function"
    },
    {
      "inputs": [],
      "name": "getCurrentBatchProgress",
      "outputs": [
        {
          "internalType": "uint256",
          "name": "round",
          "type": "uint256"
        },
        {
          "internalType": "uint256",
          "name": "totalSamples",
          "type": "uint256"
        },
        {
          "internalType": "uint256",
          "name": "activeSamplesCount",
          "type": "uint256"
        },
        {
          "internalType": "uint256",
          "name": "completedSamples",
          "type": "uint256"
        },
        {
          "internalType": "string[]",
          "name": "sampleIds",
          "type": "string[]"
        },
        {
          "internalType": "bool",
          "name": "batchActive",
          "type": "bool"
        }
      ],
      "stateMutability": "view",
      "type": "function"
    },
    {
      "inputs": [],
      "name": "getCurrentBatchSampleIds",
      "outputs": [
        {
          "internalType": "string[]",
          "name": "",
          "type": "string[]"
        }
      ],
      "stateMutability": "view",
      "type": "function"
    },
    {
      "inputs": [],
      "name": "getEligibleVoters",
      "outputs": [
        {
          "internalType": "address[]",
          "name": "voters",
          "type": "address[]"
        },
        {
          "internalType": "uint256[]",
          "name": "weights",
          "type": "uint256[]"
        }
      ],
      "stateMutability": "view",
      "type": "function"
    },
    {
      "inputs": [],
      "name": "getFinalROCrateHash",
      "outputs": [
        {
          "internalType": "string",
          "name": "",
          "type": "string"
        }
      ],
      "stateMutability": "view",
      "type": "function"
    },
    {
      "inputs": [],
      "name": "getIsActive",
      "outputs": [
        {
          "internalType": "bool",
          "name": "",
          "type": "bool"
        }
      ],
      "stateMutability": "view",
      "type": "function"
    },
    {
      "inputs": [
        {
          "internalType": "address",
          "name": "_requester",
          "type": "address"
        }
      ],
      "name": "getJoinRequest",
      "outputs": [
        {
          "internalType": "address",
          "name": "requester",
          "type": "address"
        },
        {
          "internalType": "string",
          "name": "role",
          "type": "string"
        },
        {
          "internalType": "uint256",
          "name": "timestamp",
          "type": "uint256"
        },
        {
          "internalType": "bool",
          "name": "exists",
          "type": "bool"
        }
      ],
      "stateMutability": "view",
      "type": "function"
    },
    {
      "inputs": [],
      "name": "getProjectData",
      "outputs": [
        {
          "internalType": "string",
          "name": "",
          "type": "string"
        }
      ],
      "stateMutability": "view",
      "type": "function"
    },
    {
      "inputs": [],
      "name": "getProjectMetadata",
      "outputs": [
        {
          "internalType": "string",
          "name": "_title",
          "type": "string"
        },
        {
          "internalType": "string",
          "name": "_description",
          "type": "string"
        },
        {
          "internalType": "address",
          "name": "_owner",
          "type": "address"
        },
        {
          "internalType": "string",
          "name": "_projectType",
          "type": "string"
        },
        {
          "internalType": "string",
          "name": "_rocrateHash",
          "type": "string"
        },
        {
          "internalType": "uint256",
          "name": "_start",
          "type": "uint256"
        },
        {
          "internalType": "uint256",
          "name": "_end",
          "type": "uint256"
        },
        {
          "internalType": "string",
          "name": "_queryStrategy",
          "type": "string"
        },
        {
          "internalType": "string",
          "name": "_alScenario",
          "type": "string"
        },
        {
          "internalType": "uint256",
          "name": "_maxIteration",
          "type": "uint256"
        },
        {
          "internalType": "uint256",
          "name": "_queryBatchSize",
          "type": "uint256"
        },
        {
          "internalType": "string[]",
          "name": "_labelSpace",
          "type": "string[]"
        }
      ],
      "stateMutability": "view",
      "type": "function"
    },
    {
      "inputs": [],
      "name": "getProjectStatus",
      "outputs": [
        {
          "internalType": "bool",
          "name": "active",
          "type": "bool"
        },
        {
          "internalType": "uint256",
          "name": "created",
          "type": "uint256"
        },
        {
          "internalType": "uint256",
          "name": "modified",
          "type": "uint256"
        },
        {
          "internalType": "address",
          "name": "projectCreator",
          "type": "address"
        }
      ],
      "stateMutability": "view",
      "type": "function"
    },
    {
      "inputs": [],
      "name": "getTimestamps",
      "outputs": [
        {
          "internalType": "uint256",
          "name": "created",
          "type": "uint256"
        },
        {
          "internalType": "uint256",
          "name": "modified",
          "type": "uint256"
        }
      ],
      "stateMutability": "view",
      "type": "function"
    },
    {
      "inputs": [
        {
          "internalType": "address",
          "name": "voter",
          "type": "address"
        }
      ],
      "name": "getVoterStats",
      "outputs": [
        {
          "internalType": "uint256",
          "name": "weight",
          "type": "uint256"
        },
        {
          "internalType": "uint256",
          "name": "totalVotes",
          "type": "uint256"
        },
        {
          "internalType": "bool",
          "name": "isRegistered",
          "type": "bool"
        }
      ],
      "stateMutability": "view",
      "type": "function"
    },
    {
      "inputs": [],
      "name": "hasALContracts",
      "outputs": [
        {
          "internalType": "bool",
          "name": "",
          "type": "bool"
        }
      ],
      "stateMutability": "view",
      "type": "function"
    },
    {
      "inputs": [],
      "name": "incrementRound",
      "outputs": [],
      "stateMutability": "nonpayable",
      "type": "function"
    },
    {
      "inputs": [
        {
          "internalType": "address",
          "name": "",
          "type": "address"
        }
      ],
      "name": "invitations",
      "outputs": [
        {
          "internalType": "address",
          "name": "invitee",
          "type": "address"
        },
        {
          "internalType": "string",
          "name": "role",
          "type": "string"
        },
        {
          "internalType": "uint256",
          "name": "timestamp",
          "type": "uint256"
        },
        {
          "internalType": "bool",
          "name": "exists",
          "type": "bool"
        }
      ],
      "stateMutability": "view",
      "type": "function"
    },
    {
      "inputs": [
        {
          "internalType": "uint256",
          "name": "",
          "type": "uint256"
        }
      ],
      "name": "invitees",
      "outputs": [
        {
          "internalType": "address",
          "name": "",
          "type": "address"
        }
      ],
      "stateMutability": "view",
      "type": "function"
    },
    {
      "inputs": [],
      "name": "isActive",
      "outputs": [
        {
          "internalType": "bool",
          "name": "",
          "type": "bool"
        }
      ],
      "stateMutability": "view",
      "type": "function"
    },
    {
      "inputs": [
        {
          "internalType": "string",
          "name": "sampleId",
          "type": "string"
        }
      ],
      "name": "isSampleActive",
      "outputs": [
        {
          "internalType": "bool",
          "name": "",
          "type": "bool"
        }
      ],
      "stateMutability": "view",
      "type": "function"
    },
    {
      "inputs": [
        {
          "internalType": "address",
          "name": "",
          "type": "address"
        }
      ],
      "name": "joinRequests",
      "outputs": [
        {
          "internalType": "address",
          "name": "requester",
          "type": "address"
        },
        {
          "internalType": "string",
          "name": "role",
          "type": "string"
        },
        {
          "internalType": "uint256",
          "name": "timestamp",
          "type": "uint256"
        },
        {
          "internalType": "bool",
          "name": "exists",
          "type": "bool"
        }
      ],
      "stateMutability": "view",
      "type": "function"
    },
    {
      "inputs": [
        {
          "internalType": "address",
          "name": "",
          "type": "address"
        }
      ],
      "name": "joinedAt",
      "outputs": [
        {
          "internalType": "uint256",
          "name": "",
          "type": "uint256"
        }
      ],
      "stateMutability": "view",
      "type": "function"
    },
    {
      "inputs": [
        {
          "internalType": "uint256",
          "name": "",
          "type": "uint256"
        }
      ],
      "name": "labelSpace",
      "outputs": [
        {
          "internalType": "string",
          "name": "",
          "type": "string"
        }
      ],
      "stateMutability": "view",
      "type": "function"
    },
    {
      "inputs": [],
      "name": "lastModified",
      "outputs": [
        {
          "internalType": "uint256",
          "name": "",
          "type": "uint256"
        }
      ],
      "stateMutability": "view",
      "type": "function"
    },
    {
      "inputs": [
        {
          "internalType": "address",
          "name": "_voting",
          "type": "address"
        },
        {
          "internalType": "address",
          "name": "_storage",
          "type": "address"
        }
      ],
      "name": "linkALContracts",
      "outputs": [],
      "stateMutability": "nonpayable",
      "type": "function"
    },
    {
      "inputs": [],
      "name": "maxIteration",
      "outputs": [
        {
          "internalType": "uint256",
          "name": "",
          "type": "uint256"
        }
      ],
      "stateMutability": "view",
      "type": "function"
    },
    {
      "inputs": [],
      "name": "needsALDeployment",
      "outputs": [
        {
          "internalType": "bool",
          "name": "",
          "type": "bool"
        }
      ],
      "stateMutability": "view",
      "type": "function"
    },
    {
      "inputs": [
        {
          "internalType": "string",
          "name": "sampleId",
          "type": "string"
        },
        {
          "internalType": "string",
          "name": "finalLabel",
          "type": "string"
        }
      ],
      "name": "notifyVotingSessionEnded",
      "outputs": [],
      "stateMutability": "nonpayable",
      "type": "function"
    },
    {
      "inputs": [
        {
          "internalType": "string",
          "name": "sampleId",
          "type": "string"
        }
      ],
      "name": "notifyVotingSessionStarted",
      "outputs": [],
      "stateMutability": "nonpayable",
      "type": "function"
    },
    {
      "inputs": [
        {
          "internalType": "address",
          "name": "",
          "type": "address"
        }
      ],
      "name": "participantRoles",
      "outputs": [
        {
          "internalType": "string",
          "name": "",
          "type": "string"
        }
      ],
      "stateMutability": "view",
      "type": "function"
    },
    {
      "inputs": [
        {
          "internalType": "address",
          "name": "",
          "type": "address"
        }
      ],
      "name": "participantWeights",
      "outputs": [
        {
          "internalType": "uint256",
          "name": "",
          "type": "uint256"
        }
      ],
      "stateMutability": "view",
      "type": "function"
    },
    {
      "inputs": [
        {
          "internalType": "uint256",
          "name": "",
          "type": "uint256"
        }
      ],
      "name": "participants",
      "outputs": [
        {
          "internalType": "address",
          "name": "",
          "type": "address"
        }
      ],
      "stateMutability": "view",
      "type": "function"
    },
    {
      "inputs": [],
      "name": "projectData",
      "outputs": [
        {
          "internalType": "string",
          "name": "",
          "type": "string"
        }
      ],
      "stateMutability": "view",
      "type": "function"
    },
    {
      "inputs": [],
      "name": "projectType",
      "outputs": [
        {
          "internalType": "string",
          "name": "",
          "type": "string"
        }
      ],
      "stateMutability": "view",
      "type": "function"
    },
    {
      "inputs": [],
      "name": "queryBatchSize",
      "outputs": [
        {
          "internalType": "uint256",
          "name": "",
          "type": "uint256"
        }
      ],
      "stateMutability": "view",
      "type": "function"
    },
    {
      "inputs": [],
      "name": "queryStrategy",
      "outputs": [
        {
          "internalType": "string",
          "name": "",
          "type": "string"
        }
      ],
      "stateMutability": "view",
      "type": "function"
    },
    {
      "inputs": [],
      "name": "reactivateProject",
      "outputs": [],
      "stateMutability": "nonpayable",
      "type": "function"
    },
    {
      "inputs": [
        {
          "internalType": "string",
          "name": "sampleId",
          "type": "string"
        },
        {
          "internalType": "string",
          "name": "label",
          "type": "string"
        }
      ],
      "name": "receiveFinalLabelFromVoting",
      "outputs": [],
      "stateMutability": "nonpayable",
      "type": "function"
    },
    {
      "inputs": [
        {
          "internalType": "address",
          "name": "_requester",
          "type": "address"
        }
      ],
      "name": "rejectJoinRequest",
      "outputs": [],
      "stateMutability": "nonpayable",
      "type": "function"
    },
    {
      "inputs": [
        {
          "internalType": "uint256",
          "name": "",
          "type": "uint256"
        }
      ],
      "name": "requesters",
      "outputs": [
        {
          "internalType": "address",
          "name": "",
          "type": "address"
        }
      ],
      "stateMutability": "view",
      "type": "function"
    },
    {
      "inputs": [],
      "name": "rocrateHash",
      "outputs": [
        {
          "internalType": "string",
          "name": "",
          "type": "string"
        }
      ],
      "stateMutability": "view",
      "type": "function"
    },
    {
      "inputs": [],
      "name": "rocrateHashFinal",
      "outputs": [
        {
          "internalType": "string",
          "name": "",
          "type": "string"
        }
      ],
      "stateMutability": "view",
      "type": "function"
    },
    {
      "inputs": [
        {
          "internalType": "string",
          "name": "_queryStrategy",
          "type": "string"
        },
        {
          "internalType": "string",
          "name": "_alScenario",
          "type": "string"
        },
        {
          "internalType": "uint256",
          "name": "_maxIteration",
          "type": "uint256"
        },
        {
          "internalType": "uint256",
          "name": "_queryBatchSize",
          "type": "uint256"
        },
        {
          "internalType": "string[]",
          "name": "_labelSpace",
          "type": "string[]"
        }
      ],
      "name": "setALMetadata",
      "outputs": [],
      "stateMutability": "nonpayable",
      "type": "function"
    },
    {
      "inputs": [
        {
          "internalType": "string",
          "name": "_rocrateHashFinal",
          "type": "string"
        }
      ],
      "name": "setFinalROCrateHash",
      "outputs": [],
      "stateMutability": "nonpayable",
      "type": "function"
    },
    {
      "inputs": [
        {
          "internalType": "string",
          "name": "_title",
          "type": "string"
        },
        {
          "internalType": "string",
          "name": "_description",
          "type": "string"
        },
        {
          "internalType": "string",
          "name": "_projectType",
          "type": "string"
        },
        {
          "internalType": "string",
          "name": "_rocrateHash",
          "type": "string"
        }
      ],
      "name": "setProjectMetadata",
      "outputs": [],
      "stateMutability": "nonpayable",
      "type": "function"
    },
    {
      "inputs": [
        {
          "internalType": "uint256",
          "name": "_start",
          "type": "uint256"
        },
        {
          "internalType": "uint256",
          "name": "_end",
          "type": "uint256"
        }
      ],
      "name": "setStartAndEndTime",
      "outputs": [],
      "stateMutability": "nonpayable",
      "type": "function"
    },
    {
      "inputs": [
        {
          "internalType": "string[]",
          "name": "sampleIds",
          "type": "string[]"
        }
      ],
      "name": "startBatchVoting",
      "outputs": [],
      "stateMutability": "nonpayable",
      "type": "function"
    },
    {
      "inputs": [],
      "name": "startTime",
      "outputs": [
        {
          "internalType": "uint256",
          "name": "",
          "type": "uint256"
        }
      ],
      "stateMutability": "view",
      "type": "function"
    },
    {
      "inputs": [],
      "name": "storageContract",
      "outputs": [
        {
          "internalType": "address",
          "name": "",
          "type": "address"
        }
      ],
      "stateMutability": "view",
      "type": "function"
    },
    {
      "inputs": [
        {
          "internalType": "string",
          "name": "sampleId",
          "type": "string"
        },
        {
          "internalType": "string",
          "name": "label",
          "type": "string"
        },
        {
          "internalType": "uint256",
          "name": "round",
          "type": "uint256"
        }
      ],
      "name": "storeFinalLabel",
      "outputs": [],
      "stateMutability": "nonpayable",
      "type": "function"
    },
    {
      "inputs": [
        {
          "internalType": "string[]",
          "name": "sampleIds",
          "type": "string[]"
        },
        {
          "internalType": "string[]",
          "name": "labels",
          "type": "string[]"
        }
      ],
      "name": "submitBatchVote",
      "outputs": [],
      "stateMutability": "nonpayable",
      "type": "function"
    },
    {
      "inputs": [
        {
          "internalType": "string",
          "name": "_role",
          "type": "string"
        }
      ],
      "name": "submitJoinRequest",
      "outputs": [],
      "stateMutability": "nonpayable",
      "type": "function"
    },
    {
      "inputs": [],
      "name": "title",
      "outputs": [
        {
          "internalType": "string",
          "name": "",
          "type": "string"
        }
      ],
      "stateMutability": "view",
      "type": "function"
    },
    {
      "inputs": [
        {
          "internalType": "string",
          "name": "reason",
          "type": "string"
        }
      ],
      "name": "triggerNextRound",
      "outputs": [],
      "stateMutability": "nonpayable",
      "type": "function"
    },
    {
      "inputs": [
        {
          "internalType": "address",
          "name": "_participant",
          "type": "address"
        },
        {
          "internalType": "string",
          "name": "_role",
          "type": "string"
        },
        {
          "internalType": "uint256",
          "name": "_weight",
          "type": "uint256"
        }
      ],
      "name": "updateParticipant",
      "outputs": [],
      "stateMutability": "nonpayable",
      "type": "function"
    },
    {
      "inputs": [
        {
          "internalType": "string",
          "name": "_newProjectData",
          "type": "string"
        }
      ],
      "name": "updateProjectData",
      "outputs": [],
      "stateMutability": "nonpayable",
      "type": "function"
    },
    {
      "inputs": [
        {
          "internalType": "string",
          "name": "_rocrateHash",
          "type": "string"
        }
      ],
      "name": "updateROCrateHash",
      "outputs": [],
      "stateMutability": "nonpayable",
      "type": "function"
    },
    {
      "inputs": [],
      "name": "votingContract",
      "outputs": [
        {
          "internalType": "address",
          "name": "",
          "type": "address"
        }
      ],
      "stateMutability": "view",
      "type": "function"
    },
    {
      "inputs": [],
      "name": "votingTimeout",
      "outputs": [
        {
          "internalType": "uint256",
          "name": "",
          "type": "uint256"
        }
      ],
      "stateMutability": "view",
      "type": "function"
    }
  ],
  "bytecode": "0x60806040523461039e5761526280380380610019816103a3565b92833981019060408183031261039e5780516001600160a01b038116919082900361039e576020810151906001600160401b03821161039e570182601f8201121561039e578051906001600160401b03821161027757610082601f8301601f19166020016103a3565b938285526020838301011161039e5760005b828110610389575050602060009184010152610e1060105581511561035757600080546001600160a01b0319168217905581516001600160401b038111610277576100e06003546103c8565b601f81116102fd575b50602092601f8211600114610298579281929360009261028d575b50508160011b916000199060031b1c1916176003555b4260018190556002556000805460ff60a01b1916600160a01b17905560195468010000000000000000811015610277576001810180601955811015610261577f944998273e477b495144fb8794c914197f3ccb46be2900f4698fd0ef743c96950180546001600160a01b031916821790556000818152601a6020526040902080546101a4906103c8565b601f811161023f575b50600e6631b932b0ba37b960c91b01905580600052601b602052600160406000205580600052601c60205242604060002055807f20bfd29f3d906f96fc35742fac45a554b19cbd4e21f8c4c1d84cb58fdfc32c896020604051428152a2604051907f31d3ac54da09405b02d1de0ee0de648de637fbdc111123be0d7fc31f2a544c0b600080a2614e48908161041a8239f35b61025b9082600052601f6020600020910160051c810190610402565b386101ad565b634e487b7160e01b600052603260045260246000fd5b634e487b7160e01b600052604160045260246000fd5b015190503880610104565b601f198216936003600052806000209160005b8681106102e557508360019596106102cc575b505050811b0160035561011a565b015160001960f88460031b161c191690553880806102be565b919260206001819286850151815501940192016102ab565b6003600052610347907fc2575a0e9e593c00f959f8c92f12db2869c3395a3b0502d05e2516446f71f85b601f840160051c8101916020851061034d575b601f0160051c0190610402565b386100e9565b909150819061033a565b60405162461bcd60e51b815260206004820152600a602482015269456d707479206461746160b01b6044820152606490fd5b80602080928401015182828801015201610094565b600080fd5b6040519190601f01601f191682016001600160401b0381118382101761027757604052565b90600182811c921680156103f8575b60208310146103e257565b634e487b7160e01b600052602260045260246000fd5b91607f16916103d7565b81811061040d575050565b6000815560010161040256fe608080604052600436101561001357600080fd5b600090813560e01c90816302d05d3f146136dc57508063040023d61461362c5780630ee2cb101461360557806310218f4d1461347757806311ce02671461344e5780631633e06214612f70578063195ec9ee14612e235780631af9fd1714612cbb578063211a85e61461292057806322f3e2d4146128fb57806329f5e65a146127965780632bc5c480146123d85780633197cbb6146123ba57806335c1d3491461238f578063383e1a5e146122f557806343862d23146122d1578063461e198b146121ed5780634a79d50c146121c95780634d320b98146120de57806355b31b551461152857806358f43f761461208e57806359abbfe4146120695780635bff3c2314611fae5780635e1a6c1714611f6a578063626384ee14611e3d5780636ac4e50e14611dbd5780637284e41614611d9957806377c39c2114611d7b5780637847f1de14611bb857806378e9792514611b9a57806379ec4f1914611b225780637a83a44b14611afd5780637f52cadc14611ad957806380a8c84914611a3b57806384958fc31461184e57806384e077281461174d5780638520eb781461156a5780638a19c8bc1461154c5780639c0768b314611528578063a01647e61461135e578063a07401841461133a578063a6ea915b14611278578063ab34c9e91461123f578063b061106814611172578063b0942ce514611154578063b2be4d6514610fd8578063b568647914610f41578063b70825dc14610ec0578063b8c3903414610df8578063b9be92f914610cfa578063bbffd04c14610c53578063be27151a14610aee578063c1fc006a14610ac5578063c2e4fe5a14610a7f578063c2fc0d2614610a5b578063c3a4b41a14610a15578063c3feda1714610967578063c47d17241461051a578063c4b192f7146108a8578063cf09e0d01461088a578063d2291e1114610802578063d64c58a7146107c9578063dfafe10f1461075e578063dfb748aa14610697578063e030832314610635578063e1d5a2c81461059d578063e7aa3afc14610559578063e807c0b21461051a578063ef213106146104a9578063f1bc33b41461048b578063f696435a14610389578063f7267cfd1461036b5763fba7cc791461034457600080fd5b3461036857806003193601126103685760ff6020915460a01c166040519015158152f35b80fd5b50346103685780600319360112610368576020600254604051908152f35b50346103685780600319360112610368576017546001600160a01b03166103b1811515614206565b81601154916103bf83614289565b92825b818110610456575050601054601d546040516355a069dd60e11b815294859392849283926103f49290600485016146c2565b03915afa90811561044b57826104209392610424575b505060405191829160208352602083019061392c565b0390f35b61044092503d8091833e6104388183613747565b8101906145b7565b50505050388061040a565b6040513d84823e3d90fd5b60019192935060ff61047061046a83613a37565b506143a7565b541661047c828761424c565b901515905201908492916103c2565b50346103685780600319360112610368576020601054604051908152f35b5034610368576020366003190112610368576040906001600160a01b036104ce613700565b16815260136020522060018060a01b0381541661042060405192610500846104f98160018501613eb8565b0385613747565b60ff60036002830154920154169060405194859485613a85565b50346103685780600319360112610368576104206040516105458161053e81613e45565b0382613747565b604051918291602083526020830190613907565b503461036857806003193601126103685760809054600154906002546040519260ff8360a01c16151584526020840152604083015260018060a01b03166060820152f35b50346103685780600319360112610368576017546001600160a01b0316330361060257601d54600181018091116105ee57602081600080516020614d5383398151915292601d55604051908152a180f35b634e487b7160e01b82526011600452602482fd5b60405162461bcd60e51b815260206004820152600b60248201526a4f6e6c7920766f74696e6760a81b6044820152606490fd5b503461036857602036600319011261036857600435906001600160401b03821161036857602060ff6106818261066e3660048801613785565b81604051938285809451938492016138e4565b8101601281520301902054166040519015158152f35b5034610368576020366003190112610368576106b1613700565b6106c560018060a01b038354163314613f60565b61071a61070e60018060a01b0383169283855260136020526106f060ff600360408820015416614a4a565b83855260136020526107156001604087200160405193848092613eb8565b0383613747565b614b29565b808252601360205261072e60408320614a83565b604051904282527f423eb00b6a18c3ecfc2170a0e40ef0bad995279070614ba2e4be1b94f67eb88860203393a380f35b5034610368576020366003190112610368576107c661077b613700565b61078f60018060a01b038454163314613f60565b6001600160a01b0381168352601a60205260408320546107b8906107b290613ab8565b15614ae7565b6107c0614260565b90614b29565b80f35b5034610368576020366003190112610368576020906040906001600160a01b036107f1613700565b168152601b83522054604051908152f35b503461036857806003193601126103685760115461081f81613812565b9161082d6040519384613747565b81835260118152600080516020614cf3833981519152602084015b83831061086557604051602080825281906104209082018861392c565b60016020819260405161087c8161053e8189613eb8565b815201920192019190610848565b50346103685780600319360112610368576020600154604051908152f35b5034610368576020366003190112610368576004356001600160401b038111610963576108d9903690600401613785565b6108ed60018060a01b038354163314613f60565b80511561091e576108fd90614035565b42600255604051428152600080516020614cd383398151915260203392a280f35b60405162461bcd60e51b815260206004820152601d60248201527f524f2d437261746520686173682063616e6e6f7420626520656d7074790000006044820152606490fd5b5080fd5b5034610368578060031936011261036857805461098e336001600160a01b03831614613f60565b60ff8160a01c166109df5760ff60a01b1916600160a01b17815542600281905560405190815233907fb351ba71ddc1d2bf39667cebde99fb92eb26b9f418d5049ba0200888ba81071590602090a280f35b60405162461bcd60e51b815260206004820152600e60248201526d416c72656164792061637469766560901b6044820152606490fd5b50346103685780600319360112610368576017546001600160a01b0316151580610a47575b6020906040519015158152f35b506018546001600160a01b03161515610a3a565b50346103685780600319360112610368576104206040516105458161053e81613c06565b5034610368576020366003190112610368576104209061053e90610545906040906001600160a01b03610ab0613700565b168152601a6020522060405192838092613eb8565b50346103685780600319360112610368576017546040516001600160a01b039091168152602090f35b5034610368576020366003190112610368576004356001600160401b03811161096357610b1f903690600401613829565b610b3360018060a01b038354163314613f60565b6017546001600160a01b0316610b4a811515614206565b815115610c1957601d549060018201809211610c055790839181601d55803b15610c0157829182916040518094818094630e7dc0d160e41b825260406004830152610b98604483018b61392c565b90602483015203925af1801561044b57610bec575b507f24c323b0138f1f608c855cccb8550ac649c15bf3cea39b8fdbde80d33258a74f82601d549051610be660405192839242918461445a565b0390a180f35b81610bf691613747565b610963578138610bad565b8280fd5b634e487b7160e01b84526011600452602484fd5b60405162461bcd60e51b815260206004820152601260248201527108adae0e8f240e6c2dae0d8ca40c4c2e8c6d60731b6044820152606490fd5b50346103685780600319360112610368578054610c7a336001600160a01b03831614613f60565b60ff8160a01c1615610cc25760ff60a01b19168155426002556040514281527f17064d72ee4a5901e55dfa45024ea8f67cdb4895ba6364ab2f8e7223f642ad3660203392a280f35b60405162461bcd60e51b815260206004820152601060248201526f416c726561647920696e61637469766560801b6044820152606490fd5b503461036857610d09366137cc565b91610d1e60018060a01b038554163314613f60565b6001600160a01b0316808452601a6020526040842054909290610d4090613ab8565b15610dbf5781610d737fe8c250df70afa51c6916b9661d224a47fd9568cb0c1c9d0d49e2e45cc729a98793511515613f9b565b610d7e821515614aa1565b838552601a602052610d938160408720614124565b838552601b60205281604086205542600255610db46040519283928361474d565b0390a26107c6614baa565b60405162461bcd60e51b8152602060048201526011602482015270139bdd0818481c185c9d1a58da5c185b9d607a1b6044820152606490fd5b503461036857602036600319011261036857600435610e2160018060a01b038354163314613f60565b6017546001600160a01b0316610e38811515614206565b601d548203610e8b578291813b15610e87578291602483926040519485938492632e30e40d60e21b845260048401525af1801561044b57610e765750f35b81610e8091613747565b6103685780f35b5050fd5b60405162461bcd60e51b815260206004820152600d60248201526c125b9d985b1a59081c9bdd5b99609a1b6044820152606490fd5b5034610368576020366003190112610368576004359060165482101561036857601654821015610f2d57601681527fd833147d7dc355ba459fc788f669e58cfaf9dc25ddcd0702e87d69c7b51242899091015460405160039290921b1c6001600160a01b03168152602090f35b634e487b7160e01b81526032600452602490fd5b503461036857602036600319011261036857610f5b613700565b610f6f60018060a01b038354163314613f60565b6001600160a01b031680825260136020526040822060030154610f949060ff16614a4a565b8082526013602052610fa860408320614a83565b604051904282527f1a69e67d1be897d0ca0cf1517b4d17e345b4272a80bc900f9fe8e96f261ca1db60203393a380f35b5034610368576020366003190112610368576004356001600160401b03811161096357611009903690600401613785565b61101e60018060a01b03601754163314614326565b604051815190602081818501936110368183876138e4565b81016012815203019020600160ff19825416179055828391601154925b838110611114575b5050156110a8575b50611091600080516020614cb383398151915291601d54601054604051938493608085526080850190613907565b91602084015260408301524260608301520390a180f35b600160401b811015611100578060016110c49201601155613a37565b6110ec57816110e5600080516020614cb38339815191529361109193614124565b9150611063565b634e487b7160e01b83526004839052602483fd5b634e487b7160e01b83526041600452602483fd5b61053e61113061112383613a37565b5060405192838092613eb8565b60208151910120855183201461114857600101611053565b5050506001388061105b565b50346103685780600319360112610368576020600d54604051908152f35b503461036857611181366139b9565b9061119760018060a01b03601754163314614326565b60185483906001600160a01b03166111b08115156149da565b601d5490803b15610c015760405163a6ea915b60e01b815291839183918290849082906111e2908b8b60048501614a21565b03925af1801561044b5761122a575b50507f503607074d0e95d8c0c6b1660c3441384010e05305da22aef0594eb3fcae623691610be6601d5492604051938493429285614372565b8161123491613747565b610c015782386111f1565b5034610368576020366003190112610368576020906040906001600160a01b03611267613700565b168152601c83522054604051908152f35b503461036857606036600319011261036857806004356001600160401b038111611337576112aa903690600401613785565b6024356001600160401b038111610e87576112c9903690600401613785565b6112dd60018060a01b038454163314613f60565b6018546001600160a01b0316916112f58315156149da565b823b15611334576113239284928360405180968195829463a6ea915b60e01b84526044359160048501614a21565b03925af1801561044b57610e765750f35b50505b50fd5b50346103685780600319360112610368576104206040516105458161053e81613cec565b50346103685780600319360112610368576017546001600160a01b031690611387821515614206565b604051630caf64f760e11b8152918183600481305afa801561044b5782908394849161145e575b50916113e26113f4959261140686956040519889968795869563cdbf3d0160e01b87526060600488015260648701906138a7565b8581036003190160248701529061392c565b83810360031901604485015290613985565b03915afa9182156114515781809361142a575b505061042060405192839283613f3b565b90915061144992503d8091833e6114418183613747565b810190614991565b903880611419565b50604051903d90823e3d90fd5b945050503d8083853e6114718185613747565b8301608084820312610c015783516001600160401b03811161152457816114999186016148c6565b60208501516001600160401b03811161152057826114b89187016144fd565b60408601519092906001600160401b03811161151c57816114da918801614934565b606087015190966001600160401b038211611518578695936115096113e2946113f49a97946114069401614934565b509194939550509295506113ae565b8680fd5b8580fd5b8480fd5b8380fd5b50346103685780600319360112610368576104206040516105458161053e81613dd2565b50346103685780600319360112610368576020601d54604051908152f35b50346103685780600319360112610368576017546001600160a01b0316611592811515614206565b8160115461159f81614289565b90825b81811061171c575050601d54926040519384926353b7ec2760e11b8452606484019160048501526060602485015260115480925260848401602060648460051b870101019260118752602087209187905b8282106116e5575050505083820360031901604485015283918291611618919061468c565b03915afa801561044b5782918380818093819561166c575b5050906116609291604051968796875260208701526040860152606085015260c0608085015260c084019061392c565b90151560a08301520390f35b95509550505050503d8083833e6116838183613747565b81019160c08284031261036857815160208301519260408101519460608201519360808301519060018060401b038211610368575060a06116ce84936116d5936116609796016144fd565b9201614769565b9194959390919390919238611630565b9296509294965092602060016117098193601f196063198d83030101865289613eb8565b97019201920192879593899795936115f3565b6001919294935060ff61173161046a83613a37565b541661173d828761424c565b90151590520190849293916115a2565b503461036857806003193601126103685760155481805b828110611803575061177590614289565b9180805b8381106117965760405160208082528190610420908201886138a7565b61179f81613a52565b9054600391821b1c6001600160a01b03168352601360205260408320015460ff166117cd575b600101611779565b916117fb6001916117dd85613a52565b848060a01b0391549060031b1c166117f5828961424c565b52614435565b9290506117c5565b61180c81613a52565b9054600391821b1c6001600160a01b03168552601360205260408520015460ff1661183a575b600101611764565b90611846600191614435565b919050611832565b5034610368576020366003190112610368576004356001600160401b0381116109635761187f903690600401613785565b9061189460018060a01b038254163314613f60565b8151156119ea578151916001600160401b0383116119d6576118b7600854613ab8565b601f811161198f575b50602092601f811160011461192e578083946118e3939491611923575b50614022565b6008555b426002557fad44b517dc31b3f923480dd93ac031881f73b79bbac3f58972598878941472446040518061191d339442908361474d565b0390a280f35b9050830151386118dd565b60088352838320601f19821694845b86811061197757508260019495961061195e575b5050811b016008556118e7565b84015160001960f88460031b161c191690553880611951565b9091602060018192858801518155019301910161193d565b600883526119c690600080516020614d33833981519152601f860160051c810191602087106119cc575b601f0160051c019061400b565b386118c0565b90915081906119b9565b634e487b7160e01b82526041600452602482fd5b60405162461bcd60e51b815260206004820152602360248201527f46696e616c20524f2d437261746520686173682063616e6e6f7420626520656d60448201526270747960e81b6064820152608490fd5b5034610368578060031936011261036857611aa9600d54610420601d5491600e549260105460405194611a7886611a7181613cec565b0387613747565b60405192611a89846104f981613d5f565b611ab7611a946142bb565b94604051998a9960e08b5260e08b0190613907565b9089820360208b0152613907565b9460408801526060870152608086015260a085015283820360c085015261392c565b50346103685780600319360112610368576104206040516105458161053e81613d5f565b50346103685780600319360112610368576020611b18614776565b6040519015158152f35b50346103685760403660031901126103685760043560243590611b4f60018060a01b038454163314613f60565b81811015611b6057600955600a5580f35b60405162461bcd60e51b8152602060048201526012602482015271496e76616c69642074696d652072616e676560701b6044820152606490fd5b50346103685780600319360112610368576020600954604051908152f35b5034610368576020366003190112610368576004356001600160401b03811161096357611be9903690600401613785565b8154611bfa60ff8260a01c16613fd4565b6001600160a01b03163314611d4057338252601360205260ff600360408420015416611d0a57611c2c81511515613f9b565b604051611c3881613716565b3381526003602082019183835260408101428152611c876060830194600186523388526013602052604088209360018060a01b0390511660018060a01b03198554161784555160018401614124565b516002820155019051151560ff80198354169116179055601554600160401b81101561110057806001611cbf92016015556015613a6d565b81549060031b9033821b9160018060a01b03901b19161790557fe4d6c018abd0178d4bce0856089ef1876318617b97a1d700bb98506598ab0afc6040518061191d339442908361474d565b60405162461bcd60e51b815260206004820152600e60248201526d526571756573742065786973747360901b6044820152606490fd5b60405162461bcd60e51b815260206004820152601360248201527221b932b0ba37b91031b0b73737ba103537b4b760691b6044820152606490fd5b50346103685780600319360112610368576020600e54604051908152f35b50346103685780600319360112610368576104206040516105458161053e81613b81565b503461036857602036600319011261036857600435600f5481101561096357600f54811015611e2957600f8252600080516020614df3833981519152019080611e1557604051610420906105458161053e8187613eb8565b634e487b7160e01b81526004819052602490fd5b634e487b7160e01b82526032600452602482fd5b50346103685780600319360112610368576017546001600160a01b0316611e65811515614206565b8160115491611e7383614289565b92825b818110611f3b575050601054601d546040516355a069dd60e11b81529485939284928392611ea89290600485016146c2565b03915afa801561044b5791611ee2928192828391848094611f0d575b505090611ef0611efe9260405197889760a0895260a089019061392c565b90878203602089015261392c565b90858203604087015261392c565b91606084015260808301520390f35b91509150611ef09450611efe9350611f2f92503d8091833e6104388183613747565b93959094919291611ec4565b60019192935060ff611f4f61046a83613a37565b5416611f5b828761424c565b90151590520190849291611e76565b50346103685760203660031901126103685760043590601554821015610368576020611f9583613a52565b905460405160039290921b1c6001600160a01b03168152f35b503461036857602036600319011261036857611fc8613700565b6017546001600160a01b03169190602090611fe4841515614206565b6040516320a7c73b60e11b81526001600160a01b03909116600482015292839060249082905afa8015611451578190612031575b6060925060405191818352602083015215156040820152f35b506020823d602011612061575b8161204b60209383613747565b8101031261205c5760609151612018565b600080fd5b3d915061203e565b5034610368578060031936011261036857604060015460025482519182526020820152f35b5034610368576020366003190112610368576040906001600160a01b036120b3613700565b16815260146020522060018060a01b0381541661042060405192610500846104f98160018501613eb8565b5034610368576040366003190112610368576120f8613700565b6024356001600160a01b0381169190829003610c015761212260018060a01b038454163314613f60565b6001600160a01b0316801515806121c0575b1561218757601754906121506001600160a01b038316156144c0565b601854916121676001600160a01b038416156144c0565b6001600160a01b03199081169190911760175516176018556108fd614baa565b60405162461bcd60e51b8152602060048201526011602482015270496e76616c69642061646472657373657360781b6044820152606490fd5b50811515612134565b50346103685780600319360112610368576104206040516105458161053e81613af2565b5034610368576020366003190112610368576004356001600160401b0381116109635761221e903690600401613785565b81546122449060ff9061223b336001600160a01b03831614613f60565b60a01c16613fd4565b601d54600181018091116122bd5790817fbb4ba47257d82c025e976bcdc375cc2e26de94efd111bca20cbc9a330d29745592601d5542600255600080516020614d538339815191526020604051838152a16122b16040519283928352606060208401526060830190613907565b4260408301520390a180f35b634e487b7160e01b83526011600452602483fd5b50346103685780600319360112610368576104206040516105458161053e81613c79565b5034610368576020366003190112610368576040906001600160a01b0361231a613700565b1681526013602052206040519061233082613716565b80546001600160a01b031682526040519161042090612356846104f98160018701613eb8565b83602082015260ff600360028501549485604085015201541615159081606082015260018060a01b039051169260405194859485613a85565b50346103685760203660031901126103685760043590601954821015610368576020611f9583613a06565b50346103685780600319360112610368576020600a54604051908152f35b50346103685760a0366003190112610368576004356001600160401b03811161096357612409903690600401613785565b6024356001600160401b038111610c0157612428903690600401613785565b60643590604435906084356001600160401b03811161151c5761244f903690600401613829565b9361246460018060a01b038754163314613f60565b821561275957831561271f578051906001600160401b03821161270b5761248c600b54613ab8565b601f81116126cf575b50602090601f831160011461266a576124b892918891836125aa575b5050614022565b600b555b8051906001600160401b038211612656576124d8600c54613ab8565b601f811161261a575b50602090601f83116001146125b55761250392918791836125aa575050614022565b600c555b600d55600e55805190600160401b821161110057600f5482600f55808310612571575b50600f83528290600080516020614df3833981519152906020015b83831061255457844260025580f35b600160208261256583945186614124565b01920192019190612545565b600f8452600080516020614df38339815191529081019083015b818110612598575061252a565b806125a4600192614470565b0161258b565b0151905038806124b1565b600c87528187209190601f198416885b81811061260257509084600195949392106125e9575b505050811b01600c55612507565b015160001960f88460031b161c191690553880806125db565b929360206001819287860151815501950193016125c5565b600c875261265090600080516020614c73833981519152601f850160051c810191602086106119cc57601f0160051c019061400b565b386124e1565b634e487b7160e01b86526041600452602486fd5b600b88528188209190601f198416895b8181106126b7575090846001959493921061269e575b505050811b01600b556124bc565b015160001960f88460031b161c19169055388080612690565b9293602060018192878601518155019501930161267a565b600b885261270590600080516020614d73833981519152601f850160051c810191602086106119cc57601f0160051c019061400b565b38612495565b634e487b7160e01b87526041600452602487fd5b60405162461bcd60e51b8152602060048201526012602482015271496e76616c69642062617463682073697a6560701b6044820152606490fd5b60405162461bcd60e51b815260206004820152601560248201527424b73b30b634b21036b0bc1034ba32b930ba34b7b760591b6044820152606490fd5b5034610368576128197f0a1e2f362ccc64de291011914f5087c611557a7331c80f2cdd2aacf89b9dc5646127c9366139b9565b6127de60018060a01b03601754163314614326565b60405160208184516127f381838589016138e4565b8101601281520301902060ff198154169055601d54938492604051938493429285614372565b0390a1600190829183601154905b8181106128c65750816128bc575b5061283e578280f35b7f72db402a1d505e0ee50fba411e34bd1f9a6e90ab67b824c438255e747a886b289161287160405192839242918461445a565b0390a1601154816011558061288557808280f35b60118252600080516020614cf3833981519152908101905b8181106128aa5750808280f35b806128b6600192614470565b0161289d565b9050151538612835565b9160ff6128d561046a85613a37565b5416156128e85750600185925b01612827565b91936128f5600191614435565b946128e2565b503461036857806003193601126103685760ff6020915460a01c166040519015158152f35b5034610368576080366003190112610368576004356001600160401b03811161096357612951903690600401613785565b906024356001600160401b03811161096357612971903690600401613785565b916044356001600160401b038111610c0157612991903690600401613785565b6064356001600160401b038111611524576129b0903690600401613785565b916129c560018060a01b038554163314613f60565b8051906001600160401b038211612ca7576129e1600454613ab8565b601f8111612c6b575b50602090601f8311600114612c0657612a0c92918691836125aa575050614022565b6004555b83516001600160401b038111612b5d57612a2b600554613ab8565b601f8111612bd5575b50602094601f8211600114612b715784958291612a59949596926125aa575050614022565b6005555b8051906001600160401b038211612b5d57612a79600654613ab8565b601f8111612b21575b50602090601f8311600114612ab8579180612aa992612ab1959487926125aa575050614022565b600655614035565b4260025580f35b600685528185209190601f198416865b818110612b095750916001939185612ab197969410612af0575b505050811b01600655614035565b015160001960f88460031b161c19169055388080612ae2565b92936020600181928786015181550195019301612ac8565b60068552612b5790600080516020614d93833981519152601f850160051c810191602086106119cc57601f0160051c019061400b565b38612a82565b634e487b7160e01b84526041600452602484fd5b601f198216956005865280862091865b888110612bbd57508360019596979810612ba4575b505050811b01600555612a5d565b015160001960f88460031b161c19169055388080612b96565b91926020600181928685015181550194019201612b81565b612c00906005865260208620601f840160051c810191602085106119cc57601f0160051c019061400b565b38612a34565b600486528186209190601f198416875b818110612c535750908460019594939210612c3a575b505050811b01600455612a10565b015160001960f88460031b161c19169055388080612c2c565b92936020600181928786015181550195019301612c16565b60048652612ca190600080516020614db3833981519152601f850160051c810191602086106119cc57601f0160051c019061400b565b386129ea565b634e487b7160e01b85526041600452602485fd5b5034610368578060031936011261036857600160a01b60019003905416600954600a5491600d54600e546040519384612cf381613af2565b03612cfe9086613747565b6040519586612d0c81613b81565b03612d179088613747565b6040519182612d2581613c06565b03612d309084613747565b6040519182612d3e81613c79565b03612d499084613747565b6040519283612d5781613cec565b03612d629085613747565b6040519485612d7081613d5f565b03612d7b9087613747565b612d836142bb565b986040519b8c9b6101808d526101808d01612d9d91613907565b8c810360208e0152612dae91613907565b9060408c01528a810360608c0152612dc591613907565b89810360808b0152612dd691613907565b9160a089015260c088015286810360e0880152612df291613907565b858103610100870152612e0491613907565b916101208501526101408401528281036101608401526104209161392c565b503461036857806003193601126103685760195490612e4182614289565b90612e4b83613812565b612e586040519182613747565b838152601f19612e6785613812565b01825b818110612f5f575050612e7c84614289565b93612e8681614289565b92805b828110612ed057611ee28661042087612ec28b612eb48a6040519788976080895260808901906138a7565b908582036040870152613985565b908382036060850152613985565b80612edc600192613a06565b838060a01b0391549060031b1c1680612ef5838a61424c565b52808452601a60205261053e612f146040862060405192838092613eb8565b612f1e838861424c565b52612f29828761424c565b50808452601b6020526040842054612f41838b61424c565b528352601c6020526040832054612f58828861424c565b5201612e89565b806060602080938601015201612e6a565b5034610368576040366003190112610368576004356001600160401b03811161096357612fa1903690600401613829565b6024356001600160401b038111610c0157612fc0903690600401613829565b601754909190612fda906001600160a01b03161515614206565b8051825103613415578051156133e257825b81518110156131035760ff61301a6020613006848661424c565b5181604051938285809451938492016138e4565b810160128152030190205416156130bf57613035818361424c565b51511561308857613046818461424c565b51511561305557600101612fec565b60405162461bcd60e51b815260206004820152600b60248201526a115b5c1d1e481b1858995b60aa1b6044820152606490fd5b60405162461bcd60e51b815260206004820152600f60248201526e115b5c1d1e481cd85b5c1b19481251608a1b6044820152606490fd5b60405162461bcd60e51b815260206004820152601c60248201527b53616d706c65206e6f742061637469766520666f7220766f74696e6760201b6044820152606490fd5b509190338252601a60205261311b6040832054613ab8565b15613336575b338252601a6020526131366040832054613ab8565b156132f5576017546040516320a7c73b60e11b81523360048201526001600160a01b039091169290602081602481875afa90811561044b5782916132c3575b501561326e57805b84518110156131fd57807f55b5b37db3e79e0cf5fa16c3b213f5856ebaf6a6e58c56813245533b65587bbd6131da6131b76001948961424c565b516131ee6131c5858961424c565b51604051938493608085526080850190613907565b903360208501528382036040850152613907565b4260608301520390a10161317d565b50928391833b15610c01576132499361323784809460405197889586948593639a6e81ab60e01b855260606004860152606485019061392c565b8381036003190160248501529061392c565b33604483015203925af18015611451576132605780f35b61326991613747565b388180f35b60405162461bcd60e51b815260206004820152602760248201527f566f746572206e6f74207265676973746572656420696e20766f74696e6720636044820152661bdb9d1c9858dd60ca1b6064820152608490fd5b90506020813d6020116132ed575b816132de60209383613747565b81010312610963575138613175565b3d91506132d1565b60405162461bcd60e51b8152602060048201526019602482015278139bdd0818481c1c9bda9958dd081c185c9d1a58da5c185b9d603a1b6044820152606490fd5b61333e614260565b338352601a6020526133566107b26040852054613ab8565b61335f33614708565b338352601a6020526133748160408520614124565b338352601b60205260016040842055338352601c6020524260408420557fbceee304ac8d461cb65ac9f6dc37bbcb2c2c34c155224ffbfdc4752b89008f736133c760405192604084526040840190613907565b91600160208201528033930390a26133dd614baa565b613121565b60405162461bcd60e51b815260206004820152600b60248201526a08adae0e8f240c4c2e8c6d60ab1b6044820152606490fd5b60405162461bcd60e51b81526020600482015260116024820152704d69736d6174636865642061727261797360781b6044820152606490fd5b50346103685780600319360112610368576018546040516001600160a01b039091168152602090f35b5034610368576020366003190112610368576004356001600160401b038111610963576134a8903690600401613785565b906134c360ff825461223b60018060a01b0382163314613f60565b8151156135d35781516001600160401b0381116119d6576134e5600354613ab8565b601f8111613597575b50602092601f8211600114613535578293829161351194926125aa575050614022565b60035542600255604051428152600080516020614cd383398151915260203392a280f35b601f198216936003845280842091845b86811061357f5750836001959610613566575b505050811b016003556108fd565b015160001960f88460031b161c19169055388080613558565b91926020600181928685015181550194019201613545565b600383526135cd90600080516020614c93833981519152601f840160051c810191602085106119cc57601f0160051c019061400b565b386134ee565b60405162461bcd60e51b815260206004820152600a602482015269456d707479206461746160b01b6044820152606490fd5b5034610368578060031936011261036857546040516001600160a01b039091168152602090f35b5034610368576136a761363e366137cc565b91929061365560018060a01b038654163314613f60565b61366181511515613f9b565b61369660018060a01b03851694858752601a6020526136866107b26040892054613ab8565b613691851515614aa1565b614708565b838552601a60205260408520614124565b818352601b6020526040832055808252601c602052426040832055600080516020614dd38339815191528280a26107c6614baa565b90503461096357816003193601126109635790546001600160a01b03168152602090f35b600435906001600160a01b038216820361205c57565b608081019081106001600160401b0382111761373157604052565b634e487b7160e01b600052604160045260246000fd5b601f909101601f19168101906001600160401b0382119082101761373157604052565b6001600160401b03811161373157601f01601f191660200190565b81601f8201121561205c5780359061379c8261376a565b926137aa6040519485613747565b8284526020838301011161205c57816000926020809301838601378301015290565b90606060031983011261205c576004356001600160a01b038116810361205c5791602435906001600160401b03821161205c5761380b91600401613785565b9060443590565b6001600160401b0381116137315760051b60200190565b9080601f8301121561205c57813561384081613812565b9261384e6040519485613747565b81845260208085019260051b8201019183831161205c5760208201905b83821061387a57505050505090565b81356001600160401b03811161205c5760209161389c87848094880101613785565b81520191019061386b565b906020808351928381520192019060005b8181106138c55750505090565b82516001600160a01b03168452602093840193909201916001016138b8565b60005b8381106138f75750506000910152565b81810151838201526020016138e7565b90602091613920815180928185528580860191016138e4565b601f01601f1916010190565b9080602083519182815201916020808360051b8301019401926000915b83831061395857505050505090565b9091929394602080613976600193601f198682030187528951613907565b97019301930191939290613949565b906020808351928381520192019060005b8181106139a35750505090565b8251845260209384019390920191600101613996565b90604060031983011261205c576004356001600160401b03811161205c57826139e491600401613785565b91602435906001600160401b03821161205c57613a0391600401613785565b90565b601954811015613a2157601960005260206000200190600090565b634e487b7160e01b600052603260045260246000fd5b601154811015613a2157601160005260206000200190600090565b601554811015613a2157601560005260206000200190600090565b8054821015613a215760005260206000200190600090565b92949390606092613aab9160018060a01b03168552608060208601526080850190613907565b9460408401521515910152565b90600182811c92168015613ae8575b6020831014613ad257565b634e487b7160e01b600052602260045260246000fd5b91607f1691613ac7565b60045460009291613b0282613ab8565b8082529160018116908115613b655750600114613b1d575050565b60046000908152929350909190600080516020614db38339815191525b838310613b4b575060209250010190565b600181602092949394548385870101520191019190613b3a565b9050602093945060ff929192191683830152151560051b010190565b60055460009291613b9182613ab8565b8082529160018116908115613b655750600114613bac575050565b600560009081529293509091907f036b6384b5eca791c62761152d0c79bb0604c104a5fb6f4eb0703f3154bb3db05b838310613bec575060209250010190565b600181602092949394548385870101520191019190613bdb565b60065460009291613c1682613ab8565b8082529160018116908115613b655750600114613c31575050565b60066000908152929350909190600080516020614d938339815191525b838310613c5f575060209250010190565b600181602092949394548385870101520191019190613c4e565b60075460009291613c8982613ab8565b8082529160018116908115613b655750600114613ca4575050565b60076000908152929350909190600080516020614d138339815191525b838310613cd2575060209250010190565b600181602092949394548385870101520191019190613cc1565b600b5460009291613cfc82613ab8565b8082529160018116908115613b655750600114613d17575050565b600b6000908152929350909190600080516020614d738339815191525b838310613d45575060209250010190565b600181602092949394548385870101520191019190613d34565b600c5460009291613d6f82613ab8565b8082529160018116908115613b655750600114613d8a575050565b600c6000908152929350909190600080516020614c738339815191525b838310613db8575060209250010190565b600181602092949394548385870101520191019190613da7565b60035460009291613de282613ab8565b8082529160018116908115613b655750600114613dfd575050565b60036000908152929350909190600080516020614c938339815191525b838310613e2b575060209250010190565b600181602092949394548385870101520191019190613e1a565b60085460009291613e5582613ab8565b8082529160018116908115613b655750600114613e70575050565b60086000908152929350909190600080516020614d338339815191525b838310613e9e575060209250010190565b600181602092949394548385870101520191019190613e8d565b60009291815491613ec883613ab8565b8083529260018116908115613f1e5750600114613ee457505050565b60009081526020812093945091925b838310613f04575060209250010190565b600181602092949394548385870101520191019190613ef3565b915050602093945060ff929192191683830152151560051b010190565b9091613f52613a03936040845260408401906138a7565b916020818403910152613985565b15613f6757565b60405162461bcd60e51b815260206004820152600c60248201526b27b7363c9031b932b0ba37b960a11b6044820152606490fd5b15613fa257565b60405162461bcd60e51b815260206004820152600a602482015269456d70747920726f6c6560b01b6044820152606490fd5b15613fdb57565b60405162461bcd60e51b8152602060048201526008602482015267496e61637469766560c01b6044820152606490fd5b818110614016575050565b6000815560010161400b565b8160011b916000199060031b1c19161790565b80519091906001600160401b03811161373157614053600754613ab8565b601f81116140e7575b50602092601f821160011461408557614080929382916000926125aa575050614022565b600755565b601f198216936007600052806000209160005b8681106140cf57508360019596106140b6575b505050811b01600755565b015160001960f88460031b161c191690553880806140ab565b91926020600181928685015181550194019201614098565b600760005261411e90600080516020614d13833981519152601f840160051c810191602085106119cc57601f0160051c019061400b565b3861405c565b81519192916001600160401b038111613731576141418254613ab8565b601f81116141d4575b506020601f821160011461417257819061416e9394956000926125aa575050614022565b9055565b601f1982169083600052806000209160005b8181106141bc575095836001959697106141a3575b505050811b019055565b015160001960f88460031b161c19169055388080614199565b9192602060018192868b015181550194019201614184565b61420090836000526020600020601f840160051c810191602085106119cc57601f0160051c019061400b565b3861414a565b1561420d57565b60405162461bcd60e51b8152602060048201526017602482015276159bdd1a5b99c818dbdb9d1c9858dd081b9bdd081cd95d604a1b6044820152606490fd5b8051821015613a215760209160051b010190565b6040519061426f604083613747565b600b82526a31b7b73a3934b13aba37b960a91b6020830152565b9061429382613812565b6142a06040519182613747565b82815280926142b1601f1991613812565b0190602036910137565b600f54906142c882613812565b916142d66040519384613747565b808352600f6000908152600080516020614df3833981519152602085015b8383106143015750505050565b6001602081926040516143188161053e8189613eb8565b8152019201920191906142f4565b1561432d57565b60405162461bcd60e51b815260206004820152601d60248201527f4f6e6c7920766f74696e6720636f6e74726163742063616e2063616c6c0000006044820152606490fd5b9060609261438f61439d9297969597608085526080850190613907565b908382036020850152613907565b9460408201520152565b604051908160008254926143ba84613ab8565b936001811690811561441b57506001146143df575b5060209250601281520301902090565b9150506000528160206000206000905b8382106144035750506020918101386143cf565b602091925080600191548487015201910183916143ef565b60ff191684525060209380151502830191503890506143cf565b60001981146144445760010190565b634e487b7160e01b600052601160045260246000fd5b6040919493926060820195825260208201520152565b61447a8154613ab8565b9081614484575050565b81601f600093116001146144975750555b565b818352602083206144b391601f0160051c81019060010161400b565b8082528160208120915555565b156144c757565b60405162461bcd60e51b815260206004820152600e60248201526d105b1c9958591e481b1a5b9ad95960921b6044820152606490fd5b81601f8201121561205c5780519061451482613812565b926145226040519485613747565b82845260208085019360051b8301019181831161205c5760208101935b83851061454e57505050505090565b84516001600160401b03811161205c5782019083603f8301121561205c5760208201519061457b8261376a565b6145886040519182613747565b828152604084840101861061205c576145ac602094938594604086850191016138e4565b81520194019361453f565b9160a08383031261205c5782516001600160401b03811161205c57826145de9185016144fd565b60208401519093906001600160401b03811161205c57836146009183016144fd565b604082015190936001600160401b03821161205c576146209183016144fd565b916080606083015192015190565b90806020835491828152019160208260051b820101936000526020600020926000915b83831061466057505050505090565b90919293946020600161467d8193601f1986820301875289613eb8565b97019301930191939290614651565b906020808351928381520192019060005b8181106146aa5750505090565b8251151584526020938401939092019160010161469d565b6146fe6146ef6080939695949660a084526146e160a08501601161462e565b90848203602086015261468c565b8281036040840152600f61462e565b9460608201520152565b601954600160401b8110156137315780600161472992016019556019613a6d565b81546001600160a01b0393841660039290921b91821b9390911b1916919091179055565b929190614764602091604086526040860190613907565b930152565b5190811515820361205c57565b6040516361d25a0d60e11b8152602081600481305afa9081156148ba57600091614880575b5061487b57604051600654906000816147b384613ab8565b91828252602082019460018116908160001461485f5750600114614811575b6147de92500382613747565b519020600f60206040516147f3604082613747565b828152016e6163746976655f6c6561726e696e6760881b8152201490565b50600660009081529091600080516020614d938339815191525b8183106148435750509060206147de928201016147d2565b602091935080600191548385880101520191019091839261482b565b60ff19168652506147de92151560051b820160200190506147d2565b600090565b90506020813d6020116148b2575b8161489b60209383613747565b8101031261205c576148ac90614769565b3861479b565b3d915061488e565b6040513d6000823e3d90fd5b9080601f8301121561205c578151906148de82613812565b926148ec6040519485613747565b82845260208085019360051b82010191821161205c57602001915b8183106149145750505090565b82516001600160a01b038116810361205c57815260209283019201614907565b9080601f8301121561205c57815161494b81613812565b926149596040519485613747565b81845260208085019260051b82010192831161205c57602001905b8282106149815750505090565b8151815260209182019101614974565b91909160408184031261205c5780516001600160401b03811161205c57836149ba9183016148c6565b60208201519093906001600160401b03811161205c57613a039201614934565b156149e157565b60405162461bcd60e51b815260206004820152601860248201527714dd1bdc9859d94818dbdb9d1c9858dd081b9bdd081cd95d60421b6044820152606490fd5b93929161476490614a3c604093606088526060880190613907565b908682036020880152613907565b15614a5157565b60405162461bcd60e51b815260206004820152600a602482015269139bc81c995c5d595cdd60b21b6044820152606490fd5b6003600091828155614a9760018201614470565b8260028201550155565b15614aa857565b60405162461bcd60e51b8152602060048201526017602482015276576569676874206d75737420626520706f73697469766560481b6044820152606490fd5b15614aee57565b60405162461bcd60e51b8152602060048201526013602482015272105b1c9958591e481c185c9d1a58da5c185b9d606a1b6044820152606490fd5b90614b7290614b5f60018060a01b0384169384600052601a602052614b556107b2604060002054613ab8565b6136916001614aa1565b82600052601a6020526040600020614124565b80600052601b602052600160406000205580600052601c60205242604060002055600080516020614dd3833981519152600080a26144955b6017546000906001600160a01b03168015614c6e5760405163500b23f360e11b8152908282600481305afa918215614c635783908493614c44575b508051614bf3575b50505050565b813b1561152457918391614c1e9383604051809681958294631d70957f60e21b845260048401613f3b565b03925af1801561044b57614c34575b8080614bed565b81614c3e91613747565b38614c2d565b9050614c5b9192503d8085833e6114418183613747565b919038614be5565b6040513d85823e3d90fd5b505056fedf6966c971051c3d54ec59162606531493a51404a002842f56009d7e5cf4a8c7c2575a0e9e593c00f959f8c92f12db2869c3395a3b0502d05e2516446f71f85b9b196abb2588eccefb36f3e6c9b15d9e260c633d5b2e0b8f497e6e71c6c1c1eac1756fd99ac9a2b1b22b5e701ddb022b897a002144d045b77ac35ce46610fef631ecc21a745e3968a04e9570e4425bc18fa8019c68028196b546d1669c200c68a66cc928b5edb82af9bd49922954155ab7b0942694bea4ce44661d9a8736c688f3f7a9fe364faab93b216da50a3214154f22a0a2b415b23a84c8169e8b636ee39aa934e5a98d12b60dabec0f34647f2b63b8fd257ba6480e7ded4cc1ef24c5730175b7a638427703f0dbe7bb9bbf987a2551717b34e79f33b5b1008d1fa01db9f652222313e28459528d920b65115c16c04f3efc82aaedc97be59f3f377c0d3f8a35acfbc15ff81a39ae7d344fd709f28e8600b4aa8c65c6b64bfe7fe36bd19b31d3ac54da09405b02d1de0ee0de648de637fbdc111123be0d7fc31f2a544c0b8d1108e10bcb7c27dddfc02ed9d693a074039d026cf4ea4240b40f7d581ac802a26469706673582212201cf7cb2492b6ab1813352325c0feb4e522f77d88d29f864f4e887cbddeda4e2364736f6c634300081c0033",
  "linkReferences": {},
  "deployedLinkReferences": {}
}