{
  "_format": "hh-sol-artifact-1",
  "contractName": "UserMetadataFactory",
  "sourceName": "contracts/UserMetadataFactory.sol",
  "abi": [
    {
      "anonymous": false,
      "inputs": [
        {
          "indexed": true,
          "internalType": "address",
          "name": "user",
          "type": "address"
        },
        {
          "indexed": false,
          "internalType": "address",
          "name": "metadataContract",
          "type": "address"
        }
      ],
      "name": "UserMetadataCreated",
      "type": "event"
    },
    {
      "inputs": [
        {
          "internalType": "uint256",
          "name": "",
          "type": "uint256"
        }
      ],
      "name": "allUsers",
      "outputs": [
        {
          "internalType": "address",
          "name": "",
          "type": "address"
        }
      ],
      "stateMutability": "view",
      "type": "function"
    },
    {
      "inputs": [],
      "name": "getAllUsers",
      "outputs": [
        {
          "internalType": "address[]",
          "name": "",
          "type": "address[]"
        }
      ],
      "stateMutability": "view",
      "type": "function"
    },
    {
      "inputs": [],
      "name": "getTotalUsers",
      "outputs": [
        {
          "internalType": "uint256",
          "name": "",
          "type": "uint256"
        }
      ],
      "stateMutability": "view",
      "type": "function"
    },
    {
      "inputs": [
        {
          "internalType": "address",
          "name": "user",
          "type": "address"
        }
      ],
      "name": "getUserMetadataContract",
      "outputs": [
        {
          "internalType": "address",
          "name": "",
          "type": "address"
        }
      ],
      "stateMutability": "view",
      "type": "function"
    },
    {
      "inputs": [
        {
          "internalType": "address",
          "name": "user",
          "type": "address"
        }
      ],
      "name": "getUserMetadataJSON",
      "outputs": [
        {
          "internalType": "string",
          "name": "",
          "type": "string"
        }
      ],
      "stateMutability": "view",
      "type": "function"
    },
    {
      "inputs": [
        {
          "internalType": "string",
          "name": "email",
          "type": "string"
        },
        {
          "internalType": "string",
          "name": "name",
          "type": "string"
        },
        {
          "internalType": "string",
          "name": "institution",
          "type": "string"
        }
      ],
      "name": "registerUser",
      "outputs": [],
      "stateMutability": "nonpayable",
      "type": "function"
    },
    {
      "inputs": [
        {
          "internalType": "address",
          "name": "",
          "type": "address"
        }
      ],
      "name": "userMetadataContracts",
      "outputs": [
        {
          "internalType": "address",
          "name": "",
          "type": "address"
        }
      ],
      "stateMutability": "view",
      "type": "function"
    }
  ],
  "bytecode": "0x6080604052348015600f57600080fd5b506112258061001f6000396000f3fe608060405234801561001057600080fd5b506004361061007d5760003560e01c8063a35ea4dc1161005b578063a35ea4dc146100ef578063d637dcfa14610118578063e2842d791461012d578063ee69c4261461014257600080fd5b8063073b4c95146100825780639be572f6146100cb578063a2bdedf4146100dc575b600080fd5b6100ae610090366004610405565b6001600160a01b039081166000908152602081905260409020541690565b6040516001600160a01b0390911681526020015b60405180910390f35b6001546040519081526020016100c2565b6100ae6100ea36600461042e565b610162565b6100ae6100fd366004610405565b6000602081905290815260409020546001600160a01b031681565b61012b61012636600461050c565b61018c565b005b6101356102c8565b6040516100c291906105a0565b610155610150366004610405565b61032a565b6040516100c2919061063c565b6001818154811061017257600080fd5b6000918252602090912001546001600160a01b0316905081565b336000908152602081905260409020546001600160a01b0316156101ec5760405162461bcd60e51b8152602060048201526012602482015271105b1c9958591e481c9959da5cdd195c995960721b60448201526064015b60405180910390fd5b6000338484846040516101fe906103f8565b61020b949392919061064f565b604051809103906000f080158015610227573d6000803e3d6000fd5b503360008181526020818152604080832080546001600160a01b0387166001600160a01b0319918216811790925560018054808201825595527fb10e2d527612073b26eecdfd717e6a320cf44b4afac2b0732d9fcbe2b7fa0cf6909401805490941685179093555191825292935090917fb6f19680cffbaef72e9e8c7664c30f56d86dd917d14d3ed104529c7c888e74a1910160405180910390a250505050565b6060600180548060200260200160405190810160405280929190818152602001828054801561032057602002820191906000526020600020905b81546001600160a01b03168152600190910190602001808311610302575b5050505050905090565b6001600160a01b03808216600090815260208190526040902054606091168061038b5760405162461bcd60e51b8152602060048201526013602482015272155cd95c881b9bdd081c9959da5cdd195c9959606a1b60448201526064016101e3565b806001600160a01b031663db00e6b56040518163ffffffff1660e01b8152600401600060405180830381865afa1580156103c9573d6000803e3d6000fd5b505050506040513d6000823e601f3d908101601f191682016040526103f191908101906106a4565b9392505050565b610ad48061071c83390190565b60006020828403121561041757600080fd5b81356001600160a01b03811681146103f157600080fd5b60006020828403121561044057600080fd5b5035919050565b634e487b7160e01b600052604160045260246000fd5b604051601f8201601f1916810167ffffffffffffffff8111828210171561048657610486610447565b604052919050565b600067ffffffffffffffff8211156104a8576104a8610447565b50601f01601f191660200190565b600082601f8301126104c757600080fd5b81356104da6104d58261048e565b61045d565b8181528460208386010111156104ef57600080fd5b816020850160208301376000918101602001919091529392505050565b60008060006060848603121561052157600080fd5b833567ffffffffffffffff81111561053857600080fd5b610544868287016104b6565b935050602084013567ffffffffffffffff81111561056157600080fd5b61056d868287016104b6565b925050604084013567ffffffffffffffff81111561058a57600080fd5b610596868287016104b6565b9150509250925092565b602080825282518282018190526000918401906040840190835b818110156105e15783516001600160a01b03168352602093840193909201916001016105ba565b509095945050505050565b60005b838110156106075781810151838201526020016105ef565b50506000910152565b600081518084526106288160208601602086016105ec565b601f01601f19169290920160200192915050565b6020815260006103f16020830184610610565b6001600160a01b038516815260806020820181905260009061067390830186610610565b82810360408401526106858186610610565b905082810360608401526106998185610610565b979650505050505050565b6000602082840312156106b657600080fd5b815167ffffffffffffffff8111156106cd57600080fd5b8201601f810184136106de57600080fd5b80516106ec6104d58261048e565b81815285602083850101111561070157600080fd5b6107128260208301602086016105ec565b9594505050505056fe608060405234801561001057600080fd5b50604051610ad4380380610ad483398101604081905261002f91610133565b600080546001600160a01b0319166001600160a01b03861617905560016100568482610271565b5060026100638382610271565b5060036100708282610271565b505050505061032f565b634e487b7160e01b600052604160045260246000fd5b600082601f8301126100a157600080fd5b81516001600160401b038111156100ba576100ba61007a565b604051601f8201601f19908116603f011681016001600160401b03811182821017156100e8576100e861007a565b60405281815283820160200185101561010057600080fd5b60005b8281101561011f57602081860181015183830182015201610103565b506000918101602001919091529392505050565b6000806000806080858703121561014957600080fd5b84516001600160a01b038116811461016057600080fd5b60208601519094506001600160401b0381111561017c57600080fd5b61018887828801610090565b604087015190945090506001600160401b038111156101a657600080fd5b6101b287828801610090565b606087015190935090506001600160401b038111156101d057600080fd5b6101dc87828801610090565b91505092959194509250565b600181811c908216806101fc57607f821691505b60208210810361021c57634e487b7160e01b600052602260045260246000fd5b50919050565b601f82111561026c57806000526020600020601f840160051c810160208510156102495750805b601f840160051c820191505b818110156102695760008155600101610255565b50505b505050565b81516001600160401b0381111561028a5761028a61007a565b61029e8161029884546101e8565b84610222565b6020601f8211600181146102d257600083156102ba5750848201515b600019600385901b1c1916600184901b178455610269565b600084815260208120601f198516915b8281101561030257878501518255602094850194600190920191016102e2565b50848210156103205786840151600019600387901b60f8161c191681555b50505050600190811b01905550565b6107968061033e6000396000f3fe608060405234801561001057600080fd5b50600436106100575760003560e01c806306fdde031461005c578063820e93f51461007a5780638da5cb5b14610082578063d1384eb6146100ad578063db00e6b5146100b5575b600080fd5b6100646100bd565b60405161007191906103ad565b60405180910390f35b61006461014b565b600054610095906001600160a01b031681565b6040516001600160a01b039091168152602001610071565b610064610158565b610064610165565b600280546100ca906103e0565b80601f01602080910402602001604051908101604052809291908181526020018280546100f6906103e0565b80156101435780601f1061011857610100808354040283529160200191610143565b820191906000526020600020905b81548152906001019060200180831161012657829003601f168201915b505050505081565b600180546100ca906103e0565b600380546100ca906103e0565b60005460609061017d906001600160a01b03166101aa565b60016002600360405160200161019694939291906104b6565b604051602081830303815290604052905090565b60408051602a808252606082810190935260009190602082018180368337019050509050600360fc1b816000815181106101e6576101e661055d565b60200101906001600160f81b031916908160001a905350600f60fb1b816001815181106102155761021561055d565b60200101906001600160f81b031916908160001a90535060005b601481101561034c576000610245826013610589565b6102509060086105a2565b61025b9060026106a0565b61026e906001600160a01b0387166106c9565b60f81b9050600060108260f81c61028591906106dd565b60f81b905060008160f81c601061029c91906106ff565b8360f81c6102aa919061071b565b60f81b90506102b882610353565b856102c48660026105a2565b6102cf906002610734565b815181106102df576102df61055d565b60200101906001600160f81b031916908160001a9053506102ff81610353565b8561030b8660026105a2565b610316906003610734565b815181106103265761032661055d565b60200101906001600160f81b031916908160001a905350506001909201915061022f9050565b5092915050565b6000600a60f883901c101561037a5761037160f883901c6030610747565b60f81b92915050565b61037160f883901c6057610747565b60005b838110156103a457818101518382015260200161038c565b50506000910152565b60208152600082518060208401526103cc816040850160208701610389565b601f01601f19169190910160400192915050565b600181811c908216806103f457607f821691505b60208210810361041457634e487b7160e01b600052602260045260246000fd5b50919050565b8054600090600181811c9082168061043357607f821691505b60208210810361045357634e487b7160e01b600052602260045260246000fd5b808015610467576001811461047c576104ac565b60ff19841687528215158302870194506104ac565b60008681526020902060005b848110156104a457815489820152600190910190602001610488565b505082870194505b5050505092915050565b6a3d913bb0b63632ba111d1160a91b815284516000906104dd81600b850160208a01610389565b6a11161132b6b0b4b6111d1160a91b600b91840191820152610502601682018761041a565b691116113730b6b2911d1160b11b81529050610521600a82018661041a565b7011161134b739ba34ba3aba34b7b7111d1160791b81529050610547601182018561041a565b61227d60f01b8152600201979650505050505050565b634e487b7160e01b600052603260045260246000fd5b634e487b7160e01b600052601160045260246000fd5b8181038181111561059c5761059c610573565b92915050565b808202811582820484141761059c5761059c610573565b6001815b60018411156105f4578085048111156105d8576105d8610573565b60018416156105e657908102905b60019390931c9280026105bd565b935093915050565b60008261060b5750600161059c565b816106185750600061059c565b816001811461062e576002811461063857610654565b600191505061059c565b60ff84111561064957610649610573565b50506001821b61059c565b5060208310610133831016604e8410600b8410161715610677575081810a61059c565b61068460001984846105b9565b806000190482111561069857610698610573565b029392505050565b60006106ac83836105fc565b9392505050565b634e487b7160e01b600052601260045260246000fd5b6000826106d8576106d86106b3565b500490565b600060ff8316806106f0576106f06106b3565b8060ff84160491505092915050565b60ff818116838216029081169081811461034c5761034c610573565b60ff828116828216039081111561059c5761059c610573565b8082018082111561059c5761059c610573565b60ff818116838216019081111561059c5761059c61057356fea2646970667358221220ebae2d4f062323b72ef6e4b505c7f57a3c4773bea8f51f2071376dc183a87cc764736f6c634300081c0033a26469706673582212205680f9129c1f164977f884f0532de4e5a2795868216b6c8eea47a45493b720b464736f6c634300081c0033",
  "linkReferences": {},
  "deployedLinkReferences": {}
}