{
  "_format": "hh-sol-artifact-1",
  "contractName": "UserMetadataFactory",
  "sourceName": "contracts/UserMetadataFactory.sol",
  "abi": [
    {
      "anonymous": false,
      "inputs": [
        {
          "indexed": true,
          "internalType": "address",
          "name": "user",
          "type": "address"
        },
        {
          "indexed": false,
          "internalType": "address",
          "name": "metadataContract",
          "type": "address"
        }
      ],
      "name": "UserMetadataCreated",
      "type": "event"
    },
    {
      "inputs": [
        {
          "internalType": "uint256",
          "name": "",
          "type": "uint256"
        }
      ],
      "name": "allUsers",
      "outputs": [
        {
          "internalType": "address",
          "name": "",
          "type": "address"
        }
      ],
      "stateMutability": "view",
      "type": "function"
    },
    {
      "inputs": [],
      "name": "getAllUsers",
      "outputs": [
        {
          "internalType": "address[]",
          "name": "",
          "type": "address[]"
        }
      ],
      "stateMutability": "view",
      "type": "function"
    },
    {
      "inputs": [],
      "name": "getTotalUsers",
      "outputs": [
        {
          "internalType": "uint256",
          "name": "",
          "type": "uint256"
        }
      ],
      "stateMutability": "view",
      "type": "function"
    },
    {
      "inputs": [
        {
          "internalType": "address",
          "name": "user",
          "type": "address"
        }
      ],
      "name": "getUserMetadataContract",
      "outputs": [
        {
          "internalType": "address",
          "name": "",
          "type": "address"
        }
      ],
      "stateMutability": "view",
      "type": "function"
    },
    {
      "inputs": [
        {
          "internalType": "address",
          "name": "user",
          "type": "address"
        }
      ],
      "name": "getUserMetadataJSON",
      "outputs": [
        {
          "internalType": "string",
          "name": "",
          "type": "string"
        }
      ],
      "stateMutability": "view",
      "type": "function"
    },
    {
      "inputs": [
        {
          "internalType": "string",
          "name": "email",
          "type": "string"
        },
        {
          "internalType": "string",
          "name": "name",
          "type": "string"
        },
        {
          "internalType": "string",
          "name": "institution",
          "type": "string"
        }
      ],
      "name": "registerUser",
      "outputs": [],
      "stateMutability": "nonpayable",
      "type": "function"
    },
    {
      "inputs": [
        {
          "internalType": "address",
          "name": "",
          "type": "address"
        }
      ],
      "name": "userMetadataContracts",
      "outputs": [
        {
          "internalType": "address",
          "name": "",
          "type": "address"
        }
      ],
      "stateMutability": "view",
      "type": "function"
    }
  ],
  "bytecode": "0x608080604052346015576113a4908161001b8239f35b600080fdfe608080604052600436101561001357600080fd5b60003560e01c908163073b4c95146104f2575080639be572f6146104d4578063a2bdedf414610492578063a35ea4dc1461044c578063d637dcfa14610274578063e2842d79146101c45763ee69c4261461006c57600080fd5b346101bf5760203660031901126101bf576004356001600160a01b038116908190036101bf576000908152602081905260409020546001600160a01b031680156101845760006004916040519283809263db00e6b560e01b82525afa908115610178576000916100f1575b604051602080825281906100ed9082018561060f565b0390f35b3d8083833e6101008183610567565b810190602081830312610170578051906001600160401b038211610174570181601f82011215610170578051926101368461058a565b926101446040519485610567565b8484526020858401011161016d57506100ed9261016791602080850191016105ec565b906100d7565b80fd5b8280fd5b8380fd5b6040513d6000823e3d90fd5b60405162461bcd60e51b8152602060048201526013602482015272155cd95c881b9bdd081c9959da5cdd195c9959606a1b6044820152606490fd5b600080fd5b346101bf5760003660031901126101bf5760405180602060015492838152018092600160005260206000209060005b8181106102555750505081610209910382610567565b6040519182916020830190602084525180915260408301919060005b818110610233575050500390f35b82516001600160a01b0316845285945060209384019390920191600101610225565b82546001600160a01b03168452602090930192600192830192016101f3565b346101bf5760603660031901126101bf576004356001600160401b0381116101bf576102a49036906004016105a5565b6024356001600160401b0381116101bf576102c39036906004016105a5565b6044356001600160401b0381116101bf576102e29036906004016105a5565b336000908152602081905260409020546001600160a01b03166104125760405192610d3a91828501916001600160401b038311868410176103fc5785946103436103519261035f96610635893933865260806020870152608086019061060f565b90848203604086015261060f565b91606081840391015261060f565b03906000f080156101785733600090815260208190526040902080546001600160a01b0319166001600160a01b03929092169182179055600154600160401b8110156103fc578060016103b59201600155610536565b81549060031b9033821b9160018060a01b03901b19161790556040519081527fb6f19680cffbaef72e9e8c7664c30f56d86dd917d14d3ed104529c7c888e74a160203392a2005b634e487b7160e01b600052604160045260246000fd5b60405162461bcd60e51b8152602060048201526012602482015271105b1c9958591e481c9959da5cdd195c995960721b6044820152606490fd5b346101bf5760203660031901126101bf576004356001600160a01b038116908190036101bf576000526000602052602060018060a01b0360406000205416604051908152f35b346101bf5760203660031901126101bf576004356001548110156101bf576104bb602091610536565b905460405160039290921b1c6001600160a01b03168152f35b346101bf5760003660031901126101bf576020600154604051908152f35b346101bf5760203660031901126101bf576004356001600160a01b03811691908290036101bf57600091825260208281526040909220546001600160a01b03168152f35b60015481101561055157600160005260206000200190600090565b634e487b7160e01b600052603260045260246000fd5b601f909101601f19168101906001600160401b038211908210176103fc57604052565b6001600160401b0381116103fc57601f01601f191660200190565b81601f820112156101bf578035906105bc8261058a565b926105ca6040519485610567565b828452602083830101116101bf57816000926020809301838601378301015290565b60005b8381106105ff5750506000910152565b81810151838201526020016105ef565b90602091610628815180928185528580860191016105ec565b601f01601f191601019056fe6080604052346104b457610d3a80380380610019816104b9565b92833981016080828203126104b45781516001600160a01b038116908190036104b45760208301516001600160401b0381116104b4578261005b9185016104de565b60408401519093906001600160401b0381116104b4578361007d9183016104de565b60608201519093906001600160401b0381116104b45761009d92016104de565b600080546001600160a01b03191690921790915582516001600160401b0381116102de57600154600181811c911680156104aa575b60208210146102be57601f8111610445575b506020601f82116001146103de57819293946000926103d3575b50508160011b916000199060031b1c1916176001555b81516001600160401b0381116102de57600254600181811c911680156103c9575b60208210146102be57601f8111610364575b50602092601f82116001146102ff57928192936000926102f4575b50508160011b916000199060031b1c1916176002555b80516001600160401b0381116102de57600354600181811c911680156102d4575b60208210146102be57601f8111610259575b50602091601f82116001146101f5579181926000926101ea575b50508160011b916000199060031b1c1916176003555b6040516107f0908161054a8239f35b0151905038806101c5565b601f198216926003600052806000209160005b85811061024157508360019510610228575b505050811b016003556101db565b015160001960f88460031b161c1916905538808061021a565b91926020600181928685015181550194019201610208565b60036000527fc2575a0e9e593c00f959f8c92f12db2869c3395a3b0502d05e2516446f71f85b601f830160051c810191602084106102b4575b601f0160051c01905b8181106102a857506101ab565b6000815560010161029b565b9091508190610292565b634e487b7160e01b600052602260045260246000fd5b90607f1690610199565b634e487b7160e01b600052604160045260246000fd5b015190503880610162565b601f198216936002600052806000209160005b86811061034c5750836001959610610333575b505050811b01600255610178565b015160001960f88460031b161c19169055388080610325565b91926020600181928685015181550194019201610312565b60026000527f405787fa12a823e0f2b7631cc41b3ba8828b3321ca811111fa75cd3aa3bb5ace601f830160051c810191602084106103bf575b601f0160051c01905b8181106103b35750610147565b600081556001016103a6565b909150819061039d565b90607f1690610135565b0151905038806100fe565b601f198216906001600052806000209160005b81811061042d57509583600195969710610414575b505050811b01600155610114565b015160001960f88460031b161c19169055388080610406565b9192602060018192868b0151815501940192016103f1565b60016000527fb10e2d527612073b26eecdfd717e6a320cf44b4afac2b0732d9fcbe2b7fa0cf6601f830160051c810191602084106104a0575b601f0160051c01905b81811061049457506100e4565b60008155600101610487565b909150819061047e565b90607f16906100d2565b600080fd5b6040519190601f01601f191682016001600160401b038111838210176102de57604052565b81601f820112156104b4578051906001600160401b0382116102de5761050d601f8301601f19166020016104b9565b92828452602083830101116104b45760005b82811061053457505060206000918301015290565b8060208092840101518282870101520161051f56fe6080604052600436101561001257600080fd5b60003560e01c806306fdde03146105af578063820e93f5146105195780638da5cb5b146104f0578063d1384eb6146104325763db00e6b51461005357600080fd5b3461042d57600036600319011261042d57600054604051906001600160a01b031661007f60608361067f565b602a8252602082019060403683378251156104175760308253825160011015610417576078602184015360005b601481106103045750506100de604051926a3d913bb0b63632ba111d1160a91b6020850152518092602b8501906106b8565b6a11161132b6b0b4b6111d1160a91b602b918301918201526001546000929161010682610645565b91600181169081156102e4575060011461029c575b5050691116113730b6b2911d1160b11b825260025460009261013c82610645565b916001811690811561027c5750600114610234575b50507011161134b739ba34ba3aba34b7b7111d1160791b825260035460009261017982610645565b916001811690811561020c57506001146101c0575b6101bc836101b06002828861227d60f01b815203601d1981018452018261067f565b604051918291826106db565b0390f35b600360009081529193509060008051602061077b8339815191525b8482106101f5575050909101601101906101b0600261018e565b6001816020925460118587010152019101906101db565b6101bc95508491506002926101b09460119260ff19168383015280151502010194505061018e565b60026000908152929350909160008051602061075b8339815191525b83821061026557505001600a01903880610151565b60018160209254600a858701015201910190610250565b9050600a93945060ff929192191683830152801515020101903880610151565b60016000908152929350909160008051602061079b8339815191525b8382106102cd5750500160360190388061011b565b6001816020925460368587010152019101906102b8565b9050603693945060ff92919219168383015280151502010190388061011b565b80601303601381116103eb57600381901b906001600160fd1b038116036103eb5760ff81116103eb576001811b156104015782901c60f481901b600f60f81b169060f081169060ff1660ff16039060ff82116103eb5761036d906001600160f81b031916610718565b600183901b916001600160ff1b03841684036103eb57600283018084116103eb5761039f6103b29360001a9189610707565b5360f81b6001600160f81b031916610718565b6000600383018093116103d75760019392916103d0911a9187610707565b53016100ac565b634e487b7160e01b81526011600452602490fd5b634e487b7160e01b600052601160045260246000fd5b634e487b7160e01b600052601260045260246000fd5b634e487b7160e01b600052603260045260246000fd5b600080fd5b3461042d57600036600319011261042d576040516003546000908161045682610645565b80855291600181169081156104c9575060011461047e575b6101bc846101b08186038261067f565b6003815260008051602061077b833981519152939250905b8082106104af575090915081016020016101b08261046e565b919260018160209254838588010152019101909291610496565b60ff191660208087019190915292151560051b850190920192506101b0915083905061046e565b3461042d57600036600319011261042d576000546040516001600160a01b039091168152602090f35b3461042d57600036600319011261042d576040516001546000908161053d82610645565b80855291600181169081156104c95750600114610564576101bc846101b08186038261067f565b6001815260008051602061079b833981519152939250905b808210610595575090915081016020016101b08261046e565b91926001816020925483858801015201910190929161057c565b3461042d57600036600319011261042d57604051600254600090816105d382610645565b80855291600181169081156104c957506001146105fa576101bc846101b08186038261067f565b6002815260008051602061075b833981519152939250905b80821061062b575090915081016020016101b08261046e565b919260018160209254838588010152019101909291610612565b90600182811c92168015610675575b602083101461065f57565b634e487b7160e01b600052602260045260246000fd5b91607f1691610654565b601f909101601f19168101906001600160401b038211908210176106a257604052565b634e487b7160e01b600052604160045260246000fd5b60005b8381106106cb5750506000910152565b81810151838201526020016106bb565b604091602082526106fb81518092816020860152602086860191016106b8565b601f01601f1916010190565b908151811015610417570160200190565b60f81c600a81101561073f5760300160ff81116103eb5760f81b6001600160f81b03191690565b60570160ff81116103eb5760f81b6001600160f81b0319169056fe405787fa12a823e0f2b7631cc41b3ba8828b3321ca811111fa75cd3aa3bb5acec2575a0e9e593c00f959f8c92f12db2869c3395a3b0502d05e2516446f71f85bb10e2d527612073b26eecdfd717e6a320cf44b4afac2b0732d9fcbe2b7fa0cf6a264697066735822122026bb0d6f30d96512df7871819e6fbd4a0f91e30003d10fa6c041739fa8fe73d564736f6c634300081c0033a264697066735822122012359500be53b088cf4e34466c380cf8b0f1a2bd65065a32984f38ec54283ac564736f6c634300081c0033",
  "linkReferences": {},
  "deployedLinkReferences": {}
}