{
  "_format": "hh-sol-artifact-1",
  "contractName": "WorkflowLibrary",
  "sourceName": "contracts/WorkflowLibrary.sol",
  "abi": [
    {
      "anonymous": false,
      "inputs": [
        {
          "indexed": true,
          "internalType": "bytes32",
          "name": "proposalHash",
          "type": "bytes32"
        },
        {
          "indexed": false,
          "internalType": "bool",
          "name": "approved",
          "type": "bool"
        },
        {
          "indexed": false,
          "internalType": "uint256",
          "name": "totalVotes",
          "type": "uint256"
        }
      ],
      "name": "ConsensusReached",
      "type": "event"
    },
    {
      "anonymous": false,
      "inputs": [
        {
          "indexed": true,
          "internalType": "address",
          "name": "contributor",
          "type": "address"
        },
        {
          "indexed": false,
          "internalType": "string",
          "name": "dataHash",
          "type": "string"
        },
        {
          "indexed": false,
          "internalType": "string",
          "name": "submissionType",
          "type": "string"
        }
      ],
      "name": "SubmissionMade",
      "type": "event"
    },
    {
      "anonymous": false,
      "inputs": [
        {
          "indexed": true,
          "internalType": "bytes32",
          "name": "workflowId",
          "type": "bytes32"
        },
        {
          "indexed": false,
          "internalType": "bool",
          "name": "success",
          "type": "bool"
        },
        {
          "indexed": false,
          "internalType": "string",
          "name": "resultHash",
          "type": "string"
        }
      ],
      "name": "WorkflowCompleted",
      "type": "event"
    },
    {
      "anonymous": false,
      "inputs": [
        {
          "indexed": false,
          "internalType": "string",
          "name": "workflowType",
          "type": "string"
        },
        {
          "indexed": true,
          "internalType": "bytes32",
          "name": "workflowId",
          "type": "bytes32"
        },
        {
          "indexed": false,
          "internalType": "string",
          "name": "parameters",
          "type": "string"
        }
      ],
      "name": "WorkflowTriggered",
      "type": "event"
    },
    {
      "inputs": [
        {
          "internalType": "uint8",
          "name": "projectType",
          "type": "uint8"
        },
        {
          "internalType": "uint8",
          "name": "currentPhase",
          "type": "uint8"
        }
      ],
      "name": "getWorkflowTypeForPhase",
      "outputs": [
        {
          "internalType": "string",
          "name": "",
          "type": "string"
        }
      ],
      "stateMutability": "pure",
      "type": "function"
    }
  ],
  "bytecode": "0x60808060405234601b5761172390816100218239308160070152f35b600080fdfe6080604052307f000000000000000000000000000000000000000000000000000000000000000014600436101561003557600080fd5b60003560e01c908162554c9c14610ced5781637705154b1461067e5781639488baab1461062b578163c63fc3c0146100c8575063d242eace1461007757600080fd5b60403660031901126100c35760043560ff811681036100c3576024359060ff821682036100c3576100bf916100ab9161156f565b6040519182916020835260208301906113a3565b0390f35b600080fd5b6100c35760a03660031901126100c3576064356001600160401b0381116100c3576100f790369060040161132a565b6084356001600160401b0381116100c35761011690369060040161132a565b906040516020810190610166603482602086516101368188848b01611380565b820188519061014a82848301858d01611380565b01014281523360601b6020820152036014810184520182611307565b5190206040519290919061010084016001600160401b038111858210176103c657604052828452602084019382855281604082015242606082015260006080820152600060a0820152600060c08201526020946040516101c68782611307565b6000815260e0830152846000526004358652604060002090825182555180519060018060401b0382116103c657819061020260018501546113c8565b601f81116105da575b508890601f831160011461056e57600092610563575b50508160011b916000199060031b1c19161760018201555b60408201518051906001600160401b0382116103c65761025c60028401546113c8565b601f811161051a575b508790601f83116001146104a857918060e0949260069460009261049d575b50508160011b916000199060031b1c19161760028201555b60608401516003820155608084015160048201556102d76005820160a0860151151560ff8019835416911617815560c0860151151590611437565b0191015180519060018060401b0382116103c65781906102f784546113c8565b601f811161044c575b508790601f83116001146103e7576000926103dc575b50508160011b916000199060031b1c19161790555b6000838152602435855260409020805460ff191660011790556044355490600160401b8210156103c6576001820180604435558210156103b0578392837f3d40ddb544878b1ad7cb799fa9dd9e46ecc0b36a2219963926e1e1191005f620936044356000528760002001556103a56040519283928361140f565b0390a2604051908152f35b634e487b7160e01b600052603260045260246000fd5b634e487b7160e01b600052604160045260246000fd5b015190508780610316565b60008581528981209350601f198516905b8a82821061043657505090846001959493921061041d575b505050811b01905561032b565b015160001960f88460031b161c19169055878080610410565b60018596829396860151815501950193016103f8565b9091508360005287600020601f840160051c810191898510610493575b90601f859493920160051c01905b8181106104845750610300565b60008155849350600101610477565b9091508190610469565b015190508a80610284565b90601f1983169160028501600052896000209260005b8b82821061050457505092600192859260069660e09896106104eb575b505050811b01600282015561029c565b015160001960f88460031b161c191690558a80806104db565b60018596829396860151815501950193016104be565b6002840160005288600020601f840160051c8101918a8510610559575b601f0160051c01905b81811061054d5750610265565b60008155600101610540565b9091508190610537565b015190508880610221565b6001850160009081528a81209350601f198516905b8b8282106105c45750509084600195949392106105ab575b505050811b016001820155610239565b015160001960f88460031b161c1916905588808061059b565b6001859682939686015181550195019301610583565b9091506001840160005288600020601f840160051c81018a8510610624575b90849392915b601f830160051c8201811061061557505061020b565b600081558594506001016105ff565b50806105f9565b6100c35760c03660031901126100c35760a4356001600160401b0381116100c35761065a90369060040161132a565b50602061067460843560643560443560243560043561146b565b6040519015158152f35b6100c35760c03660031901126100c357600435602435604435906064359160843593841515948581036100c35760a4356001600160401b0381116100c3576106ca90369060040161132a565b93856000528060205260ff6040600020541615610ca9576000868152602084905260409020426004820155600501805460ff1916600117815561070e908390611437565b85600052826020526006604060002001855160018060401b0381116103c65761073782546113c8565b601f8111610c61575b50806020601f8211600114610bfc57600091610bf1575b508160011b916000199060031b1c19161790555b85600052602052604060002060ff19815416905580610be7575b6107bd575b836000805160206116ce83398151915284876107b860405192839283526040602084015260408301906113a3565b0390a2005b836000526020526001604060002001604051600091818154936107df856113c8565b928383526020830195600181169081600014610bc85750600114610b81575b5061080b92500382611307565b6040516020810190610837602082855161082681878a611380565b81010301601f198101835282611307565b51902060405160208101906d6d6f64656c5f747261696e696e6760901b8252600e8152610865602e82611307565b519020036109c25750506040516c18dd5c9c995b9d17db5bd9195b609a1b8152600d810191909152602d9020815193906001600160401b0385116103c6576108ad81546113c8565b601f811161097a575b506020601f86116001146109065794806000805160206116ce83398151915295966000916108fb575b508160011b916000199060031b1c19161790555b92918461078a565b9050840151876108df565b601f1986169082600052806000209160005b81811061096257509187916000805160206116ce833981519152979860019410610949575b5050811b0190556108f3565b86015160001960f88460031b161c19169055878061093d565b9192602060018192868a015181550194019201610918565b816000526020600020601f870160051c810191602088106109b8575b601f0160051c01905b8181106109ac57506108b6565b6000815560010161099f565b9091508190610996565b6109de6020604051809361082683830196879251928391611380565b51902060405160208101906e38bab2b93cafb9b2b632b1ba34b7b760891b8252600f8152610a0d602f82611307565b51902014610a2d575b506000805160206116ce83398151915291926108f3565b6040516e63757272656e745f7175657269657360881b8152600f810191909152602f9020815193906001600160401b0385116103c657610a6d81546113c8565b601f8111610b39575b506020601f8611600114610ac55794806000805160206116ce8339815191529596600091610aba575b508160011b916000199060031b1c19161790555b9291610a16565b905084015187610a9f565b601f1986169082600052806000209160005b818110610b2157509187916000805160206116ce833981519152979860019410610b08575b5050811b019055610ab3565b86015160001960f88460031b161c191690558780610afc565b9192602060018192868a015181550194019201610ad7565b816000526020600020601f870160051c81019160208810610b77575b601f0160051c01905b818110610b6b5750610a76565b60008155600101610b5e565b9091508190610b55565b90506000929192526020600020906000915b818310610bac57505090602061080b92820101896107fe565b6020919350806001915483858801015201910190918392610b93565b60ff191687525061080b93151560051b830160200191508a90506107fe565b5082511515610785565b90508701518a610757565b60008481528181209250601f198416905b8a828210610c495750509083600194939210610c30575b5050811b01905561076b565b89015160001960f88460031b161c191690558a80610c24565b60018495602093958493015181550194019201610c0d565b826000526020600020601f830160051c81019160208410610c9f575b601f0160051c01905b818110610c935750610740565b60008155600101610c86565b9091508190610c7d565b60405162461bcd60e51b815260206004820152601c60248201527b496e76616c6964206f7220696e61637469766520776f726b666c6f7760201b6044820152606490fd5b6100c35760c03660031901126100c3576044356001600160401b0381116100c357610d1c90369060040161132a565b6064356001600160401b0381116100c357610d3b90369060040161132a565b906084356001600160401b0381116100c357610d5b90369060040161132a565b9060a435918151156112c6578351156112815780511561123c57606483116111fc576040516020810190610d9a60208286516108268187858b01611380565b5190206000526004356020526040600020926040519060c0820182811060018060401b038211176103c657604052338252602082018481526040830196875260608301904282526080840192835260a0840196858852805490600160401b8210156103c657600182018082558210156103b057600090815260209020945160069190910290940180546001600160a01b0319166001600160a01b039590951694909417845551805160018501916001600160401b0382116103c6578190610e6184546113c8565b601f81116111a9575b50602090601f831160011461114457600092611139575b50508160011b916000199060031b1c19161790555b9551805190969060028401906001600160401b0381116103c657610eba82546113c8565b601f81116110f1575b506020601f821160011461108657819060059798999a60009261107b575b50508160011b916000199060031b1c19161790555b51600383015551600482015501925192835160018060401b0381116103c657610f1f82546113c8565b601f8111611033575b50602094601f8211600114610fce57948192939495600092610fc3575b50508160011b916000199060031b1c19161790555b3360009081526024356020526040902080546001810192908310610fad577f0a2b50d72bc6fbf7d53199a229bf3b6c3bc039333f2e261c3e31fee499007e76926107b8925560405191829133958361140f565b634e487b7160e01b600052601160045260246000fd5b015190508580610f45565b601f1982169583600052806000209160005b88811061101b57508360019596979810611002575b505050811b019055610f5a565b015160001960f88460031b161c19169055858080610ff5565b91926020600181928685015181550194019201610fe0565b826000526020600020601f830160051c81019160208410611071575b601f0160051c01905b8181106110655750610f28565b60008155600101611058565b909150819061104f565b015190508a80610ee1565b601f1982169983600052816000209a60005b8181106110d9575091600598999a9b918460019594106110c0575b505050811b019055610ef6565b015160001960f88460031b161c191690558a80806110b3565b838301518d556001909c019b60209384019301611098565b826000526020600020601f830160051c8101916020841061112f575b601f0160051c01905b8181106111235750610ec3565b60008155600101611116565b909150819061110d565b015190508a80610e81565b60008581528281209350601f198516905b8181106111915750908460019594939210611178575b505050811b019055610e96565b015160001960f88460031b161c191690558a808061116b565b92936020600181928786015181550195019301611155565b909150836000526020600020601f840160051c810191602085106111f2575b90601f859493920160051c01905b8181106111e35750610e6a565b600081558493506001016111d6565b90915081906111c8565b60405162461bcd60e51b8152602060048201526018602482015277496e76616c696420636f6e666964656e63652076616c756560401b6044820152606490fd5b60405162461bcd60e51b815260206004820152601f60248201527f5375626d697373696f6e20747970652063616e6e6f7420626520656d707479006044820152606490fd5b60405162461bcd60e51b815260206004820152601f60248201527f5375626d697373696f6e20686173682063616e6e6f7420626520656d707479006044820152606490fd5b60405162461bcd60e51b81526020600482015260196024820152784461746120686173682063616e6e6f7420626520656d70747960381b6044820152606490fd5b601f909101601f19168101906001600160401b038211908210176103c657604052565b81601f820112156100c3578035906001600160401b0382116103c6576040519261135e601f8401601f191660200185611307565b828452602083830101116100c357816000926020809301838601378301015290565b60005b8381106113935750506000910152565b8181015183820152602001611383565b906020916113bc81518092818552858086019101611380565b601f01601f1916010190565b90600182811c921680156113f8575b60208310146113e257565b634e487b7160e01b600052602260045260246000fd5b91607f16916113d7565b91908201809211610fad57565b9091611426611434936040845260408401906113a3565b9160208184039101526113a3565b90565b9061ff00825491151560081b169061ff001916179055565b80548210156103b0576000526005602060002091020190600090565b93929383600052602052604060002093600092839284968054975b88811061150c575050505460011c8510156114a5575050505050600090565b606482029180830460641490151715610fad5782156114f6577ff82d4ada24984256df3d568e911e67d66779debd1002ec9e94f076101d79175692604092041015938151908582526020820152a290565b634e487b7160e01b600052601260045260246000fd5b61153a604061151b838561144f565b50546001600160a01b0316600090815260208690522054978890611402565b9660ff6002611549848661144f565b5001541661155b575b50600101611486565b6115689060019297611402565b9590611552565b60ff166001810361164d575060ff166001811461161f57600381146115f2576004146115c4575b6040516115a4604082611307565b601081526f67656e657269635f776f726b666c6f7760801b602082015290565b6040516115d2604082611307565b601081526f36b7b232b62fb2bb30b63ab0ba34b7b760811b602082015290565b50604051611601604082611307565b600e81526d6d6f64656c5f747261696e696e6760901b602082015290565b5060405161162e604082611307565b600f81526e38bab2b93cafb9b2b632b1ba34b7b760891b602082015290565b60021461165b575b50611596565b60ff166003811461169c576004146116735738611655565b604051611681604082611307565b600b81526a30b3b3b932b3b0ba34b7b760a91b602082015290565b506040516116ab604082611307565b60128152716665646572617465645f747261696e696e6760701b60208201529056fe3be2d9cdc5591687180a3635cf18489a7ea51dedcda312fb0354d92e05b63d1ba2646970667358221220fd5ab479d792c833a0b9af651e4716d02b1a3c7221121d39cfa3c4e32822ed4864736f6c634300081c0033",
  "linkReferences": {},
  "deployedLinkReferences": {}
}